{
	"contracts/Govern.sol": {
		"Govern": {
			"abi": [
				{
					"inputs": [
						{
							"internalType": "address",
							"name": "_initialExecutor",
							"type": "address"
						}
					],
					"stateMutability": "nonpayable",
					"type": "constructor"
				},
				{
					"anonymous": false,
					"inputs": [
						{
							"indexed": true,
							"internalType": "address",
							"name": "sender",
							"type": "address"
						},
						{
							"indexed": true,
							"internalType": "address",
							"name": "token",
							"type": "address"
						},
						{
							"indexed": false,
							"internalType": "uint256",
							"name": "amount",
							"type": "uint256"
						},
						{
							"indexed": false,
							"internalType": "string",
							"name": "_reference",
							"type": "string"
						}
					],
					"name": "Deposited",
					"type": "event"
				},
				{
					"anonymous": false,
					"inputs": [
						{
							"indexed": false,
							"internalType": "address",
							"name": "sender",
							"type": "address"
						},
						{
							"indexed": false,
							"internalType": "uint256",
							"name": "amount",
							"type": "uint256"
						}
					],
					"name": "ETHDeposited",
					"type": "event"
				},
				{
					"anonymous": false,
					"inputs": [
						{
							"indexed": true,
							"internalType": "address",
							"name": "actor",
							"type": "address"
						},
						{
							"components": [
								{
									"internalType": "address",
									"name": "to",
									"type": "address"
								},
								{
									"internalType": "uint256",
									"name": "value",
									"type": "uint256"
								},
								{
									"internalType": "bytes",
									"name": "data",
									"type": "bytes"
								}
							],
							"indexed": false,
							"internalType": "struct ERC3000Data.Action[]",
							"name": "actions",
							"type": "tuple[]"
						},
						{
							"indexed": false,
							"internalType": "bytes32",
							"name": "memo",
							"type": "bytes32"
						},
						{
							"indexed": false,
							"internalType": "bytes32",
							"name": "failureMap",
							"type": "bytes32"
						},
						{
							"indexed": false,
							"internalType": "bytes[]",
							"name": "execResults",
							"type": "bytes[]"
						}
					],
					"name": "Executed",
					"type": "event"
				},
				{
					"anonymous": false,
					"inputs": [
						{
							"indexed": true,
							"internalType": "bytes4",
							"name": "role",
							"type": "bytes4"
						},
						{
							"indexed": true,
							"internalType": "address",
							"name": "actor",
							"type": "address"
						}
					],
					"name": "Frozen",
					"type": "event"
				},
				{
					"anonymous": false,
					"inputs": [
						{
							"indexed": true,
							"internalType": "bytes4",
							"name": "role",
							"type": "bytes4"
						},
						{
							"indexed": true,
							"internalType": "address",
							"name": "actor",
							"type": "address"
						},
						{
							"indexed": true,
							"internalType": "address",
							"name": "who",
							"type": "address"
						},
						{
							"indexed": false,
							"internalType": "contract IACLOracle",
							"name": "oracle",
							"type": "address"
						}
					],
					"name": "Granted",
					"type": "event"
				},
				{
					"anonymous": false,
					"inputs": [
						{
							"indexed": true,
							"internalType": "string",
							"name": "key",
							"type": "string"
						}
					],
					"name": "Initialized",
					"type": "event"
				},
				{
					"anonymous": false,
					"inputs": [
						{
							"indexed": true,
							"internalType": "bytes4",
							"name": "sig",
							"type": "bytes4"
						},
						{
							"indexed": false,
							"internalType": "bytes",
							"name": "data",
							"type": "bytes"
						}
					],
					"name": "ReceivedCallback",
					"type": "event"
				},
				{
					"anonymous": false,
					"inputs": [
						{
							"indexed": false,
							"internalType": "bytes4",
							"name": "sig",
							"type": "bytes4"
						},
						{
							"indexed": false,
							"internalType": "bytes4",
							"name": "magicNumber",
							"type": "bytes4"
						}
					],
					"name": "RegisteredCallback",
					"type": "event"
				},
				{
					"anonymous": false,
					"inputs": [
						{
							"indexed": false,
							"internalType": "bytes4",
							"name": "interfaceId",
							"type": "bytes4"
						}
					],
					"name": "RegisteredStandard",
					"type": "event"
				},
				{
					"anonymous": false,
					"inputs": [
						{
							"indexed": true,
							"internalType": "bytes4",
							"name": "role",
							"type": "bytes4"
						},
						{
							"indexed": true,
							"internalType": "address",
							"name": "actor",
							"type": "address"
						},
						{
							"indexed": true,
							"internalType": "address",
							"name": "who",
							"type": "address"
						}
					],
					"name": "Revoked",
					"type": "event"
				},
				{
					"anonymous": false,
					"inputs": [
						{
							"indexed": true,
							"internalType": "address",
							"name": "token",
							"type": "address"
						},
						{
							"indexed": true,
							"internalType": "address",
							"name": "to",
							"type": "address"
						},
						{
							"indexed": false,
							"internalType": "address",
							"name": "from",
							"type": "address"
						},
						{
							"indexed": false,
							"internalType": "uint256",
							"name": "amount",
							"type": "uint256"
						},
						{
							"indexed": false,
							"internalType": "string",
							"name": "_reference",
							"type": "string"
						}
					],
					"name": "Withdrawn",
					"type": "event"
				},
				{
					"stateMutability": "nonpayable",
					"type": "fallback"
				},
				{
					"inputs": [],
					"name": "ROOT_ROLE",
					"outputs": [
						{
							"internalType": "bytes4",
							"name": "",
							"type": "bytes4"
						}
					],
					"stateMutability": "view",
					"type": "function"
				},
				{
					"inputs": [
						{
							"components": [
								{
									"internalType": "enum ACLData.BulkOp",
									"name": "op",
									"type": "uint8"
								},
								{
									"internalType": "bytes4",
									"name": "role",
									"type": "bytes4"
								},
								{
									"internalType": "address",
									"name": "who",
									"type": "address"
								}
							],
							"internalType": "struct ACLData.BulkItem[]",
							"name": "items",
							"type": "tuple[]"
						}
					],
					"name": "bulk",
					"outputs": [],
					"stateMutability": "nonpayable",
					"type": "function"
				},
				{
					"inputs": [
						{
							"internalType": "address",
							"name": "_token",
							"type": "address"
						},
						{
							"internalType": "uint256",
							"name": "_amount",
							"type": "uint256"
						},
						{
							"internalType": "string",
							"name": "_reference",
							"type": "string"
						}
					],
					"name": "deposit",
					"outputs": [],
					"stateMutability": "payable",
					"type": "function"
				},
				{
					"inputs": [
						{
							"components": [
								{
									"internalType": "address",
									"name": "to",
									"type": "address"
								},
								{
									"internalType": "uint256",
									"name": "value",
									"type": "uint256"
								},
								{
									"internalType": "bytes",
									"name": "data",
									"type": "bytes"
								}
							],
							"internalType": "struct ERC3000Data.Action[]",
							"name": "actions",
							"type": "tuple[]"
						},
						{
							"internalType": "bytes32",
							"name": "allowFailuresMap",
							"type": "bytes32"
						},
						{
							"internalType": "bytes32",
							"name": "memo",
							"type": "bytes32"
						}
					],
					"name": "exec",
					"outputs": [
						{
							"internalType": "bytes32",
							"name": "",
							"type": "bytes32"
						},
						{
							"internalType": "bytes[]",
							"name": "",
							"type": "bytes[]"
						}
					],
					"stateMutability": "nonpayable",
					"type": "function"
				},
				{
					"inputs": [
						{
							"internalType": "bytes4",
							"name": "_role",
							"type": "bytes4"
						}
					],
					"name": "freeze",
					"outputs": [],
					"stateMutability": "nonpayable",
					"type": "function"
				},
				{
					"inputs": [
						{
							"internalType": "bytes4",
							"name": "_role",
							"type": "bytes4"
						},
						{
							"internalType": "address",
							"name": "_who",
							"type": "address"
						}
					],
					"name": "grant",
					"outputs": [],
					"stateMutability": "nonpayable",
					"type": "function"
				},
				{
					"inputs": [
						{
							"internalType": "bytes4",
							"name": "_role",
							"type": "bytes4"
						},
						{
							"internalType": "address",
							"name": "_who",
							"type": "address"
						},
						{
							"internalType": "contract IACLOracle",
							"name": "_oracle",
							"type": "address"
						}
					],
					"name": "grantWithOracle",
					"outputs": [],
					"stateMutability": "nonpayable",
					"type": "function"
				},
				{
					"inputs": [
						{
							"internalType": "string",
							"name": "",
							"type": "string"
						}
					],
					"name": "initBlocks",
					"outputs": [
						{
							"internalType": "uint256",
							"name": "",
							"type": "uint256"
						}
					],
					"stateMutability": "view",
					"type": "function"
				},
				{
					"inputs": [
						{
							"internalType": "address",
							"name": "_initialExecutor",
							"type": "address"
						}
					],
					"name": "initialize",
					"outputs": [],
					"stateMutability": "nonpayable",
					"type": "function"
				},
				{
					"inputs": [
						{
							"internalType": "bytes4",
							"name": "_role",
							"type": "bytes4"
						}
					],
					"name": "isFrozen",
					"outputs": [
						{
							"internalType": "bool",
							"name": "",
							"type": "bool"
						}
					],
					"stateMutability": "view",
					"type": "function"
				},
				{
					"inputs": [
						{
							"internalType": "bytes32",
							"name": "_hash",
							"type": "bytes32"
						},
						{
							"internalType": "bytes",
							"name": "_signature",
							"type": "bytes"
						}
					],
					"name": "isValidSignature",
					"outputs": [
						{
							"internalType": "bytes4",
							"name": "",
							"type": "bytes4"
						}
					],
					"stateMutability": "view",
					"type": "function"
				},
				{
					"inputs": [
						{
							"internalType": "bytes4",
							"name": "_interfaceId",
							"type": "bytes4"
						},
						{
							"internalType": "bytes4",
							"name": "_callbackSig",
							"type": "bytes4"
						},
						{
							"internalType": "bytes4",
							"name": "_magicNumber",
							"type": "bytes4"
						}
					],
					"name": "registerStandardAndCallback",
					"outputs": [],
					"stateMutability": "nonpayable",
					"type": "function"
				},
				{
					"inputs": [
						{
							"internalType": "bytes4",
							"name": "_role",
							"type": "bytes4"
						},
						{
							"internalType": "address",
							"name": "_who",
							"type": "address"
						}
					],
					"name": "revoke",
					"outputs": [],
					"stateMutability": "nonpayable",
					"type": "function"
				},
				{
					"inputs": [
						{
							"internalType": "bytes4",
							"name": "",
							"type": "bytes4"
						},
						{
							"internalType": "address",
							"name": "",
							"type": "address"
						}
					],
					"name": "roles",
					"outputs": [
						{
							"internalType": "address",
							"name": "",
							"type": "address"
						}
					],
					"stateMutability": "view",
					"type": "function"
				},
				{
					"inputs": [
						{
							"internalType": "contract ERC1271",
							"name": "_signatureValidator",
							"type": "address"
						}
					],
					"name": "setSignatureValidator",
					"outputs": [],
					"stateMutability": "nonpayable",
					"type": "function"
				},
				{
					"inputs": [
						{
							"internalType": "bytes4",
							"name": "_interfaceId",
							"type": "bytes4"
						}
					],
					"name": "supportsInterface",
					"outputs": [
						{
							"internalType": "bool",
							"name": "",
							"type": "bool"
						}
					],
					"stateMutability": "view",
					"type": "function"
				},
				{
					"inputs": [
						{
							"internalType": "address",
							"name": "_token",
							"type": "address"
						},
						{
							"internalType": "address",
							"name": "_from",
							"type": "address"
						},
						{
							"internalType": "address",
							"name": "_to",
							"type": "address"
						},
						{
							"internalType": "uint256",
							"name": "_amount",
							"type": "uint256"
						},
						{
							"internalType": "string",
							"name": "_reference",
							"type": "string"
						}
					],
					"name": "withdraw",
					"outputs": [],
					"stateMutability": "nonpayable",
					"type": "function"
				},
				{
					"stateMutability": "payable",
					"type": "receive"
				}
			],
			"devdoc": {
				"methods": {}
			},
			"evm": {
				"assembly": "    /* \"contracts/Govern.sol\":363:6059  contract Govern is IERC3000Executor, AdaptiveERC165, ERC1271, ACL {\r... */\n  mstore(0x40, 0x80)\n    /* \"contracts/Govern.sol\":2320:2431  constructor(address _initialExecutor) ACL(address(this)) public {\r... */\n  callvalue\n    /* \"--CODEGEN--\":5:14   */\n  dup1\n    /* \"--CODEGEN--\":2:4   */\n  iszero\n  tag_1\n  jumpi\n    /* \"--CODEGEN--\":27:28   */\n  0x00\n    /* \"--CODEGEN--\":24:25   */\n  dup1\n    /* \"--CODEGEN--\":17:29   */\n  revert\n    /* \"--CODEGEN--\":2:4   */\ntag_1:\n    /* \"contracts/Govern.sol\":2320:2431  constructor(address _initialExecutor) ACL(address(this)) public {\r... */\n  pop\n  mload(0x40)\n  sub(codesize, bytecodeSize)\n  dup1\n  bytecodeSize\n  dup4\n  codecopy\n  dup2\n  dup2\n  add\n  0x40\n  mstore\n  dup2\n  add\n  swap1\n  tag_2\n  swap2\n  swap1\n  jump(tag_3)\ntag_2:\n    /* \"contracts/Govern.sol\":2370:2374  this */\n  address\n    /* \"contracts/ACL.sol\":1805:1817  _initialRoot */\n  dup1\n    /* \"contracts/ACL.sol\":1553:1554  0 */\n  0x00\n    /* \"contracts/ACL.sol\":1532:1542  initBlocks */\n  0x02\n    /* \"contracts/ACL.sol\":1532:1549  initBlocks[\"acl\"] */\n  mload(0x40)\n  tag_7\n  swap1\n  jump(tag_8)\ntag_7:\n  swap1\n  dup2\n  mstore\n  0x20\n  add\n  mload(0x40)\n  dup1\n  swap2\n  sub\n  swap1\n  keccak256\n  sload\n    /* \"contracts/ACL.sol\":1532:1554  initBlocks[\"acl\"] == 0 */\n  eq\n    /* \"contracts/ACL.sol\":1528:1729  if (initBlocks[\"acl\"] == 0) {\r... */\n  iszero\n  tag_9\n  jumpi\n    /* \"contracts/ACL.sol\":1571:1599  _initializeACL(_initialRoot) */\n  tag_10\n    /* \"contracts/ACL.sol\":1586:1598  _initialRoot */\n  dup2\n    /* \"contracts/ACL.sol\":1571:1585  _initializeACL */\n  shl(0x20, tag_11)\n    /* \"contracts/ACL.sol\":1571:1599  _initializeACL(_initialRoot) */\n  0x20\n  shr\n  jump\t// in\ntag_10:\n    /* \"contracts/ACL.sol\":1528:1729  if (initBlocks[\"acl\"] == 0) {\r... */\n  jump(tag_12)\ntag_9:\n    /* \"contracts/ACL.sol\":830:831  2 */\n  0x02\n    /* \"contracts/ACL.sol\":1640:1684  roles[ROOT_ROLE][_initialRoot] == ALLOW_FLAG */\n  0xffffffffffffffffffffffffffffffffffffffff\n  and\n    /* \"contracts/ACL.sol\":1640:1645  roles */\n  0x03\n    /* \"contracts/ACL.sol\":1640:1656  roles[ROOT_ROLE] */\n  0x00\n    /* \"contracts/ACL.sol\":511:529  this.bulk.selector */\n  shl(0xe0, 0x1c47671b)\n    /* \"contracts/ACL.sol\":479:499  this.freeze.selector */\n  shl(0xe0, 0xbdf9a726)\n    /* \"contracts/ACL.sol\":447:467  this.revoke.selector */\n  shl(0xe0, 0x58849734)\n    /* \"contracts/ACL.sol\":416:435  this.grant.selector */\n  shl(0xe0, 0xa157a10d)\n    /* \"contracts/ACL.sol\":416:467  this.grant.selector\r... */\n  xor\n    /* \"contracts/ACL.sol\":416:499  this.grant.selector\r... */\n  xor\n    /* \"contracts/ACL.sol\":416:529  this.grant.selector\r... */\n  xor\n    /* \"contracts/ACL.sol\":1640:1656  roles[ROOT_ROLE] */\n  not(0xffffffffffffffffffffffffffffffffffffffffffffffffffffffff)\n  and\n  not(0xffffffffffffffffffffffffffffffffffffffffffffffffffffffff)\n  and\n  dup2\n  mstore\n  0x20\n  add\n  swap1\n  dup2\n  mstore\n  0x20\n  add\n  0x00\n  keccak256\n    /* \"contracts/ACL.sol\":1640:1670  roles[ROOT_ROLE][_initialRoot] */\n  0x00\n    /* \"contracts/ACL.sol\":1657:1669  _initialRoot */\n  dup4\n    /* \"contracts/ACL.sol\":1640:1670  roles[ROOT_ROLE][_initialRoot] */\n  0xffffffffffffffffffffffffffffffffffffffff\n  and\n  0xffffffffffffffffffffffffffffffffffffffff\n  and\n  dup2\n  mstore\n  0x20\n  add\n  swap1\n  dup2\n  mstore\n  0x20\n  add\n  0x00\n  keccak256\n  0x00\n  swap1\n  sload\n  swap1\n  0x0100\n  exp\n  swap1\n  div\n  0xffffffffffffffffffffffffffffffffffffffff\n  and\n    /* \"contracts/ACL.sol\":1640:1684  roles[ROOT_ROLE][_initialRoot] == ALLOW_FLAG */\n  0xffffffffffffffffffffffffffffffffffffffff\n  and\n  eq\n    /* \"contracts/ACL.sol\":1632:1717  require(roles[ROOT_ROLE][_initialRoot] == ALLOW_FLAG, \"acl: initial root misaligned\") */\n  tag_13\n  jumpi\n  mload(0x40)\n  0x08c379a000000000000000000000000000000000000000000000000000000000\n  dup2\n  mstore\n  0x04\n  add\n  tag_14\n  swap1\n  jump(tag_15)\ntag_14:\n  mload(0x40)\n  dup1\n  swap2\n  sub\n  swap1\n  revert\ntag_13:\n    /* \"contracts/ACL.sol\":1528:1729  if (initBlocks[\"acl\"] == 0) {\r... */\ntag_12:\n    /* \"contracts/ACL.sol\":1756:1822  constructor(address _initialRoot) public initACL(_initialRoot) { } */\n  pop\n  pop\n    /* \"contracts/Govern.sol\":2395:2423  initialize(_initialExecutor) */\n  tag_18\n    /* \"contracts/Govern.sol\":2406:2422  _initialExecutor */\n  dup2\n    /* \"contracts/Govern.sol\":2395:2405  initialize */\n  shl(0x20, tag_19)\n    /* \"contracts/Govern.sol\":2395:2423  initialize(_initialExecutor) */\n  0x20\n  shr\n  jump\t// in\ntag_18:\n    /* \"contracts/Govern.sol\":2320:2431  constructor(address _initialExecutor) ACL(address(this)) public {\r... */\n  pop\n    /* \"contracts/Govern.sol\":363:6059  contract Govern is IERC3000Executor, AdaptiveERC165, ERC1271, ACL {\r... */\n  jump(tag_20)\n    /* \"contracts/ACL.sol\":3181:3302  function _initializeACL(address _initialRoot) internal onlyInit(\"acl\") {\r... */\ntag_11:\n    /* \"contracts/Initializable.sol\":203:411  modifier onlyInit(string memory key) {\r... */\n  mload(0x40)\n  dup1\n  0x40\n  add\n  0x40\n  mstore\n  dup1\n  0x03\n  dup2\n  mstore\n  0x20\n  add\n  0x61636c0000000000000000000000000000000000000000000000000000000000\n  dup2\n  mstore\n  pop\n    /* \"contracts/Initializable.sol\":278:279  0 */\n  0x00\n    /* \"contracts/Initializable.sol\":259:269  initBlocks */\n  0x02\n    /* \"contracts/Initializable.sol\":270:273  key */\n  dup3\n    /* \"contracts/Initializable.sol\":259:274  initBlocks[key] */\n  mload(0x40)\n  tag_22\n  swap2\n  swap1\n  jump(tag_23)\ntag_22:\n  swap1\n  dup2\n  mstore\n  0x20\n  add\n  mload(0x40)\n  dup1\n  swap2\n  sub\n  swap1\n  keccak256\n  sload\n    /* \"contracts/Initializable.sol\":259:279  initBlocks[key] == 0 */\n  eq\n    /* \"contracts/Initializable.sol\":251:318  require(initBlocks[key] == 0, \"initializable: already initialized\") */\n  tag_24\n  jumpi\n  mload(0x40)\n  0x08c379a000000000000000000000000000000000000000000000000000000000\n  dup2\n  mstore\n  0x04\n  add\n  tag_25\n  swap1\n  jump(tag_26)\ntag_25:\n  mload(0x40)\n  dup1\n  swap2\n  sub\n  swap1\n  revert\ntag_24:\n    /* \"contracts/Initializable.sol\":347:359  block.number */\n  number\n    /* \"contracts/Initializable.sol\":329:339  initBlocks */\n  0x02\n    /* \"contracts/Initializable.sol\":340:343  key */\n  dup3\n    /* \"contracts/Initializable.sol\":329:344  initBlocks[key] */\n  mload(0x40)\n  tag_27\n  swap2\n  swap1\n  jump(tag_23)\ntag_27:\n  swap1\n  dup2\n  mstore\n  0x20\n  add\n  mload(0x40)\n  dup1\n  swap2\n  sub\n  swap1\n  keccak256\n    /* \"contracts/Initializable.sol\":329:359  initBlocks[key] = block.number */\n  dup2\n  swap1\n  sstore\n  pop\n    /* \"contracts/ACL.sol\":3263:3294  _grant(ROOT_ROLE, _initialRoot) */\n  tag_29\n    /* \"contracts/ACL.sol\":511:529  this.bulk.selector */\n  shl(0xe0, 0x1c47671b)\n    /* \"contracts/ACL.sol\":479:499  this.freeze.selector */\n  shl(0xe0, 0xbdf9a726)\n    /* \"contracts/ACL.sol\":447:467  this.revoke.selector */\n  shl(0xe0, 0x58849734)\n    /* \"contracts/ACL.sol\":416:435  this.grant.selector */\n  shl(0xe0, 0xa157a10d)\n    /* \"contracts/ACL.sol\":416:467  this.grant.selector\r... */\n  xor\n    /* \"contracts/ACL.sol\":416:499  this.grant.selector\r... */\n  xor\n    /* \"contracts/ACL.sol\":416:529  this.grant.selector\r... */\n  xor\n    /* \"contracts/ACL.sol\":3281:3293  _initialRoot */\n  dup4\n    /* \"contracts/ACL.sol\":3263:3269  _grant */\n  shl(0x20, tag_30)\n    /* \"contracts/ACL.sol\":3263:3294  _grant(ROOT_ROLE, _initialRoot) */\n  0x20\n  shr\n  jump\t// in\ntag_29:\n    /* \"contracts/Initializable.sol\":399:402  key */\n  dup1\n    /* \"contracts/Initializable.sol\":387:403  Initialized(key) */\n  mload(0x40)\n  tag_31\n  swap2\n  swap1\n  jump(tag_23)\ntag_31:\n  mload(0x40)\n  dup1\n  swap2\n  sub\n  swap1\n  keccak256\n  0x7bc2a48a4a566e237a12186f19d985b0f76afc9d5290601edac19876253670c2\n  mload(0x40)\n  mload(0x40)\n  dup1\n  swap2\n  sub\n  swap1\n  log2\n    /* \"contracts/ACL.sol\":3181:3302  function _initializeACL(address _initialRoot) internal onlyInit(\"acl\") {\r... */\n  pop\n  pop\n  jump\t// out\n    /* \"contracts/Govern.sol\":2439:2980  function initialize(address _initialExecutor) public initACL(address(this)) onlyInit(\"govern\") {\r... */\ntag_19:\n    /* \"contracts/Govern.sol\":2508:2512  this */\n  address\n    /* \"contracts/ACL.sol\":1553:1554  0 */\n  0x00\n    /* \"contracts/ACL.sol\":1532:1542  initBlocks */\n  0x02\n    /* \"contracts/ACL.sol\":1532:1549  initBlocks[\"acl\"] */\n  mload(0x40)\n  tag_33\n  swap1\n  jump(tag_8)\ntag_33:\n  swap1\n  dup2\n  mstore\n  0x20\n  add\n  mload(0x40)\n  dup1\n  swap2\n  sub\n  swap1\n  keccak256\n  sload\n    /* \"contracts/ACL.sol\":1532:1554  initBlocks[\"acl\"] == 0 */\n  eq\n    /* \"contracts/ACL.sol\":1528:1729  if (initBlocks[\"acl\"] == 0) {\r... */\n  iszero\n  tag_34\n  jumpi\n    /* \"contracts/ACL.sol\":1571:1599  _initializeACL(_initialRoot) */\n  tag_35\n    /* \"contracts/ACL.sol\":1586:1598  _initialRoot */\n  dup2\n    /* \"contracts/ACL.sol\":1571:1585  _initializeACL */\n  shl(0x20, tag_11)\n    /* \"contracts/ACL.sol\":1571:1599  _initializeACL(_initialRoot) */\n  0x20\n  shr\n  jump\t// in\ntag_35:\n    /* \"contracts/ACL.sol\":1528:1729  if (initBlocks[\"acl\"] == 0) {\r... */\n  jump(tag_36)\ntag_34:\n    /* \"contracts/ACL.sol\":830:831  2 */\n  0x02\n    /* \"contracts/ACL.sol\":1640:1684  roles[ROOT_ROLE][_initialRoot] == ALLOW_FLAG */\n  0xffffffffffffffffffffffffffffffffffffffff\n  and\n    /* \"contracts/ACL.sol\":1640:1645  roles */\n  0x03\n    /* \"contracts/ACL.sol\":1640:1656  roles[ROOT_ROLE] */\n  0x00\n    /* \"contracts/ACL.sol\":511:529  this.bulk.selector */\n  shl(0xe0, 0x1c47671b)\n    /* \"contracts/ACL.sol\":479:499  this.freeze.selector */\n  shl(0xe0, 0xbdf9a726)\n    /* \"contracts/ACL.sol\":447:467  this.revoke.selector */\n  shl(0xe0, 0x58849734)\n    /* \"contracts/ACL.sol\":416:435  this.grant.selector */\n  shl(0xe0, 0xa157a10d)\n    /* \"contracts/ACL.sol\":416:467  this.grant.selector\r... */\n  xor\n    /* \"contracts/ACL.sol\":416:499  this.grant.selector\r... */\n  xor\n    /* \"contracts/ACL.sol\":416:529  this.grant.selector\r... */\n  xor\n    /* \"contracts/ACL.sol\":1640:1656  roles[ROOT_ROLE] */\n  not(0xffffffffffffffffffffffffffffffffffffffffffffffffffffffff)\n  and\n  not(0xffffffffffffffffffffffffffffffffffffffffffffffffffffffff)\n  and\n  dup2\n  mstore\n  0x20\n  add\n  swap1\n  dup2\n  mstore\n  0x20\n  add\n  0x00\n  keccak256\n    /* \"contracts/ACL.sol\":1640:1670  roles[ROOT_ROLE][_initialRoot] */\n  0x00\n    /* \"contracts/ACL.sol\":1657:1669  _initialRoot */\n  dup4\n    /* \"contracts/ACL.sol\":1640:1670  roles[ROOT_ROLE][_initialRoot] */\n  0xffffffffffffffffffffffffffffffffffffffff\n  and\n  0xffffffffffffffffffffffffffffffffffffffff\n  and\n  dup2\n  mstore\n  0x20\n  add\n  swap1\n  dup2\n  mstore\n  0x20\n  add\n  0x00\n  keccak256\n  0x00\n  swap1\n  sload\n  swap1\n  0x0100\n  exp\n  swap1\n  div\n  0xffffffffffffffffffffffffffffffffffffffff\n  and\n    /* \"contracts/ACL.sol\":1640:1684  roles[ROOT_ROLE][_initialRoot] == ALLOW_FLAG */\n  0xffffffffffffffffffffffffffffffffffffffff\n  and\n  eq\n    /* \"contracts/ACL.sol\":1632:1717  require(roles[ROOT_ROLE][_initialRoot] == ALLOW_FLAG, \"acl: initial root misaligned\") */\n  tag_37\n  jumpi\n  mload(0x40)\n  0x08c379a000000000000000000000000000000000000000000000000000000000\n  dup2\n  mstore\n  0x04\n  add\n  tag_38\n  swap1\n  jump(tag_15)\ntag_38:\n  mload(0x40)\n  dup1\n  swap2\n  sub\n  swap1\n  revert\ntag_37:\n    /* \"contracts/ACL.sol\":1528:1729  if (initBlocks[\"acl\"] == 0) {\r... */\ntag_36:\n    /* \"contracts/Initializable.sol\":203:411  modifier onlyInit(string memory key) {\r... */\n  mload(0x40)\n  dup1\n  0x40\n  add\n  0x40\n  mstore\n  dup1\n  0x06\n  dup2\n  mstore\n  0x20\n  add\n  0x676f7665726e0000000000000000000000000000000000000000000000000000\n  dup2\n  mstore\n  pop\n    /* \"contracts/Initializable.sol\":278:279  0 */\n  0x00\n    /* \"contracts/Initializable.sol\":259:269  initBlocks */\n  0x02\n    /* \"contracts/Initializable.sol\":270:273  key */\n  dup3\n    /* \"contracts/Initializable.sol\":259:274  initBlocks[key] */\n  mload(0x40)\n  tag_40\n  swap2\n  swap1\n  jump(tag_23)\ntag_40:\n  swap1\n  dup2\n  mstore\n  0x20\n  add\n  mload(0x40)\n  dup1\n  swap2\n  sub\n  swap1\n  keccak256\n  sload\n    /* \"contracts/Initializable.sol\":259:279  initBlocks[key] == 0 */\n  eq\n    /* \"contracts/Initializable.sol\":251:318  require(initBlocks[key] == 0, \"initializable: already initialized\") */\n  tag_41\n  jumpi\n  mload(0x40)\n  0x08c379a000000000000000000000000000000000000000000000000000000000\n  dup2\n  mstore\n  0x04\n  add\n  tag_42\n  swap1\n  jump(tag_26)\ntag_42:\n  mload(0x40)\n  dup1\n  swap2\n  sub\n  swap1\n  revert\ntag_41:\n    /* \"contracts/Initializable.sol\":347:359  block.number */\n  number\n    /* \"contracts/Initializable.sol\":329:339  initBlocks */\n  0x02\n    /* \"contracts/Initializable.sol\":340:343  key */\n  dup3\n    /* \"contracts/Initializable.sol\":329:344  initBlocks[key] */\n  mload(0x40)\n  tag_43\n  swap2\n  swap1\n  jump(tag_23)\ntag_43:\n  swap1\n  dup2\n  mstore\n  0x20\n  add\n  mload(0x40)\n  dup1\n  swap2\n  sub\n  swap1\n  keccak256\n    /* \"contracts/Initializable.sol\":329:359  initBlocks[key] = block.number */\n  dup2\n  swap1\n  sstore\n  pop\n    /* \"contracts/Govern.sol\":2545:2589  _grant(EXEC_ROLE, address(_initialExecutor)) */\n  tag_45\n    /* \"contracts/Govern.sol\":1288:1306  this.exec.selector */\n  shl(0xe0, 0xc2d85afc)\n    /* \"contracts/Govern.sol\":2571:2587  _initialExecutor */\n  dup5\n    /* \"contracts/Govern.sol\":2545:2551  _grant */\n  shl(0x20, tag_30)\n    /* \"contracts/Govern.sol\":2545:2589  _grant(EXEC_ROLE, address(_initialExecutor)) */\n  0x20\n  shr\n  jump\t// in\ntag_45:\n    /* \"contracts/Govern.sol\":2600:2636  _grant(WITHDRAW_ROLE, address(this)) */\n  tag_46\n    /* \"contracts/Govern.sol\":1354:1376  this.withdraw.selector */\n  shl(0xe0, 0x26abeb64)\n    /* \"contracts/Govern.sol\":2630:2634  this */\n  address\n    /* \"contracts/Govern.sol\":2600:2606  _grant */\n  shl(0x20, tag_30)\n    /* \"contracts/Govern.sol\":2600:2636  _grant(WITHDRAW_ROLE, address(this)) */\n  0x20\n  shr\n  jump\t// in\ntag_46:\n    /* \"contracts/Govern.sol\":2718:2740  _freeze(WITHDRAW_ROLE) */\n  tag_47\n    /* \"contracts/Govern.sol\":1354:1376  this.withdraw.selector */\n  shl(0xe0, 0x26abeb64)\n    /* \"contracts/Govern.sol\":2718:2725  _freeze */\n  shl(0x20, tag_48)\n    /* \"contracts/Govern.sol\":2718:2740  _freeze(WITHDRAW_ROLE) */\n  0x20\n  shr\n  jump\t// in\ntag_47:\n    /* \"contracts/Govern.sol\":2753:2798  _grant(REGISTER_STANDARD_ROLE, address(this)) */\n  tag_49\n    /* \"contracts/Govern.sol\":1435:1476  this.registerStandardAndCallback.selector */\n  shl(0xe0, 0xa43e2533)\n    /* \"contracts/Govern.sol\":2792:2796  this */\n  address\n    /* \"contracts/Govern.sol\":2753:2759  _grant */\n  shl(0x20, tag_30)\n    /* \"contracts/Govern.sol\":2753:2798  _grant(REGISTER_STANDARD_ROLE, address(this)) */\n  0x20\n  shr\n  jump\t// in\ntag_49:\n    /* \"contracts/Govern.sol\":2809:2860  _grant(SET_SIGNATURE_VALIDATOR_ROLE, address(this)) */\n  tag_50\n    /* \"contracts/Govern.sol\":1539:1574  this.setSignatureValidator.selector */\n  shl(0xe0, 0x3e2ab0d9)\n    /* \"contracts/Govern.sol\":2854:2858  this */\n  address\n    /* \"contracts/Govern.sol\":2809:2815  _grant */\n  shl(0x20, tag_30)\n    /* \"contracts/Govern.sol\":2809:2860  _grant(SET_SIGNATURE_VALIDATOR_ROLE, address(this)) */\n  0x20\n  shr\n  jump\t// in\ntag_50:\n    /* \"contracts/Govern.sol\":2873:2917  _registerStandard(ERC3000_EXEC_INTERFACE_ID) */\n  tag_51\n    /* \"contracts/IERC3000Executor.sol\":235:253  this.exec.selector */\n  shl(0xe0, 0xc2d85afc)\n    /* \"contracts/Govern.sol\":2873:2890  _registerStandard */\n  shl(0x20, tag_52)\n    /* \"contracts/Govern.sol\":2873:2917  _registerStandard(ERC3000_EXEC_INTERFACE_ID) */\n  0x20\n  shr\n  jump\t// in\ntag_51:\n    /* \"contracts/Govern.sol\":2928:2972  _registerStandard(type(ERC1271).interfaceId) */\n  tag_53\n    /* \"contracts/Govern.sol\":2946:2971  type(ERC1271).interfaceId */\n  0x1626ba7e00000000000000000000000000000000000000000000000000000000\n    /* \"contracts/Govern.sol\":2928:2945  _registerStandard */\n  shl(0x20, tag_52)\n    /* \"contracts/Govern.sol\":2928:2972  _registerStandard(type(ERC1271).interfaceId) */\n  0x20\n  shr\n  jump\t// in\ntag_53:\n    /* \"contracts/Initializable.sol\":399:402  key */\n  dup1\n    /* \"contracts/Initializable.sol\":387:403  Initialized(key) */\n  mload(0x40)\n  tag_54\n  swap2\n  swap1\n  jump(tag_23)\ntag_54:\n  mload(0x40)\n  dup1\n  swap2\n  sub\n  swap1\n  keccak256\n  0x7bc2a48a4a566e237a12186f19d985b0f76afc9d5290601edac19876253670c2\n  mload(0x40)\n  mload(0x40)\n  dup1\n  swap2\n  sub\n  swap1\n  log2\n    /* \"contracts/ACL.sol\":1739:1740  _ */\n  pop\n    /* \"contracts/Govern.sol\":2439:2980  function initialize(address _initialExecutor) public initACL(address(this)) onlyInit(\"govern\") {\r... */\n  pop\n  pop\n  jump\t// out\n    /* \"contracts/ACL.sol\":3310:3435  function _grant(bytes4 _role, address _who) internal {\r... */\ntag_30:\n    /* \"contracts/ACL.sol\":3374:3427  _grantWithOracle(_role, _who, IACLOracle(ALLOW_FLAG)) */\n  tag_56\n    /* \"contracts/ACL.sol\":3391:3396  _role */\n  dup3\n    /* \"contracts/ACL.sol\":3398:3402  _who */\n  dup3\n    /* \"contracts/ACL.sol\":830:831  2 */\n  0x02\n    /* \"contracts/ACL.sol\":3374:3390  _grantWithOracle */\n  shl(0x20, tag_57)\n    /* \"contracts/ACL.sol\":3374:3427  _grantWithOracle(_role, _who, IACLOracle(ALLOW_FLAG)) */\n  0x20\n  shr\n  jump\t// in\ntag_56:\n    /* \"contracts/ACL.sol\":3310:3435  function _grant(bytes4 _role, address _who) internal {\r... */\n  pop\n  pop\n  jump\t// out\n    /* \"contracts/ACL.sol\":3971:4163  function _freeze(bytes4 _role) internal {\r... */\ntag_48:\n    /* \"contracts/ACL.sol\":4031:4046  isFrozen(_role) */\n  tag_59\n    /* \"contracts/ACL.sol\":4040:4045  _role */\n  dup2\n    /* \"contracts/ACL.sol\":4031:4039  isFrozen */\n  shl(0x20, tag_60)\n    /* \"contracts/ACL.sol\":4031:4046  isFrozen(_role) */\n  0x20\n  shr\n  jump\t// in\ntag_59:\n    /* \"contracts/ACL.sol\":4030:4046  !isFrozen(_role) */\n  iszero\n    /* \"contracts/ACL.sol\":4022:4062  require(!isFrozen(_role), \"acl: frozen\") */\n  tag_61\n  jumpi\n  mload(0x40)\n  0x08c379a000000000000000000000000000000000000000000000000000000000\n  dup2\n  mstore\n  0x04\n  add\n  tag_62\n  swap1\n  jump(tag_63)\ntag_62:\n  mload(0x40)\n  dup1\n  swap2\n  sub\n  swap1\n  revert\ntag_61:\n    /* \"contracts/ACL.sol\":752:753  1 */\n  0x01\n    /* \"contracts/ACL.sol\":4075:4080  roles */\n  0x03\n    /* \"contracts/ACL.sol\":4075:4087  roles[_role] */\n  0x00\n    /* \"contracts/ACL.sol\":4081:4086  _role */\n  dup4\n    /* \"contracts/ACL.sol\":4075:4087  roles[_role] */\n  not(0xffffffffffffffffffffffffffffffffffffffffffffffffffffffff)\n  and\n  not(0xffffffffffffffffffffffffffffffffffffffffffffffffffffffff)\n  and\n  dup2\n  mstore\n  0x20\n  add\n  swap1\n  dup2\n  mstore\n  0x20\n  add\n  0x00\n  keccak256\n    /* \"contracts/ACL.sol\":4075:4100  roles[_role][FREEZE_FLAG] */\n  0x00\n    /* \"contracts/ACL.sol\":752:753  1 */\n  0x01\n    /* \"contracts/ACL.sol\":4075:4100  roles[_role][FREEZE_FLAG] */\n  0xffffffffffffffffffffffffffffffffffffffff\n  and\n  0xffffffffffffffffffffffffffffffffffffffff\n  and\n  dup2\n  mstore\n  0x20\n  add\n  swap1\n  dup2\n  mstore\n  0x20\n  add\n  0x00\n  keccak256\n  0x00\n    /* \"contracts/ACL.sol\":4075:4114  roles[_role][FREEZE_FLAG] = FREEZE_FLAG */\n  0x0100\n  exp\n  dup2\n  sload\n  dup2\n  0xffffffffffffffffffffffffffffffffffffffff\n  mul\n  not\n  and\n  swap1\n  dup4\n  0xffffffffffffffffffffffffffffffffffffffff\n  and\n  mul\n  or\n  swap1\n  sstore\n  pop\n    /* \"contracts/ACL.sol\":4144:4154  msg.sender */\n  caller\n    /* \"contracts/ACL.sol\":4130:4155  Frozen(_role, msg.sender) */\n  0xffffffffffffffffffffffffffffffffffffffff\n  and\n    /* \"contracts/ACL.sol\":4137:4142  _role */\n  dup2\n    /* \"contracts/ACL.sol\":4130:4155  Frozen(_role, msg.sender) */\n  not(0xffffffffffffffffffffffffffffffffffffffffffffffffffffffff)\n  and\n  0x049c6b8b07a879425742523fa80f8ffb25e39ad518c93a5896a0df19518397e5\n  mload(0x40)\n  mload(0x40)\n  dup1\n  swap2\n  sub\n  swap1\n  log3\n    /* \"contracts/ACL.sol\":3971:4163  function _freeze(bytes4 _role) internal {\r... */\n  pop\n  jump\t// out\n    /* \"contracts/AdaptiveERC165.sol\":1474:1636  function _registerStandard(bytes4 _interfaceId) internal {\r... */\ntag_52:\n    /* \"contracts/AdaptiveERC165.sol\":1576:1580  true */\n  0x01\n    /* \"contracts/AdaptiveERC165.sol\":1542:1559  standardSupported */\n  0x00\n    /* \"contracts/AdaptiveERC165.sol\":1542:1573  standardSupported[_interfaceId] */\n  dup1\n    /* \"contracts/AdaptiveERC165.sol\":1560:1572  _interfaceId */\n  dup4\n    /* \"contracts/AdaptiveERC165.sol\":1542:1573  standardSupported[_interfaceId] */\n  not(0xffffffffffffffffffffffffffffffffffffffffffffffffffffffff)\n  and\n  not(0xffffffffffffffffffffffffffffffffffffffffffffffffffffffff)\n  and\n  dup2\n  mstore\n  0x20\n  add\n  swap1\n  dup2\n  mstore\n  0x20\n  add\n  0x00\n  keccak256\n  0x00\n    /* \"contracts/AdaptiveERC165.sol\":1542:1580  standardSupported[_interfaceId] = true */\n  0x0100\n  exp\n  dup2\n  sload\n  dup2\n  0xff\n  mul\n  not\n  and\n  swap1\n  dup4\n  iszero\n  iszero\n  mul\n  or\n  swap1\n  sstore\n  pop\n    /* \"contracts/AdaptiveERC165.sol\":1596:1628  RegisteredStandard(_interfaceId) */\n  0xbf5e1f87f5ab65b58074cd29244d7c487a948983cda4b932e0f966b62bd34aca\n    /* \"contracts/AdaptiveERC165.sol\":1615:1627  _interfaceId */\n  dup2\n    /* \"contracts/AdaptiveERC165.sol\":1596:1628  RegisteredStandard(_interfaceId) */\n  mload(0x40)\n  tag_65\n  swap2\n  swap1\n  jump(tag_66)\ntag_65:\n  mload(0x40)\n  dup1\n  swap2\n  sub\n  swap1\n  log1\n    /* \"contracts/AdaptiveERC165.sol\":1474:1636  function _registerStandard(bytes4 _interfaceId) internal {\r... */\n  pop\n  jump\t// out\n    /* \"contracts/ACL.sol\":3443:3750  function _grantWithOracle(bytes4 _role, address _who, IACLOracle _oracle) internal {\r... */\ntag_57:\n    /* \"contracts/ACL.sol\":3546:3561  isFrozen(_role) */\n  tag_68\n    /* \"contracts/ACL.sol\":3555:3560  _role */\n  dup4\n    /* \"contracts/ACL.sol\":3546:3554  isFrozen */\n  shl(0x20, tag_60)\n    /* \"contracts/ACL.sol\":3546:3561  isFrozen(_role) */\n  0x20\n  shr\n  jump\t// in\ntag_68:\n    /* \"contracts/ACL.sol\":3545:3561  !isFrozen(_role) */\n  iszero\n    /* \"contracts/ACL.sol\":3537:3577  require(!isFrozen(_role), \"acl: frozen\") */\n  tag_69\n  jumpi\n  mload(0x40)\n  0x08c379a000000000000000000000000000000000000000000000000000000000\n  dup2\n  mstore\n  0x04\n  add\n  tag_70\n  swap1\n  jump(tag_63)\ntag_70:\n  mload(0x40)\n  dup1\n  swap2\n  sub\n  swap1\n  revert\ntag_69:\n    /* \"contracts/ACL.sol\":752:753  1 */\n  0x01\n    /* \"contracts/ACL.sol\":3596:3615  _who != FREEZE_FLAG */\n  0xffffffffffffffffffffffffffffffffffffffff\n  and\n    /* \"contracts/ACL.sol\":3596:3600  _who */\n  dup3\n    /* \"contracts/ACL.sol\":3596:3615  _who != FREEZE_FLAG */\n  0xffffffffffffffffffffffffffffffffffffffff\n  and\n  eq\n  iszero\n    /* \"contracts/ACL.sol\":3588:3635  require(_who != FREEZE_FLAG, \"acl: bad freeze\") */\n  tag_71\n  jumpi\n  mload(0x40)\n  0x08c379a000000000000000000000000000000000000000000000000000000000\n  dup2\n  mstore\n  0x04\n  add\n  tag_72\n  swap1\n  jump(tag_73)\ntag_72:\n  mload(0x40)\n  dup1\n  swap2\n  sub\n  swap1\n  revert\ntag_71:\n    /* \"contracts/ACL.sol\":3677:3684  _oracle */\n  dup1\n    /* \"contracts/ACL.sol\":3648:3653  roles */\n  0x03\n    /* \"contracts/ACL.sol\":3648:3660  roles[_role] */\n  0x00\n    /* \"contracts/ACL.sol\":3654:3659  _role */\n  dup6\n    /* \"contracts/ACL.sol\":3648:3660  roles[_role] */\n  not(0xffffffffffffffffffffffffffffffffffffffffffffffffffffffff)\n  and\n  not(0xffffffffffffffffffffffffffffffffffffffffffffffffffffffff)\n  and\n  dup2\n  mstore\n  0x20\n  add\n  swap1\n  dup2\n  mstore\n  0x20\n  add\n  0x00\n  keccak256\n    /* \"contracts/ACL.sol\":3648:3666  roles[_role][_who] */\n  0x00\n    /* \"contracts/ACL.sol\":3661:3665  _who */\n  dup5\n    /* \"contracts/ACL.sol\":3648:3666  roles[_role][_who] */\n  0xffffffffffffffffffffffffffffffffffffffff\n  and\n  0xffffffffffffffffffffffffffffffffffffffff\n  and\n  dup2\n  mstore\n  0x20\n  add\n  swap1\n  dup2\n  mstore\n  0x20\n  add\n  0x00\n  keccak256\n  0x00\n    /* \"contracts/ACL.sol\":3648:3685  roles[_role][_who] = address(_oracle) */\n  0x0100\n  exp\n  dup2\n  sload\n  dup2\n  0xffffffffffffffffffffffffffffffffffffffff\n  mul\n  not\n  and\n  swap1\n  dup4\n  0xffffffffffffffffffffffffffffffffffffffff\n  and\n  mul\n  or\n  swap1\n  sstore\n  pop\n    /* \"contracts/ACL.sol\":3728:3732  _who */\n  dup2\n    /* \"contracts/ACL.sol\":3701:3742  Granted(_role, msg.sender, _who, _oracle) */\n  0xffffffffffffffffffffffffffffffffffffffff\n  and\n    /* \"contracts/ACL.sol\":3716:3726  msg.sender */\n  caller\n    /* \"contracts/ACL.sol\":3701:3742  Granted(_role, msg.sender, _who, _oracle) */\n  0xffffffffffffffffffffffffffffffffffffffff\n  and\n    /* \"contracts/ACL.sol\":3709:3714  _role */\n  dup5\n    /* \"contracts/ACL.sol\":3701:3742  Granted(_role, msg.sender, _who, _oracle) */\n  not(0xffffffffffffffffffffffffffffffffffffffffffffffffffffffff)\n  and\n  0xc62063b81f7036fd97a0dc546516e99f11004d2d76ca0fddd3866346c86e7091\n    /* \"contracts/ACL.sol\":3734:3741  _oracle */\n  dup5\n    /* \"contracts/ACL.sol\":3701:3742  Granted(_role, msg.sender, _who, _oracle) */\n  mload(0x40)\n  tag_74\n  swap2\n  swap1\n  jump(tag_75)\ntag_74:\n  mload(0x40)\n  dup1\n  swap2\n  sub\n  swap1\n  log4\n    /* \"contracts/ACL.sol\":3443:3750  function _grantWithOracle(bytes4 _role, address _who, IACLOracle _oracle) internal {\r... */\n  pop\n  pop\n  pop\n  jump\t// out\n    /* \"contracts/ACL.sol\":3048:3173  function isFrozen(bytes4 _role) public view returns (bool) {\r... */\ntag_60:\n    /* \"contracts/ACL.sol\":3101:3105  bool */\n  0x00\n    /* \"contracts/ACL.sol\":752:753  1 */\n  0x01\n    /* \"contracts/ACL.sol\":3125:3165  roles[_role][FREEZE_FLAG] == FREEZE_FLAG */\n  0xffffffffffffffffffffffffffffffffffffffff\n  and\n    /* \"contracts/ACL.sol\":3125:3130  roles */\n  0x03\n    /* \"contracts/ACL.sol\":3125:3137  roles[_role] */\n  0x00\n    /* \"contracts/ACL.sol\":3131:3136  _role */\n  dup5\n    /* \"contracts/ACL.sol\":3125:3137  roles[_role] */\n  not(0xffffffffffffffffffffffffffffffffffffffffffffffffffffffff)\n  and\n  not(0xffffffffffffffffffffffffffffffffffffffffffffffffffffffff)\n  and\n  dup2\n  mstore\n  0x20\n  add\n  swap1\n  dup2\n  mstore\n  0x20\n  add\n  0x00\n  keccak256\n    /* \"contracts/ACL.sol\":3125:3150  roles[_role][FREEZE_FLAG] */\n  0x00\n    /* \"contracts/ACL.sol\":752:753  1 */\n  0x01\n    /* \"contracts/ACL.sol\":3125:3150  roles[_role][FREEZE_FLAG] */\n  0xffffffffffffffffffffffffffffffffffffffff\n  and\n  0xffffffffffffffffffffffffffffffffffffffff\n  and\n  dup2\n  mstore\n  0x20\n  add\n  swap1\n  dup2\n  mstore\n  0x20\n  add\n  0x00\n  keccak256\n  0x00\n  swap1\n  sload\n  swap1\n  0x0100\n  exp\n  swap1\n  div\n  0xffffffffffffffffffffffffffffffffffffffff\n  and\n    /* \"contracts/ACL.sol\":3125:3165  roles[_role][FREEZE_FLAG] == FREEZE_FLAG */\n  0xffffffffffffffffffffffffffffffffffffffff\n  and\n  eq\n    /* \"contracts/ACL.sol\":3118:3165  return roles[_role][FREEZE_FLAG] == FREEZE_FLAG */\n  swap1\n  pop\n    /* \"contracts/ACL.sol\":3048:3173  function isFrozen(bytes4 _role) public view returns (bool) {\r... */\n  swap2\n  swap1\n  pop\n  jump\t// out\n    /* \"--CODEGEN--\":5:139   */\ntag_78:\n  0x00\n    /* \"--CODEGEN--\":89:95   */\n  dup2\n    /* \"--CODEGEN--\":83:96   */\n  mload\n    /* \"--CODEGEN--\":74:96   */\n  swap1\n  pop\n    /* \"--CODEGEN--\":101:134   */\n  tag_80\n    /* \"--CODEGEN--\":128:133   */\n  dup2\n    /* \"--CODEGEN--\":101:134   */\n  jump(tag_81)\ntag_80:\n    /* \"--CODEGEN--\":68:139   */\n  swap3\n  swap2\n  pop\n  pop\n  jump\n    /* \"--CODEGEN--\":146:409   */\ntag_3:\n  0x00\n    /* \"--CODEGEN--\":261:263   */\n  0x20\n    /* \"--CODEGEN--\":249:258   */\n  dup3\n    /* \"--CODEGEN--\":240:247   */\n  dup5\n    /* \"--CODEGEN--\":236:259   */\n  sub\n    /* \"--CODEGEN--\":232:264   */\n  slt\n    /* \"--CODEGEN--\":229:231   */\n  iszero\n  tag_83\n  jumpi\n    /* \"--CODEGEN--\":277:278   */\n  0x00\n    /* \"--CODEGEN--\":274:275   */\n  dup1\n    /* \"--CODEGEN--\":267:279   */\n  revert\n    /* \"--CODEGEN--\":229:231   */\ntag_83:\n    /* \"--CODEGEN--\":312:313   */\n  0x00\n    /* \"--CODEGEN--\":329:393   */\n  tag_84\n    /* \"--CODEGEN--\":385:392   */\n  dup5\n    /* \"--CODEGEN--\":376:382   */\n  dup3\n    /* \"--CODEGEN--\":365:374   */\n  dup6\n    /* \"--CODEGEN--\":361:383   */\n  add\n    /* \"--CODEGEN--\":329:393   */\n  jump(tag_78)\ntag_84:\n    /* \"--CODEGEN--\":319:393   */\n  swap2\n  pop\n    /* \"--CODEGEN--\":291:399   */\n  pop\n    /* \"--CODEGEN--\":223:409   */\n  swap3\n  swap2\n  pop\n  pop\n  jump\n    /* \"--CODEGEN--\":416:526   */\ntag_85:\n    /* \"--CODEGEN--\":497:520   */\n  tag_87\n    /* \"--CODEGEN--\":514:519   */\n  dup2\n    /* \"--CODEGEN--\":497:520   */\n  jump(tag_88)\ntag_87:\n    /* \"--CODEGEN--\":492:495   */\n  dup3\n    /* \"--CODEGEN--\":485:521   */\n  mstore\n    /* \"--CODEGEN--\":479:526   */\n  pop\n  pop\n  jump\n    /* \"--CODEGEN--\":533:697   */\ntag_89:\n    /* \"--CODEGEN--\":635:691   */\n  tag_91\n    /* \"--CODEGEN--\":685:690   */\n  dup2\n    /* \"--CODEGEN--\":635:691   */\n  jump(tag_92)\ntag_91:\n    /* \"--CODEGEN--\":630:633   */\n  dup3\n    /* \"--CODEGEN--\":623:692   */\n  mstore\n    /* \"--CODEGEN--\":617:697   */\n  pop\n  pop\n  jump\n    /* \"--CODEGEN--\":704:1064   */\ntag_93:\n  0x00\n    /* \"--CODEGEN--\":834:873   */\n  tag_95\n    /* \"--CODEGEN--\":867:872   */\n  dup3\n    /* \"--CODEGEN--\":834:873   */\n  jump(tag_96)\ntag_95:\n    /* \"--CODEGEN--\":885:974   */\n  tag_97\n    /* \"--CODEGEN--\":967:973   */\n  dup2\n    /* \"--CODEGEN--\":962:965   */\n  dup6\n    /* \"--CODEGEN--\":885:974   */\n  jump(tag_98)\ntag_97:\n    /* \"--CODEGEN--\":878:974   */\n  swap4\n  pop\n    /* \"--CODEGEN--\":979:1031   */\n  tag_99\n    /* \"--CODEGEN--\":1024:1030   */\n  dup2\n    /* \"--CODEGEN--\":1019:1022   */\n  dup6\n    /* \"--CODEGEN--\":1012:1016   */\n  0x20\n    /* \"--CODEGEN--\":1005:1010   */\n  dup7\n    /* \"--CODEGEN--\":1001:1017   */\n  add\n    /* \"--CODEGEN--\":979:1031   */\n  jump(tag_100)\ntag_99:\n    /* \"--CODEGEN--\":1052:1058   */\n  dup1\n    /* \"--CODEGEN--\":1047:1050   */\n  dup5\n    /* \"--CODEGEN--\":1043:1059   */\n  add\n    /* \"--CODEGEN--\":1036:1059   */\n  swap2\n  pop\n    /* \"--CODEGEN--\":814:1064   */\n  pop\n  swap3\n  swap2\n  pop\n  pop\n  jump\n    /* \"--CODEGEN--\":1072:1383   */\ntag_101:\n  0x00\n    /* \"--CODEGEN--\":1232:1299   */\n  tag_103\n    /* \"--CODEGEN--\":1296:1298   */\n  0x0b\n    /* \"--CODEGEN--\":1291:1294   */\n  dup4\n    /* \"--CODEGEN--\":1232:1299   */\n  jump(tag_104)\ntag_103:\n    /* \"--CODEGEN--\":1225:1299   */\n  swap2\n  pop\n    /* \"--CODEGEN--\":1332:1345   */\n  0x61636c3a2066726f7a656e000000000000000000000000000000000000000000\n    /* \"--CODEGEN--\":1328:1329   */\n  0x00\n    /* \"--CODEGEN--\":1323:1326   */\n  dup4\n    /* \"--CODEGEN--\":1319:1330   */\n  add\n    /* \"--CODEGEN--\":1312:1346   */\n  mstore\n    /* \"--CODEGEN--\":1374:1376   */\n  0x20\n    /* \"--CODEGEN--\":1369:1372   */\n  dup3\n    /* \"--CODEGEN--\":1365:1377   */\n  add\n    /* \"--CODEGEN--\":1358:1377   */\n  swap1\n  pop\n    /* \"--CODEGEN--\":1218:1383   */\n  swap2\n  swap1\n  pop\n  jump\n    /* \"--CODEGEN--\":1392:1763   */\ntag_105:\n  0x00\n    /* \"--CODEGEN--\":1552:1619   */\n  tag_107\n    /* \"--CODEGEN--\":1616:1618   */\n  0x22\n    /* \"--CODEGEN--\":1611:1614   */\n  dup4\n    /* \"--CODEGEN--\":1552:1619   */\n  jump(tag_104)\ntag_107:\n    /* \"--CODEGEN--\":1545:1619   */\n  swap2\n  pop\n    /* \"--CODEGEN--\":1652:1686   */\n  0x696e697469616c697a61626c653a20616c726561647920696e697469616c697a\n    /* \"--CODEGEN--\":1648:1649   */\n  0x00\n    /* \"--CODEGEN--\":1643:1646   */\n  dup4\n    /* \"--CODEGEN--\":1639:1650   */\n  add\n    /* \"--CODEGEN--\":1632:1687   */\n  mstore\n    /* \"--CODEGEN--\":1721:1725   */\n  0x6564000000000000000000000000000000000000000000000000000000000000\n    /* \"--CODEGEN--\":1716:1718   */\n  0x20\n    /* \"--CODEGEN--\":1711:1714   */\n  dup4\n    /* \"--CODEGEN--\":1707:1719   */\n  add\n    /* \"--CODEGEN--\":1700:1726   */\n  mstore\n    /* \"--CODEGEN--\":1754:1756   */\n  0x40\n    /* \"--CODEGEN--\":1749:1752   */\n  dup3\n    /* \"--CODEGEN--\":1745:1757   */\n  add\n    /* \"--CODEGEN--\":1738:1757   */\n  swap1\n  pop\n    /* \"--CODEGEN--\":1538:1763   */\n  swap2\n  swap1\n  pop\n  jump\n    /* \"--CODEGEN--\":1772:2100   */\ntag_108:\n  0x00\n    /* \"--CODEGEN--\":1932:1999   */\n  tag_110\n    /* \"--CODEGEN--\":1996:1998   */\n  0x1c\n    /* \"--CODEGEN--\":1991:1994   */\n  dup4\n    /* \"--CODEGEN--\":1932:1999   */\n  jump(tag_104)\ntag_110:\n    /* \"--CODEGEN--\":1925:1999   */\n  swap2\n  pop\n    /* \"--CODEGEN--\":2032:2062   */\n  0x61636c3a20696e697469616c20726f6f74206d6973616c69676e656400000000\n    /* \"--CODEGEN--\":2028:2029   */\n  0x00\n    /* \"--CODEGEN--\":2023:2026   */\n  dup4\n    /* \"--CODEGEN--\":2019:2030   */\n  add\n    /* \"--CODEGEN--\":2012:2063   */\n  mstore\n    /* \"--CODEGEN--\":2091:2093   */\n  0x20\n    /* \"--CODEGEN--\":2086:2089   */\n  dup3\n    /* \"--CODEGEN--\":2082:2094   */\n  add\n    /* \"--CODEGEN--\":2075:2094   */\n  swap1\n  pop\n    /* \"--CODEGEN--\":1918:2100   */\n  swap2\n  swap1\n  pop\n  jump\n    /* \"--CODEGEN--\":2109:2446   */\ntag_111:\n  0x00\n    /* \"--CODEGEN--\":2287:2371   */\n  tag_113\n    /* \"--CODEGEN--\":2369:2370   */\n  0x03\n    /* \"--CODEGEN--\":2364:2367   */\n  dup4\n    /* \"--CODEGEN--\":2287:2371   */\n  jump(tag_98)\ntag_113:\n    /* \"--CODEGEN--\":2280:2371   */\n  swap2\n  pop\n    /* \"--CODEGEN--\":2404:2409   */\n  0x61636c0000000000000000000000000000000000000000000000000000000000\n    /* \"--CODEGEN--\":2400:2401   */\n  0x00\n    /* \"--CODEGEN--\":2395:2398   */\n  dup4\n    /* \"--CODEGEN--\":2391:2402   */\n  add\n    /* \"--CODEGEN--\":2384:2410   */\n  mstore\n    /* \"--CODEGEN--\":2438:2439   */\n  0x03\n    /* \"--CODEGEN--\":2433:2436   */\n  dup3\n    /* \"--CODEGEN--\":2429:2440   */\n  add\n    /* \"--CODEGEN--\":2422:2440   */\n  swap1\n  pop\n    /* \"--CODEGEN--\":2273:2446   */\n  swap2\n  swap1\n  pop\n  jump\n    /* \"--CODEGEN--\":2455:2770   */\ntag_114:\n  0x00\n    /* \"--CODEGEN--\":2615:2682   */\n  tag_116\n    /* \"--CODEGEN--\":2679:2681   */\n  0x0f\n    /* \"--CODEGEN--\":2674:2677   */\n  dup4\n    /* \"--CODEGEN--\":2615:2682   */\n  jump(tag_104)\ntag_116:\n    /* \"--CODEGEN--\":2608:2682   */\n  swap2\n  pop\n    /* \"--CODEGEN--\":2715:2732   */\n  0x61636c3a2062616420667265657a650000000000000000000000000000000000\n    /* \"--CODEGEN--\":2711:2712   */\n  0x00\n    /* \"--CODEGEN--\":2706:2709   */\n  dup4\n    /* \"--CODEGEN--\":2702:2713   */\n  add\n    /* \"--CODEGEN--\":2695:2733   */\n  mstore\n    /* \"--CODEGEN--\":2761:2763   */\n  0x20\n    /* \"--CODEGEN--\":2756:2759   */\n  dup3\n    /* \"--CODEGEN--\":2752:2764   */\n  add\n    /* \"--CODEGEN--\":2745:2764   */\n  swap1\n  pop\n    /* \"--CODEGEN--\":2601:2770   */\n  swap2\n  swap1\n  pop\n  jump\n    /* \"--CODEGEN--\":2778:3053   */\ntag_23:\n  0x00\n    /* \"--CODEGEN--\":2933:3028   */\n  tag_118\n    /* \"--CODEGEN--\":3024:3027   */\n  dup3\n    /* \"--CODEGEN--\":3015:3021   */\n  dup5\n    /* \"--CODEGEN--\":2933:3028   */\n  jump(tag_93)\ntag_118:\n    /* \"--CODEGEN--\":2926:3028   */\n  swap2\n  pop\n    /* \"--CODEGEN--\":3045:3048   */\n  dup2\n    /* \"--CODEGEN--\":3038:3048   */\n  swap1\n  pop\n    /* \"--CODEGEN--\":2914:3053   */\n  swap3\n  swap2\n  pop\n  pop\n  jump\n    /* \"--CODEGEN--\":3060:3441   */\ntag_8:\n  0x00\n    /* \"--CODEGEN--\":3268:3416   */\n  tag_120\n    /* \"--CODEGEN--\":3412:3415   */\n  dup3\n    /* \"--CODEGEN--\":3268:3416   */\n  jump(tag_111)\ntag_120:\n    /* \"--CODEGEN--\":3261:3416   */\n  swap2\n  pop\n    /* \"--CODEGEN--\":3433:3436   */\n  dup2\n    /* \"--CODEGEN--\":3426:3436   */\n  swap1\n  pop\n    /* \"--CODEGEN--\":3249:3441   */\n  swap2\n  swap1\n  pop\n  jump\n    /* \"--CODEGEN--\":3448:3666   */\ntag_66:\n  0x00\n    /* \"--CODEGEN--\":3573:3575   */\n  0x20\n    /* \"--CODEGEN--\":3562:3571   */\n  dup3\n    /* \"--CODEGEN--\":3558:3576   */\n  add\n    /* \"--CODEGEN--\":3550:3576   */\n  swap1\n  pop\n    /* \"--CODEGEN--\":3587:3656   */\n  tag_122\n    /* \"--CODEGEN--\":3653:3654   */\n  0x00\n    /* \"--CODEGEN--\":3642:3651   */\n  dup4\n    /* \"--CODEGEN--\":3638:3655   */\n  add\n    /* \"--CODEGEN--\":3629:3635   */\n  dup5\n    /* \"--CODEGEN--\":3587:3656   */\n  jump(tag_85)\ntag_122:\n    /* \"--CODEGEN--\":3544:3666   */\n  swap3\n  swap2\n  pop\n  pop\n  jump\n    /* \"--CODEGEN--\":3673:3933   */\ntag_75:\n  0x00\n    /* \"--CODEGEN--\":3819:3821   */\n  0x20\n    /* \"--CODEGEN--\":3808:3817   */\n  dup3\n    /* \"--CODEGEN--\":3804:3822   */\n  add\n    /* \"--CODEGEN--\":3796:3822   */\n  swap1\n  pop\n    /* \"--CODEGEN--\":3833:3923   */\n  tag_124\n    /* \"--CODEGEN--\":3920:3921   */\n  0x00\n    /* \"--CODEGEN--\":3909:3918   */\n  dup4\n    /* \"--CODEGEN--\":3905:3922   */\n  add\n    /* \"--CODEGEN--\":3896:3902   */\n  dup5\n    /* \"--CODEGEN--\":3833:3923   */\n  jump(tag_89)\ntag_124:\n    /* \"--CODEGEN--\":3790:3933   */\n  swap3\n  swap2\n  pop\n  pop\n  jump\n    /* \"--CODEGEN--\":3940:4356   */\ntag_63:\n  0x00\n    /* \"--CODEGEN--\":4140:4142   */\n  0x20\n    /* \"--CODEGEN--\":4129:4138   */\n  dup3\n    /* \"--CODEGEN--\":4125:4143   */\n  add\n    /* \"--CODEGEN--\":4117:4143   */\n  swap1\n  pop\n    /* \"--CODEGEN--\":4190:4199   */\n  dup2\n    /* \"--CODEGEN--\":4184:4188   */\n  dup2\n    /* \"--CODEGEN--\":4180:4200   */\n  sub\n    /* \"--CODEGEN--\":4176:4177   */\n  0x00\n    /* \"--CODEGEN--\":4165:4174   */\n  dup4\n    /* \"--CODEGEN--\":4161:4178   */\n  add\n    /* \"--CODEGEN--\":4154:4201   */\n  mstore\n    /* \"--CODEGEN--\":4215:4346   */\n  tag_126\n    /* \"--CODEGEN--\":4341:4345   */\n  dup2\n    /* \"--CODEGEN--\":4215:4346   */\n  jump(tag_101)\ntag_126:\n    /* \"--CODEGEN--\":4207:4346   */\n  swap1\n  pop\n    /* \"--CODEGEN--\":4111:4356   */\n  swap2\n  swap1\n  pop\n  jump\n    /* \"--CODEGEN--\":4363:4779   */\ntag_26:\n  0x00\n    /* \"--CODEGEN--\":4563:4565   */\n  0x20\n    /* \"--CODEGEN--\":4552:4561   */\n  dup3\n    /* \"--CODEGEN--\":4548:4566   */\n  add\n    /* \"--CODEGEN--\":4540:4566   */\n  swap1\n  pop\n    /* \"--CODEGEN--\":4613:4622   */\n  dup2\n    /* \"--CODEGEN--\":4607:4611   */\n  dup2\n    /* \"--CODEGEN--\":4603:4623   */\n  sub\n    /* \"--CODEGEN--\":4599:4600   */\n  0x00\n    /* \"--CODEGEN--\":4588:4597   */\n  dup4\n    /* \"--CODEGEN--\":4584:4601   */\n  add\n    /* \"--CODEGEN--\":4577:4624   */\n  mstore\n    /* \"--CODEGEN--\":4638:4769   */\n  tag_128\n    /* \"--CODEGEN--\":4764:4768   */\n  dup2\n    /* \"--CODEGEN--\":4638:4769   */\n  jump(tag_105)\ntag_128:\n    /* \"--CODEGEN--\":4630:4769   */\n  swap1\n  pop\n    /* \"--CODEGEN--\":4534:4779   */\n  swap2\n  swap1\n  pop\n  jump\n    /* \"--CODEGEN--\":4786:5202   */\ntag_15:\n  0x00\n    /* \"--CODEGEN--\":4986:4988   */\n  0x20\n    /* \"--CODEGEN--\":4975:4984   */\n  dup3\n    /* \"--CODEGEN--\":4971:4989   */\n  add\n    /* \"--CODEGEN--\":4963:4989   */\n  swap1\n  pop\n    /* \"--CODEGEN--\":5036:5045   */\n  dup2\n    /* \"--CODEGEN--\":5030:5034   */\n  dup2\n    /* \"--CODEGEN--\":5026:5046   */\n  sub\n    /* \"--CODEGEN--\":5022:5023   */\n  0x00\n    /* \"--CODEGEN--\":5011:5020   */\n  dup4\n    /* \"--CODEGEN--\":5007:5024   */\n  add\n    /* \"--CODEGEN--\":5000:5047   */\n  mstore\n    /* \"--CODEGEN--\":5061:5192   */\n  tag_130\n    /* \"--CODEGEN--\":5187:5191   */\n  dup2\n    /* \"--CODEGEN--\":5061:5192   */\n  jump(tag_108)\ntag_130:\n    /* \"--CODEGEN--\":5053:5192   */\n  swap1\n  pop\n    /* \"--CODEGEN--\":4957:5202   */\n  swap2\n  swap1\n  pop\n  jump\n    /* \"--CODEGEN--\":5209:5625   */\ntag_73:\n  0x00\n    /* \"--CODEGEN--\":5409:5411   */\n  0x20\n    /* \"--CODEGEN--\":5398:5407   */\n  dup3\n    /* \"--CODEGEN--\":5394:5412   */\n  add\n    /* \"--CODEGEN--\":5386:5412   */\n  swap1\n  pop\n    /* \"--CODEGEN--\":5459:5468   */\n  dup2\n    /* \"--CODEGEN--\":5453:5457   */\n  dup2\n    /* \"--CODEGEN--\":5449:5469   */\n  sub\n    /* \"--CODEGEN--\":5445:5446   */\n  0x00\n    /* \"--CODEGEN--\":5434:5443   */\n  dup4\n    /* \"--CODEGEN--\":5430:5447   */\n  add\n    /* \"--CODEGEN--\":5423:5470   */\n  mstore\n    /* \"--CODEGEN--\":5484:5615   */\n  tag_132\n    /* \"--CODEGEN--\":5610:5614   */\n  dup2\n    /* \"--CODEGEN--\":5484:5615   */\n  jump(tag_114)\ntag_132:\n    /* \"--CODEGEN--\":5476:5615   */\n  swap1\n  pop\n    /* \"--CODEGEN--\":5380:5625   */\n  swap2\n  swap1\n  pop\n  jump\n    /* \"--CODEGEN--\":5632:5754   */\ntag_96:\n  0x00\n    /* \"--CODEGEN--\":5726:5731   */\n  dup2\n    /* \"--CODEGEN--\":5720:5732   */\n  mload\n    /* \"--CODEGEN--\":5710:5732   */\n  swap1\n  pop\n    /* \"--CODEGEN--\":5691:5754   */\n  swap2\n  swap1\n  pop\n  jump\n    /* \"--CODEGEN--\":5762:5925   */\ntag_104:\n  0x00\n    /* \"--CODEGEN--\":5877:5883   */\n  dup3\n    /* \"--CODEGEN--\":5872:5875   */\n  dup3\n    /* \"--CODEGEN--\":5865:5884   */\n  mstore\n    /* \"--CODEGEN--\":5914:5918   */\n  0x20\n    /* \"--CODEGEN--\":5909:5912   */\n  dup3\n    /* \"--CODEGEN--\":5905:5919   */\n  add\n    /* \"--CODEGEN--\":5890:5919   */\n  swap1\n  pop\n    /* \"--CODEGEN--\":5858:5925   */\n  swap3\n  swap2\n  pop\n  pop\n  jump\n    /* \"--CODEGEN--\":5934:6079   */\ntag_98:\n  0x00\n    /* \"--CODEGEN--\":6070:6073   */\n  dup2\n    /* \"--CODEGEN--\":6055:6073   */\n  swap1\n  pop\n    /* \"--CODEGEN--\":6048:6079   */\n  swap3\n  swap2\n  pop\n  pop\n  jump\n    /* \"--CODEGEN--\":6087:6178   */\ntag_136:\n  0x00\n    /* \"--CODEGEN--\":6149:6173   */\n  tag_138\n    /* \"--CODEGEN--\":6167:6172   */\n  dup3\n    /* \"--CODEGEN--\":6149:6173   */\n  jump(tag_139)\ntag_138:\n    /* \"--CODEGEN--\":6138:6173   */\n  swap1\n  pop\n    /* \"--CODEGEN--\":6132:6178   */\n  swap2\n  swap1\n  pop\n  jump\n    /* \"--CODEGEN--\":6185:6329   */\ntag_88:\n  0x00\n    /* \"--CODEGEN--\":6257:6323   */\n  0xffffffff00000000000000000000000000000000000000000000000000000000\n    /* \"--CODEGEN--\":6250:6255   */\n  dup3\n    /* \"--CODEGEN--\":6246:6324   */\n  and\n    /* \"--CODEGEN--\":6235:6324   */\n  swap1\n  pop\n    /* \"--CODEGEN--\":6229:6329   */\n  swap2\n  swap1\n  pop\n  jump\n    /* \"--CODEGEN--\":6336:6457   */\ntag_139:\n  0x00\n    /* \"--CODEGEN--\":6409:6451   */\n  0xffffffffffffffffffffffffffffffffffffffff\n    /* \"--CODEGEN--\":6402:6407   */\n  dup3\n    /* \"--CODEGEN--\":6398:6452   */\n  and\n    /* \"--CODEGEN--\":6387:6452   */\n  swap1\n  pop\n    /* \"--CODEGEN--\":6381:6457   */\n  swap2\n  swap1\n  pop\n  jump\n    /* \"--CODEGEN--\":6464:6623   */\ntag_92:\n  0x00\n    /* \"--CODEGEN--\":6562:6618   */\n  tag_143\n    /* \"--CODEGEN--\":6612:6617   */\n  dup3\n    /* \"--CODEGEN--\":6562:6618   */\n  jump(tag_144)\ntag_143:\n    /* \"--CODEGEN--\":6549:6618   */\n  swap1\n  pop\n    /* \"--CODEGEN--\":6543:6623   */\n  swap2\n  swap1\n  pop\n  jump\n    /* \"--CODEGEN--\":6630:6757   */\ntag_144:\n  0x00\n    /* \"--CODEGEN--\":6728:6752   */\n  tag_146\n    /* \"--CODEGEN--\":6746:6751   */\n  dup3\n    /* \"--CODEGEN--\":6728:6752   */\n  jump(tag_139)\ntag_146:\n    /* \"--CODEGEN--\":6715:6752   */\n  swap1\n  pop\n    /* \"--CODEGEN--\":6709:6757   */\n  swap2\n  swap1\n  pop\n  jump\n    /* \"--CODEGEN--\":6765:7033   */\ntag_100:\n    /* \"--CODEGEN--\":6830:6831   */\n  0x00\n    /* \"--CODEGEN--\":6837:6938   */\ntag_148:\n    /* \"--CODEGEN--\":6851:6857   */\n  dup4\n    /* \"--CODEGEN--\":6848:6849   */\n  dup2\n    /* \"--CODEGEN--\":6845:6858   */\n  lt\n    /* \"--CODEGEN--\":6837:6938   */\n  iszero\n  tag_150\n  jumpi\n    /* \"--CODEGEN--\":6927:6928   */\n  dup1\n    /* \"--CODEGEN--\":6922:6925   */\n  dup3\n    /* \"--CODEGEN--\":6918:6929   */\n  add\n    /* \"--CODEGEN--\":6912:6930   */\n  mload\n    /* \"--CODEGEN--\":6908:6909   */\n  dup2\n    /* \"--CODEGEN--\":6903:6906   */\n  dup5\n    /* \"--CODEGEN--\":6899:6910   */\n  add\n    /* \"--CODEGEN--\":6892:6931   */\n  mstore\n    /* \"--CODEGEN--\":6873:6875   */\n  0x20\n    /* \"--CODEGEN--\":6870:6871   */\n  dup2\n    /* \"--CODEGEN--\":6866:6876   */\n  add\n    /* \"--CODEGEN--\":6861:6876   */\n  swap1\n  pop\n    /* \"--CODEGEN--\":6837:6938   */\n  jump(tag_148)\ntag_150:\n    /* \"--CODEGEN--\":6953:6959   */\n  dup4\n    /* \"--CODEGEN--\":6950:6951   */\n  dup2\n    /* \"--CODEGEN--\":6947:6960   */\n  gt\n    /* \"--CODEGEN--\":6944:6946   */\n  iszero\n  tag_151\n  jumpi\n    /* \"--CODEGEN--\":7018:7019   */\n  0x00\n    /* \"--CODEGEN--\":7009:7015   */\n  dup5\n    /* \"--CODEGEN--\":7004:7007   */\n  dup5\n    /* \"--CODEGEN--\":7000:7016   */\n  add\n    /* \"--CODEGEN--\":6993:7020   */\n  mstore\n    /* \"--CODEGEN--\":6944:6946   */\ntag_151:\n    /* \"--CODEGEN--\":6814:7033   */\n  pop\n  pop\n  pop\n  pop\n  jump\n    /* \"--CODEGEN--\":7041:7158   */\ntag_81:\n    /* \"--CODEGEN--\":7110:7134   */\n  tag_153\n    /* \"--CODEGEN--\":7128:7133   */\n  dup2\n    /* \"--CODEGEN--\":7110:7134   */\n  jump(tag_136)\ntag_153:\n    /* \"--CODEGEN--\":7103:7108   */\n  dup2\n    /* \"--CODEGEN--\":7100:7135   */\n  eq\n    /* \"--CODEGEN--\":7090:7092   */\n  tag_154\n  jumpi\n    /* \"--CODEGEN--\":7149:7150   */\n  0x00\n    /* \"--CODEGEN--\":7146:7147   */\n  dup1\n    /* \"--CODEGEN--\":7139:7151   */\n  revert\n    /* \"--CODEGEN--\":7090:7092   */\ntag_154:\n    /* \"--CODEGEN--\":7084:7158   */\n  pop\n  jump\n    /* \"contracts/Govern.sol\":363:6059  contract Govern is IERC3000Executor, AdaptiveERC165, ERC1271, ACL {\r... */\ntag_20:\n  dataSize(sub_0)\n  dup1\n  dataOffset(sub_0)\n  0x00\n  codecopy\n  0x00\n  return\nstop\n\nsub_0: assembly {\n        /* \"contracts/Govern.sol\":363:6059  contract Govern is IERC3000Executor, AdaptiveERC165, ERC1271, ACL {\r... */\n      mstore(0x40, 0x80)\n      jumpi(tag_1, lt(calldatasize, 0x04))\n      shr(0xe0, calldataload(0x00))\n      dup1\n      0x96fc8abd\n      gt\n      tag_20\n      jumpi\n      dup1\n      0xbdf9a726\n      gt\n      tag_21\n      jumpi\n      dup1\n      0xbdf9a726\n      eq\n      tag_15\n      jumpi\n      dup1\n      0xbfe07da6\n      eq\n      tag_16\n      jumpi\n      dup1\n      0xc2d85afc\n      eq\n      tag_17\n      jumpi\n      dup1\n      0xc4d66de8\n      eq\n      tag_18\n      jumpi\n      dup1\n      0xcc1d4cab\n      eq\n      tag_19\n      jumpi\n      jump(tag_2)\n    tag_21:\n      dup1\n      0x96fc8abd\n      eq\n      tag_11\n      jumpi\n      dup1\n      0xa157a10d\n      eq\n      tag_12\n      jumpi\n      dup1\n      0xa2157227\n      eq\n      tag_13\n      jumpi\n      dup1\n      0xa43e2533\n      eq\n      tag_14\n      jumpi\n      jump(tag_2)\n    tag_20:\n      dup1\n      0x3e2ab0d9\n      gt\n      tag_22\n      jumpi\n      dup1\n      0x3e2ab0d9\n      eq\n      tag_7\n      jumpi\n      dup1\n      0x495a9825\n      eq\n      tag_8\n      jumpi\n      dup1\n      0x58849734\n      eq\n      tag_9\n      jumpi\n      dup1\n      0x7e8c7f08\n      eq\n      tag_10\n      jumpi\n      jump(tag_2)\n    tag_22:\n      dup1\n      0x01ffc9a7\n      eq\n      tag_3\n      jumpi\n      dup1\n      0x1626ba7e\n      eq\n      tag_4\n      jumpi\n      dup1\n      0x1c47671b\n      eq\n      tag_5\n      jumpi\n      dup1\n      0x26abeb64\n      eq\n      tag_6\n      jumpi\n      jump(tag_2)\n    tag_1:\n      jumpi(tag_2, calldatasize)\n        /* \"contracts/Govern.sol\":3032:3067  ETHDeposited(msg.sender, msg.value) */\n      0x6c703791f399558807424f489ccd811c72b4ff0b74af547264fad7c646776df0\n        /* \"contracts/Govern.sol\":3045:3055  msg.sender */\n      caller\n        /* \"contracts/Govern.sol\":3057:3066  msg.value */\n      callvalue\n        /* \"contracts/Govern.sol\":3032:3067  ETHDeposited(msg.sender, msg.value) */\n      mload(0x40)\n      tag_25\n      swap3\n      swap2\n      swap1\n      jump(tag_26)\n    tag_25:\n      mload(0x40)\n      dup1\n      swap2\n      sub\n      swap1\n      log1\n        /* \"contracts/Govern.sol\":363:6059  contract Govern is IERC3000Executor, AdaptiveERC165, ERC1271, ACL {\r... */\n      stop\n    tag_2:\n      callvalue\n        /* \"--CODEGEN--\":5:14   */\n      dup1\n        /* \"--CODEGEN--\":2:4   */\n      iszero\n      tag_27\n      jumpi\n        /* \"--CODEGEN--\":27:28   */\n      0x00\n        /* \"--CODEGEN--\":24:25   */\n      dup1\n        /* \"--CODEGEN--\":17:29   */\n      revert\n        /* \"--CODEGEN--\":2:4   */\n    tag_27:\n        /* \"contracts/Govern.sol\":363:6059  contract Govern is IERC3000Executor, AdaptiveERC165, ERC1271, ACL {\r... */\n      pop\n        /* \"contracts/Govern.sol\":3115:3149  _handleCallback(msg.sig, msg.data) */\n      tag_30\n        /* \"contracts/Govern.sol\":3131:3138  msg.sig */\n      and(0xffffffff00000000000000000000000000000000000000000000000000000000, calldataload(0x00))\n        /* \"contracts/Govern.sol\":3140:3148  msg.data */\n      0x00\n      calldatasize\n        /* \"contracts/Govern.sol\":3115:3149  _handleCallback(msg.sig, msg.data) */\n      dup1\n      dup1\n      0x1f\n      add\n      0x20\n      dup1\n      swap2\n      div\n      mul\n      0x20\n      add\n      mload(0x40)\n      swap1\n      dup2\n      add\n      0x40\n      mstore\n      dup1\n      swap4\n      swap3\n      swap2\n      swap1\n      dup2\n      dup2\n      mstore\n      0x20\n      add\n      dup4\n      dup4\n        /* \"--CODEGEN--\":30:33   */\n      dup1\n        /* \"--CODEGEN--\":22:28   */\n      dup3\n        /* \"--CODEGEN--\":14:20   */\n      dup5\n        /* \"--CODEGEN--\":1:34   */\n      calldatacopy\n        /* \"--CODEGEN--\":99:100   */\n      0x00\n        /* \"--CODEGEN--\":93:96   */\n      dup2\n        /* \"--CODEGEN--\":85:91   */\n      dup5\n        /* \"--CODEGEN--\":81:97   */\n      add\n        /* \"--CODEGEN--\":74:101   */\n      mstore\n        /* \"--CODEGEN--\":137:141   */\n      0x1f\n        /* \"--CODEGEN--\":133:142   */\n      not\n        /* \"--CODEGEN--\":126:130   */\n      0x1f\n        /* \"--CODEGEN--\":121:124   */\n      dup3\n        /* \"--CODEGEN--\":117:131   */\n      add\n        /* \"--CODEGEN--\":113:143   */\n      and\n        /* \"--CODEGEN--\":106:143   */\n      swap1\n      pop\n        /* \"--CODEGEN--\":169:172   */\n      dup1\n        /* \"--CODEGEN--\":161:167   */\n      dup4\n        /* \"--CODEGEN--\":157:173   */\n      add\n        /* \"--CODEGEN--\":147:173   */\n      swap3\n      pop\n        /* \"contracts/Govern.sol\":3115:3149  _handleCallback(msg.sig, msg.data) */\n      pop\n      pop\n      pop\n      pop\n      pop\n      pop\n        /* \"contracts/Govern.sol\":3115:3130  _handleCallback */\n      tag_31\n        /* \"contracts/Govern.sol\":3115:3149  _handleCallback(msg.sig, msg.data) */\n      jump\t// in\n    tag_30:\n        /* \"contracts/Govern.sol\":363:6059  contract Govern is IERC3000Executor, AdaptiveERC165, ERC1271, ACL {\r... */\n      stop\n        /* \"contracts/AdaptiveERC165.sol\":628:818  function supportsInterface(bytes4 _interfaceId) override virtual public view returns (bool) {\r... */\n    tag_3:\n      callvalue\n        /* \"--CODEGEN--\":5:14   */\n      dup1\n        /* \"--CODEGEN--\":2:4   */\n      iszero\n      tag_32\n      jumpi\n        /* \"--CODEGEN--\":27:28   */\n      0x00\n        /* \"--CODEGEN--\":24:25   */\n      dup1\n        /* \"--CODEGEN--\":17:29   */\n      revert\n        /* \"--CODEGEN--\":2:4   */\n    tag_32:\n        /* \"contracts/AdaptiveERC165.sol\":628:818  function supportsInterface(bytes4 _interfaceId) override virtual public view returns (bool) {\r... */\n      pop\n      tag_33\n      0x04\n      dup1\n      calldatasize\n      sub\n      dup2\n      add\n      swap1\n      tag_34\n      swap2\n      swap1\n      jump(tag_35)\n    tag_34:\n      tag_36\n      jump\t// in\n    tag_33:\n      mload(0x40)\n      tag_37\n      swap2\n      swap1\n      jump(tag_38)\n    tag_37:\n      mload(0x40)\n      dup1\n      swap2\n      sub\n      swap1\n      return\n        /* \"contracts/Govern.sol\":5731:6056  function isValidSignature(bytes32 _hash, bytes memory _signature) override public view returns (bytes4) {\r... */\n    tag_4:\n      callvalue\n        /* \"--CODEGEN--\":5:14   */\n      dup1\n        /* \"--CODEGEN--\":2:4   */\n      iszero\n      tag_39\n      jumpi\n        /* \"--CODEGEN--\":27:28   */\n      0x00\n        /* \"--CODEGEN--\":24:25   */\n      dup1\n        /* \"--CODEGEN--\":17:29   */\n      revert\n        /* \"--CODEGEN--\":2:4   */\n    tag_39:\n        /* \"contracts/Govern.sol\":5731:6056  function isValidSignature(bytes32 _hash, bytes memory _signature) override public view returns (bytes4) {\r... */\n      pop\n      tag_40\n      0x04\n      dup1\n      calldatasize\n      sub\n      dup2\n      add\n      swap1\n      tag_41\n      swap2\n      swap1\n      jump(tag_42)\n    tag_41:\n      tag_43\n      jump\t// in\n    tag_40:\n      mload(0x40)\n      tag_44\n      swap2\n      swap1\n      jump(tag_45)\n    tag_44:\n      mload(0x40)\n      dup1\n      swap2\n      sub\n      swap1\n      return\n        /* \"contracts/ACL.sol\":2319:2763  function bulk(ACLData.BulkItem[] calldata items) external auth(ROOT_ROLE) {\r... */\n    tag_5:\n      callvalue\n        /* \"--CODEGEN--\":5:14   */\n      dup1\n        /* \"--CODEGEN--\":2:4   */\n      iszero\n      tag_46\n      jumpi\n        /* \"--CODEGEN--\":27:28   */\n      0x00\n        /* \"--CODEGEN--\":24:25   */\n      dup1\n        /* \"--CODEGEN--\":17:29   */\n      revert\n        /* \"--CODEGEN--\":2:4   */\n    tag_46:\n        /* \"contracts/ACL.sol\":2319:2763  function bulk(ACLData.BulkItem[] calldata items) external auth(ROOT_ROLE) {\r... */\n      pop\n      tag_47\n      0x04\n      dup1\n      calldatasize\n      sub\n      dup2\n      add\n      swap1\n      tag_48\n      swap2\n      swap1\n      jump(tag_49)\n    tag_48:\n      tag_50\n      jump\t// in\n    tag_47:\n      stop\n        /* \"contracts/Govern.sol\":3805:4280  function withdraw(address _token, address _from, address _to, uint256 _amount, string memory _reference) public auth(WITHDRAW_ROLE) {\r... */\n    tag_6:\n      callvalue\n        /* \"--CODEGEN--\":5:14   */\n      dup1\n        /* \"--CODEGEN--\":2:4   */\n      iszero\n      tag_51\n      jumpi\n        /* \"--CODEGEN--\":27:28   */\n      0x00\n        /* \"--CODEGEN--\":24:25   */\n      dup1\n        /* \"--CODEGEN--\":17:29   */\n      revert\n        /* \"--CODEGEN--\":2:4   */\n    tag_51:\n        /* \"contracts/Govern.sol\":3805:4280  function withdraw(address _token, address _from, address _to, uint256 _amount, string memory _reference) public auth(WITHDRAW_ROLE) {\r... */\n      pop\n      tag_52\n      0x04\n      dup1\n      calldatasize\n      sub\n      dup2\n      add\n      swap1\n      tag_53\n      swap2\n      swap1\n      jump(tag_54)\n    tag_53:\n      tag_55\n      jump\t// in\n    tag_52:\n      stop\n        /* \"contracts/Govern.sol\":5560:5723  function setSignatureValidator(ERC1271 _signatureValidator) external auth(SET_SIGNATURE_VALIDATOR_ROLE) {\r... */\n    tag_7:\n      callvalue\n        /* \"--CODEGEN--\":5:14   */\n      dup1\n        /* \"--CODEGEN--\":2:4   */\n      iszero\n      tag_56\n      jumpi\n        /* \"--CODEGEN--\":27:28   */\n      0x00\n        /* \"--CODEGEN--\":24:25   */\n      dup1\n        /* \"--CODEGEN--\":17:29   */\n      revert\n        /* \"--CODEGEN--\":2:4   */\n    tag_56:\n        /* \"contracts/Govern.sol\":5560:5723  function setSignatureValidator(ERC1271 _signatureValidator) external auth(SET_SIGNATURE_VALIDATOR_ROLE) {\r... */\n      pop\n      tag_57\n      0x04\n      dup1\n      calldatasize\n      sub\n      dup2\n      add\n      swap1\n      tag_58\n      swap2\n      swap1\n      jump(tag_59)\n    tag_58:\n      tag_60\n      jump\t// in\n    tag_57:\n      stop\n        /* \"contracts/ACL.sol\":3048:3173  function isFrozen(bytes4 _role) public view returns (bool) {\r... */\n    tag_8:\n      callvalue\n        /* \"--CODEGEN--\":5:14   */\n      dup1\n        /* \"--CODEGEN--\":2:4   */\n      iszero\n      tag_61\n      jumpi\n        /* \"--CODEGEN--\":27:28   */\n      0x00\n        /* \"--CODEGEN--\":24:25   */\n      dup1\n        /* \"--CODEGEN--\":17:29   */\n      revert\n        /* \"--CODEGEN--\":2:4   */\n    tag_61:\n        /* \"contracts/ACL.sol\":3048:3173  function isFrozen(bytes4 _role) public view returns (bool) {\r... */\n      pop\n      tag_62\n      0x04\n      dup1\n      calldatasize\n      sub\n      dup2\n      add\n      swap1\n      tag_63\n      swap2\n      swap1\n      jump(tag_35)\n    tag_63:\n      tag_64\n      jump\t// in\n    tag_62:\n      mload(0x40)\n      tag_65\n      swap2\n      swap1\n      jump(tag_38)\n    tag_65:\n      mload(0x40)\n      dup1\n      swap2\n      sub\n      swap1\n      return\n        /* \"contracts/ACL.sol\":2107:2215  function revoke(bytes4 _role, address _who) external auth(ROOT_ROLE) {\r... */\n    tag_9:\n      callvalue\n        /* \"--CODEGEN--\":5:14   */\n      dup1\n        /* \"--CODEGEN--\":2:4   */\n      iszero\n      tag_66\n      jumpi\n        /* \"--CODEGEN--\":27:28   */\n      0x00\n        /* \"--CODEGEN--\":24:25   */\n      dup1\n        /* \"--CODEGEN--\":17:29   */\n      revert\n        /* \"--CODEGEN--\":2:4   */\n    tag_66:\n        /* \"contracts/ACL.sol\":2107:2215  function revoke(bytes4 _role, address _who) external auth(ROOT_ROLE) {\r... */\n      pop\n      tag_67\n      0x04\n      dup1\n      calldatasize\n      sub\n      dup2\n      add\n      swap1\n      tag_68\n      swap2\n      swap1\n      jump(tag_69)\n    tag_68:\n      tag_70\n      jump\t// in\n    tag_67:\n      stop\n        /* \"contracts/ACL.sol\":372:529  bytes4 public constant ROOT_ROLE =\r... */\n    tag_10:\n      callvalue\n        /* \"--CODEGEN--\":5:14   */\n      dup1\n        /* \"--CODEGEN--\":2:4   */\n      iszero\n      tag_71\n      jumpi\n        /* \"--CODEGEN--\":27:28   */\n      0x00\n        /* \"--CODEGEN--\":24:25   */\n      dup1\n        /* \"--CODEGEN--\":17:29   */\n      revert\n        /* \"--CODEGEN--\":2:4   */\n    tag_71:\n        /* \"contracts/ACL.sol\":372:529  bytes4 public constant ROOT_ROLE =\r... */\n      pop\n      tag_72\n      tag_73\n      jump\t// in\n    tag_72:\n      mload(0x40)\n      tag_74\n      swap2\n      swap1\n      jump(tag_45)\n    tag_74:\n      mload(0x40)\n      dup1\n      swap2\n      sub\n      swap1\n      return\n        /* \"contracts/ACL.sol\":957:1018  mapping (bytes4 => mapping (address => address)) public roles */\n    tag_11:\n      callvalue\n        /* \"--CODEGEN--\":5:14   */\n      dup1\n        /* \"--CODEGEN--\":2:4   */\n      iszero\n      tag_75\n      jumpi\n        /* \"--CODEGEN--\":27:28   */\n      0x00\n        /* \"--CODEGEN--\":24:25   */\n      dup1\n        /* \"--CODEGEN--\":17:29   */\n      revert\n        /* \"--CODEGEN--\":2:4   */\n    tag_75:\n        /* \"contracts/ACL.sol\":957:1018  mapping (bytes4 => mapping (address => address)) public roles */\n      pop\n      tag_76\n      0x04\n      dup1\n      calldatasize\n      sub\n      dup2\n      add\n      swap1\n      tag_77\n      swap2\n      swap1\n      jump(tag_69)\n    tag_77:\n      tag_78\n      jump\t// in\n    tag_76:\n      mload(0x40)\n      tag_79\n      swap2\n      swap1\n      jump(tag_80)\n    tag_79:\n      mload(0x40)\n      dup1\n      swap2\n      sub\n      swap1\n      return\n        /* \"contracts/ACL.sol\":1830:1936  function grant(bytes4 _role, address _who) external auth(ROOT_ROLE) {\r... */\n    tag_12:\n      callvalue\n        /* \"--CODEGEN--\":5:14   */\n      dup1\n        /* \"--CODEGEN--\":2:4   */\n      iszero\n      tag_81\n      jumpi\n        /* \"--CODEGEN--\":27:28   */\n      0x00\n        /* \"--CODEGEN--\":24:25   */\n      dup1\n        /* \"--CODEGEN--\":17:29   */\n      revert\n        /* \"--CODEGEN--\":2:4   */\n    tag_81:\n        /* \"contracts/ACL.sol\":1830:1936  function grant(bytes4 _role, address _who) external auth(ROOT_ROLE) {\r... */\n      pop\n      tag_82\n      0x04\n      dup1\n      calldatasize\n      sub\n      dup2\n      add\n      swap1\n      tag_83\n      swap2\n      swap1\n      jump(tag_69)\n    tag_83:\n      tag_84\n      jump\t// in\n    tag_82:\n      stop\n        /* \"contracts/ACL.sol\":1944:2099  function grantWithOracle(bytes4 _role, address _who, IACLOracle _oracle) external auth(ROOT_ROLE) {\r... */\n    tag_13:\n      callvalue\n        /* \"--CODEGEN--\":5:14   */\n      dup1\n        /* \"--CODEGEN--\":2:4   */\n      iszero\n      tag_85\n      jumpi\n        /* \"--CODEGEN--\":27:28   */\n      0x00\n        /* \"--CODEGEN--\":24:25   */\n      dup1\n        /* \"--CODEGEN--\":17:29   */\n      revert\n        /* \"--CODEGEN--\":2:4   */\n    tag_85:\n        /* \"contracts/ACL.sol\":1944:2099  function grantWithOracle(bytes4 _role, address _who, IACLOracle _oracle) external auth(ROOT_ROLE) {\r... */\n      pop\n      tag_86\n      0x04\n      dup1\n      calldatasize\n      sub\n      dup2\n      add\n      swap1\n      tag_87\n      swap2\n      swap1\n      jump(tag_88)\n    tag_87:\n      tag_89\n      jump\t// in\n    tag_86:\n      stop\n        /* \"contracts/Govern.sol\":5325:5552  function registerStandardAndCallback(bytes4 _interfaceId, bytes4 _callbackSig, bytes4 _magicNumber) external auth(REGISTER_STANDARD_ROLE) {\r... */\n    tag_14:\n      callvalue\n        /* \"--CODEGEN--\":5:14   */\n      dup1\n        /* \"--CODEGEN--\":2:4   */\n      iszero\n      tag_90\n      jumpi\n        /* \"--CODEGEN--\":27:28   */\n      0x00\n        /* \"--CODEGEN--\":24:25   */\n      dup1\n        /* \"--CODEGEN--\":17:29   */\n      revert\n        /* \"--CODEGEN--\":2:4   */\n    tag_90:\n        /* \"contracts/Govern.sol\":5325:5552  function registerStandardAndCallback(bytes4 _interfaceId, bytes4 _callbackSig, bytes4 _magicNumber) external auth(REGISTER_STANDARD_ROLE) {\r... */\n      pop\n      tag_91\n      0x04\n      dup1\n      calldatasize\n      sub\n      dup2\n      add\n      swap1\n      tag_92\n      swap2\n      swap1\n      jump(tag_93)\n    tag_92:\n      tag_94\n      jump\t// in\n    tag_91:\n      stop\n        /* \"contracts/ACL.sol\":2223:2311  function freeze(bytes4 _role) external auth(ROOT_ROLE) {\r... */\n    tag_15:\n      callvalue\n        /* \"--CODEGEN--\":5:14   */\n      dup1\n        /* \"--CODEGEN--\":2:4   */\n      iszero\n      tag_95\n      jumpi\n        /* \"--CODEGEN--\":27:28   */\n      0x00\n        /* \"--CODEGEN--\":24:25   */\n      dup1\n        /* \"--CODEGEN--\":17:29   */\n      revert\n        /* \"--CODEGEN--\":2:4   */\n    tag_95:\n        /* \"contracts/ACL.sol\":2223:2311  function freeze(bytes4 _role) external auth(ROOT_ROLE) {\r... */\n      pop\n      tag_96\n      0x04\n      dup1\n      calldatasize\n      sub\n      dup2\n      add\n      swap1\n      tag_97\n      swap2\n      swap1\n      jump(tag_35)\n    tag_97:\n      tag_98\n      jump\t// in\n    tag_96:\n      stop\n        /* \"contracts/Govern.sol\":3236:3797  function deposit(address _token, uint256 _amount, string calldata _reference) external payable {\r... */\n    tag_16:\n      tag_99\n      0x04\n      dup1\n      calldatasize\n      sub\n      dup2\n      add\n      swap1\n      tag_100\n      swap2\n      swap1\n      jump(tag_101)\n    tag_100:\n      tag_102\n      jump\t// in\n    tag_99:\n      stop\n        /* \"contracts/Govern.sol\":4288:5317  function exec(ERC3000Data.Action[] memory actions, bytes32 allowFailuresMap, bytes32 memo) override public auth(EXEC_ROLE) returns (bytes32, bytes[] memory) {\r... */\n    tag_17:\n      callvalue\n        /* \"--CODEGEN--\":5:14   */\n      dup1\n        /* \"--CODEGEN--\":2:4   */\n      iszero\n      tag_103\n      jumpi\n        /* \"--CODEGEN--\":27:28   */\n      0x00\n        /* \"--CODEGEN--\":24:25   */\n      dup1\n        /* \"--CODEGEN--\":17:29   */\n      revert\n        /* \"--CODEGEN--\":2:4   */\n    tag_103:\n        /* \"contracts/Govern.sol\":4288:5317  function exec(ERC3000Data.Action[] memory actions, bytes32 allowFailuresMap, bytes32 memo) override public auth(EXEC_ROLE) returns (bytes32, bytes[] memory) {\r... */\n      pop\n      tag_104\n      0x04\n      dup1\n      calldatasize\n      sub\n      dup2\n      add\n      swap1\n      tag_105\n      swap2\n      swap1\n      jump(tag_106)\n    tag_105:\n      tag_107\n      jump\t// in\n    tag_104:\n      mload(0x40)\n      tag_108\n      swap3\n      swap2\n      swap1\n      jump(tag_109)\n    tag_108:\n      mload(0x40)\n      dup1\n      swap2\n      sub\n      swap1\n      return\n        /* \"contracts/Govern.sol\":2439:2980  function initialize(address _initialExecutor) public initACL(address(this)) onlyInit(\"govern\") {\r... */\n    tag_18:\n      callvalue\n        /* \"--CODEGEN--\":5:14   */\n      dup1\n        /* \"--CODEGEN--\":2:4   */\n      iszero\n      tag_110\n      jumpi\n        /* \"--CODEGEN--\":27:28   */\n      0x00\n        /* \"--CODEGEN--\":24:25   */\n      dup1\n        /* \"--CODEGEN--\":17:29   */\n      revert\n        /* \"--CODEGEN--\":2:4   */\n    tag_110:\n        /* \"contracts/Govern.sol\":2439:2980  function initialize(address _initialExecutor) public initACL(address(this)) onlyInit(\"govern\") {\r... */\n      pop\n      tag_111\n      0x04\n      dup1\n      calldatasize\n      sub\n      dup2\n      add\n      swap1\n      tag_112\n      swap2\n      swap1\n      jump(tag_113)\n    tag_112:\n      tag_114\n      jump\t// in\n    tag_111:\n      stop\n        /* \"contracts/Initializable.sol\":103:148  mapping (string => uint256) public initBlocks */\n    tag_19:\n      callvalue\n        /* \"--CODEGEN--\":5:14   */\n      dup1\n        /* \"--CODEGEN--\":2:4   */\n      iszero\n      tag_115\n      jumpi\n        /* \"--CODEGEN--\":27:28   */\n      0x00\n        /* \"--CODEGEN--\":24:25   */\n      dup1\n        /* \"--CODEGEN--\":17:29   */\n      revert\n        /* \"--CODEGEN--\":2:4   */\n    tag_115:\n        /* \"contracts/Initializable.sol\":103:148  mapping (string => uint256) public initBlocks */\n      pop\n      tag_116\n      0x04\n      dup1\n      calldatasize\n      sub\n      dup2\n      add\n      swap1\n      tag_117\n      swap2\n      swap1\n      jump(tag_118)\n    tag_117:\n      tag_119\n      jump\t// in\n    tag_116:\n      mload(0x40)\n      tag_120\n      swap2\n      swap1\n      jump(tag_121)\n    tag_120:\n      mload(0x40)\n      dup1\n      swap2\n      sub\n      swap1\n      return\n        /* \"contracts/AdaptiveERC165.sol\":826:1242  function _handleCallback(bytes4 _sig, bytes memory _data) internal {\r... */\n    tag_31:\n        /* \"contracts/AdaptiveERC165.sol\":904:923  bytes32 magicNumber */\n      0x00\n        /* \"contracts/AdaptiveERC165.sol\":926:946  callbackMagicNumbers */\n      0x01\n        /* \"contracts/AdaptiveERC165.sol\":926:952  callbackMagicNumbers[_sig] */\n      0x00\n        /* \"contracts/AdaptiveERC165.sol\":947:951  _sig */\n      dup5\n        /* \"contracts/AdaptiveERC165.sol\":926:952  callbackMagicNumbers[_sig] */\n      not(0xffffffffffffffffffffffffffffffffffffffffffffffffffffffff)\n      and\n      not(0xffffffffffffffffffffffffffffffffffffffffffffffffffffffff)\n      and\n      dup2\n      mstore\n      0x20\n      add\n      swap1\n      dup2\n      mstore\n      0x20\n      add\n      0x00\n      keccak256\n      sload\n        /* \"contracts/AdaptiveERC165.sol\":904:952  bytes32 magicNumber = callbackMagicNumbers[_sig] */\n      swap1\n      pop\n        /* \"contracts/AdaptiveERC165.sol\":440:441  0 */\n      0x00\n        /* \"contracts/AdaptiveERC165.sol\":432:442  bytes32(0) */\n      dup1\n      shl\n        /* \"contracts/AdaptiveERC165.sol\":971:982  magicNumber */\n      dup2\n        /* \"contracts/AdaptiveERC165.sol\":971:1007  magicNumber != UNREGISTERED_CALLBACK */\n      eq\n      iszero\n        /* \"contracts/AdaptiveERC165.sol\":963:1041  require(magicNumber != UNREGISTERED_CALLBACK, \"adap-erc165: unknown callback\") */\n      tag_123\n      jumpi\n      mload(0x40)\n      0x08c379a000000000000000000000000000000000000000000000000000000000\n      dup2\n      mstore\n      0x04\n      add\n      tag_124\n      swap1\n      jump(tag_125)\n    tag_124:\n      mload(0x40)\n      dup1\n      swap2\n      sub\n      swap1\n      revert\n    tag_123:\n        /* \"contracts/AdaptiveERC165.sol\":1076:1080  _sig */\n      dup3\n        /* \"contracts/AdaptiveERC165.sol\":1059:1088  ReceivedCallback(_sig, _data) */\n      not(0xffffffffffffffffffffffffffffffffffffffffffffffffffffffff)\n      and\n      0x2fdd9b4034d8eef4c469308919f66095e03b482447321a73e21479292fba6d37\n        /* \"contracts/AdaptiveERC165.sol\":1082:1087  _data */\n      dup4\n        /* \"contracts/AdaptiveERC165.sol\":1059:1088  ReceivedCallback(_sig, _data) */\n      mload(0x40)\n      tag_126\n      swap2\n      swap1\n      jump(tag_127)\n    tag_126:\n      mload(0x40)\n      dup1\n      swap2\n      sub\n      swap1\n      log2\n        /* \"contracts/AdaptiveERC165.sol\":1180:1191  magicNumber */\n      dup1\n        /* \"contracts/AdaptiveERC165.sol\":1174:1178  0x00 */\n      0x00\n        /* \"contracts/AdaptiveERC165.sol\":1167:1192  mstore(0x00, magicNumber) */\n      mstore\n        /* \"contracts/AdaptiveERC165.sol\":1219:1223  0x20 */\n      0x20\n        /* \"contracts/AdaptiveERC165.sol\":1213:1217  0x00 */\n      0x00\n        /* \"contracts/AdaptiveERC165.sol\":1206:1224  return(0x00, 0x20) */\n      return\n        /* \"contracts/AdaptiveERC165.sol\":628:818  function supportsInterface(bytes4 _interfaceId) override virtual public view returns (bool) {\r... */\n    tag_36:\n        /* \"contracts/AdaptiveERC165.sol\":714:718  bool */\n      0x00\n        /* \"contracts/AdaptiveERC165.sol\":738:755  standardSupported */\n      dup1\n        /* \"contracts/AdaptiveERC165.sol\":738:769  standardSupported[_interfaceId] */\n      0x00\n        /* \"contracts/AdaptiveERC165.sol\":756:768  _interfaceId */\n      dup4\n        /* \"contracts/AdaptiveERC165.sol\":738:769  standardSupported[_interfaceId] */\n      not(0xffffffffffffffffffffffffffffffffffffffffffffffffffffffff)\n      and\n      not(0xffffffffffffffffffffffffffffffffffffffffffffffffffffffff)\n      and\n      dup2\n      mstore\n      0x20\n      add\n      swap1\n      dup2\n      mstore\n      0x20\n      add\n      0x00\n      keccak256\n      0x00\n      swap1\n      sload\n      swap1\n      0x0100\n      exp\n      swap1\n      div\n      0xff\n      and\n        /* \"contracts/AdaptiveERC165.sol\":738:810  standardSupported[_interfaceId] || super.supportsInterface(_interfaceId) */\n      dup1\n      tag_129\n      jumpi\n      pop\n        /* \"contracts/AdaptiveERC165.sol\":773:810  super.supportsInterface(_interfaceId) */\n      tag_130\n        /* \"contracts/AdaptiveERC165.sol\":797:809  _interfaceId */\n      dup3\n        /* \"contracts/AdaptiveERC165.sol\":773:796  super.supportsInterface */\n      tag_131\n        /* \"contracts/AdaptiveERC165.sol\":773:810  super.supportsInterface(_interfaceId) */\n      jump\t// in\n    tag_130:\n        /* \"contracts/AdaptiveERC165.sol\":738:810  standardSupported[_interfaceId] || super.supportsInterface(_interfaceId) */\n    tag_129:\n        /* \"contracts/AdaptiveERC165.sol\":731:810  return standardSupported[_interfaceId] || super.supportsInterface(_interfaceId) */\n      swap1\n      pop\n        /* \"contracts/AdaptiveERC165.sol\":628:818  function supportsInterface(bytes4 _interfaceId) override virtual public view returns (bool) {\r... */\n      swap2\n      swap1\n      pop\n      jump\t// out\n        /* \"contracts/Govern.sol\":5731:6056  function isValidSignature(bytes32 _hash, bytes memory _signature) override public view returns (bytes4) {\r... */\n    tag_43:\n        /* \"contracts/Govern.sol\":5827:5833  bytes4 */\n      0x00\n        /* \"contracts/Govern.sol\":5889:5890  0 */\n      dup1\n        /* \"contracts/Govern.sol\":5850:5891  address(signatureValidator) == address(0) */\n      0xffffffffffffffffffffffffffffffffffffffff\n      and\n        /* \"contracts/Govern.sol\":5858:5876  signatureValidator */\n      0x04\n      0x00\n      swap1\n      sload\n      swap1\n      0x0100\n      exp\n      swap1\n      div\n      0xffffffffffffffffffffffffffffffffffffffff\n      and\n        /* \"contracts/Govern.sol\":5850:5891  address(signatureValidator) == address(0) */\n      0xffffffffffffffffffffffffffffffffffffffff\n      and\n      eq\n        /* \"contracts/Govern.sol\":5846:5909  if (address(signatureValidator) == address(0)) return bytes4(0) */\n      iszero\n      tag_133\n      jumpi\n        /* \"contracts/Govern.sol\":5907:5908  0 */\n      0x00\n        /* \"contracts/Govern.sol\":5900:5909  bytes4(0) */\n      0xe0\n      shl\n        /* \"contracts/Govern.sol\":5893:5909  return bytes4(0) */\n      swap1\n      pop\n      jump(tag_132)\n        /* \"contracts/Govern.sol\":5846:5909  if (address(signatureValidator) == address(0)) return bytes4(0) */\n    tag_133:\n        /* \"contracts/Govern.sol\":5951:5969  signatureValidator */\n      0x04\n      0x00\n      swap1\n      sload\n      swap1\n      0x0100\n      exp\n      swap1\n      div\n      0xffffffffffffffffffffffffffffffffffffffff\n      and\n        /* \"contracts/Govern.sol\":5951:5986  signatureValidator.isValidSignature */\n      0xffffffffffffffffffffffffffffffffffffffff\n      and\n      0x1626ba7e\n        /* \"contracts/Govern.sol\":5987:5992  _hash */\n      dup5\n        /* \"contracts/Govern.sol\":5994:6004  _signature */\n      dup5\n        /* \"contracts/Govern.sol\":5951:6005  signatureValidator.isValidSignature(_hash, _signature) */\n      mload(0x40)\n      dup4\n      0xffffffff\n      and\n      0xe0\n      shl\n      dup2\n      mstore\n      0x04\n      add\n      tag_134\n      swap3\n      swap2\n      swap1\n      jump(tag_135)\n    tag_134:\n      0x20\n      mload(0x40)\n      dup1\n      dup4\n      sub\n      dup2\n      dup7\n      dup1\n      extcodesize\n      iszero\n        /* \"--CODEGEN--\":5:14   */\n      dup1\n        /* \"--CODEGEN--\":2:4   */\n      iszero\n      tag_136\n      jumpi\n        /* \"--CODEGEN--\":27:28   */\n      0x00\n        /* \"--CODEGEN--\":24:25   */\n      dup1\n        /* \"--CODEGEN--\":17:29   */\n      revert\n        /* \"--CODEGEN--\":2:4   */\n    tag_136:\n        /* \"contracts/Govern.sol\":5951:6005  signatureValidator.isValidSignature(_hash, _signature) */\n      pop\n      gas\n      staticcall\n      iszero\n        /* \"--CODEGEN--\":8:17   */\n      dup1\n        /* \"--CODEGEN--\":5:7   */\n      iszero\n      tag_138\n      jumpi\n        /* \"--CODEGEN--\":45:61   */\n      returndatasize\n        /* \"--CODEGEN--\":42:43   */\n      0x00\n        /* \"--CODEGEN--\":39:40   */\n      dup1\n        /* \"--CODEGEN--\":24:62   */\n      returndatacopy\n        /* \"--CODEGEN--\":77:93   */\n      returndatasize\n        /* \"--CODEGEN--\":74:75   */\n      0x00\n        /* \"--CODEGEN--\":67:94   */\n      revert\n        /* \"--CODEGEN--\":5:7   */\n    tag_138:\n        /* \"contracts/Govern.sol\":5951:6005  signatureValidator.isValidSignature(_hash, _signature) */\n      pop\n      pop\n      pop\n      pop\n      mload(0x40)\n      returndatasize\n        /* \"--CODEGEN--\":101:105   */\n      0x1f\n        /* \"--CODEGEN--\":97:106   */\n      not\n        /* \"--CODEGEN--\":90:94   */\n      0x1f\n        /* \"--CODEGEN--\":84:88   */\n      dup3\n        /* \"--CODEGEN--\":80:95   */\n      add\n        /* \"--CODEGEN--\":76:107   */\n      and\n        /* \"--CODEGEN--\":69:74   */\n      dup3\n        /* \"--CODEGEN--\":65:108   */\n      add\n        /* \"--CODEGEN--\":126:132   */\n      dup1\n        /* \"--CODEGEN--\":120:124   */\n      0x40\n        /* \"--CODEGEN--\":113:133   */\n      mstore\n        /* \"--CODEGEN--\":0:138   */\n      pop\n        /* \"contracts/Govern.sol\":5951:6005  signatureValidator.isValidSignature(_hash, _signature) */\n      dup2\n      add\n      swap1\n      tag_139\n      swap2\n      swap1\n      jump(tag_140)\n    tag_139:\n        /* \"contracts/Govern.sol\":5944:6005  return signatureValidator.isValidSignature(_hash, _signature) */\n      swap1\n      pop\n        /* \"contracts/Govern.sol\":5731:6056  function isValidSignature(bytes32 _hash, bytes memory _signature) override public view returns (bytes4) {\r... */\n    tag_132:\n      swap3\n      swap2\n      pop\n      pop\n      jump\t// out\n        /* \"contracts/ACL.sol\":2319:2763  function bulk(ACLData.BulkItem[] calldata items) external auth(ROOT_ROLE) {\r... */\n    tag_50:\n        /* \"contracts/ACL.sol\":511:529  this.bulk.selector */\n      shl(0xe0, 0x1c47671b)\n        /* \"contracts/ACL.sol\":479:499  this.freeze.selector */\n      shl(0xe0, 0xbdf9a726)\n        /* \"contracts/ACL.sol\":447:467  this.revoke.selector */\n      shl(0xe0, 0x58849734)\n        /* \"contracts/ACL.sol\":416:435  this.grant.selector */\n      shl(0xe0, 0xa157a10d)\n        /* \"contracts/ACL.sol\":416:467  this.grant.selector\r... */\n      xor\n        /* \"contracts/ACL.sol\":416:499  this.grant.selector\r... */\n      xor\n        /* \"contracts/ACL.sol\":416:529  this.grant.selector\r... */\n      xor\n        /* \"contracts/ACL.sol\":1328:1368  willPerform(_role, msg.sender, msg.data) */\n      tag_142\n        /* \"contracts/ACL.sol\":1340:1345  _role */\n      dup2\n        /* \"contracts/ACL.sol\":1347:1357  msg.sender */\n      caller\n        /* \"contracts/ACL.sol\":1359:1367  msg.data */\n      0x00\n      calldatasize\n        /* \"contracts/ACL.sol\":1328:1368  willPerform(_role, msg.sender, msg.data) */\n      dup1\n      dup1\n      0x1f\n      add\n      0x20\n      dup1\n      swap2\n      div\n      mul\n      0x20\n      add\n      mload(0x40)\n      swap1\n      dup2\n      add\n      0x40\n      mstore\n      dup1\n      swap4\n      swap3\n      swap2\n      swap1\n      dup2\n      dup2\n      mstore\n      0x20\n      add\n      dup4\n      dup4\n        /* \"--CODEGEN--\":30:33   */\n      dup1\n        /* \"--CODEGEN--\":22:28   */\n      dup3\n        /* \"--CODEGEN--\":14:20   */\n      dup5\n        /* \"--CODEGEN--\":1:34   */\n      calldatacopy\n        /* \"--CODEGEN--\":99:100   */\n      0x00\n        /* \"--CODEGEN--\":93:96   */\n      dup2\n        /* \"--CODEGEN--\":85:91   */\n      dup5\n        /* \"--CODEGEN--\":81:97   */\n      add\n        /* \"--CODEGEN--\":74:101   */\n      mstore\n        /* \"--CODEGEN--\":137:141   */\n      0x1f\n        /* \"--CODEGEN--\":133:142   */\n      not\n        /* \"--CODEGEN--\":126:130   */\n      0x1f\n        /* \"--CODEGEN--\":121:124   */\n      dup3\n        /* \"--CODEGEN--\":117:131   */\n      add\n        /* \"--CODEGEN--\":113:143   */\n      and\n        /* \"--CODEGEN--\":106:143   */\n      swap1\n      pop\n        /* \"--CODEGEN--\":169:172   */\n      dup1\n        /* \"--CODEGEN--\":161:167   */\n      dup4\n        /* \"--CODEGEN--\":157:173   */\n      add\n        /* \"--CODEGEN--\":147:173   */\n      swap3\n      pop\n        /* \"contracts/ACL.sol\":1328:1368  willPerform(_role, msg.sender, msg.data) */\n      pop\n      pop\n      pop\n      pop\n      pop\n      pop\n        /* \"contracts/ACL.sol\":1328:1339  willPerform */\n      tag_143\n        /* \"contracts/ACL.sol\":1328:1368  willPerform(_role, msg.sender, msg.data) */\n      jump\t// in\n    tag_142:\n        /* \"contracts/ACL.sol\":1320:1382  require(willPerform(_role, msg.sender, msg.data), \"acl: auth\") */\n      tag_144\n      jumpi\n      mload(0x40)\n      0x08c379a000000000000000000000000000000000000000000000000000000000\n      dup2\n      mstore\n      0x04\n      add\n      tag_145\n      swap1\n      jump(tag_146)\n    tag_145:\n      mload(0x40)\n      dup1\n      swap2\n      sub\n      swap1\n      revert\n    tag_144:\n        /* \"contracts/ACL.sol\":2409:2418  uint256 i */\n      0x00\n        /* \"contracts/ACL.sol\":2421:2422  0 */\n      dup1\n        /* \"contracts/ACL.sol\":2409:2422  uint256 i = 0 */\n      swap1\n      pop\n        /* \"contracts/ACL.sol\":2404:2756  for (uint256 i = 0; i < items.length; i++) {\r... */\n    tag_148:\n        /* \"contracts/ACL.sol\":2428:2433  items */\n      dup4\n      dup4\n        /* \"contracts/ACL.sol\":2428:2440  items.length */\n      swap1\n      pop\n        /* \"contracts/ACL.sol\":2424:2425  i */\n      dup2\n        /* \"contracts/ACL.sol\":2424:2440  i < items.length */\n      lt\n        /* \"contracts/ACL.sol\":2404:2756  for (uint256 i = 0; i < items.length; i++) {\r... */\n      iszero\n      tag_149\n      jumpi\n        /* \"contracts/ACL.sol\":2462:2490  ACLData.BulkItem memory item */\n      tag_151\n      tag_152\n      jump\t// in\n    tag_151:\n        /* \"contracts/ACL.sol\":2493:2498  items */\n      dup5\n      dup5\n        /* \"contracts/ACL.sol\":2499:2500  i */\n      dup4\n        /* \"contracts/ACL.sol\":2493:2501  items[i] */\n      dup2\n      dup2\n      lt\n      tag_153\n      jumpi\n      invalid\n    tag_153:\n      swap1\n      pop\n      0x60\n      mul\n      add\n        /* \"contracts/ACL.sol\":2462:2501  ACLData.BulkItem memory item = items[i] */\n      dup1\n      calldatasize\n      sub\n      dup2\n      add\n      swap1\n      tag_154\n      swap2\n      swap1\n      jump(tag_155)\n    tag_154:\n      swap1\n      pop\n        /* \"contracts/ACL.sol\":2533:2553  ACLData.BulkOp.Grant */\n      0x00\n        /* \"contracts/ACL.sol\":2522:2553  item.op == ACLData.BulkOp.Grant */\n      0x02\n      dup2\n      gt\n      iszero\n      tag_156\n      jumpi\n      invalid\n    tag_156:\n        /* \"contracts/ACL.sol\":2522:2526  item */\n      dup2\n        /* \"contracts/ACL.sol\":2522:2529  item.op */\n      0x00\n      add\n      mload\n        /* \"contracts/ACL.sol\":2522:2553  item.op == ACLData.BulkOp.Grant */\n      0x02\n      dup2\n      gt\n      iszero\n      tag_157\n      jumpi\n      invalid\n    tag_157:\n      eq\n        /* \"contracts/ACL.sol\":2518:2744  if (item.op == ACLData.BulkOp.Grant) _grant(item.role, item.who);\r... */\n      iszero\n      tag_158\n      jumpi\n        /* \"contracts/ACL.sol\":2555:2582  _grant(item.role, item.who) */\n      tag_159\n        /* \"contracts/ACL.sol\":2562:2566  item */\n      dup2\n        /* \"contracts/ACL.sol\":2562:2571  item.role */\n      0x20\n      add\n      mload\n        /* \"contracts/ACL.sol\":2573:2577  item */\n      dup3\n        /* \"contracts/ACL.sol\":2573:2581  item.who */\n      0x40\n      add\n      mload\n        /* \"contracts/ACL.sol\":2555:2561  _grant */\n      tag_160\n        /* \"contracts/ACL.sol\":2555:2582  _grant(item.role, item.who) */\n      jump\t// in\n    tag_159:\n        /* \"contracts/ACL.sol\":2518:2744  if (item.op == ACLData.BulkOp.Grant) _grant(item.role, item.who);\r... */\n      jump(tag_161)\n    tag_158:\n        /* \"contracts/ACL.sol\":2617:2638  ACLData.BulkOp.Revoke */\n      0x01\n        /* \"contracts/ACL.sol\":2606:2638  item.op == ACLData.BulkOp.Revoke */\n      0x02\n      dup2\n      gt\n      iszero\n      tag_162\n      jumpi\n      invalid\n    tag_162:\n        /* \"contracts/ACL.sol\":2606:2610  item */\n      dup2\n        /* \"contracts/ACL.sol\":2606:2613  item.op */\n      0x00\n      add\n      mload\n        /* \"contracts/ACL.sol\":2606:2638  item.op == ACLData.BulkOp.Revoke */\n      0x02\n      dup2\n      gt\n      iszero\n      tag_163\n      jumpi\n      invalid\n    tag_163:\n      eq\n        /* \"contracts/ACL.sol\":2602:2744  if (item.op == ACLData.BulkOp.Revoke) _revoke(item.role, item.who);\r... */\n      iszero\n      tag_164\n      jumpi\n        /* \"contracts/ACL.sol\":2640:2668  _revoke(item.role, item.who) */\n      tag_165\n        /* \"contracts/ACL.sol\":2648:2652  item */\n      dup2\n        /* \"contracts/ACL.sol\":2648:2657  item.role */\n      0x20\n      add\n      mload\n        /* \"contracts/ACL.sol\":2659:2663  item */\n      dup3\n        /* \"contracts/ACL.sol\":2659:2667  item.who */\n      0x40\n      add\n      mload\n        /* \"contracts/ACL.sol\":2640:2647  _revoke */\n      tag_166\n        /* \"contracts/ACL.sol\":2640:2668  _revoke(item.role, item.who) */\n      jump\t// in\n    tag_165:\n        /* \"contracts/ACL.sol\":2602:2744  if (item.op == ACLData.BulkOp.Revoke) _revoke(item.role, item.who);\r... */\n      jump(tag_167)\n    tag_164:\n        /* \"contracts/ACL.sol\":2703:2724  ACLData.BulkOp.Freeze */\n      0x02\n        /* \"contracts/ACL.sol\":2692:2724  item.op == ACLData.BulkOp.Freeze */\n      dup1\n      dup2\n      gt\n      iszero\n      tag_168\n      jumpi\n      invalid\n    tag_168:\n        /* \"contracts/ACL.sol\":2692:2696  item */\n      dup2\n        /* \"contracts/ACL.sol\":2692:2699  item.op */\n      0x00\n      add\n      mload\n        /* \"contracts/ACL.sol\":2692:2724  item.op == ACLData.BulkOp.Freeze */\n      0x02\n      dup2\n      gt\n      iszero\n      tag_169\n      jumpi\n      invalid\n    tag_169:\n      eq\n        /* \"contracts/ACL.sol\":2688:2744  if (item.op == ACLData.BulkOp.Freeze) _freeze(item.role) */\n      iszero\n      tag_170\n      jumpi\n        /* \"contracts/ACL.sol\":2726:2744  _freeze(item.role) */\n      tag_171\n        /* \"contracts/ACL.sol\":2734:2738  item */\n      dup2\n        /* \"contracts/ACL.sol\":2734:2743  item.role */\n      0x20\n      add\n      mload\n        /* \"contracts/ACL.sol\":2726:2733  _freeze */\n      tag_172\n        /* \"contracts/ACL.sol\":2726:2744  _freeze(item.role) */\n      jump\t// in\n    tag_171:\n        /* \"contracts/ACL.sol\":2688:2744  if (item.op == ACLData.BulkOp.Freeze) _freeze(item.role) */\n    tag_170:\n        /* \"contracts/ACL.sol\":2602:2744  if (item.op == ACLData.BulkOp.Revoke) _revoke(item.role, item.who);\r... */\n    tag_167:\n        /* \"contracts/ACL.sol\":2518:2744  if (item.op == ACLData.BulkOp.Grant) _grant(item.role, item.who);\r... */\n    tag_161:\n        /* \"contracts/ACL.sol\":2404:2756  for (uint256 i = 0; i < items.length; i++) {\r... */\n      pop\n        /* \"contracts/ACL.sol\":2442:2445  i++ */\n      dup1\n      dup1\n      0x01\n      add\n      swap2\n      pop\n      pop\n        /* \"contracts/ACL.sol\":2404:2756  for (uint256 i = 0; i < items.length; i++) {\r... */\n      jump(tag_148)\n    tag_149:\n      pop\n        /* \"contracts/ACL.sol\":2319:2763  function bulk(ACLData.BulkItem[] calldata items) external auth(ROOT_ROLE) {\r... */\n      pop\n      pop\n      pop\n      jump\t// out\n        /* \"contracts/Govern.sol\":3805:4280  function withdraw(address _token, address _from, address _to, uint256 _amount, string memory _reference) public auth(WITHDRAW_ROLE) {\r... */\n    tag_55:\n        /* \"contracts/Govern.sol\":1354:1376  this.withdraw.selector */\n      shl(0xe0, 0x26abeb64)\n        /* \"contracts/ACL.sol\":1328:1368  willPerform(_role, msg.sender, msg.data) */\n      tag_174\n        /* \"contracts/ACL.sol\":1340:1345  _role */\n      dup2\n        /* \"contracts/ACL.sol\":1347:1357  msg.sender */\n      caller\n        /* \"contracts/ACL.sol\":1359:1367  msg.data */\n      0x00\n      calldatasize\n        /* \"contracts/ACL.sol\":1328:1368  willPerform(_role, msg.sender, msg.data) */\n      dup1\n      dup1\n      0x1f\n      add\n      0x20\n      dup1\n      swap2\n      div\n      mul\n      0x20\n      add\n      mload(0x40)\n      swap1\n      dup2\n      add\n      0x40\n      mstore\n      dup1\n      swap4\n      swap3\n      swap2\n      swap1\n      dup2\n      dup2\n      mstore\n      0x20\n      add\n      dup4\n      dup4\n        /* \"--CODEGEN--\":30:33   */\n      dup1\n        /* \"--CODEGEN--\":22:28   */\n      dup3\n        /* \"--CODEGEN--\":14:20   */\n      dup5\n        /* \"--CODEGEN--\":1:34   */\n      calldatacopy\n        /* \"--CODEGEN--\":99:100   */\n      0x00\n        /* \"--CODEGEN--\":93:96   */\n      dup2\n        /* \"--CODEGEN--\":85:91   */\n      dup5\n        /* \"--CODEGEN--\":81:97   */\n      add\n        /* \"--CODEGEN--\":74:101   */\n      mstore\n        /* \"--CODEGEN--\":137:141   */\n      0x1f\n        /* \"--CODEGEN--\":133:142   */\n      not\n        /* \"--CODEGEN--\":126:130   */\n      0x1f\n        /* \"--CODEGEN--\":121:124   */\n      dup3\n        /* \"--CODEGEN--\":117:131   */\n      add\n        /* \"--CODEGEN--\":113:143   */\n      and\n        /* \"--CODEGEN--\":106:143   */\n      swap1\n      pop\n        /* \"--CODEGEN--\":169:172   */\n      dup1\n        /* \"--CODEGEN--\":161:167   */\n      dup4\n        /* \"--CODEGEN--\":157:173   */\n      add\n        /* \"--CODEGEN--\":147:173   */\n      swap3\n      pop\n        /* \"contracts/ACL.sol\":1328:1368  willPerform(_role, msg.sender, msg.data) */\n      pop\n      pop\n      pop\n      pop\n      pop\n      pop\n        /* \"contracts/ACL.sol\":1328:1339  willPerform */\n      tag_143\n        /* \"contracts/ACL.sol\":1328:1368  willPerform(_role, msg.sender, msg.data) */\n      jump\t// in\n    tag_174:\n        /* \"contracts/ACL.sol\":1320:1382  require(willPerform(_role, msg.sender, msg.data), \"acl: auth\") */\n      tag_175\n      jumpi\n      mload(0x40)\n      0x08c379a000000000000000000000000000000000000000000000000000000000\n      dup2\n      mstore\n      0x04\n      add\n      tag_176\n      swap1\n      jump(tag_146)\n    tag_176:\n      mload(0x40)\n      dup1\n      swap2\n      sub\n      swap1\n      revert\n    tag_175:\n        /* \"contracts/Govern.sol\":3970:3971  0 */\n      0x00\n        /* \"contracts/Govern.sol\":3952:3972  _token == address(0) */\n      0xffffffffffffffffffffffffffffffffffffffff\n      and\n        /* \"contracts/Govern.sol\":3952:3958  _token */\n      dup7\n        /* \"contracts/Govern.sol\":3952:3972  _token == address(0) */\n      0xffffffffffffffffffffffffffffffffffffffff\n      and\n      eq\n        /* \"contracts/Govern.sol\":3948:4207  if (_token == address(0)) {\r... */\n      iszero\n      tag_178\n      jumpi\n        /* \"contracts/Govern.sol\":3990:3997  bool ok */\n      0x00\n        /* \"contracts/Govern.sol\":4003:4006  _to */\n      dup5\n        /* \"contracts/Govern.sol\":4003:4011  _to.call */\n      0xffffffffffffffffffffffffffffffffffffffff\n      and\n        /* \"contracts/Govern.sol\":4019:4026  _amount */\n      dup5\n        /* \"contracts/Govern.sol\":4003:4031  _to.call{value: _amount}(\"\") */\n      mload(0x40)\n      tag_179\n      swap1\n      jump(tag_180)\n    tag_179:\n      0x00\n      mload(0x40)\n      dup1\n      dup4\n      sub\n      dup2\n      dup6\n      dup8\n      gas\n      call\n      swap3\n      pop\n      pop\n      pop\n      returndatasize\n        /* \"--CODEGEN--\":12:13   */\n      dup1\n        /* \"--CODEGEN--\":19:20   */\n      0x00\n        /* \"--CODEGEN--\":14:41   */\n      dup2\n      eq\n      tag_183\n      jumpi\n        /* \"--CODEGEN--\":67:71   */\n      0x40\n        /* \"--CODEGEN--\":61:72   */\n      mload\n        /* \"--CODEGEN--\":56:72   */\n      swap2\n      pop\n        /* \"--CODEGEN--\":134:138   */\n      0x1f\n        /* \"--CODEGEN--\":130:139   */\n      not\n        /* \"--CODEGEN--\":123:127   */\n      0x3f\n        /* \"--CODEGEN--\":105:121   */\n      returndatasize\n        /* \"--CODEGEN--\":101:128   */\n      add\n        /* \"--CODEGEN--\":97:140   */\n      and\n        /* \"--CODEGEN--\":94:95   */\n      dup3\n        /* \"--CODEGEN--\":90:141   */\n      add\n        /* \"--CODEGEN--\":84:88   */\n      0x40\n        /* \"--CODEGEN--\":77:142   */\n      mstore\n        /* \"--CODEGEN--\":157:173   */\n      returndatasize\n        /* \"--CODEGEN--\":154:155   */\n      dup3\n        /* \"--CODEGEN--\":147:174   */\n      mstore\n        /* \"--CODEGEN--\":211:227   */\n      returndatasize\n        /* \"--CODEGEN--\":208:209   */\n      0x00\n        /* \"--CODEGEN--\":201:205   */\n      0x20\n        /* \"--CODEGEN--\":198:199   */\n      dup5\n        /* \"--CODEGEN--\":194:206   */\n      add\n        /* \"--CODEGEN--\":179:228   */\n      returndatacopy\n        /* \"--CODEGEN--\":5:233   */\n      jump(tag_182)\n        /* \"--CODEGEN--\":14:41   */\n    tag_183:\n        /* \"--CODEGEN--\":32:36   */\n      0x60\n        /* \"--CODEGEN--\":27:36   */\n      swap2\n      pop\n        /* \"--CODEGEN--\":5:233   */\n    tag_182:\n      pop\n        /* \"contracts/Govern.sol\":3989:4031  (bool ok, ) = _to.call{value: _amount}(\"\") */\n      pop\n      swap1\n      pop\n        /* \"contracts/Govern.sol\":4054:4056  ok */\n      dup1\n        /* \"contracts/Govern.sol\":4058:4083  ERROR_ETH_WITHDRAW_FAILED */\n      mload(0x40)\n      dup1\n      0x40\n      add\n      0x40\n      mstore\n      dup1\n      0x1a\n      dup2\n      mstore\n      0x20\n      add\n      0x474f5645524e5f4554485f57495448445241575f4641494c4544000000000000\n      dup2\n      mstore\n      pop\n        /* \"contracts/Govern.sol\":4046:4084  require(ok, ERROR_ETH_WITHDRAW_FAILED) */\n      swap1\n      tag_184\n      jumpi\n      mload(0x40)\n      0x08c379a000000000000000000000000000000000000000000000000000000000\n      dup2\n      mstore\n      0x04\n      add\n      tag_185\n      swap2\n      swap1\n      jump(tag_186)\n    tag_185:\n      mload(0x40)\n      dup1\n      swap2\n      sub\n      swap1\n      revert\n    tag_184:\n      pop\n        /* \"contracts/Govern.sol\":3948:4207  if (_token == address(0)) {\r... */\n      pop\n      jump(tag_187)\n    tag_178:\n        /* \"contracts/Govern.sol\":4125:4165  ERC20(_token).safeTransfer(_to, _amount) */\n      tag_188\n        /* \"contracts/Govern.sol\":4152:4155  _to */\n      dup5\n        /* \"contracts/Govern.sol\":4157:4164  _amount */\n      dup5\n        /* \"contracts/Govern.sol\":4131:4137  _token */\n      dup9\n        /* \"contracts/Govern.sol\":4125:4151  ERC20(_token).safeTransfer */\n      0xffffffffffffffffffffffffffffffffffffffff\n      and\n      tag_189\n      swap1\n        /* \"contracts/Govern.sol\":4125:4165  ERC20(_token).safeTransfer(_to, _amount) */\n      swap3\n      swap2\n      swap1\n      0xffffffff\n      and\n      jump\t// in\n    tag_188:\n        /* \"contracts/Govern.sol\":4167:4194  ERROR_TOKEN_WITHDRAW_FAILED */\n      mload(0x40)\n      dup1\n      0x40\n      add\n      0x40\n      mstore\n      dup1\n      0x1c\n      dup2\n      mstore\n      0x20\n      add\n      0x474f5645524e5f544f4b454e5f57495448445241575f4641494c454400000000\n      dup2\n      mstore\n      pop\n        /* \"contracts/Govern.sol\":4117:4195  require(ERC20(_token).safeTransfer(_to, _amount), ERROR_TOKEN_WITHDRAW_FAILED) */\n      swap1\n      tag_190\n      jumpi\n      mload(0x40)\n      0x08c379a000000000000000000000000000000000000000000000000000000000\n      dup2\n      mstore\n      0x04\n      add\n      tag_191\n      swap2\n      swap1\n      jump(tag_186)\n    tag_191:\n      mload(0x40)\n      dup1\n      swap2\n      sub\n      swap1\n      revert\n    tag_190:\n      pop\n        /* \"contracts/Govern.sol\":3948:4207  if (_token == address(0)) {\r... */\n    tag_187:\n        /* \"contracts/Govern.sol\":4240:4243  _to */\n      dup4\n        /* \"contracts/Govern.sol\":4222:4272  Withdrawn(_token, _to, _from, _amount, _reference) */\n      0xffffffffffffffffffffffffffffffffffffffff\n      and\n        /* \"contracts/Govern.sol\":4232:4238  _token */\n      dup7\n        /* \"contracts/Govern.sol\":4222:4272  Withdrawn(_token, _to, _from, _amount, _reference) */\n      0xffffffffffffffffffffffffffffffffffffffff\n      and\n      0x5df3e860d31cd75f1dd308dcef12d36af55f06605b3d6b2c6d23d19cadaf3611\n        /* \"contracts/Govern.sol\":4245:4250  _from */\n      dup8\n        /* \"contracts/Govern.sol\":4252:4259  _amount */\n      dup7\n        /* \"contracts/Govern.sol\":4261:4271  _reference */\n      dup7\n        /* \"contracts/Govern.sol\":4222:4272  Withdrawn(_token, _to, _from, _amount, _reference) */\n      mload(0x40)\n      tag_192\n      swap4\n      swap3\n      swap2\n      swap1\n      jump(tag_193)\n    tag_192:\n      mload(0x40)\n      dup1\n      swap2\n      sub\n      swap1\n      log3\n        /* \"contracts/Govern.sol\":3805:4280  function withdraw(address _token, address _from, address _to, uint256 _amount, string memory _reference) public auth(WITHDRAW_ROLE) {\r... */\n      pop\n      pop\n      pop\n      pop\n      pop\n      pop\n      jump\t// out\n        /* \"contracts/Govern.sol\":5560:5723  function setSignatureValidator(ERC1271 _signatureValidator) external auth(SET_SIGNATURE_VALIDATOR_ROLE) {\r... */\n    tag_60:\n        /* \"contracts/Govern.sol\":1539:1574  this.setSignatureValidator.selector */\n      shl(0xe0, 0x3e2ab0d9)\n        /* \"contracts/ACL.sol\":1328:1368  willPerform(_role, msg.sender, msg.data) */\n      tag_195\n        /* \"contracts/ACL.sol\":1340:1345  _role */\n      dup2\n        /* \"contracts/ACL.sol\":1347:1357  msg.sender */\n      caller\n        /* \"contracts/ACL.sol\":1359:1367  msg.data */\n      0x00\n      calldatasize\n        /* \"contracts/ACL.sol\":1328:1368  willPerform(_role, msg.sender, msg.data) */\n      dup1\n      dup1\n      0x1f\n      add\n      0x20\n      dup1\n      swap2\n      div\n      mul\n      0x20\n      add\n      mload(0x40)\n      swap1\n      dup2\n      add\n      0x40\n      mstore\n      dup1\n      swap4\n      swap3\n      swap2\n      swap1\n      dup2\n      dup2\n      mstore\n      0x20\n      add\n      dup4\n      dup4\n        /* \"--CODEGEN--\":30:33   */\n      dup1\n        /* \"--CODEGEN--\":22:28   */\n      dup3\n        /* \"--CODEGEN--\":14:20   */\n      dup5\n        /* \"--CODEGEN--\":1:34   */\n      calldatacopy\n        /* \"--CODEGEN--\":99:100   */\n      0x00\n        /* \"--CODEGEN--\":93:96   */\n      dup2\n        /* \"--CODEGEN--\":85:91   */\n      dup5\n        /* \"--CODEGEN--\":81:97   */\n      add\n        /* \"--CODEGEN--\":74:101   */\n      mstore\n        /* \"--CODEGEN--\":137:141   */\n      0x1f\n        /* \"--CODEGEN--\":133:142   */\n      not\n        /* \"--CODEGEN--\":126:130   */\n      0x1f\n        /* \"--CODEGEN--\":121:124   */\n      dup3\n        /* \"--CODEGEN--\":117:131   */\n      add\n        /* \"--CODEGEN--\":113:143   */\n      and\n        /* \"--CODEGEN--\":106:143   */\n      swap1\n      pop\n        /* \"--CODEGEN--\":169:172   */\n      dup1\n        /* \"--CODEGEN--\":161:167   */\n      dup4\n        /* \"--CODEGEN--\":157:173   */\n      add\n        /* \"--CODEGEN--\":147:173   */\n      swap3\n      pop\n        /* \"contracts/ACL.sol\":1328:1368  willPerform(_role, msg.sender, msg.data) */\n      pop\n      pop\n      pop\n      pop\n      pop\n      pop\n        /* \"contracts/ACL.sol\":1328:1339  willPerform */\n      tag_143\n        /* \"contracts/ACL.sol\":1328:1368  willPerform(_role, msg.sender, msg.data) */\n      jump\t// in\n    tag_195:\n        /* \"contracts/ACL.sol\":1320:1382  require(willPerform(_role, msg.sender, msg.data), \"acl: auth\") */\n      tag_196\n      jumpi\n      mload(0x40)\n      0x08c379a000000000000000000000000000000000000000000000000000000000\n      dup2\n      mstore\n      0x04\n      add\n      tag_197\n      swap1\n      jump(tag_146)\n    tag_197:\n      mload(0x40)\n      dup1\n      swap2\n      sub\n      swap1\n      revert\n    tag_196:\n        /* \"contracts/Govern.sol\":5696:5715  _signatureValidator */\n      dup2\n        /* \"contracts/Govern.sol\":5675:5693  signatureValidator */\n      0x04\n      0x00\n        /* \"contracts/Govern.sol\":5675:5715  signatureValidator = _signatureValidator */\n      0x0100\n      exp\n      dup2\n      sload\n      dup2\n      0xffffffffffffffffffffffffffffffffffffffff\n      mul\n      not\n      and\n      swap1\n      dup4\n      0xffffffffffffffffffffffffffffffffffffffff\n      and\n      mul\n      or\n      swap1\n      sstore\n      pop\n        /* \"contracts/Govern.sol\":5560:5723  function setSignatureValidator(ERC1271 _signatureValidator) external auth(SET_SIGNATURE_VALIDATOR_ROLE) {\r... */\n      pop\n      pop\n      jump\t// out\n        /* \"contracts/ACL.sol\":3048:3173  function isFrozen(bytes4 _role) public view returns (bool) {\r... */\n    tag_64:\n        /* \"contracts/ACL.sol\":3101:3105  bool */\n      0x00\n        /* \"contracts/ACL.sol\":752:753  1 */\n      0x01\n        /* \"contracts/ACL.sol\":3125:3165  roles[_role][FREEZE_FLAG] == FREEZE_FLAG */\n      0xffffffffffffffffffffffffffffffffffffffff\n      and\n        /* \"contracts/ACL.sol\":3125:3130  roles */\n      0x03\n        /* \"contracts/ACL.sol\":3125:3137  roles[_role] */\n      0x00\n        /* \"contracts/ACL.sol\":3131:3136  _role */\n      dup5\n        /* \"contracts/ACL.sol\":3125:3137  roles[_role] */\n      not(0xffffffffffffffffffffffffffffffffffffffffffffffffffffffff)\n      and\n      not(0xffffffffffffffffffffffffffffffffffffffffffffffffffffffff)\n      and\n      dup2\n      mstore\n      0x20\n      add\n      swap1\n      dup2\n      mstore\n      0x20\n      add\n      0x00\n      keccak256\n        /* \"contracts/ACL.sol\":3125:3150  roles[_role][FREEZE_FLAG] */\n      0x00\n        /* \"contracts/ACL.sol\":752:753  1 */\n      0x01\n        /* \"contracts/ACL.sol\":3125:3150  roles[_role][FREEZE_FLAG] */\n      0xffffffffffffffffffffffffffffffffffffffff\n      and\n      0xffffffffffffffffffffffffffffffffffffffff\n      and\n      dup2\n      mstore\n      0x20\n      add\n      swap1\n      dup2\n      mstore\n      0x20\n      add\n      0x00\n      keccak256\n      0x00\n      swap1\n      sload\n      swap1\n      0x0100\n      exp\n      swap1\n      div\n      0xffffffffffffffffffffffffffffffffffffffff\n      and\n        /* \"contracts/ACL.sol\":3125:3165  roles[_role][FREEZE_FLAG] == FREEZE_FLAG */\n      0xffffffffffffffffffffffffffffffffffffffff\n      and\n      eq\n        /* \"contracts/ACL.sol\":3118:3165  return roles[_role][FREEZE_FLAG] == FREEZE_FLAG */\n      swap1\n      pop\n        /* \"contracts/ACL.sol\":3048:3173  function isFrozen(bytes4 _role) public view returns (bool) {\r... */\n      swap2\n      swap1\n      pop\n      jump\t// out\n        /* \"contracts/ACL.sol\":2107:2215  function revoke(bytes4 _role, address _who) external auth(ROOT_ROLE) {\r... */\n    tag_70:\n        /* \"contracts/ACL.sol\":511:529  this.bulk.selector */\n      shl(0xe0, 0x1c47671b)\n        /* \"contracts/ACL.sol\":479:499  this.freeze.selector */\n      shl(0xe0, 0xbdf9a726)\n        /* \"contracts/ACL.sol\":447:467  this.revoke.selector */\n      shl(0xe0, 0x58849734)\n        /* \"contracts/ACL.sol\":416:435  this.grant.selector */\n      shl(0xe0, 0xa157a10d)\n        /* \"contracts/ACL.sol\":416:467  this.grant.selector\r... */\n      xor\n        /* \"contracts/ACL.sol\":416:499  this.grant.selector\r... */\n      xor\n        /* \"contracts/ACL.sol\":416:529  this.grant.selector\r... */\n      xor\n        /* \"contracts/ACL.sol\":1328:1368  willPerform(_role, msg.sender, msg.data) */\n      tag_201\n        /* \"contracts/ACL.sol\":1340:1345  _role */\n      dup2\n        /* \"contracts/ACL.sol\":1347:1357  msg.sender */\n      caller\n        /* \"contracts/ACL.sol\":1359:1367  msg.data */\n      0x00\n      calldatasize\n        /* \"contracts/ACL.sol\":1328:1368  willPerform(_role, msg.sender, msg.data) */\n      dup1\n      dup1\n      0x1f\n      add\n      0x20\n      dup1\n      swap2\n      div\n      mul\n      0x20\n      add\n      mload(0x40)\n      swap1\n      dup2\n      add\n      0x40\n      mstore\n      dup1\n      swap4\n      swap3\n      swap2\n      swap1\n      dup2\n      dup2\n      mstore\n      0x20\n      add\n      dup4\n      dup4\n        /* \"--CODEGEN--\":30:33   */\n      dup1\n        /* \"--CODEGEN--\":22:28   */\n      dup3\n        /* \"--CODEGEN--\":14:20   */\n      dup5\n        /* \"--CODEGEN--\":1:34   */\n      calldatacopy\n        /* \"--CODEGEN--\":99:100   */\n      0x00\n        /* \"--CODEGEN--\":93:96   */\n      dup2\n        /* \"--CODEGEN--\":85:91   */\n      dup5\n        /* \"--CODEGEN--\":81:97   */\n      add\n        /* \"--CODEGEN--\":74:101   */\n      mstore\n        /* \"--CODEGEN--\":137:141   */\n      0x1f\n        /* \"--CODEGEN--\":133:142   */\n      not\n        /* \"--CODEGEN--\":126:130   */\n      0x1f\n        /* \"--CODEGEN--\":121:124   */\n      dup3\n        /* \"--CODEGEN--\":117:131   */\n      add\n        /* \"--CODEGEN--\":113:143   */\n      and\n        /* \"--CODEGEN--\":106:143   */\n      swap1\n      pop\n        /* \"--CODEGEN--\":169:172   */\n      dup1\n        /* \"--CODEGEN--\":161:167   */\n      dup4\n        /* \"--CODEGEN--\":157:173   */\n      add\n        /* \"--CODEGEN--\":147:173   */\n      swap3\n      pop\n        /* \"contracts/ACL.sol\":1328:1368  willPerform(_role, msg.sender, msg.data) */\n      pop\n      pop\n      pop\n      pop\n      pop\n      pop\n        /* \"contracts/ACL.sol\":1328:1339  willPerform */\n      tag_143\n        /* \"contracts/ACL.sol\":1328:1368  willPerform(_role, msg.sender, msg.data) */\n      jump\t// in\n    tag_201:\n        /* \"contracts/ACL.sol\":1320:1382  require(willPerform(_role, msg.sender, msg.data), \"acl: auth\") */\n      tag_202\n      jumpi\n      mload(0x40)\n      0x08c379a000000000000000000000000000000000000000000000000000000000\n      dup2\n      mstore\n      0x04\n      add\n      tag_203\n      swap1\n      jump(tag_146)\n    tag_203:\n      mload(0x40)\n      dup1\n      swap2\n      sub\n      swap1\n      revert\n    tag_202:\n        /* \"contracts/ACL.sol\":2187:2207  _revoke(_role, _who) */\n      tag_205\n        /* \"contracts/ACL.sol\":2195:2200  _role */\n      dup4\n        /* \"contracts/ACL.sol\":2202:2206  _who */\n      dup4\n        /* \"contracts/ACL.sol\":2187:2194  _revoke */\n      tag_166\n        /* \"contracts/ACL.sol\":2187:2207  _revoke(_role, _who) */\n      jump\t// in\n    tag_205:\n        /* \"contracts/ACL.sol\":2107:2215  function revoke(bytes4 _role, address _who) external auth(ROOT_ROLE) {\r... */\n      pop\n      pop\n      pop\n      jump\t// out\n        /* \"contracts/ACL.sol\":372:529  bytes4 public constant ROOT_ROLE =\r... */\n    tag_73:\n        /* \"contracts/ACL.sol\":511:529  this.bulk.selector */\n      shl(0xe0, 0x1c47671b)\n        /* \"contracts/ACL.sol\":479:499  this.freeze.selector */\n      shl(0xe0, 0xbdf9a726)\n        /* \"contracts/ACL.sol\":447:467  this.revoke.selector */\n      shl(0xe0, 0x58849734)\n        /* \"contracts/ACL.sol\":416:435  this.grant.selector */\n      shl(0xe0, 0xa157a10d)\n        /* \"contracts/ACL.sol\":416:467  this.grant.selector\r... */\n      xor\n        /* \"contracts/ACL.sol\":416:499  this.grant.selector\r... */\n      xor\n        /* \"contracts/ACL.sol\":416:529  this.grant.selector\r... */\n      xor\n        /* \"contracts/ACL.sol\":372:529  bytes4 public constant ROOT_ROLE =\r... */\n      dup2\n      jump\t// out\n        /* \"contracts/ACL.sol\":957:1018  mapping (bytes4 => mapping (address => address)) public roles */\n    tag_78:\n      mstore(0x20, 0x03)\n      dup2\n      0x00\n      mstore\n      mstore(0x20, keccak256(0x00, 0x40))\n      dup1\n      0x00\n      mstore\n      keccak256(0x00, 0x40)\n      0x00\n      swap2\n      pop\n      swap2\n      pop\n      swap1\n      sload\n      swap1\n      0x0100\n      exp\n      swap1\n      div\n      0xffffffffffffffffffffffffffffffffffffffff\n      and\n      dup2\n      jump\t// out\n        /* \"contracts/ACL.sol\":1830:1936  function grant(bytes4 _role, address _who) external auth(ROOT_ROLE) {\r... */\n    tag_84:\n        /* \"contracts/ACL.sol\":511:529  this.bulk.selector */\n      shl(0xe0, 0x1c47671b)\n        /* \"contracts/ACL.sol\":479:499  this.freeze.selector */\n      shl(0xe0, 0xbdf9a726)\n        /* \"contracts/ACL.sol\":447:467  this.revoke.selector */\n      shl(0xe0, 0x58849734)\n        /* \"contracts/ACL.sol\":416:435  this.grant.selector */\n      shl(0xe0, 0xa157a10d)\n        /* \"contracts/ACL.sol\":416:467  this.grant.selector\r... */\n      xor\n        /* \"contracts/ACL.sol\":416:499  this.grant.selector\r... */\n      xor\n        /* \"contracts/ACL.sol\":416:529  this.grant.selector\r... */\n      xor\n        /* \"contracts/ACL.sol\":1328:1368  willPerform(_role, msg.sender, msg.data) */\n      tag_207\n        /* \"contracts/ACL.sol\":1340:1345  _role */\n      dup2\n        /* \"contracts/ACL.sol\":1347:1357  msg.sender */\n      caller\n        /* \"contracts/ACL.sol\":1359:1367  msg.data */\n      0x00\n      calldatasize\n        /* \"contracts/ACL.sol\":1328:1368  willPerform(_role, msg.sender, msg.data) */\n      dup1\n      dup1\n      0x1f\n      add\n      0x20\n      dup1\n      swap2\n      div\n      mul\n      0x20\n      add\n      mload(0x40)\n      swap1\n      dup2\n      add\n      0x40\n      mstore\n      dup1\n      swap4\n      swap3\n      swap2\n      swap1\n      dup2\n      dup2\n      mstore\n      0x20\n      add\n      dup4\n      dup4\n        /* \"--CODEGEN--\":30:33   */\n      dup1\n        /* \"--CODEGEN--\":22:28   */\n      dup3\n        /* \"--CODEGEN--\":14:20   */\n      dup5\n        /* \"--CODEGEN--\":1:34   */\n      calldatacopy\n        /* \"--CODEGEN--\":99:100   */\n      0x00\n        /* \"--CODEGEN--\":93:96   */\n      dup2\n        /* \"--CODEGEN--\":85:91   */\n      dup5\n        /* \"--CODEGEN--\":81:97   */\n      add\n        /* \"--CODEGEN--\":74:101   */\n      mstore\n        /* \"--CODEGEN--\":137:141   */\n      0x1f\n        /* \"--CODEGEN--\":133:142   */\n      not\n        /* \"--CODEGEN--\":126:130   */\n      0x1f\n        /* \"--CODEGEN--\":121:124   */\n      dup3\n        /* \"--CODEGEN--\":117:131   */\n      add\n        /* \"--CODEGEN--\":113:143   */\n      and\n        /* \"--CODEGEN--\":106:143   */\n      swap1\n      pop\n        /* \"--CODEGEN--\":169:172   */\n      dup1\n        /* \"--CODEGEN--\":161:167   */\n      dup4\n        /* \"--CODEGEN--\":157:173   */\n      add\n        /* \"--CODEGEN--\":147:173   */\n      swap3\n      pop\n        /* \"contracts/ACL.sol\":1328:1368  willPerform(_role, msg.sender, msg.data) */\n      pop\n      pop\n      pop\n      pop\n      pop\n      pop\n        /* \"contracts/ACL.sol\":1328:1339  willPerform */\n      tag_143\n        /* \"contracts/ACL.sol\":1328:1368  willPerform(_role, msg.sender, msg.data) */\n      jump\t// in\n    tag_207:\n        /* \"contracts/ACL.sol\":1320:1382  require(willPerform(_role, msg.sender, msg.data), \"acl: auth\") */\n      tag_208\n      jumpi\n      mload(0x40)\n      0x08c379a000000000000000000000000000000000000000000000000000000000\n      dup2\n      mstore\n      0x04\n      add\n      tag_209\n      swap1\n      jump(tag_146)\n    tag_209:\n      mload(0x40)\n      dup1\n      swap2\n      sub\n      swap1\n      revert\n    tag_208:\n        /* \"contracts/ACL.sol\":1909:1928  _grant(_role, _who) */\n      tag_211\n        /* \"contracts/ACL.sol\":1916:1921  _role */\n      dup4\n        /* \"contracts/ACL.sol\":1923:1927  _who */\n      dup4\n        /* \"contracts/ACL.sol\":1909:1915  _grant */\n      tag_160\n        /* \"contracts/ACL.sol\":1909:1928  _grant(_role, _who) */\n      jump\t// in\n    tag_211:\n        /* \"contracts/ACL.sol\":1830:1936  function grant(bytes4 _role, address _who) external auth(ROOT_ROLE) {\r... */\n      pop\n      pop\n      pop\n      jump\t// out\n        /* \"contracts/ACL.sol\":1944:2099  function grantWithOracle(bytes4 _role, address _who, IACLOracle _oracle) external auth(ROOT_ROLE) {\r... */\n    tag_89:\n        /* \"contracts/ACL.sol\":511:529  this.bulk.selector */\n      shl(0xe0, 0x1c47671b)\n        /* \"contracts/ACL.sol\":479:499  this.freeze.selector */\n      shl(0xe0, 0xbdf9a726)\n        /* \"contracts/ACL.sol\":447:467  this.revoke.selector */\n      shl(0xe0, 0x58849734)\n        /* \"contracts/ACL.sol\":416:435  this.grant.selector */\n      shl(0xe0, 0xa157a10d)\n        /* \"contracts/ACL.sol\":416:467  this.grant.selector\r... */\n      xor\n        /* \"contracts/ACL.sol\":416:499  this.grant.selector\r... */\n      xor\n        /* \"contracts/ACL.sol\":416:529  this.grant.selector\r... */\n      xor\n        /* \"contracts/ACL.sol\":1328:1368  willPerform(_role, msg.sender, msg.data) */\n      tag_213\n        /* \"contracts/ACL.sol\":1340:1345  _role */\n      dup2\n        /* \"contracts/ACL.sol\":1347:1357  msg.sender */\n      caller\n        /* \"contracts/ACL.sol\":1359:1367  msg.data */\n      0x00\n      calldatasize\n        /* \"contracts/ACL.sol\":1328:1368  willPerform(_role, msg.sender, msg.data) */\n      dup1\n      dup1\n      0x1f\n      add\n      0x20\n      dup1\n      swap2\n      div\n      mul\n      0x20\n      add\n      mload(0x40)\n      swap1\n      dup2\n      add\n      0x40\n      mstore\n      dup1\n      swap4\n      swap3\n      swap2\n      swap1\n      dup2\n      dup2\n      mstore\n      0x20\n      add\n      dup4\n      dup4\n        /* \"--CODEGEN--\":30:33   */\n      dup1\n        /* \"--CODEGEN--\":22:28   */\n      dup3\n        /* \"--CODEGEN--\":14:20   */\n      dup5\n        /* \"--CODEGEN--\":1:34   */\n      calldatacopy\n        /* \"--CODEGEN--\":99:100   */\n      0x00\n        /* \"--CODEGEN--\":93:96   */\n      dup2\n        /* \"--CODEGEN--\":85:91   */\n      dup5\n        /* \"--CODEGEN--\":81:97   */\n      add\n        /* \"--CODEGEN--\":74:101   */\n      mstore\n        /* \"--CODEGEN--\":137:141   */\n      0x1f\n        /* \"--CODEGEN--\":133:142   */\n      not\n        /* \"--CODEGEN--\":126:130   */\n      0x1f\n        /* \"--CODEGEN--\":121:124   */\n      dup3\n        /* \"--CODEGEN--\":117:131   */\n      add\n        /* \"--CODEGEN--\":113:143   */\n      and\n        /* \"--CODEGEN--\":106:143   */\n      swap1\n      pop\n        /* \"--CODEGEN--\":169:172   */\n      dup1\n        /* \"--CODEGEN--\":161:167   */\n      dup4\n        /* \"--CODEGEN--\":157:173   */\n      add\n        /* \"--CODEGEN--\":147:173   */\n      swap3\n      pop\n        /* \"contracts/ACL.sol\":1328:1368  willPerform(_role, msg.sender, msg.data) */\n      pop\n      pop\n      pop\n      pop\n      pop\n      pop\n        /* \"contracts/ACL.sol\":1328:1339  willPerform */\n      tag_143\n        /* \"contracts/ACL.sol\":1328:1368  willPerform(_role, msg.sender, msg.data) */\n      jump\t// in\n    tag_213:\n        /* \"contracts/ACL.sol\":1320:1382  require(willPerform(_role, msg.sender, msg.data), \"acl: auth\") */\n      tag_214\n      jumpi\n      mload(0x40)\n      0x08c379a000000000000000000000000000000000000000000000000000000000\n      dup2\n      mstore\n      0x04\n      add\n      tag_215\n      swap1\n      jump(tag_146)\n    tag_215:\n      mload(0x40)\n      dup1\n      swap2\n      sub\n      swap1\n      revert\n    tag_214:\n        /* \"contracts/ACL.sol\":2053:2091  _grantWithOracle(_role, _who, _oracle) */\n      tag_217\n        /* \"contracts/ACL.sol\":2070:2075  _role */\n      dup5\n        /* \"contracts/ACL.sol\":2077:2081  _who */\n      dup5\n        /* \"contracts/ACL.sol\":2083:2090  _oracle */\n      dup5\n        /* \"contracts/ACL.sol\":2053:2069  _grantWithOracle */\n      tag_218\n        /* \"contracts/ACL.sol\":2053:2091  _grantWithOracle(_role, _who, _oracle) */\n      jump\t// in\n    tag_217:\n        /* \"contracts/ACL.sol\":1944:2099  function grantWithOracle(bytes4 _role, address _who, IACLOracle _oracle) external auth(ROOT_ROLE) {\r... */\n      pop\n      pop\n      pop\n      pop\n      jump\t// out\n        /* \"contracts/Govern.sol\":5325:5552  function registerStandardAndCallback(bytes4 _interfaceId, bytes4 _callbackSig, bytes4 _magicNumber) external auth(REGISTER_STANDARD_ROLE) {\r... */\n    tag_94:\n        /* \"contracts/Govern.sol\":1435:1476  this.registerStandardAndCallback.selector */\n      shl(0xe0, 0xa43e2533)\n        /* \"contracts/ACL.sol\":1328:1368  willPerform(_role, msg.sender, msg.data) */\n      tag_220\n        /* \"contracts/ACL.sol\":1340:1345  _role */\n      dup2\n        /* \"contracts/ACL.sol\":1347:1357  msg.sender */\n      caller\n        /* \"contracts/ACL.sol\":1359:1367  msg.data */\n      0x00\n      calldatasize\n        /* \"contracts/ACL.sol\":1328:1368  willPerform(_role, msg.sender, msg.data) */\n      dup1\n      dup1\n      0x1f\n      add\n      0x20\n      dup1\n      swap2\n      div\n      mul\n      0x20\n      add\n      mload(0x40)\n      swap1\n      dup2\n      add\n      0x40\n      mstore\n      dup1\n      swap4\n      swap3\n      swap2\n      swap1\n      dup2\n      dup2\n      mstore\n      0x20\n      add\n      dup4\n      dup4\n        /* \"--CODEGEN--\":30:33   */\n      dup1\n        /* \"--CODEGEN--\":22:28   */\n      dup3\n        /* \"--CODEGEN--\":14:20   */\n      dup5\n        /* \"--CODEGEN--\":1:34   */\n      calldatacopy\n        /* \"--CODEGEN--\":99:100   */\n      0x00\n        /* \"--CODEGEN--\":93:96   */\n      dup2\n        /* \"--CODEGEN--\":85:91   */\n      dup5\n        /* \"--CODEGEN--\":81:97   */\n      add\n        /* \"--CODEGEN--\":74:101   */\n      mstore\n        /* \"--CODEGEN--\":137:141   */\n      0x1f\n        /* \"--CODEGEN--\":133:142   */\n      not\n        /* \"--CODEGEN--\":126:130   */\n      0x1f\n        /* \"--CODEGEN--\":121:124   */\n      dup3\n        /* \"--CODEGEN--\":117:131   */\n      add\n        /* \"--CODEGEN--\":113:143   */\n      and\n        /* \"--CODEGEN--\":106:143   */\n      swap1\n      pop\n        /* \"--CODEGEN--\":169:172   */\n      dup1\n        /* \"--CODEGEN--\":161:167   */\n      dup4\n        /* \"--CODEGEN--\":157:173   */\n      add\n        /* \"--CODEGEN--\":147:173   */\n      swap3\n      pop\n        /* \"contracts/ACL.sol\":1328:1368  willPerform(_role, msg.sender, msg.data) */\n      pop\n      pop\n      pop\n      pop\n      pop\n      pop\n        /* \"contracts/ACL.sol\":1328:1339  willPerform */\n      tag_143\n        /* \"contracts/ACL.sol\":1328:1368  willPerform(_role, msg.sender, msg.data) */\n      jump\t// in\n    tag_220:\n        /* \"contracts/ACL.sol\":1320:1382  require(willPerform(_role, msg.sender, msg.data), \"acl: auth\") */\n      tag_221\n      jumpi\n      mload(0x40)\n      0x08c379a000000000000000000000000000000000000000000000000000000000\n      dup2\n      mstore\n      0x04\n      add\n      tag_222\n      swap1\n      jump(tag_146)\n    tag_222:\n      mload(0x40)\n      dup1\n      swap2\n      sub\n      swap1\n      revert\n    tag_221:\n        /* \"contracts/Govern.sol\":5474:5544  _registerStandardAndCallback(_interfaceId, _callbackSig, _magicNumber) */\n      tag_224\n        /* \"contracts/Govern.sol\":5503:5515  _interfaceId */\n      dup5\n        /* \"contracts/Govern.sol\":5517:5529  _callbackSig */\n      dup5\n        /* \"contracts/Govern.sol\":5531:5543  _magicNumber */\n      dup5\n        /* \"contracts/Govern.sol\":5474:5502  _registerStandardAndCallback */\n      tag_225\n        /* \"contracts/Govern.sol\":5474:5544  _registerStandardAndCallback(_interfaceId, _callbackSig, _magicNumber) */\n      jump\t// in\n    tag_224:\n        /* \"contracts/Govern.sol\":5325:5552  function registerStandardAndCallback(bytes4 _interfaceId, bytes4 _callbackSig, bytes4 _magicNumber) external auth(REGISTER_STANDARD_ROLE) {\r... */\n      pop\n      pop\n      pop\n      pop\n      jump\t// out\n        /* \"contracts/ACL.sol\":2223:2311  function freeze(bytes4 _role) external auth(ROOT_ROLE) {\r... */\n    tag_98:\n        /* \"contracts/ACL.sol\":511:529  this.bulk.selector */\n      shl(0xe0, 0x1c47671b)\n        /* \"contracts/ACL.sol\":479:499  this.freeze.selector */\n      shl(0xe0, 0xbdf9a726)\n        /* \"contracts/ACL.sol\":447:467  this.revoke.selector */\n      shl(0xe0, 0x58849734)\n        /* \"contracts/ACL.sol\":416:435  this.grant.selector */\n      shl(0xe0, 0xa157a10d)\n        /* \"contracts/ACL.sol\":416:467  this.grant.selector\r... */\n      xor\n        /* \"contracts/ACL.sol\":416:499  this.grant.selector\r... */\n      xor\n        /* \"contracts/ACL.sol\":416:529  this.grant.selector\r... */\n      xor\n        /* \"contracts/ACL.sol\":1328:1368  willPerform(_role, msg.sender, msg.data) */\n      tag_227\n        /* \"contracts/ACL.sol\":1340:1345  _role */\n      dup2\n        /* \"contracts/ACL.sol\":1347:1357  msg.sender */\n      caller\n        /* \"contracts/ACL.sol\":1359:1367  msg.data */\n      0x00\n      calldatasize\n        /* \"contracts/ACL.sol\":1328:1368  willPerform(_role, msg.sender, msg.data) */\n      dup1\n      dup1\n      0x1f\n      add\n      0x20\n      dup1\n      swap2\n      div\n      mul\n      0x20\n      add\n      mload(0x40)\n      swap1\n      dup2\n      add\n      0x40\n      mstore\n      dup1\n      swap4\n      swap3\n      swap2\n      swap1\n      dup2\n      dup2\n      mstore\n      0x20\n      add\n      dup4\n      dup4\n        /* \"--CODEGEN--\":30:33   */\n      dup1\n        /* \"--CODEGEN--\":22:28   */\n      dup3\n        /* \"--CODEGEN--\":14:20   */\n      dup5\n        /* \"--CODEGEN--\":1:34   */\n      calldatacopy\n        /* \"--CODEGEN--\":99:100   */\n      0x00\n        /* \"--CODEGEN--\":93:96   */\n      dup2\n        /* \"--CODEGEN--\":85:91   */\n      dup5\n        /* \"--CODEGEN--\":81:97   */\n      add\n        /* \"--CODEGEN--\":74:101   */\n      mstore\n        /* \"--CODEGEN--\":137:141   */\n      0x1f\n        /* \"--CODEGEN--\":133:142   */\n      not\n        /* \"--CODEGEN--\":126:130   */\n      0x1f\n        /* \"--CODEGEN--\":121:124   */\n      dup3\n        /* \"--CODEGEN--\":117:131   */\n      add\n        /* \"--CODEGEN--\":113:143   */\n      and\n        /* \"--CODEGEN--\":106:143   */\n      swap1\n      pop\n        /* \"--CODEGEN--\":169:172   */\n      dup1\n        /* \"--CODEGEN--\":161:167   */\n      dup4\n        /* \"--CODEGEN--\":157:173   */\n      add\n        /* \"--CODEGEN--\":147:173   */\n      swap3\n      pop\n        /* \"contracts/ACL.sol\":1328:1368  willPerform(_role, msg.sender, msg.data) */\n      pop\n      pop\n      pop\n      pop\n      pop\n      pop\n        /* \"contracts/ACL.sol\":1328:1339  willPerform */\n      tag_143\n        /* \"contracts/ACL.sol\":1328:1368  willPerform(_role, msg.sender, msg.data) */\n      jump\t// in\n    tag_227:\n        /* \"contracts/ACL.sol\":1320:1382  require(willPerform(_role, msg.sender, msg.data), \"acl: auth\") */\n      tag_228\n      jumpi\n      mload(0x40)\n      0x08c379a000000000000000000000000000000000000000000000000000000000\n      dup2\n      mstore\n      0x04\n      add\n      tag_229\n      swap1\n      jump(tag_146)\n    tag_229:\n      mload(0x40)\n      dup1\n      swap2\n      sub\n      swap1\n      revert\n    tag_228:\n        /* \"contracts/ACL.sol\":2289:2303  _freeze(_role) */\n      tag_231\n        /* \"contracts/ACL.sol\":2297:2302  _role */\n      dup3\n        /* \"contracts/ACL.sol\":2289:2296  _freeze */\n      tag_172\n        /* \"contracts/ACL.sol\":2289:2303  _freeze(_role) */\n      jump\t// in\n    tag_231:\n        /* \"contracts/ACL.sol\":2223:2311  function freeze(bytes4 _role) external auth(ROOT_ROLE) {\r... */\n      pop\n      pop\n      jump\t// out\n        /* \"contracts/Govern.sol\":3236:3797  function deposit(address _token, uint256 _amount, string calldata _reference) external payable {\r... */\n    tag_102:\n        /* \"contracts/Govern.sol\":3360:3361  0 */\n      0x00\n        /* \"contracts/Govern.sol\":3350:3357  _amount */\n      dup4\n        /* \"contracts/Govern.sol\":3350:3361  _amount > 0 */\n      gt\n        /* \"contracts/Govern.sol\":3363:3388  ERROR_DEPOSIT_AMOUNT_ZERO */\n      mload(0x40)\n      dup1\n      0x40\n      add\n      0x40\n      mstore\n      dup1\n      0x1a\n      dup2\n      mstore\n      0x20\n      add\n      0x474f5645524e5f4445504f5349545f414d4f554e545f5a45524f000000000000\n      dup2\n      mstore\n      pop\n        /* \"contracts/Govern.sol\":3342:3389  require(_amount > 0, ERROR_DEPOSIT_AMOUNT_ZERO) */\n      swap1\n      tag_233\n      jumpi\n      mload(0x40)\n      0x08c379a000000000000000000000000000000000000000000000000000000000\n      dup2\n      mstore\n      0x04\n      add\n      tag_234\n      swap2\n      swap1\n      jump(tag_186)\n    tag_234:\n      mload(0x40)\n      dup1\n      swap2\n      sub\n      swap1\n      revert\n    tag_233:\n      pop\n        /* \"contracts/Govern.sol\":3424:3425  0 */\n      0x00\n        /* \"contracts/Govern.sol\":3406:3426  _token == address(0) */\n      0xffffffffffffffffffffffffffffffffffffffff\n      and\n        /* \"contracts/Govern.sol\":3406:3412  _token */\n      dup5\n        /* \"contracts/Govern.sol\":3406:3426  _token == address(0) */\n      0xffffffffffffffffffffffffffffffffffffffff\n      and\n      eq\n        /* \"contracts/Govern.sol\":3402:3724  if (_token == address(0)) {\r... */\n      iszero\n      tag_235\n      jumpi\n        /* \"contracts/Govern.sol\":3464:3471  _amount */\n      dup3\n        /* \"contracts/Govern.sol\":3451:3460  msg.value */\n      callvalue\n        /* \"contracts/Govern.sol\":3451:3471  msg.value == _amount */\n      eq\n        /* \"contracts/Govern.sol\":3473:3506  ERROR_ETH_DEPOSIT_AMOUNT_MISMATCH */\n      mload(0x40)\n      dup1\n      0x60\n      add\n      0x40\n      mstore\n      dup1\n      0x22\n      dup2\n      mstore\n      0x20\n      add\n      data_1d56a8bdb882be69c05a8118616dff1e2d7c8c28bf4a37f00208781f18c64c7d\n      0x22\n      swap2\n      codecopy\n        /* \"contracts/Govern.sol\":3443:3507  require(msg.value == _amount, ERROR_ETH_DEPOSIT_AMOUNT_MISMATCH) */\n      swap1\n      tag_236\n      jumpi\n      mload(0x40)\n      0x08c379a000000000000000000000000000000000000000000000000000000000\n      dup2\n      mstore\n      0x04\n      add\n      tag_237\n      swap2\n      swap1\n      jump(tag_186)\n    tag_237:\n      mload(0x40)\n      dup1\n      swap2\n      sub\n      swap1\n      revert\n    tag_236:\n      pop\n        /* \"contracts/Govern.sol\":3402:3724  if (_token == address(0)) {\r... */\n      jump(tag_238)\n    tag_235:\n        /* \"contracts/Govern.sol\":3548:3567  _token.isContract() */\n      tag_239\n        /* \"contracts/Govern.sol\":3548:3554  _token */\n      dup5\n        /* \"contracts/Govern.sol\":3548:3565  _token.isContract */\n      0xffffffffffffffffffffffffffffffffffffffff\n      and\n      tag_240\n        /* \"contracts/Govern.sol\":3548:3567  _token.isContract() */\n      jump\t// in\n    tag_239:\n        /* \"contracts/Govern.sol\":3569:3593  ERROR_TOKEN_NOT_CONTRACT */\n      mload(0x40)\n      dup1\n      0x40\n      add\n      0x40\n      mstore\n      dup1\n      0x19\n      dup2\n      mstore\n      0x20\n      add\n      0x474f5645524e5f544f4b454e5f4e4f545f434f4e545241435400000000000000\n      dup2\n      mstore\n      pop\n        /* \"contracts/Govern.sol\":3540:3594  require(_token.isContract(), ERROR_TOKEN_NOT_CONTRACT) */\n      swap1\n      tag_241\n      jumpi\n      mload(0x40)\n      0x08c379a000000000000000000000000000000000000000000000000000000000\n      dup2\n      mstore\n      0x04\n      add\n      tag_242\n      swap2\n      swap1\n      jump(tag_186)\n    tag_242:\n      mload(0x40)\n      dup1\n      swap2\n      sub\n      swap1\n      revert\n    tag_241:\n      pop\n        /* \"contracts/Govern.sol\":3617:3683  ERC20(_token).safeTransferFrom(msg.sender, address(this), _amount) */\n      tag_243\n        /* \"contracts/Govern.sol\":3648:3658  msg.sender */\n      caller\n        /* \"contracts/Govern.sol\":3668:3672  this */\n      address\n        /* \"contracts/Govern.sol\":3675:3682  _amount */\n      dup6\n        /* \"contracts/Govern.sol\":3623:3629  _token */\n      dup8\n        /* \"contracts/Govern.sol\":3617:3647  ERC20(_token).safeTransferFrom */\n      0xffffffffffffffffffffffffffffffffffffffff\n      and\n      tag_244\n      swap1\n        /* \"contracts/Govern.sol\":3617:3683  ERC20(_token).safeTransferFrom(msg.sender, address(this), _amount) */\n      swap4\n      swap3\n      swap2\n      swap1\n      0xffffffff\n      and\n      jump\t// in\n    tag_243:\n        /* \"contracts/Govern.sol\":3685:3711  ERROR_TOKEN_DEPOSIT_FAILED */\n      mload(0x40)\n      dup1\n      0x40\n      add\n      0x40\n      mstore\n      dup1\n      0x1b\n      dup2\n      mstore\n      0x20\n      add\n      0x474f5645524e5f544f4b454e5f4445504f5349545f4641494c45440000000000\n      dup2\n      mstore\n      pop\n        /* \"contracts/Govern.sol\":3609:3712  require(ERC20(_token).safeTransferFrom(msg.sender, address(this), _amount), ERROR_TOKEN_DEPOSIT_FAILED) */\n      swap1\n      tag_245\n      jumpi\n      mload(0x40)\n      0x08c379a000000000000000000000000000000000000000000000000000000000\n      dup2\n      mstore\n      0x04\n      add\n      tag_246\n      swap2\n      swap1\n      jump(tag_186)\n    tag_246:\n      mload(0x40)\n      dup1\n      swap2\n      sub\n      swap1\n      revert\n    tag_245:\n      pop\n        /* \"contracts/Govern.sol\":3402:3724  if (_token == address(0)) {\r... */\n    tag_238:\n        /* \"contracts/Govern.sol\":3761:3767  _token */\n      dup4\n        /* \"contracts/Govern.sol\":3739:3789  Deposited(msg.sender, _token, _amount, _reference) */\n      0xffffffffffffffffffffffffffffffffffffffff\n      and\n        /* \"contracts/Govern.sol\":3749:3759  msg.sender */\n      caller\n        /* \"contracts/Govern.sol\":3739:3789  Deposited(msg.sender, _token, _amount, _reference) */\n      0xffffffffffffffffffffffffffffffffffffffff\n      and\n      0x2bc500cf071be2d1c1458ed6ff484cd4db4345ada8943dee7ff29e7af3558f76\n        /* \"contracts/Govern.sol\":3769:3776  _amount */\n      dup6\n        /* \"contracts/Govern.sol\":3778:3788  _reference */\n      dup6\n      dup6\n        /* \"contracts/Govern.sol\":3739:3789  Deposited(msg.sender, _token, _amount, _reference) */\n      mload(0x40)\n      tag_247\n      swap4\n      swap3\n      swap2\n      swap1\n      jump(tag_248)\n    tag_247:\n      mload(0x40)\n      dup1\n      swap2\n      sub\n      swap1\n      log3\n        /* \"contracts/Govern.sol\":3236:3797  function deposit(address _token, uint256 _amount, string calldata _reference) external payable {\r... */\n      pop\n      pop\n      pop\n      pop\n      jump\t// out\n        /* \"contracts/Govern.sol\":4288:5317  function exec(ERC3000Data.Action[] memory actions, bytes32 allowFailuresMap, bytes32 memo) override public auth(EXEC_ROLE) returns (bytes32, bytes[] memory) {\r... */\n    tag_107:\n        /* \"contracts/Govern.sol\":4420:4427  bytes32 */\n      0x00\n        /* \"contracts/Govern.sol\":4429:4443  bytes[] memory */\n      0x60\n        /* \"contracts/Govern.sol\":1288:1306  this.exec.selector */\n      shl(0xe0, 0xc2d85afc)\n        /* \"contracts/ACL.sol\":1328:1368  willPerform(_role, msg.sender, msg.data) */\n      tag_250\n        /* \"contracts/ACL.sol\":1340:1345  _role */\n      dup2\n        /* \"contracts/ACL.sol\":1347:1357  msg.sender */\n      caller\n        /* \"contracts/ACL.sol\":1359:1367  msg.data */\n      0x00\n      calldatasize\n        /* \"contracts/ACL.sol\":1328:1368  willPerform(_role, msg.sender, msg.data) */\n      dup1\n      dup1\n      0x1f\n      add\n      0x20\n      dup1\n      swap2\n      div\n      mul\n      0x20\n      add\n      mload(0x40)\n      swap1\n      dup2\n      add\n      0x40\n      mstore\n      dup1\n      swap4\n      swap3\n      swap2\n      swap1\n      dup2\n      dup2\n      mstore\n      0x20\n      add\n      dup4\n      dup4\n        /* \"--CODEGEN--\":30:33   */\n      dup1\n        /* \"--CODEGEN--\":22:28   */\n      dup3\n        /* \"--CODEGEN--\":14:20   */\n      dup5\n        /* \"--CODEGEN--\":1:34   */\n      calldatacopy\n        /* \"--CODEGEN--\":99:100   */\n      0x00\n        /* \"--CODEGEN--\":93:96   */\n      dup2\n        /* \"--CODEGEN--\":85:91   */\n      dup5\n        /* \"--CODEGEN--\":81:97   */\n      add\n        /* \"--CODEGEN--\":74:101   */\n      mstore\n        /* \"--CODEGEN--\":137:141   */\n      0x1f\n        /* \"--CODEGEN--\":133:142   */\n      not\n        /* \"--CODEGEN--\":126:130   */\n      0x1f\n        /* \"--CODEGEN--\":121:124   */\n      dup3\n        /* \"--CODEGEN--\":117:131   */\n      add\n        /* \"--CODEGEN--\":113:143   */\n      and\n        /* \"--CODEGEN--\":106:143   */\n      swap1\n      pop\n        /* \"--CODEGEN--\":169:172   */\n      dup1\n        /* \"--CODEGEN--\":161:167   */\n      dup4\n        /* \"--CODEGEN--\":157:173   */\n      add\n        /* \"--CODEGEN--\":147:173   */\n      swap3\n      pop\n        /* \"contracts/ACL.sol\":1328:1368  willPerform(_role, msg.sender, msg.data) */\n      pop\n      pop\n      pop\n      pop\n      pop\n      pop\n        /* \"contracts/ACL.sol\":1328:1339  willPerform */\n      tag_143\n        /* \"contracts/ACL.sol\":1328:1368  willPerform(_role, msg.sender, msg.data) */\n      jump\t// in\n    tag_250:\n        /* \"contracts/ACL.sol\":1320:1382  require(willPerform(_role, msg.sender, msg.data), \"acl: auth\") */\n      tag_251\n      jumpi\n      mload(0x40)\n      0x08c379a000000000000000000000000000000000000000000000000000000000\n      dup2\n      mstore\n      0x04\n      add\n      tag_252\n      swap1\n      jump(tag_146)\n    tag_252:\n      mload(0x40)\n      dup1\n      swap2\n      sub\n      swap1\n      revert\n    tag_251:\n        /* \"contracts/Govern.sol\":1621:1624  256 */\n      0x0100\n        /* \"contracts/Govern.sol\":4464:4471  actions */\n      dup7\n        /* \"contracts/Govern.sol\":4464:4478  actions.length */\n      mload\n        /* \"contracts/Govern.sol\":4464:4493  actions.length <= MAX_ACTIONS */\n      gt\n      iszero\n        /* \"contracts/Govern.sol\":4495:4517  ERROR_TOO_MANY_ACTIONS */\n      mload(0x40)\n      dup1\n      0x40\n      add\n      0x40\n      mstore\n      dup1\n      0x17\n      dup2\n      mstore\n      0x20\n      add\n      0x474f5645524e5f544f4f5f4d414e595f414354494f4e53000000000000000000\n      dup2\n      mstore\n      pop\n        /* \"contracts/Govern.sol\":4456:4518  require(actions.length <= MAX_ACTIONS, ERROR_TOO_MANY_ACTIONS) */\n      swap1\n      tag_254\n      jumpi\n      mload(0x40)\n      0x08c379a000000000000000000000000000000000000000000000000000000000\n      dup2\n      mstore\n      0x04\n      add\n      tag_255\n      swap2\n      swap1\n      jump(tag_186)\n    tag_255:\n      mload(0x40)\n      dup1\n      swap2\n      sub\n      swap1\n      revert\n    tag_254:\n      pop\n        /* \"contracts/Govern.sol\":4577:4603  bytes[] memory execResults */\n      0x60\n        /* \"contracts/Govern.sol\":4618:4625  actions */\n      dup7\n        /* \"contracts/Govern.sol\":4618:4632  actions.length */\n      mload\n        /* \"contracts/Govern.sol\":4606:4633  new bytes[](actions.length) */\n      0xffffffffffffffff\n      dup2\n      gt\n        /* \"--CODEGEN--\":5:14   */\n      dup1\n        /* \"--CODEGEN--\":2:4   */\n      iszero\n      tag_256\n      jumpi\n        /* \"--CODEGEN--\":27:28   */\n      0x00\n        /* \"--CODEGEN--\":24:25   */\n      dup1\n        /* \"--CODEGEN--\":17:29   */\n      revert\n        /* \"--CODEGEN--\":2:4   */\n    tag_256:\n        /* \"contracts/Govern.sol\":4606:4633  new bytes[](actions.length) */\n      pop\n      mload(0x40)\n      swap1\n      dup1\n      dup3\n      mstore\n      dup1\n      0x20\n      mul\n      0x20\n      add\n      dup3\n      add\n      0x40\n      mstore\n      dup1\n      iszero\n      tag_257\n      jumpi\n      dup2\n      0x20\n      add\n    tag_258:\n      0x60\n      dup2\n      mstore\n      0x20\n      add\n      swap1\n      0x01\n      swap1\n      sub\n      swap1\n      dup2\n      tag_258\n      jumpi\n      swap1\n      pop\n    tag_257:\n      pop\n        /* \"contracts/Govern.sol\":4577:4633  bytes[] memory execResults = new bytes[](actions.length) */\n      swap1\n      pop\n        /* \"contracts/Govern.sol\":4644:4662  bytes32 failureMap */\n      0x00\n        /* \"contracts/BitmapLib.sol\":141:142  0 */\n      dup1\n        /* \"contracts/BitmapLib.sol\":133:143  bytes32(0) */\n      0x00\n      shl\n        /* \"contracts/Govern.sol\":4644:4680  bytes32 failureMap = BitmapLib.empty */\n      swap1\n      pop\n        /* \"contracts/Govern.sol\":4728:4737  uint256 i */\n      0x00\n        /* \"contracts/Govern.sol\":4740:4741  0 */\n      dup1\n        /* \"contracts/Govern.sol\":4728:4741  uint256 i = 0 */\n      swap1\n      pop\n        /* \"contracts/Govern.sol\":4723:5187  for (uint256 i = 0; i < actions.length; i++) {\r... */\n    tag_259:\n        /* \"contracts/Govern.sol\":4747:4754  actions */\n      dup9\n        /* \"contracts/Govern.sol\":4747:4761  actions.length */\n      mload\n        /* \"contracts/Govern.sol\":4743:4744  i */\n      dup2\n        /* \"contracts/Govern.sol\":4743:4761  i < actions.length */\n      lt\n        /* \"contracts/Govern.sol\":4723:5187  for (uint256 i = 0; i < actions.length; i++) {\r... */\n      iszero\n      tag_260\n      jumpi\n        /* \"contracts/Govern.sol\":4829:4836  bool ok */\n      0x00\n        /* \"contracts/Govern.sol\":4838:4854  bytes memory ret */\n      0x60\n        /* \"contracts/Govern.sol\":4858:4865  actions */\n      dup11\n        /* \"contracts/Govern.sol\":4866:4867  i */\n      dup4\n        /* \"contracts/Govern.sol\":4858:4868  actions[i] */\n      dup2\n      mload\n      dup2\n      lt\n      tag_262\n      jumpi\n      invalid\n    tag_262:\n      0x20\n      mul\n      0x20\n      add\n      add\n      mload\n        /* \"contracts/Govern.sol\":4858:4871  actions[i].to */\n      0x00\n      add\n      mload\n        /* \"contracts/Govern.sol\":4858:4876  actions[i].to.call */\n      0xffffffffffffffffffffffffffffffffffffffff\n      and\n        /* \"contracts/Govern.sol\":4884:4891  actions */\n      dup12\n        /* \"contracts/Govern.sol\":4892:4893  i */\n      dup5\n        /* \"contracts/Govern.sol\":4884:4894  actions[i] */\n      dup2\n      mload\n      dup2\n      lt\n      tag_263\n      jumpi\n      invalid\n    tag_263:\n      0x20\n      mul\n      0x20\n      add\n      add\n      mload\n        /* \"contracts/Govern.sol\":4884:4900  actions[i].value */\n      0x20\n      add\n      mload\n        /* \"contracts/Govern.sol\":4902:4909  actions */\n      dup13\n        /* \"contracts/Govern.sol\":4910:4911  i */\n      dup6\n        /* \"contracts/Govern.sol\":4902:4912  actions[i] */\n      dup2\n      mload\n      dup2\n      lt\n      tag_264\n      jumpi\n      invalid\n    tag_264:\n      0x20\n      mul\n      0x20\n      add\n      add\n      mload\n        /* \"contracts/Govern.sol\":4902:4917  actions[i].data */\n      0x40\n      add\n      mload\n        /* \"contracts/Govern.sol\":4858:4918  actions[i].to.call{value: actions[i].value}(actions[i].data) */\n      mload(0x40)\n      tag_265\n      swap2\n      swap1\n      jump(tag_266)\n    tag_265:\n      0x00\n      mload(0x40)\n      dup1\n      dup4\n      sub\n      dup2\n      dup6\n      dup8\n      gas\n      call\n      swap3\n      pop\n      pop\n      pop\n      returndatasize\n        /* \"--CODEGEN--\":12:13   */\n      dup1\n        /* \"--CODEGEN--\":19:20   */\n      0x00\n        /* \"--CODEGEN--\":14:41   */\n      dup2\n      eq\n      tag_269\n      jumpi\n        /* \"--CODEGEN--\":67:71   */\n      0x40\n        /* \"--CODEGEN--\":61:72   */\n      mload\n        /* \"--CODEGEN--\":56:72   */\n      swap2\n      pop\n        /* \"--CODEGEN--\":134:138   */\n      0x1f\n        /* \"--CODEGEN--\":130:139   */\n      not\n        /* \"--CODEGEN--\":123:127   */\n      0x3f\n        /* \"--CODEGEN--\":105:121   */\n      returndatasize\n        /* \"--CODEGEN--\":101:128   */\n      add\n        /* \"--CODEGEN--\":97:140   */\n      and\n        /* \"--CODEGEN--\":94:95   */\n      dup3\n        /* \"--CODEGEN--\":90:141   */\n      add\n        /* \"--CODEGEN--\":84:88   */\n      0x40\n        /* \"--CODEGEN--\":77:142   */\n      mstore\n        /* \"--CODEGEN--\":157:173   */\n      returndatasize\n        /* \"--CODEGEN--\":154:155   */\n      dup3\n        /* \"--CODEGEN--\":147:174   */\n      mstore\n        /* \"--CODEGEN--\":211:227   */\n      returndatasize\n        /* \"--CODEGEN--\":208:209   */\n      0x00\n        /* \"--CODEGEN--\":201:205   */\n      0x20\n        /* \"--CODEGEN--\":198:199   */\n      dup5\n        /* \"--CODEGEN--\":194:206   */\n      add\n        /* \"--CODEGEN--\":179:228   */\n      returndatacopy\n        /* \"--CODEGEN--\":5:233   */\n      jump(tag_268)\n        /* \"--CODEGEN--\":14:41   */\n    tag_269:\n        /* \"--CODEGEN--\":32:36   */\n      0x60\n        /* \"--CODEGEN--\":27:36   */\n      swap2\n      pop\n        /* \"--CODEGEN--\":5:233   */\n    tag_268:\n      pop\n        /* \"contracts/Govern.sol\":4828:4918  (bool ok, bytes memory ret) = actions[i].to.call{value: actions[i].value}(actions[i].data) */\n      swap2\n      pop\n      swap2\n      pop\n        /* \"contracts/Govern.sol\":4941:4943  ok */\n      dup2\n        /* \"contracts/Govern.sol\":4941:4977  ok || allowFailuresMap.get(uint8(i)) */\n      dup1\n      tag_270\n      jumpi\n      pop\n        /* \"contracts/Govern.sol\":4947:4977  allowFailuresMap.get(uint8(i)) */\n      tag_271\n        /* \"contracts/Govern.sol\":4974:4975  i */\n      dup4\n        /* \"contracts/Govern.sol\":4947:4963  allowFailuresMap */\n      dup12\n        /* \"contracts/Govern.sol\":4947:4967  allowFailuresMap.get */\n      tag_272\n      swap1\n        /* \"contracts/Govern.sol\":4947:4977  allowFailuresMap.get(uint8(i)) */\n      swap2\n      swap1\n      0xffffffff\n      and\n      jump\t// in\n    tag_271:\n        /* \"contracts/Govern.sol\":4941:4977  ok || allowFailuresMap.get(uint8(i)) */\n    tag_270:\n        /* \"contracts/Govern.sol\":4979:5003  ERROR_ACTION_CALL_FAILED */\n      mload(0x40)\n      dup1\n      0x40\n      add\n      0x40\n      mstore\n      dup1\n      0x19\n      dup2\n      mstore\n      0x20\n      add\n      0x474f5645524e5f414354494f4e5f43414c4c5f4641494c454400000000000000\n      dup2\n      mstore\n      pop\n        /* \"contracts/Govern.sol\":4933:5004  require(ok || allowFailuresMap.get(uint8(i)), ERROR_ACTION_CALL_FAILED) */\n      swap1\n      tag_273\n      jumpi\n      mload(0x40)\n      0x08c379a000000000000000000000000000000000000000000000000000000000\n      dup2\n      mstore\n      0x04\n      add\n      tag_274\n      swap2\n      swap1\n      jump(tag_186)\n    tag_274:\n      mload(0x40)\n      dup1\n      swap2\n      sub\n      swap1\n      revert\n    tag_273:\n      pop\n        /* \"contracts/Govern.sol\":5097:5099  ok */\n      dup2\n        /* \"contracts/Govern.sol\":5097:5140  ok ? failureMap : failureMap.flip(uint8(i)) */\n      tag_275\n      jumpi\n        /* \"contracts/Govern.sol\":5115:5140  failureMap.flip(uint8(i)) */\n      tag_276\n        /* \"contracts/Govern.sol\":5137:5138  i */\n      dup4\n        /* \"contracts/Govern.sol\":5115:5125  failureMap */\n      dup6\n        /* \"contracts/Govern.sol\":5115:5130  failureMap.flip */\n      tag_277\n      swap1\n        /* \"contracts/Govern.sol\":5115:5140  failureMap.flip(uint8(i)) */\n      swap2\n      swap1\n      0xffffffff\n      and\n      jump\t// in\n    tag_276:\n        /* \"contracts/Govern.sol\":5097:5140  ok ? failureMap : failureMap.flip(uint8(i)) */\n      jump(tag_278)\n    tag_275:\n        /* \"contracts/Govern.sol\":5102:5112  failureMap */\n      dup4\n        /* \"contracts/Govern.sol\":5097:5140  ok ? failureMap : failureMap.flip(uint8(i)) */\n    tag_278:\n        /* \"contracts/Govern.sol\":5084:5140  failureMap = ok ? failureMap : failureMap.flip(uint8(i)) */\n      swap4\n      pop\n        /* \"contracts/Govern.sol\":5172:5175  ret */\n      dup1\n        /* \"contracts/Govern.sol\":5155:5166  execResults */\n      dup6\n        /* \"contracts/Govern.sol\":5167:5168  i */\n      dup5\n        /* \"contracts/Govern.sol\":5155:5169  execResults[i] */\n      dup2\n      mload\n      dup2\n      lt\n      tag_279\n      jumpi\n      invalid\n    tag_279:\n      0x20\n      mul\n      0x20\n      add\n      add\n        /* \"contracts/Govern.sol\":5155:5175  execResults[i] = ret */\n      dup2\n      swap1\n      mstore\n      pop\n        /* \"contracts/Govern.sol\":4723:5187  for (uint256 i = 0; i < actions.length; i++) {\r... */\n      pop\n      pop\n        /* \"contracts/Govern.sol\":4763:4766  i++ */\n      dup1\n      dup1\n      0x01\n      add\n      swap2\n      pop\n      pop\n        /* \"contracts/Govern.sol\":4723:5187  for (uint256 i = 0; i < actions.length; i++) {\r... */\n      jump(tag_259)\n    tag_260:\n      pop\n        /* \"contracts/Govern.sol\":5213:5223  msg.sender */\n      caller\n        /* \"contracts/Govern.sol\":5204:5264  Executed(msg.sender, actions, memo, failureMap, execResults) */\n      0xffffffffffffffffffffffffffffffffffffffff\n      and\n      0x589db18161c9dc190c7fc0cc0c319eeb589c1ba890be60089f1ee76b4bfb01ea\n        /* \"contracts/Govern.sol\":5225:5232  actions */\n      dup10\n        /* \"contracts/Govern.sol\":5234:5238  memo */\n      dup9\n        /* \"contracts/Govern.sol\":5240:5250  failureMap */\n      dup5\n        /* \"contracts/Govern.sol\":5252:5263  execResults */\n      dup7\n        /* \"contracts/Govern.sol\":5204:5264  Executed(msg.sender, actions, memo, failureMap, execResults) */\n      mload(0x40)\n      tag_280\n      swap5\n      swap4\n      swap3\n      swap2\n      swap1\n      jump(tag_281)\n    tag_280:\n      mload(0x40)\n      dup1\n      swap2\n      sub\n      swap1\n      log2\n        /* \"contracts/Govern.sol\":5285:5295  failureMap */\n      dup1\n        /* \"contracts/Govern.sol\":5297:5308  execResults */\n      dup3\n        /* \"contracts/Govern.sol\":5277:5309  return (failureMap, execResults) */\n      swap5\n      pop\n      swap5\n      pop\n      pop\n      pop\n        /* \"contracts/Govern.sol\":4288:5317  function exec(ERC3000Data.Action[] memory actions, bytes32 allowFailuresMap, bytes32 memo) override public auth(EXEC_ROLE) returns (bytes32, bytes[] memory) {\r... */\n      pop\n      swap4\n      pop\n      swap4\n      swap2\n      pop\n      pop\n      jump\t// out\n        /* \"contracts/Govern.sol\":2439:2980  function initialize(address _initialExecutor) public initACL(address(this)) onlyInit(\"govern\") {\r... */\n    tag_114:\n        /* \"contracts/Govern.sol\":2508:2512  this */\n      address\n        /* \"contracts/ACL.sol\":1553:1554  0 */\n      0x00\n        /* \"contracts/ACL.sol\":1532:1542  initBlocks */\n      0x02\n        /* \"contracts/ACL.sol\":1532:1549  initBlocks[\"acl\"] */\n      mload(0x40)\n      tag_283\n      swap1\n      jump(tag_284)\n    tag_283:\n      swap1\n      dup2\n      mstore\n      0x20\n      add\n      mload(0x40)\n      dup1\n      swap2\n      sub\n      swap1\n      keccak256\n      sload\n        /* \"contracts/ACL.sol\":1532:1554  initBlocks[\"acl\"] == 0 */\n      eq\n        /* \"contracts/ACL.sol\":1528:1729  if (initBlocks[\"acl\"] == 0) {\r... */\n      iszero\n      tag_285\n      jumpi\n        /* \"contracts/ACL.sol\":1571:1599  _initializeACL(_initialRoot) */\n      tag_286\n        /* \"contracts/ACL.sol\":1586:1598  _initialRoot */\n      dup2\n        /* \"contracts/ACL.sol\":1571:1585  _initializeACL */\n      tag_287\n        /* \"contracts/ACL.sol\":1571:1599  _initializeACL(_initialRoot) */\n      jump\t// in\n    tag_286:\n        /* \"contracts/ACL.sol\":1528:1729  if (initBlocks[\"acl\"] == 0) {\r... */\n      jump(tag_288)\n    tag_285:\n        /* \"contracts/ACL.sol\":830:831  2 */\n      0x02\n        /* \"contracts/ACL.sol\":1640:1684  roles[ROOT_ROLE][_initialRoot] == ALLOW_FLAG */\n      0xffffffffffffffffffffffffffffffffffffffff\n      and\n        /* \"contracts/ACL.sol\":1640:1645  roles */\n      0x03\n        /* \"contracts/ACL.sol\":1640:1656  roles[ROOT_ROLE] */\n      0x00\n        /* \"contracts/ACL.sol\":511:529  this.bulk.selector */\n      shl(0xe0, 0x1c47671b)\n        /* \"contracts/ACL.sol\":479:499  this.freeze.selector */\n      shl(0xe0, 0xbdf9a726)\n        /* \"contracts/ACL.sol\":447:467  this.revoke.selector */\n      shl(0xe0, 0x58849734)\n        /* \"contracts/ACL.sol\":416:435  this.grant.selector */\n      shl(0xe0, 0xa157a10d)\n        /* \"contracts/ACL.sol\":416:467  this.grant.selector\r... */\n      xor\n        /* \"contracts/ACL.sol\":416:499  this.grant.selector\r... */\n      xor\n        /* \"contracts/ACL.sol\":416:529  this.grant.selector\r... */\n      xor\n        /* \"contracts/ACL.sol\":1640:1656  roles[ROOT_ROLE] */\n      not(0xffffffffffffffffffffffffffffffffffffffffffffffffffffffff)\n      and\n      not(0xffffffffffffffffffffffffffffffffffffffffffffffffffffffff)\n      and\n      dup2\n      mstore\n      0x20\n      add\n      swap1\n      dup2\n      mstore\n      0x20\n      add\n      0x00\n      keccak256\n        /* \"contracts/ACL.sol\":1640:1670  roles[ROOT_ROLE][_initialRoot] */\n      0x00\n        /* \"contracts/ACL.sol\":1657:1669  _initialRoot */\n      dup4\n        /* \"contracts/ACL.sol\":1640:1670  roles[ROOT_ROLE][_initialRoot] */\n      0xffffffffffffffffffffffffffffffffffffffff\n      and\n      0xffffffffffffffffffffffffffffffffffffffff\n      and\n      dup2\n      mstore\n      0x20\n      add\n      swap1\n      dup2\n      mstore\n      0x20\n      add\n      0x00\n      keccak256\n      0x00\n      swap1\n      sload\n      swap1\n      0x0100\n      exp\n      swap1\n      div\n      0xffffffffffffffffffffffffffffffffffffffff\n      and\n        /* \"contracts/ACL.sol\":1640:1684  roles[ROOT_ROLE][_initialRoot] == ALLOW_FLAG */\n      0xffffffffffffffffffffffffffffffffffffffff\n      and\n      eq\n        /* \"contracts/ACL.sol\":1632:1717  require(roles[ROOT_ROLE][_initialRoot] == ALLOW_FLAG, \"acl: initial root misaligned\") */\n      tag_289\n      jumpi\n      mload(0x40)\n      0x08c379a000000000000000000000000000000000000000000000000000000000\n      dup2\n      mstore\n      0x04\n      add\n      tag_290\n      swap1\n      jump(tag_291)\n    tag_290:\n      mload(0x40)\n      dup1\n      swap2\n      sub\n      swap1\n      revert\n    tag_289:\n        /* \"contracts/ACL.sol\":1528:1729  if (initBlocks[\"acl\"] == 0) {\r... */\n    tag_288:\n        /* \"contracts/Initializable.sol\":203:411  modifier onlyInit(string memory key) {\r... */\n      mload(0x40)\n      dup1\n      0x40\n      add\n      0x40\n      mstore\n      dup1\n      0x06\n      dup2\n      mstore\n      0x20\n      add\n      0x676f7665726e0000000000000000000000000000000000000000000000000000\n      dup2\n      mstore\n      pop\n        /* \"contracts/Initializable.sol\":278:279  0 */\n      0x00\n        /* \"contracts/Initializable.sol\":259:269  initBlocks */\n      0x02\n        /* \"contracts/Initializable.sol\":270:273  key */\n      dup3\n        /* \"contracts/Initializable.sol\":259:274  initBlocks[key] */\n      mload(0x40)\n      tag_293\n      swap2\n      swap1\n      jump(tag_294)\n    tag_293:\n      swap1\n      dup2\n      mstore\n      0x20\n      add\n      mload(0x40)\n      dup1\n      swap2\n      sub\n      swap1\n      keccak256\n      sload\n        /* \"contracts/Initializable.sol\":259:279  initBlocks[key] == 0 */\n      eq\n        /* \"contracts/Initializable.sol\":251:318  require(initBlocks[key] == 0, \"initializable: already initialized\") */\n      tag_295\n      jumpi\n      mload(0x40)\n      0x08c379a000000000000000000000000000000000000000000000000000000000\n      dup2\n      mstore\n      0x04\n      add\n      tag_296\n      swap1\n      jump(tag_297)\n    tag_296:\n      mload(0x40)\n      dup1\n      swap2\n      sub\n      swap1\n      revert\n    tag_295:\n        /* \"contracts/Initializable.sol\":347:359  block.number */\n      number\n        /* \"contracts/Initializable.sol\":329:339  initBlocks */\n      0x02\n        /* \"contracts/Initializable.sol\":340:343  key */\n      dup3\n        /* \"contracts/Initializable.sol\":329:344  initBlocks[key] */\n      mload(0x40)\n      tag_298\n      swap2\n      swap1\n      jump(tag_294)\n    tag_298:\n      swap1\n      dup2\n      mstore\n      0x20\n      add\n      mload(0x40)\n      dup1\n      swap2\n      sub\n      swap1\n      keccak256\n        /* \"contracts/Initializable.sol\":329:359  initBlocks[key] = block.number */\n      dup2\n      swap1\n      sstore\n      pop\n        /* \"contracts/Govern.sol\":2545:2589  _grant(EXEC_ROLE, address(_initialExecutor)) */\n      tag_300\n        /* \"contracts/Govern.sol\":1288:1306  this.exec.selector */\n      shl(0xe0, 0xc2d85afc)\n        /* \"contracts/Govern.sol\":2571:2587  _initialExecutor */\n      dup5\n        /* \"contracts/Govern.sol\":2545:2551  _grant */\n      tag_160\n        /* \"contracts/Govern.sol\":2545:2589  _grant(EXEC_ROLE, address(_initialExecutor)) */\n      jump\t// in\n    tag_300:\n        /* \"contracts/Govern.sol\":2600:2636  _grant(WITHDRAW_ROLE, address(this)) */\n      tag_301\n        /* \"contracts/Govern.sol\":1354:1376  this.withdraw.selector */\n      shl(0xe0, 0x26abeb64)\n        /* \"contracts/Govern.sol\":2630:2634  this */\n      address\n        /* \"contracts/Govern.sol\":2600:2606  _grant */\n      tag_160\n        /* \"contracts/Govern.sol\":2600:2636  _grant(WITHDRAW_ROLE, address(this)) */\n      jump\t// in\n    tag_301:\n        /* \"contracts/Govern.sol\":2718:2740  _freeze(WITHDRAW_ROLE) */\n      tag_302\n        /* \"contracts/Govern.sol\":1354:1376  this.withdraw.selector */\n      shl(0xe0, 0x26abeb64)\n        /* \"contracts/Govern.sol\":2718:2725  _freeze */\n      tag_172\n        /* \"contracts/Govern.sol\":2718:2740  _freeze(WITHDRAW_ROLE) */\n      jump\t// in\n    tag_302:\n        /* \"contracts/Govern.sol\":2753:2798  _grant(REGISTER_STANDARD_ROLE, address(this)) */\n      tag_303\n        /* \"contracts/Govern.sol\":1435:1476  this.registerStandardAndCallback.selector */\n      shl(0xe0, 0xa43e2533)\n        /* \"contracts/Govern.sol\":2792:2796  this */\n      address\n        /* \"contracts/Govern.sol\":2753:2759  _grant */\n      tag_160\n        /* \"contracts/Govern.sol\":2753:2798  _grant(REGISTER_STANDARD_ROLE, address(this)) */\n      jump\t// in\n    tag_303:\n        /* \"contracts/Govern.sol\":2809:2860  _grant(SET_SIGNATURE_VALIDATOR_ROLE, address(this)) */\n      tag_304\n        /* \"contracts/Govern.sol\":1539:1574  this.setSignatureValidator.selector */\n      shl(0xe0, 0x3e2ab0d9)\n        /* \"contracts/Govern.sol\":2854:2858  this */\n      address\n        /* \"contracts/Govern.sol\":2809:2815  _grant */\n      tag_160\n        /* \"contracts/Govern.sol\":2809:2860  _grant(SET_SIGNATURE_VALIDATOR_ROLE, address(this)) */\n      jump\t// in\n    tag_304:\n        /* \"contracts/Govern.sol\":2873:2917  _registerStandard(ERC3000_EXEC_INTERFACE_ID) */\n      tag_305\n        /* \"contracts/IERC3000Executor.sol\":235:253  this.exec.selector */\n      shl(0xe0, 0xc2d85afc)\n        /* \"contracts/Govern.sol\":2873:2890  _registerStandard */\n      tag_306\n        /* \"contracts/Govern.sol\":2873:2917  _registerStandard(ERC3000_EXEC_INTERFACE_ID) */\n      jump\t// in\n    tag_305:\n        /* \"contracts/Govern.sol\":2928:2972  _registerStandard(type(ERC1271).interfaceId) */\n      tag_307\n        /* \"contracts/Govern.sol\":2946:2971  type(ERC1271).interfaceId */\n      0x1626ba7e00000000000000000000000000000000000000000000000000000000\n        /* \"contracts/Govern.sol\":2928:2945  _registerStandard */\n      tag_306\n        /* \"contracts/Govern.sol\":2928:2972  _registerStandard(type(ERC1271).interfaceId) */\n      jump\t// in\n    tag_307:\n        /* \"contracts/Initializable.sol\":399:402  key */\n      dup1\n        /* \"contracts/Initializable.sol\":387:403  Initialized(key) */\n      mload(0x40)\n      tag_308\n      swap2\n      swap1\n      jump(tag_294)\n    tag_308:\n      mload(0x40)\n      dup1\n      swap2\n      sub\n      swap1\n      keccak256\n      0x7bc2a48a4a566e237a12186f19d985b0f76afc9d5290601edac19876253670c2\n      mload(0x40)\n      mload(0x40)\n      dup1\n      swap2\n      sub\n      swap1\n      log2\n        /* \"contracts/ACL.sol\":1739:1740  _ */\n      pop\n        /* \"contracts/Govern.sol\":2439:2980  function initialize(address _initialExecutor) public initACL(address(this)) onlyInit(\"govern\") {\r... */\n      pop\n      pop\n      jump\t// out\n        /* \"contracts/Initializable.sol\":103:148  mapping (string => uint256) public initBlocks */\n    tag_119:\n      0x02\n      dup2\n        /* \"--CODEGEN--\":28:35   */\n      dup1\n        /* \"--CODEGEN--\":22:36   */\n      mload\n        /* \"--CODEGEN--\":169:173   */\n      0x20\n        /* \"--CODEGEN--\":160:167   */\n      dup2\n        /* \"--CODEGEN--\":156:174   */\n      add\n        /* \"--CODEGEN--\":147:154   */\n      dup3\n        /* \"--CODEGEN--\":143:175   */\n      add\n        /* \"--CODEGEN--\":204:217   */\n      dup1\n        /* \"--CODEGEN--\":198:218   */\n      mload\n        /* \"--CODEGEN--\":246:254   */\n      dup5\n        /* \"--CODEGEN--\":231:244   */\n      dup3\n        /* \"--CODEGEN--\":224:255   */\n      mstore\n        /* \"--CODEGEN--\":316:320   */\n      0x20\n        /* \"--CODEGEN--\":307:314   */\n      dup4\n        /* \"--CODEGEN--\":303:321   */\n      add\n        /* \"--CODEGEN--\":296:300   */\n      0x20\n        /* \"--CODEGEN--\":287:294   */\n      dup6\n        /* \"--CODEGEN--\":283:301   */\n      add\n        /* \"--CODEGEN--\":273:322   */\n      keccak256\n        /* \"--CODEGEN--\":350:359   */\n      dup2\n        /* \"--CODEGEN--\":335:348   */\n      dup4\n        /* \"--CODEGEN--\":328:360   */\n      mstore\n        /* \"--CODEGEN--\":378:382   */\n      dup1\n        /* \"--CODEGEN--\":366:382   */\n      swap6\n      pop\n        /* \"--CODEGEN--\":0:388   */\n      pop\n      pop\n      pop\n      pop\n        /* \"contracts/Initializable.sol\":103:148  mapping (string => uint256) public initBlocks */\n      pop\n      0x00\n      swap2\n      pop\n      swap1\n      pop\n      sload\n      dup2\n      jump\t// out\n        /* \"contracts/ERC165.sol\":508:652  function supportsInterface(bytes4 _interfaceId) virtual public view returns (bool) {\r... */\n    tag_131:\n        /* \"contracts/ERC165.sol\":585:589  bool */\n      0x00\n        /* \"contracts/ERC165.sol\":203:213  0x01ffc9a7 */\n      0x01ffc9a7\n        /* \"contracts/ERC165.sol\":196:214  bytes4(0x01ffc9a7) */\n      0xe0\n      shl\n        /* \"contracts/ERC165.sol\":609:644  _interfaceId == ERC165_INTERFACE_ID */\n      not(0xffffffffffffffffffffffffffffffffffffffffffffffffffffffff)\n      and\n        /* \"contracts/ERC165.sol\":609:621  _interfaceId */\n      dup3\n        /* \"contracts/ERC165.sol\":609:644  _interfaceId == ERC165_INTERFACE_ID */\n      not(0xffffffffffffffffffffffffffffffffffffffffffffffffffffffff)\n      and\n      eq\n        /* \"contracts/ERC165.sol\":602:644  return _interfaceId == ERC165_INTERFACE_ID */\n      swap1\n      pop\n        /* \"contracts/ERC165.sol\":508:652  function supportsInterface(bytes4 _interfaceId) virtual public view returns (bool) {\r... */\n      swap2\n      swap1\n      pop\n      jump\t// out\n        /* \"contracts/ACL.sol\":2771:3040  function willPerform(bytes4 _role, address _who, bytes memory _data) internal returns (bool) {\r... */\n    tag_143:\n        /* \"contracts/ACL.sol\":2858:2862  bool */\n      0x00\n        /* \"contracts/ACL.sol\":2964:2994  _checkRole(_role, _who, _data) */\n      tag_311\n        /* \"contracts/ACL.sol\":2975:2980  _role */\n      dup5\n        /* \"contracts/ACL.sol\":2982:2986  _who */\n      dup5\n        /* \"contracts/ACL.sol\":2988:2993  _data */\n      dup5\n        /* \"contracts/ACL.sol\":2964:2974  _checkRole */\n      tag_312\n        /* \"contracts/ACL.sol\":2964:2994  _checkRole(_role, _who, _data) */\n      jump\t// in\n    tag_311:\n        /* \"contracts/ACL.sol\":2964:3032  _checkRole(_role, _who, _data) || _checkRole(_role, ANY_ADDR, _data) */\n      dup1\n      tag_313\n      jumpi\n      pop\n        /* \"contracts/ACL.sol\":2998:3032  _checkRole(_role, ANY_ADDR, _data) */\n      tag_314\n        /* \"contracts/ACL.sol\":3009:3014  _role */\n      dup5\n        /* \"contracts/ACL.sol\":613:615  -1 */\n      0xffffffffffffffffffffffffffffffffffffffffffffffffffffffffffffffff\n        /* \"contracts/ACL.sol\":3026:3031  _data */\n      dup5\n        /* \"contracts/ACL.sol\":2998:3008  _checkRole */\n      tag_312\n        /* \"contracts/ACL.sol\":2998:3032  _checkRole(_role, ANY_ADDR, _data) */\n      jump\t// in\n    tag_314:\n        /* \"contracts/ACL.sol\":2964:3032  _checkRole(_role, _who, _data) || _checkRole(_role, ANY_ADDR, _data) */\n    tag_313:\n        /* \"contracts/ACL.sol\":2957:3032  return _checkRole(_role, _who, _data) || _checkRole(_role, ANY_ADDR, _data) */\n      swap1\n      pop\n        /* \"contracts/ACL.sol\":2771:3040  function willPerform(bytes4 _role, address _who, bytes memory _data) internal returns (bool) {\r... */\n      swap4\n      swap3\n      pop\n      pop\n      pop\n      jump\t// out\n        /* \"contracts/ACL.sol\":3310:3435  function _grant(bytes4 _role, address _who) internal {\r... */\n    tag_160:\n        /* \"contracts/ACL.sol\":3374:3427  _grantWithOracle(_role, _who, IACLOracle(ALLOW_FLAG)) */\n      tag_316\n        /* \"contracts/ACL.sol\":3391:3396  _role */\n      dup3\n        /* \"contracts/ACL.sol\":3398:3402  _who */\n      dup3\n        /* \"contracts/ACL.sol\":830:831  2 */\n      0x02\n        /* \"contracts/ACL.sol\":3374:3390  _grantWithOracle */\n      tag_218\n        /* \"contracts/ACL.sol\":3374:3427  _grantWithOracle(_role, _who, IACLOracle(ALLOW_FLAG)) */\n      jump\t// in\n    tag_316:\n        /* \"contracts/ACL.sol\":3310:3435  function _grant(bytes4 _role, address _who) internal {\r... */\n      pop\n      pop\n      jump\t// out\n        /* \"contracts/ACL.sol\":3758:3963  function _revoke(bytes4 _role, address _who) internal {\r... */\n    tag_166:\n        /* \"contracts/ACL.sol\":3832:3847  isFrozen(_role) */\n      tag_318\n        /* \"contracts/ACL.sol\":3841:3846  _role */\n      dup3\n        /* \"contracts/ACL.sol\":3832:3840  isFrozen */\n      tag_64\n        /* \"contracts/ACL.sol\":3832:3847  isFrozen(_role) */\n      jump\t// in\n    tag_318:\n        /* \"contracts/ACL.sol\":3831:3847  !isFrozen(_role) */\n      iszero\n        /* \"contracts/ACL.sol\":3823:3863  require(!isFrozen(_role), \"acl: frozen\") */\n      tag_319\n      jumpi\n      mload(0x40)\n      0x08c379a000000000000000000000000000000000000000000000000000000000\n      dup2\n      mstore\n      0x04\n      add\n      tag_320\n      swap1\n      jump(tag_321)\n    tag_320:\n      mload(0x40)\n      dup1\n      swap2\n      sub\n      swap1\n      revert\n    tag_319:\n        /* \"contracts/ACL.sol\":695:696  0 */\n      0x00\n        /* \"contracts/ACL.sol\":3876:3881  roles */\n      0x03\n        /* \"contracts/ACL.sol\":3876:3888  roles[_role] */\n      0x00\n        /* \"contracts/ACL.sol\":3882:3887  _role */\n      dup5\n        /* \"contracts/ACL.sol\":3876:3888  roles[_role] */\n      not(0xffffffffffffffffffffffffffffffffffffffffffffffffffffffff)\n      and\n      not(0xffffffffffffffffffffffffffffffffffffffffffffffffffffffff)\n      and\n      dup2\n      mstore\n      0x20\n      add\n      swap1\n      dup2\n      mstore\n      0x20\n      add\n      0x00\n      keccak256\n        /* \"contracts/ACL.sol\":3876:3894  roles[_role][_who] */\n      0x00\n        /* \"contracts/ACL.sol\":3889:3893  _who */\n      dup4\n        /* \"contracts/ACL.sol\":3876:3894  roles[_role][_who] */\n      0xffffffffffffffffffffffffffffffffffffffff\n      and\n      0xffffffffffffffffffffffffffffffffffffffff\n      and\n      dup2\n      mstore\n      0x20\n      add\n      swap1\n      dup2\n      mstore\n      0x20\n      add\n      0x00\n      keccak256\n      0x00\n        /* \"contracts/ACL.sol\":3876:3907  roles[_role][_who] = UNSET_ROLE */\n      0x0100\n      exp\n      dup2\n      sload\n      dup2\n      0xffffffffffffffffffffffffffffffffffffffff\n      mul\n      not\n      and\n      swap1\n      dup4\n      0xffffffffffffffffffffffffffffffffffffffff\n      and\n      mul\n      or\n      swap1\n      sstore\n      pop\n        /* \"contracts/ACL.sol\":3950:3954  _who */\n      dup1\n        /* \"contracts/ACL.sol\":3923:3955  Revoked(_role, msg.sender, _who) */\n      0xffffffffffffffffffffffffffffffffffffffff\n      and\n        /* \"contracts/ACL.sol\":3938:3948  msg.sender */\n      caller\n        /* \"contracts/ACL.sol\":3923:3955  Revoked(_role, msg.sender, _who) */\n      0xffffffffffffffffffffffffffffffffffffffff\n      and\n        /* \"contracts/ACL.sol\":3931:3936  _role */\n      dup4\n        /* \"contracts/ACL.sol\":3923:3955  Revoked(_role, msg.sender, _who) */\n      not(0xffffffffffffffffffffffffffffffffffffffffffffffffffffffff)\n      and\n      0x682f2c466c1e9f6883eb72cbced01373e1cb18b05ae5c8bc04dc73d73e29f8cd\n      mload(0x40)\n      mload(0x40)\n      dup1\n      swap2\n      sub\n      swap1\n      log4\n        /* \"contracts/ACL.sol\":3758:3963  function _revoke(bytes4 _role, address _who) internal {\r... */\n      pop\n      pop\n      jump\t// out\n        /* \"contracts/ACL.sol\":3971:4163  function _freeze(bytes4 _role) internal {\r... */\n    tag_172:\n        /* \"contracts/ACL.sol\":4031:4046  isFrozen(_role) */\n      tag_323\n        /* \"contracts/ACL.sol\":4040:4045  _role */\n      dup2\n        /* \"contracts/ACL.sol\":4031:4039  isFrozen */\n      tag_64\n        /* \"contracts/ACL.sol\":4031:4046  isFrozen(_role) */\n      jump\t// in\n    tag_323:\n        /* \"contracts/ACL.sol\":4030:4046  !isFrozen(_role) */\n      iszero\n        /* \"contracts/ACL.sol\":4022:4062  require(!isFrozen(_role), \"acl: frozen\") */\n      tag_324\n      jumpi\n      mload(0x40)\n      0x08c379a000000000000000000000000000000000000000000000000000000000\n      dup2\n      mstore\n      0x04\n      add\n      tag_325\n      swap1\n      jump(tag_321)\n    tag_325:\n      mload(0x40)\n      dup1\n      swap2\n      sub\n      swap1\n      revert\n    tag_324:\n        /* \"contracts/ACL.sol\":752:753  1 */\n      0x01\n        /* \"contracts/ACL.sol\":4075:4080  roles */\n      0x03\n        /* \"contracts/ACL.sol\":4075:4087  roles[_role] */\n      0x00\n        /* \"contracts/ACL.sol\":4081:4086  _role */\n      dup4\n        /* \"contracts/ACL.sol\":4075:4087  roles[_role] */\n      not(0xffffffffffffffffffffffffffffffffffffffffffffffffffffffff)\n      and\n      not(0xffffffffffffffffffffffffffffffffffffffffffffffffffffffff)\n      and\n      dup2\n      mstore\n      0x20\n      add\n      swap1\n      dup2\n      mstore\n      0x20\n      add\n      0x00\n      keccak256\n        /* \"contracts/ACL.sol\":4075:4100  roles[_role][FREEZE_FLAG] */\n      0x00\n        /* \"contracts/ACL.sol\":752:753  1 */\n      0x01\n        /* \"contracts/ACL.sol\":4075:4100  roles[_role][FREEZE_FLAG] */\n      0xffffffffffffffffffffffffffffffffffffffff\n      and\n      0xffffffffffffffffffffffffffffffffffffffff\n      and\n      dup2\n      mstore\n      0x20\n      add\n      swap1\n      dup2\n      mstore\n      0x20\n      add\n      0x00\n      keccak256\n      0x00\n        /* \"contracts/ACL.sol\":4075:4114  roles[_role][FREEZE_FLAG] = FREEZE_FLAG */\n      0x0100\n      exp\n      dup2\n      sload\n      dup2\n      0xffffffffffffffffffffffffffffffffffffffff\n      mul\n      not\n      and\n      swap1\n      dup4\n      0xffffffffffffffffffffffffffffffffffffffff\n      and\n      mul\n      or\n      swap1\n      sstore\n      pop\n        /* \"contracts/ACL.sol\":4144:4154  msg.sender */\n      caller\n        /* \"contracts/ACL.sol\":4130:4155  Frozen(_role, msg.sender) */\n      0xffffffffffffffffffffffffffffffffffffffff\n      and\n        /* \"contracts/ACL.sol\":4137:4142  _role */\n      dup2\n        /* \"contracts/ACL.sol\":4130:4155  Frozen(_role, msg.sender) */\n      not(0xffffffffffffffffffffffffffffffffffffffffffffffffffffffff)\n      and\n      0x049c6b8b07a879425742523fa80f8ffb25e39ad518c93a5896a0df19518397e5\n      mload(0x40)\n      mload(0x40)\n      dup1\n      swap2\n      sub\n      swap1\n      log3\n        /* \"contracts/ACL.sol\":3971:4163  function _freeze(bytes4 _role) internal {\r... */\n      pop\n      jump\t// out\n        /* \"contracts/SafeERC20.sol\":2212:2539  function safeTransfer(ERC20 _token, address _to, uint256 _amount) internal returns (bool) {\r... */\n    tag_189:\n        /* \"contracts/SafeERC20.sol\":2296:2300  bool */\n      0x00\n        /* \"contracts/SafeERC20.sol\":2313:2342  bytes memory transferCallData */\n      0x60\n        /* \"contracts/SafeERC20.sol\":2382:2406  _token.transfer.selector */\n      shl(0xe0, 0xa9059cbb)\n        /* \"contracts/SafeERC20.sol\":2421:2424  _to */\n      dup5\n        /* \"contracts/SafeERC20.sol\":2439:2446  _amount */\n      dup5\n        /* \"contracts/SafeERC20.sol\":2345:2457  abi.encodeWithSelector(\r... */\n      add(0x24, mload(0x40))\n      tag_327\n      swap3\n      swap2\n      swap1\n      jump(tag_328)\n    tag_327:\n      mload(0x40)\n        /* \"--CODEGEN--\":49:53   */\n      0x20\n        /* \"--CODEGEN--\":39:46   */\n      dup2\n        /* \"--CODEGEN--\":30:37   */\n      dup4\n        /* \"--CODEGEN--\":26:47   */\n      sub\n        /* \"--CODEGEN--\":22:54   */\n      sub\n        /* \"--CODEGEN--\":13:20   */\n      dup2\n        /* \"--CODEGEN--\":6:55   */\n      mstore\n        /* \"contracts/SafeERC20.sol\":2345:2457  abi.encodeWithSelector(\r... */\n      swap1\n      0x40\n      mstore\n      swap1\n      not(0xffffffffffffffffffffffffffffffffffffffffffffffffffffffff)\n      and\n        /* \"--CODEGEN--\":38:42   */\n      0x20\n        /* \"--CODEGEN--\":29:36   */\n      dup3\n        /* \"--CODEGEN--\":25:43   */\n      add\n        /* \"--CODEGEN--\":67:77   */\n      dup1\n        /* \"--CODEGEN--\":61:78   */\n      mload\n        /* \"--CODEGEN--\":96:154   */\n      0xffffffffffffffffffffffffffffffffffffffffffffffffffffffff\n        /* \"--CODEGEN--\":199:207   */\n      dup4\n        /* \"--CODEGEN--\":192:196   */\n      dup2\n        /* \"--CODEGEN--\":186:190   */\n      dup4\n        /* \"--CODEGEN--\":182:197   */\n      and\n        /* \"--CODEGEN--\":179:208   */\n      or\n        /* \"--CODEGEN--\":167:177   */\n      dup4\n        /* \"--CODEGEN--\":160:209   */\n      mstore\n        /* \"--CODEGEN--\":0:215   */\n      pop\n      pop\n      pop\n        /* \"contracts/SafeERC20.sol\":2345:2457  abi.encodeWithSelector(\r... */\n      pop\n        /* \"contracts/SafeERC20.sol\":2313:2457  bytes memory transferCallData = abi.encodeWithSelector(\r... */\n      swap1\n      pop\n        /* \"contracts/SafeERC20.sol\":2475:2531  invokeAndCheckSuccess(address(_token), transferCallData) */\n      tag_329\n        /* \"contracts/SafeERC20.sol\":2505:2511  _token */\n      dup6\n        /* \"contracts/SafeERC20.sol\":2514:2530  transferCallData */\n      dup3\n        /* \"contracts/SafeERC20.sol\":2475:2496  invokeAndCheckSuccess */\n      tag_330\n        /* \"contracts/SafeERC20.sol\":2475:2531  invokeAndCheckSuccess(address(_token), transferCallData) */\n      jump\t// in\n    tag_329:\n        /* \"contracts/SafeERC20.sol\":2468:2531  return invokeAndCheckSuccess(address(_token), transferCallData) */\n      swap2\n      pop\n      pop\n        /* \"contracts/SafeERC20.sol\":2212:2539  function safeTransfer(ERC20 _token, address _to, uint256 _amount) internal returns (bool) {\r... */\n      swap4\n      swap3\n      pop\n      pop\n      pop\n      jump\t// out\n        /* \"contracts/ACL.sol\":3443:3750  function _grantWithOracle(bytes4 _role, address _who, IACLOracle _oracle) internal {\r... */\n    tag_218:\n        /* \"contracts/ACL.sol\":3546:3561  isFrozen(_role) */\n      tag_332\n        /* \"contracts/ACL.sol\":3555:3560  _role */\n      dup4\n        /* \"contracts/ACL.sol\":3546:3554  isFrozen */\n      tag_64\n        /* \"contracts/ACL.sol\":3546:3561  isFrozen(_role) */\n      jump\t// in\n    tag_332:\n        /* \"contracts/ACL.sol\":3545:3561  !isFrozen(_role) */\n      iszero\n        /* \"contracts/ACL.sol\":3537:3577  require(!isFrozen(_role), \"acl: frozen\") */\n      tag_333\n      jumpi\n      mload(0x40)\n      0x08c379a000000000000000000000000000000000000000000000000000000000\n      dup2\n      mstore\n      0x04\n      add\n      tag_334\n      swap1\n      jump(tag_321)\n    tag_334:\n      mload(0x40)\n      dup1\n      swap2\n      sub\n      swap1\n      revert\n    tag_333:\n        /* \"contracts/ACL.sol\":752:753  1 */\n      0x01\n        /* \"contracts/ACL.sol\":3596:3615  _who != FREEZE_FLAG */\n      0xffffffffffffffffffffffffffffffffffffffff\n      and\n        /* \"contracts/ACL.sol\":3596:3600  _who */\n      dup3\n        /* \"contracts/ACL.sol\":3596:3615  _who != FREEZE_FLAG */\n      0xffffffffffffffffffffffffffffffffffffffff\n      and\n      eq\n      iszero\n        /* \"contracts/ACL.sol\":3588:3635  require(_who != FREEZE_FLAG, \"acl: bad freeze\") */\n      tag_335\n      jumpi\n      mload(0x40)\n      0x08c379a000000000000000000000000000000000000000000000000000000000\n      dup2\n      mstore\n      0x04\n      add\n      tag_336\n      swap1\n      jump(tag_337)\n    tag_336:\n      mload(0x40)\n      dup1\n      swap2\n      sub\n      swap1\n      revert\n    tag_335:\n        /* \"contracts/ACL.sol\":3677:3684  _oracle */\n      dup1\n        /* \"contracts/ACL.sol\":3648:3653  roles */\n      0x03\n        /* \"contracts/ACL.sol\":3648:3660  roles[_role] */\n      0x00\n        /* \"contracts/ACL.sol\":3654:3659  _role */\n      dup6\n        /* \"contracts/ACL.sol\":3648:3660  roles[_role] */\n      not(0xffffffffffffffffffffffffffffffffffffffffffffffffffffffff)\n      and\n      not(0xffffffffffffffffffffffffffffffffffffffffffffffffffffffff)\n      and\n      dup2\n      mstore\n      0x20\n      add\n      swap1\n      dup2\n      mstore\n      0x20\n      add\n      0x00\n      keccak256\n        /* \"contracts/ACL.sol\":3648:3666  roles[_role][_who] */\n      0x00\n        /* \"contracts/ACL.sol\":3661:3665  _who */\n      dup5\n        /* \"contracts/ACL.sol\":3648:3666  roles[_role][_who] */\n      0xffffffffffffffffffffffffffffffffffffffff\n      and\n      0xffffffffffffffffffffffffffffffffffffffff\n      and\n      dup2\n      mstore\n      0x20\n      add\n      swap1\n      dup2\n      mstore\n      0x20\n      add\n      0x00\n      keccak256\n      0x00\n        /* \"contracts/ACL.sol\":3648:3685  roles[_role][_who] = address(_oracle) */\n      0x0100\n      exp\n      dup2\n      sload\n      dup2\n      0xffffffffffffffffffffffffffffffffffffffff\n      mul\n      not\n      and\n      swap1\n      dup4\n      0xffffffffffffffffffffffffffffffffffffffff\n      and\n      mul\n      or\n      swap1\n      sstore\n      pop\n        /* \"contracts/ACL.sol\":3728:3732  _who */\n      dup2\n        /* \"contracts/ACL.sol\":3701:3742  Granted(_role, msg.sender, _who, _oracle) */\n      0xffffffffffffffffffffffffffffffffffffffff\n      and\n        /* \"contracts/ACL.sol\":3716:3726  msg.sender */\n      caller\n        /* \"contracts/ACL.sol\":3701:3742  Granted(_role, msg.sender, _who, _oracle) */\n      0xffffffffffffffffffffffffffffffffffffffff\n      and\n        /* \"contracts/ACL.sol\":3709:3714  _role */\n      dup5\n        /* \"contracts/ACL.sol\":3701:3742  Granted(_role, msg.sender, _who, _oracle) */\n      not(0xffffffffffffffffffffffffffffffffffffffffffffffffffffffff)\n      and\n      0xc62063b81f7036fd97a0dc546516e99f11004d2d76ca0fddd3866346c86e7091\n        /* \"contracts/ACL.sol\":3734:3741  _oracle */\n      dup5\n        /* \"contracts/ACL.sol\":3701:3742  Granted(_role, msg.sender, _who, _oracle) */\n      mload(0x40)\n      tag_338\n      swap2\n      swap1\n      jump(tag_339)\n    tag_338:\n      mload(0x40)\n      dup1\n      swap2\n      sub\n      swap1\n      log4\n        /* \"contracts/ACL.sol\":3443:3750  function _grantWithOracle(bytes4 _role, address _who, IACLOracle _oracle) internal {\r... */\n      pop\n      pop\n      pop\n      jump\t// out\n        /* \"contracts/AdaptiveERC165.sol\":1250:1466  function _registerStandardAndCallback(bytes4 _interfaceId, bytes4 _callbackSig, bytes4 _magicNumber) internal {\r... */\n    tag_225:\n        /* \"contracts/AdaptiveERC165.sol\":1371:1402  _registerStandard(_interfaceId) */\n      tag_341\n        /* \"contracts/AdaptiveERC165.sol\":1389:1401  _interfaceId */\n      dup4\n        /* \"contracts/AdaptiveERC165.sol\":1371:1388  _registerStandard */\n      tag_306\n        /* \"contracts/AdaptiveERC165.sol\":1371:1402  _registerStandard(_interfaceId) */\n      jump\t// in\n    tag_341:\n        /* \"contracts/AdaptiveERC165.sol\":1413:1458  _registerCallback(_callbackSig, _magicNumber) */\n      tag_342\n        /* \"contracts/AdaptiveERC165.sol\":1431:1443  _callbackSig */\n      dup3\n        /* \"contracts/AdaptiveERC165.sol\":1445:1457  _magicNumber */\n      dup3\n        /* \"contracts/AdaptiveERC165.sol\":1413:1430  _registerCallback */\n      tag_343\n        /* \"contracts/AdaptiveERC165.sol\":1413:1458  _registerCallback(_callbackSig, _magicNumber) */\n      jump\t// in\n    tag_342:\n        /* \"contracts/AdaptiveERC165.sol\":1250:1466  function _registerStandardAndCallback(bytes4 _interfaceId, bytes4 _callbackSig, bytes4 _magicNumber) internal {\r... */\n      pop\n      pop\n      pop\n      jump\t// out\n        /* \"contracts/AddressUtils.sol\":716:882  function isContract(address addr) internal view returns (bool result) {\r... */\n    tag_240:\n        /* \"contracts/AddressUtils.sol\":773:784  bool result */\n      0x00\n        /* \"contracts/AddressUtils.sol\":857:861  addr */\n      dup2\n        /* \"contracts/AddressUtils.sol\":845:862  extcodesize(addr) */\n      extcodesize\n        /* \"contracts/AddressUtils.sol\":838:863  iszero(extcodesize(addr)) */\n      iszero\n        /* \"contracts/AddressUtils.sol\":831:864  iszero(iszero(extcodesize(addr))) */\n      iszero\n        /* \"contracts/AddressUtils.sol\":821:864  result := iszero(iszero(extcodesize(addr))) */\n      swap1\n      pop\n        /* \"contracts/AddressUtils.sol\":806:875  {\r... */\n      swap2\n      swap1\n      pop\n      jump\t// out\n        /* \"contracts/SafeERC20.sol\":2727:3105  function safeTransferFrom(ERC20 _token, address _from, address _to, uint256 _amount) internal returns (bool) {\r... */\n    tag_244:\n        /* \"contracts/SafeERC20.sol\":2830:2834  bool */\n      0x00\n        /* \"contracts/SafeERC20.sol\":2847:2880  bytes memory transferFromCallData */\n      0x60\n        /* \"contracts/SafeERC20.sol\":2920:2948  _token.transferFrom.selector */\n      shl(0xe0, 0x23b872dd)\n        /* \"contracts/SafeERC20.sol\":2963:2968  _from */\n      dup6\n        /* \"contracts/SafeERC20.sol\":2983:2986  _to */\n      dup6\n        /* \"contracts/SafeERC20.sol\":3001:3008  _amount */\n      dup6\n        /* \"contracts/SafeERC20.sol\":2883:3019  abi.encodeWithSelector(\r... */\n      add(0x24, mload(0x40))\n      tag_346\n      swap4\n      swap3\n      swap2\n      swap1\n      jump(tag_347)\n    tag_346:\n      mload(0x40)\n        /* \"--CODEGEN--\":49:53   */\n      0x20\n        /* \"--CODEGEN--\":39:46   */\n      dup2\n        /* \"--CODEGEN--\":30:37   */\n      dup4\n        /* \"--CODEGEN--\":26:47   */\n      sub\n        /* \"--CODEGEN--\":22:54   */\n      sub\n        /* \"--CODEGEN--\":13:20   */\n      dup2\n        /* \"--CODEGEN--\":6:55   */\n      mstore\n        /* \"contracts/SafeERC20.sol\":2883:3019  abi.encodeWithSelector(\r... */\n      swap1\n      0x40\n      mstore\n      swap1\n      not(0xffffffffffffffffffffffffffffffffffffffffffffffffffffffff)\n      and\n        /* \"--CODEGEN--\":38:42   */\n      0x20\n        /* \"--CODEGEN--\":29:36   */\n      dup3\n        /* \"--CODEGEN--\":25:43   */\n      add\n        /* \"--CODEGEN--\":67:77   */\n      dup1\n        /* \"--CODEGEN--\":61:78   */\n      mload\n        /* \"--CODEGEN--\":96:154   */\n      0xffffffffffffffffffffffffffffffffffffffffffffffffffffffff\n        /* \"--CODEGEN--\":199:207   */\n      dup4\n        /* \"--CODEGEN--\":192:196   */\n      dup2\n        /* \"--CODEGEN--\":186:190   */\n      dup4\n        /* \"--CODEGEN--\":182:197   */\n      and\n        /* \"--CODEGEN--\":179:208   */\n      or\n        /* \"--CODEGEN--\":167:177   */\n      dup4\n        /* \"--CODEGEN--\":160:209   */\n      mstore\n        /* \"--CODEGEN--\":0:215   */\n      pop\n      pop\n      pop\n        /* \"contracts/SafeERC20.sol\":2883:3019  abi.encodeWithSelector(\r... */\n      pop\n        /* \"contracts/SafeERC20.sol\":2847:3019  bytes memory transferFromCallData = abi.encodeWithSelector(\r... */\n      swap1\n      pop\n        /* \"contracts/SafeERC20.sol\":3037:3097  invokeAndCheckSuccess(address(_token), transferFromCallData) */\n      tag_348\n        /* \"contracts/SafeERC20.sol\":3067:3073  _token */\n      dup7\n        /* \"contracts/SafeERC20.sol\":3076:3096  transferFromCallData */\n      dup3\n        /* \"contracts/SafeERC20.sol\":3037:3058  invokeAndCheckSuccess */\n      tag_330\n        /* \"contracts/SafeERC20.sol\":3037:3097  invokeAndCheckSuccess(address(_token), transferFromCallData) */\n      jump\t// in\n    tag_348:\n        /* \"contracts/SafeERC20.sol\":3030:3097  return invokeAndCheckSuccess(address(_token), transferFromCallData) */\n      swap2\n      pop\n      pop\n        /* \"contracts/SafeERC20.sol\":2727:3105  function safeTransferFrom(ERC20 _token, address _from, address _to, uint256 _amount) internal returns (bool) {\r... */\n      swap5\n      swap4\n      pop\n      pop\n      pop\n      pop\n      jump\t// out\n        /* \"contracts/BitmapLib.sol\":301:427  function get(bytes32 map, uint8 index) internal pure returns (bool) {\r... */\n    tag_272:\n        /* \"contracts/BitmapLib.sol\":363:367  bool */\n      0x00\n        /* \"contracts/BitmapLib.sol\":418:419  1 */\n      0x01\n        /* \"contracts/BitmapLib.sol\":412:413  1 */\n      dup1\n        /* \"contracts/BitmapLib.sol\":404:409  index */\n      dup4\n        /* \"contracts/BitmapLib.sol\":388:409  uint256(map) >> index */\n      0xff\n      and\n        /* \"contracts/BitmapLib.sol\":396:399  map */\n      dup6\n        /* \"contracts/BitmapLib.sol\":388:400  uint256(map) */\n      0x00\n      shr\n        /* \"contracts/BitmapLib.sol\":388:409  uint256(map) >> index */\n      swap1\n      shr\n        /* \"contracts/BitmapLib.sol\":388:413  uint256(map) >> index & 1 */\n      and\n        /* \"contracts/BitmapLib.sol\":387:419  (uint256(map) >> index & 1) == 1 */\n      eq\n        /* \"contracts/BitmapLib.sol\":380:419  return (uint256(map) >> index & 1) == 1 */\n      swap1\n      pop\n        /* \"contracts/BitmapLib.sol\":301:427  function get(bytes32 map, uint8 index) internal pure returns (bool) {\r... */\n      swap3\n      swap2\n      pop\n      pop\n      jump\t// out\n        /* \"contracts/BitmapLib.sol\":152:293  function flip(bytes32 map, uint8 index) internal pure returns (bytes32) {\r... */\n    tag_277:\n        /* \"contracts/BitmapLib.sol\":215:222  bytes32 */\n      0x00\n        /* \"contracts/BitmapLib.sol\":279:284  index */\n      dup2\n        /* \"contracts/BitmapLib.sol\":265:284  uint256(1) << index */\n      0xff\n      and\n        /* \"contracts/BitmapLib.sol\":273:274  1 */\n      0x01\n        /* \"contracts/BitmapLib.sol\":265:284  uint256(1) << index */\n      swap1\n      shl\n        /* \"contracts/BitmapLib.sol\":258:261  map */\n      dup4\n        /* \"contracts/BitmapLib.sol\":250:262  uint256(map) */\n      0x00\n      shr\n        /* \"contracts/BitmapLib.sol\":250:284  uint256(map) ^ uint256(1) << index */\n      xor\n        /* \"contracts/BitmapLib.sol\":242:285  bytes32(uint256(map) ^ uint256(1) << index) */\n      0x00\n      shl\n        /* \"contracts/BitmapLib.sol\":235:285  return bytes32(uint256(map) ^ uint256(1) << index) */\n      swap1\n      pop\n        /* \"contracts/BitmapLib.sol\":152:293  function flip(bytes32 map, uint8 index) internal pure returns (bytes32) {\r... */\n      swap3\n      swap2\n      pop\n      pop\n      jump\t// out\n        /* \"contracts/ACL.sol\":3181:3302  function _initializeACL(address _initialRoot) internal onlyInit(\"acl\") {\r... */\n    tag_287:\n        /* \"contracts/Initializable.sol\":203:411  modifier onlyInit(string memory key) {\r... */\n      mload(0x40)\n      dup1\n      0x40\n      add\n      0x40\n      mstore\n      dup1\n      0x03\n      dup2\n      mstore\n      0x20\n      add\n      0x61636c0000000000000000000000000000000000000000000000000000000000\n      dup2\n      mstore\n      pop\n        /* \"contracts/Initializable.sol\":278:279  0 */\n      0x00\n        /* \"contracts/Initializable.sol\":259:269  initBlocks */\n      0x02\n        /* \"contracts/Initializable.sol\":270:273  key */\n      dup3\n        /* \"contracts/Initializable.sol\":259:274  initBlocks[key] */\n      mload(0x40)\n      tag_352\n      swap2\n      swap1\n      jump(tag_294)\n    tag_352:\n      swap1\n      dup2\n      mstore\n      0x20\n      add\n      mload(0x40)\n      dup1\n      swap2\n      sub\n      swap1\n      keccak256\n      sload\n        /* \"contracts/Initializable.sol\":259:279  initBlocks[key] == 0 */\n      eq\n        /* \"contracts/Initializable.sol\":251:318  require(initBlocks[key] == 0, \"initializable: already initialized\") */\n      tag_353\n      jumpi\n      mload(0x40)\n      0x08c379a000000000000000000000000000000000000000000000000000000000\n      dup2\n      mstore\n      0x04\n      add\n      tag_354\n      swap1\n      jump(tag_297)\n    tag_354:\n      mload(0x40)\n      dup1\n      swap2\n      sub\n      swap1\n      revert\n    tag_353:\n        /* \"contracts/Initializable.sol\":347:359  block.number */\n      number\n        /* \"contracts/Initializable.sol\":329:339  initBlocks */\n      0x02\n        /* \"contracts/Initializable.sol\":340:343  key */\n      dup3\n        /* \"contracts/Initializable.sol\":329:344  initBlocks[key] */\n      mload(0x40)\n      tag_355\n      swap2\n      swap1\n      jump(tag_294)\n    tag_355:\n      swap1\n      dup2\n      mstore\n      0x20\n      add\n      mload(0x40)\n      dup1\n      swap2\n      sub\n      swap1\n      keccak256\n        /* \"contracts/Initializable.sol\":329:359  initBlocks[key] = block.number */\n      dup2\n      swap1\n      sstore\n      pop\n        /* \"contracts/ACL.sol\":3263:3294  _grant(ROOT_ROLE, _initialRoot) */\n      tag_357\n        /* \"contracts/ACL.sol\":511:529  this.bulk.selector */\n      shl(0xe0, 0x1c47671b)\n        /* \"contracts/ACL.sol\":479:499  this.freeze.selector */\n      shl(0xe0, 0xbdf9a726)\n        /* \"contracts/ACL.sol\":447:467  this.revoke.selector */\n      shl(0xe0, 0x58849734)\n        /* \"contracts/ACL.sol\":416:435  this.grant.selector */\n      shl(0xe0, 0xa157a10d)\n        /* \"contracts/ACL.sol\":416:467  this.grant.selector\r... */\n      xor\n        /* \"contracts/ACL.sol\":416:499  this.grant.selector\r... */\n      xor\n        /* \"contracts/ACL.sol\":416:529  this.grant.selector\r... */\n      xor\n        /* \"contracts/ACL.sol\":3281:3293  _initialRoot */\n      dup4\n        /* \"contracts/ACL.sol\":3263:3269  _grant */\n      tag_160\n        /* \"contracts/ACL.sol\":3263:3294  _grant(ROOT_ROLE, _initialRoot) */\n      jump\t// in\n    tag_357:\n        /* \"contracts/Initializable.sol\":399:402  key */\n      dup1\n        /* \"contracts/Initializable.sol\":387:403  Initialized(key) */\n      mload(0x40)\n      tag_358\n      swap2\n      swap1\n      jump(tag_294)\n    tag_358:\n      mload(0x40)\n      dup1\n      swap2\n      sub\n      swap1\n      keccak256\n      0x7bc2a48a4a566e237a12186f19d985b0f76afc9d5290601edac19876253670c2\n      mload(0x40)\n      mload(0x40)\n      dup1\n      swap2\n      sub\n      swap1\n      log2\n        /* \"contracts/ACL.sol\":3181:3302  function _initializeACL(address _initialRoot) internal onlyInit(\"acl\") {\r... */\n      pop\n      pop\n      jump\t// out\n        /* \"contracts/AdaptiveERC165.sol\":1474:1636  function _registerStandard(bytes4 _interfaceId) internal {\r... */\n    tag_306:\n        /* \"contracts/AdaptiveERC165.sol\":1576:1580  true */\n      0x01\n        /* \"contracts/AdaptiveERC165.sol\":1542:1559  standardSupported */\n      0x00\n        /* \"contracts/AdaptiveERC165.sol\":1542:1573  standardSupported[_interfaceId] */\n      dup1\n        /* \"contracts/AdaptiveERC165.sol\":1560:1572  _interfaceId */\n      dup4\n        /* \"contracts/AdaptiveERC165.sol\":1542:1573  standardSupported[_interfaceId] */\n      not(0xffffffffffffffffffffffffffffffffffffffffffffffffffffffff)\n      and\n      not(0xffffffffffffffffffffffffffffffffffffffffffffffffffffffff)\n      and\n      dup2\n      mstore\n      0x20\n      add\n      swap1\n      dup2\n      mstore\n      0x20\n      add\n      0x00\n      keccak256\n      0x00\n        /* \"contracts/AdaptiveERC165.sol\":1542:1580  standardSupported[_interfaceId] = true */\n      0x0100\n      exp\n      dup2\n      sload\n      dup2\n      0xff\n      mul\n      not\n      and\n      swap1\n      dup4\n      iszero\n      iszero\n      mul\n      or\n      swap1\n      sstore\n      pop\n        /* \"contracts/AdaptiveERC165.sol\":1596:1628  RegisteredStandard(_interfaceId) */\n      0xbf5e1f87f5ab65b58074cd29244d7c487a948983cda4b932e0f966b62bd34aca\n        /* \"contracts/AdaptiveERC165.sol\":1615:1627  _interfaceId */\n      dup2\n        /* \"contracts/AdaptiveERC165.sol\":1596:1628  RegisteredStandard(_interfaceId) */\n      mload(0x40)\n      tag_360\n      swap2\n      swap1\n      jump(tag_45)\n    tag_360:\n      mload(0x40)\n      dup1\n      swap2\n      sub\n      swap1\n      log1\n        /* \"contracts/AdaptiveERC165.sol\":1474:1636  function _registerStandard(bytes4 _interfaceId) internal {\r... */\n      pop\n      jump\t// out\n        /* \"contracts/ACL.sol\":4171:4760  function _checkRole(bytes4 _role, address _who, bytes memory _data) internal returns (bool) {\r... */\n    tag_312:\n        /* \"contracts/ACL.sol\":4257:4261  bool */\n      0x00\n        /* \"contracts/ACL.sol\":4274:4303  address accessFlagOrAclOracle */\n      dup1\n        /* \"contracts/ACL.sol\":4306:4311  roles */\n      0x03\n        /* \"contracts/ACL.sol\":4306:4318  roles[_role] */\n      0x00\n        /* \"contracts/ACL.sol\":4312:4317  _role */\n      dup7\n        /* \"contracts/ACL.sol\":4306:4318  roles[_role] */\n      not(0xffffffffffffffffffffffffffffffffffffffffffffffffffffffff)\n      and\n      not(0xffffffffffffffffffffffffffffffffffffffffffffffffffffffff)\n      and\n      dup2\n      mstore\n      0x20\n      add\n      swap1\n      dup2\n      mstore\n      0x20\n      add\n      0x00\n      keccak256\n        /* \"contracts/ACL.sol\":4306:4324  roles[_role][_who] */\n      0x00\n        /* \"contracts/ACL.sol\":4319:4323  _who */\n      dup6\n        /* \"contracts/ACL.sol\":4306:4324  roles[_role][_who] */\n      0xffffffffffffffffffffffffffffffffffffffff\n      and\n      0xffffffffffffffffffffffffffffffffffffffff\n      and\n      dup2\n      mstore\n      0x20\n      add\n      swap1\n      dup2\n      mstore\n      0x20\n      add\n      0x00\n      keccak256\n      0x00\n      swap1\n      sload\n      swap1\n      0x0100\n      exp\n      swap1\n      div\n      0xffffffffffffffffffffffffffffffffffffffff\n      and\n        /* \"contracts/ACL.sol\":4274:4324  address accessFlagOrAclOracle = roles[_role][_who] */\n      swap1\n      pop\n        /* \"contracts/ACL.sol\":695:696  0 */\n      0x00\n        /* \"contracts/ACL.sol\":4339:4374  accessFlagOrAclOracle != UNSET_ROLE */\n      0xffffffffffffffffffffffffffffffffffffffff\n      and\n        /* \"contracts/ACL.sol\":4339:4360  accessFlagOrAclOracle */\n      dup2\n        /* \"contracts/ACL.sol\":4339:4374  accessFlagOrAclOracle != UNSET_ROLE */\n      0xffffffffffffffffffffffffffffffffffffffff\n      and\n      eq\n        /* \"contracts/ACL.sol\":4335:4728  if (accessFlagOrAclOracle != UNSET_ROLE) {\r... */\n      tag_362\n      jumpi\n        /* \"contracts/ACL.sol\":830:831  2 */\n      0x02\n        /* \"contracts/ACL.sol\":4395:4430  accessFlagOrAclOracle == ALLOW_FLAG */\n      0xffffffffffffffffffffffffffffffffffffffff\n      and\n        /* \"contracts/ACL.sol\":4395:4416  accessFlagOrAclOracle */\n      dup2\n        /* \"contracts/ACL.sol\":4395:4430  accessFlagOrAclOracle == ALLOW_FLAG */\n      0xffffffffffffffffffffffffffffffffffffffff\n      and\n      eq\n        /* \"contracts/ACL.sol\":4391:4443  if (accessFlagOrAclOracle == ALLOW_FLAG) return true */\n      iszero\n      tag_363\n      jumpi\n        /* \"contracts/ACL.sol\":4439:4443  true */\n      0x01\n        /* \"contracts/ACL.sol\":4432:4443  return true */\n      swap2\n      pop\n      pop\n      jump(tag_361)\n        /* \"contracts/ACL.sol\":4391:4443  if (accessFlagOrAclOracle == ALLOW_FLAG) return true */\n    tag_363:\n        /* \"contracts/ACL.sol\":4570:4591  accessFlagOrAclOracle */\n      dup1\n        /* \"contracts/ACL.sol\":4559:4604  IACLOracle(accessFlagOrAclOracle).willPerform */\n      0xffffffffffffffffffffffffffffffffffffffff\n      and\n      0x097c8108\n        /* \"contracts/ACL.sol\":4605:4610  _role */\n      dup7\n        /* \"contracts/ACL.sol\":4612:4616  _who */\n      dup7\n        /* \"contracts/ACL.sol\":4618:4623  _data */\n      dup7\n        /* \"contracts/ACL.sol\":4559:4624  IACLOracle(accessFlagOrAclOracle).willPerform(_role, _who, _data) */\n      mload(0x40)\n      dup5\n      0xffffffff\n      and\n      0xe0\n      shl\n      dup2\n      mstore\n      0x04\n      add\n      tag_364\n      swap4\n      swap3\n      swap2\n      swap1\n      jump(tag_365)\n    tag_364:\n      0x20\n      mload(0x40)\n      dup1\n      dup4\n      sub\n      dup2\n      0x00\n      dup8\n      dup1\n      extcodesize\n      iszero\n        /* \"--CODEGEN--\":5:14   */\n      dup1\n        /* \"--CODEGEN--\":2:4   */\n      iszero\n      tag_366\n      jumpi\n        /* \"--CODEGEN--\":27:28   */\n      0x00\n        /* \"--CODEGEN--\":24:25   */\n      dup1\n        /* \"--CODEGEN--\":17:29   */\n      revert\n        /* \"--CODEGEN--\":2:4   */\n    tag_366:\n        /* \"contracts/ACL.sol\":4559:4624  IACLOracle(accessFlagOrAclOracle).willPerform(_role, _who, _data) */\n      pop\n      gas\n      call\n      swap3\n      pop\n      pop\n      pop\n      dup1\n      iszero\n      tag_367\n      jumpi\n      pop\n      mload(0x40)\n      returndatasize\n        /* \"--CODEGEN--\":101:105   */\n      0x1f\n        /* \"--CODEGEN--\":97:106   */\n      not\n        /* \"--CODEGEN--\":90:94   */\n      0x1f\n        /* \"--CODEGEN--\":84:88   */\n      dup3\n        /* \"--CODEGEN--\":80:95   */\n      add\n        /* \"--CODEGEN--\":76:107   */\n      and\n        /* \"--CODEGEN--\":69:74   */\n      dup3\n        /* \"--CODEGEN--\":65:108   */\n      add\n        /* \"--CODEGEN--\":126:132   */\n      dup1\n        /* \"--CODEGEN--\":120:124   */\n      0x40\n        /* \"--CODEGEN--\":113:133   */\n      mstore\n        /* \"--CODEGEN--\":0:138   */\n      pop\n        /* \"contracts/ACL.sol\":4559:4624  IACLOracle(accessFlagOrAclOracle).willPerform(_role, _who, _data) */\n      dup2\n      add\n      swap1\n      tag_368\n      swap2\n      swap1\n      jump(tag_369)\n    tag_368:\n      0x01\n    tag_367:\n        /* \"contracts/ACL.sol\":4555:4717  try IACLOracle(accessFlagOrAclOracle).willPerform(_role, _who, _data) returns (bool allowed) {\r... */\n      tag_370\n      jumpi\n      jump(tag_373)\n    tag_370:\n        /* \"contracts/ACL.sol\":4671:4678  allowed */\n      dup1\n        /* \"contracts/ACL.sol\":4667:4691  if (allowed) return true */\n      iszero\n      tag_374\n      jumpi\n        /* \"contracts/ACL.sol\":4687:4691  true */\n      0x01\n        /* \"contracts/ACL.sol\":4680:4691  return true */\n      swap3\n      pop\n      pop\n      pop\n      jump(tag_361)\n        /* \"contracts/ACL.sol\":4667:4691  if (allowed) return true */\n    tag_374:\n        /* \"contracts/ACL.sol\":4625:4707  returns (bool allowed) {\r... */\n      pop\n        /* \"contracts/ACL.sol\":4555:4717  try IACLOracle(accessFlagOrAclOracle).willPerform(_role, _who, _data) returns (bool allowed) {\r... */\n    tag_373:\n        /* \"contracts/ACL.sol\":4335:4728  if (accessFlagOrAclOracle != UNSET_ROLE) {\r... */\n    tag_362:\n        /* \"contracts/ACL.sol\":4747:4752  false */\n      0x00\n        /* \"contracts/ACL.sol\":4740:4752  return false */\n      swap2\n      pop\n      pop\n        /* \"contracts/ACL.sol\":4171:4760  function _checkRole(bytes4 _role, address _who, bytes memory _data) internal returns (bool) {\r... */\n    tag_361:\n      swap4\n      swap3\n      pop\n      pop\n      pop\n      jump\t// out\n        /* \"contracts/SafeERC20.sol\":600:2028  function invokeAndCheckSuccess(address _addr, bytes memory _calldata)\r... */\n    tag_330:\n        /* \"contracts/SafeERC20.sol\":705:713  bool ret */\n      0x00\n        /* \"contracts/SafeERC20.sol\":736:754  _addr.isContract() */\n      tag_376\n        /* \"contracts/SafeERC20.sol\":736:741  _addr */\n      dup4\n        /* \"contracts/SafeERC20.sol\":736:752  _addr.isContract */\n      0xffffffffffffffffffffffffffffffffffffffff\n      and\n      tag_240\n        /* \"contracts/SafeERC20.sol\":736:754  _addr.isContract() */\n      jump\t// in\n    tag_376:\n        /* \"contracts/SafeERC20.sol\":731:795  if (!_addr.isContract()) {\r... */\n      tag_377\n      jumpi\n        /* \"contracts/SafeERC20.sol\":778:783  false */\n      0x00\n        /* \"contracts/SafeERC20.sol\":771:783  return false */\n      swap1\n      pop\n      jump(tag_375)\n        /* \"contracts/SafeERC20.sol\":731:795  if (!_addr.isContract()) {\r... */\n    tag_377:\n        /* \"contracts/SafeERC20.sol\":848:852  0x40 */\n      0x40\n        /* \"contracts/SafeERC20.sol\":842:853  mload(0x40) */\n      mload\n        /* \"contracts/SafeERC20.sol\":1275:1279  0x20 */\n      0x20\n        /* \"contracts/SafeERC20.sol\":1203:1206  ptr */\n      dup2\n        /* \"contracts/SafeERC20.sol\":1151:1160  _calldata */\n      dup5\n        /* \"contracts/SafeERC20.sol\":1145:1161  mload(_calldata) */\n      mload\n        /* \"contracts/SafeERC20.sol\":1103:1107  0x20 */\n      0x20\n        /* \"contracts/SafeERC20.sol\":1092:1101  _calldata */\n      dup7\n        /* \"contracts/SafeERC20.sol\":1088:1108  add(_calldata, 0x20) */\n      add\n        /* \"contracts/SafeERC20.sol\":1037:1038  0 */\n      0x00\n        /* \"contracts/SafeERC20.sol\":987:992  _addr */\n      dup9\n        /* \"contracts/SafeERC20.sol\":933:938  gas() */\n      gas\n        /* \"contracts/SafeERC20.sol\":910:1329  call(\r... */\n      call\n        /* \"contracts/SafeERC20.sol\":1360:1361  0 */\n      0x00\n        /* \"contracts/SafeERC20.sol\":1351:1358  success */\n      dup2\n        /* \"contracts/SafeERC20.sol\":1348:1362  gt(success, 0) */\n      gt\n        /* \"contracts/SafeERC20.sol\":1345:1347  if */\n      iszero\n      tag_378\n      jumpi\n        /* \"contracts/SafeERC20.sol\":1464:1480  returndatasize() */\n      returndatasize\n        /* \"contracts/SafeERC20.sol\":1559:1560  0 */\n      0x00\n        /* \"contracts/SafeERC20.sol\":1554:1611  case 0 {\r... */\n      dup2\n      eq\n      tag_380\n      jumpi\n        /* \"contracts/SafeERC20.sol\":1693:1697  0x20 */\n      0x20\n        /* \"contracts/SafeERC20.sol\":1688:1894  case 0x20 {\r... */\n      dup2\n      eq\n      tag_381\n      jumpi\n        /* \"contracts/SafeERC20.sol\":1457:1995  switch returndatasize()\r... */\n      jump(tag_379)\n        /* \"contracts/SafeERC20.sol\":1554:1611  case 0 {\r... */\n    tag_380:\n        /* \"contracts/SafeERC20.sol\":1591:1592  1 */\n      0x01\n        /* \"contracts/SafeERC20.sol\":1584:1592  ret := 1 */\n      swap4\n      pop\n        /* \"contracts/SafeERC20.sol\":1554:1611  case 0 {\r... */\n      jump(tag_379)\n        /* \"contracts/SafeERC20.sol\":1688:1894  case 0x20 {\r... */\n    tag_381:\n        /* \"contracts/SafeERC20.sol\":1869:1872  ptr */\n      dup3\n        /* \"contracts/SafeERC20.sol\":1863:1873  mload(ptr) */\n      mload\n        /* \"contracts/SafeERC20.sol\":1856:1874  iszero(mload(ptr)) */\n      iszero\n        /* \"contracts/SafeERC20.sol\":1849:1875  iszero(iszero(mload(ptr))) */\n      iszero\n        /* \"contracts/SafeERC20.sol\":1842:1875  ret := iszero(iszero(mload(ptr))) */\n      swap4\n      pop\n        /* \"contracts/SafeERC20.sol\":1457:1995  switch returndatasize()\r... */\n    tag_379:\n      pop\n        /* \"contracts/SafeERC20.sol\":1345:1347  if */\n    tag_378:\n        /* \"contracts/SafeERC20.sol\":816:2021  {\r... */\n      pop\n      pop\n    tag_375:\n      swap3\n      swap2\n      pop\n      pop\n      jump\t// out\n        /* \"contracts/AdaptiveERC165.sol\":1644:1852  function _registerCallback(bytes4 _callbackSig, bytes4 _magicNumber) internal {\r... */\n    tag_343:\n        /* \"contracts/AdaptiveERC165.sol\":1770:1782  _magicNumber */\n      dup1\n        /* \"contracts/AdaptiveERC165.sol\":1733:1782  callbackMagicNumbers[_callbackSig] = _magicNumber */\n      not(0xffffffffffffffffffffffffffffffffffffffffffffffffffffffff)\n      and\n        /* \"contracts/AdaptiveERC165.sol\":1733:1753  callbackMagicNumbers */\n      0x01\n        /* \"contracts/AdaptiveERC165.sol\":1733:1767  callbackMagicNumbers[_callbackSig] */\n      0x00\n        /* \"contracts/AdaptiveERC165.sol\":1754:1766  _callbackSig */\n      dup5\n        /* \"contracts/AdaptiveERC165.sol\":1733:1767  callbackMagicNumbers[_callbackSig] */\n      not(0xffffffffffffffffffffffffffffffffffffffffffffffffffffffff)\n      and\n      not(0xffffffffffffffffffffffffffffffffffffffffffffffffffffffff)\n      and\n      dup2\n      mstore\n      0x20\n      add\n      swap1\n      dup2\n      mstore\n      0x20\n      add\n      0x00\n      keccak256\n        /* \"contracts/AdaptiveERC165.sol\":1733:1782  callbackMagicNumbers[_callbackSig] = _magicNumber */\n      dup2\n      swap1\n      sstore\n      pop\n        /* \"contracts/AdaptiveERC165.sol\":1798:1844  RegisteredCallback(_callbackSig, _magicNumber) */\n      0x93d5961296b43c7ce4028f69e1b1469851106225a65d1a7f87fe48edf7f100d8\n        /* \"contracts/AdaptiveERC165.sol\":1817:1829  _callbackSig */\n      dup3\n        /* \"contracts/AdaptiveERC165.sol\":1831:1843  _magicNumber */\n      dup3\n        /* \"contracts/AdaptiveERC165.sol\":1798:1844  RegisteredCallback(_callbackSig, _magicNumber) */\n      mload(0x40)\n      tag_383\n      swap3\n      swap2\n      swap1\n      jump(tag_384)\n    tag_383:\n      mload(0x40)\n      dup1\n      swap2\n      sub\n      swap1\n      log1\n        /* \"contracts/AdaptiveERC165.sol\":1644:1852  function _registerCallback(bytes4 _callbackSig, bytes4 _magicNumber) internal {\r... */\n      pop\n      pop\n      jump\t// out\n    tag_152:\n      mload(0x40)\n      dup1\n      0x60\n      add\n      0x40\n      mstore\n      dup1\n      0x00\n      0x02\n      dup2\n      gt\n      iszero\n      tag_385\n      jumpi\n      invalid\n    tag_385:\n      dup2\n      mstore\n      0x20\n      add\n      and(not(0xffffffffffffffffffffffffffffffffffffffffffffffffffffffff), 0x00)\n      dup2\n      mstore\n      0x20\n      add\n      and(0xffffffffffffffffffffffffffffffffffffffff, 0x00)\n      dup2\n      mstore\n      pop\n      swap1\n      jump\t// out\n        /* \"--CODEGEN--\":5:135   */\n    tag_387:\n      0x00\n        /* \"--CODEGEN--\":85:91   */\n      dup2\n        /* \"--CODEGEN--\":72:92   */\n      calldataload\n        /* \"--CODEGEN--\":63:92   */\n      swap1\n      pop\n        /* \"--CODEGEN--\":97:130   */\n      tag_389\n        /* \"--CODEGEN--\":124:129   */\n      dup2\n        /* \"--CODEGEN--\":97:130   */\n      jump(tag_390)\n    tag_389:\n        /* \"--CODEGEN--\":57:135   */\n      swap3\n      swap2\n      pop\n      pop\n      jump\n        /* \"--CODEGEN--\":178:925   */\n    tag_391:\n      0x00\n        /* \"--CODEGEN--\":318:321   */\n      dup3\n        /* \"--CODEGEN--\":311:315   */\n      0x1f\n        /* \"--CODEGEN--\":303:309   */\n      dup4\n        /* \"--CODEGEN--\":299:316   */\n      add\n        /* \"--CODEGEN--\":295:322   */\n      slt\n        /* \"--CODEGEN--\":285:287   */\n      tag_393\n      jumpi\n        /* \"--CODEGEN--\":336:337   */\n      0x00\n        /* \"--CODEGEN--\":333:334   */\n      dup1\n        /* \"--CODEGEN--\":326:338   */\n      revert\n        /* \"--CODEGEN--\":285:287   */\n    tag_393:\n        /* \"--CODEGEN--\":373:379   */\n      dup2\n        /* \"--CODEGEN--\":360:380   */\n      calldataload\n        /* \"--CODEGEN--\":395:498   */\n      tag_394\n        /* \"--CODEGEN--\":410:497   */\n      tag_395\n        /* \"--CODEGEN--\":490:496   */\n      dup3\n        /* \"--CODEGEN--\":410:497   */\n      jump(tag_396)\n    tag_395:\n        /* \"--CODEGEN--\":395:498   */\n      jump(tag_397)\n    tag_394:\n        /* \"--CODEGEN--\":386:498   */\n      swap2\n      pop\n        /* \"--CODEGEN--\":515:520   */\n      dup2\n        /* \"--CODEGEN--\":540:546   */\n      dup2\n        /* \"--CODEGEN--\":533:538   */\n      dup4\n        /* \"--CODEGEN--\":526:547   */\n      mstore\n        /* \"--CODEGEN--\":570:574   */\n      0x20\n        /* \"--CODEGEN--\":562:568   */\n      dup5\n        /* \"--CODEGEN--\":558:575   */\n      add\n        /* \"--CODEGEN--\":548:575   */\n      swap4\n      pop\n        /* \"--CODEGEN--\":592:596   */\n      0x20\n        /* \"--CODEGEN--\":587:590   */\n      dup2\n        /* \"--CODEGEN--\":583:597   */\n      add\n        /* \"--CODEGEN--\":576:597   */\n      swap1\n      pop\n        /* \"--CODEGEN--\":645:651   */\n      dup4\n        /* \"--CODEGEN--\":678:679   */\n      0x00\n        /* \"--CODEGEN--\":663:919   */\n    tag_398:\n        /* \"--CODEGEN--\":688:694   */\n      dup4\n        /* \"--CODEGEN--\":685:686   */\n      dup2\n        /* \"--CODEGEN--\":682:695   */\n      lt\n        /* \"--CODEGEN--\":663:919   */\n      iszero\n      tag_400\n      jumpi\n        /* \"--CODEGEN--\":771:774   */\n      dup2\n        /* \"--CODEGEN--\":758:775   */\n      calldataload\n        /* \"--CODEGEN--\":750:756   */\n      dup7\n        /* \"--CODEGEN--\":746:776   */\n      add\n        /* \"--CODEGEN--\":795:855   */\n      tag_401\n        /* \"--CODEGEN--\":851:854   */\n      dup9\n        /* \"--CODEGEN--\":839:849   */\n      dup3\n        /* \"--CODEGEN--\":795:855   */\n      jump(tag_402)\n    tag_401:\n        /* \"--CODEGEN--\":790:793   */\n      dup5\n        /* \"--CODEGEN--\":783:856   */\n      mstore\n        /* \"--CODEGEN--\":879:883   */\n      0x20\n        /* \"--CODEGEN--\":874:877   */\n      dup5\n        /* \"--CODEGEN--\":870:884   */\n      add\n        /* \"--CODEGEN--\":863:884   */\n      swap4\n      pop\n        /* \"--CODEGEN--\":907:911   */\n      0x20\n        /* \"--CODEGEN--\":902:905   */\n      dup4\n        /* \"--CODEGEN--\":898:912   */\n      add\n        /* \"--CODEGEN--\":891:912   */\n      swap3\n      pop\n        /* \"--CODEGEN--\":720:919   */\n      pop\n        /* \"--CODEGEN--\":710:711   */\n      0x01\n        /* \"--CODEGEN--\":707:708   */\n      dup2\n        /* \"--CODEGEN--\":703:712   */\n      add\n        /* \"--CODEGEN--\":698:712   */\n      swap1\n      pop\n        /* \"--CODEGEN--\":663:919   */\n      jump(tag_398)\n    tag_400:\n        /* \"--CODEGEN--\":667:681   */\n      pop\n        /* \"--CODEGEN--\":278:925   */\n      pop\n      pop\n      pop\n      swap3\n      swap2\n      pop\n      pop\n      jump\n        /* \"--CODEGEN--\":967:1345   */\n    tag_403:\n      0x00\n      dup1\n        /* \"--CODEGEN--\":1123:1126   */\n      dup4\n        /* \"--CODEGEN--\":1116:1120   */\n      0x1f\n        /* \"--CODEGEN--\":1108:1114   */\n      dup5\n        /* \"--CODEGEN--\":1104:1121   */\n      add\n        /* \"--CODEGEN--\":1100:1127   */\n      slt\n        /* \"--CODEGEN--\":1090:1092   */\n      tag_405\n      jumpi\n        /* \"--CODEGEN--\":1141:1142   */\n      0x00\n        /* \"--CODEGEN--\":1138:1139   */\n      dup1\n        /* \"--CODEGEN--\":1131:1143   */\n      revert\n        /* \"--CODEGEN--\":1090:1092   */\n    tag_405:\n        /* \"--CODEGEN--\":1174:1180   */\n      dup3\n        /* \"--CODEGEN--\":1161:1181   */\n      calldataload\n        /* \"--CODEGEN--\":1151:1181   */\n      swap1\n      pop\n        /* \"--CODEGEN--\":1201:1219   */\n      0xffffffffffffffff\n        /* \"--CODEGEN--\":1193:1199   */\n      dup2\n        /* \"--CODEGEN--\":1190:1220   */\n      gt\n        /* \"--CODEGEN--\":1187:1189   */\n      iszero\n      tag_406\n      jumpi\n        /* \"--CODEGEN--\":1233:1234   */\n      0x00\n        /* \"--CODEGEN--\":1230:1231   */\n      dup1\n        /* \"--CODEGEN--\":1223:1235   */\n      revert\n        /* \"--CODEGEN--\":1187:1189   */\n    tag_406:\n        /* \"--CODEGEN--\":1267:1271   */\n      0x20\n        /* \"--CODEGEN--\":1259:1265   */\n      dup4\n        /* \"--CODEGEN--\":1255:1272   */\n      add\n        /* \"--CODEGEN--\":1243:1272   */\n      swap2\n      pop\n        /* \"--CODEGEN--\":1318:1321   */\n      dup4\n        /* \"--CODEGEN--\":1310:1314   */\n      0x60\n        /* \"--CODEGEN--\":1302:1308   */\n      dup3\n        /* \"--CODEGEN--\":1298:1315   */\n      mul\n        /* \"--CODEGEN--\":1288:1296   */\n      dup4\n        /* \"--CODEGEN--\":1284:1316   */\n      add\n        /* \"--CODEGEN--\":1281:1322   */\n      gt\n        /* \"--CODEGEN--\":1278:1280   */\n      iszero\n      tag_407\n      jumpi\n        /* \"--CODEGEN--\":1335:1336   */\n      0x00\n        /* \"--CODEGEN--\":1332:1333   */\n      dup1\n        /* \"--CODEGEN--\":1325:1337   */\n      revert\n        /* \"--CODEGEN--\":1278:1280   */\n    tag_407:\n        /* \"--CODEGEN--\":1083:1345   */\n      swap3\n      pop\n      swap3\n      swap1\n      pop\n      jump\n        /* \"--CODEGEN--\":1353:1481   */\n    tag_408:\n      0x00\n        /* \"--CODEGEN--\":1434:1440   */\n      dup2\n        /* \"--CODEGEN--\":1428:1441   */\n      mload\n        /* \"--CODEGEN--\":1419:1441   */\n      swap1\n      pop\n        /* \"--CODEGEN--\":1446:1476   */\n      tag_410\n        /* \"--CODEGEN--\":1470:1475   */\n      dup2\n        /* \"--CODEGEN--\":1446:1476   */\n      jump(tag_411)\n    tag_410:\n        /* \"--CODEGEN--\":1413:1481   */\n      swap3\n      swap2\n      pop\n      pop\n      jump\n        /* \"--CODEGEN--\":1488:1618   */\n    tag_412:\n      0x00\n        /* \"--CODEGEN--\":1568:1574   */\n      dup2\n        /* \"--CODEGEN--\":1555:1575   */\n      calldataload\n        /* \"--CODEGEN--\":1546:1575   */\n      swap1\n      pop\n        /* \"--CODEGEN--\":1580:1613   */\n      tag_414\n        /* \"--CODEGEN--\":1607:1612   */\n      dup2\n        /* \"--CODEGEN--\":1580:1613   */\n      jump(tag_415)\n    tag_414:\n        /* \"--CODEGEN--\":1540:1618   */\n      swap3\n      swap2\n      pop\n      pop\n      jump\n        /* \"--CODEGEN--\":1625:1753   */\n    tag_416:\n      0x00\n        /* \"--CODEGEN--\":1704:1710   */\n      dup2\n        /* \"--CODEGEN--\":1691:1711   */\n      calldataload\n        /* \"--CODEGEN--\":1682:1711   */\n      swap1\n      pop\n        /* \"--CODEGEN--\":1716:1748   */\n      tag_418\n        /* \"--CODEGEN--\":1742:1747   */\n      dup2\n        /* \"--CODEGEN--\":1716:1748   */\n      jump(tag_419)\n    tag_418:\n        /* \"--CODEGEN--\":1676:1753   */\n      swap3\n      swap2\n      pop\n      pop\n      jump\n        /* \"--CODEGEN--\":1760:1892   */\n    tag_420:\n      0x00\n        /* \"--CODEGEN--\":1843:1849   */\n      dup2\n        /* \"--CODEGEN--\":1837:1850   */\n      mload\n        /* \"--CODEGEN--\":1828:1850   */\n      swap1\n      pop\n        /* \"--CODEGEN--\":1855:1887   */\n      tag_422\n        /* \"--CODEGEN--\":1881:1886   */\n      dup2\n        /* \"--CODEGEN--\":1855:1887   */\n      jump(tag_419)\n    tag_422:\n        /* \"--CODEGEN--\":1822:1892   */\n      swap3\n      swap2\n      pop\n      pop\n      jump\n        /* \"--CODEGEN--\":1900:2340   */\n    tag_423:\n      0x00\n        /* \"--CODEGEN--\":2001:2004   */\n      dup3\n        /* \"--CODEGEN--\":1994:1998   */\n      0x1f\n        /* \"--CODEGEN--\":1986:1992   */\n      dup4\n        /* \"--CODEGEN--\":1982:1999   */\n      add\n        /* \"--CODEGEN--\":1978:2005   */\n      slt\n        /* \"--CODEGEN--\":1968:1970   */\n      tag_425\n      jumpi\n        /* \"--CODEGEN--\":2019:2020   */\n      0x00\n        /* \"--CODEGEN--\":2016:2017   */\n      dup1\n        /* \"--CODEGEN--\":2009:2021   */\n      revert\n        /* \"--CODEGEN--\":1968:1970   */\n    tag_425:\n        /* \"--CODEGEN--\":2056:2062   */\n      dup2\n        /* \"--CODEGEN--\":2043:2063   */\n      calldataload\n        /* \"--CODEGEN--\":2078:2142   */\n      tag_426\n        /* \"--CODEGEN--\":2093:2141   */\n      tag_427\n        /* \"--CODEGEN--\":2134:2140   */\n      dup3\n        /* \"--CODEGEN--\":2093:2141   */\n      jump(tag_428)\n    tag_427:\n        /* \"--CODEGEN--\":2078:2142   */\n      jump(tag_397)\n    tag_426:\n        /* \"--CODEGEN--\":2069:2142   */\n      swap2\n      pop\n        /* \"--CODEGEN--\":2162:2168   */\n      dup1\n        /* \"--CODEGEN--\":2155:2160   */\n      dup3\n        /* \"--CODEGEN--\":2148:2169   */\n      mstore\n        /* \"--CODEGEN--\":2198:2202   */\n      0x20\n        /* \"--CODEGEN--\":2190:2196   */\n      dup4\n        /* \"--CODEGEN--\":2186:2203   */\n      add\n        /* \"--CODEGEN--\":2231:2235   */\n      0x20\n        /* \"--CODEGEN--\":2224:2229   */\n      dup4\n        /* \"--CODEGEN--\":2220:2236   */\n      add\n        /* \"--CODEGEN--\":2266:2269   */\n      dup6\n        /* \"--CODEGEN--\":2257:2263   */\n      dup4\n        /* \"--CODEGEN--\":2252:2255   */\n      dup4\n        /* \"--CODEGEN--\":2248:2264   */\n      add\n        /* \"--CODEGEN--\":2245:2270   */\n      gt\n        /* \"--CODEGEN--\":2242:2244   */\n      iszero\n      tag_429\n      jumpi\n        /* \"--CODEGEN--\":2283:2284   */\n      0x00\n        /* \"--CODEGEN--\":2280:2281   */\n      dup1\n        /* \"--CODEGEN--\":2273:2285   */\n      revert\n        /* \"--CODEGEN--\":2242:2244   */\n    tag_429:\n        /* \"--CODEGEN--\":2293:2334   */\n      tag_430\n        /* \"--CODEGEN--\":2327:2333   */\n      dup4\n        /* \"--CODEGEN--\":2322:2325   */\n      dup3\n        /* \"--CODEGEN--\":2317:2320   */\n      dup5\n        /* \"--CODEGEN--\":2293:2334   */\n      jump(tag_431)\n    tag_430:\n        /* \"--CODEGEN--\":1961:2340   */\n      pop\n      pop\n      pop\n      swap3\n      swap2\n      pop\n      pop\n      jump\n        /* \"--CODEGEN--\":2348:2508   */\n    tag_432:\n      0x00\n        /* \"--CODEGEN--\":2443:2449   */\n      dup2\n        /* \"--CODEGEN--\":2430:2450   */\n      calldataload\n        /* \"--CODEGEN--\":2421:2450   */\n      swap1\n      pop\n        /* \"--CODEGEN--\":2455:2503   */\n      tag_434\n        /* \"--CODEGEN--\":2497:2502   */\n      dup2\n        /* \"--CODEGEN--\":2455:2503   */\n      jump(tag_435)\n    tag_434:\n        /* \"--CODEGEN--\":2415:2508   */\n      swap3\n      swap2\n      pop\n      pop\n      jump\n        /* \"--CODEGEN--\":2515:2683   */\n    tag_436:\n      0x00\n        /* \"--CODEGEN--\":2614:2620   */\n      dup2\n        /* \"--CODEGEN--\":2601:2621   */\n      calldataload\n        /* \"--CODEGEN--\":2592:2621   */\n      swap1\n      pop\n        /* \"--CODEGEN--\":2626:2678   */\n      tag_438\n        /* \"--CODEGEN--\":2672:2677   */\n      dup2\n        /* \"--CODEGEN--\":2626:2678   */\n      jump(tag_439)\n    tag_438:\n        /* \"--CODEGEN--\":2586:2683   */\n      swap3\n      swap2\n      pop\n      pop\n      jump\n        /* \"--CODEGEN--\":2690:2836   */\n    tag_440:\n      0x00\n        /* \"--CODEGEN--\":2778:2784   */\n      dup2\n        /* \"--CODEGEN--\":2765:2785   */\n      calldataload\n        /* \"--CODEGEN--\":2756:2785   */\n      swap1\n      pop\n        /* \"--CODEGEN--\":2790:2831   */\n      tag_442\n        /* \"--CODEGEN--\":2825:2830   */\n      dup2\n        /* \"--CODEGEN--\":2790:2831   */\n      jump(tag_443)\n    tag_442:\n        /* \"--CODEGEN--\":2750:2836   */\n      swap3\n      swap2\n      pop\n      pop\n      jump\n        /* \"--CODEGEN--\":2858:3195   */\n    tag_444:\n      0x00\n      dup1\n        /* \"--CODEGEN--\":2973:2976   */\n      dup4\n        /* \"--CODEGEN--\":2966:2970   */\n      0x1f\n        /* \"--CODEGEN--\":2958:2964   */\n      dup5\n        /* \"--CODEGEN--\":2954:2971   */\n      add\n        /* \"--CODEGEN--\":2950:2977   */\n      slt\n        /* \"--CODEGEN--\":2940:2942   */\n      tag_446\n      jumpi\n        /* \"--CODEGEN--\":2991:2992   */\n      0x00\n        /* \"--CODEGEN--\":2988:2989   */\n      dup1\n        /* \"--CODEGEN--\":2981:2993   */\n      revert\n        /* \"--CODEGEN--\":2940:2942   */\n    tag_446:\n        /* \"--CODEGEN--\":3024:3030   */\n      dup3\n        /* \"--CODEGEN--\":3011:3031   */\n      calldataload\n        /* \"--CODEGEN--\":3001:3031   */\n      swap1\n      pop\n        /* \"--CODEGEN--\":3051:3069   */\n      0xffffffffffffffff\n        /* \"--CODEGEN--\":3043:3049   */\n      dup2\n        /* \"--CODEGEN--\":3040:3070   */\n      gt\n        /* \"--CODEGEN--\":3037:3039   */\n      iszero\n      tag_447\n      jumpi\n        /* \"--CODEGEN--\":3083:3084   */\n      0x00\n        /* \"--CODEGEN--\":3080:3081   */\n      dup1\n        /* \"--CODEGEN--\":3073:3085   */\n      revert\n        /* \"--CODEGEN--\":3037:3039   */\n    tag_447:\n        /* \"--CODEGEN--\":3117:3121   */\n      0x20\n        /* \"--CODEGEN--\":3109:3115   */\n      dup4\n        /* \"--CODEGEN--\":3105:3122   */\n      add\n        /* \"--CODEGEN--\":3093:3122   */\n      swap2\n      pop\n        /* \"--CODEGEN--\":3168:3171   */\n      dup4\n        /* \"--CODEGEN--\":3160:3164   */\n      0x01\n        /* \"--CODEGEN--\":3152:3158   */\n      dup3\n        /* \"--CODEGEN--\":3148:3165   */\n      mul\n        /* \"--CODEGEN--\":3138:3146   */\n      dup4\n        /* \"--CODEGEN--\":3134:3166   */\n      add\n        /* \"--CODEGEN--\":3131:3172   */\n      gt\n        /* \"--CODEGEN--\":3128:3130   */\n      iszero\n      tag_448\n      jumpi\n        /* \"--CODEGEN--\":3185:3186   */\n      0x00\n        /* \"--CODEGEN--\":3182:3183   */\n      dup1\n        /* \"--CODEGEN--\":3175:3187   */\n      revert\n        /* \"--CODEGEN--\":3128:3130   */\n    tag_448:\n        /* \"--CODEGEN--\":2933:3195   */\n      swap3\n      pop\n      swap3\n      swap1\n      pop\n      jump\n        /* \"--CODEGEN--\":3204:3646   */\n    tag_449:\n      0x00\n        /* \"--CODEGEN--\":3306:3309   */\n      dup3\n        /* \"--CODEGEN--\":3299:3303   */\n      0x1f\n        /* \"--CODEGEN--\":3291:3297   */\n      dup4\n        /* \"--CODEGEN--\":3287:3304   */\n      add\n        /* \"--CODEGEN--\":3283:3310   */\n      slt\n        /* \"--CODEGEN--\":3273:3275   */\n      tag_451\n      jumpi\n        /* \"--CODEGEN--\":3324:3325   */\n      0x00\n        /* \"--CODEGEN--\":3321:3322   */\n      dup1\n        /* \"--CODEGEN--\":3314:3326   */\n      revert\n        /* \"--CODEGEN--\":3273:3275   */\n    tag_451:\n        /* \"--CODEGEN--\":3361:3367   */\n      dup2\n        /* \"--CODEGEN--\":3348:3368   */\n      calldataload\n        /* \"--CODEGEN--\":3383:3448   */\n      tag_452\n        /* \"--CODEGEN--\":3398:3447   */\n      tag_453\n        /* \"--CODEGEN--\":3440:3446   */\n      dup3\n        /* \"--CODEGEN--\":3398:3447   */\n      jump(tag_454)\n    tag_453:\n        /* \"--CODEGEN--\":3383:3448   */\n      jump(tag_397)\n    tag_452:\n        /* \"--CODEGEN--\":3374:3448   */\n      swap2\n      pop\n        /* \"--CODEGEN--\":3468:3474   */\n      dup1\n        /* \"--CODEGEN--\":3461:3466   */\n      dup3\n        /* \"--CODEGEN--\":3454:3475   */\n      mstore\n        /* \"--CODEGEN--\":3504:3508   */\n      0x20\n        /* \"--CODEGEN--\":3496:3502   */\n      dup4\n        /* \"--CODEGEN--\":3492:3509   */\n      add\n        /* \"--CODEGEN--\":3537:3541   */\n      0x20\n        /* \"--CODEGEN--\":3530:3535   */\n      dup4\n        /* \"--CODEGEN--\":3526:3542   */\n      add\n        /* \"--CODEGEN--\":3572:3575   */\n      dup6\n        /* \"--CODEGEN--\":3563:3569   */\n      dup4\n        /* \"--CODEGEN--\":3558:3561   */\n      dup4\n        /* \"--CODEGEN--\":3554:3570   */\n      add\n        /* \"--CODEGEN--\":3551:3576   */\n      gt\n        /* \"--CODEGEN--\":3548:3550   */\n      iszero\n      tag_455\n      jumpi\n        /* \"--CODEGEN--\":3589:3590   */\n      0x00\n        /* \"--CODEGEN--\":3586:3587   */\n      dup1\n        /* \"--CODEGEN--\":3579:3591   */\n      revert\n        /* \"--CODEGEN--\":3548:3550   */\n    tag_455:\n        /* \"--CODEGEN--\":3599:3640   */\n      tag_456\n        /* \"--CODEGEN--\":3633:3639   */\n      dup4\n        /* \"--CODEGEN--\":3628:3631   */\n      dup3\n        /* \"--CODEGEN--\":3623:3626   */\n      dup5\n        /* \"--CODEGEN--\":3599:3640   */\n      jump(tag_431)\n    tag_456:\n        /* \"--CODEGEN--\":3266:3646   */\n      pop\n      pop\n      pop\n      swap3\n      swap2\n      pop\n      pop\n      jump\n        /* \"--CODEGEN--\":3686:4389   */\n    tag_402:\n      0x00\n        /* \"--CODEGEN--\":3798:3802   */\n      0x60\n        /* \"--CODEGEN--\":3786:3795   */\n      dup3\n        /* \"--CODEGEN--\":3781:3784   */\n      dup5\n        /* \"--CODEGEN--\":3777:3796   */\n      sub\n        /* \"--CODEGEN--\":3773:3803   */\n      slt\n        /* \"--CODEGEN--\":3770:3772   */\n      iszero\n      tag_458\n      jumpi\n        /* \"--CODEGEN--\":3816:3817   */\n      0x00\n        /* \"--CODEGEN--\":3813:3814   */\n      dup1\n        /* \"--CODEGEN--\":3806:3818   */\n      revert\n        /* \"--CODEGEN--\":3770:3772   */\n    tag_458:\n        /* \"--CODEGEN--\":3834:3854   */\n      tag_459\n        /* \"--CODEGEN--\":3849:3853   */\n      0x60\n        /* \"--CODEGEN--\":3834:3854   */\n      jump(tag_397)\n    tag_459:\n        /* \"--CODEGEN--\":3825:3854   */\n      swap1\n      pop\n        /* \"--CODEGEN--\":3902:3903   */\n      0x00\n        /* \"--CODEGEN--\":3934:3983   */\n      tag_460\n        /* \"--CODEGEN--\":3979:3982   */\n      dup5\n        /* \"--CODEGEN--\":3970:3976   */\n      dup3\n        /* \"--CODEGEN--\":3959:3968   */\n      dup6\n        /* \"--CODEGEN--\":3955:3977   */\n      add\n        /* \"--CODEGEN--\":3934:3983   */\n      jump(tag_387)\n    tag_460:\n        /* \"--CODEGEN--\":3927:3931   */\n      0x00\n        /* \"--CODEGEN--\":3920:3925   */\n      dup4\n        /* \"--CODEGEN--\":3916:3932   */\n      add\n        /* \"--CODEGEN--\":3909:3984   */\n      mstore\n        /* \"--CODEGEN--\":3864:3995   */\n      pop\n        /* \"--CODEGEN--\":4046:4048   */\n      0x20\n        /* \"--CODEGEN--\":4079:4128   */\n      tag_461\n        /* \"--CODEGEN--\":4124:4127   */\n      dup5\n        /* \"--CODEGEN--\":4115:4121   */\n      dup3\n        /* \"--CODEGEN--\":4104:4113   */\n      dup6\n        /* \"--CODEGEN--\":4100:4122   */\n      add\n        /* \"--CODEGEN--\":4079:4128   */\n      jump(tag_462)\n    tag_461:\n        /* \"--CODEGEN--\":4072:4076   */\n      0x20\n        /* \"--CODEGEN--\":4065:4070   */\n      dup4\n        /* \"--CODEGEN--\":4061:4077   */\n      add\n        /* \"--CODEGEN--\":4054:4129   */\n      mstore\n        /* \"--CODEGEN--\":4005:4140   */\n      pop\n        /* \"--CODEGEN--\":4218:4220   */\n      0x40\n        /* \"--CODEGEN--\":4207:4216   */\n      dup3\n        /* \"--CODEGEN--\":4203:4221   */\n      add\n        /* \"--CODEGEN--\":4190:4222   */\n      calldataload\n        /* \"--CODEGEN--\":4242:4260   */\n      0xffffffffffffffff\n        /* \"--CODEGEN--\":4234:4240   */\n      dup2\n        /* \"--CODEGEN--\":4231:4261   */\n      gt\n        /* \"--CODEGEN--\":4228:4230   */\n      iszero\n      tag_463\n      jumpi\n        /* \"--CODEGEN--\":4274:4275   */\n      0x00\n        /* \"--CODEGEN--\":4271:4272   */\n      dup1\n        /* \"--CODEGEN--\":4264:4276   */\n      revert\n        /* \"--CODEGEN--\":4228:4230   */\n    tag_463:\n        /* \"--CODEGEN--\":4309:4367   */\n      tag_464\n        /* \"--CODEGEN--\":4363:4366   */\n      dup5\n        /* \"--CODEGEN--\":4354:4360   */\n      dup3\n        /* \"--CODEGEN--\":4343:4352   */\n      dup6\n        /* \"--CODEGEN--\":4339:4361   */\n      add\n        /* \"--CODEGEN--\":4309:4367   */\n      jump(tag_423)\n    tag_464:\n        /* \"--CODEGEN--\":4302:4306   */\n      0x40\n        /* \"--CODEGEN--\":4295:4300   */\n      dup4\n        /* \"--CODEGEN--\":4291:4307   */\n      add\n        /* \"--CODEGEN--\":4284:4368   */\n      mstore\n        /* \"--CODEGEN--\":4150:4379   */\n      pop\n        /* \"--CODEGEN--\":3764:4389   */\n      swap3\n      swap2\n      pop\n      pop\n      jump\n        /* \"--CODEGEN--\":4426:5040   */\n    tag_465:\n      0x00\n        /* \"--CODEGEN--\":4539:4543   */\n      0x60\n        /* \"--CODEGEN--\":4527:4536   */\n      dup3\n        /* \"--CODEGEN--\":4522:4525   */\n      dup5\n        /* \"--CODEGEN--\":4518:4537   */\n      sub\n        /* \"--CODEGEN--\":4514:4544   */\n      slt\n        /* \"--CODEGEN--\":4511:4513   */\n      iszero\n      tag_467\n      jumpi\n        /* \"--CODEGEN--\":4557:4558   */\n      0x00\n        /* \"--CODEGEN--\":4554:4555   */\n      dup1\n        /* \"--CODEGEN--\":4547:4559   */\n      revert\n        /* \"--CODEGEN--\":4511:4513   */\n    tag_467:\n        /* \"--CODEGEN--\":4575:4595   */\n      tag_468\n        /* \"--CODEGEN--\":4590:4594   */\n      0x60\n        /* \"--CODEGEN--\":4575:4595   */\n      jump(tag_397)\n    tag_468:\n        /* \"--CODEGEN--\":4566:4595   */\n      swap1\n      pop\n        /* \"--CODEGEN--\":4643:4644   */\n      0x00\n        /* \"--CODEGEN--\":4675:4732   */\n      tag_469\n        /* \"--CODEGEN--\":4728:4731   */\n      dup5\n        /* \"--CODEGEN--\":4719:4725   */\n      dup3\n        /* \"--CODEGEN--\":4708:4717   */\n      dup6\n        /* \"--CODEGEN--\":4704:4726   */\n      add\n        /* \"--CODEGEN--\":4675:4732   */\n      jump(tag_440)\n    tag_469:\n        /* \"--CODEGEN--\":4668:4672   */\n      0x00\n        /* \"--CODEGEN--\":4661:4666   */\n      dup4\n        /* \"--CODEGEN--\":4657:4673   */\n      add\n        /* \"--CODEGEN--\":4650:4733   */\n      mstore\n        /* \"--CODEGEN--\":4605:4744   */\n      pop\n        /* \"--CODEGEN--\":4794:4796   */\n      0x20\n        /* \"--CODEGEN--\":4827:4875   */\n      tag_470\n        /* \"--CODEGEN--\":4871:4874   */\n      dup5\n        /* \"--CODEGEN--\":4862:4868   */\n      dup3\n        /* \"--CODEGEN--\":4851:4860   */\n      dup6\n        /* \"--CODEGEN--\":4847:4869   */\n      add\n        /* \"--CODEGEN--\":4827:4875   */\n      jump(tag_416)\n    tag_470:\n        /* \"--CODEGEN--\":4820:4824   */\n      0x20\n        /* \"--CODEGEN--\":4813:4818   */\n      dup4\n        /* \"--CODEGEN--\":4809:4825   */\n      add\n        /* \"--CODEGEN--\":4802:4876   */\n      mstore\n        /* \"--CODEGEN--\":4754:4887   */\n      pop\n        /* \"--CODEGEN--\":4936:4938   */\n      0x40\n        /* \"--CODEGEN--\":4969:5018   */\n      tag_471\n        /* \"--CODEGEN--\":5014:5017   */\n      dup5\n        /* \"--CODEGEN--\":5005:5011   */\n      dup3\n        /* \"--CODEGEN--\":4994:5003   */\n      dup6\n        /* \"--CODEGEN--\":4990:5012   */\n      add\n        /* \"--CODEGEN--\":4969:5018   */\n      jump(tag_387)\n    tag_471:\n        /* \"--CODEGEN--\":4962:4966   */\n      0x40\n        /* \"--CODEGEN--\":4955:4960   */\n      dup4\n        /* \"--CODEGEN--\":4951:4967   */\n      add\n        /* \"--CODEGEN--\":4944:5019   */\n      mstore\n        /* \"--CODEGEN--\":4897:5030   */\n      pop\n        /* \"--CODEGEN--\":4505:5040   */\n      swap3\n      swap2\n      pop\n      pop\n      jump\n        /* \"--CODEGEN--\":5047:5177   */\n    tag_462:\n      0x00\n        /* \"--CODEGEN--\":5127:5133   */\n      dup2\n        /* \"--CODEGEN--\":5114:5134   */\n      calldataload\n        /* \"--CODEGEN--\":5105:5134   */\n      swap1\n      pop\n        /* \"--CODEGEN--\":5139:5172   */\n      tag_473\n        /* \"--CODEGEN--\":5166:5171   */\n      dup2\n        /* \"--CODEGEN--\":5139:5172   */\n      jump(tag_474)\n    tag_473:\n        /* \"--CODEGEN--\":5099:5177   */\n      swap3\n      swap2\n      pop\n      pop\n      jump\n        /* \"--CODEGEN--\":5184:5425   */\n    tag_113:\n      0x00\n        /* \"--CODEGEN--\":5288:5290   */\n      0x20\n        /* \"--CODEGEN--\":5276:5285   */\n      dup3\n        /* \"--CODEGEN--\":5267:5274   */\n      dup5\n        /* \"--CODEGEN--\":5263:5286   */\n      sub\n        /* \"--CODEGEN--\":5259:5291   */\n      slt\n        /* \"--CODEGEN--\":5256:5258   */\n      iszero\n      tag_476\n      jumpi\n        /* \"--CODEGEN--\":5304:5305   */\n      0x00\n        /* \"--CODEGEN--\":5301:5302   */\n      dup1\n        /* \"--CODEGEN--\":5294:5306   */\n      revert\n        /* \"--CODEGEN--\":5256:5258   */\n    tag_476:\n        /* \"--CODEGEN--\":5339:5340   */\n      0x00\n        /* \"--CODEGEN--\":5356:5409   */\n      tag_477\n        /* \"--CODEGEN--\":5401:5408   */\n      dup5\n        /* \"--CODEGEN--\":5392:5398   */\n      dup3\n        /* \"--CODEGEN--\":5381:5390   */\n      dup6\n        /* \"--CODEGEN--\":5377:5399   */\n      add\n        /* \"--CODEGEN--\":5356:5409   */\n      jump(tag_387)\n    tag_477:\n        /* \"--CODEGEN--\":5346:5409   */\n      swap2\n      pop\n        /* \"--CODEGEN--\":5318:5415   */\n      pop\n        /* \"--CODEGEN--\":5250:5425   */\n      swap3\n      swap2\n      pop\n      pop\n      jump\n        /* \"--CODEGEN--\":5432:6281   */\n    tag_54:\n      0x00\n      dup1\n      0x00\n      dup1\n      0x00\n        /* \"--CODEGEN--\":5614:5617   */\n      0xa0\n        /* \"--CODEGEN--\":5602:5611   */\n      dup7\n        /* \"--CODEGEN--\":5593:5600   */\n      dup9\n        /* \"--CODEGEN--\":5589:5612   */\n      sub\n        /* \"--CODEGEN--\":5585:5618   */\n      slt\n        /* \"--CODEGEN--\":5582:5584   */\n      iszero\n      tag_479\n      jumpi\n        /* \"--CODEGEN--\":5631:5632   */\n      0x00\n        /* \"--CODEGEN--\":5628:5629   */\n      dup1\n        /* \"--CODEGEN--\":5621:5633   */\n      revert\n        /* \"--CODEGEN--\":5582:5584   */\n    tag_479:\n        /* \"--CODEGEN--\":5666:5667   */\n      0x00\n        /* \"--CODEGEN--\":5683:5736   */\n      tag_480\n        /* \"--CODEGEN--\":5728:5735   */\n      dup9\n        /* \"--CODEGEN--\":5719:5725   */\n      dup3\n        /* \"--CODEGEN--\":5708:5717   */\n      dup10\n        /* \"--CODEGEN--\":5704:5726   */\n      add\n        /* \"--CODEGEN--\":5683:5736   */\n      jump(tag_387)\n    tag_480:\n        /* \"--CODEGEN--\":5673:5736   */\n      swap6\n      pop\n        /* \"--CODEGEN--\":5645:5742   */\n      pop\n        /* \"--CODEGEN--\":5773:5775   */\n      0x20\n        /* \"--CODEGEN--\":5791:5844   */\n      tag_481\n        /* \"--CODEGEN--\":5836:5843   */\n      dup9\n        /* \"--CODEGEN--\":5827:5833   */\n      dup3\n        /* \"--CODEGEN--\":5816:5825   */\n      dup10\n        /* \"--CODEGEN--\":5812:5834   */\n      add\n        /* \"--CODEGEN--\":5791:5844   */\n      jump(tag_387)\n    tag_481:\n        /* \"--CODEGEN--\":5781:5844   */\n      swap5\n      pop\n        /* \"--CODEGEN--\":5752:5850   */\n      pop\n        /* \"--CODEGEN--\":5881:5883   */\n      0x40\n        /* \"--CODEGEN--\":5899:5952   */\n      tag_482\n        /* \"--CODEGEN--\":5944:5951   */\n      dup9\n        /* \"--CODEGEN--\":5935:5941   */\n      dup3\n        /* \"--CODEGEN--\":5924:5933   */\n      dup10\n        /* \"--CODEGEN--\":5920:5942   */\n      add\n        /* \"--CODEGEN--\":5899:5952   */\n      jump(tag_387)\n    tag_482:\n        /* \"--CODEGEN--\":5889:5952   */\n      swap4\n      pop\n        /* \"--CODEGEN--\":5860:5958   */\n      pop\n        /* \"--CODEGEN--\":5989:5991   */\n      0x60\n        /* \"--CODEGEN--\":6007:6060   */\n      tag_483\n        /* \"--CODEGEN--\":6052:6059   */\n      dup9\n        /* \"--CODEGEN--\":6043:6049   */\n      dup3\n        /* \"--CODEGEN--\":6032:6041   */\n      dup10\n        /* \"--CODEGEN--\":6028:6050   */\n      add\n        /* \"--CODEGEN--\":6007:6060   */\n      jump(tag_462)\n    tag_483:\n        /* \"--CODEGEN--\":5997:6060   */\n      swap3\n      pop\n        /* \"--CODEGEN--\":5968:6066   */\n      pop\n        /* \"--CODEGEN--\":6125:6128   */\n      0x80\n        /* \"--CODEGEN--\":6114:6123   */\n      dup7\n        /* \"--CODEGEN--\":6110:6129   */\n      add\n        /* \"--CODEGEN--\":6097:6130   */\n      calldataload\n        /* \"--CODEGEN--\":6150:6168   */\n      0xffffffffffffffff\n        /* \"--CODEGEN--\":6142:6148   */\n      dup2\n        /* \"--CODEGEN--\":6139:6169   */\n      gt\n        /* \"--CODEGEN--\":6136:6138   */\n      iszero\n      tag_484\n      jumpi\n        /* \"--CODEGEN--\":6182:6183   */\n      0x00\n        /* \"--CODEGEN--\":6179:6180   */\n      dup1\n        /* \"--CODEGEN--\":6172:6184   */\n      revert\n        /* \"--CODEGEN--\":6136:6138   */\n    tag_484:\n        /* \"--CODEGEN--\":6202:6265   */\n      tag_485\n        /* \"--CODEGEN--\":6257:6264   */\n      dup9\n        /* \"--CODEGEN--\":6248:6254   */\n      dup3\n        /* \"--CODEGEN--\":6237:6246   */\n      dup10\n        /* \"--CODEGEN--\":6233:6255   */\n      add\n        /* \"--CODEGEN--\":6202:6265   */\n      jump(tag_449)\n    tag_485:\n        /* \"--CODEGEN--\":6192:6265   */\n      swap2\n      pop\n        /* \"--CODEGEN--\":6076:6271   */\n      pop\n        /* \"--CODEGEN--\":5576:6281   */\n      swap3\n      swap6\n      pop\n      swap3\n      swap6\n      swap1\n      swap4\n      pop\n      jump\n        /* \"--CODEGEN--\":6288:6905   */\n    tag_101:\n      0x00\n      dup1\n      0x00\n      dup1\n        /* \"--CODEGEN--\":6446:6448   */\n      0x60\n        /* \"--CODEGEN--\":6434:6443   */\n      dup6\n        /* \"--CODEGEN--\":6425:6432   */\n      dup8\n        /* \"--CODEGEN--\":6421:6444   */\n      sub\n        /* \"--CODEGEN--\":6417:6449   */\n      slt\n        /* \"--CODEGEN--\":6414:6416   */\n      iszero\n      tag_487\n      jumpi\n        /* \"--CODEGEN--\":6462:6463   */\n      0x00\n        /* \"--CODEGEN--\":6459:6460   */\n      dup1\n        /* \"--CODEGEN--\":6452:6464   */\n      revert\n        /* \"--CODEGEN--\":6414:6416   */\n    tag_487:\n        /* \"--CODEGEN--\":6497:6498   */\n      0x00\n        /* \"--CODEGEN--\":6514:6567   */\n      tag_488\n        /* \"--CODEGEN--\":6559:6566   */\n      dup8\n        /* \"--CODEGEN--\":6550:6556   */\n      dup3\n        /* \"--CODEGEN--\":6539:6548   */\n      dup9\n        /* \"--CODEGEN--\":6535:6557   */\n      add\n        /* \"--CODEGEN--\":6514:6567   */\n      jump(tag_387)\n    tag_488:\n        /* \"--CODEGEN--\":6504:6567   */\n      swap5\n      pop\n        /* \"--CODEGEN--\":6476:6573   */\n      pop\n        /* \"--CODEGEN--\":6604:6606   */\n      0x20\n        /* \"--CODEGEN--\":6622:6675   */\n      tag_489\n        /* \"--CODEGEN--\":6667:6674   */\n      dup8\n        /* \"--CODEGEN--\":6658:6664   */\n      dup3\n        /* \"--CODEGEN--\":6647:6656   */\n      dup9\n        /* \"--CODEGEN--\":6643:6665   */\n      add\n        /* \"--CODEGEN--\":6622:6675   */\n      jump(tag_462)\n    tag_489:\n        /* \"--CODEGEN--\":6612:6675   */\n      swap4\n      pop\n        /* \"--CODEGEN--\":6583:6681   */\n      pop\n        /* \"--CODEGEN--\":6740:6742   */\n      0x40\n        /* \"--CODEGEN--\":6729:6738   */\n      dup6\n        /* \"--CODEGEN--\":6725:6743   */\n      add\n        /* \"--CODEGEN--\":6712:6744   */\n      calldataload\n        /* \"--CODEGEN--\":6764:6782   */\n      0xffffffffffffffff\n        /* \"--CODEGEN--\":6756:6762   */\n      dup2\n        /* \"--CODEGEN--\":6753:6783   */\n      gt\n        /* \"--CODEGEN--\":6750:6752   */\n      iszero\n      tag_490\n      jumpi\n        /* \"--CODEGEN--\":6796:6797   */\n      0x00\n        /* \"--CODEGEN--\":6793:6794   */\n      dup1\n        /* \"--CODEGEN--\":6786:6798   */\n      revert\n        /* \"--CODEGEN--\":6750:6752   */\n    tag_490:\n        /* \"--CODEGEN--\":6824:6889   */\n      tag_491\n        /* \"--CODEGEN--\":6881:6888   */\n      dup8\n        /* \"--CODEGEN--\":6872:6878   */\n      dup3\n        /* \"--CODEGEN--\":6861:6870   */\n      dup9\n        /* \"--CODEGEN--\":6857:6879   */\n      add\n        /* \"--CODEGEN--\":6824:6889   */\n      jump(tag_444)\n    tag_491:\n        /* \"--CODEGEN--\":6814:6889   */\n      swap3\n      pop\n      swap3\n      pop\n        /* \"--CODEGEN--\":6691:6895   */\n      pop\n        /* \"--CODEGEN--\":6408:6905   */\n      swap3\n      swap6\n      swap2\n      swap5\n      pop\n      swap3\n      pop\n      jump\n        /* \"--CODEGEN--\":6912:7585   */\n    tag_106:\n      0x00\n      dup1\n      0x00\n        /* \"--CODEGEN--\":7098:7100   */\n      0x60\n        /* \"--CODEGEN--\":7086:7095   */\n      dup5\n        /* \"--CODEGEN--\":7077:7084   */\n      dup7\n        /* \"--CODEGEN--\":7073:7096   */\n      sub\n        /* \"--CODEGEN--\":7069:7101   */\n      slt\n        /* \"--CODEGEN--\":7066:7068   */\n      iszero\n      tag_493\n      jumpi\n        /* \"--CODEGEN--\":7114:7115   */\n      0x00\n        /* \"--CODEGEN--\":7111:7112   */\n      dup1\n        /* \"--CODEGEN--\":7104:7116   */\n      revert\n        /* \"--CODEGEN--\":7066:7068   */\n    tag_493:\n        /* \"--CODEGEN--\":7177:7178   */\n      0x00\n        /* \"--CODEGEN--\":7166:7175   */\n      dup5\n        /* \"--CODEGEN--\":7162:7179   */\n      add\n        /* \"--CODEGEN--\":7149:7180   */\n      calldataload\n        /* \"--CODEGEN--\":7200:7218   */\n      0xffffffffffffffff\n        /* \"--CODEGEN--\":7192:7198   */\n      dup2\n        /* \"--CODEGEN--\":7189:7219   */\n      gt\n        /* \"--CODEGEN--\":7186:7188   */\n      iszero\n      tag_494\n      jumpi\n        /* \"--CODEGEN--\":7232:7233   */\n      0x00\n        /* \"--CODEGEN--\":7229:7230   */\n      dup1\n        /* \"--CODEGEN--\":7222:7234   */\n      revert\n        /* \"--CODEGEN--\":7186:7188   */\n    tag_494:\n        /* \"--CODEGEN--\":7252:7353   */\n      tag_495\n        /* \"--CODEGEN--\":7345:7352   */\n      dup7\n        /* \"--CODEGEN--\":7336:7342   */\n      dup3\n        /* \"--CODEGEN--\":7325:7334   */\n      dup8\n        /* \"--CODEGEN--\":7321:7343   */\n      add\n        /* \"--CODEGEN--\":7252:7353   */\n      jump(tag_391)\n    tag_495:\n        /* \"--CODEGEN--\":7242:7353   */\n      swap4\n      pop\n        /* \"--CODEGEN--\":7128:7359   */\n      pop\n        /* \"--CODEGEN--\":7390:7392   */\n      0x20\n        /* \"--CODEGEN--\":7408:7461   */\n      tag_496\n        /* \"--CODEGEN--\":7453:7460   */\n      dup7\n        /* \"--CODEGEN--\":7444:7450   */\n      dup3\n        /* \"--CODEGEN--\":7433:7442   */\n      dup8\n        /* \"--CODEGEN--\":7429:7451   */\n      add\n        /* \"--CODEGEN--\":7408:7461   */\n      jump(tag_412)\n    tag_496:\n        /* \"--CODEGEN--\":7398:7461   */\n      swap3\n      pop\n        /* \"--CODEGEN--\":7369:7467   */\n      pop\n        /* \"--CODEGEN--\":7498:7500   */\n      0x40\n        /* \"--CODEGEN--\":7516:7569   */\n      tag_497\n        /* \"--CODEGEN--\":7561:7568   */\n      dup7\n        /* \"--CODEGEN--\":7552:7558   */\n      dup3\n        /* \"--CODEGEN--\":7541:7550   */\n      dup8\n        /* \"--CODEGEN--\":7537:7559   */\n      add\n        /* \"--CODEGEN--\":7516:7569   */\n      jump(tag_412)\n    tag_497:\n        /* \"--CODEGEN--\":7506:7569   */\n      swap2\n      pop\n        /* \"--CODEGEN--\":7477:7575   */\n      pop\n        /* \"--CODEGEN--\":7060:7585   */\n      swap3\n      pop\n      swap3\n      pop\n      swap3\n      jump\n        /* \"--CODEGEN--\":7592:8041   */\n    tag_49:\n      0x00\n      dup1\n        /* \"--CODEGEN--\":7757:7759   */\n      0x20\n        /* \"--CODEGEN--\":7745:7754   */\n      dup4\n        /* \"--CODEGEN--\":7736:7743   */\n      dup6\n        /* \"--CODEGEN--\":7732:7755   */\n      sub\n        /* \"--CODEGEN--\":7728:7760   */\n      slt\n        /* \"--CODEGEN--\":7725:7727   */\n      iszero\n      tag_499\n      jumpi\n        /* \"--CODEGEN--\":7773:7774   */\n      0x00\n        /* \"--CODEGEN--\":7770:7771   */\n      dup1\n        /* \"--CODEGEN--\":7763:7775   */\n      revert\n        /* \"--CODEGEN--\":7725:7727   */\n    tag_499:\n        /* \"--CODEGEN--\":7836:7837   */\n      0x00\n        /* \"--CODEGEN--\":7825:7834   */\n      dup4\n        /* \"--CODEGEN--\":7821:7838   */\n      add\n        /* \"--CODEGEN--\":7808:7839   */\n      calldataload\n        /* \"--CODEGEN--\":7859:7877   */\n      0xffffffffffffffff\n        /* \"--CODEGEN--\":7851:7857   */\n      dup2\n        /* \"--CODEGEN--\":7848:7878   */\n      gt\n        /* \"--CODEGEN--\":7845:7847   */\n      iszero\n      tag_500\n      jumpi\n        /* \"--CODEGEN--\":7891:7892   */\n      0x00\n        /* \"--CODEGEN--\":7888:7889   */\n      dup1\n        /* \"--CODEGEN--\":7881:7893   */\n      revert\n        /* \"--CODEGEN--\":7845:7847   */\n    tag_500:\n        /* \"--CODEGEN--\":7919:8025   */\n      tag_501\n        /* \"--CODEGEN--\":8017:8024   */\n      dup6\n        /* \"--CODEGEN--\":8008:8014   */\n      dup3\n        /* \"--CODEGEN--\":7997:8006   */\n      dup7\n        /* \"--CODEGEN--\":7993:8015   */\n      add\n        /* \"--CODEGEN--\":7919:8025   */\n      jump(tag_403)\n    tag_501:\n        /* \"--CODEGEN--\":7909:8025   */\n      swap3\n      pop\n      swap3\n      pop\n        /* \"--CODEGEN--\":7787:8031   */\n      pop\n        /* \"--CODEGEN--\":7719:8041   */\n      swap3\n      pop\n      swap3\n      swap1\n      pop\n      jump\n        /* \"--CODEGEN--\":8048:8305   */\n    tag_369:\n      0x00\n        /* \"--CODEGEN--\":8160:8162   */\n      0x20\n        /* \"--CODEGEN--\":8148:8157   */\n      dup3\n        /* \"--CODEGEN--\":8139:8146   */\n      dup5\n        /* \"--CODEGEN--\":8135:8158   */\n      sub\n        /* \"--CODEGEN--\":8131:8163   */\n      slt\n        /* \"--CODEGEN--\":8128:8130   */\n      iszero\n      tag_503\n      jumpi\n        /* \"--CODEGEN--\":8176:8177   */\n      0x00\n        /* \"--CODEGEN--\":8173:8174   */\n      dup1\n        /* \"--CODEGEN--\":8166:8178   */\n      revert\n        /* \"--CODEGEN--\":8128:8130   */\n    tag_503:\n        /* \"--CODEGEN--\":8211:8212   */\n      0x00\n        /* \"--CODEGEN--\":8228:8289   */\n      tag_504\n        /* \"--CODEGEN--\":8281:8288   */\n      dup5\n        /* \"--CODEGEN--\":8272:8278   */\n      dup3\n        /* \"--CODEGEN--\":8261:8270   */\n      dup6\n        /* \"--CODEGEN--\":8257:8279   */\n      add\n        /* \"--CODEGEN--\":8228:8289   */\n      jump(tag_408)\n    tag_504:\n        /* \"--CODEGEN--\":8218:8289   */\n      swap2\n      pop\n        /* \"--CODEGEN--\":8190:8295   */\n      pop\n        /* \"--CODEGEN--\":8122:8305   */\n      swap3\n      swap2\n      pop\n      pop\n      jump\n        /* \"--CODEGEN--\":8312:8782   */\n    tag_42:\n      0x00\n      dup1\n        /* \"--CODEGEN--\":8442:8444   */\n      0x40\n        /* \"--CODEGEN--\":8430:8439   */\n      dup4\n        /* \"--CODEGEN--\":8421:8428   */\n      dup6\n        /* \"--CODEGEN--\":8417:8440   */\n      sub\n        /* \"--CODEGEN--\":8413:8445   */\n      slt\n        /* \"--CODEGEN--\":8410:8412   */\n      iszero\n      tag_506\n      jumpi\n        /* \"--CODEGEN--\":8458:8459   */\n      0x00\n        /* \"--CODEGEN--\":8455:8456   */\n      dup1\n        /* \"--CODEGEN--\":8448:8460   */\n      revert\n        /* \"--CODEGEN--\":8410:8412   */\n    tag_506:\n        /* \"--CODEGEN--\":8493:8494   */\n      0x00\n        /* \"--CODEGEN--\":8510:8563   */\n      tag_507\n        /* \"--CODEGEN--\":8555:8562   */\n      dup6\n        /* \"--CODEGEN--\":8546:8552   */\n      dup3\n        /* \"--CODEGEN--\":8535:8544   */\n      dup7\n        /* \"--CODEGEN--\":8531:8553   */\n      add\n        /* \"--CODEGEN--\":8510:8563   */\n      jump(tag_412)\n    tag_507:\n        /* \"--CODEGEN--\":8500:8563   */\n      swap3\n      pop\n        /* \"--CODEGEN--\":8472:8569   */\n      pop\n        /* \"--CODEGEN--\":8628:8630   */\n      0x20\n        /* \"--CODEGEN--\":8617:8626   */\n      dup4\n        /* \"--CODEGEN--\":8613:8631   */\n      add\n        /* \"--CODEGEN--\":8600:8632   */\n      calldataload\n        /* \"--CODEGEN--\":8652:8670   */\n      0xffffffffffffffff\n        /* \"--CODEGEN--\":8644:8650   */\n      dup2\n        /* \"--CODEGEN--\":8641:8671   */\n      gt\n        /* \"--CODEGEN--\":8638:8640   */\n      iszero\n      tag_508\n      jumpi\n        /* \"--CODEGEN--\":8684:8685   */\n      0x00\n        /* \"--CODEGEN--\":8681:8682   */\n      dup1\n        /* \"--CODEGEN--\":8674:8686   */\n      revert\n        /* \"--CODEGEN--\":8638:8640   */\n    tag_508:\n        /* \"--CODEGEN--\":8704:8766   */\n      tag_509\n        /* \"--CODEGEN--\":8758:8765   */\n      dup6\n        /* \"--CODEGEN--\":8749:8755   */\n      dup3\n        /* \"--CODEGEN--\":8738:8747   */\n      dup7\n        /* \"--CODEGEN--\":8734:8756   */\n      add\n        /* \"--CODEGEN--\":8704:8766   */\n      jump(tag_423)\n    tag_509:\n        /* \"--CODEGEN--\":8694:8766   */\n      swap2\n      pop\n        /* \"--CODEGEN--\":8579:8772   */\n      pop\n        /* \"--CODEGEN--\":8404:8782   */\n      swap3\n      pop\n      swap3\n      swap1\n      pop\n      jump\n        /* \"--CODEGEN--\":8789:9028   */\n    tag_35:\n      0x00\n        /* \"--CODEGEN--\":8892:8894   */\n      0x20\n        /* \"--CODEGEN--\":8880:8889   */\n      dup3\n        /* \"--CODEGEN--\":8871:8878   */\n      dup5\n        /* \"--CODEGEN--\":8867:8890   */\n      sub\n        /* \"--CODEGEN--\":8863:8895   */\n      slt\n        /* \"--CODEGEN--\":8860:8862   */\n      iszero\n      tag_511\n      jumpi\n        /* \"--CODEGEN--\":8908:8909   */\n      0x00\n        /* \"--CODEGEN--\":8905:8906   */\n      dup1\n        /* \"--CODEGEN--\":8898:8910   */\n      revert\n        /* \"--CODEGEN--\":8860:8862   */\n    tag_511:\n        /* \"--CODEGEN--\":8943:8944   */\n      0x00\n        /* \"--CODEGEN--\":8960:9012   */\n      tag_512\n        /* \"--CODEGEN--\":9004:9011   */\n      dup5\n        /* \"--CODEGEN--\":8995:9001   */\n      dup3\n        /* \"--CODEGEN--\":8984:8993   */\n      dup6\n        /* \"--CODEGEN--\":8980:9002   */\n      add\n        /* \"--CODEGEN--\":8960:9012   */\n      jump(tag_416)\n    tag_512:\n        /* \"--CODEGEN--\":8950:9012   */\n      swap2\n      pop\n        /* \"--CODEGEN--\":8922:9018   */\n      pop\n        /* \"--CODEGEN--\":8854:9028   */\n      swap3\n      swap2\n      pop\n      pop\n      jump\n        /* \"--CODEGEN--\":9035:9296   */\n    tag_140:\n      0x00\n        /* \"--CODEGEN--\":9149:9151   */\n      0x20\n        /* \"--CODEGEN--\":9137:9146   */\n      dup3\n        /* \"--CODEGEN--\":9128:9135   */\n      dup5\n        /* \"--CODEGEN--\":9124:9147   */\n      sub\n        /* \"--CODEGEN--\":9120:9152   */\n      slt\n        /* \"--CODEGEN--\":9117:9119   */\n      iszero\n      tag_514\n      jumpi\n        /* \"--CODEGEN--\":9165:9166   */\n      0x00\n        /* \"--CODEGEN--\":9162:9163   */\n      dup1\n        /* \"--CODEGEN--\":9155:9167   */\n      revert\n        /* \"--CODEGEN--\":9117:9119   */\n    tag_514:\n        /* \"--CODEGEN--\":9200:9201   */\n      0x00\n        /* \"--CODEGEN--\":9217:9280   */\n      tag_515\n        /* \"--CODEGEN--\":9272:9279   */\n      dup5\n        /* \"--CODEGEN--\":9263:9269   */\n      dup3\n        /* \"--CODEGEN--\":9252:9261   */\n      dup6\n        /* \"--CODEGEN--\":9248:9270   */\n      add\n        /* \"--CODEGEN--\":9217:9280   */\n      jump(tag_420)\n    tag_515:\n        /* \"--CODEGEN--\":9207:9280   */\n      swap2\n      pop\n        /* \"--CODEGEN--\":9179:9286   */\n      pop\n        /* \"--CODEGEN--\":9111:9296   */\n      swap3\n      swap2\n      pop\n      pop\n      jump\n        /* \"--CODEGEN--\":9303:9667   */\n    tag_69:\n      0x00\n      dup1\n        /* \"--CODEGEN--\":9423:9425   */\n      0x40\n        /* \"--CODEGEN--\":9411:9420   */\n      dup4\n        /* \"--CODEGEN--\":9402:9409   */\n      dup6\n        /* \"--CODEGEN--\":9398:9421   */\n      sub\n        /* \"--CODEGEN--\":9394:9426   */\n      slt\n        /* \"--CODEGEN--\":9391:9393   */\n      iszero\n      tag_517\n      jumpi\n        /* \"--CODEGEN--\":9439:9440   */\n      0x00\n        /* \"--CODEGEN--\":9436:9437   */\n      dup1\n        /* \"--CODEGEN--\":9429:9441   */\n      revert\n        /* \"--CODEGEN--\":9391:9393   */\n    tag_517:\n        /* \"--CODEGEN--\":9474:9475   */\n      0x00\n        /* \"--CODEGEN--\":9491:9543   */\n      tag_518\n        /* \"--CODEGEN--\":9535:9542   */\n      dup6\n        /* \"--CODEGEN--\":9526:9532   */\n      dup3\n        /* \"--CODEGEN--\":9515:9524   */\n      dup7\n        /* \"--CODEGEN--\":9511:9533   */\n      add\n        /* \"--CODEGEN--\":9491:9543   */\n      jump(tag_416)\n    tag_518:\n        /* \"--CODEGEN--\":9481:9543   */\n      swap3\n      pop\n        /* \"--CODEGEN--\":9453:9549   */\n      pop\n        /* \"--CODEGEN--\":9580:9582   */\n      0x20\n        /* \"--CODEGEN--\":9598:9651   */\n      tag_519\n        /* \"--CODEGEN--\":9643:9650   */\n      dup6\n        /* \"--CODEGEN--\":9634:9640   */\n      dup3\n        /* \"--CODEGEN--\":9623:9632   */\n      dup7\n        /* \"--CODEGEN--\":9619:9641   */\n      add\n        /* \"--CODEGEN--\":9598:9651   */\n      jump(tag_387)\n    tag_519:\n        /* \"--CODEGEN--\":9588:9651   */\n      swap2\n      pop\n        /* \"--CODEGEN--\":9559:9657   */\n      pop\n        /* \"--CODEGEN--\":9385:9667   */\n      swap3\n      pop\n      swap3\n      swap1\n      pop\n      jump\n        /* \"--CODEGEN--\":9674:10201   */\n    tag_88:\n      0x00\n      dup1\n      0x00\n        /* \"--CODEGEN--\":9830:9832   */\n      0x60\n        /* \"--CODEGEN--\":9818:9827   */\n      dup5\n        /* \"--CODEGEN--\":9809:9816   */\n      dup7\n        /* \"--CODEGEN--\":9805:9828   */\n      sub\n        /* \"--CODEGEN--\":9801:9833   */\n      slt\n        /* \"--CODEGEN--\":9798:9800   */\n      iszero\n      tag_521\n      jumpi\n        /* \"--CODEGEN--\":9846:9847   */\n      0x00\n        /* \"--CODEGEN--\":9843:9844   */\n      dup1\n        /* \"--CODEGEN--\":9836:9848   */\n      revert\n        /* \"--CODEGEN--\":9798:9800   */\n    tag_521:\n        /* \"--CODEGEN--\":9881:9882   */\n      0x00\n        /* \"--CODEGEN--\":9898:9950   */\n      tag_522\n        /* \"--CODEGEN--\":9942:9949   */\n      dup7\n        /* \"--CODEGEN--\":9933:9939   */\n      dup3\n        /* \"--CODEGEN--\":9922:9931   */\n      dup8\n        /* \"--CODEGEN--\":9918:9940   */\n      add\n        /* \"--CODEGEN--\":9898:9950   */\n      jump(tag_416)\n    tag_522:\n        /* \"--CODEGEN--\":9888:9950   */\n      swap4\n      pop\n        /* \"--CODEGEN--\":9860:9956   */\n      pop\n        /* \"--CODEGEN--\":9987:9989   */\n      0x20\n        /* \"--CODEGEN--\":10005:10058   */\n      tag_523\n        /* \"--CODEGEN--\":10050:10057   */\n      dup7\n        /* \"--CODEGEN--\":10041:10047   */\n      dup3\n        /* \"--CODEGEN--\":10030:10039   */\n      dup8\n        /* \"--CODEGEN--\":10026:10048   */\n      add\n        /* \"--CODEGEN--\":10005:10058   */\n      jump(tag_387)\n    tag_523:\n        /* \"--CODEGEN--\":9995:10058   */\n      swap3\n      pop\n        /* \"--CODEGEN--\":9966:10064   */\n      pop\n        /* \"--CODEGEN--\":10095:10097   */\n      0x40\n        /* \"--CODEGEN--\":10113:10185   */\n      tag_524\n        /* \"--CODEGEN--\":10177:10184   */\n      dup7\n        /* \"--CODEGEN--\":10168:10174   */\n      dup3\n        /* \"--CODEGEN--\":10157:10166   */\n      dup8\n        /* \"--CODEGEN--\":10153:10175   */\n      add\n        /* \"--CODEGEN--\":10113:10185   */\n      jump(tag_436)\n    tag_524:\n        /* \"--CODEGEN--\":10103:10185   */\n      swap2\n      pop\n        /* \"--CODEGEN--\":10074:10191   */\n      pop\n        /* \"--CODEGEN--\":9792:10201   */\n      swap3\n      pop\n      swap3\n      pop\n      swap3\n      jump\n        /* \"--CODEGEN--\":10208:10693   */\n    tag_93:\n      0x00\n      dup1\n      0x00\n        /* \"--CODEGEN--\":10343:10345   */\n      0x60\n        /* \"--CODEGEN--\":10331:10340   */\n      dup5\n        /* \"--CODEGEN--\":10322:10329   */\n      dup7\n        /* \"--CODEGEN--\":10318:10341   */\n      sub\n        /* \"--CODEGEN--\":10314:10346   */\n      slt\n        /* \"--CODEGEN--\":10311:10313   */\n      iszero\n      tag_526\n      jumpi\n        /* \"--CODEGEN--\":10359:10360   */\n      0x00\n        /* \"--CODEGEN--\":10356:10357   */\n      dup1\n        /* \"--CODEGEN--\":10349:10361   */\n      revert\n        /* \"--CODEGEN--\":10311:10313   */\n    tag_526:\n        /* \"--CODEGEN--\":10394:10395   */\n      0x00\n        /* \"--CODEGEN--\":10411:10463   */\n      tag_527\n        /* \"--CODEGEN--\":10455:10462   */\n      dup7\n        /* \"--CODEGEN--\":10446:10452   */\n      dup3\n        /* \"--CODEGEN--\":10435:10444   */\n      dup8\n        /* \"--CODEGEN--\":10431:10453   */\n      add\n        /* \"--CODEGEN--\":10411:10463   */\n      jump(tag_416)\n    tag_527:\n        /* \"--CODEGEN--\":10401:10463   */\n      swap4\n      pop\n        /* \"--CODEGEN--\":10373:10469   */\n      pop\n        /* \"--CODEGEN--\":10500:10502   */\n      0x20\n        /* \"--CODEGEN--\":10518:10570   */\n      tag_528\n        /* \"--CODEGEN--\":10562:10569   */\n      dup7\n        /* \"--CODEGEN--\":10553:10559   */\n      dup3\n        /* \"--CODEGEN--\":10542:10551   */\n      dup8\n        /* \"--CODEGEN--\":10538:10560   */\n      add\n        /* \"--CODEGEN--\":10518:10570   */\n      jump(tag_416)\n    tag_528:\n        /* \"--CODEGEN--\":10508:10570   */\n      swap3\n      pop\n        /* \"--CODEGEN--\":10479:10576   */\n      pop\n        /* \"--CODEGEN--\":10607:10609   */\n      0x40\n        /* \"--CODEGEN--\":10625:10677   */\n      tag_529\n        /* \"--CODEGEN--\":10669:10676   */\n      dup7\n        /* \"--CODEGEN--\":10660:10666   */\n      dup3\n        /* \"--CODEGEN--\":10649:10658   */\n      dup8\n        /* \"--CODEGEN--\":10645:10667   */\n      add\n        /* \"--CODEGEN--\":10625:10677   */\n      jump(tag_416)\n    tag_529:\n        /* \"--CODEGEN--\":10615:10677   */\n      swap2\n      pop\n        /* \"--CODEGEN--\":10586:10683   */\n      pop\n        /* \"--CODEGEN--\":10305:10693   */\n      swap3\n      pop\n      swap3\n      pop\n      swap3\n      jump\n        /* \"--CODEGEN--\":10700:10971   */\n    tag_59:\n      0x00\n        /* \"--CODEGEN--\":10819:10821   */\n      0x20\n        /* \"--CODEGEN--\":10807:10816   */\n      dup3\n        /* \"--CODEGEN--\":10798:10805   */\n      dup5\n        /* \"--CODEGEN--\":10794:10817   */\n      sub\n        /* \"--CODEGEN--\":10790:10822   */\n      slt\n        /* \"--CODEGEN--\":10787:10789   */\n      iszero\n      tag_531\n      jumpi\n        /* \"--CODEGEN--\":10835:10836   */\n      0x00\n        /* \"--CODEGEN--\":10832:10833   */\n      dup1\n        /* \"--CODEGEN--\":10825:10837   */\n      revert\n        /* \"--CODEGEN--\":10787:10789   */\n    tag_531:\n        /* \"--CODEGEN--\":10870:10871   */\n      0x00\n        /* \"--CODEGEN--\":10887:10955   */\n      tag_532\n        /* \"--CODEGEN--\":10947:10954   */\n      dup5\n        /* \"--CODEGEN--\":10938:10944   */\n      dup3\n        /* \"--CODEGEN--\":10927:10936   */\n      dup6\n        /* \"--CODEGEN--\":10923:10945   */\n      add\n        /* \"--CODEGEN--\":10887:10955   */\n      jump(tag_432)\n    tag_532:\n        /* \"--CODEGEN--\":10877:10955   */\n      swap2\n      pop\n        /* \"--CODEGEN--\":10849:10961   */\n      pop\n        /* \"--CODEGEN--\":10781:10971   */\n      swap3\n      swap2\n      pop\n      pop\n      jump\n        /* \"--CODEGEN--\":10978:11325   */\n    tag_118:\n      0x00\n        /* \"--CODEGEN--\":11092:11094   */\n      0x20\n        /* \"--CODEGEN--\":11080:11089   */\n      dup3\n        /* \"--CODEGEN--\":11071:11078   */\n      dup5\n        /* \"--CODEGEN--\":11067:11090   */\n      sub\n        /* \"--CODEGEN--\":11063:11095   */\n      slt\n        /* \"--CODEGEN--\":11060:11062   */\n      iszero\n      tag_534\n      jumpi\n        /* \"--CODEGEN--\":11108:11109   */\n      0x00\n        /* \"--CODEGEN--\":11105:11106   */\n      dup1\n        /* \"--CODEGEN--\":11098:11110   */\n      revert\n        /* \"--CODEGEN--\":11060:11062   */\n    tag_534:\n        /* \"--CODEGEN--\":11171:11172   */\n      0x00\n        /* \"--CODEGEN--\":11160:11169   */\n      dup3\n        /* \"--CODEGEN--\":11156:11173   */\n      add\n        /* \"--CODEGEN--\":11143:11174   */\n      calldataload\n        /* \"--CODEGEN--\":11194:11212   */\n      0xffffffffffffffff\n        /* \"--CODEGEN--\":11186:11192   */\n      dup2\n        /* \"--CODEGEN--\":11183:11213   */\n      gt\n        /* \"--CODEGEN--\":11180:11182   */\n      iszero\n      tag_535\n      jumpi\n        /* \"--CODEGEN--\":11226:11227   */\n      0x00\n        /* \"--CODEGEN--\":11223:11224   */\n      dup1\n        /* \"--CODEGEN--\":11216:11228   */\n      revert\n        /* \"--CODEGEN--\":11180:11182   */\n    tag_535:\n        /* \"--CODEGEN--\":11246:11309   */\n      tag_536\n        /* \"--CODEGEN--\":11301:11308   */\n      dup5\n        /* \"--CODEGEN--\":11292:11298   */\n      dup3\n        /* \"--CODEGEN--\":11281:11290   */\n      dup6\n        /* \"--CODEGEN--\":11277:11299   */\n      add\n        /* \"--CODEGEN--\":11246:11309   */\n      jump(tag_449)\n    tag_536:\n        /* \"--CODEGEN--\":11236:11309   */\n      swap2\n      pop\n        /* \"--CODEGEN--\":11122:11315   */\n      pop\n        /* \"--CODEGEN--\":11054:11325   */\n      swap3\n      swap2\n      pop\n      pop\n      jump\n        /* \"--CODEGEN--\":11332:11621   */\n    tag_155:\n      0x00\n        /* \"--CODEGEN--\":11460:11462   */\n      0x60\n        /* \"--CODEGEN--\":11448:11457   */\n      dup3\n        /* \"--CODEGEN--\":11439:11446   */\n      dup5\n        /* \"--CODEGEN--\":11435:11458   */\n      sub\n        /* \"--CODEGEN--\":11431:11463   */\n      slt\n        /* \"--CODEGEN--\":11428:11430   */\n      iszero\n      tag_538\n      jumpi\n        /* \"--CODEGEN--\":11476:11477   */\n      0x00\n        /* \"--CODEGEN--\":11473:11474   */\n      dup1\n        /* \"--CODEGEN--\":11466:11478   */\n      revert\n        /* \"--CODEGEN--\":11428:11430   */\n    tag_538:\n        /* \"--CODEGEN--\":11511:11512   */\n      0x00\n        /* \"--CODEGEN--\":11528:11605   */\n      tag_539\n        /* \"--CODEGEN--\":11597:11604   */\n      dup5\n        /* \"--CODEGEN--\":11588:11594   */\n      dup3\n        /* \"--CODEGEN--\":11577:11586   */\n      dup6\n        /* \"--CODEGEN--\":11573:11595   */\n      add\n        /* \"--CODEGEN--\":11528:11605   */\n      jump(tag_465)\n    tag_539:\n        /* \"--CODEGEN--\":11518:11605   */\n      swap2\n      pop\n        /* \"--CODEGEN--\":11490:11611   */\n      pop\n        /* \"--CODEGEN--\":11422:11621   */\n      swap3\n      swap2\n      pop\n      pop\n      jump\n        /* \"--CODEGEN--\":11629:11818   */\n    tag_540:\n      0x00\n        /* \"--CODEGEN--\":11748:11812   */\n      tag_542\n        /* \"--CODEGEN--\":11808:11811   */\n      dup4\n        /* \"--CODEGEN--\":11800:11806   */\n      dup4\n        /* \"--CODEGEN--\":11748:11812   */\n      jump(tag_543)\n    tag_542:\n        /* \"--CODEGEN--\":11734:11812   */\n      swap1\n      pop\n        /* \"--CODEGEN--\":11727:11818   */\n      swap3\n      swap2\n      pop\n      pop\n      jump\n        /* \"--CODEGEN--\":11827:12072   */\n    tag_544:\n      0x00\n        /* \"--CODEGEN--\":11974:12066   */\n      tag_546\n        /* \"--CODEGEN--\":12062:12065   */\n      dup4\n        /* \"--CODEGEN--\":12054:12060   */\n      dup4\n        /* \"--CODEGEN--\":11974:12066   */\n      jump(tag_547)\n    tag_546:\n        /* \"--CODEGEN--\":11960:12066   */\n      swap1\n      pop\n        /* \"--CODEGEN--\":11953:12072   */\n      swap3\n      swap2\n      pop\n      pop\n      jump\n        /* \"--CODEGEN--\":12080:12222   */\n    tag_548:\n        /* \"--CODEGEN--\":12171:12216   */\n      tag_550\n        /* \"--CODEGEN--\":12210:12215   */\n      dup2\n        /* \"--CODEGEN--\":12171:12216   */\n      jump(tag_551)\n    tag_550:\n        /* \"--CODEGEN--\":12166:12169   */\n      dup3\n        /* \"--CODEGEN--\":12159:12217   */\n      mstore\n        /* \"--CODEGEN--\":12153:12222   */\n      pop\n      pop\n      jump\n        /* \"--CODEGEN--\":12229:12332   */\n    tag_552:\n        /* \"--CODEGEN--\":12302:12326   */\n      tag_554\n        /* \"--CODEGEN--\":12320:12325   */\n      dup2\n        /* \"--CODEGEN--\":12302:12326   */\n      jump(tag_555)\n    tag_554:\n        /* \"--CODEGEN--\":12297:12300   */\n      dup3\n        /* \"--CODEGEN--\":12290:12327   */\n      mstore\n        /* \"--CODEGEN--\":12284:12332   */\n      pop\n      pop\n      jump\n        /* \"--CODEGEN--\":12339:12452   */\n    tag_556:\n        /* \"--CODEGEN--\":12422:12446   */\n      tag_558\n        /* \"--CODEGEN--\":12440:12445   */\n      dup2\n        /* \"--CODEGEN--\":12422:12446   */\n      jump(tag_555)\n    tag_558:\n        /* \"--CODEGEN--\":12417:12420   */\n      dup3\n        /* \"--CODEGEN--\":12410:12447   */\n      mstore\n        /* \"--CODEGEN--\":12404:12452   */\n      pop\n      pop\n      jump\n        /* \"--CODEGEN--\":12486:13406   */\n    tag_559:\n      0x00\n        /* \"--CODEGEN--\":12649:12712   */\n      tag_561\n        /* \"--CODEGEN--\":12706:12711   */\n      dup3\n        /* \"--CODEGEN--\":12649:12712   */\n      jump(tag_562)\n    tag_561:\n        /* \"--CODEGEN--\":12725:12820   */\n      tag_563\n        /* \"--CODEGEN--\":12813:12819   */\n      dup2\n        /* \"--CODEGEN--\":12808:12811   */\n      dup6\n        /* \"--CODEGEN--\":12725:12820   */\n      jump(tag_564)\n    tag_563:\n        /* \"--CODEGEN--\":12718:12820   */\n      swap4\n      pop\n        /* \"--CODEGEN--\":12843:12846   */\n      dup4\n        /* \"--CODEGEN--\":12885:12889   */\n      0x20\n        /* \"--CODEGEN--\":12877:12883   */\n      dup3\n        /* \"--CODEGEN--\":12873:12890   */\n      mul\n        /* \"--CODEGEN--\":12868:12871   */\n      dup6\n        /* \"--CODEGEN--\":12864:12891   */\n      add\n        /* \"--CODEGEN--\":12912:12977   */\n      tag_565\n        /* \"--CODEGEN--\":12971:12976   */\n      dup6\n        /* \"--CODEGEN--\":12912:12977   */\n      jump(tag_566)\n    tag_565:\n        /* \"--CODEGEN--\":12997:13004   */\n      dup1\n        /* \"--CODEGEN--\":13025:13026   */\n      0x00\n        /* \"--CODEGEN--\":13010:13367   */\n    tag_567:\n        /* \"--CODEGEN--\":13035:13041   */\n      dup6\n        /* \"--CODEGEN--\":13032:13033   */\n      dup2\n        /* \"--CODEGEN--\":13029:13042   */\n      lt\n        /* \"--CODEGEN--\":13010:13367   */\n      iszero\n      tag_569\n      jumpi\n        /* \"--CODEGEN--\":13097:13106   */\n      dup5\n        /* \"--CODEGEN--\":13091:13095   */\n      dup5\n        /* \"--CODEGEN--\":13087:13107   */\n      sub\n        /* \"--CODEGEN--\":13082:13085   */\n      dup10\n        /* \"--CODEGEN--\":13075:13108   */\n      mstore\n        /* \"--CODEGEN--\":13142:13148   */\n      dup2\n        /* \"--CODEGEN--\":13136:13149   */\n      mload\n        /* \"--CODEGEN--\":13164:13246   */\n      tag_570\n        /* \"--CODEGEN--\":13241:13245   */\n      dup6\n        /* \"--CODEGEN--\":13226:13239   */\n      dup3\n        /* \"--CODEGEN--\":13164:13246   */\n      jump(tag_540)\n    tag_570:\n        /* \"--CODEGEN--\":13156:13246   */\n      swap5\n      pop\n        /* \"--CODEGEN--\":13263:13332   */\n      tag_571\n        /* \"--CODEGEN--\":13325:13331   */\n      dup4\n        /* \"--CODEGEN--\":13263:13332   */\n      jump(tag_572)\n    tag_571:\n        /* \"--CODEGEN--\":13253:13332   */\n      swap3\n      pop\n        /* \"--CODEGEN--\":13355:13359   */\n      0x20\n        /* \"--CODEGEN--\":13350:13353   */\n      dup11\n        /* \"--CODEGEN--\":13346:13360   */\n      add\n        /* \"--CODEGEN--\":13339:13360   */\n      swap10\n      pop\n        /* \"--CODEGEN--\":13067:13367   */\n      pop\n        /* \"--CODEGEN--\":13057:13058   */\n      0x01\n        /* \"--CODEGEN--\":13054:13055   */\n      dup2\n        /* \"--CODEGEN--\":13050:13059   */\n      add\n        /* \"--CODEGEN--\":13045:13059   */\n      swap1\n      pop\n        /* \"--CODEGEN--\":13010:13367   */\n      jump(tag_567)\n    tag_569:\n        /* \"--CODEGEN--\":13014:13028   */\n      pop\n        /* \"--CODEGEN--\":13380:13384   */\n      dup3\n        /* \"--CODEGEN--\":13373:13384   */\n      swap8\n      pop\n        /* \"--CODEGEN--\":13397:13400   */\n      dup8\n        /* \"--CODEGEN--\":13390:13400   */\n      swap6\n      pop\n        /* \"--CODEGEN--\":12628:13406   */\n      pop\n      pop\n      pop\n      pop\n      pop\n      swap3\n      swap2\n      pop\n      pop\n      jump\n        /* \"--CODEGEN--\":13481:14513   */\n    tag_573:\n      0x00\n        /* \"--CODEGEN--\":13672:13749   */\n      tag_575\n        /* \"--CODEGEN--\":13743:13748   */\n      dup3\n        /* \"--CODEGEN--\":13672:13749   */\n      jump(tag_576)\n    tag_575:\n        /* \"--CODEGEN--\":13762:13871   */\n      tag_577\n        /* \"--CODEGEN--\":13864:13870   */\n      dup2\n        /* \"--CODEGEN--\":13859:13862   */\n      dup6\n        /* \"--CODEGEN--\":13762:13871   */\n      jump(tag_578)\n    tag_577:\n        /* \"--CODEGEN--\":13755:13871   */\n      swap4\n      pop\n        /* \"--CODEGEN--\":13894:13897   */\n      dup4\n        /* \"--CODEGEN--\":13936:13940   */\n      0x20\n        /* \"--CODEGEN--\":13928:13934   */\n      dup3\n        /* \"--CODEGEN--\":13924:13941   */\n      mul\n        /* \"--CODEGEN--\":13919:13922   */\n      dup6\n        /* \"--CODEGEN--\":13915:13942   */\n      add\n        /* \"--CODEGEN--\":13963:14042   */\n      tag_579\n        /* \"--CODEGEN--\":14036:14041   */\n      dup6\n        /* \"--CODEGEN--\":13963:14042   */\n      jump(tag_580)\n    tag_579:\n        /* \"--CODEGEN--\":14062:14069   */\n      dup1\n        /* \"--CODEGEN--\":14090:14091   */\n      0x00\n        /* \"--CODEGEN--\":14075:14474   */\n    tag_581:\n        /* \"--CODEGEN--\":14100:14106   */\n      dup6\n        /* \"--CODEGEN--\":14097:14098   */\n      dup2\n        /* \"--CODEGEN--\":14094:14107   */\n      lt\n        /* \"--CODEGEN--\":14075:14474   */\n      iszero\n      tag_583\n      jumpi\n        /* \"--CODEGEN--\":14162:14171   */\n      dup5\n        /* \"--CODEGEN--\":14156:14160   */\n      dup5\n        /* \"--CODEGEN--\":14152:14172   */\n      sub\n        /* \"--CODEGEN--\":14147:14150   */\n      dup10\n        /* \"--CODEGEN--\":14140:14173   */\n      mstore\n        /* \"--CODEGEN--\":14207:14213   */\n      dup2\n        /* \"--CODEGEN--\":14201:14214   */\n      mload\n        /* \"--CODEGEN--\":14229:14339   */\n      tag_584\n        /* \"--CODEGEN--\":14334:14338   */\n      dup6\n        /* \"--CODEGEN--\":14319:14332   */\n      dup3\n        /* \"--CODEGEN--\":14229:14339   */\n      jump(tag_544)\n    tag_584:\n        /* \"--CODEGEN--\":14221:14339   */\n      swap5\n      pop\n        /* \"--CODEGEN--\":14356:14439   */\n      tag_585\n        /* \"--CODEGEN--\":14432:14438   */\n      dup4\n        /* \"--CODEGEN--\":14356:14439   */\n      jump(tag_586)\n    tag_585:\n        /* \"--CODEGEN--\":14346:14439   */\n      swap3\n      pop\n        /* \"--CODEGEN--\":14462:14466   */\n      0x20\n        /* \"--CODEGEN--\":14457:14460   */\n      dup11\n        /* \"--CODEGEN--\":14453:14467   */\n      add\n        /* \"--CODEGEN--\":14446:14467   */\n      swap10\n      pop\n        /* \"--CODEGEN--\":14132:14474   */\n      pop\n        /* \"--CODEGEN--\":14122:14123   */\n      0x01\n        /* \"--CODEGEN--\":14119:14120   */\n      dup2\n        /* \"--CODEGEN--\":14115:14124   */\n      add\n        /* \"--CODEGEN--\":14110:14124   */\n      swap1\n      pop\n        /* \"--CODEGEN--\":14075:14474   */\n      jump(tag_581)\n    tag_583:\n        /* \"--CODEGEN--\":14079:14093   */\n      pop\n        /* \"--CODEGEN--\":14487:14491   */\n      dup3\n        /* \"--CODEGEN--\":14480:14491   */\n      swap8\n      pop\n        /* \"--CODEGEN--\":14504:14507   */\n      dup8\n        /* \"--CODEGEN--\":14497:14507   */\n      swap6\n      pop\n        /* \"--CODEGEN--\":13651:14513   */\n      pop\n      pop\n      pop\n      pop\n      pop\n      swap3\n      swap2\n      pop\n      pop\n      jump\n        /* \"--CODEGEN--\":14521:14625   */\n    tag_587:\n        /* \"--CODEGEN--\":14598:14619   */\n      tag_589\n        /* \"--CODEGEN--\":14613:14618   */\n      dup2\n        /* \"--CODEGEN--\":14598:14619   */\n      jump(tag_590)\n    tag_589:\n        /* \"--CODEGEN--\":14593:14596   */\n      dup3\n        /* \"--CODEGEN--\":14586:14620   */\n      mstore\n        /* \"--CODEGEN--\":14580:14625   */\n      pop\n      pop\n      jump\n        /* \"--CODEGEN--\":14632:14745   */\n    tag_591:\n        /* \"--CODEGEN--\":14715:14739   */\n      tag_593\n        /* \"--CODEGEN--\":14733:14738   */\n      dup2\n        /* \"--CODEGEN--\":14715:14739   */\n      jump(tag_594)\n    tag_593:\n        /* \"--CODEGEN--\":14710:14713   */\n      dup3\n        /* \"--CODEGEN--\":14703:14740   */\n      mstore\n        /* \"--CODEGEN--\":14697:14745   */\n      pop\n      pop\n      jump\n        /* \"--CODEGEN--\":14752:14862   */\n    tag_595:\n        /* \"--CODEGEN--\":14833:14856   */\n      tag_597\n        /* \"--CODEGEN--\":14850:14855   */\n      dup2\n        /* \"--CODEGEN--\":14833:14856   */\n      jump(tag_598)\n    tag_597:\n        /* \"--CODEGEN--\":14828:14831   */\n      dup3\n        /* \"--CODEGEN--\":14821:14857   */\n      mstore\n        /* \"--CODEGEN--\":14815:14862   */\n      pop\n      pop\n      jump\n        /* \"--CODEGEN--\":14869:15192   */\n    tag_543:\n      0x00\n        /* \"--CODEGEN--\":14969:15007   */\n      tag_600\n        /* \"--CODEGEN--\":15001:15006   */\n      dup3\n        /* \"--CODEGEN--\":14969:15007   */\n      jump(tag_601)\n    tag_600:\n        /* \"--CODEGEN--\":15019:15079   */\n      tag_602\n        /* \"--CODEGEN--\":15072:15078   */\n      dup2\n        /* \"--CODEGEN--\":15067:15070   */\n      dup6\n        /* \"--CODEGEN--\":15019:15079   */\n      jump(tag_603)\n    tag_602:\n        /* \"--CODEGEN--\":15012:15079   */\n      swap4\n      pop\n        /* \"--CODEGEN--\":15084:15136   */\n      tag_604\n        /* \"--CODEGEN--\":15129:15135   */\n      dup2\n        /* \"--CODEGEN--\":15124:15127   */\n      dup6\n        /* \"--CODEGEN--\":15117:15121   */\n      0x20\n        /* \"--CODEGEN--\":15110:15115   */\n      dup7\n        /* \"--CODEGEN--\":15106:15122   */\n      add\n        /* \"--CODEGEN--\":15084:15136   */\n      jump(tag_605)\n    tag_604:\n        /* \"--CODEGEN--\":15157:15186   */\n      tag_606\n        /* \"--CODEGEN--\":15179:15185   */\n      dup2\n        /* \"--CODEGEN--\":15157:15186   */\n      jump(tag_607)\n    tag_606:\n        /* \"--CODEGEN--\":15152:15155   */\n      dup5\n        /* \"--CODEGEN--\":15148:15187   */\n      add\n        /* \"--CODEGEN--\":15141:15187   */\n      swap2\n      pop\n        /* \"--CODEGEN--\":14949:15192   */\n      pop\n      swap3\n      swap2\n      pop\n      pop\n      jump\n        /* \"--CODEGEN--\":15199:15542   */\n    tag_608:\n      0x00\n        /* \"--CODEGEN--\":15309:15347   */\n      tag_610\n        /* \"--CODEGEN--\":15341:15346   */\n      dup3\n        /* \"--CODEGEN--\":15309:15347   */\n      jump(tag_601)\n    tag_610:\n        /* \"--CODEGEN--\":15359:15429   */\n      tag_611\n        /* \"--CODEGEN--\":15422:15428   */\n      dup2\n        /* \"--CODEGEN--\":15417:15420   */\n      dup6\n        /* \"--CODEGEN--\":15359:15429   */\n      jump(tag_612)\n    tag_611:\n        /* \"--CODEGEN--\":15352:15429   */\n      swap4\n      pop\n        /* \"--CODEGEN--\":15434:15486   */\n      tag_613\n        /* \"--CODEGEN--\":15479:15485   */\n      dup2\n        /* \"--CODEGEN--\":15474:15477   */\n      dup6\n        /* \"--CODEGEN--\":15467:15471   */\n      0x20\n        /* \"--CODEGEN--\":15460:15465   */\n      dup7\n        /* \"--CODEGEN--\":15456:15472   */\n      add\n        /* \"--CODEGEN--\":15434:15486   */\n      jump(tag_605)\n    tag_613:\n        /* \"--CODEGEN--\":15507:15536   */\n      tag_614\n        /* \"--CODEGEN--\":15529:15535   */\n      dup2\n        /* \"--CODEGEN--\":15507:15536   */\n      jump(tag_607)\n    tag_614:\n        /* \"--CODEGEN--\":15502:15505   */\n      dup5\n        /* \"--CODEGEN--\":15498:15537   */\n      add\n        /* \"--CODEGEN--\":15491:15537   */\n      swap2\n      pop\n        /* \"--CODEGEN--\":15289:15542   */\n      pop\n      swap3\n      swap2\n      pop\n      pop\n      jump\n        /* \"--CODEGEN--\":15549:15905   */\n    tag_615:\n      0x00\n        /* \"--CODEGEN--\":15677:15715   */\n      tag_617\n        /* \"--CODEGEN--\":15709:15714   */\n      dup3\n        /* \"--CODEGEN--\":15677:15715   */\n      jump(tag_601)\n    tag_617:\n        /* \"--CODEGEN--\":15727:15815   */\n      tag_618\n        /* \"--CODEGEN--\":15808:15814   */\n      dup2\n        /* \"--CODEGEN--\":15803:15806   */\n      dup6\n        /* \"--CODEGEN--\":15727:15815   */\n      jump(tag_619)\n    tag_618:\n        /* \"--CODEGEN--\":15720:15815   */\n      swap4\n      pop\n        /* \"--CODEGEN--\":15820:15872   */\n      tag_620\n        /* \"--CODEGEN--\":15865:15871   */\n      dup2\n        /* \"--CODEGEN--\":15860:15863   */\n      dup6\n        /* \"--CODEGEN--\":15853:15857   */\n      0x20\n        /* \"--CODEGEN--\":15846:15851   */\n      dup7\n        /* \"--CODEGEN--\":15842:15858   */\n      add\n        /* \"--CODEGEN--\":15820:15872   */\n      jump(tag_605)\n    tag_620:\n        /* \"--CODEGEN--\":15893:15899   */\n      dup1\n        /* \"--CODEGEN--\":15888:15891   */\n      dup5\n        /* \"--CODEGEN--\":15884:15900   */\n      add\n        /* \"--CODEGEN--\":15877:15900   */\n      swap2\n      pop\n        /* \"--CODEGEN--\":15657:15905   */\n      pop\n      swap3\n      swap2\n      pop\n      pop\n      jump\n        /* \"--CODEGEN--\":15912:16076   */\n    tag_621:\n        /* \"--CODEGEN--\":16014:16070   */\n      tag_623\n        /* \"--CODEGEN--\":16064:16069   */\n      dup2\n        /* \"--CODEGEN--\":16014:16070   */\n      jump(tag_624)\n    tag_623:\n        /* \"--CODEGEN--\":16009:16012   */\n      dup3\n        /* \"--CODEGEN--\":16002:16071   */\n      mstore\n        /* \"--CODEGEN--\":15996:16076   */\n      pop\n      pop\n      jump\n        /* \"--CODEGEN--\":16108:16408   */\n    tag_625:\n      0x00\n        /* \"--CODEGEN--\":16224:16295   */\n      tag_627\n        /* \"--CODEGEN--\":16288:16294   */\n      dup4\n        /* \"--CODEGEN--\":16283:16286   */\n      dup6\n        /* \"--CODEGEN--\":16224:16295   */\n      jump(tag_628)\n    tag_627:\n        /* \"--CODEGEN--\":16217:16295   */\n      swap4\n      pop\n        /* \"--CODEGEN--\":16307:16350   */\n      tag_629\n        /* \"--CODEGEN--\":16343:16349   */\n      dup4\n        /* \"--CODEGEN--\":16338:16341   */\n      dup6\n        /* \"--CODEGEN--\":16331:16336   */\n      dup5\n        /* \"--CODEGEN--\":16307:16350   */\n      jump(tag_431)\n    tag_629:\n        /* \"--CODEGEN--\":16372:16401   */\n      tag_630\n        /* \"--CODEGEN--\":16394:16400   */\n      dup4\n        /* \"--CODEGEN--\":16372:16401   */\n      jump(tag_607)\n    tag_630:\n        /* \"--CODEGEN--\":16367:16370   */\n      dup5\n        /* \"--CODEGEN--\":16363:16402   */\n      add\n        /* \"--CODEGEN--\":16356:16402   */\n      swap1\n      pop\n        /* \"--CODEGEN--\":16210:16408   */\n      swap4\n      swap3\n      pop\n      pop\n      pop\n      jump\n        /* \"--CODEGEN--\":16416:16763   */\n    tag_631:\n      0x00\n        /* \"--CODEGEN--\":16528:16567   */\n      tag_633\n        /* \"--CODEGEN--\":16561:16566   */\n      dup3\n        /* \"--CODEGEN--\":16528:16567   */\n      jump(tag_634)\n    tag_633:\n        /* \"--CODEGEN--\":16579:16650   */\n      tag_635\n        /* \"--CODEGEN--\":16643:16649   */\n      dup2\n        /* \"--CODEGEN--\":16638:16641   */\n      dup6\n        /* \"--CODEGEN--\":16579:16650   */\n      jump(tag_628)\n    tag_635:\n        /* \"--CODEGEN--\":16572:16650   */\n      swap4\n      pop\n        /* \"--CODEGEN--\":16655:16707   */\n      tag_636\n        /* \"--CODEGEN--\":16700:16706   */\n      dup2\n        /* \"--CODEGEN--\":16695:16698   */\n      dup6\n        /* \"--CODEGEN--\":16688:16692   */\n      0x20\n        /* \"--CODEGEN--\":16681:16686   */\n      dup7\n        /* \"--CODEGEN--\":16677:16693   */\n      add\n        /* \"--CODEGEN--\":16655:16707   */\n      jump(tag_605)\n    tag_636:\n        /* \"--CODEGEN--\":16728:16757   */\n      tag_637\n        /* \"--CODEGEN--\":16750:16756   */\n      dup2\n        /* \"--CODEGEN--\":16728:16757   */\n      jump(tag_607)\n    tag_637:\n        /* \"--CODEGEN--\":16723:16726   */\n      dup5\n        /* \"--CODEGEN--\":16719:16758   */\n      add\n        /* \"--CODEGEN--\":16712:16758   */\n      swap2\n      pop\n        /* \"--CODEGEN--\":16508:16763   */\n      pop\n      swap3\n      swap2\n      pop\n      pop\n      jump\n        /* \"--CODEGEN--\":16770:17130   */\n    tag_638:\n      0x00\n        /* \"--CODEGEN--\":16900:16939   */\n      tag_640\n        /* \"--CODEGEN--\":16933:16938   */\n      dup3\n        /* \"--CODEGEN--\":16900:16939   */\n      jump(tag_634)\n    tag_640:\n        /* \"--CODEGEN--\":16951:17040   */\n      tag_641\n        /* \"--CODEGEN--\":17033:17039   */\n      dup2\n        /* \"--CODEGEN--\":17028:17031   */\n      dup6\n        /* \"--CODEGEN--\":16951:17040   */\n      jump(tag_642)\n    tag_641:\n        /* \"--CODEGEN--\":16944:17040   */\n      swap4\n      pop\n        /* \"--CODEGEN--\":17045:17097   */\n      tag_643\n        /* \"--CODEGEN--\":17090:17096   */\n      dup2\n        /* \"--CODEGEN--\":17085:17088   */\n      dup6\n        /* \"--CODEGEN--\":17078:17082   */\n      0x20\n        /* \"--CODEGEN--\":17071:17076   */\n      dup7\n        /* \"--CODEGEN--\":17067:17083   */\n      add\n        /* \"--CODEGEN--\":17045:17097   */\n      jump(tag_605)\n    tag_643:\n        /* \"--CODEGEN--\":17118:17124   */\n      dup1\n        /* \"--CODEGEN--\":17113:17116   */\n      dup5\n        /* \"--CODEGEN--\":17109:17125   */\n      add\n        /* \"--CODEGEN--\":17102:17125   */\n      swap2\n      pop\n        /* \"--CODEGEN--\":16880:17130   */\n      pop\n      swap3\n      swap2\n      pop\n      pop\n      jump\n        /* \"--CODEGEN--\":17138:17446   */\n    tag_644:\n      0x00\n        /* \"--CODEGEN--\":17298:17364   */\n      tag_646\n        /* \"--CODEGEN--\":17362:17363   */\n      0x09\n        /* \"--CODEGEN--\":17357:17360   */\n      dup4\n        /* \"--CODEGEN--\":17298:17364   */\n      jump(tag_628)\n    tag_646:\n        /* \"--CODEGEN--\":17291:17364   */\n      swap2\n      pop\n        /* \"--CODEGEN--\":17397:17408   */\n      0x61636c3a20617574680000000000000000000000000000000000000000000000\n        /* \"--CODEGEN--\":17393:17394   */\n      0x00\n        /* \"--CODEGEN--\":17388:17391   */\n      dup4\n        /* \"--CODEGEN--\":17384:17395   */\n      add\n        /* \"--CODEGEN--\":17377:17409   */\n      mstore\n        /* \"--CODEGEN--\":17437:17439   */\n      0x20\n        /* \"--CODEGEN--\":17432:17435   */\n      dup3\n        /* \"--CODEGEN--\":17428:17440   */\n      add\n        /* \"--CODEGEN--\":17421:17440   */\n      swap1\n      pop\n        /* \"--CODEGEN--\":17284:17446   */\n      swap2\n      swap1\n      pop\n      jump\n        /* \"--CODEGEN--\":17455:17766   */\n    tag_647:\n      0x00\n        /* \"--CODEGEN--\":17615:17682   */\n      tag_649\n        /* \"--CODEGEN--\":17679:17681   */\n      0x0b\n        /* \"--CODEGEN--\":17674:17677   */\n      dup4\n        /* \"--CODEGEN--\":17615:17682   */\n      jump(tag_628)\n    tag_649:\n        /* \"--CODEGEN--\":17608:17682   */\n      swap2\n      pop\n        /* \"--CODEGEN--\":17715:17728   */\n      0x61636c3a2066726f7a656e000000000000000000000000000000000000000000\n        /* \"--CODEGEN--\":17711:17712   */\n      0x00\n        /* \"--CODEGEN--\":17706:17709   */\n      dup4\n        /* \"--CODEGEN--\":17702:17713   */\n      add\n        /* \"--CODEGEN--\":17695:17729   */\n      mstore\n        /* \"--CODEGEN--\":17757:17759   */\n      0x20\n        /* \"--CODEGEN--\":17752:17755   */\n      dup3\n        /* \"--CODEGEN--\":17748:17760   */\n      add\n        /* \"--CODEGEN--\":17741:17760   */\n      swap1\n      pop\n        /* \"--CODEGEN--\":17601:17766   */\n      swap2\n      swap1\n      pop\n      jump\n        /* \"--CODEGEN--\":17775:18104   */\n    tag_650:\n      0x00\n        /* \"--CODEGEN--\":17935:18002   */\n      tag_652\n        /* \"--CODEGEN--\":17999:18001   */\n      0x1d\n        /* \"--CODEGEN--\":17994:17997   */\n      dup4\n        /* \"--CODEGEN--\":17935:18002   */\n      jump(tag_628)\n    tag_652:\n        /* \"--CODEGEN--\":17928:18002   */\n      swap2\n      pop\n        /* \"--CODEGEN--\":18035:18066   */\n      0x616461702d6572633136353a20756e6b6e6f776e2063616c6c6261636b000000\n        /* \"--CODEGEN--\":18031:18032   */\n      0x00\n        /* \"--CODEGEN--\":18026:18029   */\n      dup4\n        /* \"--CODEGEN--\":18022:18033   */\n      add\n        /* \"--CODEGEN--\":18015:18067   */\n      mstore\n        /* \"--CODEGEN--\":18095:18097   */\n      0x20\n        /* \"--CODEGEN--\":18090:18093   */\n      dup3\n        /* \"--CODEGEN--\":18086:18098   */\n      add\n        /* \"--CODEGEN--\":18079:18098   */\n      swap1\n      pop\n        /* \"--CODEGEN--\":17921:18104   */\n      swap2\n      swap1\n      pop\n      jump\n        /* \"--CODEGEN--\":18113:18484   */\n    tag_653:\n      0x00\n        /* \"--CODEGEN--\":18273:18340   */\n      tag_655\n        /* \"--CODEGEN--\":18337:18339   */\n      0x22\n        /* \"--CODEGEN--\":18332:18335   */\n      dup4\n        /* \"--CODEGEN--\":18273:18340   */\n      jump(tag_628)\n    tag_655:\n        /* \"--CODEGEN--\":18266:18340   */\n      swap2\n      pop\n        /* \"--CODEGEN--\":18373:18407   */\n      0x696e697469616c697a61626c653a20616c726561647920696e697469616c697a\n        /* \"--CODEGEN--\":18369:18370   */\n      0x00\n        /* \"--CODEGEN--\":18364:18367   */\n      dup4\n        /* \"--CODEGEN--\":18360:18371   */\n      add\n        /* \"--CODEGEN--\":18353:18408   */\n      mstore\n        /* \"--CODEGEN--\":18442:18446   */\n      0x6564000000000000000000000000000000000000000000000000000000000000\n        /* \"--CODEGEN--\":18437:18439   */\n      0x20\n        /* \"--CODEGEN--\":18432:18435   */\n      dup4\n        /* \"--CODEGEN--\":18428:18440   */\n      add\n        /* \"--CODEGEN--\":18421:18447   */\n      mstore\n        /* \"--CODEGEN--\":18475:18477   */\n      0x40\n        /* \"--CODEGEN--\":18470:18473   */\n      dup3\n        /* \"--CODEGEN--\":18466:18478   */\n      add\n        /* \"--CODEGEN--\":18459:18478   */\n      swap1\n      pop\n        /* \"--CODEGEN--\":18259:18484   */\n      swap2\n      swap1\n      pop\n      jump\n        /* \"--CODEGEN--\":18493:18789   */\n    tag_656:\n      0x00\n        /* \"--CODEGEN--\":18670:18753   */\n      tag_658\n        /* \"--CODEGEN--\":18751:18752   */\n      0x00\n        /* \"--CODEGEN--\":18746:18749   */\n      dup4\n        /* \"--CODEGEN--\":18670:18753   */\n      jump(tag_619)\n    tag_658:\n        /* \"--CODEGEN--\":18663:18753   */\n      swap2\n      pop\n        /* \"--CODEGEN--\":18781:18782   */\n      0x00\n        /* \"--CODEGEN--\":18776:18779   */\n      dup3\n        /* \"--CODEGEN--\":18772:18783   */\n      add\n        /* \"--CODEGEN--\":18765:18783   */\n      swap1\n      pop\n        /* \"--CODEGEN--\":18656:18789   */\n      swap2\n      swap1\n      pop\n      jump\n        /* \"--CODEGEN--\":18798:19126   */\n    tag_659:\n      0x00\n        /* \"--CODEGEN--\":18958:19025   */\n      tag_661\n        /* \"--CODEGEN--\":19022:19024   */\n      0x1c\n        /* \"--CODEGEN--\":19017:19020   */\n      dup4\n        /* \"--CODEGEN--\":18958:19025   */\n      jump(tag_628)\n    tag_661:\n        /* \"--CODEGEN--\":18951:19025   */\n      swap2\n      pop\n        /* \"--CODEGEN--\":19058:19088   */\n      0x61636c3a20696e697469616c20726f6f74206d6973616c69676e656400000000\n        /* \"--CODEGEN--\":19054:19055   */\n      0x00\n        /* \"--CODEGEN--\":19049:19052   */\n      dup4\n        /* \"--CODEGEN--\":19045:19056   */\n      add\n        /* \"--CODEGEN--\":19038:19089   */\n      mstore\n        /* \"--CODEGEN--\":19117:19119   */\n      0x20\n        /* \"--CODEGEN--\":19112:19115   */\n      dup3\n        /* \"--CODEGEN--\":19108:19120   */\n      add\n        /* \"--CODEGEN--\":19101:19120   */\n      swap1\n      pop\n        /* \"--CODEGEN--\":18944:19126   */\n      swap2\n      swap1\n      pop\n      jump\n        /* \"--CODEGEN--\":19135:19472   */\n    tag_662:\n      0x00\n        /* \"--CODEGEN--\":19313:19397   */\n      tag_664\n        /* \"--CODEGEN--\":19395:19396   */\n      0x03\n        /* \"--CODEGEN--\":19390:19393   */\n      dup4\n        /* \"--CODEGEN--\":19313:19397   */\n      jump(tag_642)\n    tag_664:\n        /* \"--CODEGEN--\":19306:19397   */\n      swap2\n      pop\n        /* \"--CODEGEN--\":19430:19435   */\n      0x61636c0000000000000000000000000000000000000000000000000000000000\n        /* \"--CODEGEN--\":19426:19427   */\n      0x00\n        /* \"--CODEGEN--\":19421:19424   */\n      dup4\n        /* \"--CODEGEN--\":19417:19428   */\n      add\n        /* \"--CODEGEN--\":19410:19436   */\n      mstore\n        /* \"--CODEGEN--\":19464:19465   */\n      0x03\n        /* \"--CODEGEN--\":19459:19462   */\n      dup3\n        /* \"--CODEGEN--\":19455:19466   */\n      add\n        /* \"--CODEGEN--\":19448:19466   */\n      swap1\n      pop\n        /* \"--CODEGEN--\":19299:19472   */\n      swap2\n      swap1\n      pop\n      jump\n        /* \"--CODEGEN--\":19481:19796   */\n    tag_665:\n      0x00\n        /* \"--CODEGEN--\":19641:19708   */\n      tag_667\n        /* \"--CODEGEN--\":19705:19707   */\n      0x0f\n        /* \"--CODEGEN--\":19700:19703   */\n      dup4\n        /* \"--CODEGEN--\":19641:19708   */\n      jump(tag_628)\n    tag_667:\n        /* \"--CODEGEN--\":19634:19708   */\n      swap2\n      pop\n        /* \"--CODEGEN--\":19741:19758   */\n      0x61636c3a2062616420667265657a650000000000000000000000000000000000\n        /* \"--CODEGEN--\":19737:19738   */\n      0x00\n        /* \"--CODEGEN--\":19732:19735   */\n      dup4\n        /* \"--CODEGEN--\":19728:19739   */\n      add\n        /* \"--CODEGEN--\":19721:19759   */\n      mstore\n        /* \"--CODEGEN--\":19787:19789   */\n      0x20\n        /* \"--CODEGEN--\":19782:19785   */\n      dup3\n        /* \"--CODEGEN--\":19778:19790   */\n      add\n        /* \"--CODEGEN--\":19771:19790   */\n      swap1\n      pop\n        /* \"--CODEGEN--\":19627:19796   */\n      swap2\n      swap1\n      pop\n      jump\n        /* \"--CODEGEN--\":19865:20573   */\n    tag_547:\n      0x00\n        /* \"--CODEGEN--\":20002:20006   */\n      0x60\n        /* \"--CODEGEN--\":19997:20000   */\n      dup4\n        /* \"--CODEGEN--\":19993:20007   */\n      add\n        /* \"--CODEGEN--\":20083:20087   */\n      0x00\n        /* \"--CODEGEN--\":20076:20081   */\n      dup4\n        /* \"--CODEGEN--\":20072:20088   */\n      add\n        /* \"--CODEGEN--\":20066:20089   */\n      mload\n        /* \"--CODEGEN--\":20095:20158   */\n      tag_669\n        /* \"--CODEGEN--\":20152:20156   */\n      0x00\n        /* \"--CODEGEN--\":20147:20150   */\n      dup7\n        /* \"--CODEGEN--\":20143:20157   */\n      add\n        /* \"--CODEGEN--\":20129:20141   */\n      dup3\n        /* \"--CODEGEN--\":20095:20158   */\n      jump(tag_552)\n    tag_669:\n        /* \"--CODEGEN--\":20022:20164   */\n      pop\n        /* \"--CODEGEN--\":20238:20242   */\n      0x20\n        /* \"--CODEGEN--\":20231:20236   */\n      dup4\n        /* \"--CODEGEN--\":20227:20243   */\n      add\n        /* \"--CODEGEN--\":20221:20244   */\n      mload\n        /* \"--CODEGEN--\":20250:20313   */\n      tag_670\n        /* \"--CODEGEN--\":20307:20311   */\n      0x20\n        /* \"--CODEGEN--\":20302:20305   */\n      dup7\n        /* \"--CODEGEN--\":20298:20312   */\n      add\n        /* \"--CODEGEN--\":20284:20296   */\n      dup3\n        /* \"--CODEGEN--\":20250:20313   */\n      jump(tag_671)\n    tag_670:\n        /* \"--CODEGEN--\":20174:20319   */\n      pop\n        /* \"--CODEGEN--\":20392:20396   */\n      0x40\n        /* \"--CODEGEN--\":20385:20390   */\n      dup4\n        /* \"--CODEGEN--\":20381:20397   */\n      add\n        /* \"--CODEGEN--\":20375:20398   */\n      mload\n        /* \"--CODEGEN--\":20444:20447   */\n      dup5\n        /* \"--CODEGEN--\":20438:20442   */\n      dup3\n        /* \"--CODEGEN--\":20434:20448   */\n      sub\n        /* \"--CODEGEN--\":20427:20431   */\n      0x40\n        /* \"--CODEGEN--\":20422:20425   */\n      dup7\n        /* \"--CODEGEN--\":20418:20432   */\n      add\n        /* \"--CODEGEN--\":20411:20449   */\n      mstore\n        /* \"--CODEGEN--\":20464:20535   */\n      tag_672\n        /* \"--CODEGEN--\":20530:20534   */\n      dup3\n        /* \"--CODEGEN--\":20516:20528   */\n      dup3\n        /* \"--CODEGEN--\":20464:20535   */\n      jump(tag_543)\n    tag_672:\n        /* \"--CODEGEN--\":20456:20535   */\n      swap2\n      pop\n        /* \"--CODEGEN--\":20329:20547   */\n      pop\n        /* \"--CODEGEN--\":20564:20568   */\n      dup1\n        /* \"--CODEGEN--\":20557:20568   */\n      swap2\n      pop\n        /* \"--CODEGEN--\":19975:20573   */\n      pop\n      swap3\n      swap2\n      pop\n      pop\n      jump\n        /* \"--CODEGEN--\":20580:20683   */\n    tag_671:\n        /* \"--CODEGEN--\":20653:20677   */\n      tag_674\n        /* \"--CODEGEN--\":20671:20676   */\n      dup2\n        /* \"--CODEGEN--\":20653:20677   */\n      jump(tag_675)\n    tag_674:\n        /* \"--CODEGEN--\":20648:20651   */\n      dup3\n        /* \"--CODEGEN--\":20641:20678   */\n      mstore\n        /* \"--CODEGEN--\":20635:20683   */\n      pop\n      pop\n      jump\n        /* \"--CODEGEN--\":20690:20803   */\n    tag_676:\n        /* \"--CODEGEN--\":20773:20797   */\n      tag_678\n        /* \"--CODEGEN--\":20791:20796   */\n      dup2\n        /* \"--CODEGEN--\":20773:20797   */\n      jump(tag_675)\n    tag_678:\n        /* \"--CODEGEN--\":20768:20771   */\n      dup3\n        /* \"--CODEGEN--\":20761:20798   */\n      mstore\n        /* \"--CODEGEN--\":20755:20803   */\n      pop\n      pop\n      jump\n        /* \"--CODEGEN--\":20810:21081   */\n    tag_266:\n      0x00\n        /* \"--CODEGEN--\":20963:21056   */\n      tag_680\n        /* \"--CODEGEN--\":21052:21055   */\n      dup3\n        /* \"--CODEGEN--\":21043:21049   */\n      dup5\n        /* \"--CODEGEN--\":20963:21056   */\n      jump(tag_615)\n    tag_680:\n        /* \"--CODEGEN--\":20956:21056   */\n      swap2\n      pop\n        /* \"--CODEGEN--\":21073:21076   */\n      dup2\n        /* \"--CODEGEN--\":21066:21076   */\n      swap1\n      pop\n        /* \"--CODEGEN--\":20944:21081   */\n      swap3\n      swap2\n      pop\n      pop\n      jump\n        /* \"--CODEGEN--\":21088:21363   */\n    tag_294:\n      0x00\n        /* \"--CODEGEN--\":21243:21338   */\n      tag_682\n        /* \"--CODEGEN--\":21334:21337   */\n      dup3\n        /* \"--CODEGEN--\":21325:21331   */\n      dup5\n        /* \"--CODEGEN--\":21243:21338   */\n      jump(tag_638)\n    tag_682:\n        /* \"--CODEGEN--\":21236:21338   */\n      swap2\n      pop\n        /* \"--CODEGEN--\":21355:21358   */\n      dup2\n        /* \"--CODEGEN--\":21348:21358   */\n      swap1\n      pop\n        /* \"--CODEGEN--\":21224:21363   */\n      swap3\n      swap2\n      pop\n      pop\n      jump\n        /* \"--CODEGEN--\":21370:21749   */\n    tag_180:\n      0x00\n        /* \"--CODEGEN--\":21577:21724   */\n      tag_684\n        /* \"--CODEGEN--\":21720:21723   */\n      dup3\n        /* \"--CODEGEN--\":21577:21724   */\n      jump(tag_656)\n    tag_684:\n        /* \"--CODEGEN--\":21570:21724   */\n      swap2\n      pop\n        /* \"--CODEGEN--\":21741:21744   */\n      dup2\n        /* \"--CODEGEN--\":21734:21744   */\n      swap1\n      pop\n        /* \"--CODEGEN--\":21558:21749   */\n      swap2\n      swap1\n      pop\n      jump\n        /* \"--CODEGEN--\":21756:22137   */\n    tag_284:\n      0x00\n        /* \"--CODEGEN--\":21964:22112   */\n      tag_686\n        /* \"--CODEGEN--\":22108:22111   */\n      dup3\n        /* \"--CODEGEN--\":21964:22112   */\n      jump(tag_662)\n    tag_686:\n        /* \"--CODEGEN--\":21957:22112   */\n      swap2\n      pop\n        /* \"--CODEGEN--\":22129:22132   */\n      dup2\n        /* \"--CODEGEN--\":22122:22132   */\n      swap1\n      pop\n        /* \"--CODEGEN--\":21945:22137   */\n      swap2\n      swap1\n      pop\n      jump\n        /* \"--CODEGEN--\":22144:22366   */\n    tag_80:\n      0x00\n        /* \"--CODEGEN--\":22271:22273   */\n      0x20\n        /* \"--CODEGEN--\":22260:22269   */\n      dup3\n        /* \"--CODEGEN--\":22256:22274   */\n      add\n        /* \"--CODEGEN--\":22248:22274   */\n      swap1\n      pop\n        /* \"--CODEGEN--\":22285:22356   */\n      tag_688\n        /* \"--CODEGEN--\":22353:22354   */\n      0x00\n        /* \"--CODEGEN--\":22342:22351   */\n      dup4\n        /* \"--CODEGEN--\":22338:22355   */\n      add\n        /* \"--CODEGEN--\":22329:22335   */\n      dup5\n        /* \"--CODEGEN--\":22285:22356   */\n      jump(tag_556)\n    tag_688:\n        /* \"--CODEGEN--\":22242:22366   */\n      swap3\n      swap2\n      pop\n      pop\n      jump\n        /* \"--CODEGEN--\":22373:22722   */\n    tag_26:\n      0x00\n        /* \"--CODEGEN--\":22536:22538   */\n      0x40\n        /* \"--CODEGEN--\":22525:22534   */\n      dup3\n        /* \"--CODEGEN--\":22521:22539   */\n      add\n        /* \"--CODEGEN--\":22513:22539   */\n      swap1\n      pop\n        /* \"--CODEGEN--\":22550:22629   */\n      tag_690\n        /* \"--CODEGEN--\":22626:22627   */\n      0x00\n        /* \"--CODEGEN--\":22615:22624   */\n      dup4\n        /* \"--CODEGEN--\":22611:22628   */\n      add\n        /* \"--CODEGEN--\":22602:22608   */\n      dup6\n        /* \"--CODEGEN--\":22550:22629   */\n      jump(tag_548)\n    tag_690:\n        /* \"--CODEGEN--\":22640:22712   */\n      tag_691\n        /* \"--CODEGEN--\":22708:22710   */\n      0x20\n        /* \"--CODEGEN--\":22697:22706   */\n      dup4\n        /* \"--CODEGEN--\":22693:22711   */\n      add\n        /* \"--CODEGEN--\":22684:22690   */\n      dup5\n        /* \"--CODEGEN--\":22640:22712   */\n      jump(tag_676)\n    tag_691:\n        /* \"--CODEGEN--\":22507:22722   */\n      swap4\n      swap3\n      pop\n      pop\n      pop\n      jump\n        /* \"--CODEGEN--\":22729:23173   */\n    tag_347:\n      0x00\n        /* \"--CODEGEN--\":22912:22914   */\n      0x60\n        /* \"--CODEGEN--\":22901:22910   */\n      dup3\n        /* \"--CODEGEN--\":22897:22915   */\n      add\n        /* \"--CODEGEN--\":22889:22915   */\n      swap1\n      pop\n        /* \"--CODEGEN--\":22926:22997   */\n      tag_693\n        /* \"--CODEGEN--\":22994:22995   */\n      0x00\n        /* \"--CODEGEN--\":22983:22992   */\n      dup4\n        /* \"--CODEGEN--\":22979:22996   */\n      add\n        /* \"--CODEGEN--\":22970:22976   */\n      dup7\n        /* \"--CODEGEN--\":22926:22997   */\n      jump(tag_556)\n    tag_693:\n        /* \"--CODEGEN--\":23008:23080   */\n      tag_694\n        /* \"--CODEGEN--\":23076:23078   */\n      0x20\n        /* \"--CODEGEN--\":23065:23074   */\n      dup4\n        /* \"--CODEGEN--\":23061:23079   */\n      add\n        /* \"--CODEGEN--\":23052:23058   */\n      dup6\n        /* \"--CODEGEN--\":23008:23080   */\n      jump(tag_556)\n    tag_694:\n        /* \"--CODEGEN--\":23091:23163   */\n      tag_695\n        /* \"--CODEGEN--\":23159:23161   */\n      0x40\n        /* \"--CODEGEN--\":23148:23157   */\n      dup4\n        /* \"--CODEGEN--\":23144:23162   */\n      add\n        /* \"--CODEGEN--\":23135:23141   */\n      dup5\n        /* \"--CODEGEN--\":23091:23163   */\n      jump(tag_676)\n    tag_695:\n        /* \"--CODEGEN--\":22883:23173   */\n      swap5\n      swap4\n      pop\n      pop\n      pop\n      pop\n      jump\n        /* \"--CODEGEN--\":23180:23513   */\n    tag_328:\n      0x00\n        /* \"--CODEGEN--\":23335:23337   */\n      0x40\n        /* \"--CODEGEN--\":23324:23333   */\n      dup3\n        /* \"--CODEGEN--\":23320:23338   */\n      add\n        /* \"--CODEGEN--\":23312:23338   */\n      swap1\n      pop\n        /* \"--CODEGEN--\":23349:23420   */\n      tag_697\n        /* \"--CODEGEN--\":23417:23418   */\n      0x00\n        /* \"--CODEGEN--\":23406:23415   */\n      dup4\n        /* \"--CODEGEN--\":23402:23419   */\n      add\n        /* \"--CODEGEN--\":23393:23399   */\n      dup6\n        /* \"--CODEGEN--\":23349:23420   */\n      jump(tag_556)\n    tag_697:\n        /* \"--CODEGEN--\":23431:23503   */\n      tag_698\n        /* \"--CODEGEN--\":23499:23501   */\n      0x20\n        /* \"--CODEGEN--\":23488:23497   */\n      dup4\n        /* \"--CODEGEN--\":23484:23502   */\n      add\n        /* \"--CODEGEN--\":23475:23481   */\n      dup5\n        /* \"--CODEGEN--\":23431:23503   */\n      jump(tag_676)\n    tag_698:\n        /* \"--CODEGEN--\":23306:23513   */\n      swap4\n      swap3\n      pop\n      pop\n      pop\n      jump\n        /* \"--CODEGEN--\":23520:24052   */\n    tag_193:\n      0x00\n        /* \"--CODEGEN--\":23723:23725   */\n      0x60\n        /* \"--CODEGEN--\":23712:23721   */\n      dup3\n        /* \"--CODEGEN--\":23708:23726   */\n      add\n        /* \"--CODEGEN--\":23700:23726   */\n      swap1\n      pop\n        /* \"--CODEGEN--\":23737:23808   */\n      tag_700\n        /* \"--CODEGEN--\":23805:23806   */\n      0x00\n        /* \"--CODEGEN--\":23794:23803   */\n      dup4\n        /* \"--CODEGEN--\":23790:23807   */\n      add\n        /* \"--CODEGEN--\":23781:23787   */\n      dup7\n        /* \"--CODEGEN--\":23737:23808   */\n      jump(tag_556)\n    tag_700:\n        /* \"--CODEGEN--\":23819:23891   */\n      tag_701\n        /* \"--CODEGEN--\":23887:23889   */\n      0x20\n        /* \"--CODEGEN--\":23876:23885   */\n      dup4\n        /* \"--CODEGEN--\":23872:23890   */\n      add\n        /* \"--CODEGEN--\":23863:23869   */\n      dup6\n        /* \"--CODEGEN--\":23819:23891   */\n      jump(tag_676)\n    tag_701:\n        /* \"--CODEGEN--\":23939:23948   */\n      dup2\n        /* \"--CODEGEN--\":23933:23937   */\n      dup2\n        /* \"--CODEGEN--\":23929:23949   */\n      sub\n        /* \"--CODEGEN--\":23924:23926   */\n      0x40\n        /* \"--CODEGEN--\":23913:23922   */\n      dup4\n        /* \"--CODEGEN--\":23909:23927   */\n      add\n        /* \"--CODEGEN--\":23902:23950   */\n      mstore\n        /* \"--CODEGEN--\":23964:24042   */\n      tag_702\n        /* \"--CODEGEN--\":24037:24041   */\n      dup2\n        /* \"--CODEGEN--\":24028:24034   */\n      dup5\n        /* \"--CODEGEN--\":23964:24042   */\n      jump(tag_631)\n    tag_702:\n        /* \"--CODEGEN--\":23956:24042   */\n      swap1\n      pop\n        /* \"--CODEGEN--\":23694:24052   */\n      swap5\n      swap4\n      pop\n      pop\n      pop\n      pop\n      jump\n        /* \"--CODEGEN--\":24059:25039   */\n    tag_281:\n      0x00\n        /* \"--CODEGEN--\":24434:24437   */\n      0x80\n        /* \"--CODEGEN--\":24423:24432   */\n      dup3\n        /* \"--CODEGEN--\":24419:24438   */\n      add\n        /* \"--CODEGEN--\":24411:24438   */\n      swap1\n      pop\n        /* \"--CODEGEN--\":24485:24494   */\n      dup2\n        /* \"--CODEGEN--\":24479:24483   */\n      dup2\n        /* \"--CODEGEN--\":24475:24495   */\n      sub\n        /* \"--CODEGEN--\":24471:24472   */\n      0x00\n        /* \"--CODEGEN--\":24460:24469   */\n      dup4\n        /* \"--CODEGEN--\":24456:24473   */\n      add\n        /* \"--CODEGEN--\":24449:24496   */\n      mstore\n        /* \"--CODEGEN--\":24510:24664   */\n      tag_704\n        /* \"--CODEGEN--\":24659:24663   */\n      dup2\n        /* \"--CODEGEN--\":24650:24656   */\n      dup8\n        /* \"--CODEGEN--\":24510:24664   */\n      jump(tag_573)\n    tag_704:\n        /* \"--CODEGEN--\":24502:24664   */\n      swap1\n      pop\n        /* \"--CODEGEN--\":24675:24747   */\n      tag_705\n        /* \"--CODEGEN--\":24743:24745   */\n      0x20\n        /* \"--CODEGEN--\":24732:24741   */\n      dup4\n        /* \"--CODEGEN--\":24728:24746   */\n      add\n        /* \"--CODEGEN--\":24719:24725   */\n      dup7\n        /* \"--CODEGEN--\":24675:24747   */\n      jump(tag_591)\n    tag_705:\n        /* \"--CODEGEN--\":24758:24830   */\n      tag_706\n        /* \"--CODEGEN--\":24826:24828   */\n      0x40\n        /* \"--CODEGEN--\":24815:24824   */\n      dup4\n        /* \"--CODEGEN--\":24811:24829   */\n      add\n        /* \"--CODEGEN--\":24802:24808   */\n      dup6\n        /* \"--CODEGEN--\":24758:24830   */\n      jump(tag_591)\n    tag_706:\n        /* \"--CODEGEN--\":24878:24887   */\n      dup2\n        /* \"--CODEGEN--\":24872:24876   */\n      dup2\n        /* \"--CODEGEN--\":24868:24888   */\n      sub\n        /* \"--CODEGEN--\":24863:24865   */\n      0x60\n        /* \"--CODEGEN--\":24852:24861   */\n      dup4\n        /* \"--CODEGEN--\":24848:24866   */\n      add\n        /* \"--CODEGEN--\":24841:24889   */\n      mstore\n        /* \"--CODEGEN--\":24903:25029   */\n      tag_707\n        /* \"--CODEGEN--\":25024:25028   */\n      dup2\n        /* \"--CODEGEN--\":25015:25021   */\n      dup5\n        /* \"--CODEGEN--\":24903:25029   */\n      jump(tag_559)\n    tag_707:\n        /* \"--CODEGEN--\":24895:25029   */\n      swap1\n      pop\n        /* \"--CODEGEN--\":24405:25039   */\n      swap6\n      swap5\n      pop\n      pop\n      pop\n      pop\n      pop\n      jump\n        /* \"--CODEGEN--\":25046:25256   */\n    tag_38:\n      0x00\n        /* \"--CODEGEN--\":25167:25169   */\n      0x20\n        /* \"--CODEGEN--\":25156:25165   */\n      dup3\n        /* \"--CODEGEN--\":25152:25170   */\n      add\n        /* \"--CODEGEN--\":25144:25170   */\n      swap1\n      pop\n        /* \"--CODEGEN--\":25181:25246   */\n      tag_709\n        /* \"--CODEGEN--\":25243:25244   */\n      0x00\n        /* \"--CODEGEN--\":25232:25241   */\n      dup4\n        /* \"--CODEGEN--\":25228:25245   */\n      add\n        /* \"--CODEGEN--\":25219:25225   */\n      dup5\n        /* \"--CODEGEN--\":25181:25246   */\n      jump(tag_587)\n    tag_709:\n        /* \"--CODEGEN--\":25138:25256   */\n      swap3\n      swap2\n      pop\n      pop\n      jump\n        /* \"--CODEGEN--\":25263:25780   */\n    tag_109:\n      0x00\n        /* \"--CODEGEN--\":25486:25488   */\n      0x40\n        /* \"--CODEGEN--\":25475:25484   */\n      dup3\n        /* \"--CODEGEN--\":25471:25489   */\n      add\n        /* \"--CODEGEN--\":25463:25489   */\n      swap1\n      pop\n        /* \"--CODEGEN--\":25500:25571   */\n      tag_711\n        /* \"--CODEGEN--\":25568:25569   */\n      0x00\n        /* \"--CODEGEN--\":25557:25566   */\n      dup4\n        /* \"--CODEGEN--\":25553:25570   */\n      add\n        /* \"--CODEGEN--\":25544:25550   */\n      dup6\n        /* \"--CODEGEN--\":25500:25571   */\n      jump(tag_591)\n    tag_711:\n        /* \"--CODEGEN--\":25619:25628   */\n      dup2\n        /* \"--CODEGEN--\":25613:25617   */\n      dup2\n        /* \"--CODEGEN--\":25609:25629   */\n      sub\n        /* \"--CODEGEN--\":25604:25606   */\n      0x20\n        /* \"--CODEGEN--\":25593:25602   */\n      dup4\n        /* \"--CODEGEN--\":25589:25607   */\n      add\n        /* \"--CODEGEN--\":25582:25630   */\n      mstore\n        /* \"--CODEGEN--\":25644:25770   */\n      tag_712\n        /* \"--CODEGEN--\":25765:25769   */\n      dup2\n        /* \"--CODEGEN--\":25756:25762   */\n      dup5\n        /* \"--CODEGEN--\":25644:25770   */\n      jump(tag_559)\n    tag_712:\n        /* \"--CODEGEN--\":25636:25770   */\n      swap1\n      pop\n        /* \"--CODEGEN--\":25457:25780   */\n      swap4\n      swap3\n      pop\n      pop\n      pop\n      jump\n        /* \"--CODEGEN--\":25787:26204   */\n    tag_135:\n      0x00\n        /* \"--CODEGEN--\":25960:25962   */\n      0x40\n        /* \"--CODEGEN--\":25949:25958   */\n      dup3\n        /* \"--CODEGEN--\":25945:25963   */\n      add\n        /* \"--CODEGEN--\":25937:25963   */\n      swap1\n      pop\n        /* \"--CODEGEN--\":25974:26045   */\n      tag_714\n        /* \"--CODEGEN--\":26042:26043   */\n      0x00\n        /* \"--CODEGEN--\":26031:26040   */\n      dup4\n        /* \"--CODEGEN--\":26027:26044   */\n      add\n        /* \"--CODEGEN--\":26018:26024   */\n      dup6\n        /* \"--CODEGEN--\":25974:26045   */\n      jump(tag_591)\n    tag_714:\n        /* \"--CODEGEN--\":26093:26102   */\n      dup2\n        /* \"--CODEGEN--\":26087:26091   */\n      dup2\n        /* \"--CODEGEN--\":26083:26103   */\n      sub\n        /* \"--CODEGEN--\":26078:26080   */\n      0x20\n        /* \"--CODEGEN--\":26067:26076   */\n      dup4\n        /* \"--CODEGEN--\":26063:26081   */\n      add\n        /* \"--CODEGEN--\":26056:26104   */\n      mstore\n        /* \"--CODEGEN--\":26118:26194   */\n      tag_715\n        /* \"--CODEGEN--\":26189:26193   */\n      dup2\n        /* \"--CODEGEN--\":26180:26186   */\n      dup5\n        /* \"--CODEGEN--\":26118:26194   */\n      jump(tag_608)\n    tag_715:\n        /* \"--CODEGEN--\":26110:26194   */\n      swap1\n      pop\n        /* \"--CODEGEN--\":25931:26204   */\n      swap4\n      swap3\n      pop\n      pop\n      pop\n      jump\n        /* \"--CODEGEN--\":26211:26429   */\n    tag_45:\n      0x00\n        /* \"--CODEGEN--\":26336:26338   */\n      0x20\n        /* \"--CODEGEN--\":26325:26334   */\n      dup3\n        /* \"--CODEGEN--\":26321:26339   */\n      add\n        /* \"--CODEGEN--\":26313:26339   */\n      swap1\n      pop\n        /* \"--CODEGEN--\":26350:26419   */\n      tag_717\n        /* \"--CODEGEN--\":26416:26417   */\n      0x00\n        /* \"--CODEGEN--\":26405:26414   */\n      dup4\n        /* \"--CODEGEN--\":26401:26418   */\n      add\n        /* \"--CODEGEN--\":26392:26398   */\n      dup5\n        /* \"--CODEGEN--\":26350:26419   */\n      jump(tag_595)\n    tag_717:\n        /* \"--CODEGEN--\":26307:26429   */\n      swap3\n      swap2\n      pop\n      pop\n      jump\n        /* \"--CODEGEN--\":26436:26960   */\n    tag_365:\n      0x00\n        /* \"--CODEGEN--\":26635:26637   */\n      0x60\n        /* \"--CODEGEN--\":26624:26633   */\n      dup3\n        /* \"--CODEGEN--\":26620:26638   */\n      add\n        /* \"--CODEGEN--\":26612:26638   */\n      swap1\n      pop\n        /* \"--CODEGEN--\":26649:26718   */\n      tag_719\n        /* \"--CODEGEN--\":26715:26716   */\n      0x00\n        /* \"--CODEGEN--\":26704:26713   */\n      dup4\n        /* \"--CODEGEN--\":26700:26717   */\n      add\n        /* \"--CODEGEN--\":26691:26697   */\n      dup7\n        /* \"--CODEGEN--\":26649:26718   */\n      jump(tag_595)\n    tag_719:\n        /* \"--CODEGEN--\":26729:26801   */\n      tag_720\n        /* \"--CODEGEN--\":26797:26799   */\n      0x20\n        /* \"--CODEGEN--\":26786:26795   */\n      dup4\n        /* \"--CODEGEN--\":26782:26800   */\n      add\n        /* \"--CODEGEN--\":26773:26779   */\n      dup6\n        /* \"--CODEGEN--\":26729:26801   */\n      jump(tag_556)\n    tag_720:\n        /* \"--CODEGEN--\":26849:26858   */\n      dup2\n        /* \"--CODEGEN--\":26843:26847   */\n      dup2\n        /* \"--CODEGEN--\":26839:26859   */\n      sub\n        /* \"--CODEGEN--\":26834:26836   */\n      0x40\n        /* \"--CODEGEN--\":26823:26832   */\n      dup4\n        /* \"--CODEGEN--\":26819:26837   */\n      add\n        /* \"--CODEGEN--\":26812:26860   */\n      mstore\n        /* \"--CODEGEN--\":26874:26950   */\n      tag_721\n        /* \"--CODEGEN--\":26945:26949   */\n      dup2\n        /* \"--CODEGEN--\":26936:26942   */\n      dup5\n        /* \"--CODEGEN--\":26874:26950   */\n      jump(tag_608)\n    tag_721:\n        /* \"--CODEGEN--\":26866:26950   */\n      swap1\n      pop\n        /* \"--CODEGEN--\":26606:26960   */\n      swap5\n      swap4\n      pop\n      pop\n      pop\n      pop\n      jump\n        /* \"--CODEGEN--\":26967:27292   */\n    tag_384:\n      0x00\n        /* \"--CODEGEN--\":27118:27120   */\n      0x40\n        /* \"--CODEGEN--\":27107:27116   */\n      dup3\n        /* \"--CODEGEN--\":27103:27121   */\n      add\n        /* \"--CODEGEN--\":27095:27121   */\n      swap1\n      pop\n        /* \"--CODEGEN--\":27132:27201   */\n      tag_723\n        /* \"--CODEGEN--\":27198:27199   */\n      0x00\n        /* \"--CODEGEN--\":27187:27196   */\n      dup4\n        /* \"--CODEGEN--\":27183:27200   */\n      add\n        /* \"--CODEGEN--\":27174:27180   */\n      dup6\n        /* \"--CODEGEN--\":27132:27201   */\n      jump(tag_595)\n    tag_723:\n        /* \"--CODEGEN--\":27212:27282   */\n      tag_724\n        /* \"--CODEGEN--\":27278:27280   */\n      0x20\n        /* \"--CODEGEN--\":27267:27276   */\n      dup4\n        /* \"--CODEGEN--\":27263:27281   */\n      add\n        /* \"--CODEGEN--\":27254:27260   */\n      dup5\n        /* \"--CODEGEN--\":27212:27282   */\n      jump(tag_595)\n    tag_724:\n        /* \"--CODEGEN--\":27089:27292   */\n      swap4\n      swap3\n      pop\n      pop\n      pop\n      jump\n        /* \"--CODEGEN--\":27299:27605   */\n    tag_127:\n      0x00\n        /* \"--CODEGEN--\":27444:27446   */\n      0x20\n        /* \"--CODEGEN--\":27433:27442   */\n      dup3\n        /* \"--CODEGEN--\":27429:27447   */\n      add\n        /* \"--CODEGEN--\":27421:27447   */\n      swap1\n      pop\n        /* \"--CODEGEN--\":27494:27503   */\n      dup2\n        /* \"--CODEGEN--\":27488:27492   */\n      dup2\n        /* \"--CODEGEN--\":27484:27504   */\n      sub\n        /* \"--CODEGEN--\":27480:27481   */\n      0x00\n        /* \"--CODEGEN--\":27469:27478   */\n      dup4\n        /* \"--CODEGEN--\":27465:27482   */\n      add\n        /* \"--CODEGEN--\":27458:27505   */\n      mstore\n        /* \"--CODEGEN--\":27519:27595   */\n      tag_726\n        /* \"--CODEGEN--\":27590:27594   */\n      dup2\n        /* \"--CODEGEN--\":27581:27587   */\n      dup5\n        /* \"--CODEGEN--\":27519:27595   */\n      jump(tag_608)\n    tag_726:\n        /* \"--CODEGEN--\":27511:27595   */\n      swap1\n      pop\n        /* \"--CODEGEN--\":27415:27605   */\n      swap3\n      swap2\n      pop\n      pop\n      jump\n        /* \"--CODEGEN--\":27612:27872   */\n    tag_339:\n      0x00\n        /* \"--CODEGEN--\":27758:27760   */\n      0x20\n        /* \"--CODEGEN--\":27747:27756   */\n      dup3\n        /* \"--CODEGEN--\":27743:27761   */\n      add\n        /* \"--CODEGEN--\":27735:27761   */\n      swap1\n      pop\n        /* \"--CODEGEN--\":27772:27862   */\n      tag_728\n        /* \"--CODEGEN--\":27859:27860   */\n      0x00\n        /* \"--CODEGEN--\":27848:27857   */\n      dup4\n        /* \"--CODEGEN--\":27844:27861   */\n      add\n        /* \"--CODEGEN--\":27835:27841   */\n      dup5\n        /* \"--CODEGEN--\":27772:27862   */\n      jump(tag_621)\n    tag_728:\n        /* \"--CODEGEN--\":27729:27872   */\n      swap3\n      swap2\n      pop\n      pop\n      jump\n        /* \"--CODEGEN--\":27879:28189   */\n    tag_186:\n      0x00\n        /* \"--CODEGEN--\":28026:28028   */\n      0x20\n        /* \"--CODEGEN--\":28015:28024   */\n      dup3\n        /* \"--CODEGEN--\":28011:28029   */\n      add\n        /* \"--CODEGEN--\":28003:28029   */\n      swap1\n      pop\n        /* \"--CODEGEN--\":28076:28085   */\n      dup2\n        /* \"--CODEGEN--\":28070:28074   */\n      dup2\n        /* \"--CODEGEN--\":28066:28086   */\n      sub\n        /* \"--CODEGEN--\":28062:28063   */\n      0x00\n        /* \"--CODEGEN--\":28051:28060   */\n      dup4\n        /* \"--CODEGEN--\":28047:28064   */\n      add\n        /* \"--CODEGEN--\":28040:28087   */\n      mstore\n        /* \"--CODEGEN--\":28101:28179   */\n      tag_730\n        /* \"--CODEGEN--\":28174:28178   */\n      dup2\n        /* \"--CODEGEN--\":28165:28171   */\n      dup5\n        /* \"--CODEGEN--\":28101:28179   */\n      jump(tag_631)\n    tag_730:\n        /* \"--CODEGEN--\":28093:28179   */\n      swap1\n      pop\n        /* \"--CODEGEN--\":27997:28189   */\n      swap3\n      swap2\n      pop\n      pop\n      jump\n        /* \"--CODEGEN--\":28196:28612   */\n    tag_146:\n      0x00\n        /* \"--CODEGEN--\":28396:28398   */\n      0x20\n        /* \"--CODEGEN--\":28385:28394   */\n      dup3\n        /* \"--CODEGEN--\":28381:28399   */\n      add\n        /* \"--CODEGEN--\":28373:28399   */\n      swap1\n      pop\n        /* \"--CODEGEN--\":28446:28455   */\n      dup2\n        /* \"--CODEGEN--\":28440:28444   */\n      dup2\n        /* \"--CODEGEN--\":28436:28456   */\n      sub\n        /* \"--CODEGEN--\":28432:28433   */\n      0x00\n        /* \"--CODEGEN--\":28421:28430   */\n      dup4\n        /* \"--CODEGEN--\":28417:28434   */\n      add\n        /* \"--CODEGEN--\":28410:28457   */\n      mstore\n        /* \"--CODEGEN--\":28471:28602   */\n      tag_732\n        /* \"--CODEGEN--\":28597:28601   */\n      dup2\n        /* \"--CODEGEN--\":28471:28602   */\n      jump(tag_644)\n    tag_732:\n        /* \"--CODEGEN--\":28463:28602   */\n      swap1\n      pop\n        /* \"--CODEGEN--\":28367:28612   */\n      swap2\n      swap1\n      pop\n      jump\n        /* \"--CODEGEN--\":28619:29035   */\n    tag_321:\n      0x00\n        /* \"--CODEGEN--\":28819:28821   */\n      0x20\n        /* \"--CODEGEN--\":28808:28817   */\n      dup3\n        /* \"--CODEGEN--\":28804:28822   */\n      add\n        /* \"--CODEGEN--\":28796:28822   */\n      swap1\n      pop\n        /* \"--CODEGEN--\":28869:28878   */\n      dup2\n        /* \"--CODEGEN--\":28863:28867   */\n      dup2\n        /* \"--CODEGEN--\":28859:28879   */\n      sub\n        /* \"--CODEGEN--\":28855:28856   */\n      0x00\n        /* \"--CODEGEN--\":28844:28853   */\n      dup4\n        /* \"--CODEGEN--\":28840:28857   */\n      add\n        /* \"--CODEGEN--\":28833:28880   */\n      mstore\n        /* \"--CODEGEN--\":28894:29025   */\n      tag_734\n        /* \"--CODEGEN--\":29020:29024   */\n      dup2\n        /* \"--CODEGEN--\":28894:29025   */\n      jump(tag_647)\n    tag_734:\n        /* \"--CODEGEN--\":28886:29025   */\n      swap1\n      pop\n        /* \"--CODEGEN--\":28790:29035   */\n      swap2\n      swap1\n      pop\n      jump\n        /* \"--CODEGEN--\":29042:29458   */\n    tag_125:\n      0x00\n        /* \"--CODEGEN--\":29242:29244   */\n      0x20\n        /* \"--CODEGEN--\":29231:29240   */\n      dup3\n        /* \"--CODEGEN--\":29227:29245   */\n      add\n        /* \"--CODEGEN--\":29219:29245   */\n      swap1\n      pop\n        /* \"--CODEGEN--\":29292:29301   */\n      dup2\n        /* \"--CODEGEN--\":29286:29290   */\n      dup2\n        /* \"--CODEGEN--\":29282:29302   */\n      sub\n        /* \"--CODEGEN--\":29278:29279   */\n      0x00\n        /* \"--CODEGEN--\":29267:29276   */\n      dup4\n        /* \"--CODEGEN--\":29263:29280   */\n      add\n        /* \"--CODEGEN--\":29256:29303   */\n      mstore\n        /* \"--CODEGEN--\":29317:29448   */\n      tag_736\n        /* \"--CODEGEN--\":29443:29447   */\n      dup2\n        /* \"--CODEGEN--\":29317:29448   */\n      jump(tag_650)\n    tag_736:\n        /* \"--CODEGEN--\":29309:29448   */\n      swap1\n      pop\n        /* \"--CODEGEN--\":29213:29458   */\n      swap2\n      swap1\n      pop\n      jump\n        /* \"--CODEGEN--\":29465:29881   */\n    tag_297:\n      0x00\n        /* \"--CODEGEN--\":29665:29667   */\n      0x20\n        /* \"--CODEGEN--\":29654:29663   */\n      dup3\n        /* \"--CODEGEN--\":29650:29668   */\n      add\n        /* \"--CODEGEN--\":29642:29668   */\n      swap1\n      pop\n        /* \"--CODEGEN--\":29715:29724   */\n      dup2\n        /* \"--CODEGEN--\":29709:29713   */\n      dup2\n        /* \"--CODEGEN--\":29705:29725   */\n      sub\n        /* \"--CODEGEN--\":29701:29702   */\n      0x00\n        /* \"--CODEGEN--\":29690:29699   */\n      dup4\n        /* \"--CODEGEN--\":29686:29703   */\n      add\n        /* \"--CODEGEN--\":29679:29726   */\n      mstore\n        /* \"--CODEGEN--\":29740:29871   */\n      tag_738\n        /* \"--CODEGEN--\":29866:29870   */\n      dup2\n        /* \"--CODEGEN--\":29740:29871   */\n      jump(tag_653)\n    tag_738:\n        /* \"--CODEGEN--\":29732:29871   */\n      swap1\n      pop\n        /* \"--CODEGEN--\":29636:29881   */\n      swap2\n      swap1\n      pop\n      jump\n        /* \"--CODEGEN--\":29888:30304   */\n    tag_291:\n      0x00\n        /* \"--CODEGEN--\":30088:30090   */\n      0x20\n        /* \"--CODEGEN--\":30077:30086   */\n      dup3\n        /* \"--CODEGEN--\":30073:30091   */\n      add\n        /* \"--CODEGEN--\":30065:30091   */\n      swap1\n      pop\n        /* \"--CODEGEN--\":30138:30147   */\n      dup2\n        /* \"--CODEGEN--\":30132:30136   */\n      dup2\n        /* \"--CODEGEN--\":30128:30148   */\n      sub\n        /* \"--CODEGEN--\":30124:30125   */\n      0x00\n        /* \"--CODEGEN--\":30113:30122   */\n      dup4\n        /* \"--CODEGEN--\":30109:30126   */\n      add\n        /* \"--CODEGEN--\":30102:30149   */\n      mstore\n        /* \"--CODEGEN--\":30163:30294   */\n      tag_740\n        /* \"--CODEGEN--\":30289:30293   */\n      dup2\n        /* \"--CODEGEN--\":30163:30294   */\n      jump(tag_659)\n    tag_740:\n        /* \"--CODEGEN--\":30155:30294   */\n      swap1\n      pop\n        /* \"--CODEGEN--\":30059:30304   */\n      swap2\n      swap1\n      pop\n      jump\n        /* \"--CODEGEN--\":30311:30727   */\n    tag_337:\n      0x00\n        /* \"--CODEGEN--\":30511:30513   */\n      0x20\n        /* \"--CODEGEN--\":30500:30509   */\n      dup3\n        /* \"--CODEGEN--\":30496:30514   */\n      add\n        /* \"--CODEGEN--\":30488:30514   */\n      swap1\n      pop\n        /* \"--CODEGEN--\":30561:30570   */\n      dup2\n        /* \"--CODEGEN--\":30555:30559   */\n      dup2\n        /* \"--CODEGEN--\":30551:30571   */\n      sub\n        /* \"--CODEGEN--\":30547:30548   */\n      0x00\n        /* \"--CODEGEN--\":30536:30545   */\n      dup4\n        /* \"--CODEGEN--\":30532:30549   */\n      add\n        /* \"--CODEGEN--\":30525:30572   */\n      mstore\n        /* \"--CODEGEN--\":30586:30717   */\n      tag_742\n        /* \"--CODEGEN--\":30712:30716   */\n      dup2\n        /* \"--CODEGEN--\":30586:30717   */\n      jump(tag_665)\n    tag_742:\n        /* \"--CODEGEN--\":30578:30717   */\n      swap1\n      pop\n        /* \"--CODEGEN--\":30482:30727   */\n      swap2\n      swap1\n      pop\n      jump\n        /* \"--CODEGEN--\":30734:30956   */\n    tag_121:\n      0x00\n        /* \"--CODEGEN--\":30861:30863   */\n      0x20\n        /* \"--CODEGEN--\":30850:30859   */\n      dup3\n        /* \"--CODEGEN--\":30846:30864   */\n      add\n        /* \"--CODEGEN--\":30838:30864   */\n      swap1\n      pop\n        /* \"--CODEGEN--\":30875:30946   */\n      tag_744\n        /* \"--CODEGEN--\":30943:30944   */\n      0x00\n        /* \"--CODEGEN--\":30932:30941   */\n      dup4\n        /* \"--CODEGEN--\":30928:30945   */\n      add\n        /* \"--CODEGEN--\":30919:30925   */\n      dup5\n        /* \"--CODEGEN--\":30875:30946   */\n      jump(tag_676)\n    tag_744:\n        /* \"--CODEGEN--\":30832:30956   */\n      swap3\n      swap2\n      pop\n      pop\n      jump\n        /* \"--CODEGEN--\":30963:31404   */\n    tag_248:\n      0x00\n        /* \"--CODEGEN--\":31148:31150   */\n      0x40\n        /* \"--CODEGEN--\":31137:31146   */\n      dup3\n        /* \"--CODEGEN--\":31133:31151   */\n      add\n        /* \"--CODEGEN--\":31125:31151   */\n      swap1\n      pop\n        /* \"--CODEGEN--\":31162:31233   */\n      tag_746\n        /* \"--CODEGEN--\":31230:31231   */\n      0x00\n        /* \"--CODEGEN--\":31219:31228   */\n      dup4\n        /* \"--CODEGEN--\":31215:31232   */\n      add\n        /* \"--CODEGEN--\":31206:31212   */\n      dup7\n        /* \"--CODEGEN--\":31162:31233   */\n      jump(tag_676)\n    tag_746:\n        /* \"--CODEGEN--\":31281:31290   */\n      dup2\n        /* \"--CODEGEN--\":31275:31279   */\n      dup2\n        /* \"--CODEGEN--\":31271:31291   */\n      sub\n        /* \"--CODEGEN--\":31266:31268   */\n      0x20\n        /* \"--CODEGEN--\":31255:31264   */\n      dup4\n        /* \"--CODEGEN--\":31251:31269   */\n      add\n        /* \"--CODEGEN--\":31244:31292   */\n      mstore\n        /* \"--CODEGEN--\":31306:31394   */\n      tag_747\n        /* \"--CODEGEN--\":31389:31393   */\n      dup2\n        /* \"--CODEGEN--\":31380:31386   */\n      dup5\n        /* \"--CODEGEN--\":31372:31378   */\n      dup7\n        /* \"--CODEGEN--\":31306:31394   */\n      jump(tag_625)\n    tag_747:\n        /* \"--CODEGEN--\":31298:31394   */\n      swap1\n      pop\n        /* \"--CODEGEN--\":31119:31404   */\n      swap5\n      swap4\n      pop\n      pop\n      pop\n      pop\n      jump\n        /* \"--CODEGEN--\":31411:31667   */\n    tag_397:\n      0x00\n        /* \"--CODEGEN--\":31473:31475   */\n      0x40\n        /* \"--CODEGEN--\":31467:31476   */\n      mload\n        /* \"--CODEGEN--\":31457:31476   */\n      swap1\n      pop\n        /* \"--CODEGEN--\":31511:31515   */\n      dup2\n        /* \"--CODEGEN--\":31503:31509   */\n      dup2\n        /* \"--CODEGEN--\":31499:31516   */\n      add\n        /* \"--CODEGEN--\":31610:31616   */\n      dup2\n        /* \"--CODEGEN--\":31598:31608   */\n      dup2\n        /* \"--CODEGEN--\":31595:31617   */\n      lt\n        /* \"--CODEGEN--\":31574:31592   */\n      0xffffffffffffffff\n        /* \"--CODEGEN--\":31562:31572   */\n      dup3\n        /* \"--CODEGEN--\":31559:31593   */\n      gt\n        /* \"--CODEGEN--\":31556:31618   */\n      or\n        /* \"--CODEGEN--\":31553:31555   */\n      iszero\n      tag_749\n      jumpi\n        /* \"--CODEGEN--\":31631:31632   */\n      0x00\n        /* \"--CODEGEN--\":31628:31629   */\n      dup1\n        /* \"--CODEGEN--\":31621:31633   */\n      revert\n        /* \"--CODEGEN--\":31553:31555   */\n    tag_749:\n        /* \"--CODEGEN--\":31651:31661   */\n      dup1\n        /* \"--CODEGEN--\":31647:31649   */\n      0x40\n        /* \"--CODEGEN--\":31640:31662   */\n      mstore\n        /* \"--CODEGEN--\":31451:31667   */\n      pop\n      swap2\n      swap1\n      pop\n      jump\n        /* \"--CODEGEN--\":31674:32001   */\n    tag_396:\n      0x00\n        /* \"--CODEGEN--\":31856:31874   */\n      0xffffffffffffffff\n        /* \"--CODEGEN--\":31848:31854   */\n      dup3\n        /* \"--CODEGEN--\":31845:31875   */\n      gt\n        /* \"--CODEGEN--\":31842:31844   */\n      iszero\n      tag_751\n      jumpi\n        /* \"--CODEGEN--\":31888:31889   */\n      0x00\n        /* \"--CODEGEN--\":31885:31886   */\n      dup1\n        /* \"--CODEGEN--\":31878:31890   */\n      revert\n        /* \"--CODEGEN--\":31842:31844   */\n    tag_751:\n        /* \"--CODEGEN--\":31923:31927   */\n      0x20\n        /* \"--CODEGEN--\":31915:31921   */\n      dup3\n        /* \"--CODEGEN--\":31911:31928   */\n      mul\n        /* \"--CODEGEN--\":31903:31928   */\n      swap1\n      pop\n        /* \"--CODEGEN--\":31986:31990   */\n      0x20\n        /* \"--CODEGEN--\":31980:31984   */\n      dup2\n        /* \"--CODEGEN--\":31976:31991   */\n      add\n        /* \"--CODEGEN--\":31968:31991   */\n      swap1\n      pop\n        /* \"--CODEGEN--\":31779:32001   */\n      swap2\n      swap1\n      pop\n      jump\n        /* \"--CODEGEN--\":32008:32329   */\n    tag_428:\n      0x00\n        /* \"--CODEGEN--\":32151:32169   */\n      0xffffffffffffffff\n        /* \"--CODEGEN--\":32143:32149   */\n      dup3\n        /* \"--CODEGEN--\":32140:32170   */\n      gt\n        /* \"--CODEGEN--\":32137:32139   */\n      iszero\n      tag_753\n      jumpi\n        /* \"--CODEGEN--\":32183:32184   */\n      0x00\n        /* \"--CODEGEN--\":32180:32181   */\n      dup1\n        /* \"--CODEGEN--\":32173:32185   */\n      revert\n        /* \"--CODEGEN--\":32137:32139   */\n    tag_753:\n        /* \"--CODEGEN--\":32250:32254   */\n      0x1f\n        /* \"--CODEGEN--\":32246:32255   */\n      not\n        /* \"--CODEGEN--\":32239:32243   */\n      0x1f\n        /* \"--CODEGEN--\":32231:32237   */\n      dup4\n        /* \"--CODEGEN--\":32227:32244   */\n      add\n        /* \"--CODEGEN--\":32223:32256   */\n      and\n        /* \"--CODEGEN--\":32215:32256   */\n      swap1\n      pop\n        /* \"--CODEGEN--\":32314:32318   */\n      0x20\n        /* \"--CODEGEN--\":32308:32312   */\n      dup2\n        /* \"--CODEGEN--\":32304:32319   */\n      add\n        /* \"--CODEGEN--\":32296:32319   */\n      swap1\n      pop\n        /* \"--CODEGEN--\":32074:32329   */\n      swap2\n      swap1\n      pop\n      jump\n        /* \"--CODEGEN--\":32336:32658   */\n    tag_454:\n      0x00\n        /* \"--CODEGEN--\":32480:32498   */\n      0xffffffffffffffff\n        /* \"--CODEGEN--\":32472:32478   */\n      dup3\n        /* \"--CODEGEN--\":32469:32499   */\n      gt\n        /* \"--CODEGEN--\":32466:32468   */\n      iszero\n      tag_755\n      jumpi\n        /* \"--CODEGEN--\":32512:32513   */\n      0x00\n        /* \"--CODEGEN--\":32509:32510   */\n      dup1\n        /* \"--CODEGEN--\":32502:32514   */\n      revert\n        /* \"--CODEGEN--\":32466:32468   */\n    tag_755:\n        /* \"--CODEGEN--\":32579:32583   */\n      0x1f\n        /* \"--CODEGEN--\":32575:32584   */\n      not\n        /* \"--CODEGEN--\":32568:32572   */\n      0x1f\n        /* \"--CODEGEN--\":32560:32566   */\n      dup4\n        /* \"--CODEGEN--\":32556:32573   */\n      add\n        /* \"--CODEGEN--\":32552:32585   */\n      and\n        /* \"--CODEGEN--\":32544:32585   */\n      swap1\n      pop\n        /* \"--CODEGEN--\":32643:32647   */\n      0x20\n        /* \"--CODEGEN--\":32637:32641   */\n      dup2\n        /* \"--CODEGEN--\":32633:32648   */\n      add\n        /* \"--CODEGEN--\":32625:32648   */\n      swap1\n      pop\n        /* \"--CODEGEN--\":32403:32658   */\n      swap2\n      swap1\n      pop\n      jump\n        /* \"--CODEGEN--\":32665:32825   */\n    tag_566:\n      0x00\n        /* \"--CODEGEN--\":32760:32763   */\n      dup2\n        /* \"--CODEGEN--\":32752:32763   */\n      swap1\n      pop\n        /* \"--CODEGEN--\":32798:32802   */\n      0x20\n        /* \"--CODEGEN--\":32793:32796   */\n      dup3\n        /* \"--CODEGEN--\":32789:32803   */\n      add\n        /* \"--CODEGEN--\":32781:32803   */\n      swap1\n      pop\n        /* \"--CODEGEN--\":32746:32825   */\n      swap2\n      swap1\n      pop\n      jump\n        /* \"--CODEGEN--\":32832:33006   */\n    tag_580:\n      0x00\n        /* \"--CODEGEN--\":32941:32944   */\n      dup2\n        /* \"--CODEGEN--\":32933:32944   */\n      swap1\n      pop\n        /* \"--CODEGEN--\":32979:32983   */\n      0x20\n        /* \"--CODEGEN--\":32974:32977   */\n      dup3\n        /* \"--CODEGEN--\":32970:32984   */\n      add\n        /* \"--CODEGEN--\":32962:32984   */\n      swap1\n      pop\n        /* \"--CODEGEN--\":32927:33006   */\n      swap2\n      swap1\n      pop\n      jump\n        /* \"--CODEGEN--\":33013:33159   */\n    tag_562:\n      0x00\n        /* \"--CODEGEN--\":33131:33136   */\n      dup2\n        /* \"--CODEGEN--\":33125:33137   */\n      mload\n        /* \"--CODEGEN--\":33115:33137   */\n      swap1\n      pop\n        /* \"--CODEGEN--\":33096:33159   */\n      swap2\n      swap1\n      pop\n      jump\n        /* \"--CODEGEN--\":33166:33326   */\n    tag_576:\n      0x00\n        /* \"--CODEGEN--\":33298:33303   */\n      dup2\n        /* \"--CODEGEN--\":33292:33304   */\n      mload\n        /* \"--CODEGEN--\":33282:33304   */\n      swap1\n      pop\n        /* \"--CODEGEN--\":33263:33326   */\n      swap2\n      swap1\n      pop\n      jump\n        /* \"--CODEGEN--\":33333:33454   */\n    tag_601:\n      0x00\n        /* \"--CODEGEN--\":33426:33431   */\n      dup2\n        /* \"--CODEGEN--\":33420:33432   */\n      mload\n        /* \"--CODEGEN--\":33410:33432   */\n      swap1\n      pop\n        /* \"--CODEGEN--\":33391:33454   */\n      swap2\n      swap1\n      pop\n      jump\n        /* \"--CODEGEN--\":33461:33583   */\n    tag_634:\n      0x00\n        /* \"--CODEGEN--\":33555:33560   */\n      dup2\n        /* \"--CODEGEN--\":33549:33561   */\n      mload\n        /* \"--CODEGEN--\":33539:33561   */\n      swap1\n      pop\n        /* \"--CODEGEN--\":33520:33583   */\n      swap2\n      swap1\n      pop\n      jump\n        /* \"--CODEGEN--\":33590:33707   */\n    tag_572:\n      0x00\n        /* \"--CODEGEN--\":33697:33701   */\n      0x20\n        /* \"--CODEGEN--\":33692:33695   */\n      dup3\n        /* \"--CODEGEN--\":33688:33702   */\n      add\n        /* \"--CODEGEN--\":33680:33702   */\n      swap1\n      pop\n        /* \"--CODEGEN--\":33674:33707   */\n      swap2\n      swap1\n      pop\n      jump\n        /* \"--CODEGEN--\":33714:33845   */\n    tag_586:\n      0x00\n        /* \"--CODEGEN--\":33835:33839   */\n      0x20\n        /* \"--CODEGEN--\":33830:33833   */\n      dup3\n        /* \"--CODEGEN--\":33826:33840   */\n      add\n        /* \"--CODEGEN--\":33818:33840   */\n      swap1\n      pop\n        /* \"--CODEGEN--\":33812:33845   */\n      swap2\n      swap1\n      pop\n      jump\n        /* \"--CODEGEN--\":33853:34040   */\n    tag_564:\n      0x00\n        /* \"--CODEGEN--\":33992:33998   */\n      dup3\n        /* \"--CODEGEN--\":33987:33990   */\n      dup3\n        /* \"--CODEGEN--\":33980:33999   */\n      mstore\n        /* \"--CODEGEN--\":34029:34033   */\n      0x20\n        /* \"--CODEGEN--\":34024:34027   */\n      dup3\n        /* \"--CODEGEN--\":34020:34034   */\n      add\n        /* \"--CODEGEN--\":34005:34034   */\n      swap1\n      pop\n        /* \"--CODEGEN--\":33973:34040   */\n      swap3\n      swap2\n      pop\n      pop\n      jump\n        /* \"--CODEGEN--\":34049:34250   */\n    tag_578:\n      0x00\n        /* \"--CODEGEN--\":34202:34208   */\n      dup3\n        /* \"--CODEGEN--\":34197:34200   */\n      dup3\n        /* \"--CODEGEN--\":34190:34209   */\n      mstore\n        /* \"--CODEGEN--\":34239:34243   */\n      0x20\n        /* \"--CODEGEN--\":34234:34237   */\n      dup3\n        /* \"--CODEGEN--\":34230:34244   */\n      add\n        /* \"--CODEGEN--\":34215:34244   */\n      swap1\n      pop\n        /* \"--CODEGEN--\":34183:34250   */\n      swap3\n      swap2\n      pop\n      pop\n      jump\n        /* \"--CODEGEN--\":34259:34411   */\n    tag_603:\n      0x00\n        /* \"--CODEGEN--\":34363:34369   */\n      dup3\n        /* \"--CODEGEN--\":34358:34361   */\n      dup3\n        /* \"--CODEGEN--\":34351:34370   */\n      mstore\n        /* \"--CODEGEN--\":34400:34404   */\n      0x20\n        /* \"--CODEGEN--\":34395:34398   */\n      dup3\n        /* \"--CODEGEN--\":34391:34405   */\n      add\n        /* \"--CODEGEN--\":34376:34405   */\n      swap1\n      pop\n        /* \"--CODEGEN--\":34344:34411   */\n      swap3\n      swap2\n      pop\n      pop\n      jump\n        /* \"--CODEGEN--\":34420:34582   */\n    tag_612:\n      0x00\n        /* \"--CODEGEN--\":34534:34540   */\n      dup3\n        /* \"--CODEGEN--\":34529:34532   */\n      dup3\n        /* \"--CODEGEN--\":34522:34541   */\n      mstore\n        /* \"--CODEGEN--\":34571:34575   */\n      0x20\n        /* \"--CODEGEN--\":34566:34569   */\n      dup3\n        /* \"--CODEGEN--\":34562:34576   */\n      add\n        /* \"--CODEGEN--\":34547:34576   */\n      swap1\n      pop\n        /* \"--CODEGEN--\":34515:34582   */\n      swap3\n      swap2\n      pop\n      pop\n      jump\n        /* \"--CODEGEN--\":34591:34735   */\n    tag_619:\n      0x00\n        /* \"--CODEGEN--\":34726:34729   */\n      dup2\n        /* \"--CODEGEN--\":34711:34729   */\n      swap1\n      pop\n        /* \"--CODEGEN--\":34704:34735   */\n      swap3\n      swap2\n      pop\n      pop\n      jump\n        /* \"--CODEGEN--\":34744:34907   */\n    tag_628:\n      0x00\n        /* \"--CODEGEN--\":34859:34865   */\n      dup3\n        /* \"--CODEGEN--\":34854:34857   */\n      dup3\n        /* \"--CODEGEN--\":34847:34866   */\n      mstore\n        /* \"--CODEGEN--\":34896:34900   */\n      0x20\n        /* \"--CODEGEN--\":34891:34894   */\n      dup3\n        /* \"--CODEGEN--\":34887:34901   */\n      add\n        /* \"--CODEGEN--\":34872:34901   */\n      swap1\n      pop\n        /* \"--CODEGEN--\":34840:34907   */\n      swap3\n      swap2\n      pop\n      pop\n      jump\n        /* \"--CODEGEN--\":34916:35061   */\n    tag_642:\n      0x00\n        /* \"--CODEGEN--\":35052:35055   */\n      dup2\n        /* \"--CODEGEN--\":35037:35055   */\n      swap1\n      pop\n        /* \"--CODEGEN--\":35030:35061   */\n      swap3\n      swap2\n      pop\n      pop\n      jump\n        /* \"--CODEGEN--\":35069:35160   */\n    tag_555:\n      0x00\n        /* \"--CODEGEN--\":35131:35155   */\n      tag_772\n        /* \"--CODEGEN--\":35149:35154   */\n      dup3\n        /* \"--CODEGEN--\":35131:35155   */\n      jump(tag_773)\n    tag_772:\n        /* \"--CODEGEN--\":35120:35155   */\n      swap1\n      pop\n        /* \"--CODEGEN--\":35114:35160   */\n      swap2\n      swap1\n      pop\n      jump\n        /* \"--CODEGEN--\":35167:35252   */\n    tag_590:\n      0x00\n        /* \"--CODEGEN--\":35240:35245   */\n      dup2\n        /* \"--CODEGEN--\":35233:35246   */\n      iszero\n        /* \"--CODEGEN--\":35226:35247   */\n      iszero\n        /* \"--CODEGEN--\":35215:35247   */\n      swap1\n      pop\n        /* \"--CODEGEN--\":35209:35252   */\n      swap2\n      swap1\n      pop\n      jump\n        /* \"--CODEGEN--\":35259:35331   */\n    tag_594:\n      0x00\n        /* \"--CODEGEN--\":35321:35326   */\n      dup2\n        /* \"--CODEGEN--\":35310:35326   */\n      swap1\n      pop\n        /* \"--CODEGEN--\":35304:35331   */\n      swap2\n      swap1\n      pop\n      jump\n        /* \"--CODEGEN--\":35338:35482   */\n    tag_598:\n      0x00\n        /* \"--CODEGEN--\":35410:35476   */\n      0xffffffff00000000000000000000000000000000000000000000000000000000\n        /* \"--CODEGEN--\":35403:35408   */\n      dup3\n        /* \"--CODEGEN--\":35399:35477   */\n      and\n        /* \"--CODEGEN--\":35388:35477   */\n      swap1\n      pop\n        /* \"--CODEGEN--\":35382:35482   */\n      swap2\n      swap1\n      pop\n      jump\n        /* \"--CODEGEN--\":35489:35595   */\n    tag_777:\n      0x00\n        /* \"--CODEGEN--\":35566:35590   */\n      tag_779\n        /* \"--CODEGEN--\":35584:35589   */\n      dup3\n        /* \"--CODEGEN--\":35566:35590   */\n      jump(tag_555)\n    tag_779:\n        /* \"--CODEGEN--\":35555:35590   */\n      swap1\n      pop\n        /* \"--CODEGEN--\":35549:35595   */\n      swap2\n      swap1\n      pop\n      jump\n        /* \"--CODEGEN--\":35602:35712   */\n    tag_780:\n      0x00\n        /* \"--CODEGEN--\":35683:35707   */\n      tag_782\n        /* \"--CODEGEN--\":35701:35706   */\n      dup3\n        /* \"--CODEGEN--\":35683:35707   */\n      jump(tag_555)\n    tag_782:\n        /* \"--CODEGEN--\":35672:35707   */\n      swap1\n      pop\n        /* \"--CODEGEN--\":35666:35712   */\n      swap2\n      swap1\n      pop\n      jump\n        /* \"--CODEGEN--\":35719:35840   */\n    tag_773:\n      0x00\n        /* \"--CODEGEN--\":35792:35834   */\n      0xffffffffffffffffffffffffffffffffffffffff\n        /* \"--CODEGEN--\":35785:35790   */\n      dup3\n        /* \"--CODEGEN--\":35781:35835   */\n      and\n        /* \"--CODEGEN--\":35770:35835   */\n      swap1\n      pop\n        /* \"--CODEGEN--\":35764:35840   */\n      swap2\n      swap1\n      pop\n      jump\n        /* \"--CODEGEN--\":35847:35919   */\n    tag_675:\n      0x00\n        /* \"--CODEGEN--\":35909:35914   */\n      dup2\n        /* \"--CODEGEN--\":35898:35914   */\n      swap1\n      pop\n        /* \"--CODEGEN--\":35892:35919   */\n      swap2\n      swap1\n      pop\n      jump\n        /* \"--CODEGEN--\":35926:36055   */\n    tag_551:\n      0x00\n        /* \"--CODEGEN--\":36013:36050   */\n      tag_786\n        /* \"--CODEGEN--\":36044:36049   */\n      dup3\n        /* \"--CODEGEN--\":36013:36050   */\n      jump(tag_787)\n    tag_786:\n        /* \"--CODEGEN--\":36000:36050   */\n      swap1\n      pop\n        /* \"--CODEGEN--\":35994:36055   */\n      swap2\n      swap1\n      pop\n      jump\n        /* \"--CODEGEN--\":36062:36221   */\n    tag_624:\n      0x00\n        /* \"--CODEGEN--\":36160:36216   */\n      tag_789\n        /* \"--CODEGEN--\":36210:36215   */\n      dup3\n        /* \"--CODEGEN--\":36160:36216   */\n      jump(tag_790)\n    tag_789:\n        /* \"--CODEGEN--\":36147:36216   */\n      swap1\n      pop\n        /* \"--CODEGEN--\":36141:36221   */\n      swap2\n      swap1\n      pop\n      jump\n        /* \"--CODEGEN--\":36228:36355   */\n    tag_790:\n      0x00\n        /* \"--CODEGEN--\":36326:36350   */\n      tag_792\n        /* \"--CODEGEN--\":36344:36349   */\n      dup3\n        /* \"--CODEGEN--\":36326:36350   */\n      jump(tag_773)\n    tag_792:\n        /* \"--CODEGEN--\":36313:36350   */\n      swap1\n      pop\n        /* \"--CODEGEN--\":36307:36355   */\n      swap2\n      swap1\n      pop\n      jump\n        /* \"--CODEGEN--\":36362:36483   */\n    tag_787:\n      0x00\n        /* \"--CODEGEN--\":36441:36478   */\n      tag_794\n        /* \"--CODEGEN--\":36472:36477   */\n      dup3\n        /* \"--CODEGEN--\":36441:36478   */\n      jump(tag_795)\n    tag_794:\n        /* \"--CODEGEN--\":36428:36478   */\n      swap1\n      pop\n        /* \"--CODEGEN--\":36422:36483   */\n      swap2\n      swap1\n      pop\n      jump\n        /* \"--CODEGEN--\":36490:36598   */\n    tag_795:\n      0x00\n        /* \"--CODEGEN--\":36569:36593   */\n      tag_797\n        /* \"--CODEGEN--\":36587:36592   */\n      dup3\n        /* \"--CODEGEN--\":36569:36593   */\n      jump(tag_773)\n    tag_797:\n        /* \"--CODEGEN--\":36556:36593   */\n      swap1\n      pop\n        /* \"--CODEGEN--\":36550:36598   */\n      swap2\n      swap1\n      pop\n      jump\n        /* \"--CODEGEN--\":36606:36751   */\n    tag_431:\n        /* \"--CODEGEN--\":36687:36693   */\n      dup3\n        /* \"--CODEGEN--\":36682:36685   */\n      dup2\n        /* \"--CODEGEN--\":36677:36680   */\n      dup4\n        /* \"--CODEGEN--\":36664:36694   */\n      calldatacopy\n        /* \"--CODEGEN--\":36743:36744   */\n      0x00\n        /* \"--CODEGEN--\":36734:36740   */\n      dup4\n        /* \"--CODEGEN--\":36729:36732   */\n      dup4\n        /* \"--CODEGEN--\":36725:36741   */\n      add\n        /* \"--CODEGEN--\":36718:36745   */\n      mstore\n        /* \"--CODEGEN--\":36657:36751   */\n      pop\n      pop\n      pop\n      jump\n        /* \"--CODEGEN--\":36760:37028   */\n    tag_605:\n        /* \"--CODEGEN--\":36825:36826   */\n      0x00\n        /* \"--CODEGEN--\":36832:36933   */\n    tag_800:\n        /* \"--CODEGEN--\":36846:36852   */\n      dup4\n        /* \"--CODEGEN--\":36843:36844   */\n      dup2\n        /* \"--CODEGEN--\":36840:36853   */\n      lt\n        /* \"--CODEGEN--\":36832:36933   */\n      iszero\n      tag_802\n      jumpi\n        /* \"--CODEGEN--\":36922:36923   */\n      dup1\n        /* \"--CODEGEN--\":36917:36920   */\n      dup3\n        /* \"--CODEGEN--\":36913:36924   */\n      add\n        /* \"--CODEGEN--\":36907:36925   */\n      mload\n        /* \"--CODEGEN--\":36903:36904   */\n      dup2\n        /* \"--CODEGEN--\":36898:36901   */\n      dup5\n        /* \"--CODEGEN--\":36894:36905   */\n      add\n        /* \"--CODEGEN--\":36887:36926   */\n      mstore\n        /* \"--CODEGEN--\":36868:36870   */\n      0x20\n        /* \"--CODEGEN--\":36865:36866   */\n      dup2\n        /* \"--CODEGEN--\":36861:36871   */\n      add\n        /* \"--CODEGEN--\":36856:36871   */\n      swap1\n      pop\n        /* \"--CODEGEN--\":36832:36933   */\n      jump(tag_800)\n    tag_802:\n        /* \"--CODEGEN--\":36948:36954   */\n      dup4\n        /* \"--CODEGEN--\":36945:36946   */\n      dup2\n        /* \"--CODEGEN--\":36942:36955   */\n      gt\n        /* \"--CODEGEN--\":36939:36941   */\n      iszero\n      tag_803\n      jumpi\n        /* \"--CODEGEN--\":37013:37014   */\n      0x00\n        /* \"--CODEGEN--\":37004:37010   */\n      dup5\n        /* \"--CODEGEN--\":36999:37002   */\n      dup5\n        /* \"--CODEGEN--\":36995:37011   */\n      add\n        /* \"--CODEGEN--\":36988:37015   */\n      mstore\n        /* \"--CODEGEN--\":36939:36941   */\n    tag_803:\n        /* \"--CODEGEN--\":36809:37028   */\n      pop\n      pop\n      pop\n      pop\n      jump\n        /* \"--CODEGEN--\":37036:37133   */\n    tag_607:\n      0x00\n        /* \"--CODEGEN--\":37124:37126   */\n      0x1f\n        /* \"--CODEGEN--\":37120:37127   */\n      not\n        /* \"--CODEGEN--\":37115:37117   */\n      0x1f\n        /* \"--CODEGEN--\":37108:37113   */\n      dup4\n        /* \"--CODEGEN--\":37104:37118   */\n      add\n        /* \"--CODEGEN--\":37100:37128   */\n      and\n        /* \"--CODEGEN--\":37090:37128   */\n      swap1\n      pop\n        /* \"--CODEGEN--\":37084:37133   */\n      swap2\n      swap1\n      pop\n      jump\n        /* \"--CODEGEN--\":37141:37258   */\n    tag_390:\n        /* \"--CODEGEN--\":37210:37234   */\n      tag_806\n        /* \"--CODEGEN--\":37228:37233   */\n      dup2\n        /* \"--CODEGEN--\":37210:37234   */\n      jump(tag_555)\n    tag_806:\n        /* \"--CODEGEN--\":37203:37208   */\n      dup2\n        /* \"--CODEGEN--\":37200:37235   */\n      eq\n        /* \"--CODEGEN--\":37190:37192   */\n      tag_807\n      jumpi\n        /* \"--CODEGEN--\":37249:37250   */\n      0x00\n        /* \"--CODEGEN--\":37246:37247   */\n      dup1\n        /* \"--CODEGEN--\":37239:37251   */\n      revert\n        /* \"--CODEGEN--\":37190:37192   */\n    tag_807:\n        /* \"--CODEGEN--\":37184:37258   */\n      pop\n      jump\n        /* \"--CODEGEN--\":37265:37376   */\n    tag_411:\n        /* \"--CODEGEN--\":37331:37352   */\n      tag_809\n        /* \"--CODEGEN--\":37346:37351   */\n      dup2\n        /* \"--CODEGEN--\":37331:37352   */\n      jump(tag_590)\n    tag_809:\n        /* \"--CODEGEN--\":37324:37329   */\n      dup2\n        /* \"--CODEGEN--\":37321:37353   */\n      eq\n        /* \"--CODEGEN--\":37311:37313   */\n      tag_810\n      jumpi\n        /* \"--CODEGEN--\":37367:37368   */\n      0x00\n        /* \"--CODEGEN--\":37364:37365   */\n      dup1\n        /* \"--CODEGEN--\":37357:37369   */\n      revert\n        /* \"--CODEGEN--\":37311:37313   */\n    tag_810:\n        /* \"--CODEGEN--\":37305:37376   */\n      pop\n      jump\n        /* \"--CODEGEN--\":37383:37500   */\n    tag_415:\n        /* \"--CODEGEN--\":37452:37476   */\n      tag_812\n        /* \"--CODEGEN--\":37470:37475   */\n      dup2\n        /* \"--CODEGEN--\":37452:37476   */\n      jump(tag_594)\n    tag_812:\n        /* \"--CODEGEN--\":37445:37450   */\n      dup2\n        /* \"--CODEGEN--\":37442:37477   */\n      eq\n        /* \"--CODEGEN--\":37432:37434   */\n      tag_813\n      jumpi\n        /* \"--CODEGEN--\":37491:37492   */\n      0x00\n        /* \"--CODEGEN--\":37488:37489   */\n      dup1\n        /* \"--CODEGEN--\":37481:37493   */\n      revert\n        /* \"--CODEGEN--\":37432:37434   */\n    tag_813:\n        /* \"--CODEGEN--\":37426:37500   */\n      pop\n      jump\n        /* \"--CODEGEN--\":37507:37622   */\n    tag_419:\n        /* \"--CODEGEN--\":37575:37598   */\n      tag_815\n        /* \"--CODEGEN--\":37592:37597   */\n      dup2\n        /* \"--CODEGEN--\":37575:37598   */\n      jump(tag_598)\n    tag_815:\n        /* \"--CODEGEN--\":37568:37573   */\n      dup2\n        /* \"--CODEGEN--\":37565:37599   */\n      eq\n        /* \"--CODEGEN--\":37555:37557   */\n      tag_816\n      jumpi\n        /* \"--CODEGEN--\":37613:37614   */\n      0x00\n        /* \"--CODEGEN--\":37610:37611   */\n      dup1\n        /* \"--CODEGEN--\":37603:37615   */\n      revert\n        /* \"--CODEGEN--\":37555:37557   */\n    tag_816:\n        /* \"--CODEGEN--\":37549:37622   */\n      pop\n      jump\n        /* \"--CODEGEN--\":37629:37776   */\n    tag_435:\n        /* \"--CODEGEN--\":37713:37752   */\n      tag_818\n        /* \"--CODEGEN--\":37746:37751   */\n      dup2\n        /* \"--CODEGEN--\":37713:37752   */\n      jump(tag_777)\n    tag_818:\n        /* \"--CODEGEN--\":37706:37711   */\n      dup2\n        /* \"--CODEGEN--\":37703:37753   */\n      eq\n        /* \"--CODEGEN--\":37693:37695   */\n      tag_819\n      jumpi\n        /* \"--CODEGEN--\":37767:37768   */\n      0x00\n        /* \"--CODEGEN--\":37764:37765   */\n      dup1\n        /* \"--CODEGEN--\":37757:37769   */\n      revert\n        /* \"--CODEGEN--\":37693:37695   */\n    tag_819:\n        /* \"--CODEGEN--\":37687:37776   */\n      pop\n      jump\n        /* \"--CODEGEN--\":37783:37938   */\n    tag_439:\n        /* \"--CODEGEN--\":37871:37914   */\n      tag_821\n        /* \"--CODEGEN--\":37908:37913   */\n      dup2\n        /* \"--CODEGEN--\":37871:37914   */\n      jump(tag_780)\n    tag_821:\n        /* \"--CODEGEN--\":37864:37869   */\n      dup2\n        /* \"--CODEGEN--\":37861:37915   */\n      eq\n        /* \"--CODEGEN--\":37851:37853   */\n      tag_822\n      jumpi\n        /* \"--CODEGEN--\":37929:37930   */\n      0x00\n        /* \"--CODEGEN--\":37926:37927   */\n      dup1\n        /* \"--CODEGEN--\":37919:37931   */\n      revert\n        /* \"--CODEGEN--\":37851:37853   */\n    tag_822:\n        /* \"--CODEGEN--\":37845:37938   */\n      pop\n      jump\n        /* \"--CODEGEN--\":37945:38047   */\n    tag_443:\n        /* \"--CODEGEN--\":38022:38023   */\n      0x03\n        /* \"--CODEGEN--\":38015:38020   */\n      dup2\n        /* \"--CODEGEN--\":38012:38024   */\n      lt\n        /* \"--CODEGEN--\":38002:38004   */\n      tag_824\n      jumpi\n        /* \"--CODEGEN--\":38038:38039   */\n      0x00\n        /* \"--CODEGEN--\":38035:38036   */\n      dup1\n        /* \"--CODEGEN--\":38028:38040   */\n      revert\n        /* \"--CODEGEN--\":38002:38004   */\n    tag_824:\n        /* \"--CODEGEN--\":37996:38047   */\n      pop\n      jump\n        /* \"--CODEGEN--\":38054:38171   */\n    tag_474:\n        /* \"--CODEGEN--\":38123:38147   */\n      tag_826\n        /* \"--CODEGEN--\":38141:38146   */\n      dup2\n        /* \"--CODEGEN--\":38123:38147   */\n      jump(tag_675)\n    tag_826:\n        /* \"--CODEGEN--\":38116:38121   */\n      dup2\n        /* \"--CODEGEN--\":38113:38148   */\n      eq\n        /* \"--CODEGEN--\":38103:38105   */\n      tag_827\n      jumpi\n        /* \"--CODEGEN--\":38162:38163   */\n      0x00\n        /* \"--CODEGEN--\":38159:38160   */\n      dup1\n        /* \"--CODEGEN--\":38152:38164   */\n      revert\n        /* \"--CODEGEN--\":38103:38105   */\n    tag_827:\n        /* \"--CODEGEN--\":38097:38171   */\n      pop\n      jump\n    stop\n    data_1d56a8bdb882be69c05a8118616dff1e2d7c8c28bf4a37f00208781f18c64c7d 474f5645524e5f4554485f4445504f5349545f414d4f554e545f4d49534d41544348\n\n    auxdata: 0xa2646970667358221220403b19ffbe9f7f5fdf040387800a58de38b80d15a98fa4b47d2aea752b1b41f664736f6c63430006080033\n}\n",
				"bytecode": {
					"linkReferences": {},
					"object": "60806040523480156200001157600080fd5b5060405162004bad38038062004bad833981810160405281019062000037919062000bc9565b3080600060026040516200004b9062000dd7565b908152602001604051809103902054141562000078576200007281620001d560201b60201c565b620001bb565b600273ffffffffffffffffffffffffffffffffffffffff1660036000631c47671b60e01b63bdf9a72660e01b635884973460e01b63a157a10d60e01b1818187bffffffffffffffffffffffffffffffffffffffffffffffffffffffff19167bffffffffffffffffffffffffffffffffffffffffffffffffffffffff1916815260200190815260200160002060008373ffffffffffffffffffffffffffffffffffffffff1673ffffffffffffffffffffffffffffffffffffffff16815260200190815260200160002060009054906101000a900473ffffffffffffffffffffffffffffffffffffffff1673ffffffffffffffffffffffffffffffffffffffff1614620001ba576040517f08c379a0000000000000000000000000000000000000000000000000000000008152600401620001b19062000e6c565b60405180910390fd5b5b5050620001ce816200031260201b60201c565b5062000faf565b6040518060400160405280600381526020017f61636c000000000000000000000000000000000000000000000000000000000081525060006002826040516200021f919062000dbe565b9081526020016040518091039020541462000271576040517f08c379a0000000000000000000000000000000000000000000000000000000008152600401620002689062000e4a565b60405180910390fd5b4360028260405162000284919062000dbe565b908152602001604051809103902081905550620002ca631c47671b60e01b63bdf9a72660e01b635884973460e01b63a157a10d60e01b181818836200066460201b60201c565b80604051620002da919062000dbe565b60405180910390207f7bc2a48a4a566e237a12186f19d985b0f76afc9d5290601edac19876253670c260405160405180910390a25050565b3060006002604051620003259062000dd7565b908152602001604051809103902054141562000352576200034c81620001d560201b60201c565b62000495565b600273ffffffffffffffffffffffffffffffffffffffff1660036000631c47671b60e01b63bdf9a72660e01b635884973460e01b63a157a10d60e01b1818187bffffffffffffffffffffffffffffffffffffffffffffffffffffffff19167bffffffffffffffffffffffffffffffffffffffffffffffffffffffff1916815260200190815260200160002060008373ffffffffffffffffffffffffffffffffffffffff1673ffffffffffffffffffffffffffffffffffffffff16815260200190815260200160002060009054906101000a900473ffffffffffffffffffffffffffffffffffffffff1673ffffffffffffffffffffffffffffffffffffffff161462000494576040517f08c379a00000000000000000000000000000000000000000000000000000000081526004016200048b9062000e6c565b60405180910390fd5b5b6040518060400160405280600681526020017f676f7665726e00000000000000000000000000000000000000000000000000008152506000600282604051620004df919062000dbe565b9081526020016040518091039020541462000531576040517f08c379a0000000000000000000000000000000000000000000000000000000008152600401620005289062000e4a565b60405180910390fd5b4360028260405162000544919062000dbe565b9081526020016040518091039020819055506200056f63c2d85afc60e01b846200066460201b60201c565b620005886326abeb6460e01b306200066460201b60201c565b620005a06326abeb6460e01b6200067c60201b60201c565b620005b963a43e253360e01b306200066460201b60201c565b620005d2633e2ab0d960e01b306200066460201b60201c565b620005ea63c2d85afc60e01b6200080560201b60201c565b6200061b7f1626ba7e000000000000000000000000000000000000000000000000000000006200080560201b60201c565b806040516200062b919062000dbe565b60405180910390207f7bc2a48a4a566e237a12186f19d985b0f76afc9d5290601edac19876253670c260405160405180910390a2505050565b6200067882826002620008aa60201b60201c565b5050565b6200068d8162000aca60201b60201c565b15620006d0576040517f08c379a0000000000000000000000000000000000000000000000000000000008152600401620006c79062000e28565b60405180910390fd5b600160036000837bffffffffffffffffffffffffffffffffffffffffffffffffffffffff19167bffffffffffffffffffffffffffffffffffffffffffffffffffffffff191681526020019081526020016000206000600173ffffffffffffffffffffffffffffffffffffffff1673ffffffffffffffffffffffffffffffffffffffff16815260200190815260200160002060006101000a81548173ffffffffffffffffffffffffffffffffffffffff021916908373ffffffffffffffffffffffffffffffffffffffff1602179055503373ffffffffffffffffffffffffffffffffffffffff16817bffffffffffffffffffffffffffffffffffffffffffffffffffffffff19167f049c6b8b07a879425742523fa80f8ffb25e39ad518c93a5896a0df19518397e560405160405180910390a350565b6001600080837bffffffffffffffffffffffffffffffffffffffffffffffffffffffff19167bffffffffffffffffffffffffffffffffffffffffffffffffffffffff1916815260200190815260200160002060006101000a81548160ff0219169083151502179055507fbf5e1f87f5ab65b58074cd29244d7c487a948983cda4b932e0f966b62bd34aca816040516200089f919062000dee565b60405180910390a150565b620008bb8362000aca60201b60201c565b15620008fe576040517f08c379a0000000000000000000000000000000000000000000000000000000008152600401620008f59062000e28565b60405180910390fd5b600173ffffffffffffffffffffffffffffffffffffffff168273ffffffffffffffffffffffffffffffffffffffff16141562000971576040517f08c379a0000000000000000000000000000000000000000000000000000000008152600401620009689062000e8e565b60405180910390fd5b8060036000857bffffffffffffffffffffffffffffffffffffffffffffffffffffffff19167bffffffffffffffffffffffffffffffffffffffffffffffffffffffff1916815260200190815260200160002060008473ffffffffffffffffffffffffffffffffffffffff1673ffffffffffffffffffffffffffffffffffffffff16815260200190815260200160002060006101000a81548173ffffffffffffffffffffffffffffffffffffffff021916908373ffffffffffffffffffffffffffffffffffffffff1602179055508173ffffffffffffffffffffffffffffffffffffffff163373ffffffffffffffffffffffffffffffffffffffff16847bffffffffffffffffffffffffffffffffffffffffffffffffffffffff19167fc62063b81f7036fd97a0dc546516e99f11004d2d76ca0fddd3866346c86e70918460405162000abd919062000e0b565b60405180910390a4505050565b6000600173ffffffffffffffffffffffffffffffffffffffff1660036000847bffffffffffffffffffffffffffffffffffffffffffffffffffffffff19167bffffffffffffffffffffffffffffffffffffffffffffffffffffffff191681526020019081526020016000206000600173ffffffffffffffffffffffffffffffffffffffff1673ffffffffffffffffffffffffffffffffffffffff16815260200190815260200160002060009054906101000a900473ffffffffffffffffffffffffffffffffffffffff1673ffffffffffffffffffffffffffffffffffffffff16149050919050565b60008151905062000bc38162000f95565b92915050565b60006020828403121562000bdc57600080fd5b600062000bec8482850162000bb2565b91505092915050565b62000c008162000eeb565b82525050565b62000c118162000f37565b82525050565b600062000c248262000eb0565b62000c30818562000ecc565b935062000c4281856020860162000f5f565b80840191505092915050565b600062000c5d600b8362000ebb565b91507f61636c3a2066726f7a656e0000000000000000000000000000000000000000006000830152602082019050919050565b600062000c9f60228362000ebb565b91507f696e697469616c697a61626c653a20616c726561647920696e697469616c697a60008301527f65640000000000000000000000000000000000000000000000000000000000006020830152604082019050919050565b600062000d07601c8362000ebb565b91507f61636c3a20696e697469616c20726f6f74206d6973616c69676e6564000000006000830152602082019050919050565b600062000d4960038362000ecc565b91507f61636c00000000000000000000000000000000000000000000000000000000006000830152600382019050919050565b600062000d8b600f8362000ebb565b91507f61636c3a2062616420667265657a6500000000000000000000000000000000006000830152602082019050919050565b600062000dcc828462000c17565b915081905092915050565b600062000de48262000d3a565b9150819050919050565b600060208201905062000e05600083018462000bf5565b92915050565b600060208201905062000e22600083018462000c06565b92915050565b6000602082019050818103600083015262000e438162000c4e565b9050919050565b6000602082019050818103600083015262000e658162000c90565b9050919050565b6000602082019050818103600083015262000e878162000cf8565b9050919050565b6000602082019050818103600083015262000ea98162000d7c565b9050919050565b600081519050919050565b600082825260208201905092915050565b600081905092915050565b600062000ee48262000f17565b9050919050565b60007fffffffff0000000000000000000000000000000000000000000000000000000082169050919050565b600073ffffffffffffffffffffffffffffffffffffffff82169050919050565b600062000f448262000f4b565b9050919050565b600062000f588262000f17565b9050919050565b60005b8381101562000f7f57808201518184015260208101905062000f62565b8381111562000f8f576000848401525b50505050565b62000fa08162000ed7565b811462000fac57600080fd5b50565b613bee8062000fbf6000396000f3fe6080604052600436106101025760003560e01c806396fc8abd11610095578063bdf9a72611610064578063bdf9a72614610402578063bfe07da61461042b578063c2d85afc14610447578063c4d66de814610485578063cc1d4cab146104ae57610142565b806396fc8abd1461034a578063a157a10d14610387578063a2157227146103b0578063a43e2533146103d957610142565b80633e2ab0d9116100d15780633e2ab0d914610290578063495a9825146102b957806358849734146102f65780637e8c7f081461031f57610142565b806301ffc9a7146101c45780631626ba7e146102015780631c47671b1461023e57806326abeb641461026757610142565b36610142577f6c703791f399558807424f489ccd811c72b4ff0b74af547264fad7c646776df03334604051610138929190613495565b60405180910390a1005b34801561014e57600080fd5b506101c26000357fffffffff00000000000000000000000000000000000000000000000000000000166000368080601f016020809104026020016040519081016040528093929190818152602001838380828437600081840152601f19601f820116905080830192505050505050506104eb565b005b3480156101d057600080fd5b506101eb60048036038101906101e69190612d40565b6105e8565b6040516101f891906135af565b60405180910390f35b34801561020d57600080fd5b5061022860048036038101906102239190612cec565b61065f565b604051610235919061362a565b60405180910390f35b34801561024a57600080fd5b5061026560048036038101906102609190612c7e565b610779565b005b34801561027357600080fd5b5061028e60048036038101906102899190612b1c565b610922565b005b34801561029c57600080fd5b506102b760048036038101906102b29190612e6c565b610bee565b005b3480156102c557600080fd5b506102e060048036038101906102db9190612d40565b610cca565b6040516102ed91906135af565b60405180910390f35b34801561030257600080fd5b5061031d60048036038101906103189190612d92565b610db2565b005b34801561032b57600080fd5b50610334610e73565b604051610341919061362a565b60405180910390f35b34801561035657600080fd5b50610371600480360381019061036c9190612d92565b610e99565b60405161037e919061347a565b60405180910390f35b34801561039357600080fd5b506103ae60048036038101906103a99190612d92565b610edb565b005b3480156103bc57600080fd5b506103d760048036038101906103d29190612dce565b610f9c565b005b3480156103e557600080fd5b5061040060048036038101906103fb9190612e1d565b61105f565b005b34801561040e57600080fd5b5061042960048036038101906104249190612d40565b611107565b005b61044560048036038101906104409190612bab565b6111c6565b005b34801561045357600080fd5b5061046e60048036038101906104699190612c17565b611486565b60405161047c9291906135ca565b60405180910390f35b34801561049157600080fd5b506104ac60048036038101906104a79190612af3565b6117ff565b005b3480156104ba57600080fd5b506104d560048036038101906104d09190612e95565b611b01565b6040516104e291906137cb565b60405180910390f35b600060016000847bffffffffffffffffffffffffffffffffffffffffffffffffffffffff19167bffffffffffffffffffffffffffffffffffffffffffffffffffffffff191681526020019081526020016000205490506000801b811415610587576040517f08c379a000000000000000000000000000000000000000000000000000000000815260040161057e9061374b565b60405180910390fd5b827bffffffffffffffffffffffffffffffffffffffffffffffffffffffff19167f2fdd9b4034d8eef4c469308919f66095e03b482447321a73e21479292fba6d37836040516105d691906136ac565b60405180910390a28060005260206000f35b6000806000837bffffffffffffffffffffffffffffffffffffffffffffffffffffffff19167bffffffffffffffffffffffffffffffffffffffffffffffffffffffff1916815260200190815260200160002060009054906101000a900460ff1680610658575061065782611b2f565b5b9050919050565b60008073ffffffffffffffffffffffffffffffffffffffff16600460009054906101000a900473ffffffffffffffffffffffffffffffffffffffff1673ffffffffffffffffffffffffffffffffffffffff1614156106c357600060e01b9050610773565b600460009054906101000a900473ffffffffffffffffffffffffffffffffffffffff1673ffffffffffffffffffffffffffffffffffffffff16631626ba7e84846040518363ffffffff1660e01b81526004016107209291906135fa565b60206040518083038186803b15801561073857600080fd5b505afa15801561074c573d6000803e3d6000fd5b505050506040513d601f19601f820116820180604052508101906107709190612d69565b90505b92915050565b631c47671b60e01b63bdf9a72660e01b635884973460e01b63a157a10d60e01b1818186107ec81336000368080601f016020809104026020016040519081016040528093929190818152602001838380828437600081840152601f19601f82011690508083019250505050505050611b80565b61082b576040517f08c379a00000000000000000000000000000000000000000000000000000000081526004016108229061370b565b60405180910390fd5b60008090505b8383905081101561091c5761084461274d565b84848381811061085057fe5b9050606002018036038101906108669190612ed6565b90506000600281111561087557fe5b8160000151600281111561088557fe5b14156108a25761089d81602001518260400151611bc8565b61090e565b600160028111156108af57fe5b816000015160028111156108bf57fe5b14156108dc576108d781602001518260400151611bd8565b61090d565b6002808111156108e857fe5b816000015160028111156108f857fe5b141561090c5761090b8160200151611d6d565b5b5b5b508080600101915050610831565b50505050565b6326abeb6460e01b61097a81336000368080601f016020809104026020016040519081016040528093929190818152602001838380828437600081840152601f19601f82011690508083019250505050505050611b80565b6109b9576040517f08c379a00000000000000000000000000000000000000000000000000000000081526004016109b09061370b565b60405180910390fd5b600073ffffffffffffffffffffffffffffffffffffffff168673ffffffffffffffffffffffffffffffffffffffff161415610ad95760008473ffffffffffffffffffffffffffffffffffffffff1684604051610a1490613450565b60006040518083038185875af1925050503d8060008114610a51576040519150601f19603f3d011682016040523d82523d6000602084013e610a56565b606091505b50509050806040518060400160405280601a81526020017f474f5645524e5f4554485f57495448445241575f4641494c454400000000000081525090610ad2576040517f08c379a0000000000000000000000000000000000000000000000000000000008152600401610ac991906136e9565b60405180910390fd5b5050610b7d565b610b0484848873ffffffffffffffffffffffffffffffffffffffff16611eeb9092919063ffffffff16565b6040518060400160405280601c81526020017f474f5645524e5f544f4b454e5f57495448445241575f4641494c45440000000081525090610b7b576040517f08c379a0000000000000000000000000000000000000000000000000000000008152600401610b7291906136e9565b60405180910390fd5b505b8373ffffffffffffffffffffffffffffffffffffffff168673ffffffffffffffffffffffffffffffffffffffff167f5df3e860d31cd75f1dd308dcef12d36af55f06605b3d6b2c6d23d19cadaf3611878686604051610bde9392919061351e565b60405180910390a3505050505050565b633e2ab0d960e01b610c4681336000368080601f016020809104026020016040519081016040528093929190818152602001838380828437600081840152601f19601f82011690508083019250505050505050611b80565b610c85576040517f08c379a0000000000000000000000000000000000000000000000000000000008152600401610c7c9061370b565b60405180910390fd5b81600460006101000a81548173ffffffffffffffffffffffffffffffffffffffff021916908373ffffffffffffffffffffffffffffffffffffffff1602179055505050565b6000600173ffffffffffffffffffffffffffffffffffffffff1660036000847bffffffffffffffffffffffffffffffffffffffffffffffffffffffff19167bffffffffffffffffffffffffffffffffffffffffffffffffffffffff191681526020019081526020016000206000600173ffffffffffffffffffffffffffffffffffffffff1673ffffffffffffffffffffffffffffffffffffffff16815260200190815260200160002060009054906101000a900473ffffffffffffffffffffffffffffffffffffffff1673ffffffffffffffffffffffffffffffffffffffff16149050919050565b631c47671b60e01b63bdf9a72660e01b635884973460e01b63a157a10d60e01b181818610e2581336000368080601f016020809104026020016040519081016040528093929190818152602001838380828437600081840152601f19601f82011690508083019250505050505050611b80565b610e64576040517f08c379a0000000000000000000000000000000000000000000000000000000008152600401610e5b9061370b565b60405180910390fd5b610e6e8383611bd8565b505050565b631c47671b60e01b63bdf9a72660e01b635884973460e01b63a157a10d60e01b18181881565b60036020528160005260406000206020528060005260406000206000915091509054906101000a900473ffffffffffffffffffffffffffffffffffffffff1681565b631c47671b60e01b63bdf9a72660e01b635884973460e01b63a157a10d60e01b181818610f4e81336000368080601f016020809104026020016040519081016040528093929190818152602001838380828437600081840152601f19601f82011690508083019250505050505050611b80565b610f8d576040517f08c379a0000000000000000000000000000000000000000000000000000000008152600401610f849061370b565b60405180910390fd5b610f978383611bc8565b505050565b631c47671b60e01b63bdf9a72660e01b635884973460e01b63a157a10d60e01b18181861100f81336000368080601f016020809104026020016040519081016040528093929190818152602001838380828437600081840152601f19601f82011690508083019250505050505050611b80565b61104e576040517f08c379a00000000000000000000000000000000000000000000000000000000081526004016110459061370b565b60405180910390fd5b611059848484611f7d565b50505050565b63a43e253360e01b6110b781336000368080601f016020809104026020016040519081016040528093929190818152602001838380828437600081840152601f19601f82011690508083019250505050505050611b80565b6110f6576040517f08c379a00000000000000000000000000000000000000000000000000000000081526004016110ed9061370b565b60405180910390fd5b61110184848461218d565b50505050565b631c47671b60e01b63bdf9a72660e01b635884973460e01b63a157a10d60e01b18181861117a81336000368080601f016020809104026020016040519081016040528093929190818152602001838380828437600081840152601f19601f82011690508083019250505050505050611b80565b6111b9576040517f08c379a00000000000000000000000000000000000000000000000000000000081526004016111b09061370b565b60405180910390fd5b6111c282611d6d565b5050565b600083116040518060400160405280601a81526020017f474f5645524e5f4445504f5349545f414d4f554e545f5a45524f00000000000081525090611241576040517f08c379a000000000000000000000000000000000000000000000000000000000815260040161123891906136e9565b60405180910390fd5b50600073ffffffffffffffffffffffffffffffffffffffff168473ffffffffffffffffffffffffffffffffffffffff1614156112da57823414604051806060016040528060228152602001613b9760229139906112d4576040517f08c379a00000000000000000000000000000000000000000000000000000000081526004016112cb91906136e9565b60405180910390fd5b50611417565b6112f98473ffffffffffffffffffffffffffffffffffffffff166121a5565b6040518060400160405280601981526020017f474f5645524e5f544f4b454e5f4e4f545f434f4e54524143540000000000000081525090611370576040517f08c379a000000000000000000000000000000000000000000000000000000000815260040161136791906136e9565b60405180910390fd5b5061139e3330858773ffffffffffffffffffffffffffffffffffffffff166121b2909392919063ffffffff16565b6040518060400160405280601b81526020017f474f5645524e5f544f4b454e5f4445504f5349545f4641494c4544000000000081525090611415576040517f08c379a000000000000000000000000000000000000000000000000000000000815260040161140c91906136e9565b60405180910390fd5b505b8373ffffffffffffffffffffffffffffffffffffffff163373ffffffffffffffffffffffffffffffffffffffff167f2bc500cf071be2d1c1458ed6ff484cd4db4345ada8943dee7ff29e7af3558f76858585604051611478939291906137e6565b60405180910390a350505050565b6000606063c2d85afc60e01b6114e281336000368080601f016020809104026020016040519081016040528093929190818152602001838380828437600081840152601f19601f82011690508083019250505050505050611b80565b611521576040517f08c379a00000000000000000000000000000000000000000000000000000000081526004016115189061370b565b60405180910390fd5b610100865111156040518060400160405280601781526020017f474f5645524e5f544f4f5f4d414e595f414354494f4e530000000000000000008152509061159f576040517f08c379a000000000000000000000000000000000000000000000000000000000815260040161159691906136e9565b60405180910390fd5b506060865167ffffffffffffffff811180156115ba57600080fd5b506040519080825280602002602001820160405280156115ee57816020015b60608152602001906001900390816115d95790505b50905060008060001b905060008090505b885181101561179957600060608a838151811061161857fe5b60200260200101516000015173ffffffffffffffffffffffffffffffffffffffff168b848151811061164657fe5b6020026020010151602001518c858151811061165e57fe5b6020026020010151604001516040516116779190613422565b60006040518083038185875af1925050503d80600081146116b4576040519150601f19603f3d011682016040523d82523d6000602084013e6116b9565b606091505b509150915081806116d957506116d8838b61224790919063ffffffff16565b5b6040518060400160405280601981526020017f474f5645524e5f414354494f4e5f43414c4c5f4641494c45440000000000000081525090611750576040517f08c379a000000000000000000000000000000000000000000000000000000000815260040161174791906136e9565b60405180910390fd5b508161176e57611769838561226090919063ffffffff16565b611770565b835b93508085848151811061177f57fe5b6020026020010181905250505080806001019150506115ff565b503373ffffffffffffffffffffffffffffffffffffffff167f589db18161c9dc190c7fc0cc0c319eeb589c1ba890be60089f1ee76b4bfb01ea898884866040516117e6949392919061355c565b60405180910390a2808294509450505050935093915050565b306000600260405161181090613465565b90815260200160405180910390205414156118335761182e8161227a565b611973565b600273ffffffffffffffffffffffffffffffffffffffff1660036000631c47671b60e01b63bdf9a72660e01b635884973460e01b63a157a10d60e01b1818187bffffffffffffffffffffffffffffffffffffffffffffffffffffffff19167bffffffffffffffffffffffffffffffffffffffffffffffffffffffff1916815260200190815260200160002060008373ffffffffffffffffffffffffffffffffffffffff1673ffffffffffffffffffffffffffffffffffffffff16815260200190815260200160002060009054906101000a900473ffffffffffffffffffffffffffffffffffffffff1673ffffffffffffffffffffffffffffffffffffffff1614611972576040517f08c379a00000000000000000000000000000000000000000000000000000000081526004016119699061378b565b60405180910390fd5b5b6040518060400160405280600681526020017f676f7665726e000000000000000000000000000000000000000000000000000081525060006002826040516119bb9190613439565b90815260200160405180910390205414611a0a576040517f08c379a0000000000000000000000000000000000000000000000000000000008152600401611a019061376b565b60405180910390fd5b43600282604051611a1b9190613439565b908152602001604051809103902081905550611a3e63c2d85afc60e01b84611bc8565b611a4f6326abeb6460e01b30611bc8565b611a5f6326abeb6460e01b611d6d565b611a7063a43e253360e01b30611bc8565b611a81633e2ab0d960e01b30611bc8565b611a9163c2d85afc60e01b6123a6565b611aba7f1626ba7e000000000000000000000000000000000000000000000000000000006123a6565b80604051611ac89190613439565b60405180910390207f7bc2a48a4a566e237a12186f19d985b0f76afc9d5290601edac19876253670c260405160405180910390a2505050565b6002818051602081018201805184825260208301602085012081835280955050505050506000915090505481565b60006301ffc9a760e01b7bffffffffffffffffffffffffffffffffffffffffffffffffffffffff1916827bffffffffffffffffffffffffffffffffffffffffffffffffffffffff1916149050919050565b6000611b8d848484612449565b80611bbf5750611bbe847fffffffffffffffffffffffffffffffffffffffffffffffffffffffffffffffff84612449565b5b90509392505050565b611bd482826002611f7d565b5050565b611be182610cca565b15611c21576040517f08c379a0000000000000000000000000000000000000000000000000000000008152600401611c189061372b565b60405180910390fd5b600060036000847bffffffffffffffffffffffffffffffffffffffffffffffffffffffff19167bffffffffffffffffffffffffffffffffffffffffffffffffffffffff1916815260200190815260200160002060008373ffffffffffffffffffffffffffffffffffffffff1673ffffffffffffffffffffffffffffffffffffffff16815260200190815260200160002060006101000a81548173ffffffffffffffffffffffffffffffffffffffff021916908373ffffffffffffffffffffffffffffffffffffffff1602179055508073ffffffffffffffffffffffffffffffffffffffff163373ffffffffffffffffffffffffffffffffffffffff16837bffffffffffffffffffffffffffffffffffffffffffffffffffffffff19167f682f2c466c1e9f6883eb72cbced01373e1cb18b05ae5c8bc04dc73d73e29f8cd60405160405180910390a45050565b611d7681610cca565b15611db6576040517f08c379a0000000000000000000000000000000000000000000000000000000008152600401611dad9061372b565b60405180910390fd5b600160036000837bffffffffffffffffffffffffffffffffffffffffffffffffffffffff19167bffffffffffffffffffffffffffffffffffffffffffffffffffffffff191681526020019081526020016000206000600173ffffffffffffffffffffffffffffffffffffffff1673ffffffffffffffffffffffffffffffffffffffff16815260200190815260200160002060006101000a81548173ffffffffffffffffffffffffffffffffffffffff021916908373ffffffffffffffffffffffffffffffffffffffff1602179055503373ffffffffffffffffffffffffffffffffffffffff16817bffffffffffffffffffffffffffffffffffffffffffffffffffffffff19167f049c6b8b07a879425742523fa80f8ffb25e39ad518c93a5896a0df19518397e560405160405180910390a350565b6000606063a9059cbb60e01b8484604051602401611f0a9291906134f5565b604051602081830303815290604052907bffffffffffffffffffffffffffffffffffffffffffffffffffffffff19166020820180517bffffffffffffffffffffffffffffffffffffffffffffffffffffffff83818316178352505050509050611f738582612622565b9150509392505050565b611f8683610cca565b15611fc6576040517f08c379a0000000000000000000000000000000000000000000000000000000008152600401611fbd9061372b565b60405180910390fd5b600173ffffffffffffffffffffffffffffffffffffffff168273ffffffffffffffffffffffffffffffffffffffff161415612036576040517f08c379a000000000000000000000000000000000000000000000000000000000815260040161202d906137ab565b60405180910390fd5b8060036000857bffffffffffffffffffffffffffffffffffffffffffffffffffffffff19167bffffffffffffffffffffffffffffffffffffffffffffffffffffffff1916815260200190815260200160002060008473ffffffffffffffffffffffffffffffffffffffff1673ffffffffffffffffffffffffffffffffffffffff16815260200190815260200160002060006101000a81548173ffffffffffffffffffffffffffffffffffffffff021916908373ffffffffffffffffffffffffffffffffffffffff1602179055508173ffffffffffffffffffffffffffffffffffffffff163373ffffffffffffffffffffffffffffffffffffffff16847bffffffffffffffffffffffffffffffffffffffffffffffffffffffff19167fc62063b81f7036fd97a0dc546516e99f11004d2d76ca0fddd3866346c86e70918460405161218091906136ce565b60405180910390a4505050565b612196836123a6565b6121a0828261269b565b505050565b6000813b15159050919050565b600060606323b872dd60e01b8585856040516024016121d3939291906134be565b604051602081830303815290604052907bffffffffffffffffffffffffffffffffffffffffffffffffffffffff19166020820180517bffffffffffffffffffffffffffffffffffffffffffffffffffffffff8381831617835250505050905061223c8682612622565b915050949350505050565b60006001808360ff168560001c901c1614905092915050565b60008160ff166001901b8360001c1860001b905092915050565b6040518060400160405280600381526020017f61636c000000000000000000000000000000000000000000000000000000000081525060006002826040516122c29190613439565b90815260200160405180910390205414612311576040517f08c379a00000000000000000000000000000000000000000000000000000000081526004016123089061376b565b60405180910390fd5b436002826040516123229190613439565b908152602001604051809103902081905550612360631c47671b60e01b63bdf9a72660e01b635884973460e01b63a157a10d60e01b18181883611bc8565b8060405161236e9190613439565b60405180910390207f7bc2a48a4a566e237a12186f19d985b0f76afc9d5290601edac19876253670c260405160405180910390a25050565b6001600080837bffffffffffffffffffffffffffffffffffffffffffffffffffffffff19167bffffffffffffffffffffffffffffffffffffffffffffffffffffffff1916815260200190815260200160002060006101000a81548160ff0219169083151502179055507fbf5e1f87f5ab65b58074cd29244d7c487a948983cda4b932e0f966b62bd34aca8160405161243e919061362a565b60405180910390a150565b60008060036000867bffffffffffffffffffffffffffffffffffffffffffffffffffffffff19167bffffffffffffffffffffffffffffffffffffffffffffffffffffffff1916815260200190815260200160002060008573ffffffffffffffffffffffffffffffffffffffff1673ffffffffffffffffffffffffffffffffffffffff16815260200190815260200160002060009054906101000a900473ffffffffffffffffffffffffffffffffffffffff169050600073ffffffffffffffffffffffffffffffffffffffff168173ffffffffffffffffffffffffffffffffffffffff161461261557600273ffffffffffffffffffffffffffffffffffffffff168173ffffffffffffffffffffffffffffffffffffffff16141561257057600191505061261b565b8073ffffffffffffffffffffffffffffffffffffffff1663097c81088686866040518463ffffffff1660e01b81526004016125ad93929190613645565b602060405180830381600087803b1580156125c757600080fd5b505af19250505080156125f857506040513d601f19601f820116820180604052508101906125f59190612cc3565b60015b61260157612614565b80156126125760019250505061261b565b505b5b60009150505b9392505050565b60006126438373ffffffffffffffffffffffffffffffffffffffff166121a5565b6126505760009050612695565b6040516020818451602086016000885af16000811115612692573d60008114612680576020811461268957612690565b60019350612690565b8251151593505b505b50505b92915050565b807bffffffffffffffffffffffffffffffffffffffffffffffffffffffff191660016000847bffffffffffffffffffffffffffffffffffffffffffffffffffffffff19167bffffffffffffffffffffffffffffffffffffffffffffffffffffffff19168152602001908152602001600020819055507f93d5961296b43c7ce4028f69e1b1469851106225a65d1a7f87fe48edf7f100d88282604051612741929190613683565b60405180910390a15050565b60405180606001604052806000600281111561276557fe5b815260200160007bffffffffffffffffffffffffffffffffffffffffffffffffffffffff19168152602001600073ffffffffffffffffffffffffffffffffffffffff1681525090565b6000813590506127bd81613ae5565b92915050565b600082601f8301126127d457600080fd5b81356127e76127e282613845565b613818565b9150818183526020840193506020810190508360005b8381101561282d57813586016128138882612a06565b8452602084019350602083019250506001810190506127fd565b5050505092915050565b60008083601f84011261284957600080fd5b8235905067ffffffffffffffff81111561286257600080fd5b60208301915083606082028301111561287a57600080fd5b9250929050565b60008151905061289081613afc565b92915050565b6000813590506128a581613b13565b92915050565b6000813590506128ba81613b2a565b92915050565b6000815190506128cf81613b2a565b92915050565b600082601f8301126128e657600080fd5b81356128f96128f48261386d565b613818565b9150808252602083016020830185838301111561291557600080fd5b612920838284613a92565b50505092915050565b60008135905061293881613b41565b92915050565b60008135905061294d81613b58565b92915050565b60008135905061296281613b6f565b92915050565b60008083601f84011261297a57600080fd5b8235905067ffffffffffffffff81111561299357600080fd5b6020830191508360018202830111156129ab57600080fd5b9250929050565b600082601f8301126129c357600080fd5b81356129d66129d182613899565b613818565b915080825260208301602083018583830111156129f257600080fd5b6129fd838284613a92565b50505092915050565b600060608284031215612a1857600080fd5b612a226060613818565b90506000612a32848285016127ae565b6000830152506020612a4684828501612ade565b602083015250604082013567ffffffffffffffff811115612a6657600080fd5b612a72848285016128d5565b60408301525092915050565b600060608284031215612a9057600080fd5b612a9a6060613818565b90506000612aaa84828501612953565b6000830152506020612abe848285016128ab565b6020830152506040612ad2848285016127ae565b60408301525092915050565b600081359050612aed81613b7f565b92915050565b600060208284031215612b0557600080fd5b6000612b13848285016127ae565b91505092915050565b600080600080600060a08688031215612b3457600080fd5b6000612b42888289016127ae565b9550506020612b53888289016127ae565b9450506040612b64888289016127ae565b9350506060612b7588828901612ade565b925050608086013567ffffffffffffffff811115612b9257600080fd5b612b9e888289016129b2565b9150509295509295909350565b60008060008060608587031215612bc157600080fd5b6000612bcf878288016127ae565b9450506020612be087828801612ade565b935050604085013567ffffffffffffffff811115612bfd57600080fd5b612c0987828801612968565b925092505092959194509250565b600080600060608486031215612c2c57600080fd5b600084013567ffffffffffffffff811115612c4657600080fd5b612c52868287016127c3565b9350506020612c6386828701612896565b9250506040612c7486828701612896565b9150509250925092565b60008060208385031215612c9157600080fd5b600083013567ffffffffffffffff811115612cab57600080fd5b612cb785828601612837565b92509250509250929050565b600060208284031215612cd557600080fd5b6000612ce384828501612881565b91505092915050565b60008060408385031215612cff57600080fd5b6000612d0d85828601612896565b925050602083013567ffffffffffffffff811115612d2a57600080fd5b612d36858286016128d5565b9150509250929050565b600060208284031215612d5257600080fd5b6000612d60848285016128ab565b91505092915050565b600060208284031215612d7b57600080fd5b6000612d89848285016128c0565b91505092915050565b60008060408385031215612da557600080fd5b6000612db3858286016128ab565b9250506020612dc4858286016127ae565b9150509250929050565b600080600060608486031215612de357600080fd5b6000612df1868287016128ab565b9350506020612e02868287016127ae565b9250506040612e138682870161293e565b9150509250925092565b600080600060608486031215612e3257600080fd5b6000612e40868287016128ab565b9350506020612e51868287016128ab565b9250506040612e62868287016128ab565b9150509250925092565b600060208284031215612e7e57600080fd5b6000612e8c84828501612929565b91505092915050565b600060208284031215612ea757600080fd5b600082013567ffffffffffffffff811115612ec157600080fd5b612ecd848285016129b2565b91505092915050565b600060608284031215612ee857600080fd5b6000612ef684828501612a7e565b91505092915050565b6000612f0b838361306b565b905092915050565b6000612f1f83836133b4565b905092915050565b612f3081613a38565b82525050565b612f3f81613996565b82525050565b612f4e81613996565b82525050565b6000612f5f826138e5565b612f69818561392b565b935083602082028501612f7b856138c5565b8060005b85811015612fb75784840389528151612f988582612eff565b9450612fa383613911565b925060208a01995050600181019050612f7f565b50829750879550505050505092915050565b6000612fd4826138f0565b612fde818561393c565b935083602082028501612ff0856138d5565b8060005b8581101561302c578484038952815161300d8582612f13565b94506130188361391e565b925060208a01995050600181019050612ff4565b50829750879550505050505092915050565b613047816139a8565b82525050565b613056816139b4565b82525050565b613065816139be565b82525050565b6000613076826138fb565b613080818561394d565b9350613090818560208601613aa1565b61309981613ad4565b840191505092915050565b60006130af826138fb565b6130b9818561395e565b93506130c9818560208601613aa1565b6130d281613ad4565b840191505092915050565b60006130e8826138fb565b6130f2818561396f565b9350613102818560208601613aa1565b80840191505092915050565b61311781613a4a565b82525050565b6000613129838561397a565b9350613136838584613a92565b61313f83613ad4565b840190509392505050565b600061315582613906565b61315f818561397a565b935061316f818560208601613aa1565b61317881613ad4565b840191505092915050565b600061318e82613906565b613198818561398b565b93506131a8818560208601613aa1565b80840191505092915050565b60006131c160098361397a565b91507f61636c3a206175746800000000000000000000000000000000000000000000006000830152602082019050919050565b6000613201600b8361397a565b91507f61636c3a2066726f7a656e0000000000000000000000000000000000000000006000830152602082019050919050565b6000613241601d8361397a565b91507f616461702d6572633136353a20756e6b6e6f776e2063616c6c6261636b0000006000830152602082019050919050565b600061328160228361397a565b91507f696e697469616c697a61626c653a20616c726561647920696e697469616c697a60008301527f65640000000000000000000000000000000000000000000000000000000000006020830152604082019050919050565b60006132e760008361396f565b9150600082019050919050565b6000613301601c8361397a565b91507f61636c3a20696e697469616c20726f6f74206d6973616c69676e6564000000006000830152602082019050919050565b600061334160038361398b565b91507f61636c00000000000000000000000000000000000000000000000000000000006000830152600382019050919050565b6000613381600f8361397a565b91507f61636c3a2062616420667265657a6500000000000000000000000000000000006000830152602082019050919050565b60006060830160008301516133cc6000860182612f36565b5060208301516133df6020860182613404565b50604083015184820360408601526133f7828261306b565b9150508091505092915050565b61340d81613a2e565b82525050565b61341c81613a2e565b82525050565b600061342e82846130dd565b915081905092915050565b60006134458284613183565b915081905092915050565b600061345b826132da565b9150819050919050565b600061347082613334565b9150819050919050565b600060208201905061348f6000830184612f45565b92915050565b60006040820190506134aa6000830185612f27565b6134b76020830184613413565b9392505050565b60006060820190506134d36000830186612f45565b6134e06020830185612f45565b6134ed6040830184613413565b949350505050565b600060408201905061350a6000830185612f45565b6135176020830184613413565b9392505050565b60006060820190506135336000830186612f45565b6135406020830185613413565b8181036040830152613552818461314a565b9050949350505050565b600060808201905081810360008301526135768187612fc9565b9050613585602083018661304d565b613592604083018561304d565b81810360608301526135a48184612f54565b905095945050505050565b60006020820190506135c4600083018461303e565b92915050565b60006040820190506135df600083018561304d565b81810360208301526135f18184612f54565b90509392505050565b600060408201905061360f600083018561304d565b818103602083015261362181846130a4565b90509392505050565b600060208201905061363f600083018461305c565b92915050565b600060608201905061365a600083018661305c565b6136676020830185612f45565b818103604083015261367981846130a4565b9050949350505050565b6000604082019050613698600083018561305c565b6136a5602083018461305c565b9392505050565b600060208201905081810360008301526136c681846130a4565b905092915050565b60006020820190506136e3600083018461310e565b92915050565b60006020820190508181036000830152613703818461314a565b905092915050565b60006020820190508181036000830152613724816131b4565b9050919050565b60006020820190508181036000830152613744816131f4565b9050919050565b6000602082019050818103600083015261376481613234565b9050919050565b6000602082019050818103600083015261378481613274565b9050919050565b600060208201905081810360008301526137a4816132f4565b9050919050565b600060208201905081810360008301526137c481613374565b9050919050565b60006020820190506137e06000830184613413565b92915050565b60006040820190506137fb6000830186613413565b818103602083015261380e81848661311d565b9050949350505050565b6000604051905081810181811067ffffffffffffffff8211171561383b57600080fd5b8060405250919050565b600067ffffffffffffffff82111561385c57600080fd5b602082029050602081019050919050565b600067ffffffffffffffff82111561388457600080fd5b601f19601f8301169050602081019050919050565b600067ffffffffffffffff8211156138b057600080fd5b601f19601f8301169050602081019050919050565b6000819050602082019050919050565b6000819050602082019050919050565b600081519050919050565b600081519050919050565b600081519050919050565b600081519050919050565b6000602082019050919050565b6000602082019050919050565b600082825260208201905092915050565b600082825260208201905092915050565b600082825260208201905092915050565b600082825260208201905092915050565b600081905092915050565b600082825260208201905092915050565b600081905092915050565b60006139a182613a0e565b9050919050565b60008115159050919050565b6000819050919050565b60007fffffffff0000000000000000000000000000000000000000000000000000000082169050919050565b60006139f582613996565b9050919050565b6000613a0782613996565b9050919050565b600073ffffffffffffffffffffffffffffffffffffffff82169050919050565b6000819050919050565b6000613a4382613a6e565b9050919050565b6000613a5582613a5c565b9050919050565b6000613a6782613a0e565b9050919050565b6000613a7982613a80565b9050919050565b6000613a8b82613a0e565b9050919050565b82818337600083830152505050565b60005b83811015613abf578082015181840152602081019050613aa4565b83811115613ace576000848401525b50505050565b6000601f19601f8301169050919050565b613aee81613996565b8114613af957600080fd5b50565b613b05816139a8565b8114613b1057600080fd5b50565b613b1c816139b4565b8114613b2757600080fd5b50565b613b33816139be565b8114613b3e57600080fd5b50565b613b4a816139ea565b8114613b5557600080fd5b50565b613b61816139fc565b8114613b6c57600080fd5b50565b60038110613b7c57600080fd5b50565b613b8881613a2e565b8114613b9357600080fd5b5056fe474f5645524e5f4554485f4445504f5349545f414d4f554e545f4d49534d41544348a2646970667358221220403b19ffbe9f7f5fdf040387800a58de38b80d15a98fa4b47d2aea752b1b41f664736f6c63430006080033",
					"opcodes": "PUSH1 0x80 PUSH1 0x40 MSTORE CALLVALUE DUP1 ISZERO PUSH3 0x11 JUMPI PUSH1 0x0 DUP1 REVERT JUMPDEST POP PUSH1 0x40 MLOAD PUSH3 0x4BAD CODESIZE SUB DUP1 PUSH3 0x4BAD DUP4 CODECOPY DUP2 DUP2 ADD PUSH1 0x40 MSTORE DUP2 ADD SWAP1 PUSH3 0x37 SWAP2 SWAP1 PUSH3 0xBC9 JUMP JUMPDEST ADDRESS DUP1 PUSH1 0x0 PUSH1 0x2 PUSH1 0x40 MLOAD PUSH3 0x4B SWAP1 PUSH3 0xDD7 JUMP JUMPDEST SWAP1 DUP2 MSTORE PUSH1 0x20 ADD PUSH1 0x40 MLOAD DUP1 SWAP2 SUB SWAP1 KECCAK256 SLOAD EQ ISZERO PUSH3 0x78 JUMPI PUSH3 0x72 DUP2 PUSH3 0x1D5 PUSH1 0x20 SHL PUSH1 0x20 SHR JUMP JUMPDEST PUSH3 0x1BB JUMP JUMPDEST PUSH1 0x2 PUSH20 0xFFFFFFFFFFFFFFFFFFFFFFFFFFFFFFFFFFFFFFFF AND PUSH1 0x3 PUSH1 0x0 PUSH4 0x1C47671B PUSH1 0xE0 SHL PUSH4 0xBDF9A726 PUSH1 0xE0 SHL PUSH4 0x58849734 PUSH1 0xE0 SHL PUSH4 0xA157A10D PUSH1 0xE0 SHL XOR XOR XOR PUSH28 0xFFFFFFFFFFFFFFFFFFFFFFFFFFFFFFFFFFFFFFFFFFFFFFFFFFFFFFFF NOT AND PUSH28 0xFFFFFFFFFFFFFFFFFFFFFFFFFFFFFFFFFFFFFFFFFFFFFFFFFFFFFFFF NOT AND DUP2 MSTORE PUSH1 0x20 ADD SWAP1 DUP2 MSTORE PUSH1 0x20 ADD PUSH1 0x0 KECCAK256 PUSH1 0x0 DUP4 PUSH20 0xFFFFFFFFFFFFFFFFFFFFFFFFFFFFFFFFFFFFFFFF AND PUSH20 0xFFFFFFFFFFFFFFFFFFFFFFFFFFFFFFFFFFFFFFFF AND DUP2 MSTORE PUSH1 0x20 ADD SWAP1 DUP2 MSTORE PUSH1 0x20 ADD PUSH1 0x0 KECCAK256 PUSH1 0x0 SWAP1 SLOAD SWAP1 PUSH2 0x100 EXP SWAP1 DIV PUSH20 0xFFFFFFFFFFFFFFFFFFFFFFFFFFFFFFFFFFFFFFFF AND PUSH20 0xFFFFFFFFFFFFFFFFFFFFFFFFFFFFFFFFFFFFFFFF AND EQ PUSH3 0x1BA JUMPI PUSH1 0x40 MLOAD PUSH32 0x8C379A000000000000000000000000000000000000000000000000000000000 DUP2 MSTORE PUSH1 0x4 ADD PUSH3 0x1B1 SWAP1 PUSH3 0xE6C JUMP JUMPDEST PUSH1 0x40 MLOAD DUP1 SWAP2 SUB SWAP1 REVERT JUMPDEST JUMPDEST POP POP PUSH3 0x1CE DUP2 PUSH3 0x312 PUSH1 0x20 SHL PUSH1 0x20 SHR JUMP JUMPDEST POP PUSH3 0xFAF JUMP JUMPDEST PUSH1 0x40 MLOAD DUP1 PUSH1 0x40 ADD PUSH1 0x40 MSTORE DUP1 PUSH1 0x3 DUP2 MSTORE PUSH1 0x20 ADD PUSH32 0x61636C0000000000000000000000000000000000000000000000000000000000 DUP2 MSTORE POP PUSH1 0x0 PUSH1 0x2 DUP3 PUSH1 0x40 MLOAD PUSH3 0x21F SWAP2 SWAP1 PUSH3 0xDBE JUMP JUMPDEST SWAP1 DUP2 MSTORE PUSH1 0x20 ADD PUSH1 0x40 MLOAD DUP1 SWAP2 SUB SWAP1 KECCAK256 SLOAD EQ PUSH3 0x271 JUMPI PUSH1 0x40 MLOAD PUSH32 0x8C379A000000000000000000000000000000000000000000000000000000000 DUP2 MSTORE PUSH1 0x4 ADD PUSH3 0x268 SWAP1 PUSH3 0xE4A JUMP JUMPDEST PUSH1 0x40 MLOAD DUP1 SWAP2 SUB SWAP1 REVERT JUMPDEST NUMBER PUSH1 0x2 DUP3 PUSH1 0x40 MLOAD PUSH3 0x284 SWAP2 SWAP1 PUSH3 0xDBE JUMP JUMPDEST SWAP1 DUP2 MSTORE PUSH1 0x20 ADD PUSH1 0x40 MLOAD DUP1 SWAP2 SUB SWAP1 KECCAK256 DUP2 SWAP1 SSTORE POP PUSH3 0x2CA PUSH4 0x1C47671B PUSH1 0xE0 SHL PUSH4 0xBDF9A726 PUSH1 0xE0 SHL PUSH4 0x58849734 PUSH1 0xE0 SHL PUSH4 0xA157A10D PUSH1 0xE0 SHL XOR XOR XOR DUP4 PUSH3 0x664 PUSH1 0x20 SHL PUSH1 0x20 SHR JUMP JUMPDEST DUP1 PUSH1 0x40 MLOAD PUSH3 0x2DA SWAP2 SWAP1 PUSH3 0xDBE JUMP JUMPDEST PUSH1 0x40 MLOAD DUP1 SWAP2 SUB SWAP1 KECCAK256 PUSH32 0x7BC2A48A4A566E237A12186F19D985B0F76AFC9D5290601EDAC19876253670C2 PUSH1 0x40 MLOAD PUSH1 0x40 MLOAD DUP1 SWAP2 SUB SWAP1 LOG2 POP POP JUMP JUMPDEST ADDRESS PUSH1 0x0 PUSH1 0x2 PUSH1 0x40 MLOAD PUSH3 0x325 SWAP1 PUSH3 0xDD7 JUMP JUMPDEST SWAP1 DUP2 MSTORE PUSH1 0x20 ADD PUSH1 0x40 MLOAD DUP1 SWAP2 SUB SWAP1 KECCAK256 SLOAD EQ ISZERO PUSH3 0x352 JUMPI PUSH3 0x34C DUP2 PUSH3 0x1D5 PUSH1 0x20 SHL PUSH1 0x20 SHR JUMP JUMPDEST PUSH3 0x495 JUMP JUMPDEST PUSH1 0x2 PUSH20 0xFFFFFFFFFFFFFFFFFFFFFFFFFFFFFFFFFFFFFFFF AND PUSH1 0x3 PUSH1 0x0 PUSH4 0x1C47671B PUSH1 0xE0 SHL PUSH4 0xBDF9A726 PUSH1 0xE0 SHL PUSH4 0x58849734 PUSH1 0xE0 SHL PUSH4 0xA157A10D PUSH1 0xE0 SHL XOR XOR XOR PUSH28 0xFFFFFFFFFFFFFFFFFFFFFFFFFFFFFFFFFFFFFFFFFFFFFFFFFFFFFFFF NOT AND PUSH28 0xFFFFFFFFFFFFFFFFFFFFFFFFFFFFFFFFFFFFFFFFFFFFFFFFFFFFFFFF NOT AND DUP2 MSTORE PUSH1 0x20 ADD SWAP1 DUP2 MSTORE PUSH1 0x20 ADD PUSH1 0x0 KECCAK256 PUSH1 0x0 DUP4 PUSH20 0xFFFFFFFFFFFFFFFFFFFFFFFFFFFFFFFFFFFFFFFF AND PUSH20 0xFFFFFFFFFFFFFFFFFFFFFFFFFFFFFFFFFFFFFFFF AND DUP2 MSTORE PUSH1 0x20 ADD SWAP1 DUP2 MSTORE PUSH1 0x20 ADD PUSH1 0x0 KECCAK256 PUSH1 0x0 SWAP1 SLOAD SWAP1 PUSH2 0x100 EXP SWAP1 DIV PUSH20 0xFFFFFFFFFFFFFFFFFFFFFFFFFFFFFFFFFFFFFFFF AND PUSH20 0xFFFFFFFFFFFFFFFFFFFFFFFFFFFFFFFFFFFFFFFF AND EQ PUSH3 0x494 JUMPI PUSH1 0x40 MLOAD PUSH32 0x8C379A000000000000000000000000000000000000000000000000000000000 DUP2 MSTORE PUSH1 0x4 ADD PUSH3 0x48B SWAP1 PUSH3 0xE6C JUMP JUMPDEST PUSH1 0x40 MLOAD DUP1 SWAP2 SUB SWAP1 REVERT JUMPDEST JUMPDEST PUSH1 0x40 MLOAD DUP1 PUSH1 0x40 ADD PUSH1 0x40 MSTORE DUP1 PUSH1 0x6 DUP2 MSTORE PUSH1 0x20 ADD PUSH32 0x676F7665726E0000000000000000000000000000000000000000000000000000 DUP2 MSTORE POP PUSH1 0x0 PUSH1 0x2 DUP3 PUSH1 0x40 MLOAD PUSH3 0x4DF SWAP2 SWAP1 PUSH3 0xDBE JUMP JUMPDEST SWAP1 DUP2 MSTORE PUSH1 0x20 ADD PUSH1 0x40 MLOAD DUP1 SWAP2 SUB SWAP1 KECCAK256 SLOAD EQ PUSH3 0x531 JUMPI PUSH1 0x40 MLOAD PUSH32 0x8C379A000000000000000000000000000000000000000000000000000000000 DUP2 MSTORE PUSH1 0x4 ADD PUSH3 0x528 SWAP1 PUSH3 0xE4A JUMP JUMPDEST PUSH1 0x40 MLOAD DUP1 SWAP2 SUB SWAP1 REVERT JUMPDEST NUMBER PUSH1 0x2 DUP3 PUSH1 0x40 MLOAD PUSH3 0x544 SWAP2 SWAP1 PUSH3 0xDBE JUMP JUMPDEST SWAP1 DUP2 MSTORE PUSH1 0x20 ADD PUSH1 0x40 MLOAD DUP1 SWAP2 SUB SWAP1 KECCAK256 DUP2 SWAP1 SSTORE POP PUSH3 0x56F PUSH4 0xC2D85AFC PUSH1 0xE0 SHL DUP5 PUSH3 0x664 PUSH1 0x20 SHL PUSH1 0x20 SHR JUMP JUMPDEST PUSH3 0x588 PUSH4 0x26ABEB64 PUSH1 0xE0 SHL ADDRESS PUSH3 0x664 PUSH1 0x20 SHL PUSH1 0x20 SHR JUMP JUMPDEST PUSH3 0x5A0 PUSH4 0x26ABEB64 PUSH1 0xE0 SHL PUSH3 0x67C PUSH1 0x20 SHL PUSH1 0x20 SHR JUMP JUMPDEST PUSH3 0x5B9 PUSH4 0xA43E2533 PUSH1 0xE0 SHL ADDRESS PUSH3 0x664 PUSH1 0x20 SHL PUSH1 0x20 SHR JUMP JUMPDEST PUSH3 0x5D2 PUSH4 0x3E2AB0D9 PUSH1 0xE0 SHL ADDRESS PUSH3 0x664 PUSH1 0x20 SHL PUSH1 0x20 SHR JUMP JUMPDEST PUSH3 0x5EA PUSH4 0xC2D85AFC PUSH1 0xE0 SHL PUSH3 0x805 PUSH1 0x20 SHL PUSH1 0x20 SHR JUMP JUMPDEST PUSH3 0x61B PUSH32 0x1626BA7E00000000000000000000000000000000000000000000000000000000 PUSH3 0x805 PUSH1 0x20 SHL PUSH1 0x20 SHR JUMP JUMPDEST DUP1 PUSH1 0x40 MLOAD PUSH3 0x62B SWAP2 SWAP1 PUSH3 0xDBE JUMP JUMPDEST PUSH1 0x40 MLOAD DUP1 SWAP2 SUB SWAP1 KECCAK256 PUSH32 0x7BC2A48A4A566E237A12186F19D985B0F76AFC9D5290601EDAC19876253670C2 PUSH1 0x40 MLOAD PUSH1 0x40 MLOAD DUP1 SWAP2 SUB SWAP1 LOG2 POP POP POP JUMP JUMPDEST PUSH3 0x678 DUP3 DUP3 PUSH1 0x2 PUSH3 0x8AA PUSH1 0x20 SHL PUSH1 0x20 SHR JUMP JUMPDEST POP POP JUMP JUMPDEST PUSH3 0x68D DUP2 PUSH3 0xACA PUSH1 0x20 SHL PUSH1 0x20 SHR JUMP JUMPDEST ISZERO PUSH3 0x6D0 JUMPI PUSH1 0x40 MLOAD PUSH32 0x8C379A000000000000000000000000000000000000000000000000000000000 DUP2 MSTORE PUSH1 0x4 ADD PUSH3 0x6C7 SWAP1 PUSH3 0xE28 JUMP JUMPDEST PUSH1 0x40 MLOAD DUP1 SWAP2 SUB SWAP1 REVERT JUMPDEST PUSH1 0x1 PUSH1 0x3 PUSH1 0x0 DUP4 PUSH28 0xFFFFFFFFFFFFFFFFFFFFFFFFFFFFFFFFFFFFFFFFFFFFFFFFFFFFFFFF NOT AND PUSH28 0xFFFFFFFFFFFFFFFFFFFFFFFFFFFFFFFFFFFFFFFFFFFFFFFFFFFFFFFF NOT AND DUP2 MSTORE PUSH1 0x20 ADD SWAP1 DUP2 MSTORE PUSH1 0x20 ADD PUSH1 0x0 KECCAK256 PUSH1 0x0 PUSH1 0x1 PUSH20 0xFFFFFFFFFFFFFFFFFFFFFFFFFFFFFFFFFFFFFFFF AND PUSH20 0xFFFFFFFFFFFFFFFFFFFFFFFFFFFFFFFFFFFFFFFF AND DUP2 MSTORE PUSH1 0x20 ADD SWAP1 DUP2 MSTORE PUSH1 0x20 ADD PUSH1 0x0 KECCAK256 PUSH1 0x0 PUSH2 0x100 EXP DUP2 SLOAD DUP2 PUSH20 0xFFFFFFFFFFFFFFFFFFFFFFFFFFFFFFFFFFFFFFFF MUL NOT AND SWAP1 DUP4 PUSH20 0xFFFFFFFFFFFFFFFFFFFFFFFFFFFFFFFFFFFFFFFF AND MUL OR SWAP1 SSTORE POP CALLER PUSH20 0xFFFFFFFFFFFFFFFFFFFFFFFFFFFFFFFFFFFFFFFF AND DUP2 PUSH28 0xFFFFFFFFFFFFFFFFFFFFFFFFFFFFFFFFFFFFFFFFFFFFFFFFFFFFFFFF NOT AND PUSH32 0x49C6B8B07A879425742523FA80F8FFB25E39AD518C93A5896A0DF19518397E5 PUSH1 0x40 MLOAD PUSH1 0x40 MLOAD DUP1 SWAP2 SUB SWAP1 LOG3 POP JUMP JUMPDEST PUSH1 0x1 PUSH1 0x0 DUP1 DUP4 PUSH28 0xFFFFFFFFFFFFFFFFFFFFFFFFFFFFFFFFFFFFFFFFFFFFFFFFFFFFFFFF NOT AND PUSH28 0xFFFFFFFFFFFFFFFFFFFFFFFFFFFFFFFFFFFFFFFFFFFFFFFFFFFFFFFF NOT AND DUP2 MSTORE PUSH1 0x20 ADD SWAP1 DUP2 MSTORE PUSH1 0x20 ADD PUSH1 0x0 KECCAK256 PUSH1 0x0 PUSH2 0x100 EXP DUP2 SLOAD DUP2 PUSH1 0xFF MUL NOT AND SWAP1 DUP4 ISZERO ISZERO MUL OR SWAP1 SSTORE POP PUSH32 0xBF5E1F87F5AB65B58074CD29244D7C487A948983CDA4B932E0F966B62BD34ACA DUP2 PUSH1 0x40 MLOAD PUSH3 0x89F SWAP2 SWAP1 PUSH3 0xDEE JUMP JUMPDEST PUSH1 0x40 MLOAD DUP1 SWAP2 SUB SWAP1 LOG1 POP JUMP JUMPDEST PUSH3 0x8BB DUP4 PUSH3 0xACA PUSH1 0x20 SHL PUSH1 0x20 SHR JUMP JUMPDEST ISZERO PUSH3 0x8FE JUMPI PUSH1 0x40 MLOAD PUSH32 0x8C379A000000000000000000000000000000000000000000000000000000000 DUP2 MSTORE PUSH1 0x4 ADD PUSH3 0x8F5 SWAP1 PUSH3 0xE28 JUMP JUMPDEST PUSH1 0x40 MLOAD DUP1 SWAP2 SUB SWAP1 REVERT JUMPDEST PUSH1 0x1 PUSH20 0xFFFFFFFFFFFFFFFFFFFFFFFFFFFFFFFFFFFFFFFF AND DUP3 PUSH20 0xFFFFFFFFFFFFFFFFFFFFFFFFFFFFFFFFFFFFFFFF AND EQ ISZERO PUSH3 0x971 JUMPI PUSH1 0x40 MLOAD PUSH32 0x8C379A000000000000000000000000000000000000000000000000000000000 DUP2 MSTORE PUSH1 0x4 ADD PUSH3 0x968 SWAP1 PUSH3 0xE8E JUMP JUMPDEST PUSH1 0x40 MLOAD DUP1 SWAP2 SUB SWAP1 REVERT JUMPDEST DUP1 PUSH1 0x3 PUSH1 0x0 DUP6 PUSH28 0xFFFFFFFFFFFFFFFFFFFFFFFFFFFFFFFFFFFFFFFFFFFFFFFFFFFFFFFF NOT AND PUSH28 0xFFFFFFFFFFFFFFFFFFFFFFFFFFFFFFFFFFFFFFFFFFFFFFFFFFFFFFFF NOT AND DUP2 MSTORE PUSH1 0x20 ADD SWAP1 DUP2 MSTORE PUSH1 0x20 ADD PUSH1 0x0 KECCAK256 PUSH1 0x0 DUP5 PUSH20 0xFFFFFFFFFFFFFFFFFFFFFFFFFFFFFFFFFFFFFFFF AND PUSH20 0xFFFFFFFFFFFFFFFFFFFFFFFFFFFFFFFFFFFFFFFF AND DUP2 MSTORE PUSH1 0x20 ADD SWAP1 DUP2 MSTORE PUSH1 0x20 ADD PUSH1 0x0 KECCAK256 PUSH1 0x0 PUSH2 0x100 EXP DUP2 SLOAD DUP2 PUSH20 0xFFFFFFFFFFFFFFFFFFFFFFFFFFFFFFFFFFFFFFFF MUL NOT AND SWAP1 DUP4 PUSH20 0xFFFFFFFFFFFFFFFFFFFFFFFFFFFFFFFFFFFFFFFF AND MUL OR SWAP1 SSTORE POP DUP2 PUSH20 0xFFFFFFFFFFFFFFFFFFFFFFFFFFFFFFFFFFFFFFFF AND CALLER PUSH20 0xFFFFFFFFFFFFFFFFFFFFFFFFFFFFFFFFFFFFFFFF AND DUP5 PUSH28 0xFFFFFFFFFFFFFFFFFFFFFFFFFFFFFFFFFFFFFFFFFFFFFFFFFFFFFFFF NOT AND PUSH32 0xC62063B81F7036FD97A0DC546516E99F11004D2D76CA0FDDD3866346C86E7091 DUP5 PUSH1 0x40 MLOAD PUSH3 0xABD SWAP2 SWAP1 PUSH3 0xE0B JUMP JUMPDEST PUSH1 0x40 MLOAD DUP1 SWAP2 SUB SWAP1 LOG4 POP POP POP JUMP JUMPDEST PUSH1 0x0 PUSH1 0x1 PUSH20 0xFFFFFFFFFFFFFFFFFFFFFFFFFFFFFFFFFFFFFFFF AND PUSH1 0x3 PUSH1 0x0 DUP5 PUSH28 0xFFFFFFFFFFFFFFFFFFFFFFFFFFFFFFFFFFFFFFFFFFFFFFFFFFFFFFFF NOT AND PUSH28 0xFFFFFFFFFFFFFFFFFFFFFFFFFFFFFFFFFFFFFFFFFFFFFFFFFFFFFFFF NOT AND DUP2 MSTORE PUSH1 0x20 ADD SWAP1 DUP2 MSTORE PUSH1 0x20 ADD PUSH1 0x0 KECCAK256 PUSH1 0x0 PUSH1 0x1 PUSH20 0xFFFFFFFFFFFFFFFFFFFFFFFFFFFFFFFFFFFFFFFF AND PUSH20 0xFFFFFFFFFFFFFFFFFFFFFFFFFFFFFFFFFFFFFFFF AND DUP2 MSTORE PUSH1 0x20 ADD SWAP1 DUP2 MSTORE PUSH1 0x20 ADD PUSH1 0x0 KECCAK256 PUSH1 0x0 SWAP1 SLOAD SWAP1 PUSH2 0x100 EXP SWAP1 DIV PUSH20 0xFFFFFFFFFFFFFFFFFFFFFFFFFFFFFFFFFFFFFFFF AND PUSH20 0xFFFFFFFFFFFFFFFFFFFFFFFFFFFFFFFFFFFFFFFF AND EQ SWAP1 POP SWAP2 SWAP1 POP JUMP JUMPDEST PUSH1 0x0 DUP2 MLOAD SWAP1 POP PUSH3 0xBC3 DUP2 PUSH3 0xF95 JUMP JUMPDEST SWAP3 SWAP2 POP POP JUMP JUMPDEST PUSH1 0x0 PUSH1 0x20 DUP3 DUP5 SUB SLT ISZERO PUSH3 0xBDC JUMPI PUSH1 0x0 DUP1 REVERT JUMPDEST PUSH1 0x0 PUSH3 0xBEC DUP5 DUP3 DUP6 ADD PUSH3 0xBB2 JUMP JUMPDEST SWAP2 POP POP SWAP3 SWAP2 POP POP JUMP JUMPDEST PUSH3 0xC00 DUP2 PUSH3 0xEEB JUMP JUMPDEST DUP3 MSTORE POP POP JUMP JUMPDEST PUSH3 0xC11 DUP2 PUSH3 0xF37 JUMP JUMPDEST DUP3 MSTORE POP POP JUMP JUMPDEST PUSH1 0x0 PUSH3 0xC24 DUP3 PUSH3 0xEB0 JUMP JUMPDEST PUSH3 0xC30 DUP2 DUP6 PUSH3 0xECC JUMP JUMPDEST SWAP4 POP PUSH3 0xC42 DUP2 DUP6 PUSH1 0x20 DUP7 ADD PUSH3 0xF5F JUMP JUMPDEST DUP1 DUP5 ADD SWAP2 POP POP SWAP3 SWAP2 POP POP JUMP JUMPDEST PUSH1 0x0 PUSH3 0xC5D PUSH1 0xB DUP4 PUSH3 0xEBB JUMP JUMPDEST SWAP2 POP PUSH32 0x61636C3A2066726F7A656E000000000000000000000000000000000000000000 PUSH1 0x0 DUP4 ADD MSTORE PUSH1 0x20 DUP3 ADD SWAP1 POP SWAP2 SWAP1 POP JUMP JUMPDEST PUSH1 0x0 PUSH3 0xC9F PUSH1 0x22 DUP4 PUSH3 0xEBB JUMP JUMPDEST SWAP2 POP PUSH32 0x696E697469616C697A61626C653A20616C726561647920696E697469616C697A PUSH1 0x0 DUP4 ADD MSTORE PUSH32 0x6564000000000000000000000000000000000000000000000000000000000000 PUSH1 0x20 DUP4 ADD MSTORE PUSH1 0x40 DUP3 ADD SWAP1 POP SWAP2 SWAP1 POP JUMP JUMPDEST PUSH1 0x0 PUSH3 0xD07 PUSH1 0x1C DUP4 PUSH3 0xEBB JUMP JUMPDEST SWAP2 POP PUSH32 0x61636C3A20696E697469616C20726F6F74206D6973616C69676E656400000000 PUSH1 0x0 DUP4 ADD MSTORE PUSH1 0x20 DUP3 ADD SWAP1 POP SWAP2 SWAP1 POP JUMP JUMPDEST PUSH1 0x0 PUSH3 0xD49 PUSH1 0x3 DUP4 PUSH3 0xECC JUMP JUMPDEST SWAP2 POP PUSH32 0x61636C0000000000000000000000000000000000000000000000000000000000 PUSH1 0x0 DUP4 ADD MSTORE PUSH1 0x3 DUP3 ADD SWAP1 POP SWAP2 SWAP1 POP JUMP JUMPDEST PUSH1 0x0 PUSH3 0xD8B PUSH1 0xF DUP4 PUSH3 0xEBB JUMP JUMPDEST SWAP2 POP PUSH32 0x61636C3A2062616420667265657A650000000000000000000000000000000000 PUSH1 0x0 DUP4 ADD MSTORE PUSH1 0x20 DUP3 ADD SWAP1 POP SWAP2 SWAP1 POP JUMP JUMPDEST PUSH1 0x0 PUSH3 0xDCC DUP3 DUP5 PUSH3 0xC17 JUMP JUMPDEST SWAP2 POP DUP2 SWAP1 POP SWAP3 SWAP2 POP POP JUMP JUMPDEST PUSH1 0x0 PUSH3 0xDE4 DUP3 PUSH3 0xD3A JUMP JUMPDEST SWAP2 POP DUP2 SWAP1 POP SWAP2 SWAP1 POP JUMP JUMPDEST PUSH1 0x0 PUSH1 0x20 DUP3 ADD SWAP1 POP PUSH3 0xE05 PUSH1 0x0 DUP4 ADD DUP5 PUSH3 0xBF5 JUMP JUMPDEST SWAP3 SWAP2 POP POP JUMP JUMPDEST PUSH1 0x0 PUSH1 0x20 DUP3 ADD SWAP1 POP PUSH3 0xE22 PUSH1 0x0 DUP4 ADD DUP5 PUSH3 0xC06 JUMP JUMPDEST SWAP3 SWAP2 POP POP JUMP JUMPDEST PUSH1 0x0 PUSH1 0x20 DUP3 ADD SWAP1 POP DUP2 DUP2 SUB PUSH1 0x0 DUP4 ADD MSTORE PUSH3 0xE43 DUP2 PUSH3 0xC4E JUMP JUMPDEST SWAP1 POP SWAP2 SWAP1 POP JUMP JUMPDEST PUSH1 0x0 PUSH1 0x20 DUP3 ADD SWAP1 POP DUP2 DUP2 SUB PUSH1 0x0 DUP4 ADD MSTORE PUSH3 0xE65 DUP2 PUSH3 0xC90 JUMP JUMPDEST SWAP1 POP SWAP2 SWAP1 POP JUMP JUMPDEST PUSH1 0x0 PUSH1 0x20 DUP3 ADD SWAP1 POP DUP2 DUP2 SUB PUSH1 0x0 DUP4 ADD MSTORE PUSH3 0xE87 DUP2 PUSH3 0xCF8 JUMP JUMPDEST SWAP1 POP SWAP2 SWAP1 POP JUMP JUMPDEST PUSH1 0x0 PUSH1 0x20 DUP3 ADD SWAP1 POP DUP2 DUP2 SUB PUSH1 0x0 DUP4 ADD MSTORE PUSH3 0xEA9 DUP2 PUSH3 0xD7C JUMP JUMPDEST SWAP1 POP SWAP2 SWAP1 POP JUMP JUMPDEST PUSH1 0x0 DUP2 MLOAD SWAP1 POP SWAP2 SWAP1 POP JUMP JUMPDEST PUSH1 0x0 DUP3 DUP3 MSTORE PUSH1 0x20 DUP3 ADD SWAP1 POP SWAP3 SWAP2 POP POP JUMP JUMPDEST PUSH1 0x0 DUP2 SWAP1 POP SWAP3 SWAP2 POP POP JUMP JUMPDEST PUSH1 0x0 PUSH3 0xEE4 DUP3 PUSH3 0xF17 JUMP JUMPDEST SWAP1 POP SWAP2 SWAP1 POP JUMP JUMPDEST PUSH1 0x0 PUSH32 0xFFFFFFFF00000000000000000000000000000000000000000000000000000000 DUP3 AND SWAP1 POP SWAP2 SWAP1 POP JUMP JUMPDEST PUSH1 0x0 PUSH20 0xFFFFFFFFFFFFFFFFFFFFFFFFFFFFFFFFFFFFFFFF DUP3 AND SWAP1 POP SWAP2 SWAP1 POP JUMP JUMPDEST PUSH1 0x0 PUSH3 0xF44 DUP3 PUSH3 0xF4B JUMP JUMPDEST SWAP1 POP SWAP2 SWAP1 POP JUMP JUMPDEST PUSH1 0x0 PUSH3 0xF58 DUP3 PUSH3 0xF17 JUMP JUMPDEST SWAP1 POP SWAP2 SWAP1 POP JUMP JUMPDEST PUSH1 0x0 JUMPDEST DUP4 DUP2 LT ISZERO PUSH3 0xF7F JUMPI DUP1 DUP3 ADD MLOAD DUP2 DUP5 ADD MSTORE PUSH1 0x20 DUP2 ADD SWAP1 POP PUSH3 0xF62 JUMP JUMPDEST DUP4 DUP2 GT ISZERO PUSH3 0xF8F JUMPI PUSH1 0x0 DUP5 DUP5 ADD MSTORE JUMPDEST POP POP POP POP JUMP JUMPDEST PUSH3 0xFA0 DUP2 PUSH3 0xED7 JUMP JUMPDEST DUP2 EQ PUSH3 0xFAC JUMPI PUSH1 0x0 DUP1 REVERT JUMPDEST POP JUMP JUMPDEST PUSH2 0x3BEE DUP1 PUSH3 0xFBF PUSH1 0x0 CODECOPY PUSH1 0x0 RETURN INVALID PUSH1 0x80 PUSH1 0x40 MSTORE PUSH1 0x4 CALLDATASIZE LT PUSH2 0x102 JUMPI PUSH1 0x0 CALLDATALOAD PUSH1 0xE0 SHR DUP1 PUSH4 0x96FC8ABD GT PUSH2 0x95 JUMPI DUP1 PUSH4 0xBDF9A726 GT PUSH2 0x64 JUMPI DUP1 PUSH4 0xBDF9A726 EQ PUSH2 0x402 JUMPI DUP1 PUSH4 0xBFE07DA6 EQ PUSH2 0x42B JUMPI DUP1 PUSH4 0xC2D85AFC EQ PUSH2 0x447 JUMPI DUP1 PUSH4 0xC4D66DE8 EQ PUSH2 0x485 JUMPI DUP1 PUSH4 0xCC1D4CAB EQ PUSH2 0x4AE JUMPI PUSH2 0x142 JUMP JUMPDEST DUP1 PUSH4 0x96FC8ABD EQ PUSH2 0x34A JUMPI DUP1 PUSH4 0xA157A10D EQ PUSH2 0x387 JUMPI DUP1 PUSH4 0xA2157227 EQ PUSH2 0x3B0 JUMPI DUP1 PUSH4 0xA43E2533 EQ PUSH2 0x3D9 JUMPI PUSH2 0x142 JUMP JUMPDEST DUP1 PUSH4 0x3E2AB0D9 GT PUSH2 0xD1 JUMPI DUP1 PUSH4 0x3E2AB0D9 EQ PUSH2 0x290 JUMPI DUP1 PUSH4 0x495A9825 EQ PUSH2 0x2B9 JUMPI DUP1 PUSH4 0x58849734 EQ PUSH2 0x2F6 JUMPI DUP1 PUSH4 0x7E8C7F08 EQ PUSH2 0x31F JUMPI PUSH2 0x142 JUMP JUMPDEST DUP1 PUSH4 0x1FFC9A7 EQ PUSH2 0x1C4 JUMPI DUP1 PUSH4 0x1626BA7E EQ PUSH2 0x201 JUMPI DUP1 PUSH4 0x1C47671B EQ PUSH2 0x23E JUMPI DUP1 PUSH4 0x26ABEB64 EQ PUSH2 0x267 JUMPI PUSH2 0x142 JUMP JUMPDEST CALLDATASIZE PUSH2 0x142 JUMPI PUSH32 0x6C703791F399558807424F489CCD811C72B4FF0B74AF547264FAD7C646776DF0 CALLER CALLVALUE PUSH1 0x40 MLOAD PUSH2 0x138 SWAP3 SWAP2 SWAP1 PUSH2 0x3495 JUMP JUMPDEST PUSH1 0x40 MLOAD DUP1 SWAP2 SUB SWAP1 LOG1 STOP JUMPDEST CALLVALUE DUP1 ISZERO PUSH2 0x14E JUMPI PUSH1 0x0 DUP1 REVERT JUMPDEST POP PUSH2 0x1C2 PUSH1 0x0 CALLDATALOAD PUSH32 0xFFFFFFFF00000000000000000000000000000000000000000000000000000000 AND PUSH1 0x0 CALLDATASIZE DUP1 DUP1 PUSH1 0x1F ADD PUSH1 0x20 DUP1 SWAP2 DIV MUL PUSH1 0x20 ADD PUSH1 0x40 MLOAD SWAP1 DUP2 ADD PUSH1 0x40 MSTORE DUP1 SWAP4 SWAP3 SWAP2 SWAP1 DUP2 DUP2 MSTORE PUSH1 0x20 ADD DUP4 DUP4 DUP1 DUP3 DUP5 CALLDATACOPY PUSH1 0x0 DUP2 DUP5 ADD MSTORE PUSH1 0x1F NOT PUSH1 0x1F DUP3 ADD AND SWAP1 POP DUP1 DUP4 ADD SWAP3 POP POP POP POP POP POP POP PUSH2 0x4EB JUMP JUMPDEST STOP JUMPDEST CALLVALUE DUP1 ISZERO PUSH2 0x1D0 JUMPI PUSH1 0x0 DUP1 REVERT JUMPDEST POP PUSH2 0x1EB PUSH1 0x4 DUP1 CALLDATASIZE SUB DUP2 ADD SWAP1 PUSH2 0x1E6 SWAP2 SWAP1 PUSH2 0x2D40 JUMP JUMPDEST PUSH2 0x5E8 JUMP JUMPDEST PUSH1 0x40 MLOAD PUSH2 0x1F8 SWAP2 SWAP1 PUSH2 0x35AF JUMP JUMPDEST PUSH1 0x40 MLOAD DUP1 SWAP2 SUB SWAP1 RETURN JUMPDEST CALLVALUE DUP1 ISZERO PUSH2 0x20D JUMPI PUSH1 0x0 DUP1 REVERT JUMPDEST POP PUSH2 0x228 PUSH1 0x4 DUP1 CALLDATASIZE SUB DUP2 ADD SWAP1 PUSH2 0x223 SWAP2 SWAP1 PUSH2 0x2CEC JUMP JUMPDEST PUSH2 0x65F JUMP JUMPDEST PUSH1 0x40 MLOAD PUSH2 0x235 SWAP2 SWAP1 PUSH2 0x362A JUMP JUMPDEST PUSH1 0x40 MLOAD DUP1 SWAP2 SUB SWAP1 RETURN JUMPDEST CALLVALUE DUP1 ISZERO PUSH2 0x24A JUMPI PUSH1 0x0 DUP1 REVERT JUMPDEST POP PUSH2 0x265 PUSH1 0x4 DUP1 CALLDATASIZE SUB DUP2 ADD SWAP1 PUSH2 0x260 SWAP2 SWAP1 PUSH2 0x2C7E JUMP JUMPDEST PUSH2 0x779 JUMP JUMPDEST STOP JUMPDEST CALLVALUE DUP1 ISZERO PUSH2 0x273 JUMPI PUSH1 0x0 DUP1 REVERT JUMPDEST POP PUSH2 0x28E PUSH1 0x4 DUP1 CALLDATASIZE SUB DUP2 ADD SWAP1 PUSH2 0x289 SWAP2 SWAP1 PUSH2 0x2B1C JUMP JUMPDEST PUSH2 0x922 JUMP JUMPDEST STOP JUMPDEST CALLVALUE DUP1 ISZERO PUSH2 0x29C JUMPI PUSH1 0x0 DUP1 REVERT JUMPDEST POP PUSH2 0x2B7 PUSH1 0x4 DUP1 CALLDATASIZE SUB DUP2 ADD SWAP1 PUSH2 0x2B2 SWAP2 SWAP1 PUSH2 0x2E6C JUMP JUMPDEST PUSH2 0xBEE JUMP JUMPDEST STOP JUMPDEST CALLVALUE DUP1 ISZERO PUSH2 0x2C5 JUMPI PUSH1 0x0 DUP1 REVERT JUMPDEST POP PUSH2 0x2E0 PUSH1 0x4 DUP1 CALLDATASIZE SUB DUP2 ADD SWAP1 PUSH2 0x2DB SWAP2 SWAP1 PUSH2 0x2D40 JUMP JUMPDEST PUSH2 0xCCA JUMP JUMPDEST PUSH1 0x40 MLOAD PUSH2 0x2ED SWAP2 SWAP1 PUSH2 0x35AF JUMP JUMPDEST PUSH1 0x40 MLOAD DUP1 SWAP2 SUB SWAP1 RETURN JUMPDEST CALLVALUE DUP1 ISZERO PUSH2 0x302 JUMPI PUSH1 0x0 DUP1 REVERT JUMPDEST POP PUSH2 0x31D PUSH1 0x4 DUP1 CALLDATASIZE SUB DUP2 ADD SWAP1 PUSH2 0x318 SWAP2 SWAP1 PUSH2 0x2D92 JUMP JUMPDEST PUSH2 0xDB2 JUMP JUMPDEST STOP JUMPDEST CALLVALUE DUP1 ISZERO PUSH2 0x32B JUMPI PUSH1 0x0 DUP1 REVERT JUMPDEST POP PUSH2 0x334 PUSH2 0xE73 JUMP JUMPDEST PUSH1 0x40 MLOAD PUSH2 0x341 SWAP2 SWAP1 PUSH2 0x362A JUMP JUMPDEST PUSH1 0x40 MLOAD DUP1 SWAP2 SUB SWAP1 RETURN JUMPDEST CALLVALUE DUP1 ISZERO PUSH2 0x356 JUMPI PUSH1 0x0 DUP1 REVERT JUMPDEST POP PUSH2 0x371 PUSH1 0x4 DUP1 CALLDATASIZE SUB DUP2 ADD SWAP1 PUSH2 0x36C SWAP2 SWAP1 PUSH2 0x2D92 JUMP JUMPDEST PUSH2 0xE99 JUMP JUMPDEST PUSH1 0x40 MLOAD PUSH2 0x37E SWAP2 SWAP1 PUSH2 0x347A JUMP JUMPDEST PUSH1 0x40 MLOAD DUP1 SWAP2 SUB SWAP1 RETURN JUMPDEST CALLVALUE DUP1 ISZERO PUSH2 0x393 JUMPI PUSH1 0x0 DUP1 REVERT JUMPDEST POP PUSH2 0x3AE PUSH1 0x4 DUP1 CALLDATASIZE SUB DUP2 ADD SWAP1 PUSH2 0x3A9 SWAP2 SWAP1 PUSH2 0x2D92 JUMP JUMPDEST PUSH2 0xEDB JUMP JUMPDEST STOP JUMPDEST CALLVALUE DUP1 ISZERO PUSH2 0x3BC JUMPI PUSH1 0x0 DUP1 REVERT JUMPDEST POP PUSH2 0x3D7 PUSH1 0x4 DUP1 CALLDATASIZE SUB DUP2 ADD SWAP1 PUSH2 0x3D2 SWAP2 SWAP1 PUSH2 0x2DCE JUMP JUMPDEST PUSH2 0xF9C JUMP JUMPDEST STOP JUMPDEST CALLVALUE DUP1 ISZERO PUSH2 0x3E5 JUMPI PUSH1 0x0 DUP1 REVERT JUMPDEST POP PUSH2 0x400 PUSH1 0x4 DUP1 CALLDATASIZE SUB DUP2 ADD SWAP1 PUSH2 0x3FB SWAP2 SWAP1 PUSH2 0x2E1D JUMP JUMPDEST PUSH2 0x105F JUMP JUMPDEST STOP JUMPDEST CALLVALUE DUP1 ISZERO PUSH2 0x40E JUMPI PUSH1 0x0 DUP1 REVERT JUMPDEST POP PUSH2 0x429 PUSH1 0x4 DUP1 CALLDATASIZE SUB DUP2 ADD SWAP1 PUSH2 0x424 SWAP2 SWAP1 PUSH2 0x2D40 JUMP JUMPDEST PUSH2 0x1107 JUMP JUMPDEST STOP JUMPDEST PUSH2 0x445 PUSH1 0x4 DUP1 CALLDATASIZE SUB DUP2 ADD SWAP1 PUSH2 0x440 SWAP2 SWAP1 PUSH2 0x2BAB JUMP JUMPDEST PUSH2 0x11C6 JUMP JUMPDEST STOP JUMPDEST CALLVALUE DUP1 ISZERO PUSH2 0x453 JUMPI PUSH1 0x0 DUP1 REVERT JUMPDEST POP PUSH2 0x46E PUSH1 0x4 DUP1 CALLDATASIZE SUB DUP2 ADD SWAP1 PUSH2 0x469 SWAP2 SWAP1 PUSH2 0x2C17 JUMP JUMPDEST PUSH2 0x1486 JUMP JUMPDEST PUSH1 0x40 MLOAD PUSH2 0x47C SWAP3 SWAP2 SWAP1 PUSH2 0x35CA JUMP JUMPDEST PUSH1 0x40 MLOAD DUP1 SWAP2 SUB SWAP1 RETURN JUMPDEST CALLVALUE DUP1 ISZERO PUSH2 0x491 JUMPI PUSH1 0x0 DUP1 REVERT JUMPDEST POP PUSH2 0x4AC PUSH1 0x4 DUP1 CALLDATASIZE SUB DUP2 ADD SWAP1 PUSH2 0x4A7 SWAP2 SWAP1 PUSH2 0x2AF3 JUMP JUMPDEST PUSH2 0x17FF JUMP JUMPDEST STOP JUMPDEST CALLVALUE DUP1 ISZERO PUSH2 0x4BA JUMPI PUSH1 0x0 DUP1 REVERT JUMPDEST POP PUSH2 0x4D5 PUSH1 0x4 DUP1 CALLDATASIZE SUB DUP2 ADD SWAP1 PUSH2 0x4D0 SWAP2 SWAP1 PUSH2 0x2E95 JUMP JUMPDEST PUSH2 0x1B01 JUMP JUMPDEST PUSH1 0x40 MLOAD PUSH2 0x4E2 SWAP2 SWAP1 PUSH2 0x37CB JUMP JUMPDEST PUSH1 0x40 MLOAD DUP1 SWAP2 SUB SWAP1 RETURN JUMPDEST PUSH1 0x0 PUSH1 0x1 PUSH1 0x0 DUP5 PUSH28 0xFFFFFFFFFFFFFFFFFFFFFFFFFFFFFFFFFFFFFFFFFFFFFFFFFFFFFFFF NOT AND PUSH28 0xFFFFFFFFFFFFFFFFFFFFFFFFFFFFFFFFFFFFFFFFFFFFFFFFFFFFFFFF NOT AND DUP2 MSTORE PUSH1 0x20 ADD SWAP1 DUP2 MSTORE PUSH1 0x20 ADD PUSH1 0x0 KECCAK256 SLOAD SWAP1 POP PUSH1 0x0 DUP1 SHL DUP2 EQ ISZERO PUSH2 0x587 JUMPI PUSH1 0x40 MLOAD PUSH32 0x8C379A000000000000000000000000000000000000000000000000000000000 DUP2 MSTORE PUSH1 0x4 ADD PUSH2 0x57E SWAP1 PUSH2 0x374B JUMP JUMPDEST PUSH1 0x40 MLOAD DUP1 SWAP2 SUB SWAP1 REVERT JUMPDEST DUP3 PUSH28 0xFFFFFFFFFFFFFFFFFFFFFFFFFFFFFFFFFFFFFFFFFFFFFFFFFFFFFFFF NOT AND PUSH32 0x2FDD9B4034D8EEF4C469308919F66095E03B482447321A73E21479292FBA6D37 DUP4 PUSH1 0x40 MLOAD PUSH2 0x5D6 SWAP2 SWAP1 PUSH2 0x36AC JUMP JUMPDEST PUSH1 0x40 MLOAD DUP1 SWAP2 SUB SWAP1 LOG2 DUP1 PUSH1 0x0 MSTORE PUSH1 0x20 PUSH1 0x0 RETURN JUMPDEST PUSH1 0x0 DUP1 PUSH1 0x0 DUP4 PUSH28 0xFFFFFFFFFFFFFFFFFFFFFFFFFFFFFFFFFFFFFFFFFFFFFFFFFFFFFFFF NOT AND PUSH28 0xFFFFFFFFFFFFFFFFFFFFFFFFFFFFFFFFFFFFFFFFFFFFFFFFFFFFFFFF NOT AND DUP2 MSTORE PUSH1 0x20 ADD SWAP1 DUP2 MSTORE PUSH1 0x20 ADD PUSH1 0x0 KECCAK256 PUSH1 0x0 SWAP1 SLOAD SWAP1 PUSH2 0x100 EXP SWAP1 DIV PUSH1 0xFF AND DUP1 PUSH2 0x658 JUMPI POP PUSH2 0x657 DUP3 PUSH2 0x1B2F JUMP JUMPDEST JUMPDEST SWAP1 POP SWAP2 SWAP1 POP JUMP JUMPDEST PUSH1 0x0 DUP1 PUSH20 0xFFFFFFFFFFFFFFFFFFFFFFFFFFFFFFFFFFFFFFFF AND PUSH1 0x4 PUSH1 0x0 SWAP1 SLOAD SWAP1 PUSH2 0x100 EXP SWAP1 DIV PUSH20 0xFFFFFFFFFFFFFFFFFFFFFFFFFFFFFFFFFFFFFFFF AND PUSH20 0xFFFFFFFFFFFFFFFFFFFFFFFFFFFFFFFFFFFFFFFF AND EQ ISZERO PUSH2 0x6C3 JUMPI PUSH1 0x0 PUSH1 0xE0 SHL SWAP1 POP PUSH2 0x773 JUMP JUMPDEST PUSH1 0x4 PUSH1 0x0 SWAP1 SLOAD SWAP1 PUSH2 0x100 EXP SWAP1 DIV PUSH20 0xFFFFFFFFFFFFFFFFFFFFFFFFFFFFFFFFFFFFFFFF AND PUSH20 0xFFFFFFFFFFFFFFFFFFFFFFFFFFFFFFFFFFFFFFFF AND PUSH4 0x1626BA7E DUP5 DUP5 PUSH1 0x40 MLOAD DUP4 PUSH4 0xFFFFFFFF AND PUSH1 0xE0 SHL DUP2 MSTORE PUSH1 0x4 ADD PUSH2 0x720 SWAP3 SWAP2 SWAP1 PUSH2 0x35FA JUMP JUMPDEST PUSH1 0x20 PUSH1 0x40 MLOAD DUP1 DUP4 SUB DUP2 DUP7 DUP1 EXTCODESIZE ISZERO DUP1 ISZERO PUSH2 0x738 JUMPI PUSH1 0x0 DUP1 REVERT JUMPDEST POP GAS STATICCALL ISZERO DUP1 ISZERO PUSH2 0x74C JUMPI RETURNDATASIZE PUSH1 0x0 DUP1 RETURNDATACOPY RETURNDATASIZE PUSH1 0x0 REVERT JUMPDEST POP POP POP POP PUSH1 0x40 MLOAD RETURNDATASIZE PUSH1 0x1F NOT PUSH1 0x1F DUP3 ADD AND DUP3 ADD DUP1 PUSH1 0x40 MSTORE POP DUP2 ADD SWAP1 PUSH2 0x770 SWAP2 SWAP1 PUSH2 0x2D69 JUMP JUMPDEST SWAP1 POP JUMPDEST SWAP3 SWAP2 POP POP JUMP JUMPDEST PUSH4 0x1C47671B PUSH1 0xE0 SHL PUSH4 0xBDF9A726 PUSH1 0xE0 SHL PUSH4 0x58849734 PUSH1 0xE0 SHL PUSH4 0xA157A10D PUSH1 0xE0 SHL XOR XOR XOR PUSH2 0x7EC DUP2 CALLER PUSH1 0x0 CALLDATASIZE DUP1 DUP1 PUSH1 0x1F ADD PUSH1 0x20 DUP1 SWAP2 DIV MUL PUSH1 0x20 ADD PUSH1 0x40 MLOAD SWAP1 DUP2 ADD PUSH1 0x40 MSTORE DUP1 SWAP4 SWAP3 SWAP2 SWAP1 DUP2 DUP2 MSTORE PUSH1 0x20 ADD DUP4 DUP4 DUP1 DUP3 DUP5 CALLDATACOPY PUSH1 0x0 DUP2 DUP5 ADD MSTORE PUSH1 0x1F NOT PUSH1 0x1F DUP3 ADD AND SWAP1 POP DUP1 DUP4 ADD SWAP3 POP POP POP POP POP POP POP PUSH2 0x1B80 JUMP JUMPDEST PUSH2 0x82B JUMPI PUSH1 0x40 MLOAD PUSH32 0x8C379A000000000000000000000000000000000000000000000000000000000 DUP2 MSTORE PUSH1 0x4 ADD PUSH2 0x822 SWAP1 PUSH2 0x370B JUMP JUMPDEST PUSH1 0x40 MLOAD DUP1 SWAP2 SUB SWAP1 REVERT JUMPDEST PUSH1 0x0 DUP1 SWAP1 POP JUMPDEST DUP4 DUP4 SWAP1 POP DUP2 LT ISZERO PUSH2 0x91C JUMPI PUSH2 0x844 PUSH2 0x274D JUMP JUMPDEST DUP5 DUP5 DUP4 DUP2 DUP2 LT PUSH2 0x850 JUMPI INVALID JUMPDEST SWAP1 POP PUSH1 0x60 MUL ADD DUP1 CALLDATASIZE SUB DUP2 ADD SWAP1 PUSH2 0x866 SWAP2 SWAP1 PUSH2 0x2ED6 JUMP JUMPDEST SWAP1 POP PUSH1 0x0 PUSH1 0x2 DUP2 GT ISZERO PUSH2 0x875 JUMPI INVALID JUMPDEST DUP2 PUSH1 0x0 ADD MLOAD PUSH1 0x2 DUP2 GT ISZERO PUSH2 0x885 JUMPI INVALID JUMPDEST EQ ISZERO PUSH2 0x8A2 JUMPI PUSH2 0x89D DUP2 PUSH1 0x20 ADD MLOAD DUP3 PUSH1 0x40 ADD MLOAD PUSH2 0x1BC8 JUMP JUMPDEST PUSH2 0x90E JUMP JUMPDEST PUSH1 0x1 PUSH1 0x2 DUP2 GT ISZERO PUSH2 0x8AF JUMPI INVALID JUMPDEST DUP2 PUSH1 0x0 ADD MLOAD PUSH1 0x2 DUP2 GT ISZERO PUSH2 0x8BF JUMPI INVALID JUMPDEST EQ ISZERO PUSH2 0x8DC JUMPI PUSH2 0x8D7 DUP2 PUSH1 0x20 ADD MLOAD DUP3 PUSH1 0x40 ADD MLOAD PUSH2 0x1BD8 JUMP JUMPDEST PUSH2 0x90D JUMP JUMPDEST PUSH1 0x2 DUP1 DUP2 GT ISZERO PUSH2 0x8E8 JUMPI INVALID JUMPDEST DUP2 PUSH1 0x0 ADD MLOAD PUSH1 0x2 DUP2 GT ISZERO PUSH2 0x8F8 JUMPI INVALID JUMPDEST EQ ISZERO PUSH2 0x90C JUMPI PUSH2 0x90B DUP2 PUSH1 0x20 ADD MLOAD PUSH2 0x1D6D JUMP JUMPDEST JUMPDEST JUMPDEST JUMPDEST POP DUP1 DUP1 PUSH1 0x1 ADD SWAP2 POP POP PUSH2 0x831 JUMP JUMPDEST POP POP POP POP JUMP JUMPDEST PUSH4 0x26ABEB64 PUSH1 0xE0 SHL PUSH2 0x97A DUP2 CALLER PUSH1 0x0 CALLDATASIZE DUP1 DUP1 PUSH1 0x1F ADD PUSH1 0x20 DUP1 SWAP2 DIV MUL PUSH1 0x20 ADD PUSH1 0x40 MLOAD SWAP1 DUP2 ADD PUSH1 0x40 MSTORE DUP1 SWAP4 SWAP3 SWAP2 SWAP1 DUP2 DUP2 MSTORE PUSH1 0x20 ADD DUP4 DUP4 DUP1 DUP3 DUP5 CALLDATACOPY PUSH1 0x0 DUP2 DUP5 ADD MSTORE PUSH1 0x1F NOT PUSH1 0x1F DUP3 ADD AND SWAP1 POP DUP1 DUP4 ADD SWAP3 POP POP POP POP POP POP POP PUSH2 0x1B80 JUMP JUMPDEST PUSH2 0x9B9 JUMPI PUSH1 0x40 MLOAD PUSH32 0x8C379A000000000000000000000000000000000000000000000000000000000 DUP2 MSTORE PUSH1 0x4 ADD PUSH2 0x9B0 SWAP1 PUSH2 0x370B JUMP JUMPDEST PUSH1 0x40 MLOAD DUP1 SWAP2 SUB SWAP1 REVERT JUMPDEST PUSH1 0x0 PUSH20 0xFFFFFFFFFFFFFFFFFFFFFFFFFFFFFFFFFFFFFFFF AND DUP7 PUSH20 0xFFFFFFFFFFFFFFFFFFFFFFFFFFFFFFFFFFFFFFFF AND EQ ISZERO PUSH2 0xAD9 JUMPI PUSH1 0x0 DUP5 PUSH20 0xFFFFFFFFFFFFFFFFFFFFFFFFFFFFFFFFFFFFFFFF AND DUP5 PUSH1 0x40 MLOAD PUSH2 0xA14 SWAP1 PUSH2 0x3450 JUMP JUMPDEST PUSH1 0x0 PUSH1 0x40 MLOAD DUP1 DUP4 SUB DUP2 DUP6 DUP8 GAS CALL SWAP3 POP POP POP RETURNDATASIZE DUP1 PUSH1 0x0 DUP2 EQ PUSH2 0xA51 JUMPI PUSH1 0x40 MLOAD SWAP2 POP PUSH1 0x1F NOT PUSH1 0x3F RETURNDATASIZE ADD AND DUP3 ADD PUSH1 0x40 MSTORE RETURNDATASIZE DUP3 MSTORE RETURNDATASIZE PUSH1 0x0 PUSH1 0x20 DUP5 ADD RETURNDATACOPY PUSH2 0xA56 JUMP JUMPDEST PUSH1 0x60 SWAP2 POP JUMPDEST POP POP SWAP1 POP DUP1 PUSH1 0x40 MLOAD DUP1 PUSH1 0x40 ADD PUSH1 0x40 MSTORE DUP1 PUSH1 0x1A DUP2 MSTORE PUSH1 0x20 ADD PUSH32 0x474F5645524E5F4554485F57495448445241575F4641494C4544000000000000 DUP2 MSTORE POP SWAP1 PUSH2 0xAD2 JUMPI PUSH1 0x40 MLOAD PUSH32 0x8C379A000000000000000000000000000000000000000000000000000000000 DUP2 MSTORE PUSH1 0x4 ADD PUSH2 0xAC9 SWAP2 SWAP1 PUSH2 0x36E9 JUMP JUMPDEST PUSH1 0x40 MLOAD DUP1 SWAP2 SUB SWAP1 REVERT JUMPDEST POP POP PUSH2 0xB7D JUMP JUMPDEST PUSH2 0xB04 DUP5 DUP5 DUP9 PUSH20 0xFFFFFFFFFFFFFFFFFFFFFFFFFFFFFFFFFFFFFFFF AND PUSH2 0x1EEB SWAP1 SWAP3 SWAP2 SWAP1 PUSH4 0xFFFFFFFF AND JUMP JUMPDEST PUSH1 0x40 MLOAD DUP1 PUSH1 0x40 ADD PUSH1 0x40 MSTORE DUP1 PUSH1 0x1C DUP2 MSTORE PUSH1 0x20 ADD PUSH32 0x474F5645524E5F544F4B454E5F57495448445241575F4641494C454400000000 DUP2 MSTORE POP SWAP1 PUSH2 0xB7B JUMPI PUSH1 0x40 MLOAD PUSH32 0x8C379A000000000000000000000000000000000000000000000000000000000 DUP2 MSTORE PUSH1 0x4 ADD PUSH2 0xB72 SWAP2 SWAP1 PUSH2 0x36E9 JUMP JUMPDEST PUSH1 0x40 MLOAD DUP1 SWAP2 SUB SWAP1 REVERT JUMPDEST POP JUMPDEST DUP4 PUSH20 0xFFFFFFFFFFFFFFFFFFFFFFFFFFFFFFFFFFFFFFFF AND DUP7 PUSH20 0xFFFFFFFFFFFFFFFFFFFFFFFFFFFFFFFFFFFFFFFF AND PUSH32 0x5DF3E860D31CD75F1DD308DCEF12D36AF55F06605B3D6B2C6D23D19CADAF3611 DUP8 DUP7 DUP7 PUSH1 0x40 MLOAD PUSH2 0xBDE SWAP4 SWAP3 SWAP2 SWAP1 PUSH2 0x351E JUMP JUMPDEST PUSH1 0x40 MLOAD DUP1 SWAP2 SUB SWAP1 LOG3 POP POP POP POP POP POP JUMP JUMPDEST PUSH4 0x3E2AB0D9 PUSH1 0xE0 SHL PUSH2 0xC46 DUP2 CALLER PUSH1 0x0 CALLDATASIZE DUP1 DUP1 PUSH1 0x1F ADD PUSH1 0x20 DUP1 SWAP2 DIV MUL PUSH1 0x20 ADD PUSH1 0x40 MLOAD SWAP1 DUP2 ADD PUSH1 0x40 MSTORE DUP1 SWAP4 SWAP3 SWAP2 SWAP1 DUP2 DUP2 MSTORE PUSH1 0x20 ADD DUP4 DUP4 DUP1 DUP3 DUP5 CALLDATACOPY PUSH1 0x0 DUP2 DUP5 ADD MSTORE PUSH1 0x1F NOT PUSH1 0x1F DUP3 ADD AND SWAP1 POP DUP1 DUP4 ADD SWAP3 POP POP POP POP POP POP POP PUSH2 0x1B80 JUMP JUMPDEST PUSH2 0xC85 JUMPI PUSH1 0x40 MLOAD PUSH32 0x8C379A000000000000000000000000000000000000000000000000000000000 DUP2 MSTORE PUSH1 0x4 ADD PUSH2 0xC7C SWAP1 PUSH2 0x370B JUMP JUMPDEST PUSH1 0x40 MLOAD DUP1 SWAP2 SUB SWAP1 REVERT JUMPDEST DUP2 PUSH1 0x4 PUSH1 0x0 PUSH2 0x100 EXP DUP2 SLOAD DUP2 PUSH20 0xFFFFFFFFFFFFFFFFFFFFFFFFFFFFFFFFFFFFFFFF MUL NOT AND SWAP1 DUP4 PUSH20 0xFFFFFFFFFFFFFFFFFFFFFFFFFFFFFFFFFFFFFFFF AND MUL OR SWAP1 SSTORE POP POP POP JUMP JUMPDEST PUSH1 0x0 PUSH1 0x1 PUSH20 0xFFFFFFFFFFFFFFFFFFFFFFFFFFFFFFFFFFFFFFFF AND PUSH1 0x3 PUSH1 0x0 DUP5 PUSH28 0xFFFFFFFFFFFFFFFFFFFFFFFFFFFFFFFFFFFFFFFFFFFFFFFFFFFFFFFF NOT AND PUSH28 0xFFFFFFFFFFFFFFFFFFFFFFFFFFFFFFFFFFFFFFFFFFFFFFFFFFFFFFFF NOT AND DUP2 MSTORE PUSH1 0x20 ADD SWAP1 DUP2 MSTORE PUSH1 0x20 ADD PUSH1 0x0 KECCAK256 PUSH1 0x0 PUSH1 0x1 PUSH20 0xFFFFFFFFFFFFFFFFFFFFFFFFFFFFFFFFFFFFFFFF AND PUSH20 0xFFFFFFFFFFFFFFFFFFFFFFFFFFFFFFFFFFFFFFFF AND DUP2 MSTORE PUSH1 0x20 ADD SWAP1 DUP2 MSTORE PUSH1 0x20 ADD PUSH1 0x0 KECCAK256 PUSH1 0x0 SWAP1 SLOAD SWAP1 PUSH2 0x100 EXP SWAP1 DIV PUSH20 0xFFFFFFFFFFFFFFFFFFFFFFFFFFFFFFFFFFFFFFFF AND PUSH20 0xFFFFFFFFFFFFFFFFFFFFFFFFFFFFFFFFFFFFFFFF AND EQ SWAP1 POP SWAP2 SWAP1 POP JUMP JUMPDEST PUSH4 0x1C47671B PUSH1 0xE0 SHL PUSH4 0xBDF9A726 PUSH1 0xE0 SHL PUSH4 0x58849734 PUSH1 0xE0 SHL PUSH4 0xA157A10D PUSH1 0xE0 SHL XOR XOR XOR PUSH2 0xE25 DUP2 CALLER PUSH1 0x0 CALLDATASIZE DUP1 DUP1 PUSH1 0x1F ADD PUSH1 0x20 DUP1 SWAP2 DIV MUL PUSH1 0x20 ADD PUSH1 0x40 MLOAD SWAP1 DUP2 ADD PUSH1 0x40 MSTORE DUP1 SWAP4 SWAP3 SWAP2 SWAP1 DUP2 DUP2 MSTORE PUSH1 0x20 ADD DUP4 DUP4 DUP1 DUP3 DUP5 CALLDATACOPY PUSH1 0x0 DUP2 DUP5 ADD MSTORE PUSH1 0x1F NOT PUSH1 0x1F DUP3 ADD AND SWAP1 POP DUP1 DUP4 ADD SWAP3 POP POP POP POP POP POP POP PUSH2 0x1B80 JUMP JUMPDEST PUSH2 0xE64 JUMPI PUSH1 0x40 MLOAD PUSH32 0x8C379A000000000000000000000000000000000000000000000000000000000 DUP2 MSTORE PUSH1 0x4 ADD PUSH2 0xE5B SWAP1 PUSH2 0x370B JUMP JUMPDEST PUSH1 0x40 MLOAD DUP1 SWAP2 SUB SWAP1 REVERT JUMPDEST PUSH2 0xE6E DUP4 DUP4 PUSH2 0x1BD8 JUMP JUMPDEST POP POP POP JUMP JUMPDEST PUSH4 0x1C47671B PUSH1 0xE0 SHL PUSH4 0xBDF9A726 PUSH1 0xE0 SHL PUSH4 0x58849734 PUSH1 0xE0 SHL PUSH4 0xA157A10D PUSH1 0xE0 SHL XOR XOR XOR DUP2 JUMP JUMPDEST PUSH1 0x3 PUSH1 0x20 MSTORE DUP2 PUSH1 0x0 MSTORE PUSH1 0x40 PUSH1 0x0 KECCAK256 PUSH1 0x20 MSTORE DUP1 PUSH1 0x0 MSTORE PUSH1 0x40 PUSH1 0x0 KECCAK256 PUSH1 0x0 SWAP2 POP SWAP2 POP SWAP1 SLOAD SWAP1 PUSH2 0x100 EXP SWAP1 DIV PUSH20 0xFFFFFFFFFFFFFFFFFFFFFFFFFFFFFFFFFFFFFFFF AND DUP2 JUMP JUMPDEST PUSH4 0x1C47671B PUSH1 0xE0 SHL PUSH4 0xBDF9A726 PUSH1 0xE0 SHL PUSH4 0x58849734 PUSH1 0xE0 SHL PUSH4 0xA157A10D PUSH1 0xE0 SHL XOR XOR XOR PUSH2 0xF4E DUP2 CALLER PUSH1 0x0 CALLDATASIZE DUP1 DUP1 PUSH1 0x1F ADD PUSH1 0x20 DUP1 SWAP2 DIV MUL PUSH1 0x20 ADD PUSH1 0x40 MLOAD SWAP1 DUP2 ADD PUSH1 0x40 MSTORE DUP1 SWAP4 SWAP3 SWAP2 SWAP1 DUP2 DUP2 MSTORE PUSH1 0x20 ADD DUP4 DUP4 DUP1 DUP3 DUP5 CALLDATACOPY PUSH1 0x0 DUP2 DUP5 ADD MSTORE PUSH1 0x1F NOT PUSH1 0x1F DUP3 ADD AND SWAP1 POP DUP1 DUP4 ADD SWAP3 POP POP POP POP POP POP POP PUSH2 0x1B80 JUMP JUMPDEST PUSH2 0xF8D JUMPI PUSH1 0x40 MLOAD PUSH32 0x8C379A000000000000000000000000000000000000000000000000000000000 DUP2 MSTORE PUSH1 0x4 ADD PUSH2 0xF84 SWAP1 PUSH2 0x370B JUMP JUMPDEST PUSH1 0x40 MLOAD DUP1 SWAP2 SUB SWAP1 REVERT JUMPDEST PUSH2 0xF97 DUP4 DUP4 PUSH2 0x1BC8 JUMP JUMPDEST POP POP POP JUMP JUMPDEST PUSH4 0x1C47671B PUSH1 0xE0 SHL PUSH4 0xBDF9A726 PUSH1 0xE0 SHL PUSH4 0x58849734 PUSH1 0xE0 SHL PUSH4 0xA157A10D PUSH1 0xE0 SHL XOR XOR XOR PUSH2 0x100F DUP2 CALLER PUSH1 0x0 CALLDATASIZE DUP1 DUP1 PUSH1 0x1F ADD PUSH1 0x20 DUP1 SWAP2 DIV MUL PUSH1 0x20 ADD PUSH1 0x40 MLOAD SWAP1 DUP2 ADD PUSH1 0x40 MSTORE DUP1 SWAP4 SWAP3 SWAP2 SWAP1 DUP2 DUP2 MSTORE PUSH1 0x20 ADD DUP4 DUP4 DUP1 DUP3 DUP5 CALLDATACOPY PUSH1 0x0 DUP2 DUP5 ADD MSTORE PUSH1 0x1F NOT PUSH1 0x1F DUP3 ADD AND SWAP1 POP DUP1 DUP4 ADD SWAP3 POP POP POP POP POP POP POP PUSH2 0x1B80 JUMP JUMPDEST PUSH2 0x104E JUMPI PUSH1 0x40 MLOAD PUSH32 0x8C379A000000000000000000000000000000000000000000000000000000000 DUP2 MSTORE PUSH1 0x4 ADD PUSH2 0x1045 SWAP1 PUSH2 0x370B JUMP JUMPDEST PUSH1 0x40 MLOAD DUP1 SWAP2 SUB SWAP1 REVERT JUMPDEST PUSH2 0x1059 DUP5 DUP5 DUP5 PUSH2 0x1F7D JUMP JUMPDEST POP POP POP POP JUMP JUMPDEST PUSH4 0xA43E2533 PUSH1 0xE0 SHL PUSH2 0x10B7 DUP2 CALLER PUSH1 0x0 CALLDATASIZE DUP1 DUP1 PUSH1 0x1F ADD PUSH1 0x20 DUP1 SWAP2 DIV MUL PUSH1 0x20 ADD PUSH1 0x40 MLOAD SWAP1 DUP2 ADD PUSH1 0x40 MSTORE DUP1 SWAP4 SWAP3 SWAP2 SWAP1 DUP2 DUP2 MSTORE PUSH1 0x20 ADD DUP4 DUP4 DUP1 DUP3 DUP5 CALLDATACOPY PUSH1 0x0 DUP2 DUP5 ADD MSTORE PUSH1 0x1F NOT PUSH1 0x1F DUP3 ADD AND SWAP1 POP DUP1 DUP4 ADD SWAP3 POP POP POP POP POP POP POP PUSH2 0x1B80 JUMP JUMPDEST PUSH2 0x10F6 JUMPI PUSH1 0x40 MLOAD PUSH32 0x8C379A000000000000000000000000000000000000000000000000000000000 DUP2 MSTORE PUSH1 0x4 ADD PUSH2 0x10ED SWAP1 PUSH2 0x370B JUMP JUMPDEST PUSH1 0x40 MLOAD DUP1 SWAP2 SUB SWAP1 REVERT JUMPDEST PUSH2 0x1101 DUP5 DUP5 DUP5 PUSH2 0x218D JUMP JUMPDEST POP POP POP POP JUMP JUMPDEST PUSH4 0x1C47671B PUSH1 0xE0 SHL PUSH4 0xBDF9A726 PUSH1 0xE0 SHL PUSH4 0x58849734 PUSH1 0xE0 SHL PUSH4 0xA157A10D PUSH1 0xE0 SHL XOR XOR XOR PUSH2 0x117A DUP2 CALLER PUSH1 0x0 CALLDATASIZE DUP1 DUP1 PUSH1 0x1F ADD PUSH1 0x20 DUP1 SWAP2 DIV MUL PUSH1 0x20 ADD PUSH1 0x40 MLOAD SWAP1 DUP2 ADD PUSH1 0x40 MSTORE DUP1 SWAP4 SWAP3 SWAP2 SWAP1 DUP2 DUP2 MSTORE PUSH1 0x20 ADD DUP4 DUP4 DUP1 DUP3 DUP5 CALLDATACOPY PUSH1 0x0 DUP2 DUP5 ADD MSTORE PUSH1 0x1F NOT PUSH1 0x1F DUP3 ADD AND SWAP1 POP DUP1 DUP4 ADD SWAP3 POP POP POP POP POP POP POP PUSH2 0x1B80 JUMP JUMPDEST PUSH2 0x11B9 JUMPI PUSH1 0x40 MLOAD PUSH32 0x8C379A000000000000000000000000000000000000000000000000000000000 DUP2 MSTORE PUSH1 0x4 ADD PUSH2 0x11B0 SWAP1 PUSH2 0x370B JUMP JUMPDEST PUSH1 0x40 MLOAD DUP1 SWAP2 SUB SWAP1 REVERT JUMPDEST PUSH2 0x11C2 DUP3 PUSH2 0x1D6D JUMP JUMPDEST POP POP JUMP JUMPDEST PUSH1 0x0 DUP4 GT PUSH1 0x40 MLOAD DUP1 PUSH1 0x40 ADD PUSH1 0x40 MSTORE DUP1 PUSH1 0x1A DUP2 MSTORE PUSH1 0x20 ADD PUSH32 0x474F5645524E5F4445504F5349545F414D4F554E545F5A45524F000000000000 DUP2 MSTORE POP SWAP1 PUSH2 0x1241 JUMPI PUSH1 0x40 MLOAD PUSH32 0x8C379A000000000000000000000000000000000000000000000000000000000 DUP2 MSTORE PUSH1 0x4 ADD PUSH2 0x1238 SWAP2 SWAP1 PUSH2 0x36E9 JUMP JUMPDEST PUSH1 0x40 MLOAD DUP1 SWAP2 SUB SWAP1 REVERT JUMPDEST POP PUSH1 0x0 PUSH20 0xFFFFFFFFFFFFFFFFFFFFFFFFFFFFFFFFFFFFFFFF AND DUP5 PUSH20 0xFFFFFFFFFFFFFFFFFFFFFFFFFFFFFFFFFFFFFFFF AND EQ ISZERO PUSH2 0x12DA JUMPI DUP3 CALLVALUE EQ PUSH1 0x40 MLOAD DUP1 PUSH1 0x60 ADD PUSH1 0x40 MSTORE DUP1 PUSH1 0x22 DUP2 MSTORE PUSH1 0x20 ADD PUSH2 0x3B97 PUSH1 0x22 SWAP2 CODECOPY SWAP1 PUSH2 0x12D4 JUMPI PUSH1 0x40 MLOAD PUSH32 0x8C379A000000000000000000000000000000000000000000000000000000000 DUP2 MSTORE PUSH1 0x4 ADD PUSH2 0x12CB SWAP2 SWAP1 PUSH2 0x36E9 JUMP JUMPDEST PUSH1 0x40 MLOAD DUP1 SWAP2 SUB SWAP1 REVERT JUMPDEST POP PUSH2 0x1417 JUMP JUMPDEST PUSH2 0x12F9 DUP5 PUSH20 0xFFFFFFFFFFFFFFFFFFFFFFFFFFFFFFFFFFFFFFFF AND PUSH2 0x21A5 JUMP JUMPDEST PUSH1 0x40 MLOAD DUP1 PUSH1 0x40 ADD PUSH1 0x40 MSTORE DUP1 PUSH1 0x19 DUP2 MSTORE PUSH1 0x20 ADD PUSH32 0x474F5645524E5F544F4B454E5F4E4F545F434F4E545241435400000000000000 DUP2 MSTORE POP SWAP1 PUSH2 0x1370 JUMPI PUSH1 0x40 MLOAD PUSH32 0x8C379A000000000000000000000000000000000000000000000000000000000 DUP2 MSTORE PUSH1 0x4 ADD PUSH2 0x1367 SWAP2 SWAP1 PUSH2 0x36E9 JUMP JUMPDEST PUSH1 0x40 MLOAD DUP1 SWAP2 SUB SWAP1 REVERT JUMPDEST POP PUSH2 0x139E CALLER ADDRESS DUP6 DUP8 PUSH20 0xFFFFFFFFFFFFFFFFFFFFFFFFFFFFFFFFFFFFFFFF AND PUSH2 0x21B2 SWAP1 SWAP4 SWAP3 SWAP2 SWAP1 PUSH4 0xFFFFFFFF AND JUMP JUMPDEST PUSH1 0x40 MLOAD DUP1 PUSH1 0x40 ADD PUSH1 0x40 MSTORE DUP1 PUSH1 0x1B DUP2 MSTORE PUSH1 0x20 ADD PUSH32 0x474F5645524E5F544F4B454E5F4445504F5349545F4641494C45440000000000 DUP2 MSTORE POP SWAP1 PUSH2 0x1415 JUMPI PUSH1 0x40 MLOAD PUSH32 0x8C379A000000000000000000000000000000000000000000000000000000000 DUP2 MSTORE PUSH1 0x4 ADD PUSH2 0x140C SWAP2 SWAP1 PUSH2 0x36E9 JUMP JUMPDEST PUSH1 0x40 MLOAD DUP1 SWAP2 SUB SWAP1 REVERT JUMPDEST POP JUMPDEST DUP4 PUSH20 0xFFFFFFFFFFFFFFFFFFFFFFFFFFFFFFFFFFFFFFFF AND CALLER PUSH20 0xFFFFFFFFFFFFFFFFFFFFFFFFFFFFFFFFFFFFFFFF AND PUSH32 0x2BC500CF071BE2D1C1458ED6FF484CD4DB4345ADA8943DEE7FF29E7AF3558F76 DUP6 DUP6 DUP6 PUSH1 0x40 MLOAD PUSH2 0x1478 SWAP4 SWAP3 SWAP2 SWAP1 PUSH2 0x37E6 JUMP JUMPDEST PUSH1 0x40 MLOAD DUP1 SWAP2 SUB SWAP1 LOG3 POP POP POP POP JUMP JUMPDEST PUSH1 0x0 PUSH1 0x60 PUSH4 0xC2D85AFC PUSH1 0xE0 SHL PUSH2 0x14E2 DUP2 CALLER PUSH1 0x0 CALLDATASIZE DUP1 DUP1 PUSH1 0x1F ADD PUSH1 0x20 DUP1 SWAP2 DIV MUL PUSH1 0x20 ADD PUSH1 0x40 MLOAD SWAP1 DUP2 ADD PUSH1 0x40 MSTORE DUP1 SWAP4 SWAP3 SWAP2 SWAP1 DUP2 DUP2 MSTORE PUSH1 0x20 ADD DUP4 DUP4 DUP1 DUP3 DUP5 CALLDATACOPY PUSH1 0x0 DUP2 DUP5 ADD MSTORE PUSH1 0x1F NOT PUSH1 0x1F DUP3 ADD AND SWAP1 POP DUP1 DUP4 ADD SWAP3 POP POP POP POP POP POP POP PUSH2 0x1B80 JUMP JUMPDEST PUSH2 0x1521 JUMPI PUSH1 0x40 MLOAD PUSH32 0x8C379A000000000000000000000000000000000000000000000000000000000 DUP2 MSTORE PUSH1 0x4 ADD PUSH2 0x1518 SWAP1 PUSH2 0x370B JUMP JUMPDEST PUSH1 0x40 MLOAD DUP1 SWAP2 SUB SWAP1 REVERT JUMPDEST PUSH2 0x100 DUP7 MLOAD GT ISZERO PUSH1 0x40 MLOAD DUP1 PUSH1 0x40 ADD PUSH1 0x40 MSTORE DUP1 PUSH1 0x17 DUP2 MSTORE PUSH1 0x20 ADD PUSH32 0x474F5645524E5F544F4F5F4D414E595F414354494F4E53000000000000000000 DUP2 MSTORE POP SWAP1 PUSH2 0x159F JUMPI PUSH1 0x40 MLOAD PUSH32 0x8C379A000000000000000000000000000000000000000000000000000000000 DUP2 MSTORE PUSH1 0x4 ADD PUSH2 0x1596 SWAP2 SWAP1 PUSH2 0x36E9 JUMP JUMPDEST PUSH1 0x40 MLOAD DUP1 SWAP2 SUB SWAP1 REVERT JUMPDEST POP PUSH1 0x60 DUP7 MLOAD PUSH8 0xFFFFFFFFFFFFFFFF DUP2 GT DUP1 ISZERO PUSH2 0x15BA JUMPI PUSH1 0x0 DUP1 REVERT JUMPDEST POP PUSH1 0x40 MLOAD SWAP1 DUP1 DUP3 MSTORE DUP1 PUSH1 0x20 MUL PUSH1 0x20 ADD DUP3 ADD PUSH1 0x40 MSTORE DUP1 ISZERO PUSH2 0x15EE JUMPI DUP2 PUSH1 0x20 ADD JUMPDEST PUSH1 0x60 DUP2 MSTORE PUSH1 0x20 ADD SWAP1 PUSH1 0x1 SWAP1 SUB SWAP1 DUP2 PUSH2 0x15D9 JUMPI SWAP1 POP JUMPDEST POP SWAP1 POP PUSH1 0x0 DUP1 PUSH1 0x0 SHL SWAP1 POP PUSH1 0x0 DUP1 SWAP1 POP JUMPDEST DUP9 MLOAD DUP2 LT ISZERO PUSH2 0x1799 JUMPI PUSH1 0x0 PUSH1 0x60 DUP11 DUP4 DUP2 MLOAD DUP2 LT PUSH2 0x1618 JUMPI INVALID JUMPDEST PUSH1 0x20 MUL PUSH1 0x20 ADD ADD MLOAD PUSH1 0x0 ADD MLOAD PUSH20 0xFFFFFFFFFFFFFFFFFFFFFFFFFFFFFFFFFFFFFFFF AND DUP12 DUP5 DUP2 MLOAD DUP2 LT PUSH2 0x1646 JUMPI INVALID JUMPDEST PUSH1 0x20 MUL PUSH1 0x20 ADD ADD MLOAD PUSH1 0x20 ADD MLOAD DUP13 DUP6 DUP2 MLOAD DUP2 LT PUSH2 0x165E JUMPI INVALID JUMPDEST PUSH1 0x20 MUL PUSH1 0x20 ADD ADD MLOAD PUSH1 0x40 ADD MLOAD PUSH1 0x40 MLOAD PUSH2 0x1677 SWAP2 SWAP1 PUSH2 0x3422 JUMP JUMPDEST PUSH1 0x0 PUSH1 0x40 MLOAD DUP1 DUP4 SUB DUP2 DUP6 DUP8 GAS CALL SWAP3 POP POP POP RETURNDATASIZE DUP1 PUSH1 0x0 DUP2 EQ PUSH2 0x16B4 JUMPI PUSH1 0x40 MLOAD SWAP2 POP PUSH1 0x1F NOT PUSH1 0x3F RETURNDATASIZE ADD AND DUP3 ADD PUSH1 0x40 MSTORE RETURNDATASIZE DUP3 MSTORE RETURNDATASIZE PUSH1 0x0 PUSH1 0x20 DUP5 ADD RETURNDATACOPY PUSH2 0x16B9 JUMP JUMPDEST PUSH1 0x60 SWAP2 POP JUMPDEST POP SWAP2 POP SWAP2 POP DUP2 DUP1 PUSH2 0x16D9 JUMPI POP PUSH2 0x16D8 DUP4 DUP12 PUSH2 0x2247 SWAP1 SWAP2 SWAP1 PUSH4 0xFFFFFFFF AND JUMP JUMPDEST JUMPDEST PUSH1 0x40 MLOAD DUP1 PUSH1 0x40 ADD PUSH1 0x40 MSTORE DUP1 PUSH1 0x19 DUP2 MSTORE PUSH1 0x20 ADD PUSH32 0x474F5645524E5F414354494F4E5F43414C4C5F4641494C454400000000000000 DUP2 MSTORE POP SWAP1 PUSH2 0x1750 JUMPI PUSH1 0x40 MLOAD PUSH32 0x8C379A000000000000000000000000000000000000000000000000000000000 DUP2 MSTORE PUSH1 0x4 ADD PUSH2 0x1747 SWAP2 SWAP1 PUSH2 0x36E9 JUMP JUMPDEST PUSH1 0x40 MLOAD DUP1 SWAP2 SUB SWAP1 REVERT JUMPDEST POP DUP2 PUSH2 0x176E JUMPI PUSH2 0x1769 DUP4 DUP6 PUSH2 0x2260 SWAP1 SWAP2 SWAP1 PUSH4 0xFFFFFFFF AND JUMP JUMPDEST PUSH2 0x1770 JUMP JUMPDEST DUP4 JUMPDEST SWAP4 POP DUP1 DUP6 DUP5 DUP2 MLOAD DUP2 LT PUSH2 0x177F JUMPI INVALID JUMPDEST PUSH1 0x20 MUL PUSH1 0x20 ADD ADD DUP2 SWAP1 MSTORE POP POP POP DUP1 DUP1 PUSH1 0x1 ADD SWAP2 POP POP PUSH2 0x15FF JUMP JUMPDEST POP CALLER PUSH20 0xFFFFFFFFFFFFFFFFFFFFFFFFFFFFFFFFFFFFFFFF AND PUSH32 0x589DB18161C9DC190C7FC0CC0C319EEB589C1BA890BE60089F1EE76B4BFB01EA DUP10 DUP9 DUP5 DUP7 PUSH1 0x40 MLOAD PUSH2 0x17E6 SWAP5 SWAP4 SWAP3 SWAP2 SWAP1 PUSH2 0x355C JUMP JUMPDEST PUSH1 0x40 MLOAD DUP1 SWAP2 SUB SWAP1 LOG2 DUP1 DUP3 SWAP5 POP SWAP5 POP POP POP POP SWAP4 POP SWAP4 SWAP2 POP POP JUMP JUMPDEST ADDRESS PUSH1 0x0 PUSH1 0x2 PUSH1 0x40 MLOAD PUSH2 0x1810 SWAP1 PUSH2 0x3465 JUMP JUMPDEST SWAP1 DUP2 MSTORE PUSH1 0x20 ADD PUSH1 0x40 MLOAD DUP1 SWAP2 SUB SWAP1 KECCAK256 SLOAD EQ ISZERO PUSH2 0x1833 JUMPI PUSH2 0x182E DUP2 PUSH2 0x227A JUMP JUMPDEST PUSH2 0x1973 JUMP JUMPDEST PUSH1 0x2 PUSH20 0xFFFFFFFFFFFFFFFFFFFFFFFFFFFFFFFFFFFFFFFF AND PUSH1 0x3 PUSH1 0x0 PUSH4 0x1C47671B PUSH1 0xE0 SHL PUSH4 0xBDF9A726 PUSH1 0xE0 SHL PUSH4 0x58849734 PUSH1 0xE0 SHL PUSH4 0xA157A10D PUSH1 0xE0 SHL XOR XOR XOR PUSH28 0xFFFFFFFFFFFFFFFFFFFFFFFFFFFFFFFFFFFFFFFFFFFFFFFFFFFFFFFF NOT AND PUSH28 0xFFFFFFFFFFFFFFFFFFFFFFFFFFFFFFFFFFFFFFFFFFFFFFFFFFFFFFFF NOT AND DUP2 MSTORE PUSH1 0x20 ADD SWAP1 DUP2 MSTORE PUSH1 0x20 ADD PUSH1 0x0 KECCAK256 PUSH1 0x0 DUP4 PUSH20 0xFFFFFFFFFFFFFFFFFFFFFFFFFFFFFFFFFFFFFFFF AND PUSH20 0xFFFFFFFFFFFFFFFFFFFFFFFFFFFFFFFFFFFFFFFF AND DUP2 MSTORE PUSH1 0x20 ADD SWAP1 DUP2 MSTORE PUSH1 0x20 ADD PUSH1 0x0 KECCAK256 PUSH1 0x0 SWAP1 SLOAD SWAP1 PUSH2 0x100 EXP SWAP1 DIV PUSH20 0xFFFFFFFFFFFFFFFFFFFFFFFFFFFFFFFFFFFFFFFF AND PUSH20 0xFFFFFFFFFFFFFFFFFFFFFFFFFFFFFFFFFFFFFFFF AND EQ PUSH2 0x1972 JUMPI PUSH1 0x40 MLOAD PUSH32 0x8C379A000000000000000000000000000000000000000000000000000000000 DUP2 MSTORE PUSH1 0x4 ADD PUSH2 0x1969 SWAP1 PUSH2 0x378B JUMP JUMPDEST PUSH1 0x40 MLOAD DUP1 SWAP2 SUB SWAP1 REVERT JUMPDEST JUMPDEST PUSH1 0x40 MLOAD DUP1 PUSH1 0x40 ADD PUSH1 0x40 MSTORE DUP1 PUSH1 0x6 DUP2 MSTORE PUSH1 0x20 ADD PUSH32 0x676F7665726E0000000000000000000000000000000000000000000000000000 DUP2 MSTORE POP PUSH1 0x0 PUSH1 0x2 DUP3 PUSH1 0x40 MLOAD PUSH2 0x19BB SWAP2 SWAP1 PUSH2 0x3439 JUMP JUMPDEST SWAP1 DUP2 MSTORE PUSH1 0x20 ADD PUSH1 0x40 MLOAD DUP1 SWAP2 SUB SWAP1 KECCAK256 SLOAD EQ PUSH2 0x1A0A JUMPI PUSH1 0x40 MLOAD PUSH32 0x8C379A000000000000000000000000000000000000000000000000000000000 DUP2 MSTORE PUSH1 0x4 ADD PUSH2 0x1A01 SWAP1 PUSH2 0x376B JUMP JUMPDEST PUSH1 0x40 MLOAD DUP1 SWAP2 SUB SWAP1 REVERT JUMPDEST NUMBER PUSH1 0x2 DUP3 PUSH1 0x40 MLOAD PUSH2 0x1A1B SWAP2 SWAP1 PUSH2 0x3439 JUMP JUMPDEST SWAP1 DUP2 MSTORE PUSH1 0x20 ADD PUSH1 0x40 MLOAD DUP1 SWAP2 SUB SWAP1 KECCAK256 DUP2 SWAP1 SSTORE POP PUSH2 0x1A3E PUSH4 0xC2D85AFC PUSH1 0xE0 SHL DUP5 PUSH2 0x1BC8 JUMP JUMPDEST PUSH2 0x1A4F PUSH4 0x26ABEB64 PUSH1 0xE0 SHL ADDRESS PUSH2 0x1BC8 JUMP JUMPDEST PUSH2 0x1A5F PUSH4 0x26ABEB64 PUSH1 0xE0 SHL PUSH2 0x1D6D JUMP JUMPDEST PUSH2 0x1A70 PUSH4 0xA43E2533 PUSH1 0xE0 SHL ADDRESS PUSH2 0x1BC8 JUMP JUMPDEST PUSH2 0x1A81 PUSH4 0x3E2AB0D9 PUSH1 0xE0 SHL ADDRESS PUSH2 0x1BC8 JUMP JUMPDEST PUSH2 0x1A91 PUSH4 0xC2D85AFC PUSH1 0xE0 SHL PUSH2 0x23A6 JUMP JUMPDEST PUSH2 0x1ABA PUSH32 0x1626BA7E00000000000000000000000000000000000000000000000000000000 PUSH2 0x23A6 JUMP JUMPDEST DUP1 PUSH1 0x40 MLOAD PUSH2 0x1AC8 SWAP2 SWAP1 PUSH2 0x3439 JUMP JUMPDEST PUSH1 0x40 MLOAD DUP1 SWAP2 SUB SWAP1 KECCAK256 PUSH32 0x7BC2A48A4A566E237A12186F19D985B0F76AFC9D5290601EDAC19876253670C2 PUSH1 0x40 MLOAD PUSH1 0x40 MLOAD DUP1 SWAP2 SUB SWAP1 LOG2 POP POP POP JUMP JUMPDEST PUSH1 0x2 DUP2 DUP1 MLOAD PUSH1 0x20 DUP2 ADD DUP3 ADD DUP1 MLOAD DUP5 DUP3 MSTORE PUSH1 0x20 DUP4 ADD PUSH1 0x20 DUP6 ADD KECCAK256 DUP2 DUP4 MSTORE DUP1 SWAP6 POP POP POP POP POP POP PUSH1 0x0 SWAP2 POP SWAP1 POP SLOAD DUP2 JUMP JUMPDEST PUSH1 0x0 PUSH4 0x1FFC9A7 PUSH1 0xE0 SHL PUSH28 0xFFFFFFFFFFFFFFFFFFFFFFFFFFFFFFFFFFFFFFFFFFFFFFFFFFFFFFFF NOT AND DUP3 PUSH28 0xFFFFFFFFFFFFFFFFFFFFFFFFFFFFFFFFFFFFFFFFFFFFFFFFFFFFFFFF NOT AND EQ SWAP1 POP SWAP2 SWAP1 POP JUMP JUMPDEST PUSH1 0x0 PUSH2 0x1B8D DUP5 DUP5 DUP5 PUSH2 0x2449 JUMP JUMPDEST DUP1 PUSH2 0x1BBF JUMPI POP PUSH2 0x1BBE DUP5 PUSH32 0xFFFFFFFFFFFFFFFFFFFFFFFFFFFFFFFFFFFFFFFFFFFFFFFFFFFFFFFFFFFFFFFF DUP5 PUSH2 0x2449 JUMP JUMPDEST JUMPDEST SWAP1 POP SWAP4 SWAP3 POP POP POP JUMP JUMPDEST PUSH2 0x1BD4 DUP3 DUP3 PUSH1 0x2 PUSH2 0x1F7D JUMP JUMPDEST POP POP JUMP JUMPDEST PUSH2 0x1BE1 DUP3 PUSH2 0xCCA JUMP JUMPDEST ISZERO PUSH2 0x1C21 JUMPI PUSH1 0x40 MLOAD PUSH32 0x8C379A000000000000000000000000000000000000000000000000000000000 DUP2 MSTORE PUSH1 0x4 ADD PUSH2 0x1C18 SWAP1 PUSH2 0x372B JUMP JUMPDEST PUSH1 0x40 MLOAD DUP1 SWAP2 SUB SWAP1 REVERT JUMPDEST PUSH1 0x0 PUSH1 0x3 PUSH1 0x0 DUP5 PUSH28 0xFFFFFFFFFFFFFFFFFFFFFFFFFFFFFFFFFFFFFFFFFFFFFFFFFFFFFFFF NOT AND PUSH28 0xFFFFFFFFFFFFFFFFFFFFFFFFFFFFFFFFFFFFFFFFFFFFFFFFFFFFFFFF NOT AND DUP2 MSTORE PUSH1 0x20 ADD SWAP1 DUP2 MSTORE PUSH1 0x20 ADD PUSH1 0x0 KECCAK256 PUSH1 0x0 DUP4 PUSH20 0xFFFFFFFFFFFFFFFFFFFFFFFFFFFFFFFFFFFFFFFF AND PUSH20 0xFFFFFFFFFFFFFFFFFFFFFFFFFFFFFFFFFFFFFFFF AND DUP2 MSTORE PUSH1 0x20 ADD SWAP1 DUP2 MSTORE PUSH1 0x20 ADD PUSH1 0x0 KECCAK256 PUSH1 0x0 PUSH2 0x100 EXP DUP2 SLOAD DUP2 PUSH20 0xFFFFFFFFFFFFFFFFFFFFFFFFFFFFFFFFFFFFFFFF MUL NOT AND SWAP1 DUP4 PUSH20 0xFFFFFFFFFFFFFFFFFFFFFFFFFFFFFFFFFFFFFFFF AND MUL OR SWAP1 SSTORE POP DUP1 PUSH20 0xFFFFFFFFFFFFFFFFFFFFFFFFFFFFFFFFFFFFFFFF AND CALLER PUSH20 0xFFFFFFFFFFFFFFFFFFFFFFFFFFFFFFFFFFFFFFFF AND DUP4 PUSH28 0xFFFFFFFFFFFFFFFFFFFFFFFFFFFFFFFFFFFFFFFFFFFFFFFFFFFFFFFF NOT AND PUSH32 0x682F2C466C1E9F6883EB72CBCED01373E1CB18B05AE5C8BC04DC73D73E29F8CD PUSH1 0x40 MLOAD PUSH1 0x40 MLOAD DUP1 SWAP2 SUB SWAP1 LOG4 POP POP JUMP JUMPDEST PUSH2 0x1D76 DUP2 PUSH2 0xCCA JUMP JUMPDEST ISZERO PUSH2 0x1DB6 JUMPI PUSH1 0x40 MLOAD PUSH32 0x8C379A000000000000000000000000000000000000000000000000000000000 DUP2 MSTORE PUSH1 0x4 ADD PUSH2 0x1DAD SWAP1 PUSH2 0x372B JUMP JUMPDEST PUSH1 0x40 MLOAD DUP1 SWAP2 SUB SWAP1 REVERT JUMPDEST PUSH1 0x1 PUSH1 0x3 PUSH1 0x0 DUP4 PUSH28 0xFFFFFFFFFFFFFFFFFFFFFFFFFFFFFFFFFFFFFFFFFFFFFFFFFFFFFFFF NOT AND PUSH28 0xFFFFFFFFFFFFFFFFFFFFFFFFFFFFFFFFFFFFFFFFFFFFFFFFFFFFFFFF NOT AND DUP2 MSTORE PUSH1 0x20 ADD SWAP1 DUP2 MSTORE PUSH1 0x20 ADD PUSH1 0x0 KECCAK256 PUSH1 0x0 PUSH1 0x1 PUSH20 0xFFFFFFFFFFFFFFFFFFFFFFFFFFFFFFFFFFFFFFFF AND PUSH20 0xFFFFFFFFFFFFFFFFFFFFFFFFFFFFFFFFFFFFFFFF AND DUP2 MSTORE PUSH1 0x20 ADD SWAP1 DUP2 MSTORE PUSH1 0x20 ADD PUSH1 0x0 KECCAK256 PUSH1 0x0 PUSH2 0x100 EXP DUP2 SLOAD DUP2 PUSH20 0xFFFFFFFFFFFFFFFFFFFFFFFFFFFFFFFFFFFFFFFF MUL NOT AND SWAP1 DUP4 PUSH20 0xFFFFFFFFFFFFFFFFFFFFFFFFFFFFFFFFFFFFFFFF AND MUL OR SWAP1 SSTORE POP CALLER PUSH20 0xFFFFFFFFFFFFFFFFFFFFFFFFFFFFFFFFFFFFFFFF AND DUP2 PUSH28 0xFFFFFFFFFFFFFFFFFFFFFFFFFFFFFFFFFFFFFFFFFFFFFFFFFFFFFFFF NOT AND PUSH32 0x49C6B8B07A879425742523FA80F8FFB25E39AD518C93A5896A0DF19518397E5 PUSH1 0x40 MLOAD PUSH1 0x40 MLOAD DUP1 SWAP2 SUB SWAP1 LOG3 POP JUMP JUMPDEST PUSH1 0x0 PUSH1 0x60 PUSH4 0xA9059CBB PUSH1 0xE0 SHL DUP5 DUP5 PUSH1 0x40 MLOAD PUSH1 0x24 ADD PUSH2 0x1F0A SWAP3 SWAP2 SWAP1 PUSH2 0x34F5 JUMP JUMPDEST PUSH1 0x40 MLOAD PUSH1 0x20 DUP2 DUP4 SUB SUB DUP2 MSTORE SWAP1 PUSH1 0x40 MSTORE SWAP1 PUSH28 0xFFFFFFFFFFFFFFFFFFFFFFFFFFFFFFFFFFFFFFFFFFFFFFFFFFFFFFFF NOT AND PUSH1 0x20 DUP3 ADD DUP1 MLOAD PUSH28 0xFFFFFFFFFFFFFFFFFFFFFFFFFFFFFFFFFFFFFFFFFFFFFFFFFFFFFFFF DUP4 DUP2 DUP4 AND OR DUP4 MSTORE POP POP POP POP SWAP1 POP PUSH2 0x1F73 DUP6 DUP3 PUSH2 0x2622 JUMP JUMPDEST SWAP2 POP POP SWAP4 SWAP3 POP POP POP JUMP JUMPDEST PUSH2 0x1F86 DUP4 PUSH2 0xCCA JUMP JUMPDEST ISZERO PUSH2 0x1FC6 JUMPI PUSH1 0x40 MLOAD PUSH32 0x8C379A000000000000000000000000000000000000000000000000000000000 DUP2 MSTORE PUSH1 0x4 ADD PUSH2 0x1FBD SWAP1 PUSH2 0x372B JUMP JUMPDEST PUSH1 0x40 MLOAD DUP1 SWAP2 SUB SWAP1 REVERT JUMPDEST PUSH1 0x1 PUSH20 0xFFFFFFFFFFFFFFFFFFFFFFFFFFFFFFFFFFFFFFFF AND DUP3 PUSH20 0xFFFFFFFFFFFFFFFFFFFFFFFFFFFFFFFFFFFFFFFF AND EQ ISZERO PUSH2 0x2036 JUMPI PUSH1 0x40 MLOAD PUSH32 0x8C379A000000000000000000000000000000000000000000000000000000000 DUP2 MSTORE PUSH1 0x4 ADD PUSH2 0x202D SWAP1 PUSH2 0x37AB JUMP JUMPDEST PUSH1 0x40 MLOAD DUP1 SWAP2 SUB SWAP1 REVERT JUMPDEST DUP1 PUSH1 0x3 PUSH1 0x0 DUP6 PUSH28 0xFFFFFFFFFFFFFFFFFFFFFFFFFFFFFFFFFFFFFFFFFFFFFFFFFFFFFFFF NOT AND PUSH28 0xFFFFFFFFFFFFFFFFFFFFFFFFFFFFFFFFFFFFFFFFFFFFFFFFFFFFFFFF NOT AND DUP2 MSTORE PUSH1 0x20 ADD SWAP1 DUP2 MSTORE PUSH1 0x20 ADD PUSH1 0x0 KECCAK256 PUSH1 0x0 DUP5 PUSH20 0xFFFFFFFFFFFFFFFFFFFFFFFFFFFFFFFFFFFFFFFF AND PUSH20 0xFFFFFFFFFFFFFFFFFFFFFFFFFFFFFFFFFFFFFFFF AND DUP2 MSTORE PUSH1 0x20 ADD SWAP1 DUP2 MSTORE PUSH1 0x20 ADD PUSH1 0x0 KECCAK256 PUSH1 0x0 PUSH2 0x100 EXP DUP2 SLOAD DUP2 PUSH20 0xFFFFFFFFFFFFFFFFFFFFFFFFFFFFFFFFFFFFFFFF MUL NOT AND SWAP1 DUP4 PUSH20 0xFFFFFFFFFFFFFFFFFFFFFFFFFFFFFFFFFFFFFFFF AND MUL OR SWAP1 SSTORE POP DUP2 PUSH20 0xFFFFFFFFFFFFFFFFFFFFFFFFFFFFFFFFFFFFFFFF AND CALLER PUSH20 0xFFFFFFFFFFFFFFFFFFFFFFFFFFFFFFFFFFFFFFFF AND DUP5 PUSH28 0xFFFFFFFFFFFFFFFFFFFFFFFFFFFFFFFFFFFFFFFFFFFFFFFFFFFFFFFF NOT AND PUSH32 0xC62063B81F7036FD97A0DC546516E99F11004D2D76CA0FDDD3866346C86E7091 DUP5 PUSH1 0x40 MLOAD PUSH2 0x2180 SWAP2 SWAP1 PUSH2 0x36CE JUMP JUMPDEST PUSH1 0x40 MLOAD DUP1 SWAP2 SUB SWAP1 LOG4 POP POP POP JUMP JUMPDEST PUSH2 0x2196 DUP4 PUSH2 0x23A6 JUMP JUMPDEST PUSH2 0x21A0 DUP3 DUP3 PUSH2 0x269B JUMP JUMPDEST POP POP POP JUMP JUMPDEST PUSH1 0x0 DUP2 EXTCODESIZE ISZERO ISZERO SWAP1 POP SWAP2 SWAP1 POP JUMP JUMPDEST PUSH1 0x0 PUSH1 0x60 PUSH4 0x23B872DD PUSH1 0xE0 SHL DUP6 DUP6 DUP6 PUSH1 0x40 MLOAD PUSH1 0x24 ADD PUSH2 0x21D3 SWAP4 SWAP3 SWAP2 SWAP1 PUSH2 0x34BE JUMP JUMPDEST PUSH1 0x40 MLOAD PUSH1 0x20 DUP2 DUP4 SUB SUB DUP2 MSTORE SWAP1 PUSH1 0x40 MSTORE SWAP1 PUSH28 0xFFFFFFFFFFFFFFFFFFFFFFFFFFFFFFFFFFFFFFFFFFFFFFFFFFFFFFFF NOT AND PUSH1 0x20 DUP3 ADD DUP1 MLOAD PUSH28 0xFFFFFFFFFFFFFFFFFFFFFFFFFFFFFFFFFFFFFFFFFFFFFFFFFFFFFFFF DUP4 DUP2 DUP4 AND OR DUP4 MSTORE POP POP POP POP SWAP1 POP PUSH2 0x223C DUP7 DUP3 PUSH2 0x2622 JUMP JUMPDEST SWAP2 POP POP SWAP5 SWAP4 POP POP POP POP JUMP JUMPDEST PUSH1 0x0 PUSH1 0x1 DUP1 DUP4 PUSH1 0xFF AND DUP6 PUSH1 0x0 SHR SWAP1 SHR AND EQ SWAP1 POP SWAP3 SWAP2 POP POP JUMP JUMPDEST PUSH1 0x0 DUP2 PUSH1 0xFF AND PUSH1 0x1 SWAP1 SHL DUP4 PUSH1 0x0 SHR XOR PUSH1 0x0 SHL SWAP1 POP SWAP3 SWAP2 POP POP JUMP JUMPDEST PUSH1 0x40 MLOAD DUP1 PUSH1 0x40 ADD PUSH1 0x40 MSTORE DUP1 PUSH1 0x3 DUP2 MSTORE PUSH1 0x20 ADD PUSH32 0x61636C0000000000000000000000000000000000000000000000000000000000 DUP2 MSTORE POP PUSH1 0x0 PUSH1 0x2 DUP3 PUSH1 0x40 MLOAD PUSH2 0x22C2 SWAP2 SWAP1 PUSH2 0x3439 JUMP JUMPDEST SWAP1 DUP2 MSTORE PUSH1 0x20 ADD PUSH1 0x40 MLOAD DUP1 SWAP2 SUB SWAP1 KECCAK256 SLOAD EQ PUSH2 0x2311 JUMPI PUSH1 0x40 MLOAD PUSH32 0x8C379A000000000000000000000000000000000000000000000000000000000 DUP2 MSTORE PUSH1 0x4 ADD PUSH2 0x2308 SWAP1 PUSH2 0x376B JUMP JUMPDEST PUSH1 0x40 MLOAD DUP1 SWAP2 SUB SWAP1 REVERT JUMPDEST NUMBER PUSH1 0x2 DUP3 PUSH1 0x40 MLOAD PUSH2 0x2322 SWAP2 SWAP1 PUSH2 0x3439 JUMP JUMPDEST SWAP1 DUP2 MSTORE PUSH1 0x20 ADD PUSH1 0x40 MLOAD DUP1 SWAP2 SUB SWAP1 KECCAK256 DUP2 SWAP1 SSTORE POP PUSH2 0x2360 PUSH4 0x1C47671B PUSH1 0xE0 SHL PUSH4 0xBDF9A726 PUSH1 0xE0 SHL PUSH4 0x58849734 PUSH1 0xE0 SHL PUSH4 0xA157A10D PUSH1 0xE0 SHL XOR XOR XOR DUP4 PUSH2 0x1BC8 JUMP JUMPDEST DUP1 PUSH1 0x40 MLOAD PUSH2 0x236E SWAP2 SWAP1 PUSH2 0x3439 JUMP JUMPDEST PUSH1 0x40 MLOAD DUP1 SWAP2 SUB SWAP1 KECCAK256 PUSH32 0x7BC2A48A4A566E237A12186F19D985B0F76AFC9D5290601EDAC19876253670C2 PUSH1 0x40 MLOAD PUSH1 0x40 MLOAD DUP1 SWAP2 SUB SWAP1 LOG2 POP POP JUMP JUMPDEST PUSH1 0x1 PUSH1 0x0 DUP1 DUP4 PUSH28 0xFFFFFFFFFFFFFFFFFFFFFFFFFFFFFFFFFFFFFFFFFFFFFFFFFFFFFFFF NOT AND PUSH28 0xFFFFFFFFFFFFFFFFFFFFFFFFFFFFFFFFFFFFFFFFFFFFFFFFFFFFFFFF NOT AND DUP2 MSTORE PUSH1 0x20 ADD SWAP1 DUP2 MSTORE PUSH1 0x20 ADD PUSH1 0x0 KECCAK256 PUSH1 0x0 PUSH2 0x100 EXP DUP2 SLOAD DUP2 PUSH1 0xFF MUL NOT AND SWAP1 DUP4 ISZERO ISZERO MUL OR SWAP1 SSTORE POP PUSH32 0xBF5E1F87F5AB65B58074CD29244D7C487A948983CDA4B932E0F966B62BD34ACA DUP2 PUSH1 0x40 MLOAD PUSH2 0x243E SWAP2 SWAP1 PUSH2 0x362A JUMP JUMPDEST PUSH1 0x40 MLOAD DUP1 SWAP2 SUB SWAP1 LOG1 POP JUMP JUMPDEST PUSH1 0x0 DUP1 PUSH1 0x3 PUSH1 0x0 DUP7 PUSH28 0xFFFFFFFFFFFFFFFFFFFFFFFFFFFFFFFFFFFFFFFFFFFFFFFFFFFFFFFF NOT AND PUSH28 0xFFFFFFFFFFFFFFFFFFFFFFFFFFFFFFFFFFFFFFFFFFFFFFFFFFFFFFFF NOT AND DUP2 MSTORE PUSH1 0x20 ADD SWAP1 DUP2 MSTORE PUSH1 0x20 ADD PUSH1 0x0 KECCAK256 PUSH1 0x0 DUP6 PUSH20 0xFFFFFFFFFFFFFFFFFFFFFFFFFFFFFFFFFFFFFFFF AND PUSH20 0xFFFFFFFFFFFFFFFFFFFFFFFFFFFFFFFFFFFFFFFF AND DUP2 MSTORE PUSH1 0x20 ADD SWAP1 DUP2 MSTORE PUSH1 0x20 ADD PUSH1 0x0 KECCAK256 PUSH1 0x0 SWAP1 SLOAD SWAP1 PUSH2 0x100 EXP SWAP1 DIV PUSH20 0xFFFFFFFFFFFFFFFFFFFFFFFFFFFFFFFFFFFFFFFF AND SWAP1 POP PUSH1 0x0 PUSH20 0xFFFFFFFFFFFFFFFFFFFFFFFFFFFFFFFFFFFFFFFF AND DUP2 PUSH20 0xFFFFFFFFFFFFFFFFFFFFFFFFFFFFFFFFFFFFFFFF AND EQ PUSH2 0x2615 JUMPI PUSH1 0x2 PUSH20 0xFFFFFFFFFFFFFFFFFFFFFFFFFFFFFFFFFFFFFFFF AND DUP2 PUSH20 0xFFFFFFFFFFFFFFFFFFFFFFFFFFFFFFFFFFFFFFFF AND EQ ISZERO PUSH2 0x2570 JUMPI PUSH1 0x1 SWAP2 POP POP PUSH2 0x261B JUMP JUMPDEST DUP1 PUSH20 0xFFFFFFFFFFFFFFFFFFFFFFFFFFFFFFFFFFFFFFFF AND PUSH4 0x97C8108 DUP7 DUP7 DUP7 PUSH1 0x40 MLOAD DUP5 PUSH4 0xFFFFFFFF AND PUSH1 0xE0 SHL DUP2 MSTORE PUSH1 0x4 ADD PUSH2 0x25AD SWAP4 SWAP3 SWAP2 SWAP1 PUSH2 0x3645 JUMP JUMPDEST PUSH1 0x20 PUSH1 0x40 MLOAD DUP1 DUP4 SUB DUP2 PUSH1 0x0 DUP8 DUP1 EXTCODESIZE ISZERO DUP1 ISZERO PUSH2 0x25C7 JUMPI PUSH1 0x0 DUP1 REVERT JUMPDEST POP GAS CALL SWAP3 POP POP POP DUP1 ISZERO PUSH2 0x25F8 JUMPI POP PUSH1 0x40 MLOAD RETURNDATASIZE PUSH1 0x1F NOT PUSH1 0x1F DUP3 ADD AND DUP3 ADD DUP1 PUSH1 0x40 MSTORE POP DUP2 ADD SWAP1 PUSH2 0x25F5 SWAP2 SWAP1 PUSH2 0x2CC3 JUMP JUMPDEST PUSH1 0x1 JUMPDEST PUSH2 0x2601 JUMPI PUSH2 0x2614 JUMP JUMPDEST DUP1 ISZERO PUSH2 0x2612 JUMPI PUSH1 0x1 SWAP3 POP POP POP PUSH2 0x261B JUMP JUMPDEST POP JUMPDEST JUMPDEST PUSH1 0x0 SWAP2 POP POP JUMPDEST SWAP4 SWAP3 POP POP POP JUMP JUMPDEST PUSH1 0x0 PUSH2 0x2643 DUP4 PUSH20 0xFFFFFFFFFFFFFFFFFFFFFFFFFFFFFFFFFFFFFFFF AND PUSH2 0x21A5 JUMP JUMPDEST PUSH2 0x2650 JUMPI PUSH1 0x0 SWAP1 POP PUSH2 0x2695 JUMP JUMPDEST PUSH1 0x40 MLOAD PUSH1 0x20 DUP2 DUP5 MLOAD PUSH1 0x20 DUP7 ADD PUSH1 0x0 DUP9 GAS CALL PUSH1 0x0 DUP2 GT ISZERO PUSH2 0x2692 JUMPI RETURNDATASIZE PUSH1 0x0 DUP2 EQ PUSH2 0x2680 JUMPI PUSH1 0x20 DUP2 EQ PUSH2 0x2689 JUMPI PUSH2 0x2690 JUMP JUMPDEST PUSH1 0x1 SWAP4 POP PUSH2 0x2690 JUMP JUMPDEST DUP3 MLOAD ISZERO ISZERO SWAP4 POP JUMPDEST POP JUMPDEST POP POP JUMPDEST SWAP3 SWAP2 POP POP JUMP JUMPDEST DUP1 PUSH28 0xFFFFFFFFFFFFFFFFFFFFFFFFFFFFFFFFFFFFFFFFFFFFFFFFFFFFFFFF NOT AND PUSH1 0x1 PUSH1 0x0 DUP5 PUSH28 0xFFFFFFFFFFFFFFFFFFFFFFFFFFFFFFFFFFFFFFFFFFFFFFFFFFFFFFFF NOT AND PUSH28 0xFFFFFFFFFFFFFFFFFFFFFFFFFFFFFFFFFFFFFFFFFFFFFFFFFFFFFFFF NOT AND DUP2 MSTORE PUSH1 0x20 ADD SWAP1 DUP2 MSTORE PUSH1 0x20 ADD PUSH1 0x0 KECCAK256 DUP2 SWAP1 SSTORE POP PUSH32 0x93D5961296B43C7CE4028F69E1B1469851106225A65D1A7F87FE48EDF7F100D8 DUP3 DUP3 PUSH1 0x40 MLOAD PUSH2 0x2741 SWAP3 SWAP2 SWAP1 PUSH2 0x3683 JUMP JUMPDEST PUSH1 0x40 MLOAD DUP1 SWAP2 SUB SWAP1 LOG1 POP POP JUMP JUMPDEST PUSH1 0x40 MLOAD DUP1 PUSH1 0x60 ADD PUSH1 0x40 MSTORE DUP1 PUSH1 0x0 PUSH1 0x2 DUP2 GT ISZERO PUSH2 0x2765 JUMPI INVALID JUMPDEST DUP2 MSTORE PUSH1 0x20 ADD PUSH1 0x0 PUSH28 0xFFFFFFFFFFFFFFFFFFFFFFFFFFFFFFFFFFFFFFFFFFFFFFFFFFFFFFFF NOT AND DUP2 MSTORE PUSH1 0x20 ADD PUSH1 0x0 PUSH20 0xFFFFFFFFFFFFFFFFFFFFFFFFFFFFFFFFFFFFFFFF AND DUP2 MSTORE POP SWAP1 JUMP JUMPDEST PUSH1 0x0 DUP2 CALLDATALOAD SWAP1 POP PUSH2 0x27BD DUP2 PUSH2 0x3AE5 JUMP JUMPDEST SWAP3 SWAP2 POP POP JUMP JUMPDEST PUSH1 0x0 DUP3 PUSH1 0x1F DUP4 ADD SLT PUSH2 0x27D4 JUMPI PUSH1 0x0 DUP1 REVERT JUMPDEST DUP2 CALLDATALOAD PUSH2 0x27E7 PUSH2 0x27E2 DUP3 PUSH2 0x3845 JUMP JUMPDEST PUSH2 0x3818 JUMP JUMPDEST SWAP2 POP DUP2 DUP2 DUP4 MSTORE PUSH1 0x20 DUP5 ADD SWAP4 POP PUSH1 0x20 DUP2 ADD SWAP1 POP DUP4 PUSH1 0x0 JUMPDEST DUP4 DUP2 LT ISZERO PUSH2 0x282D JUMPI DUP2 CALLDATALOAD DUP7 ADD PUSH2 0x2813 DUP9 DUP3 PUSH2 0x2A06 JUMP JUMPDEST DUP5 MSTORE PUSH1 0x20 DUP5 ADD SWAP4 POP PUSH1 0x20 DUP4 ADD SWAP3 POP POP PUSH1 0x1 DUP2 ADD SWAP1 POP PUSH2 0x27FD JUMP JUMPDEST POP POP POP POP SWAP3 SWAP2 POP POP JUMP JUMPDEST PUSH1 0x0 DUP1 DUP4 PUSH1 0x1F DUP5 ADD SLT PUSH2 0x2849 JUMPI PUSH1 0x0 DUP1 REVERT JUMPDEST DUP3 CALLDATALOAD SWAP1 POP PUSH8 0xFFFFFFFFFFFFFFFF DUP2 GT ISZERO PUSH2 0x2862 JUMPI PUSH1 0x0 DUP1 REVERT JUMPDEST PUSH1 0x20 DUP4 ADD SWAP2 POP DUP4 PUSH1 0x60 DUP3 MUL DUP4 ADD GT ISZERO PUSH2 0x287A JUMPI PUSH1 0x0 DUP1 REVERT JUMPDEST SWAP3 POP SWAP3 SWAP1 POP JUMP JUMPDEST PUSH1 0x0 DUP2 MLOAD SWAP1 POP PUSH2 0x2890 DUP2 PUSH2 0x3AFC JUMP JUMPDEST SWAP3 SWAP2 POP POP JUMP JUMPDEST PUSH1 0x0 DUP2 CALLDATALOAD SWAP1 POP PUSH2 0x28A5 DUP2 PUSH2 0x3B13 JUMP JUMPDEST SWAP3 SWAP2 POP POP JUMP JUMPDEST PUSH1 0x0 DUP2 CALLDATALOAD SWAP1 POP PUSH2 0x28BA DUP2 PUSH2 0x3B2A JUMP JUMPDEST SWAP3 SWAP2 POP POP JUMP JUMPDEST PUSH1 0x0 DUP2 MLOAD SWAP1 POP PUSH2 0x28CF DUP2 PUSH2 0x3B2A JUMP JUMPDEST SWAP3 SWAP2 POP POP JUMP JUMPDEST PUSH1 0x0 DUP3 PUSH1 0x1F DUP4 ADD SLT PUSH2 0x28E6 JUMPI PUSH1 0x0 DUP1 REVERT JUMPDEST DUP2 CALLDATALOAD PUSH2 0x28F9 PUSH2 0x28F4 DUP3 PUSH2 0x386D JUMP JUMPDEST PUSH2 0x3818 JUMP JUMPDEST SWAP2 POP DUP1 DUP3 MSTORE PUSH1 0x20 DUP4 ADD PUSH1 0x20 DUP4 ADD DUP6 DUP4 DUP4 ADD GT ISZERO PUSH2 0x2915 JUMPI PUSH1 0x0 DUP1 REVERT JUMPDEST PUSH2 0x2920 DUP4 DUP3 DUP5 PUSH2 0x3A92 JUMP JUMPDEST POP POP POP SWAP3 SWAP2 POP POP JUMP JUMPDEST PUSH1 0x0 DUP2 CALLDATALOAD SWAP1 POP PUSH2 0x2938 DUP2 PUSH2 0x3B41 JUMP JUMPDEST SWAP3 SWAP2 POP POP JUMP JUMPDEST PUSH1 0x0 DUP2 CALLDATALOAD SWAP1 POP PUSH2 0x294D DUP2 PUSH2 0x3B58 JUMP JUMPDEST SWAP3 SWAP2 POP POP JUMP JUMPDEST PUSH1 0x0 DUP2 CALLDATALOAD SWAP1 POP PUSH2 0x2962 DUP2 PUSH2 0x3B6F JUMP JUMPDEST SWAP3 SWAP2 POP POP JUMP JUMPDEST PUSH1 0x0 DUP1 DUP4 PUSH1 0x1F DUP5 ADD SLT PUSH2 0x297A JUMPI PUSH1 0x0 DUP1 REVERT JUMPDEST DUP3 CALLDATALOAD SWAP1 POP PUSH8 0xFFFFFFFFFFFFFFFF DUP2 GT ISZERO PUSH2 0x2993 JUMPI PUSH1 0x0 DUP1 REVERT JUMPDEST PUSH1 0x20 DUP4 ADD SWAP2 POP DUP4 PUSH1 0x1 DUP3 MUL DUP4 ADD GT ISZERO PUSH2 0x29AB JUMPI PUSH1 0x0 DUP1 REVERT JUMPDEST SWAP3 POP SWAP3 SWAP1 POP JUMP JUMPDEST PUSH1 0x0 DUP3 PUSH1 0x1F DUP4 ADD SLT PUSH2 0x29C3 JUMPI PUSH1 0x0 DUP1 REVERT JUMPDEST DUP2 CALLDATALOAD PUSH2 0x29D6 PUSH2 0x29D1 DUP3 PUSH2 0x3899 JUMP JUMPDEST PUSH2 0x3818 JUMP JUMPDEST SWAP2 POP DUP1 DUP3 MSTORE PUSH1 0x20 DUP4 ADD PUSH1 0x20 DUP4 ADD DUP6 DUP4 DUP4 ADD GT ISZERO PUSH2 0x29F2 JUMPI PUSH1 0x0 DUP1 REVERT JUMPDEST PUSH2 0x29FD DUP4 DUP3 DUP5 PUSH2 0x3A92 JUMP JUMPDEST POP POP POP SWAP3 SWAP2 POP POP JUMP JUMPDEST PUSH1 0x0 PUSH1 0x60 DUP3 DUP5 SUB SLT ISZERO PUSH2 0x2A18 JUMPI PUSH1 0x0 DUP1 REVERT JUMPDEST PUSH2 0x2A22 PUSH1 0x60 PUSH2 0x3818 JUMP JUMPDEST SWAP1 POP PUSH1 0x0 PUSH2 0x2A32 DUP5 DUP3 DUP6 ADD PUSH2 0x27AE JUMP JUMPDEST PUSH1 0x0 DUP4 ADD MSTORE POP PUSH1 0x20 PUSH2 0x2A46 DUP5 DUP3 DUP6 ADD PUSH2 0x2ADE JUMP JUMPDEST PUSH1 0x20 DUP4 ADD MSTORE POP PUSH1 0x40 DUP3 ADD CALLDATALOAD PUSH8 0xFFFFFFFFFFFFFFFF DUP2 GT ISZERO PUSH2 0x2A66 JUMPI PUSH1 0x0 DUP1 REVERT JUMPDEST PUSH2 0x2A72 DUP5 DUP3 DUP6 ADD PUSH2 0x28D5 JUMP JUMPDEST PUSH1 0x40 DUP4 ADD MSTORE POP SWAP3 SWAP2 POP POP JUMP JUMPDEST PUSH1 0x0 PUSH1 0x60 DUP3 DUP5 SUB SLT ISZERO PUSH2 0x2A90 JUMPI PUSH1 0x0 DUP1 REVERT JUMPDEST PUSH2 0x2A9A PUSH1 0x60 PUSH2 0x3818 JUMP JUMPDEST SWAP1 POP PUSH1 0x0 PUSH2 0x2AAA DUP5 DUP3 DUP6 ADD PUSH2 0x2953 JUMP JUMPDEST PUSH1 0x0 DUP4 ADD MSTORE POP PUSH1 0x20 PUSH2 0x2ABE DUP5 DUP3 DUP6 ADD PUSH2 0x28AB JUMP JUMPDEST PUSH1 0x20 DUP4 ADD MSTORE POP PUSH1 0x40 PUSH2 0x2AD2 DUP5 DUP3 DUP6 ADD PUSH2 0x27AE JUMP JUMPDEST PUSH1 0x40 DUP4 ADD MSTORE POP SWAP3 SWAP2 POP POP JUMP JUMPDEST PUSH1 0x0 DUP2 CALLDATALOAD SWAP1 POP PUSH2 0x2AED DUP2 PUSH2 0x3B7F JUMP JUMPDEST SWAP3 SWAP2 POP POP JUMP JUMPDEST PUSH1 0x0 PUSH1 0x20 DUP3 DUP5 SUB SLT ISZERO PUSH2 0x2B05 JUMPI PUSH1 0x0 DUP1 REVERT JUMPDEST PUSH1 0x0 PUSH2 0x2B13 DUP5 DUP3 DUP6 ADD PUSH2 0x27AE JUMP JUMPDEST SWAP2 POP POP SWAP3 SWAP2 POP POP JUMP JUMPDEST PUSH1 0x0 DUP1 PUSH1 0x0 DUP1 PUSH1 0x0 PUSH1 0xA0 DUP7 DUP9 SUB SLT ISZERO PUSH2 0x2B34 JUMPI PUSH1 0x0 DUP1 REVERT JUMPDEST PUSH1 0x0 PUSH2 0x2B42 DUP9 DUP3 DUP10 ADD PUSH2 0x27AE JUMP JUMPDEST SWAP6 POP POP PUSH1 0x20 PUSH2 0x2B53 DUP9 DUP3 DUP10 ADD PUSH2 0x27AE JUMP JUMPDEST SWAP5 POP POP PUSH1 0x40 PUSH2 0x2B64 DUP9 DUP3 DUP10 ADD PUSH2 0x27AE JUMP JUMPDEST SWAP4 POP POP PUSH1 0x60 PUSH2 0x2B75 DUP9 DUP3 DUP10 ADD PUSH2 0x2ADE JUMP JUMPDEST SWAP3 POP POP PUSH1 0x80 DUP7 ADD CALLDATALOAD PUSH8 0xFFFFFFFFFFFFFFFF DUP2 GT ISZERO PUSH2 0x2B92 JUMPI PUSH1 0x0 DUP1 REVERT JUMPDEST PUSH2 0x2B9E DUP9 DUP3 DUP10 ADD PUSH2 0x29B2 JUMP JUMPDEST SWAP2 POP POP SWAP3 SWAP6 POP SWAP3 SWAP6 SWAP1 SWAP4 POP JUMP JUMPDEST PUSH1 0x0 DUP1 PUSH1 0x0 DUP1 PUSH1 0x60 DUP6 DUP8 SUB SLT ISZERO PUSH2 0x2BC1 JUMPI PUSH1 0x0 DUP1 REVERT JUMPDEST PUSH1 0x0 PUSH2 0x2BCF DUP8 DUP3 DUP9 ADD PUSH2 0x27AE JUMP JUMPDEST SWAP5 POP POP PUSH1 0x20 PUSH2 0x2BE0 DUP8 DUP3 DUP9 ADD PUSH2 0x2ADE JUMP JUMPDEST SWAP4 POP POP PUSH1 0x40 DUP6 ADD CALLDATALOAD PUSH8 0xFFFFFFFFFFFFFFFF DUP2 GT ISZERO PUSH2 0x2BFD JUMPI PUSH1 0x0 DUP1 REVERT JUMPDEST PUSH2 0x2C09 DUP8 DUP3 DUP9 ADD PUSH2 0x2968 JUMP JUMPDEST SWAP3 POP SWAP3 POP POP SWAP3 SWAP6 SWAP2 SWAP5 POP SWAP3 POP JUMP JUMPDEST PUSH1 0x0 DUP1 PUSH1 0x0 PUSH1 0x60 DUP5 DUP7 SUB SLT ISZERO PUSH2 0x2C2C JUMPI PUSH1 0x0 DUP1 REVERT JUMPDEST PUSH1 0x0 DUP5 ADD CALLDATALOAD PUSH8 0xFFFFFFFFFFFFFFFF DUP2 GT ISZERO PUSH2 0x2C46 JUMPI PUSH1 0x0 DUP1 REVERT JUMPDEST PUSH2 0x2C52 DUP7 DUP3 DUP8 ADD PUSH2 0x27C3 JUMP JUMPDEST SWAP4 POP POP PUSH1 0x20 PUSH2 0x2C63 DUP7 DUP3 DUP8 ADD PUSH2 0x2896 JUMP JUMPDEST SWAP3 POP POP PUSH1 0x40 PUSH2 0x2C74 DUP7 DUP3 DUP8 ADD PUSH2 0x2896 JUMP JUMPDEST SWAP2 POP POP SWAP3 POP SWAP3 POP SWAP3 JUMP JUMPDEST PUSH1 0x0 DUP1 PUSH1 0x20 DUP4 DUP6 SUB SLT ISZERO PUSH2 0x2C91 JUMPI PUSH1 0x0 DUP1 REVERT JUMPDEST PUSH1 0x0 DUP4 ADD CALLDATALOAD PUSH8 0xFFFFFFFFFFFFFFFF DUP2 GT ISZERO PUSH2 0x2CAB JUMPI PUSH1 0x0 DUP1 REVERT JUMPDEST PUSH2 0x2CB7 DUP6 DUP3 DUP7 ADD PUSH2 0x2837 JUMP JUMPDEST SWAP3 POP SWAP3 POP POP SWAP3 POP SWAP3 SWAP1 POP JUMP JUMPDEST PUSH1 0x0 PUSH1 0x20 DUP3 DUP5 SUB SLT ISZERO PUSH2 0x2CD5 JUMPI PUSH1 0x0 DUP1 REVERT JUMPDEST PUSH1 0x0 PUSH2 0x2CE3 DUP5 DUP3 DUP6 ADD PUSH2 0x2881 JUMP JUMPDEST SWAP2 POP POP SWAP3 SWAP2 POP POP JUMP JUMPDEST PUSH1 0x0 DUP1 PUSH1 0x40 DUP4 DUP6 SUB SLT ISZERO PUSH2 0x2CFF JUMPI PUSH1 0x0 DUP1 REVERT JUMPDEST PUSH1 0x0 PUSH2 0x2D0D DUP6 DUP3 DUP7 ADD PUSH2 0x2896 JUMP JUMPDEST SWAP3 POP POP PUSH1 0x20 DUP4 ADD CALLDATALOAD PUSH8 0xFFFFFFFFFFFFFFFF DUP2 GT ISZERO PUSH2 0x2D2A JUMPI PUSH1 0x0 DUP1 REVERT JUMPDEST PUSH2 0x2D36 DUP6 DUP3 DUP7 ADD PUSH2 0x28D5 JUMP JUMPDEST SWAP2 POP POP SWAP3 POP SWAP3 SWAP1 POP JUMP JUMPDEST PUSH1 0x0 PUSH1 0x20 DUP3 DUP5 SUB SLT ISZERO PUSH2 0x2D52 JUMPI PUSH1 0x0 DUP1 REVERT JUMPDEST PUSH1 0x0 PUSH2 0x2D60 DUP5 DUP3 DUP6 ADD PUSH2 0x28AB JUMP JUMPDEST SWAP2 POP POP SWAP3 SWAP2 POP POP JUMP JUMPDEST PUSH1 0x0 PUSH1 0x20 DUP3 DUP5 SUB SLT ISZERO PUSH2 0x2D7B JUMPI PUSH1 0x0 DUP1 REVERT JUMPDEST PUSH1 0x0 PUSH2 0x2D89 DUP5 DUP3 DUP6 ADD PUSH2 0x28C0 JUMP JUMPDEST SWAP2 POP POP SWAP3 SWAP2 POP POP JUMP JUMPDEST PUSH1 0x0 DUP1 PUSH1 0x40 DUP4 DUP6 SUB SLT ISZERO PUSH2 0x2DA5 JUMPI PUSH1 0x0 DUP1 REVERT JUMPDEST PUSH1 0x0 PUSH2 0x2DB3 DUP6 DUP3 DUP7 ADD PUSH2 0x28AB JUMP JUMPDEST SWAP3 POP POP PUSH1 0x20 PUSH2 0x2DC4 DUP6 DUP3 DUP7 ADD PUSH2 0x27AE JUMP JUMPDEST SWAP2 POP POP SWAP3 POP SWAP3 SWAP1 POP JUMP JUMPDEST PUSH1 0x0 DUP1 PUSH1 0x0 PUSH1 0x60 DUP5 DUP7 SUB SLT ISZERO PUSH2 0x2DE3 JUMPI PUSH1 0x0 DUP1 REVERT JUMPDEST PUSH1 0x0 PUSH2 0x2DF1 DUP7 DUP3 DUP8 ADD PUSH2 0x28AB JUMP JUMPDEST SWAP4 POP POP PUSH1 0x20 PUSH2 0x2E02 DUP7 DUP3 DUP8 ADD PUSH2 0x27AE JUMP JUMPDEST SWAP3 POP POP PUSH1 0x40 PUSH2 0x2E13 DUP7 DUP3 DUP8 ADD PUSH2 0x293E JUMP JUMPDEST SWAP2 POP POP SWAP3 POP SWAP3 POP SWAP3 JUMP JUMPDEST PUSH1 0x0 DUP1 PUSH1 0x0 PUSH1 0x60 DUP5 DUP7 SUB SLT ISZERO PUSH2 0x2E32 JUMPI PUSH1 0x0 DUP1 REVERT JUMPDEST PUSH1 0x0 PUSH2 0x2E40 DUP7 DUP3 DUP8 ADD PUSH2 0x28AB JUMP JUMPDEST SWAP4 POP POP PUSH1 0x20 PUSH2 0x2E51 DUP7 DUP3 DUP8 ADD PUSH2 0x28AB JUMP JUMPDEST SWAP3 POP POP PUSH1 0x40 PUSH2 0x2E62 DUP7 DUP3 DUP8 ADD PUSH2 0x28AB JUMP JUMPDEST SWAP2 POP POP SWAP3 POP SWAP3 POP SWAP3 JUMP JUMPDEST PUSH1 0x0 PUSH1 0x20 DUP3 DUP5 SUB SLT ISZERO PUSH2 0x2E7E JUMPI PUSH1 0x0 DUP1 REVERT JUMPDEST PUSH1 0x0 PUSH2 0x2E8C DUP5 DUP3 DUP6 ADD PUSH2 0x2929 JUMP JUMPDEST SWAP2 POP POP SWAP3 SWAP2 POP POP JUMP JUMPDEST PUSH1 0x0 PUSH1 0x20 DUP3 DUP5 SUB SLT ISZERO PUSH2 0x2EA7 JUMPI PUSH1 0x0 DUP1 REVERT JUMPDEST PUSH1 0x0 DUP3 ADD CALLDATALOAD PUSH8 0xFFFFFFFFFFFFFFFF DUP2 GT ISZERO PUSH2 0x2EC1 JUMPI PUSH1 0x0 DUP1 REVERT JUMPDEST PUSH2 0x2ECD DUP5 DUP3 DUP6 ADD PUSH2 0x29B2 JUMP JUMPDEST SWAP2 POP POP SWAP3 SWAP2 POP POP JUMP JUMPDEST PUSH1 0x0 PUSH1 0x60 DUP3 DUP5 SUB SLT ISZERO PUSH2 0x2EE8 JUMPI PUSH1 0x0 DUP1 REVERT JUMPDEST PUSH1 0x0 PUSH2 0x2EF6 DUP5 DUP3 DUP6 ADD PUSH2 0x2A7E JUMP JUMPDEST SWAP2 POP POP SWAP3 SWAP2 POP POP JUMP JUMPDEST PUSH1 0x0 PUSH2 0x2F0B DUP4 DUP4 PUSH2 0x306B JUMP JUMPDEST SWAP1 POP SWAP3 SWAP2 POP POP JUMP JUMPDEST PUSH1 0x0 PUSH2 0x2F1F DUP4 DUP4 PUSH2 0x33B4 JUMP JUMPDEST SWAP1 POP SWAP3 SWAP2 POP POP JUMP JUMPDEST PUSH2 0x2F30 DUP2 PUSH2 0x3A38 JUMP JUMPDEST DUP3 MSTORE POP POP JUMP JUMPDEST PUSH2 0x2F3F DUP2 PUSH2 0x3996 JUMP JUMPDEST DUP3 MSTORE POP POP JUMP JUMPDEST PUSH2 0x2F4E DUP2 PUSH2 0x3996 JUMP JUMPDEST DUP3 MSTORE POP POP JUMP JUMPDEST PUSH1 0x0 PUSH2 0x2F5F DUP3 PUSH2 0x38E5 JUMP JUMPDEST PUSH2 0x2F69 DUP2 DUP6 PUSH2 0x392B JUMP JUMPDEST SWAP4 POP DUP4 PUSH1 0x20 DUP3 MUL DUP6 ADD PUSH2 0x2F7B DUP6 PUSH2 0x38C5 JUMP JUMPDEST DUP1 PUSH1 0x0 JUMPDEST DUP6 DUP2 LT ISZERO PUSH2 0x2FB7 JUMPI DUP5 DUP5 SUB DUP10 MSTORE DUP2 MLOAD PUSH2 0x2F98 DUP6 DUP3 PUSH2 0x2EFF JUMP JUMPDEST SWAP5 POP PUSH2 0x2FA3 DUP4 PUSH2 0x3911 JUMP JUMPDEST SWAP3 POP PUSH1 0x20 DUP11 ADD SWAP10 POP POP PUSH1 0x1 DUP2 ADD SWAP1 POP PUSH2 0x2F7F JUMP JUMPDEST POP DUP3 SWAP8 POP DUP8 SWAP6 POP POP POP POP POP POP SWAP3 SWAP2 POP POP JUMP JUMPDEST PUSH1 0x0 PUSH2 0x2FD4 DUP3 PUSH2 0x38F0 JUMP JUMPDEST PUSH2 0x2FDE DUP2 DUP6 PUSH2 0x393C JUMP JUMPDEST SWAP4 POP DUP4 PUSH1 0x20 DUP3 MUL DUP6 ADD PUSH2 0x2FF0 DUP6 PUSH2 0x38D5 JUMP JUMPDEST DUP1 PUSH1 0x0 JUMPDEST DUP6 DUP2 LT ISZERO PUSH2 0x302C JUMPI DUP5 DUP5 SUB DUP10 MSTORE DUP2 MLOAD PUSH2 0x300D DUP6 DUP3 PUSH2 0x2F13 JUMP JUMPDEST SWAP5 POP PUSH2 0x3018 DUP4 PUSH2 0x391E JUMP JUMPDEST SWAP3 POP PUSH1 0x20 DUP11 ADD SWAP10 POP POP PUSH1 0x1 DUP2 ADD SWAP1 POP PUSH2 0x2FF4 JUMP JUMPDEST POP DUP3 SWAP8 POP DUP8 SWAP6 POP POP POP POP POP POP SWAP3 SWAP2 POP POP JUMP JUMPDEST PUSH2 0x3047 DUP2 PUSH2 0x39A8 JUMP JUMPDEST DUP3 MSTORE POP POP JUMP JUMPDEST PUSH2 0x3056 DUP2 PUSH2 0x39B4 JUMP JUMPDEST DUP3 MSTORE POP POP JUMP JUMPDEST PUSH2 0x3065 DUP2 PUSH2 0x39BE JUMP JUMPDEST DUP3 MSTORE POP POP JUMP JUMPDEST PUSH1 0x0 PUSH2 0x3076 DUP3 PUSH2 0x38FB JUMP JUMPDEST PUSH2 0x3080 DUP2 DUP6 PUSH2 0x394D JUMP JUMPDEST SWAP4 POP PUSH2 0x3090 DUP2 DUP6 PUSH1 0x20 DUP7 ADD PUSH2 0x3AA1 JUMP JUMPDEST PUSH2 0x3099 DUP2 PUSH2 0x3AD4 JUMP JUMPDEST DUP5 ADD SWAP2 POP POP SWAP3 SWAP2 POP POP JUMP JUMPDEST PUSH1 0x0 PUSH2 0x30AF DUP3 PUSH2 0x38FB JUMP JUMPDEST PUSH2 0x30B9 DUP2 DUP6 PUSH2 0x395E JUMP JUMPDEST SWAP4 POP PUSH2 0x30C9 DUP2 DUP6 PUSH1 0x20 DUP7 ADD PUSH2 0x3AA1 JUMP JUMPDEST PUSH2 0x30D2 DUP2 PUSH2 0x3AD4 JUMP JUMPDEST DUP5 ADD SWAP2 POP POP SWAP3 SWAP2 POP POP JUMP JUMPDEST PUSH1 0x0 PUSH2 0x30E8 DUP3 PUSH2 0x38FB JUMP JUMPDEST PUSH2 0x30F2 DUP2 DUP6 PUSH2 0x396F JUMP JUMPDEST SWAP4 POP PUSH2 0x3102 DUP2 DUP6 PUSH1 0x20 DUP7 ADD PUSH2 0x3AA1 JUMP JUMPDEST DUP1 DUP5 ADD SWAP2 POP POP SWAP3 SWAP2 POP POP JUMP JUMPDEST PUSH2 0x3117 DUP2 PUSH2 0x3A4A JUMP JUMPDEST DUP3 MSTORE POP POP JUMP JUMPDEST PUSH1 0x0 PUSH2 0x3129 DUP4 DUP6 PUSH2 0x397A JUMP JUMPDEST SWAP4 POP PUSH2 0x3136 DUP4 DUP6 DUP5 PUSH2 0x3A92 JUMP JUMPDEST PUSH2 0x313F DUP4 PUSH2 0x3AD4 JUMP JUMPDEST DUP5 ADD SWAP1 POP SWAP4 SWAP3 POP POP POP JUMP JUMPDEST PUSH1 0x0 PUSH2 0x3155 DUP3 PUSH2 0x3906 JUMP JUMPDEST PUSH2 0x315F DUP2 DUP6 PUSH2 0x397A JUMP JUMPDEST SWAP4 POP PUSH2 0x316F DUP2 DUP6 PUSH1 0x20 DUP7 ADD PUSH2 0x3AA1 JUMP JUMPDEST PUSH2 0x3178 DUP2 PUSH2 0x3AD4 JUMP JUMPDEST DUP5 ADD SWAP2 POP POP SWAP3 SWAP2 POP POP JUMP JUMPDEST PUSH1 0x0 PUSH2 0x318E DUP3 PUSH2 0x3906 JUMP JUMPDEST PUSH2 0x3198 DUP2 DUP6 PUSH2 0x398B JUMP JUMPDEST SWAP4 POP PUSH2 0x31A8 DUP2 DUP6 PUSH1 0x20 DUP7 ADD PUSH2 0x3AA1 JUMP JUMPDEST DUP1 DUP5 ADD SWAP2 POP POP SWAP3 SWAP2 POP POP JUMP JUMPDEST PUSH1 0x0 PUSH2 0x31C1 PUSH1 0x9 DUP4 PUSH2 0x397A JUMP JUMPDEST SWAP2 POP PUSH32 0x61636C3A20617574680000000000000000000000000000000000000000000000 PUSH1 0x0 DUP4 ADD MSTORE PUSH1 0x20 DUP3 ADD SWAP1 POP SWAP2 SWAP1 POP JUMP JUMPDEST PUSH1 0x0 PUSH2 0x3201 PUSH1 0xB DUP4 PUSH2 0x397A JUMP JUMPDEST SWAP2 POP PUSH32 0x61636C3A2066726F7A656E000000000000000000000000000000000000000000 PUSH1 0x0 DUP4 ADD MSTORE PUSH1 0x20 DUP3 ADD SWAP1 POP SWAP2 SWAP1 POP JUMP JUMPDEST PUSH1 0x0 PUSH2 0x3241 PUSH1 0x1D DUP4 PUSH2 0x397A JUMP JUMPDEST SWAP2 POP PUSH32 0x616461702D6572633136353A20756E6B6E6F776E2063616C6C6261636B000000 PUSH1 0x0 DUP4 ADD MSTORE PUSH1 0x20 DUP3 ADD SWAP1 POP SWAP2 SWAP1 POP JUMP JUMPDEST PUSH1 0x0 PUSH2 0x3281 PUSH1 0x22 DUP4 PUSH2 0x397A JUMP JUMPDEST SWAP2 POP PUSH32 0x696E697469616C697A61626C653A20616C726561647920696E697469616C697A PUSH1 0x0 DUP4 ADD MSTORE PUSH32 0x6564000000000000000000000000000000000000000000000000000000000000 PUSH1 0x20 DUP4 ADD MSTORE PUSH1 0x40 DUP3 ADD SWAP1 POP SWAP2 SWAP1 POP JUMP JUMPDEST PUSH1 0x0 PUSH2 0x32E7 PUSH1 0x0 DUP4 PUSH2 0x396F JUMP JUMPDEST SWAP2 POP PUSH1 0x0 DUP3 ADD SWAP1 POP SWAP2 SWAP1 POP JUMP JUMPDEST PUSH1 0x0 PUSH2 0x3301 PUSH1 0x1C DUP4 PUSH2 0x397A JUMP JUMPDEST SWAP2 POP PUSH32 0x61636C3A20696E697469616C20726F6F74206D6973616C69676E656400000000 PUSH1 0x0 DUP4 ADD MSTORE PUSH1 0x20 DUP3 ADD SWAP1 POP SWAP2 SWAP1 POP JUMP JUMPDEST PUSH1 0x0 PUSH2 0x3341 PUSH1 0x3 DUP4 PUSH2 0x398B JUMP JUMPDEST SWAP2 POP PUSH32 0x61636C0000000000000000000000000000000000000000000000000000000000 PUSH1 0x0 DUP4 ADD MSTORE PUSH1 0x3 DUP3 ADD SWAP1 POP SWAP2 SWAP1 POP JUMP JUMPDEST PUSH1 0x0 PUSH2 0x3381 PUSH1 0xF DUP4 PUSH2 0x397A JUMP JUMPDEST SWAP2 POP PUSH32 0x61636C3A2062616420667265657A650000000000000000000000000000000000 PUSH1 0x0 DUP4 ADD MSTORE PUSH1 0x20 DUP3 ADD SWAP1 POP SWAP2 SWAP1 POP JUMP JUMPDEST PUSH1 0x0 PUSH1 0x60 DUP4 ADD PUSH1 0x0 DUP4 ADD MLOAD PUSH2 0x33CC PUSH1 0x0 DUP7 ADD DUP3 PUSH2 0x2F36 JUMP JUMPDEST POP PUSH1 0x20 DUP4 ADD MLOAD PUSH2 0x33DF PUSH1 0x20 DUP7 ADD DUP3 PUSH2 0x3404 JUMP JUMPDEST POP PUSH1 0x40 DUP4 ADD MLOAD DUP5 DUP3 SUB PUSH1 0x40 DUP7 ADD MSTORE PUSH2 0x33F7 DUP3 DUP3 PUSH2 0x306B JUMP JUMPDEST SWAP2 POP POP DUP1 SWAP2 POP POP SWAP3 SWAP2 POP POP JUMP JUMPDEST PUSH2 0x340D DUP2 PUSH2 0x3A2E JUMP JUMPDEST DUP3 MSTORE POP POP JUMP JUMPDEST PUSH2 0x341C DUP2 PUSH2 0x3A2E JUMP JUMPDEST DUP3 MSTORE POP POP JUMP JUMPDEST PUSH1 0x0 PUSH2 0x342E DUP3 DUP5 PUSH2 0x30DD JUMP JUMPDEST SWAP2 POP DUP2 SWAP1 POP SWAP3 SWAP2 POP POP JUMP JUMPDEST PUSH1 0x0 PUSH2 0x3445 DUP3 DUP5 PUSH2 0x3183 JUMP JUMPDEST SWAP2 POP DUP2 SWAP1 POP SWAP3 SWAP2 POP POP JUMP JUMPDEST PUSH1 0x0 PUSH2 0x345B DUP3 PUSH2 0x32DA JUMP JUMPDEST SWAP2 POP DUP2 SWAP1 POP SWAP2 SWAP1 POP JUMP JUMPDEST PUSH1 0x0 PUSH2 0x3470 DUP3 PUSH2 0x3334 JUMP JUMPDEST SWAP2 POP DUP2 SWAP1 POP SWAP2 SWAP1 POP JUMP JUMPDEST PUSH1 0x0 PUSH1 0x20 DUP3 ADD SWAP1 POP PUSH2 0x348F PUSH1 0x0 DUP4 ADD DUP5 PUSH2 0x2F45 JUMP JUMPDEST SWAP3 SWAP2 POP POP JUMP JUMPDEST PUSH1 0x0 PUSH1 0x40 DUP3 ADD SWAP1 POP PUSH2 0x34AA PUSH1 0x0 DUP4 ADD DUP6 PUSH2 0x2F27 JUMP JUMPDEST PUSH2 0x34B7 PUSH1 0x20 DUP4 ADD DUP5 PUSH2 0x3413 JUMP JUMPDEST SWAP4 SWAP3 POP POP POP JUMP JUMPDEST PUSH1 0x0 PUSH1 0x60 DUP3 ADD SWAP1 POP PUSH2 0x34D3 PUSH1 0x0 DUP4 ADD DUP7 PUSH2 0x2F45 JUMP JUMPDEST PUSH2 0x34E0 PUSH1 0x20 DUP4 ADD DUP6 PUSH2 0x2F45 JUMP JUMPDEST PUSH2 0x34ED PUSH1 0x40 DUP4 ADD DUP5 PUSH2 0x3413 JUMP JUMPDEST SWAP5 SWAP4 POP POP POP POP JUMP JUMPDEST PUSH1 0x0 PUSH1 0x40 DUP3 ADD SWAP1 POP PUSH2 0x350A PUSH1 0x0 DUP4 ADD DUP6 PUSH2 0x2F45 JUMP JUMPDEST PUSH2 0x3517 PUSH1 0x20 DUP4 ADD DUP5 PUSH2 0x3413 JUMP JUMPDEST SWAP4 SWAP3 POP POP POP JUMP JUMPDEST PUSH1 0x0 PUSH1 0x60 DUP3 ADD SWAP1 POP PUSH2 0x3533 PUSH1 0x0 DUP4 ADD DUP7 PUSH2 0x2F45 JUMP JUMPDEST PUSH2 0x3540 PUSH1 0x20 DUP4 ADD DUP6 PUSH2 0x3413 JUMP JUMPDEST DUP2 DUP2 SUB PUSH1 0x40 DUP4 ADD MSTORE PUSH2 0x3552 DUP2 DUP5 PUSH2 0x314A JUMP JUMPDEST SWAP1 POP SWAP5 SWAP4 POP POP POP POP JUMP JUMPDEST PUSH1 0x0 PUSH1 0x80 DUP3 ADD SWAP1 POP DUP2 DUP2 SUB PUSH1 0x0 DUP4 ADD MSTORE PUSH2 0x3576 DUP2 DUP8 PUSH2 0x2FC9 JUMP JUMPDEST SWAP1 POP PUSH2 0x3585 PUSH1 0x20 DUP4 ADD DUP7 PUSH2 0x304D JUMP JUMPDEST PUSH2 0x3592 PUSH1 0x40 DUP4 ADD DUP6 PUSH2 0x304D JUMP JUMPDEST DUP2 DUP2 SUB PUSH1 0x60 DUP4 ADD MSTORE PUSH2 0x35A4 DUP2 DUP5 PUSH2 0x2F54 JUMP JUMPDEST SWAP1 POP SWAP6 SWAP5 POP POP POP POP POP JUMP JUMPDEST PUSH1 0x0 PUSH1 0x20 DUP3 ADD SWAP1 POP PUSH2 0x35C4 PUSH1 0x0 DUP4 ADD DUP5 PUSH2 0x303E JUMP JUMPDEST SWAP3 SWAP2 POP POP JUMP JUMPDEST PUSH1 0x0 PUSH1 0x40 DUP3 ADD SWAP1 POP PUSH2 0x35DF PUSH1 0x0 DUP4 ADD DUP6 PUSH2 0x304D JUMP JUMPDEST DUP2 DUP2 SUB PUSH1 0x20 DUP4 ADD MSTORE PUSH2 0x35F1 DUP2 DUP5 PUSH2 0x2F54 JUMP JUMPDEST SWAP1 POP SWAP4 SWAP3 POP POP POP JUMP JUMPDEST PUSH1 0x0 PUSH1 0x40 DUP3 ADD SWAP1 POP PUSH2 0x360F PUSH1 0x0 DUP4 ADD DUP6 PUSH2 0x304D JUMP JUMPDEST DUP2 DUP2 SUB PUSH1 0x20 DUP4 ADD MSTORE PUSH2 0x3621 DUP2 DUP5 PUSH2 0x30A4 JUMP JUMPDEST SWAP1 POP SWAP4 SWAP3 POP POP POP JUMP JUMPDEST PUSH1 0x0 PUSH1 0x20 DUP3 ADD SWAP1 POP PUSH2 0x363F PUSH1 0x0 DUP4 ADD DUP5 PUSH2 0x305C JUMP JUMPDEST SWAP3 SWAP2 POP POP JUMP JUMPDEST PUSH1 0x0 PUSH1 0x60 DUP3 ADD SWAP1 POP PUSH2 0x365A PUSH1 0x0 DUP4 ADD DUP7 PUSH2 0x305C JUMP JUMPDEST PUSH2 0x3667 PUSH1 0x20 DUP4 ADD DUP6 PUSH2 0x2F45 JUMP JUMPDEST DUP2 DUP2 SUB PUSH1 0x40 DUP4 ADD MSTORE PUSH2 0x3679 DUP2 DUP5 PUSH2 0x30A4 JUMP JUMPDEST SWAP1 POP SWAP5 SWAP4 POP POP POP POP JUMP JUMPDEST PUSH1 0x0 PUSH1 0x40 DUP3 ADD SWAP1 POP PUSH2 0x3698 PUSH1 0x0 DUP4 ADD DUP6 PUSH2 0x305C JUMP JUMPDEST PUSH2 0x36A5 PUSH1 0x20 DUP4 ADD DUP5 PUSH2 0x305C JUMP JUMPDEST SWAP4 SWAP3 POP POP POP JUMP JUMPDEST PUSH1 0x0 PUSH1 0x20 DUP3 ADD SWAP1 POP DUP2 DUP2 SUB PUSH1 0x0 DUP4 ADD MSTORE PUSH2 0x36C6 DUP2 DUP5 PUSH2 0x30A4 JUMP JUMPDEST SWAP1 POP SWAP3 SWAP2 POP POP JUMP JUMPDEST PUSH1 0x0 PUSH1 0x20 DUP3 ADD SWAP1 POP PUSH2 0x36E3 PUSH1 0x0 DUP4 ADD DUP5 PUSH2 0x310E JUMP JUMPDEST SWAP3 SWAP2 POP POP JUMP JUMPDEST PUSH1 0x0 PUSH1 0x20 DUP3 ADD SWAP1 POP DUP2 DUP2 SUB PUSH1 0x0 DUP4 ADD MSTORE PUSH2 0x3703 DUP2 DUP5 PUSH2 0x314A JUMP JUMPDEST SWAP1 POP SWAP3 SWAP2 POP POP JUMP JUMPDEST PUSH1 0x0 PUSH1 0x20 DUP3 ADD SWAP1 POP DUP2 DUP2 SUB PUSH1 0x0 DUP4 ADD MSTORE PUSH2 0x3724 DUP2 PUSH2 0x31B4 JUMP JUMPDEST SWAP1 POP SWAP2 SWAP1 POP JUMP JUMPDEST PUSH1 0x0 PUSH1 0x20 DUP3 ADD SWAP1 POP DUP2 DUP2 SUB PUSH1 0x0 DUP4 ADD MSTORE PUSH2 0x3744 DUP2 PUSH2 0x31F4 JUMP JUMPDEST SWAP1 POP SWAP2 SWAP1 POP JUMP JUMPDEST PUSH1 0x0 PUSH1 0x20 DUP3 ADD SWAP1 POP DUP2 DUP2 SUB PUSH1 0x0 DUP4 ADD MSTORE PUSH2 0x3764 DUP2 PUSH2 0x3234 JUMP JUMPDEST SWAP1 POP SWAP2 SWAP1 POP JUMP JUMPDEST PUSH1 0x0 PUSH1 0x20 DUP3 ADD SWAP1 POP DUP2 DUP2 SUB PUSH1 0x0 DUP4 ADD MSTORE PUSH2 0x3784 DUP2 PUSH2 0x3274 JUMP JUMPDEST SWAP1 POP SWAP2 SWAP1 POP JUMP JUMPDEST PUSH1 0x0 PUSH1 0x20 DUP3 ADD SWAP1 POP DUP2 DUP2 SUB PUSH1 0x0 DUP4 ADD MSTORE PUSH2 0x37A4 DUP2 PUSH2 0x32F4 JUMP JUMPDEST SWAP1 POP SWAP2 SWAP1 POP JUMP JUMPDEST PUSH1 0x0 PUSH1 0x20 DUP3 ADD SWAP1 POP DUP2 DUP2 SUB PUSH1 0x0 DUP4 ADD MSTORE PUSH2 0x37C4 DUP2 PUSH2 0x3374 JUMP JUMPDEST SWAP1 POP SWAP2 SWAP1 POP JUMP JUMPDEST PUSH1 0x0 PUSH1 0x20 DUP3 ADD SWAP1 POP PUSH2 0x37E0 PUSH1 0x0 DUP4 ADD DUP5 PUSH2 0x3413 JUMP JUMPDEST SWAP3 SWAP2 POP POP JUMP JUMPDEST PUSH1 0x0 PUSH1 0x40 DUP3 ADD SWAP1 POP PUSH2 0x37FB PUSH1 0x0 DUP4 ADD DUP7 PUSH2 0x3413 JUMP JUMPDEST DUP2 DUP2 SUB PUSH1 0x20 DUP4 ADD MSTORE PUSH2 0x380E DUP2 DUP5 DUP7 PUSH2 0x311D JUMP JUMPDEST SWAP1 POP SWAP5 SWAP4 POP POP POP POP JUMP JUMPDEST PUSH1 0x0 PUSH1 0x40 MLOAD SWAP1 POP DUP2 DUP2 ADD DUP2 DUP2 LT PUSH8 0xFFFFFFFFFFFFFFFF DUP3 GT OR ISZERO PUSH2 0x383B JUMPI PUSH1 0x0 DUP1 REVERT JUMPDEST DUP1 PUSH1 0x40 MSTORE POP SWAP2 SWAP1 POP JUMP JUMPDEST PUSH1 0x0 PUSH8 0xFFFFFFFFFFFFFFFF DUP3 GT ISZERO PUSH2 0x385C JUMPI PUSH1 0x0 DUP1 REVERT JUMPDEST PUSH1 0x20 DUP3 MUL SWAP1 POP PUSH1 0x20 DUP2 ADD SWAP1 POP SWAP2 SWAP1 POP JUMP JUMPDEST PUSH1 0x0 PUSH8 0xFFFFFFFFFFFFFFFF DUP3 GT ISZERO PUSH2 0x3884 JUMPI PUSH1 0x0 DUP1 REVERT JUMPDEST PUSH1 0x1F NOT PUSH1 0x1F DUP4 ADD AND SWAP1 POP PUSH1 0x20 DUP2 ADD SWAP1 POP SWAP2 SWAP1 POP JUMP JUMPDEST PUSH1 0x0 PUSH8 0xFFFFFFFFFFFFFFFF DUP3 GT ISZERO PUSH2 0x38B0 JUMPI PUSH1 0x0 DUP1 REVERT JUMPDEST PUSH1 0x1F NOT PUSH1 0x1F DUP4 ADD AND SWAP1 POP PUSH1 0x20 DUP2 ADD SWAP1 POP SWAP2 SWAP1 POP JUMP JUMPDEST PUSH1 0x0 DUP2 SWAP1 POP PUSH1 0x20 DUP3 ADD SWAP1 POP SWAP2 SWAP1 POP JUMP JUMPDEST PUSH1 0x0 DUP2 SWAP1 POP PUSH1 0x20 DUP3 ADD SWAP1 POP SWAP2 SWAP1 POP JUMP JUMPDEST PUSH1 0x0 DUP2 MLOAD SWAP1 POP SWAP2 SWAP1 POP JUMP JUMPDEST PUSH1 0x0 DUP2 MLOAD SWAP1 POP SWAP2 SWAP1 POP JUMP JUMPDEST PUSH1 0x0 DUP2 MLOAD SWAP1 POP SWAP2 SWAP1 POP JUMP JUMPDEST PUSH1 0x0 DUP2 MLOAD SWAP1 POP SWAP2 SWAP1 POP JUMP JUMPDEST PUSH1 0x0 PUSH1 0x20 DUP3 ADD SWAP1 POP SWAP2 SWAP1 POP JUMP JUMPDEST PUSH1 0x0 PUSH1 0x20 DUP3 ADD SWAP1 POP SWAP2 SWAP1 POP JUMP JUMPDEST PUSH1 0x0 DUP3 DUP3 MSTORE PUSH1 0x20 DUP3 ADD SWAP1 POP SWAP3 SWAP2 POP POP JUMP JUMPDEST PUSH1 0x0 DUP3 DUP3 MSTORE PUSH1 0x20 DUP3 ADD SWAP1 POP SWAP3 SWAP2 POP POP JUMP JUMPDEST PUSH1 0x0 DUP3 DUP3 MSTORE PUSH1 0x20 DUP3 ADD SWAP1 POP SWAP3 SWAP2 POP POP JUMP JUMPDEST PUSH1 0x0 DUP3 DUP3 MSTORE PUSH1 0x20 DUP3 ADD SWAP1 POP SWAP3 SWAP2 POP POP JUMP JUMPDEST PUSH1 0x0 DUP2 SWAP1 POP SWAP3 SWAP2 POP POP JUMP JUMPDEST PUSH1 0x0 DUP3 DUP3 MSTORE PUSH1 0x20 DUP3 ADD SWAP1 POP SWAP3 SWAP2 POP POP JUMP JUMPDEST PUSH1 0x0 DUP2 SWAP1 POP SWAP3 SWAP2 POP POP JUMP JUMPDEST PUSH1 0x0 PUSH2 0x39A1 DUP3 PUSH2 0x3A0E JUMP JUMPDEST SWAP1 POP SWAP2 SWAP1 POP JUMP JUMPDEST PUSH1 0x0 DUP2 ISZERO ISZERO SWAP1 POP SWAP2 SWAP1 POP JUMP JUMPDEST PUSH1 0x0 DUP2 SWAP1 POP SWAP2 SWAP1 POP JUMP JUMPDEST PUSH1 0x0 PUSH32 0xFFFFFFFF00000000000000000000000000000000000000000000000000000000 DUP3 AND SWAP1 POP SWAP2 SWAP1 POP JUMP JUMPDEST PUSH1 0x0 PUSH2 0x39F5 DUP3 PUSH2 0x3996 JUMP JUMPDEST SWAP1 POP SWAP2 SWAP1 POP JUMP JUMPDEST PUSH1 0x0 PUSH2 0x3A07 DUP3 PUSH2 0x3996 JUMP JUMPDEST SWAP1 POP SWAP2 SWAP1 POP JUMP JUMPDEST PUSH1 0x0 PUSH20 0xFFFFFFFFFFFFFFFFFFFFFFFFFFFFFFFFFFFFFFFF DUP3 AND SWAP1 POP SWAP2 SWAP1 POP JUMP JUMPDEST PUSH1 0x0 DUP2 SWAP1 POP SWAP2 SWAP1 POP JUMP JUMPDEST PUSH1 0x0 PUSH2 0x3A43 DUP3 PUSH2 0x3A6E JUMP JUMPDEST SWAP1 POP SWAP2 SWAP1 POP JUMP JUMPDEST PUSH1 0x0 PUSH2 0x3A55 DUP3 PUSH2 0x3A5C JUMP JUMPDEST SWAP1 POP SWAP2 SWAP1 POP JUMP JUMPDEST PUSH1 0x0 PUSH2 0x3A67 DUP3 PUSH2 0x3A0E JUMP JUMPDEST SWAP1 POP SWAP2 SWAP1 POP JUMP JUMPDEST PUSH1 0x0 PUSH2 0x3A79 DUP3 PUSH2 0x3A80 JUMP JUMPDEST SWAP1 POP SWAP2 SWAP1 POP JUMP JUMPDEST PUSH1 0x0 PUSH2 0x3A8B DUP3 PUSH2 0x3A0E JUMP JUMPDEST SWAP1 POP SWAP2 SWAP1 POP JUMP JUMPDEST DUP3 DUP2 DUP4 CALLDATACOPY PUSH1 0x0 DUP4 DUP4 ADD MSTORE POP POP POP JUMP JUMPDEST PUSH1 0x0 JUMPDEST DUP4 DUP2 LT ISZERO PUSH2 0x3ABF JUMPI DUP1 DUP3 ADD MLOAD DUP2 DUP5 ADD MSTORE PUSH1 0x20 DUP2 ADD SWAP1 POP PUSH2 0x3AA4 JUMP JUMPDEST DUP4 DUP2 GT ISZERO PUSH2 0x3ACE JUMPI PUSH1 0x0 DUP5 DUP5 ADD MSTORE JUMPDEST POP POP POP POP JUMP JUMPDEST PUSH1 0x0 PUSH1 0x1F NOT PUSH1 0x1F DUP4 ADD AND SWAP1 POP SWAP2 SWAP1 POP JUMP JUMPDEST PUSH2 0x3AEE DUP2 PUSH2 0x3996 JUMP JUMPDEST DUP2 EQ PUSH2 0x3AF9 JUMPI PUSH1 0x0 DUP1 REVERT JUMPDEST POP JUMP JUMPDEST PUSH2 0x3B05 DUP2 PUSH2 0x39A8 JUMP JUMPDEST DUP2 EQ PUSH2 0x3B10 JUMPI PUSH1 0x0 DUP1 REVERT JUMPDEST POP JUMP JUMPDEST PUSH2 0x3B1C DUP2 PUSH2 0x39B4 JUMP JUMPDEST DUP2 EQ PUSH2 0x3B27 JUMPI PUSH1 0x0 DUP1 REVERT JUMPDEST POP JUMP JUMPDEST PUSH2 0x3B33 DUP2 PUSH2 0x39BE JUMP JUMPDEST DUP2 EQ PUSH2 0x3B3E JUMPI PUSH1 0x0 DUP1 REVERT JUMPDEST POP JUMP JUMPDEST PUSH2 0x3B4A DUP2 PUSH2 0x39EA JUMP JUMPDEST DUP2 EQ PUSH2 0x3B55 JUMPI PUSH1 0x0 DUP1 REVERT JUMPDEST POP JUMP JUMPDEST PUSH2 0x3B61 DUP2 PUSH2 0x39FC JUMP JUMPDEST DUP2 EQ PUSH2 0x3B6C JUMPI PUSH1 0x0 DUP1 REVERT JUMPDEST POP JUMP JUMPDEST PUSH1 0x3 DUP2 LT PUSH2 0x3B7C JUMPI PUSH1 0x0 DUP1 REVERT JUMPDEST POP JUMP JUMPDEST PUSH2 0x3B88 DUP2 PUSH2 0x3A2E JUMP JUMPDEST DUP2 EQ PUSH2 0x3B93 JUMPI PUSH1 0x0 DUP1 REVERT JUMPDEST POP JUMP INVALID SELFBALANCE 0x4F JUMP GASLIMIT MSTORE 0x4E 0x5F GASLIMIT SLOAD 0x48 0x5F DIFFICULTY GASLIMIT POP 0x4F MSTORE8 0x49 SLOAD 0x5F COINBASE 0x4D 0x4F SSTORE 0x4E SLOAD 0x5F 0x4D 0x49 MSTORE8 0x4D COINBASE SLOAD NUMBER 0x48 LOG2 PUSH5 0x6970667358 0x22 SLT KECCAK256 BLOCKHASH EXTCODESIZE NOT SELFDESTRUCT 0xBE SWAP16 PUSH32 0x5FDF040387800A58DE38B80D15A98FA4B47D2AEA752B1B41F664736F6C634300 MOD ADDMOD STOP CALLER "
				},
				"gasEstimates": {
					"creation": {
						"codeDepositCost": "3068400",
						"executionCost": "infinite",
						"totalCost": "infinite"
					},
					"external": {
						"": "infinite",
						"ROOT_ROLE()": "466",
						"bulk((uint8,bytes4,address)[])": "infinite",
						"deposit(address,uint256,string)": "infinite",
						"exec((address,uint256,bytes)[],bytes32,bytes32)": "infinite",
						"freeze(bytes4)": "infinite",
						"grant(bytes4,address)": "infinite",
						"grantWithOracle(bytes4,address,address)": "infinite",
						"initBlocks(string)": "infinite",
						"initialize(address)": "infinite",
						"isFrozen(bytes4)": "1699",
						"isValidSignature(bytes32,bytes)": "infinite",
						"registerStandardAndCallback(bytes4,bytes4,bytes4)": "infinite",
						"revoke(bytes4,address)": "infinite",
						"roles(bytes4,address)": "infinite",
						"setSignatureValidator(address)": "infinite",
						"supportsInterface(bytes4)": "1665",
						"withdraw(address,address,address,uint256,string)": "infinite"
					}
				},
				"methodIdentifiers": {
					"ROOT_ROLE()": "7e8c7f08",
					"bulk((uint8,bytes4,address)[])": "1c47671b",
					"deposit(address,uint256,string)": "bfe07da6",
					"exec((address,uint256,bytes)[],bytes32,bytes32)": "c2d85afc",
					"freeze(bytes4)": "bdf9a726",
					"grant(bytes4,address)": "a157a10d",
					"grantWithOracle(bytes4,address,address)": "a2157227",
					"initBlocks(string)": "cc1d4cab",
					"initialize(address)": "c4d66de8",
					"isFrozen(bytes4)": "495a9825",
					"isValidSignature(bytes32,bytes)": "1626ba7e",
					"registerStandardAndCallback(bytes4,bytes4,bytes4)": "a43e2533",
					"revoke(bytes4,address)": "58849734",
					"roles(bytes4,address)": "96fc8abd",
					"setSignatureValidator(address)": "3e2ab0d9",
					"supportsInterface(bytes4)": "01ffc9a7",
					"withdraw(address,address,address,uint256,string)": "26abeb64"
				}
			},
			"storageLayout": {
				"storage": [
					{
						"astId": 516,
						"contract": "contracts/Govern.sol:Govern",
						"label": "standardSupported",
						"offset": 0,
						"slot": "0",
						"type": "t_mapping(t_bytes4,t_bool)"
					},
					{
						"astId": 520,
						"contract": "contracts/Govern.sol:Govern",
						"label": "callbackMagicNumbers",
						"offset": 0,
						"slot": "1",
						"type": "t_mapping(t_bytes4,t_bytes32)"
					},
					{
						"astId": 1690,
						"contract": "contracts/Govern.sol:Govern",
						"label": "initBlocks",
						"offset": 0,
						"slot": "2",
						"type": "t_mapping(t_string_memory_ptr,t_uint256)"
					},
					{
						"astId": 66,
						"contract": "contracts/Govern.sol:Govern",
						"label": "roles",
						"offset": 0,
						"slot": "3",
						"type": "t_mapping(t_bytes4,t_mapping(t_address,t_address))"
					},
					{
						"astId": 1079,
						"contract": "contracts/Govern.sol:Govern",
						"label": "signatureValidator",
						"offset": 0,
						"slot": "4",
						"type": "t_contract(ERC1271)744"
					}
				],
				"types": {
					"t_address": {
						"encoding": "inplace",
						"label": "address",
						"numberOfBytes": "20"
					},
					"t_bool": {
						"encoding": "inplace",
						"label": "bool",
						"numberOfBytes": "1"
					},
					"t_bytes32": {
						"encoding": "inplace",
						"label": "bytes32",
						"numberOfBytes": "32"
					},
					"t_bytes4": {
						"encoding": "inplace",
						"label": "bytes4",
						"numberOfBytes": "4"
					},
					"t_contract(ERC1271)744": {
						"encoding": "inplace",
						"label": "contract ERC1271",
						"numberOfBytes": "20"
					},
					"t_mapping(t_address,t_address)": {
						"encoding": "mapping",
						"key": "t_address",
						"label": "mapping(address => address)",
						"numberOfBytes": "32",
						"value": "t_address"
					},
					"t_mapping(t_bytes4,t_bool)": {
						"encoding": "mapping",
						"key": "t_bytes4",
						"label": "mapping(bytes4 => bool)",
						"numberOfBytes": "32",
						"value": "t_bool"
					},
					"t_mapping(t_bytes4,t_bytes32)": {
						"encoding": "mapping",
						"key": "t_bytes4",
						"label": "mapping(bytes4 => bytes32)",
						"numberOfBytes": "32",
						"value": "t_bytes32"
					},
					"t_mapping(t_bytes4,t_mapping(t_address,t_address))": {
						"encoding": "mapping",
						"key": "t_bytes4",
						"label": "mapping(bytes4 => mapping(address => address))",
						"numberOfBytes": "32",
						"value": "t_mapping(t_address,t_address)"
					},
					"t_mapping(t_string_memory_ptr,t_uint256)": {
						"encoding": "mapping",
						"key": "t_string_memory_ptr",
						"label": "mapping(string => uint256)",
						"numberOfBytes": "32",
						"value": "t_uint256"
					},
					"t_string_memory_ptr": {
						"encoding": "bytes",
						"label": "string",
						"numberOfBytes": "32"
					},
					"t_uint256": {
						"encoding": "inplace",
						"label": "uint256",
						"numberOfBytes": "32"
					}
				}
			},
			"userdoc": {
				"methods": {}
			}
		}
	}
}