{
	"contracts/ACL.sol": {
		"ACL": {
			"abi": [
				{
					"inputs": [
						{
							"internalType": "address",
							"name": "_initialRoot",
							"type": "address"
						}
					],
					"stateMutability": "nonpayable",
					"type": "constructor"
				},
				{
					"anonymous": false,
					"inputs": [
						{
							"indexed": true,
							"internalType": "bytes4",
							"name": "role",
							"type": "bytes4"
						},
						{
							"indexed": true,
							"internalType": "address",
							"name": "actor",
							"type": "address"
						}
					],
					"name": "Frozen",
					"type": "event"
				},
				{
					"anonymous": false,
					"inputs": [
						{
							"indexed": true,
							"internalType": "bytes4",
							"name": "role",
							"type": "bytes4"
						},
						{
							"indexed": true,
							"internalType": "address",
							"name": "actor",
							"type": "address"
						},
						{
							"indexed": true,
							"internalType": "address",
							"name": "who",
							"type": "address"
						},
						{
							"indexed": false,
							"internalType": "contract IACLOracle",
							"name": "oracle",
							"type": "address"
						}
					],
					"name": "Granted",
					"type": "event"
				},
				{
					"anonymous": false,
					"inputs": [
						{
							"indexed": true,
							"internalType": "string",
							"name": "key",
							"type": "string"
						}
					],
					"name": "Initialized",
					"type": "event"
				},
				{
					"anonymous": false,
					"inputs": [
						{
							"indexed": true,
							"internalType": "bytes4",
							"name": "role",
							"type": "bytes4"
						},
						{
							"indexed": true,
							"internalType": "address",
							"name": "actor",
							"type": "address"
						},
						{
							"indexed": true,
							"internalType": "address",
							"name": "who",
							"type": "address"
						}
					],
					"name": "Revoked",
					"type": "event"
				},
				{
					"inputs": [],
					"name": "ROOT_ROLE",
					"outputs": [
						{
							"internalType": "bytes4",
							"name": "",
							"type": "bytes4"
						}
					],
					"stateMutability": "view",
					"type": "function"
				},
				{
					"inputs": [
						{
							"components": [
								{
									"internalType": "enum ACLData.BulkOp",
									"name": "op",
									"type": "uint8"
								},
								{
									"internalType": "bytes4",
									"name": "role",
									"type": "bytes4"
								},
								{
									"internalType": "address",
									"name": "who",
									"type": "address"
								}
							],
							"internalType": "struct ACLData.BulkItem[]",
							"name": "items",
							"type": "tuple[]"
						}
					],
					"name": "bulk",
					"outputs": [],
					"stateMutability": "nonpayable",
					"type": "function"
				},
				{
					"inputs": [
						{
							"internalType": "bytes4",
							"name": "_role",
							"type": "bytes4"
						}
					],
					"name": "freeze",
					"outputs": [],
					"stateMutability": "nonpayable",
					"type": "function"
				},
				{
					"inputs": [
						{
							"internalType": "bytes4",
							"name": "_role",
							"type": "bytes4"
						},
						{
							"internalType": "address",
							"name": "_who",
							"type": "address"
						}
					],
					"name": "grant",
					"outputs": [],
					"stateMutability": "nonpayable",
					"type": "function"
				},
				{
					"inputs": [
						{
							"internalType": "bytes4",
							"name": "_role",
							"type": "bytes4"
						},
						{
							"internalType": "address",
							"name": "_who",
							"type": "address"
						},
						{
							"internalType": "contract IACLOracle",
							"name": "_oracle",
							"type": "address"
						}
					],
					"name": "grantWithOracle",
					"outputs": [],
					"stateMutability": "nonpayable",
					"type": "function"
				},
				{
					"inputs": [
						{
							"internalType": "string",
							"name": "",
							"type": "string"
						}
					],
					"name": "initBlocks",
					"outputs": [
						{
							"internalType": "uint256",
							"name": "",
							"type": "uint256"
						}
					],
					"stateMutability": "view",
					"type": "function"
				},
				{
					"inputs": [
						{
							"internalType": "bytes4",
							"name": "_role",
							"type": "bytes4"
						}
					],
					"name": "isFrozen",
					"outputs": [
						{
							"internalType": "bool",
							"name": "",
							"type": "bool"
						}
					],
					"stateMutability": "view",
					"type": "function"
				},
				{
					"inputs": [
						{
							"internalType": "bytes4",
							"name": "_role",
							"type": "bytes4"
						},
						{
							"internalType": "address",
							"name": "_who",
							"type": "address"
						}
					],
					"name": "revoke",
					"outputs": [],
					"stateMutability": "nonpayable",
					"type": "function"
				},
				{
					"inputs": [
						{
							"internalType": "bytes4",
							"name": "",
							"type": "bytes4"
						},
						{
							"internalType": "address",
							"name": "",
							"type": "address"
						}
					],
					"name": "roles",
					"outputs": [
						{
							"internalType": "address",
							"name": "",
							"type": "address"
						}
					],
					"stateMutability": "view",
					"type": "function"
				}
			],
			"devdoc": {
				"methods": {}
			},
			"evm": {
				"assembly": "    /* \"contracts/ACL.sol\":335:4763  contract ACL is Initializable {\r... */\n  mstore(0x40, 0x80)\n    /* \"contracts/ACL.sol\":1756:1822  constructor(address _initialRoot) public initACL(_initialRoot) { } */\n  callvalue\n    /* \"--CODEGEN--\":5:14   */\n  dup1\n    /* \"--CODEGEN--\":2:4   */\n  iszero\n  tag_1\n  jumpi\n    /* \"--CODEGEN--\":27:28   */\n  0x00\n    /* \"--CODEGEN--\":24:25   */\n  dup1\n    /* \"--CODEGEN--\":17:29   */\n  revert\n    /* \"--CODEGEN--\":2:4   */\ntag_1:\n    /* \"contracts/ACL.sol\":1756:1822  constructor(address _initialRoot) public initACL(_initialRoot) { } */\n  pop\n  mload(0x40)\n  sub(codesize, bytecodeSize)\n  dup1\n  bytecodeSize\n  dup4\n  codecopy\n  dup2\n  dup2\n  add\n  0x40\n  mstore\n  dup2\n  add\n  swap1\n  tag_2\n  swap2\n  swap1\n  jump(tag_3)\ntag_2:\n    /* \"contracts/ACL.sol\":1805:1817  _initialRoot */\n  dup1\n    /* \"contracts/ACL.sol\":1553:1554  0 */\n  0x00\n    /* \"contracts/ACL.sol\":1532:1542  initBlocks */\n  dup1\n    /* \"contracts/ACL.sol\":1532:1549  initBlocks[\"acl\"] */\n  mload(0x40)\n  tag_6\n  swap1\n  jump(tag_7)\ntag_6:\n  swap1\n  dup2\n  mstore\n  0x20\n  add\n  mload(0x40)\n  dup1\n  swap2\n  sub\n  swap1\n  keccak256\n  sload\n    /* \"contracts/ACL.sol\":1532:1554  initBlocks[\"acl\"] == 0 */\n  eq\n    /* \"contracts/ACL.sol\":1528:1729  if (initBlocks[\"acl\"] == 0) {\r... */\n  iszero\n  tag_8\n  jumpi\n    /* \"contracts/ACL.sol\":1571:1599  _initializeACL(_initialRoot) */\n  tag_9\n    /* \"contracts/ACL.sol\":1586:1598  _initialRoot */\n  dup2\n    /* \"contracts/ACL.sol\":1571:1585  _initializeACL */\n  shl(0x20, tag_10)\n    /* \"contracts/ACL.sol\":1571:1599  _initializeACL(_initialRoot) */\n  0x20\n  shr\n  jump\t// in\ntag_9:\n    /* \"contracts/ACL.sol\":1528:1729  if (initBlocks[\"acl\"] == 0) {\r... */\n  jump(tag_11)\ntag_8:\n    /* \"contracts/ACL.sol\":830:831  2 */\n  0x02\n    /* \"contracts/ACL.sol\":1640:1684  roles[ROOT_ROLE][_initialRoot] == ALLOW_FLAG */\n  0xffffffffffffffffffffffffffffffffffffffff\n  and\n    /* \"contracts/ACL.sol\":1640:1645  roles */\n  0x01\n    /* \"contracts/ACL.sol\":1640:1656  roles[ROOT_ROLE] */\n  0x00\n    /* \"contracts/ACL.sol\":511:529  this.bulk.selector */\n  shl(0xe0, 0x1c47671b)\n    /* \"contracts/ACL.sol\":479:499  this.freeze.selector */\n  shl(0xe0, 0xbdf9a726)\n    /* \"contracts/ACL.sol\":447:467  this.revoke.selector */\n  shl(0xe0, 0x58849734)\n    /* \"contracts/ACL.sol\":416:435  this.grant.selector */\n  shl(0xe0, 0xa157a10d)\n    /* \"contracts/ACL.sol\":416:467  this.grant.selector\r... */\n  xor\n    /* \"contracts/ACL.sol\":416:499  this.grant.selector\r... */\n  xor\n    /* \"contracts/ACL.sol\":416:529  this.grant.selector\r... */\n  xor\n    /* \"contracts/ACL.sol\":1640:1656  roles[ROOT_ROLE] */\n  not(0xffffffffffffffffffffffffffffffffffffffffffffffffffffffff)\n  and\n  not(0xffffffffffffffffffffffffffffffffffffffffffffffffffffffff)\n  and\n  dup2\n  mstore\n  0x20\n  add\n  swap1\n  dup2\n  mstore\n  0x20\n  add\n  0x00\n  keccak256\n    /* \"contracts/ACL.sol\":1640:1670  roles[ROOT_ROLE][_initialRoot] */\n  0x00\n    /* \"contracts/ACL.sol\":1657:1669  _initialRoot */\n  dup4\n    /* \"contracts/ACL.sol\":1640:1670  roles[ROOT_ROLE][_initialRoot] */\n  0xffffffffffffffffffffffffffffffffffffffff\n  and\n  0xffffffffffffffffffffffffffffffffffffffff\n  and\n  dup2\n  mstore\n  0x20\n  add\n  swap1\n  dup2\n  mstore\n  0x20\n  add\n  0x00\n  keccak256\n  0x00\n  swap1\n  sload\n  swap1\n  0x0100\n  exp\n  swap1\n  div\n  0xffffffffffffffffffffffffffffffffffffffff\n  and\n    /* \"contracts/ACL.sol\":1640:1684  roles[ROOT_ROLE][_initialRoot] == ALLOW_FLAG */\n  0xffffffffffffffffffffffffffffffffffffffff\n  and\n  eq\n    /* \"contracts/ACL.sol\":1632:1717  require(roles[ROOT_ROLE][_initialRoot] == ALLOW_FLAG, \"acl: initial root misaligned\") */\n  tag_12\n  jumpi\n  mload(0x40)\n  0x08c379a000000000000000000000000000000000000000000000000000000000\n  dup2\n  mstore\n  0x04\n  add\n  tag_13\n  swap1\n  jump(tag_14)\ntag_13:\n  mload(0x40)\n  dup1\n  swap2\n  sub\n  swap1\n  revert\ntag_12:\n    /* \"contracts/ACL.sol\":1528:1729  if (initBlocks[\"acl\"] == 0) {\r... */\ntag_11:\n    /* \"contracts/ACL.sol\":1756:1822  constructor(address _initialRoot) public initACL(_initialRoot) { } */\n  pop\n  pop\n    /* \"contracts/ACL.sol\":335:4763  contract ACL is Initializable {\r... */\n  jump(tag_16)\n    /* \"contracts/ACL.sol\":3181:3302  function _initializeACL(address _initialRoot) internal onlyInit(\"acl\") {\r... */\ntag_10:\n    /* \"contracts/Initializable.sol\":203:411  modifier onlyInit(string memory key) {\r... */\n  mload(0x40)\n  dup1\n  0x40\n  add\n  0x40\n  mstore\n  dup1\n  0x03\n  dup2\n  mstore\n  0x20\n  add\n  0x61636c0000000000000000000000000000000000000000000000000000000000\n  dup2\n  mstore\n  pop\n    /* \"contracts/Initializable.sol\":278:279  0 */\n  0x00\n    /* \"contracts/Initializable.sol\":259:269  initBlocks */\n  dup1\n    /* \"contracts/Initializable.sol\":270:273  key */\n  dup3\n    /* \"contracts/Initializable.sol\":259:274  initBlocks[key] */\n  mload(0x40)\n  tag_18\n  swap2\n  swap1\n  jump(tag_19)\ntag_18:\n  swap1\n  dup2\n  mstore\n  0x20\n  add\n  mload(0x40)\n  dup1\n  swap2\n  sub\n  swap1\n  keccak256\n  sload\n    /* \"contracts/Initializable.sol\":259:279  initBlocks[key] == 0 */\n  eq\n    /* \"contracts/Initializable.sol\":251:318  require(initBlocks[key] == 0, \"initializable: already initialized\") */\n  tag_20\n  jumpi\n  mload(0x40)\n  0x08c379a000000000000000000000000000000000000000000000000000000000\n  dup2\n  mstore\n  0x04\n  add\n  tag_21\n  swap1\n  jump(tag_22)\ntag_21:\n  mload(0x40)\n  dup1\n  swap2\n  sub\n  swap1\n  revert\ntag_20:\n    /* \"contracts/Initializable.sol\":347:359  block.number */\n  number\n    /* \"contracts/Initializable.sol\":329:339  initBlocks */\n  0x00\n    /* \"contracts/Initializable.sol\":340:343  key */\n  dup3\n    /* \"contracts/Initializable.sol\":329:344  initBlocks[key] */\n  mload(0x40)\n  tag_23\n  swap2\n  swap1\n  jump(tag_19)\ntag_23:\n  swap1\n  dup2\n  mstore\n  0x20\n  add\n  mload(0x40)\n  dup1\n  swap2\n  sub\n  swap1\n  keccak256\n    /* \"contracts/Initializable.sol\":329:359  initBlocks[key] = block.number */\n  dup2\n  swap1\n  sstore\n  pop\n    /* \"contracts/ACL.sol\":3263:3294  _grant(ROOT_ROLE, _initialRoot) */\n  tag_25\n    /* \"contracts/ACL.sol\":511:529  this.bulk.selector */\n  shl(0xe0, 0x1c47671b)\n    /* \"contracts/ACL.sol\":479:499  this.freeze.selector */\n  shl(0xe0, 0xbdf9a726)\n    /* \"contracts/ACL.sol\":447:467  this.revoke.selector */\n  shl(0xe0, 0x58849734)\n    /* \"contracts/ACL.sol\":416:435  this.grant.selector */\n  shl(0xe0, 0xa157a10d)\n    /* \"contracts/ACL.sol\":416:467  this.grant.selector\r... */\n  xor\n    /* \"contracts/ACL.sol\":416:499  this.grant.selector\r... */\n  xor\n    /* \"contracts/ACL.sol\":416:529  this.grant.selector\r... */\n  xor\n    /* \"contracts/ACL.sol\":3281:3293  _initialRoot */\n  dup4\n    /* \"contracts/ACL.sol\":3263:3269  _grant */\n  shl(0x20, tag_26)\n    /* \"contracts/ACL.sol\":3263:3294  _grant(ROOT_ROLE, _initialRoot) */\n  0x20\n  shr\n  jump\t// in\ntag_25:\n    /* \"contracts/Initializable.sol\":399:402  key */\n  dup1\n    /* \"contracts/Initializable.sol\":387:403  Initialized(key) */\n  mload(0x40)\n  tag_27\n  swap2\n  swap1\n  jump(tag_19)\ntag_27:\n  mload(0x40)\n  dup1\n  swap2\n  sub\n  swap1\n  keccak256\n  0x7bc2a48a4a566e237a12186f19d985b0f76afc9d5290601edac19876253670c2\n  mload(0x40)\n  mload(0x40)\n  dup1\n  swap2\n  sub\n  swap1\n  log2\n    /* \"contracts/ACL.sol\":3181:3302  function _initializeACL(address _initialRoot) internal onlyInit(\"acl\") {\r... */\n  pop\n  pop\n  jump\t// out\n    /* \"contracts/ACL.sol\":3310:3435  function _grant(bytes4 _role, address _who) internal {\r... */\ntag_26:\n    /* \"contracts/ACL.sol\":3374:3427  _grantWithOracle(_role, _who, IACLOracle(ALLOW_FLAG)) */\n  tag_29\n    /* \"contracts/ACL.sol\":3391:3396  _role */\n  dup3\n    /* \"contracts/ACL.sol\":3398:3402  _who */\n  dup3\n    /* \"contracts/ACL.sol\":830:831  2 */\n  0x02\n    /* \"contracts/ACL.sol\":3374:3390  _grantWithOracle */\n  shl(0x20, tag_30)\n    /* \"contracts/ACL.sol\":3374:3427  _grantWithOracle(_role, _who, IACLOracle(ALLOW_FLAG)) */\n  0x20\n  shr\n  jump\t// in\ntag_29:\n    /* \"contracts/ACL.sol\":3310:3435  function _grant(bytes4 _role, address _who) internal {\r... */\n  pop\n  pop\n  jump\t// out\n    /* \"contracts/ACL.sol\":3443:3750  function _grantWithOracle(bytes4 _role, address _who, IACLOracle _oracle) internal {\r... */\ntag_30:\n    /* \"contracts/ACL.sol\":3546:3561  isFrozen(_role) */\n  tag_32\n    /* \"contracts/ACL.sol\":3555:3560  _role */\n  dup4\n    /* \"contracts/ACL.sol\":3546:3554  isFrozen */\n  shl(0x20, tag_33)\n    /* \"contracts/ACL.sol\":3546:3561  isFrozen(_role) */\n  0x20\n  shr\n  jump\t// in\ntag_32:\n    /* \"contracts/ACL.sol\":3545:3561  !isFrozen(_role) */\n  iszero\n    /* \"contracts/ACL.sol\":3537:3577  require(!isFrozen(_role), \"acl: frozen\") */\n  tag_34\n  jumpi\n  mload(0x40)\n  0x08c379a000000000000000000000000000000000000000000000000000000000\n  dup2\n  mstore\n  0x04\n  add\n  tag_35\n  swap1\n  jump(tag_36)\ntag_35:\n  mload(0x40)\n  dup1\n  swap2\n  sub\n  swap1\n  revert\ntag_34:\n    /* \"contracts/ACL.sol\":752:753  1 */\n  0x01\n    /* \"contracts/ACL.sol\":3596:3615  _who != FREEZE_FLAG */\n  0xffffffffffffffffffffffffffffffffffffffff\n  and\n    /* \"contracts/ACL.sol\":3596:3600  _who */\n  dup3\n    /* \"contracts/ACL.sol\":3596:3615  _who != FREEZE_FLAG */\n  0xffffffffffffffffffffffffffffffffffffffff\n  and\n  eq\n  iszero\n    /* \"contracts/ACL.sol\":3588:3635  require(_who != FREEZE_FLAG, \"acl: bad freeze\") */\n  tag_37\n  jumpi\n  mload(0x40)\n  0x08c379a000000000000000000000000000000000000000000000000000000000\n  dup2\n  mstore\n  0x04\n  add\n  tag_38\n  swap1\n  jump(tag_39)\ntag_38:\n  mload(0x40)\n  dup1\n  swap2\n  sub\n  swap1\n  revert\ntag_37:\n    /* \"contracts/ACL.sol\":3677:3684  _oracle */\n  dup1\n    /* \"contracts/ACL.sol\":3648:3653  roles */\n  0x01\n    /* \"contracts/ACL.sol\":3648:3660  roles[_role] */\n  0x00\n    /* \"contracts/ACL.sol\":3654:3659  _role */\n  dup6\n    /* \"contracts/ACL.sol\":3648:3660  roles[_role] */\n  not(0xffffffffffffffffffffffffffffffffffffffffffffffffffffffff)\n  and\n  not(0xffffffffffffffffffffffffffffffffffffffffffffffffffffffff)\n  and\n  dup2\n  mstore\n  0x20\n  add\n  swap1\n  dup2\n  mstore\n  0x20\n  add\n  0x00\n  keccak256\n    /* \"contracts/ACL.sol\":3648:3666  roles[_role][_who] */\n  0x00\n    /* \"contracts/ACL.sol\":3661:3665  _who */\n  dup5\n    /* \"contracts/ACL.sol\":3648:3666  roles[_role][_who] */\n  0xffffffffffffffffffffffffffffffffffffffff\n  and\n  0xffffffffffffffffffffffffffffffffffffffff\n  and\n  dup2\n  mstore\n  0x20\n  add\n  swap1\n  dup2\n  mstore\n  0x20\n  add\n  0x00\n  keccak256\n  0x00\n    /* \"contracts/ACL.sol\":3648:3685  roles[_role][_who] = address(_oracle) */\n  0x0100\n  exp\n  dup2\n  sload\n  dup2\n  0xffffffffffffffffffffffffffffffffffffffff\n  mul\n  not\n  and\n  swap1\n  dup4\n  0xffffffffffffffffffffffffffffffffffffffff\n  and\n  mul\n  or\n  swap1\n  sstore\n  pop\n    /* \"contracts/ACL.sol\":3728:3732  _who */\n  dup2\n    /* \"contracts/ACL.sol\":3701:3742  Granted(_role, msg.sender, _who, _oracle) */\n  0xffffffffffffffffffffffffffffffffffffffff\n  and\n    /* \"contracts/ACL.sol\":3716:3726  msg.sender */\n  caller\n    /* \"contracts/ACL.sol\":3701:3742  Granted(_role, msg.sender, _who, _oracle) */\n  0xffffffffffffffffffffffffffffffffffffffff\n  and\n    /* \"contracts/ACL.sol\":3709:3714  _role */\n  dup5\n    /* \"contracts/ACL.sol\":3701:3742  Granted(_role, msg.sender, _who, _oracle) */\n  not(0xffffffffffffffffffffffffffffffffffffffffffffffffffffffff)\n  and\n  0xc62063b81f7036fd97a0dc546516e99f11004d2d76ca0fddd3866346c86e7091\n    /* \"contracts/ACL.sol\":3734:3741  _oracle */\n  dup5\n    /* \"contracts/ACL.sol\":3701:3742  Granted(_role, msg.sender, _who, _oracle) */\n  mload(0x40)\n  tag_40\n  swap2\n  swap1\n  jump(tag_41)\ntag_40:\n  mload(0x40)\n  dup1\n  swap2\n  sub\n  swap1\n  log4\n    /* \"contracts/ACL.sol\":3443:3750  function _grantWithOracle(bytes4 _role, address _who, IACLOracle _oracle) internal {\r... */\n  pop\n  pop\n  pop\n  jump\t// out\n    /* \"contracts/ACL.sol\":3048:3173  function isFrozen(bytes4 _role) public view returns (bool) {\r... */\ntag_33:\n    /* \"contracts/ACL.sol\":3101:3105  bool */\n  0x00\n    /* \"contracts/ACL.sol\":752:753  1 */\n  0x01\n    /* \"contracts/ACL.sol\":3125:3165  roles[_role][FREEZE_FLAG] == FREEZE_FLAG */\n  0xffffffffffffffffffffffffffffffffffffffff\n  and\n    /* \"contracts/ACL.sol\":3125:3130  roles */\n  0x01\n    /* \"contracts/ACL.sol\":3125:3137  roles[_role] */\n  0x00\n    /* \"contracts/ACL.sol\":3131:3136  _role */\n  dup5\n    /* \"contracts/ACL.sol\":3125:3137  roles[_role] */\n  not(0xffffffffffffffffffffffffffffffffffffffffffffffffffffffff)\n  and\n  not(0xffffffffffffffffffffffffffffffffffffffffffffffffffffffff)\n  and\n  dup2\n  mstore\n  0x20\n  add\n  swap1\n  dup2\n  mstore\n  0x20\n  add\n  0x00\n  keccak256\n    /* \"contracts/ACL.sol\":3125:3150  roles[_role][FREEZE_FLAG] */\n  0x00\n    /* \"contracts/ACL.sol\":752:753  1 */\n  0x01\n    /* \"contracts/ACL.sol\":3125:3150  roles[_role][FREEZE_FLAG] */\n  0xffffffffffffffffffffffffffffffffffffffff\n  and\n  0xffffffffffffffffffffffffffffffffffffffff\n  and\n  dup2\n  mstore\n  0x20\n  add\n  swap1\n  dup2\n  mstore\n  0x20\n  add\n  0x00\n  keccak256\n  0x00\n  swap1\n  sload\n  swap1\n  0x0100\n  exp\n  swap1\n  div\n  0xffffffffffffffffffffffffffffffffffffffff\n  and\n    /* \"contracts/ACL.sol\":3125:3165  roles[_role][FREEZE_FLAG] == FREEZE_FLAG */\n  0xffffffffffffffffffffffffffffffffffffffff\n  and\n  eq\n    /* \"contracts/ACL.sol\":3118:3165  return roles[_role][FREEZE_FLAG] == FREEZE_FLAG */\n  swap1\n  pop\n    /* \"contracts/ACL.sol\":3048:3173  function isFrozen(bytes4 _role) public view returns (bool) {\r... */\n  swap2\n  swap1\n  pop\n  jump\t// out\n    /* \"--CODEGEN--\":5:139   */\ntag_44:\n  0x00\n    /* \"--CODEGEN--\":89:95   */\n  dup2\n    /* \"--CODEGEN--\":83:96   */\n  mload\n    /* \"--CODEGEN--\":74:96   */\n  swap1\n  pop\n    /* \"--CODEGEN--\":101:134   */\n  tag_46\n    /* \"--CODEGEN--\":128:133   */\n  dup2\n    /* \"--CODEGEN--\":101:134   */\n  jump(tag_47)\ntag_46:\n    /* \"--CODEGEN--\":68:139   */\n  swap3\n  swap2\n  pop\n  pop\n  jump\n    /* \"--CODEGEN--\":146:409   */\ntag_3:\n  0x00\n    /* \"--CODEGEN--\":261:263   */\n  0x20\n    /* \"--CODEGEN--\":249:258   */\n  dup3\n    /* \"--CODEGEN--\":240:247   */\n  dup5\n    /* \"--CODEGEN--\":236:259   */\n  sub\n    /* \"--CODEGEN--\":232:264   */\n  slt\n    /* \"--CODEGEN--\":229:231   */\n  iszero\n  tag_49\n  jumpi\n    /* \"--CODEGEN--\":277:278   */\n  0x00\n    /* \"--CODEGEN--\":274:275   */\n  dup1\n    /* \"--CODEGEN--\":267:279   */\n  revert\n    /* \"--CODEGEN--\":229:231   */\ntag_49:\n    /* \"--CODEGEN--\":312:313   */\n  0x00\n    /* \"--CODEGEN--\":329:393   */\n  tag_50\n    /* \"--CODEGEN--\":385:392   */\n  dup5\n    /* \"--CODEGEN--\":376:382   */\n  dup3\n    /* \"--CODEGEN--\":365:374   */\n  dup6\n    /* \"--CODEGEN--\":361:383   */\n  add\n    /* \"--CODEGEN--\":329:393   */\n  jump(tag_44)\ntag_50:\n    /* \"--CODEGEN--\":319:393   */\n  swap2\n  pop\n    /* \"--CODEGEN--\":291:399   */\n  pop\n    /* \"--CODEGEN--\":223:409   */\n  swap3\n  swap2\n  pop\n  pop\n  jump\n    /* \"--CODEGEN--\":416:578   */\ntag_51:\n    /* \"--CODEGEN--\":517:572   */\n  tag_53\n    /* \"--CODEGEN--\":566:571   */\n  dup2\n    /* \"--CODEGEN--\":517:572   */\n  jump(tag_54)\ntag_53:\n    /* \"--CODEGEN--\":512:515   */\n  dup3\n    /* \"--CODEGEN--\":505:573   */\n  mstore\n    /* \"--CODEGEN--\":499:578   */\n  pop\n  pop\n  jump\n    /* \"--CODEGEN--\":585:945   */\ntag_55:\n  0x00\n    /* \"--CODEGEN--\":715:754   */\n  tag_57\n    /* \"--CODEGEN--\":748:753   */\n  dup3\n    /* \"--CODEGEN--\":715:754   */\n  jump(tag_58)\ntag_57:\n    /* \"--CODEGEN--\":766:855   */\n  tag_59\n    /* \"--CODEGEN--\":848:854   */\n  dup2\n    /* \"--CODEGEN--\":843:846   */\n  dup6\n    /* \"--CODEGEN--\":766:855   */\n  jump(tag_60)\ntag_59:\n    /* \"--CODEGEN--\":759:855   */\n  swap4\n  pop\n    /* \"--CODEGEN--\":860:912   */\n  tag_61\n    /* \"--CODEGEN--\":905:911   */\n  dup2\n    /* \"--CODEGEN--\":900:903   */\n  dup6\n    /* \"--CODEGEN--\":893:897   */\n  0x20\n    /* \"--CODEGEN--\":886:891   */\n  dup7\n    /* \"--CODEGEN--\":882:898   */\n  add\n    /* \"--CODEGEN--\":860:912   */\n  jump(tag_62)\ntag_61:\n    /* \"--CODEGEN--\":933:939   */\n  dup1\n    /* \"--CODEGEN--\":928:931   */\n  dup5\n    /* \"--CODEGEN--\":924:940   */\n  add\n    /* \"--CODEGEN--\":917:940   */\n  swap2\n  pop\n    /* \"--CODEGEN--\":695:945   */\n  pop\n  swap3\n  swap2\n  pop\n  pop\n  jump\n    /* \"--CODEGEN--\":953:1264   */\ntag_63:\n  0x00\n    /* \"--CODEGEN--\":1113:1180   */\n  tag_65\n    /* \"--CODEGEN--\":1177:1179   */\n  0x0b\n    /* \"--CODEGEN--\":1172:1175   */\n  dup4\n    /* \"--CODEGEN--\":1113:1180   */\n  jump(tag_66)\ntag_65:\n    /* \"--CODEGEN--\":1106:1180   */\n  swap2\n  pop\n    /* \"--CODEGEN--\":1213:1226   */\n  0x61636c3a2066726f7a656e000000000000000000000000000000000000000000\n    /* \"--CODEGEN--\":1209:1210   */\n  0x00\n    /* \"--CODEGEN--\":1204:1207   */\n  dup4\n    /* \"--CODEGEN--\":1200:1211   */\n  add\n    /* \"--CODEGEN--\":1193:1227   */\n  mstore\n    /* \"--CODEGEN--\":1255:1257   */\n  0x20\n    /* \"--CODEGEN--\":1250:1253   */\n  dup3\n    /* \"--CODEGEN--\":1246:1258   */\n  add\n    /* \"--CODEGEN--\":1239:1258   */\n  swap1\n  pop\n    /* \"--CODEGEN--\":1099:1264   */\n  swap2\n  swap1\n  pop\n  jump\n    /* \"--CODEGEN--\":1273:1644   */\ntag_67:\n  0x00\n    /* \"--CODEGEN--\":1433:1500   */\n  tag_69\n    /* \"--CODEGEN--\":1497:1499   */\n  0x22\n    /* \"--CODEGEN--\":1492:1495   */\n  dup4\n    /* \"--CODEGEN--\":1433:1500   */\n  jump(tag_66)\ntag_69:\n    /* \"--CODEGEN--\":1426:1500   */\n  swap2\n  pop\n    /* \"--CODEGEN--\":1533:1567   */\n  0x696e697469616c697a61626c653a20616c726561647920696e697469616c697a\n    /* \"--CODEGEN--\":1529:1530   */\n  0x00\n    /* \"--CODEGEN--\":1524:1527   */\n  dup4\n    /* \"--CODEGEN--\":1520:1531   */\n  add\n    /* \"--CODEGEN--\":1513:1568   */\n  mstore\n    /* \"--CODEGEN--\":1602:1606   */\n  0x6564000000000000000000000000000000000000000000000000000000000000\n    /* \"--CODEGEN--\":1597:1599   */\n  0x20\n    /* \"--CODEGEN--\":1592:1595   */\n  dup4\n    /* \"--CODEGEN--\":1588:1600   */\n  add\n    /* \"--CODEGEN--\":1581:1607   */\n  mstore\n    /* \"--CODEGEN--\":1635:1637   */\n  0x40\n    /* \"--CODEGEN--\":1630:1633   */\n  dup3\n    /* \"--CODEGEN--\":1626:1638   */\n  add\n    /* \"--CODEGEN--\":1619:1638   */\n  swap1\n  pop\n    /* \"--CODEGEN--\":1419:1644   */\n  swap2\n  swap1\n  pop\n  jump\n    /* \"--CODEGEN--\":1653:1981   */\ntag_70:\n  0x00\n    /* \"--CODEGEN--\":1813:1880   */\n  tag_72\n    /* \"--CODEGEN--\":1877:1879   */\n  0x1c\n    /* \"--CODEGEN--\":1872:1875   */\n  dup4\n    /* \"--CODEGEN--\":1813:1880   */\n  jump(tag_66)\ntag_72:\n    /* \"--CODEGEN--\":1806:1880   */\n  swap2\n  pop\n    /* \"--CODEGEN--\":1913:1943   */\n  0x61636c3a20696e697469616c20726f6f74206d6973616c69676e656400000000\n    /* \"--CODEGEN--\":1909:1910   */\n  0x00\n    /* \"--CODEGEN--\":1904:1907   */\n  dup4\n    /* \"--CODEGEN--\":1900:1911   */\n  add\n    /* \"--CODEGEN--\":1893:1944   */\n  mstore\n    /* \"--CODEGEN--\":1972:1974   */\n  0x20\n    /* \"--CODEGEN--\":1967:1970   */\n  dup3\n    /* \"--CODEGEN--\":1963:1975   */\n  add\n    /* \"--CODEGEN--\":1956:1975   */\n  swap1\n  pop\n    /* \"--CODEGEN--\":1799:1981   */\n  swap2\n  swap1\n  pop\n  jump\n    /* \"--CODEGEN--\":1990:2327   */\ntag_73:\n  0x00\n    /* \"--CODEGEN--\":2168:2252   */\n  tag_75\n    /* \"--CODEGEN--\":2250:2251   */\n  0x03\n    /* \"--CODEGEN--\":2245:2248   */\n  dup4\n    /* \"--CODEGEN--\":2168:2252   */\n  jump(tag_60)\ntag_75:\n    /* \"--CODEGEN--\":2161:2252   */\n  swap2\n  pop\n    /* \"--CODEGEN--\":2285:2290   */\n  0x61636c0000000000000000000000000000000000000000000000000000000000\n    /* \"--CODEGEN--\":2281:2282   */\n  0x00\n    /* \"--CODEGEN--\":2276:2279   */\n  dup4\n    /* \"--CODEGEN--\":2272:2283   */\n  add\n    /* \"--CODEGEN--\":2265:2291   */\n  mstore\n    /* \"--CODEGEN--\":2319:2320   */\n  0x03\n    /* \"--CODEGEN--\":2314:2317   */\n  dup3\n    /* \"--CODEGEN--\":2310:2321   */\n  add\n    /* \"--CODEGEN--\":2303:2321   */\n  swap1\n  pop\n    /* \"--CODEGEN--\":2154:2327   */\n  swap2\n  swap1\n  pop\n  jump\n    /* \"--CODEGEN--\":2336:2651   */\ntag_76:\n  0x00\n    /* \"--CODEGEN--\":2496:2563   */\n  tag_78\n    /* \"--CODEGEN--\":2560:2562   */\n  0x0f\n    /* \"--CODEGEN--\":2555:2558   */\n  dup4\n    /* \"--CODEGEN--\":2496:2563   */\n  jump(tag_66)\ntag_78:\n    /* \"--CODEGEN--\":2489:2563   */\n  swap2\n  pop\n    /* \"--CODEGEN--\":2596:2613   */\n  0x61636c3a2062616420667265657a650000000000000000000000000000000000\n    /* \"--CODEGEN--\":2592:2593   */\n  0x00\n    /* \"--CODEGEN--\":2587:2590   */\n  dup4\n    /* \"--CODEGEN--\":2583:2594   */\n  add\n    /* \"--CODEGEN--\":2576:2614   */\n  mstore\n    /* \"--CODEGEN--\":2642:2644   */\n  0x20\n    /* \"--CODEGEN--\":2637:2640   */\n  dup3\n    /* \"--CODEGEN--\":2633:2645   */\n  add\n    /* \"--CODEGEN--\":2626:2645   */\n  swap1\n  pop\n    /* \"--CODEGEN--\":2482:2651   */\n  swap2\n  swap1\n  pop\n  jump\n    /* \"--CODEGEN--\":2659:2934   */\ntag_19:\n  0x00\n    /* \"--CODEGEN--\":2814:2909   */\n  tag_80\n    /* \"--CODEGEN--\":2905:2908   */\n  dup3\n    /* \"--CODEGEN--\":2896:2902   */\n  dup5\n    /* \"--CODEGEN--\":2814:2909   */\n  jump(tag_55)\ntag_80:\n    /* \"--CODEGEN--\":2807:2909   */\n  swap2\n  pop\n    /* \"--CODEGEN--\":2926:2929   */\n  dup2\n    /* \"--CODEGEN--\":2919:2929   */\n  swap1\n  pop\n    /* \"--CODEGEN--\":2795:2934   */\n  swap3\n  swap2\n  pop\n  pop\n  jump\n    /* \"--CODEGEN--\":2941:3322   */\ntag_7:\n  0x00\n    /* \"--CODEGEN--\":3149:3297   */\n  tag_82\n    /* \"--CODEGEN--\":3293:3296   */\n  dup3\n    /* \"--CODEGEN--\":3149:3297   */\n  jump(tag_73)\ntag_82:\n    /* \"--CODEGEN--\":3142:3297   */\n  swap2\n  pop\n    /* \"--CODEGEN--\":3314:3317   */\n  dup2\n    /* \"--CODEGEN--\":3307:3317   */\n  swap1\n  pop\n    /* \"--CODEGEN--\":3130:3322   */\n  swap2\n  swap1\n  pop\n  jump\n    /* \"--CODEGEN--\":3329:3587   */\ntag_41:\n  0x00\n    /* \"--CODEGEN--\":3474:3476   */\n  0x20\n    /* \"--CODEGEN--\":3463:3472   */\n  dup3\n    /* \"--CODEGEN--\":3459:3477   */\n  add\n    /* \"--CODEGEN--\":3451:3477   */\n  swap1\n  pop\n    /* \"--CODEGEN--\":3488:3577   */\n  tag_84\n    /* \"--CODEGEN--\":3574:3575   */\n  0x00\n    /* \"--CODEGEN--\":3563:3572   */\n  dup4\n    /* \"--CODEGEN--\":3559:3576   */\n  add\n    /* \"--CODEGEN--\":3550:3556   */\n  dup5\n    /* \"--CODEGEN--\":3488:3577   */\n  jump(tag_51)\ntag_84:\n    /* \"--CODEGEN--\":3445:3587   */\n  swap3\n  swap2\n  pop\n  pop\n  jump\n    /* \"--CODEGEN--\":3594:4010   */\ntag_36:\n  0x00\n    /* \"--CODEGEN--\":3794:3796   */\n  0x20\n    /* \"--CODEGEN--\":3783:3792   */\n  dup3\n    /* \"--CODEGEN--\":3779:3797   */\n  add\n    /* \"--CODEGEN--\":3771:3797   */\n  swap1\n  pop\n    /* \"--CODEGEN--\":3844:3853   */\n  dup2\n    /* \"--CODEGEN--\":3838:3842   */\n  dup2\n    /* \"--CODEGEN--\":3834:3854   */\n  sub\n    /* \"--CODEGEN--\":3830:3831   */\n  0x00\n    /* \"--CODEGEN--\":3819:3828   */\n  dup4\n    /* \"--CODEGEN--\":3815:3832   */\n  add\n    /* \"--CODEGEN--\":3808:3855   */\n  mstore\n    /* \"--CODEGEN--\":3869:4000   */\n  tag_86\n    /* \"--CODEGEN--\":3995:3999   */\n  dup2\n    /* \"--CODEGEN--\":3869:4000   */\n  jump(tag_63)\ntag_86:\n    /* \"--CODEGEN--\":3861:4000   */\n  swap1\n  pop\n    /* \"--CODEGEN--\":3765:4010   */\n  swap2\n  swap1\n  pop\n  jump\n    /* \"--CODEGEN--\":4017:4433   */\ntag_22:\n  0x00\n    /* \"--CODEGEN--\":4217:4219   */\n  0x20\n    /* \"--CODEGEN--\":4206:4215   */\n  dup3\n    /* \"--CODEGEN--\":4202:4220   */\n  add\n    /* \"--CODEGEN--\":4194:4220   */\n  swap1\n  pop\n    /* \"--CODEGEN--\":4267:4276   */\n  dup2\n    /* \"--CODEGEN--\":4261:4265   */\n  dup2\n    /* \"--CODEGEN--\":4257:4277   */\n  sub\n    /* \"--CODEGEN--\":4253:4254   */\n  0x00\n    /* \"--CODEGEN--\":4242:4251   */\n  dup4\n    /* \"--CODEGEN--\":4238:4255   */\n  add\n    /* \"--CODEGEN--\":4231:4278   */\n  mstore\n    /* \"--CODEGEN--\":4292:4423   */\n  tag_88\n    /* \"--CODEGEN--\":4418:4422   */\n  dup2\n    /* \"--CODEGEN--\":4292:4423   */\n  jump(tag_67)\ntag_88:\n    /* \"--CODEGEN--\":4284:4423   */\n  swap1\n  pop\n    /* \"--CODEGEN--\":4188:4433   */\n  swap2\n  swap1\n  pop\n  jump\n    /* \"--CODEGEN--\":4440:4856   */\ntag_14:\n  0x00\n    /* \"--CODEGEN--\":4640:4642   */\n  0x20\n    /* \"--CODEGEN--\":4629:4638   */\n  dup3\n    /* \"--CODEGEN--\":4625:4643   */\n  add\n    /* \"--CODEGEN--\":4617:4643   */\n  swap1\n  pop\n    /* \"--CODEGEN--\":4690:4699   */\n  dup2\n    /* \"--CODEGEN--\":4684:4688   */\n  dup2\n    /* \"--CODEGEN--\":4680:4700   */\n  sub\n    /* \"--CODEGEN--\":4676:4677   */\n  0x00\n    /* \"--CODEGEN--\":4665:4674   */\n  dup4\n    /* \"--CODEGEN--\":4661:4678   */\n  add\n    /* \"--CODEGEN--\":4654:4701   */\n  mstore\n    /* \"--CODEGEN--\":4715:4846   */\n  tag_90\n    /* \"--CODEGEN--\":4841:4845   */\n  dup2\n    /* \"--CODEGEN--\":4715:4846   */\n  jump(tag_70)\ntag_90:\n    /* \"--CODEGEN--\":4707:4846   */\n  swap1\n  pop\n    /* \"--CODEGEN--\":4611:4856   */\n  swap2\n  swap1\n  pop\n  jump\n    /* \"--CODEGEN--\":4863:5279   */\ntag_39:\n  0x00\n    /* \"--CODEGEN--\":5063:5065   */\n  0x20\n    /* \"--CODEGEN--\":5052:5061   */\n  dup3\n    /* \"--CODEGEN--\":5048:5066   */\n  add\n    /* \"--CODEGEN--\":5040:5066   */\n  swap1\n  pop\n    /* \"--CODEGEN--\":5113:5122   */\n  dup2\n    /* \"--CODEGEN--\":5107:5111   */\n  dup2\n    /* \"--CODEGEN--\":5103:5123   */\n  sub\n    /* \"--CODEGEN--\":5099:5100   */\n  0x00\n    /* \"--CODEGEN--\":5088:5097   */\n  dup4\n    /* \"--CODEGEN--\":5084:5101   */\n  add\n    /* \"--CODEGEN--\":5077:5124   */\n  mstore\n    /* \"--CODEGEN--\":5138:5269   */\n  tag_92\n    /* \"--CODEGEN--\":5264:5268   */\n  dup2\n    /* \"--CODEGEN--\":5138:5269   */\n  jump(tag_76)\ntag_92:\n    /* \"--CODEGEN--\":5130:5269   */\n  swap1\n  pop\n    /* \"--CODEGEN--\":5034:5279   */\n  swap2\n  swap1\n  pop\n  jump\n    /* \"--CODEGEN--\":5286:5408   */\ntag_58:\n  0x00\n    /* \"--CODEGEN--\":5380:5385   */\n  dup2\n    /* \"--CODEGEN--\":5374:5386   */\n  mload\n    /* \"--CODEGEN--\":5364:5386   */\n  swap1\n  pop\n    /* \"--CODEGEN--\":5345:5408   */\n  swap2\n  swap1\n  pop\n  jump\n    /* \"--CODEGEN--\":5416:5579   */\ntag_66:\n  0x00\n    /* \"--CODEGEN--\":5531:5537   */\n  dup3\n    /* \"--CODEGEN--\":5526:5529   */\n  dup3\n    /* \"--CODEGEN--\":5519:5538   */\n  mstore\n    /* \"--CODEGEN--\":5568:5572   */\n  0x20\n    /* \"--CODEGEN--\":5563:5566   */\n  dup3\n    /* \"--CODEGEN--\":5559:5573   */\n  add\n    /* \"--CODEGEN--\":5544:5573   */\n  swap1\n  pop\n    /* \"--CODEGEN--\":5512:5579   */\n  swap3\n  swap2\n  pop\n  pop\n  jump\n    /* \"--CODEGEN--\":5588:5733   */\ntag_60:\n  0x00\n    /* \"--CODEGEN--\":5724:5727   */\n  dup2\n    /* \"--CODEGEN--\":5709:5727   */\n  swap1\n  pop\n    /* \"--CODEGEN--\":5702:5733   */\n  swap3\n  swap2\n  pop\n  pop\n  jump\n    /* \"--CODEGEN--\":5741:5832   */\ntag_96:\n  0x00\n    /* \"--CODEGEN--\":5803:5827   */\n  tag_98\n    /* \"--CODEGEN--\":5821:5826   */\n  dup3\n    /* \"--CODEGEN--\":5803:5827   */\n  jump(tag_99)\ntag_98:\n    /* \"--CODEGEN--\":5792:5827   */\n  swap1\n  pop\n    /* \"--CODEGEN--\":5786:5832   */\n  swap2\n  swap1\n  pop\n  jump\n    /* \"--CODEGEN--\":5839:5960   */\ntag_99:\n  0x00\n    /* \"--CODEGEN--\":5912:5954   */\n  0xffffffffffffffffffffffffffffffffffffffff\n    /* \"--CODEGEN--\":5905:5910   */\n  dup3\n    /* \"--CODEGEN--\":5901:5955   */\n  and\n    /* \"--CODEGEN--\":5890:5955   */\n  swap1\n  pop\n    /* \"--CODEGEN--\":5884:5960   */\n  swap2\n  swap1\n  pop\n  jump\n    /* \"--CODEGEN--\":5967:6124   */\ntag_54:\n  0x00\n    /* \"--CODEGEN--\":6064:6119   */\n  tag_102\n    /* \"--CODEGEN--\":6113:6118   */\n  dup3\n    /* \"--CODEGEN--\":6064:6119   */\n  jump(tag_103)\ntag_102:\n    /* \"--CODEGEN--\":6051:6119   */\n  swap1\n  pop\n    /* \"--CODEGEN--\":6045:6124   */\n  swap2\n  swap1\n  pop\n  jump\n    /* \"--CODEGEN--\":6131:6257   */\ntag_103:\n  0x00\n    /* \"--CODEGEN--\":6228:6252   */\n  tag_105\n    /* \"--CODEGEN--\":6246:6251   */\n  dup3\n    /* \"--CODEGEN--\":6228:6252   */\n  jump(tag_99)\ntag_105:\n    /* \"--CODEGEN--\":6215:6252   */\n  swap1\n  pop\n    /* \"--CODEGEN--\":6209:6257   */\n  swap2\n  swap1\n  pop\n  jump\n    /* \"--CODEGEN--\":6265:6533   */\ntag_62:\n    /* \"--CODEGEN--\":6330:6331   */\n  0x00\n    /* \"--CODEGEN--\":6337:6438   */\ntag_107:\n    /* \"--CODEGEN--\":6351:6357   */\n  dup4\n    /* \"--CODEGEN--\":6348:6349   */\n  dup2\n    /* \"--CODEGEN--\":6345:6358   */\n  lt\n    /* \"--CODEGEN--\":6337:6438   */\n  iszero\n  tag_109\n  jumpi\n    /* \"--CODEGEN--\":6427:6428   */\n  dup1\n    /* \"--CODEGEN--\":6422:6425   */\n  dup3\n    /* \"--CODEGEN--\":6418:6429   */\n  add\n    /* \"--CODEGEN--\":6412:6430   */\n  mload\n    /* \"--CODEGEN--\":6408:6409   */\n  dup2\n    /* \"--CODEGEN--\":6403:6406   */\n  dup5\n    /* \"--CODEGEN--\":6399:6410   */\n  add\n    /* \"--CODEGEN--\":6392:6431   */\n  mstore\n    /* \"--CODEGEN--\":6373:6375   */\n  0x20\n    /* \"--CODEGEN--\":6370:6371   */\n  dup2\n    /* \"--CODEGEN--\":6366:6376   */\n  add\n    /* \"--CODEGEN--\":6361:6376   */\n  swap1\n  pop\n    /* \"--CODEGEN--\":6337:6438   */\n  jump(tag_107)\ntag_109:\n    /* \"--CODEGEN--\":6453:6459   */\n  dup4\n    /* \"--CODEGEN--\":6450:6451   */\n  dup2\n    /* \"--CODEGEN--\":6447:6460   */\n  gt\n    /* \"--CODEGEN--\":6444:6446   */\n  iszero\n  tag_110\n  jumpi\n    /* \"--CODEGEN--\":6518:6519   */\n  0x00\n    /* \"--CODEGEN--\":6509:6515   */\n  dup5\n    /* \"--CODEGEN--\":6504:6507   */\n  dup5\n    /* \"--CODEGEN--\":6500:6516   */\n  add\n    /* \"--CODEGEN--\":6493:6520   */\n  mstore\n    /* \"--CODEGEN--\":6444:6446   */\ntag_110:\n    /* \"--CODEGEN--\":6314:6533   */\n  pop\n  pop\n  pop\n  pop\n  jump\n    /* \"--CODEGEN--\":6541:6658   */\ntag_47:\n    /* \"--CODEGEN--\":6610:6634   */\n  tag_112\n    /* \"--CODEGEN--\":6628:6633   */\n  dup2\n    /* \"--CODEGEN--\":6610:6634   */\n  jump(tag_96)\ntag_112:\n    /* \"--CODEGEN--\":6603:6608   */\n  dup2\n    /* \"--CODEGEN--\":6600:6635   */\n  eq\n    /* \"--CODEGEN--\":6590:6592   */\n  tag_113\n  jumpi\n    /* \"--CODEGEN--\":6649:6650   */\n  0x00\n    /* \"--CODEGEN--\":6646:6647   */\n  dup1\n    /* \"--CODEGEN--\":6639:6651   */\n  revert\n    /* \"--CODEGEN--\":6590:6592   */\ntag_113:\n    /* \"--CODEGEN--\":6584:6658   */\n  pop\n  jump\n    /* \"contracts/ACL.sol\":335:4763  contract ACL is Initializable {\r... */\ntag_16:\n  dataSize(sub_0)\n  dup1\n  dataOffset(sub_0)\n  0x00\n  codecopy\n  0x00\n  return\nstop\n\nsub_0: assembly {\n        /* \"contracts/ACL.sol\":335:4763  contract ACL is Initializable {\r... */\n      mstore(0x40, 0x80)\n      callvalue\n        /* \"--CODEGEN--\":5:14   */\n      dup1\n        /* \"--CODEGEN--\":2:4   */\n      iszero\n      tag_1\n      jumpi\n        /* \"--CODEGEN--\":27:28   */\n      0x00\n        /* \"--CODEGEN--\":24:25   */\n      dup1\n        /* \"--CODEGEN--\":17:29   */\n      revert\n        /* \"--CODEGEN--\":2:4   */\n    tag_1:\n        /* \"contracts/ACL.sol\":335:4763  contract ACL is Initializable {\r... */\n      pop\n      jumpi(tag_2, lt(calldatasize, 0x04))\n      shr(0xe0, calldataload(0x00))\n      dup1\n      0x96fc8abd\n      gt\n      tag_12\n      jumpi\n      dup1\n      0x96fc8abd\n      eq\n      tag_7\n      jumpi\n      dup1\n      0xa157a10d\n      eq\n      tag_8\n      jumpi\n      dup1\n      0xa2157227\n      eq\n      tag_9\n      jumpi\n      dup1\n      0xbdf9a726\n      eq\n      tag_10\n      jumpi\n      dup1\n      0xcc1d4cab\n      eq\n      tag_11\n      jumpi\n      jump(tag_2)\n    tag_12:\n      dup1\n      0x1c47671b\n      eq\n      tag_3\n      jumpi\n      dup1\n      0x495a9825\n      eq\n      tag_4\n      jumpi\n      dup1\n      0x58849734\n      eq\n      tag_5\n      jumpi\n      dup1\n      0x7e8c7f08\n      eq\n      tag_6\n      jumpi\n    tag_2:\n        /* \"--CODEGEN--\":12:13   */\n      0x00\n        /* \"--CODEGEN--\":9:10   */\n      dup1\n        /* \"--CODEGEN--\":2:14   */\n      revert\n        /* \"contracts/ACL.sol\":2319:2763  function bulk(ACLData.BulkItem[] calldata items) external auth(ROOT_ROLE) {\r... */\n    tag_3:\n      tag_13\n      0x04\n      dup1\n      calldatasize\n      sub\n      dup2\n      add\n      swap1\n      tag_14\n      swap2\n      swap1\n      jump(tag_15)\n    tag_14:\n      tag_16\n      jump\t// in\n    tag_13:\n      stop\n        /* \"contracts/ACL.sol\":3048:3173  function isFrozen(bytes4 _role) public view returns (bool) {\r... */\n    tag_4:\n      tag_17\n      0x04\n      dup1\n      calldatasize\n      sub\n      dup2\n      add\n      swap1\n      tag_18\n      swap2\n      swap1\n      jump(tag_19)\n    tag_18:\n      tag_20\n      jump\t// in\n    tag_17:\n      mload(0x40)\n      tag_21\n      swap2\n      swap1\n      jump(tag_22)\n    tag_21:\n      mload(0x40)\n      dup1\n      swap2\n      sub\n      swap1\n      return\n        /* \"contracts/ACL.sol\":2107:2215  function revoke(bytes4 _role, address _who) external auth(ROOT_ROLE) {\r... */\n    tag_5:\n      tag_23\n      0x04\n      dup1\n      calldatasize\n      sub\n      dup2\n      add\n      swap1\n      tag_24\n      swap2\n      swap1\n      jump(tag_25)\n    tag_24:\n      tag_26\n      jump\t// in\n    tag_23:\n      stop\n        /* \"contracts/ACL.sol\":372:529  bytes4 public constant ROOT_ROLE =\r... */\n    tag_6:\n      tag_27\n      tag_28\n      jump\t// in\n    tag_27:\n      mload(0x40)\n      tag_29\n      swap2\n      swap1\n      jump(tag_30)\n    tag_29:\n      mload(0x40)\n      dup1\n      swap2\n      sub\n      swap1\n      return\n        /* \"contracts/ACL.sol\":957:1018  mapping (bytes4 => mapping (address => address)) public roles */\n    tag_7:\n      tag_31\n      0x04\n      dup1\n      calldatasize\n      sub\n      dup2\n      add\n      swap1\n      tag_32\n      swap2\n      swap1\n      jump(tag_25)\n    tag_32:\n      tag_33\n      jump\t// in\n    tag_31:\n      mload(0x40)\n      tag_34\n      swap2\n      swap1\n      jump(tag_35)\n    tag_34:\n      mload(0x40)\n      dup1\n      swap2\n      sub\n      swap1\n      return\n        /* \"contracts/ACL.sol\":1830:1936  function grant(bytes4 _role, address _who) external auth(ROOT_ROLE) {\r... */\n    tag_8:\n      tag_36\n      0x04\n      dup1\n      calldatasize\n      sub\n      dup2\n      add\n      swap1\n      tag_37\n      swap2\n      swap1\n      jump(tag_25)\n    tag_37:\n      tag_38\n      jump\t// in\n    tag_36:\n      stop\n        /* \"contracts/ACL.sol\":1944:2099  function grantWithOracle(bytes4 _role, address _who, IACLOracle _oracle) external auth(ROOT_ROLE) {\r... */\n    tag_9:\n      tag_39\n      0x04\n      dup1\n      calldatasize\n      sub\n      dup2\n      add\n      swap1\n      tag_40\n      swap2\n      swap1\n      jump(tag_41)\n    tag_40:\n      tag_42\n      jump\t// in\n    tag_39:\n      stop\n        /* \"contracts/ACL.sol\":2223:2311  function freeze(bytes4 _role) external auth(ROOT_ROLE) {\r... */\n    tag_10:\n      tag_43\n      0x04\n      dup1\n      calldatasize\n      sub\n      dup2\n      add\n      swap1\n      tag_44\n      swap2\n      swap1\n      jump(tag_19)\n    tag_44:\n      tag_45\n      jump\t// in\n    tag_43:\n      stop\n        /* \"contracts/Initializable.sol\":103:148  mapping (string => uint256) public initBlocks */\n    tag_11:\n      tag_46\n      0x04\n      dup1\n      calldatasize\n      sub\n      dup2\n      add\n      swap1\n      tag_47\n      swap2\n      swap1\n      jump(tag_48)\n    tag_47:\n      tag_49\n      jump\t// in\n    tag_46:\n      mload(0x40)\n      tag_50\n      swap2\n      swap1\n      jump(tag_51)\n    tag_50:\n      mload(0x40)\n      dup1\n      swap2\n      sub\n      swap1\n      return\n        /* \"contracts/ACL.sol\":2319:2763  function bulk(ACLData.BulkItem[] calldata items) external auth(ROOT_ROLE) {\r... */\n    tag_16:\n        /* \"contracts/ACL.sol\":511:529  this.bulk.selector */\n      shl(0xe0, 0x1c47671b)\n        /* \"contracts/ACL.sol\":479:499  this.freeze.selector */\n      shl(0xe0, 0xbdf9a726)\n        /* \"contracts/ACL.sol\":447:467  this.revoke.selector */\n      shl(0xe0, 0x58849734)\n        /* \"contracts/ACL.sol\":416:435  this.grant.selector */\n      shl(0xe0, 0xa157a10d)\n        /* \"contracts/ACL.sol\":416:467  this.grant.selector\r... */\n      xor\n        /* \"contracts/ACL.sol\":416:499  this.grant.selector\r... */\n      xor\n        /* \"contracts/ACL.sol\":416:529  this.grant.selector\r... */\n      xor\n        /* \"contracts/ACL.sol\":1328:1368  willPerform(_role, msg.sender, msg.data) */\n      tag_53\n        /* \"contracts/ACL.sol\":1340:1345  _role */\n      dup2\n        /* \"contracts/ACL.sol\":1347:1357  msg.sender */\n      caller\n        /* \"contracts/ACL.sol\":1359:1367  msg.data */\n      0x00\n      calldatasize\n        /* \"contracts/ACL.sol\":1328:1368  willPerform(_role, msg.sender, msg.data) */\n      dup1\n      dup1\n      0x1f\n      add\n      0x20\n      dup1\n      swap2\n      div\n      mul\n      0x20\n      add\n      mload(0x40)\n      swap1\n      dup2\n      add\n      0x40\n      mstore\n      dup1\n      swap4\n      swap3\n      swap2\n      swap1\n      dup2\n      dup2\n      mstore\n      0x20\n      add\n      dup4\n      dup4\n        /* \"--CODEGEN--\":30:33   */\n      dup1\n        /* \"--CODEGEN--\":22:28   */\n      dup3\n        /* \"--CODEGEN--\":14:20   */\n      dup5\n        /* \"--CODEGEN--\":1:34   */\n      calldatacopy\n        /* \"--CODEGEN--\":99:100   */\n      0x00\n        /* \"--CODEGEN--\":93:96   */\n      dup2\n        /* \"--CODEGEN--\":85:91   */\n      dup5\n        /* \"--CODEGEN--\":81:97   */\n      add\n        /* \"--CODEGEN--\":74:101   */\n      mstore\n        /* \"--CODEGEN--\":137:141   */\n      0x1f\n        /* \"--CODEGEN--\":133:142   */\n      not\n        /* \"--CODEGEN--\":126:130   */\n      0x1f\n        /* \"--CODEGEN--\":121:124   */\n      dup3\n        /* \"--CODEGEN--\":117:131   */\n      add\n        /* \"--CODEGEN--\":113:143   */\n      and\n        /* \"--CODEGEN--\":106:143   */\n      swap1\n      pop\n        /* \"--CODEGEN--\":169:172   */\n      dup1\n        /* \"--CODEGEN--\":161:167   */\n      dup4\n        /* \"--CODEGEN--\":157:173   */\n      add\n        /* \"--CODEGEN--\":147:173   */\n      swap3\n      pop\n        /* \"contracts/ACL.sol\":1328:1368  willPerform(_role, msg.sender, msg.data) */\n      pop\n      pop\n      pop\n      pop\n      pop\n      pop\n        /* \"contracts/ACL.sol\":1328:1339  willPerform */\n      tag_54\n        /* \"contracts/ACL.sol\":1328:1368  willPerform(_role, msg.sender, msg.data) */\n      jump\t// in\n    tag_53:\n        /* \"contracts/ACL.sol\":1320:1382  require(willPerform(_role, msg.sender, msg.data), \"acl: auth\") */\n      tag_55\n      jumpi\n      mload(0x40)\n      0x08c379a000000000000000000000000000000000000000000000000000000000\n      dup2\n      mstore\n      0x04\n      add\n      tag_56\n      swap1\n      jump(tag_57)\n    tag_56:\n      mload(0x40)\n      dup1\n      swap2\n      sub\n      swap1\n      revert\n    tag_55:\n        /* \"contracts/ACL.sol\":2409:2418  uint256 i */\n      0x00\n        /* \"contracts/ACL.sol\":2421:2422  0 */\n      dup1\n        /* \"contracts/ACL.sol\":2409:2422  uint256 i = 0 */\n      swap1\n      pop\n        /* \"contracts/ACL.sol\":2404:2756  for (uint256 i = 0; i < items.length; i++) {\r... */\n    tag_59:\n        /* \"contracts/ACL.sol\":2428:2433  items */\n      dup4\n      dup4\n        /* \"contracts/ACL.sol\":2428:2440  items.length */\n      swap1\n      pop\n        /* \"contracts/ACL.sol\":2424:2425  i */\n      dup2\n        /* \"contracts/ACL.sol\":2424:2440  i < items.length */\n      lt\n        /* \"contracts/ACL.sol\":2404:2756  for (uint256 i = 0; i < items.length; i++) {\r... */\n      iszero\n      tag_60\n      jumpi\n        /* \"contracts/ACL.sol\":2462:2490  ACLData.BulkItem memory item */\n      tag_62\n      tag_63\n      jump\t// in\n    tag_62:\n        /* \"contracts/ACL.sol\":2493:2498  items */\n      dup5\n      dup5\n        /* \"contracts/ACL.sol\":2499:2500  i */\n      dup4\n        /* \"contracts/ACL.sol\":2493:2501  items[i] */\n      dup2\n      dup2\n      lt\n      tag_64\n      jumpi\n      invalid\n    tag_64:\n      swap1\n      pop\n      0x60\n      mul\n      add\n        /* \"contracts/ACL.sol\":2462:2501  ACLData.BulkItem memory item = items[i] */\n      dup1\n      calldatasize\n      sub\n      dup2\n      add\n      swap1\n      tag_65\n      swap2\n      swap1\n      jump(tag_66)\n    tag_65:\n      swap1\n      pop\n        /* \"contracts/ACL.sol\":2533:2553  ACLData.BulkOp.Grant */\n      0x00\n        /* \"contracts/ACL.sol\":2522:2553  item.op == ACLData.BulkOp.Grant */\n      0x02\n      dup2\n      gt\n      iszero\n      tag_67\n      jumpi\n      invalid\n    tag_67:\n        /* \"contracts/ACL.sol\":2522:2526  item */\n      dup2\n        /* \"contracts/ACL.sol\":2522:2529  item.op */\n      0x00\n      add\n      mload\n        /* \"contracts/ACL.sol\":2522:2553  item.op == ACLData.BulkOp.Grant */\n      0x02\n      dup2\n      gt\n      iszero\n      tag_68\n      jumpi\n      invalid\n    tag_68:\n      eq\n        /* \"contracts/ACL.sol\":2518:2744  if (item.op == ACLData.BulkOp.Grant) _grant(item.role, item.who);\r... */\n      iszero\n      tag_69\n      jumpi\n        /* \"contracts/ACL.sol\":2555:2582  _grant(item.role, item.who) */\n      tag_70\n        /* \"contracts/ACL.sol\":2562:2566  item */\n      dup2\n        /* \"contracts/ACL.sol\":2562:2571  item.role */\n      0x20\n      add\n      mload\n        /* \"contracts/ACL.sol\":2573:2577  item */\n      dup3\n        /* \"contracts/ACL.sol\":2573:2581  item.who */\n      0x40\n      add\n      mload\n        /* \"contracts/ACL.sol\":2555:2561  _grant */\n      tag_71\n        /* \"contracts/ACL.sol\":2555:2582  _grant(item.role, item.who) */\n      jump\t// in\n    tag_70:\n        /* \"contracts/ACL.sol\":2518:2744  if (item.op == ACLData.BulkOp.Grant) _grant(item.role, item.who);\r... */\n      jump(tag_72)\n    tag_69:\n        /* \"contracts/ACL.sol\":2617:2638  ACLData.BulkOp.Revoke */\n      0x01\n        /* \"contracts/ACL.sol\":2606:2638  item.op == ACLData.BulkOp.Revoke */\n      0x02\n      dup2\n      gt\n      iszero\n      tag_73\n      jumpi\n      invalid\n    tag_73:\n        /* \"contracts/ACL.sol\":2606:2610  item */\n      dup2\n        /* \"contracts/ACL.sol\":2606:2613  item.op */\n      0x00\n      add\n      mload\n        /* \"contracts/ACL.sol\":2606:2638  item.op == ACLData.BulkOp.Revoke */\n      0x02\n      dup2\n      gt\n      iszero\n      tag_74\n      jumpi\n      invalid\n    tag_74:\n      eq\n        /* \"contracts/ACL.sol\":2602:2744  if (item.op == ACLData.BulkOp.Revoke) _revoke(item.role, item.who);\r... */\n      iszero\n      tag_75\n      jumpi\n        /* \"contracts/ACL.sol\":2640:2668  _revoke(item.role, item.who) */\n      tag_76\n        /* \"contracts/ACL.sol\":2648:2652  item */\n      dup2\n        /* \"contracts/ACL.sol\":2648:2657  item.role */\n      0x20\n      add\n      mload\n        /* \"contracts/ACL.sol\":2659:2663  item */\n      dup3\n        /* \"contracts/ACL.sol\":2659:2667  item.who */\n      0x40\n      add\n      mload\n        /* \"contracts/ACL.sol\":2640:2647  _revoke */\n      tag_77\n        /* \"contracts/ACL.sol\":2640:2668  _revoke(item.role, item.who) */\n      jump\t// in\n    tag_76:\n        /* \"contracts/ACL.sol\":2602:2744  if (item.op == ACLData.BulkOp.Revoke) _revoke(item.role, item.who);\r... */\n      jump(tag_78)\n    tag_75:\n        /* \"contracts/ACL.sol\":2703:2724  ACLData.BulkOp.Freeze */\n      0x02\n        /* \"contracts/ACL.sol\":2692:2724  item.op == ACLData.BulkOp.Freeze */\n      dup1\n      dup2\n      gt\n      iszero\n      tag_79\n      jumpi\n      invalid\n    tag_79:\n        /* \"contracts/ACL.sol\":2692:2696  item */\n      dup2\n        /* \"contracts/ACL.sol\":2692:2699  item.op */\n      0x00\n      add\n      mload\n        /* \"contracts/ACL.sol\":2692:2724  item.op == ACLData.BulkOp.Freeze */\n      0x02\n      dup2\n      gt\n      iszero\n      tag_80\n      jumpi\n      invalid\n    tag_80:\n      eq\n        /* \"contracts/ACL.sol\":2688:2744  if (item.op == ACLData.BulkOp.Freeze) _freeze(item.role) */\n      iszero\n      tag_81\n      jumpi\n        /* \"contracts/ACL.sol\":2726:2744  _freeze(item.role) */\n      tag_82\n        /* \"contracts/ACL.sol\":2734:2738  item */\n      dup2\n        /* \"contracts/ACL.sol\":2734:2743  item.role */\n      0x20\n      add\n      mload\n        /* \"contracts/ACL.sol\":2726:2733  _freeze */\n      tag_83\n        /* \"contracts/ACL.sol\":2726:2744  _freeze(item.role) */\n      jump\t// in\n    tag_82:\n        /* \"contracts/ACL.sol\":2688:2744  if (item.op == ACLData.BulkOp.Freeze) _freeze(item.role) */\n    tag_81:\n        /* \"contracts/ACL.sol\":2602:2744  if (item.op == ACLData.BulkOp.Revoke) _revoke(item.role, item.who);\r... */\n    tag_78:\n        /* \"contracts/ACL.sol\":2518:2744  if (item.op == ACLData.BulkOp.Grant) _grant(item.role, item.who);\r... */\n    tag_72:\n        /* \"contracts/ACL.sol\":2404:2756  for (uint256 i = 0; i < items.length; i++) {\r... */\n      pop\n        /* \"contracts/ACL.sol\":2442:2445  i++ */\n      dup1\n      dup1\n      0x01\n      add\n      swap2\n      pop\n      pop\n        /* \"contracts/ACL.sol\":2404:2756  for (uint256 i = 0; i < items.length; i++) {\r... */\n      jump(tag_59)\n    tag_60:\n      pop\n        /* \"contracts/ACL.sol\":2319:2763  function bulk(ACLData.BulkItem[] calldata items) external auth(ROOT_ROLE) {\r... */\n      pop\n      pop\n      pop\n      jump\t// out\n        /* \"contracts/ACL.sol\":3048:3173  function isFrozen(bytes4 _role) public view returns (bool) {\r... */\n    tag_20:\n        /* \"contracts/ACL.sol\":3101:3105  bool */\n      0x00\n        /* \"contracts/ACL.sol\":752:753  1 */\n      0x01\n        /* \"contracts/ACL.sol\":3125:3165  roles[_role][FREEZE_FLAG] == FREEZE_FLAG */\n      0xffffffffffffffffffffffffffffffffffffffff\n      and\n        /* \"contracts/ACL.sol\":3125:3130  roles */\n      0x01\n        /* \"contracts/ACL.sol\":3125:3137  roles[_role] */\n      0x00\n        /* \"contracts/ACL.sol\":3131:3136  _role */\n      dup5\n        /* \"contracts/ACL.sol\":3125:3137  roles[_role] */\n      not(0xffffffffffffffffffffffffffffffffffffffffffffffffffffffff)\n      and\n      not(0xffffffffffffffffffffffffffffffffffffffffffffffffffffffff)\n      and\n      dup2\n      mstore\n      0x20\n      add\n      swap1\n      dup2\n      mstore\n      0x20\n      add\n      0x00\n      keccak256\n        /* \"contracts/ACL.sol\":3125:3150  roles[_role][FREEZE_FLAG] */\n      0x00\n        /* \"contracts/ACL.sol\":752:753  1 */\n      0x01\n        /* \"contracts/ACL.sol\":3125:3150  roles[_role][FREEZE_FLAG] */\n      0xffffffffffffffffffffffffffffffffffffffff\n      and\n      0xffffffffffffffffffffffffffffffffffffffff\n      and\n      dup2\n      mstore\n      0x20\n      add\n      swap1\n      dup2\n      mstore\n      0x20\n      add\n      0x00\n      keccak256\n      0x00\n      swap1\n      sload\n      swap1\n      0x0100\n      exp\n      swap1\n      div\n      0xffffffffffffffffffffffffffffffffffffffff\n      and\n        /* \"contracts/ACL.sol\":3125:3165  roles[_role][FREEZE_FLAG] == FREEZE_FLAG */\n      0xffffffffffffffffffffffffffffffffffffffff\n      and\n      eq\n        /* \"contracts/ACL.sol\":3118:3165  return roles[_role][FREEZE_FLAG] == FREEZE_FLAG */\n      swap1\n      pop\n        /* \"contracts/ACL.sol\":3048:3173  function isFrozen(bytes4 _role) public view returns (bool) {\r... */\n      swap2\n      swap1\n      pop\n      jump\t// out\n        /* \"contracts/ACL.sol\":2107:2215  function revoke(bytes4 _role, address _who) external auth(ROOT_ROLE) {\r... */\n    tag_26:\n        /* \"contracts/ACL.sol\":511:529  this.bulk.selector */\n      shl(0xe0, 0x1c47671b)\n        /* \"contracts/ACL.sol\":479:499  this.freeze.selector */\n      shl(0xe0, 0xbdf9a726)\n        /* \"contracts/ACL.sol\":447:467  this.revoke.selector */\n      shl(0xe0, 0x58849734)\n        /* \"contracts/ACL.sol\":416:435  this.grant.selector */\n      shl(0xe0, 0xa157a10d)\n        /* \"contracts/ACL.sol\":416:467  this.grant.selector\r... */\n      xor\n        /* \"contracts/ACL.sol\":416:499  this.grant.selector\r... */\n      xor\n        /* \"contracts/ACL.sol\":416:529  this.grant.selector\r... */\n      xor\n        /* \"contracts/ACL.sol\":1328:1368  willPerform(_role, msg.sender, msg.data) */\n      tag_86\n        /* \"contracts/ACL.sol\":1340:1345  _role */\n      dup2\n        /* \"contracts/ACL.sol\":1347:1357  msg.sender */\n      caller\n        /* \"contracts/ACL.sol\":1359:1367  msg.data */\n      0x00\n      calldatasize\n        /* \"contracts/ACL.sol\":1328:1368  willPerform(_role, msg.sender, msg.data) */\n      dup1\n      dup1\n      0x1f\n      add\n      0x20\n      dup1\n      swap2\n      div\n      mul\n      0x20\n      add\n      mload(0x40)\n      swap1\n      dup2\n      add\n      0x40\n      mstore\n      dup1\n      swap4\n      swap3\n      swap2\n      swap1\n      dup2\n      dup2\n      mstore\n      0x20\n      add\n      dup4\n      dup4\n        /* \"--CODEGEN--\":30:33   */\n      dup1\n        /* \"--CODEGEN--\":22:28   */\n      dup3\n        /* \"--CODEGEN--\":14:20   */\n      dup5\n        /* \"--CODEGEN--\":1:34   */\n      calldatacopy\n        /* \"--CODEGEN--\":99:100   */\n      0x00\n        /* \"--CODEGEN--\":93:96   */\n      dup2\n        /* \"--CODEGEN--\":85:91   */\n      dup5\n        /* \"--CODEGEN--\":81:97   */\n      add\n        /* \"--CODEGEN--\":74:101   */\n      mstore\n        /* \"--CODEGEN--\":137:141   */\n      0x1f\n        /* \"--CODEGEN--\":133:142   */\n      not\n        /* \"--CODEGEN--\":126:130   */\n      0x1f\n        /* \"--CODEGEN--\":121:124   */\n      dup3\n        /* \"--CODEGEN--\":117:131   */\n      add\n        /* \"--CODEGEN--\":113:143   */\n      and\n        /* \"--CODEGEN--\":106:143   */\n      swap1\n      pop\n        /* \"--CODEGEN--\":169:172   */\n      dup1\n        /* \"--CODEGEN--\":161:167   */\n      dup4\n        /* \"--CODEGEN--\":157:173   */\n      add\n        /* \"--CODEGEN--\":147:173   */\n      swap3\n      pop\n        /* \"contracts/ACL.sol\":1328:1368  willPerform(_role, msg.sender, msg.data) */\n      pop\n      pop\n      pop\n      pop\n      pop\n      pop\n        /* \"contracts/ACL.sol\":1328:1339  willPerform */\n      tag_54\n        /* \"contracts/ACL.sol\":1328:1368  willPerform(_role, msg.sender, msg.data) */\n      jump\t// in\n    tag_86:\n        /* \"contracts/ACL.sol\":1320:1382  require(willPerform(_role, msg.sender, msg.data), \"acl: auth\") */\n      tag_87\n      jumpi\n      mload(0x40)\n      0x08c379a000000000000000000000000000000000000000000000000000000000\n      dup2\n      mstore\n      0x04\n      add\n      tag_88\n      swap1\n      jump(tag_57)\n    tag_88:\n      mload(0x40)\n      dup1\n      swap2\n      sub\n      swap1\n      revert\n    tag_87:\n        /* \"contracts/ACL.sol\":2187:2207  _revoke(_role, _who) */\n      tag_90\n        /* \"contracts/ACL.sol\":2195:2200  _role */\n      dup4\n        /* \"contracts/ACL.sol\":2202:2206  _who */\n      dup4\n        /* \"contracts/ACL.sol\":2187:2194  _revoke */\n      tag_77\n        /* \"contracts/ACL.sol\":2187:2207  _revoke(_role, _who) */\n      jump\t// in\n    tag_90:\n        /* \"contracts/ACL.sol\":2107:2215  function revoke(bytes4 _role, address _who) external auth(ROOT_ROLE) {\r... */\n      pop\n      pop\n      pop\n      jump\t// out\n        /* \"contracts/ACL.sol\":372:529  bytes4 public constant ROOT_ROLE =\r... */\n    tag_28:\n        /* \"contracts/ACL.sol\":511:529  this.bulk.selector */\n      shl(0xe0, 0x1c47671b)\n        /* \"contracts/ACL.sol\":479:499  this.freeze.selector */\n      shl(0xe0, 0xbdf9a726)\n        /* \"contracts/ACL.sol\":447:467  this.revoke.selector */\n      shl(0xe0, 0x58849734)\n        /* \"contracts/ACL.sol\":416:435  this.grant.selector */\n      shl(0xe0, 0xa157a10d)\n        /* \"contracts/ACL.sol\":416:467  this.grant.selector\r... */\n      xor\n        /* \"contracts/ACL.sol\":416:499  this.grant.selector\r... */\n      xor\n        /* \"contracts/ACL.sol\":416:529  this.grant.selector\r... */\n      xor\n        /* \"contracts/ACL.sol\":372:529  bytes4 public constant ROOT_ROLE =\r... */\n      dup2\n      jump\t// out\n        /* \"contracts/ACL.sol\":957:1018  mapping (bytes4 => mapping (address => address)) public roles */\n    tag_33:\n      mstore(0x20, 0x01)\n      dup2\n      0x00\n      mstore\n      mstore(0x20, keccak256(0x00, 0x40))\n      dup1\n      0x00\n      mstore\n      keccak256(0x00, 0x40)\n      0x00\n      swap2\n      pop\n      swap2\n      pop\n      swap1\n      sload\n      swap1\n      0x0100\n      exp\n      swap1\n      div\n      0xffffffffffffffffffffffffffffffffffffffff\n      and\n      dup2\n      jump\t// out\n        /* \"contracts/ACL.sol\":1830:1936  function grant(bytes4 _role, address _who) external auth(ROOT_ROLE) {\r... */\n    tag_38:\n        /* \"contracts/ACL.sol\":511:529  this.bulk.selector */\n      shl(0xe0, 0x1c47671b)\n        /* \"contracts/ACL.sol\":479:499  this.freeze.selector */\n      shl(0xe0, 0xbdf9a726)\n        /* \"contracts/ACL.sol\":447:467  this.revoke.selector */\n      shl(0xe0, 0x58849734)\n        /* \"contracts/ACL.sol\":416:435  this.grant.selector */\n      shl(0xe0, 0xa157a10d)\n        /* \"contracts/ACL.sol\":416:467  this.grant.selector\r... */\n      xor\n        /* \"contracts/ACL.sol\":416:499  this.grant.selector\r... */\n      xor\n        /* \"contracts/ACL.sol\":416:529  this.grant.selector\r... */\n      xor\n        /* \"contracts/ACL.sol\":1328:1368  willPerform(_role, msg.sender, msg.data) */\n      tag_92\n        /* \"contracts/ACL.sol\":1340:1345  _role */\n      dup2\n        /* \"contracts/ACL.sol\":1347:1357  msg.sender */\n      caller\n        /* \"contracts/ACL.sol\":1359:1367  msg.data */\n      0x00\n      calldatasize\n        /* \"contracts/ACL.sol\":1328:1368  willPerform(_role, msg.sender, msg.data) */\n      dup1\n      dup1\n      0x1f\n      add\n      0x20\n      dup1\n      swap2\n      div\n      mul\n      0x20\n      add\n      mload(0x40)\n      swap1\n      dup2\n      add\n      0x40\n      mstore\n      dup1\n      swap4\n      swap3\n      swap2\n      swap1\n      dup2\n      dup2\n      mstore\n      0x20\n      add\n      dup4\n      dup4\n        /* \"--CODEGEN--\":30:33   */\n      dup1\n        /* \"--CODEGEN--\":22:28   */\n      dup3\n        /* \"--CODEGEN--\":14:20   */\n      dup5\n        /* \"--CODEGEN--\":1:34   */\n      calldatacopy\n        /* \"--CODEGEN--\":99:100   */\n      0x00\n        /* \"--CODEGEN--\":93:96   */\n      dup2\n        /* \"--CODEGEN--\":85:91   */\n      dup5\n        /* \"--CODEGEN--\":81:97   */\n      add\n        /* \"--CODEGEN--\":74:101   */\n      mstore\n        /* \"--CODEGEN--\":137:141   */\n      0x1f\n        /* \"--CODEGEN--\":133:142   */\n      not\n        /* \"--CODEGEN--\":126:130   */\n      0x1f\n        /* \"--CODEGEN--\":121:124   */\n      dup3\n        /* \"--CODEGEN--\":117:131   */\n      add\n        /* \"--CODEGEN--\":113:143   */\n      and\n        /* \"--CODEGEN--\":106:143   */\n      swap1\n      pop\n        /* \"--CODEGEN--\":169:172   */\n      dup1\n        /* \"--CODEGEN--\":161:167   */\n      dup4\n        /* \"--CODEGEN--\":157:173   */\n      add\n        /* \"--CODEGEN--\":147:173   */\n      swap3\n      pop\n        /* \"contracts/ACL.sol\":1328:1368  willPerform(_role, msg.sender, msg.data) */\n      pop\n      pop\n      pop\n      pop\n      pop\n      pop\n        /* \"contracts/ACL.sol\":1328:1339  willPerform */\n      tag_54\n        /* \"contracts/ACL.sol\":1328:1368  willPerform(_role, msg.sender, msg.data) */\n      jump\t// in\n    tag_92:\n        /* \"contracts/ACL.sol\":1320:1382  require(willPerform(_role, msg.sender, msg.data), \"acl: auth\") */\n      tag_93\n      jumpi\n      mload(0x40)\n      0x08c379a000000000000000000000000000000000000000000000000000000000\n      dup2\n      mstore\n      0x04\n      add\n      tag_94\n      swap1\n      jump(tag_57)\n    tag_94:\n      mload(0x40)\n      dup1\n      swap2\n      sub\n      swap1\n      revert\n    tag_93:\n        /* \"contracts/ACL.sol\":1909:1928  _grant(_role, _who) */\n      tag_96\n        /* \"contracts/ACL.sol\":1916:1921  _role */\n      dup4\n        /* \"contracts/ACL.sol\":1923:1927  _who */\n      dup4\n        /* \"contracts/ACL.sol\":1909:1915  _grant */\n      tag_71\n        /* \"contracts/ACL.sol\":1909:1928  _grant(_role, _who) */\n      jump\t// in\n    tag_96:\n        /* \"contracts/ACL.sol\":1830:1936  function grant(bytes4 _role, address _who) external auth(ROOT_ROLE) {\r... */\n      pop\n      pop\n      pop\n      jump\t// out\n        /* \"contracts/ACL.sol\":1944:2099  function grantWithOracle(bytes4 _role, address _who, IACLOracle _oracle) external auth(ROOT_ROLE) {\r... */\n    tag_42:\n        /* \"contracts/ACL.sol\":511:529  this.bulk.selector */\n      shl(0xe0, 0x1c47671b)\n        /* \"contracts/ACL.sol\":479:499  this.freeze.selector */\n      shl(0xe0, 0xbdf9a726)\n        /* \"contracts/ACL.sol\":447:467  this.revoke.selector */\n      shl(0xe0, 0x58849734)\n        /* \"contracts/ACL.sol\":416:435  this.grant.selector */\n      shl(0xe0, 0xa157a10d)\n        /* \"contracts/ACL.sol\":416:467  this.grant.selector\r... */\n      xor\n        /* \"contracts/ACL.sol\":416:499  this.grant.selector\r... */\n      xor\n        /* \"contracts/ACL.sol\":416:529  this.grant.selector\r... */\n      xor\n        /* \"contracts/ACL.sol\":1328:1368  willPerform(_role, msg.sender, msg.data) */\n      tag_98\n        /* \"contracts/ACL.sol\":1340:1345  _role */\n      dup2\n        /* \"contracts/ACL.sol\":1347:1357  msg.sender */\n      caller\n        /* \"contracts/ACL.sol\":1359:1367  msg.data */\n      0x00\n      calldatasize\n        /* \"contracts/ACL.sol\":1328:1368  willPerform(_role, msg.sender, msg.data) */\n      dup1\n      dup1\n      0x1f\n      add\n      0x20\n      dup1\n      swap2\n      div\n      mul\n      0x20\n      add\n      mload(0x40)\n      swap1\n      dup2\n      add\n      0x40\n      mstore\n      dup1\n      swap4\n      swap3\n      swap2\n      swap1\n      dup2\n      dup2\n      mstore\n      0x20\n      add\n      dup4\n      dup4\n        /* \"--CODEGEN--\":30:33   */\n      dup1\n        /* \"--CODEGEN--\":22:28   */\n      dup3\n        /* \"--CODEGEN--\":14:20   */\n      dup5\n        /* \"--CODEGEN--\":1:34   */\n      calldatacopy\n        /* \"--CODEGEN--\":99:100   */\n      0x00\n        /* \"--CODEGEN--\":93:96   */\n      dup2\n        /* \"--CODEGEN--\":85:91   */\n      dup5\n        /* \"--CODEGEN--\":81:97   */\n      add\n        /* \"--CODEGEN--\":74:101   */\n      mstore\n        /* \"--CODEGEN--\":137:141   */\n      0x1f\n        /* \"--CODEGEN--\":133:142   */\n      not\n        /* \"--CODEGEN--\":126:130   */\n      0x1f\n        /* \"--CODEGEN--\":121:124   */\n      dup3\n        /* \"--CODEGEN--\":117:131   */\n      add\n        /* \"--CODEGEN--\":113:143   */\n      and\n        /* \"--CODEGEN--\":106:143   */\n      swap1\n      pop\n        /* \"--CODEGEN--\":169:172   */\n      dup1\n        /* \"--CODEGEN--\":161:167   */\n      dup4\n        /* \"--CODEGEN--\":157:173   */\n      add\n        /* \"--CODEGEN--\":147:173   */\n      swap3\n      pop\n        /* \"contracts/ACL.sol\":1328:1368  willPerform(_role, msg.sender, msg.data) */\n      pop\n      pop\n      pop\n      pop\n      pop\n      pop\n        /* \"contracts/ACL.sol\":1328:1339  willPerform */\n      tag_54\n        /* \"contracts/ACL.sol\":1328:1368  willPerform(_role, msg.sender, msg.data) */\n      jump\t// in\n    tag_98:\n        /* \"contracts/ACL.sol\":1320:1382  require(willPerform(_role, msg.sender, msg.data), \"acl: auth\") */\n      tag_99\n      jumpi\n      mload(0x40)\n      0x08c379a000000000000000000000000000000000000000000000000000000000\n      dup2\n      mstore\n      0x04\n      add\n      tag_100\n      swap1\n      jump(tag_57)\n    tag_100:\n      mload(0x40)\n      dup1\n      swap2\n      sub\n      swap1\n      revert\n    tag_99:\n        /* \"contracts/ACL.sol\":2053:2091  _grantWithOracle(_role, _who, _oracle) */\n      tag_102\n        /* \"contracts/ACL.sol\":2070:2075  _role */\n      dup5\n        /* \"contracts/ACL.sol\":2077:2081  _who */\n      dup5\n        /* \"contracts/ACL.sol\":2083:2090  _oracle */\n      dup5\n        /* \"contracts/ACL.sol\":2053:2069  _grantWithOracle */\n      tag_103\n        /* \"contracts/ACL.sol\":2053:2091  _grantWithOracle(_role, _who, _oracle) */\n      jump\t// in\n    tag_102:\n        /* \"contracts/ACL.sol\":1944:2099  function grantWithOracle(bytes4 _role, address _who, IACLOracle _oracle) external auth(ROOT_ROLE) {\r... */\n      pop\n      pop\n      pop\n      pop\n      jump\t// out\n        /* \"contracts/ACL.sol\":2223:2311  function freeze(bytes4 _role) external auth(ROOT_ROLE) {\r... */\n    tag_45:\n        /* \"contracts/ACL.sol\":511:529  this.bulk.selector */\n      shl(0xe0, 0x1c47671b)\n        /* \"contracts/ACL.sol\":479:499  this.freeze.selector */\n      shl(0xe0, 0xbdf9a726)\n        /* \"contracts/ACL.sol\":447:467  this.revoke.selector */\n      shl(0xe0, 0x58849734)\n        /* \"contracts/ACL.sol\":416:435  this.grant.selector */\n      shl(0xe0, 0xa157a10d)\n        /* \"contracts/ACL.sol\":416:467  this.grant.selector\r... */\n      xor\n        /* \"contracts/ACL.sol\":416:499  this.grant.selector\r... */\n      xor\n        /* \"contracts/ACL.sol\":416:529  this.grant.selector\r... */\n      xor\n        /* \"contracts/ACL.sol\":1328:1368  willPerform(_role, msg.sender, msg.data) */\n      tag_105\n        /* \"contracts/ACL.sol\":1340:1345  _role */\n      dup2\n        /* \"contracts/ACL.sol\":1347:1357  msg.sender */\n      caller\n        /* \"contracts/ACL.sol\":1359:1367  msg.data */\n      0x00\n      calldatasize\n        /* \"contracts/ACL.sol\":1328:1368  willPerform(_role, msg.sender, msg.data) */\n      dup1\n      dup1\n      0x1f\n      add\n      0x20\n      dup1\n      swap2\n      div\n      mul\n      0x20\n      add\n      mload(0x40)\n      swap1\n      dup2\n      add\n      0x40\n      mstore\n      dup1\n      swap4\n      swap3\n      swap2\n      swap1\n      dup2\n      dup2\n      mstore\n      0x20\n      add\n      dup4\n      dup4\n        /* \"--CODEGEN--\":30:33   */\n      dup1\n        /* \"--CODEGEN--\":22:28   */\n      dup3\n        /* \"--CODEGEN--\":14:20   */\n      dup5\n        /* \"--CODEGEN--\":1:34   */\n      calldatacopy\n        /* \"--CODEGEN--\":99:100   */\n      0x00\n        /* \"--CODEGEN--\":93:96   */\n      dup2\n        /* \"--CODEGEN--\":85:91   */\n      dup5\n        /* \"--CODEGEN--\":81:97   */\n      add\n        /* \"--CODEGEN--\":74:101   */\n      mstore\n        /* \"--CODEGEN--\":137:141   */\n      0x1f\n        /* \"--CODEGEN--\":133:142   */\n      not\n        /* \"--CODEGEN--\":126:130   */\n      0x1f\n        /* \"--CODEGEN--\":121:124   */\n      dup3\n        /* \"--CODEGEN--\":117:131   */\n      add\n        /* \"--CODEGEN--\":113:143   */\n      and\n        /* \"--CODEGEN--\":106:143   */\n      swap1\n      pop\n        /* \"--CODEGEN--\":169:172   */\n      dup1\n        /* \"--CODEGEN--\":161:167   */\n      dup4\n        /* \"--CODEGEN--\":157:173   */\n      add\n        /* \"--CODEGEN--\":147:173   */\n      swap3\n      pop\n        /* \"contracts/ACL.sol\":1328:1368  willPerform(_role, msg.sender, msg.data) */\n      pop\n      pop\n      pop\n      pop\n      pop\n      pop\n        /* \"contracts/ACL.sol\":1328:1339  willPerform */\n      tag_54\n        /* \"contracts/ACL.sol\":1328:1368  willPerform(_role, msg.sender, msg.data) */\n      jump\t// in\n    tag_105:\n        /* \"contracts/ACL.sol\":1320:1382  require(willPerform(_role, msg.sender, msg.data), \"acl: auth\") */\n      tag_106\n      jumpi\n      mload(0x40)\n      0x08c379a000000000000000000000000000000000000000000000000000000000\n      dup2\n      mstore\n      0x04\n      add\n      tag_107\n      swap1\n      jump(tag_57)\n    tag_107:\n      mload(0x40)\n      dup1\n      swap2\n      sub\n      swap1\n      revert\n    tag_106:\n        /* \"contracts/ACL.sol\":2289:2303  _freeze(_role) */\n      tag_109\n        /* \"contracts/ACL.sol\":2297:2302  _role */\n      dup3\n        /* \"contracts/ACL.sol\":2289:2296  _freeze */\n      tag_83\n        /* \"contracts/ACL.sol\":2289:2303  _freeze(_role) */\n      jump\t// in\n    tag_109:\n        /* \"contracts/ACL.sol\":2223:2311  function freeze(bytes4 _role) external auth(ROOT_ROLE) {\r... */\n      pop\n      pop\n      jump\t// out\n        /* \"contracts/Initializable.sol\":103:148  mapping (string => uint256) public initBlocks */\n    tag_49:\n      0x00\n      dup2\n        /* \"--CODEGEN--\":28:35   */\n      dup1\n        /* \"--CODEGEN--\":22:36   */\n      mload\n        /* \"--CODEGEN--\":169:173   */\n      0x20\n        /* \"--CODEGEN--\":160:167   */\n      dup2\n        /* \"--CODEGEN--\":156:174   */\n      add\n        /* \"--CODEGEN--\":147:154   */\n      dup3\n        /* \"--CODEGEN--\":143:175   */\n      add\n        /* \"--CODEGEN--\":204:217   */\n      dup1\n        /* \"--CODEGEN--\":198:218   */\n      mload\n        /* \"--CODEGEN--\":246:254   */\n      dup5\n        /* \"--CODEGEN--\":231:244   */\n      dup3\n        /* \"--CODEGEN--\":224:255   */\n      mstore\n        /* \"--CODEGEN--\":316:320   */\n      0x20\n        /* \"--CODEGEN--\":307:314   */\n      dup4\n        /* \"--CODEGEN--\":303:321   */\n      add\n        /* \"--CODEGEN--\":296:300   */\n      0x20\n        /* \"--CODEGEN--\":287:294   */\n      dup6\n        /* \"--CODEGEN--\":283:301   */\n      add\n        /* \"--CODEGEN--\":273:322   */\n      keccak256\n        /* \"--CODEGEN--\":350:359   */\n      dup2\n        /* \"--CODEGEN--\":335:348   */\n      dup4\n        /* \"--CODEGEN--\":328:360   */\n      mstore\n        /* \"--CODEGEN--\":378:382   */\n      dup1\n        /* \"--CODEGEN--\":366:382   */\n      swap6\n      pop\n        /* \"--CODEGEN--\":0:388   */\n      pop\n      pop\n      pop\n      pop\n        /* \"contracts/Initializable.sol\":103:148  mapping (string => uint256) public initBlocks */\n      pop\n      0x00\n      swap2\n      pop\n      swap1\n      pop\n      sload\n      dup2\n      jump\t// out\n        /* \"contracts/ACL.sol\":2771:3040  function willPerform(bytes4 _role, address _who, bytes memory _data) internal returns (bool) {\r... */\n    tag_54:\n        /* \"contracts/ACL.sol\":2858:2862  bool */\n      0x00\n        /* \"contracts/ACL.sol\":2964:2994  _checkRole(_role, _who, _data) */\n      tag_111\n        /* \"contracts/ACL.sol\":2975:2980  _role */\n      dup5\n        /* \"contracts/ACL.sol\":2982:2986  _who */\n      dup5\n        /* \"contracts/ACL.sol\":2988:2993  _data */\n      dup5\n        /* \"contracts/ACL.sol\":2964:2974  _checkRole */\n      tag_112\n        /* \"contracts/ACL.sol\":2964:2994  _checkRole(_role, _who, _data) */\n      jump\t// in\n    tag_111:\n        /* \"contracts/ACL.sol\":2964:3032  _checkRole(_role, _who, _data) || _checkRole(_role, ANY_ADDR, _data) */\n      dup1\n      tag_113\n      jumpi\n      pop\n        /* \"contracts/ACL.sol\":2998:3032  _checkRole(_role, ANY_ADDR, _data) */\n      tag_114\n        /* \"contracts/ACL.sol\":3009:3014  _role */\n      dup5\n        /* \"contracts/ACL.sol\":613:615  -1 */\n      0xffffffffffffffffffffffffffffffffffffffffffffffffffffffffffffffff\n        /* \"contracts/ACL.sol\":3026:3031  _data */\n      dup5\n        /* \"contracts/ACL.sol\":2998:3008  _checkRole */\n      tag_112\n        /* \"contracts/ACL.sol\":2998:3032  _checkRole(_role, ANY_ADDR, _data) */\n      jump\t// in\n    tag_114:\n        /* \"contracts/ACL.sol\":2964:3032  _checkRole(_role, _who, _data) || _checkRole(_role, ANY_ADDR, _data) */\n    tag_113:\n        /* \"contracts/ACL.sol\":2957:3032  return _checkRole(_role, _who, _data) || _checkRole(_role, ANY_ADDR, _data) */\n      swap1\n      pop\n        /* \"contracts/ACL.sol\":2771:3040  function willPerform(bytes4 _role, address _who, bytes memory _data) internal returns (bool) {\r... */\n      swap4\n      swap3\n      pop\n      pop\n      pop\n      jump\t// out\n        /* \"contracts/ACL.sol\":3310:3435  function _grant(bytes4 _role, address _who) internal {\r... */\n    tag_71:\n        /* \"contracts/ACL.sol\":3374:3427  _grantWithOracle(_role, _who, IACLOracle(ALLOW_FLAG)) */\n      tag_116\n        /* \"contracts/ACL.sol\":3391:3396  _role */\n      dup3\n        /* \"contracts/ACL.sol\":3398:3402  _who */\n      dup3\n        /* \"contracts/ACL.sol\":830:831  2 */\n      0x02\n        /* \"contracts/ACL.sol\":3374:3390  _grantWithOracle */\n      tag_103\n        /* \"contracts/ACL.sol\":3374:3427  _grantWithOracle(_role, _who, IACLOracle(ALLOW_FLAG)) */\n      jump\t// in\n    tag_116:\n        /* \"contracts/ACL.sol\":3310:3435  function _grant(bytes4 _role, address _who) internal {\r... */\n      pop\n      pop\n      jump\t// out\n        /* \"contracts/ACL.sol\":3758:3963  function _revoke(bytes4 _role, address _who) internal {\r... */\n    tag_77:\n        /* \"contracts/ACL.sol\":3832:3847  isFrozen(_role) */\n      tag_118\n        /* \"contracts/ACL.sol\":3841:3846  _role */\n      dup3\n        /* \"contracts/ACL.sol\":3832:3840  isFrozen */\n      tag_20\n        /* \"contracts/ACL.sol\":3832:3847  isFrozen(_role) */\n      jump\t// in\n    tag_118:\n        /* \"contracts/ACL.sol\":3831:3847  !isFrozen(_role) */\n      iszero\n        /* \"contracts/ACL.sol\":3823:3863  require(!isFrozen(_role), \"acl: frozen\") */\n      tag_119\n      jumpi\n      mload(0x40)\n      0x08c379a000000000000000000000000000000000000000000000000000000000\n      dup2\n      mstore\n      0x04\n      add\n      tag_120\n      swap1\n      jump(tag_121)\n    tag_120:\n      mload(0x40)\n      dup1\n      swap2\n      sub\n      swap1\n      revert\n    tag_119:\n        /* \"contracts/ACL.sol\":695:696  0 */\n      0x00\n        /* \"contracts/ACL.sol\":3876:3881  roles */\n      0x01\n        /* \"contracts/ACL.sol\":3876:3888  roles[_role] */\n      0x00\n        /* \"contracts/ACL.sol\":3882:3887  _role */\n      dup5\n        /* \"contracts/ACL.sol\":3876:3888  roles[_role] */\n      not(0xffffffffffffffffffffffffffffffffffffffffffffffffffffffff)\n      and\n      not(0xffffffffffffffffffffffffffffffffffffffffffffffffffffffff)\n      and\n      dup2\n      mstore\n      0x20\n      add\n      swap1\n      dup2\n      mstore\n      0x20\n      add\n      0x00\n      keccak256\n        /* \"contracts/ACL.sol\":3876:3894  roles[_role][_who] */\n      0x00\n        /* \"contracts/ACL.sol\":3889:3893  _who */\n      dup4\n        /* \"contracts/ACL.sol\":3876:3894  roles[_role][_who] */\n      0xffffffffffffffffffffffffffffffffffffffff\n      and\n      0xffffffffffffffffffffffffffffffffffffffff\n      and\n      dup2\n      mstore\n      0x20\n      add\n      swap1\n      dup2\n      mstore\n      0x20\n      add\n      0x00\n      keccak256\n      0x00\n        /* \"contracts/ACL.sol\":3876:3907  roles[_role][_who] = UNSET_ROLE */\n      0x0100\n      exp\n      dup2\n      sload\n      dup2\n      0xffffffffffffffffffffffffffffffffffffffff\n      mul\n      not\n      and\n      swap1\n      dup4\n      0xffffffffffffffffffffffffffffffffffffffff\n      and\n      mul\n      or\n      swap1\n      sstore\n      pop\n        /* \"contracts/ACL.sol\":3950:3954  _who */\n      dup1\n        /* \"contracts/ACL.sol\":3923:3955  Revoked(_role, msg.sender, _who) */\n      0xffffffffffffffffffffffffffffffffffffffff\n      and\n        /* \"contracts/ACL.sol\":3938:3948  msg.sender */\n      caller\n        /* \"contracts/ACL.sol\":3923:3955  Revoked(_role, msg.sender, _who) */\n      0xffffffffffffffffffffffffffffffffffffffff\n      and\n        /* \"contracts/ACL.sol\":3931:3936  _role */\n      dup4\n        /* \"contracts/ACL.sol\":3923:3955  Revoked(_role, msg.sender, _who) */\n      not(0xffffffffffffffffffffffffffffffffffffffffffffffffffffffff)\n      and\n      0x682f2c466c1e9f6883eb72cbced01373e1cb18b05ae5c8bc04dc73d73e29f8cd\n      mload(0x40)\n      mload(0x40)\n      dup1\n      swap2\n      sub\n      swap1\n      log4\n        /* \"contracts/ACL.sol\":3758:3963  function _revoke(bytes4 _role, address _who) internal {\r... */\n      pop\n      pop\n      jump\t// out\n        /* \"contracts/ACL.sol\":3971:4163  function _freeze(bytes4 _role) internal {\r... */\n    tag_83:\n        /* \"contracts/ACL.sol\":4031:4046  isFrozen(_role) */\n      tag_123\n        /* \"contracts/ACL.sol\":4040:4045  _role */\n      dup2\n        /* \"contracts/ACL.sol\":4031:4039  isFrozen */\n      tag_20\n        /* \"contracts/ACL.sol\":4031:4046  isFrozen(_role) */\n      jump\t// in\n    tag_123:\n        /* \"contracts/ACL.sol\":4030:4046  !isFrozen(_role) */\n      iszero\n        /* \"contracts/ACL.sol\":4022:4062  require(!isFrozen(_role), \"acl: frozen\") */\n      tag_124\n      jumpi\n      mload(0x40)\n      0x08c379a000000000000000000000000000000000000000000000000000000000\n      dup2\n      mstore\n      0x04\n      add\n      tag_125\n      swap1\n      jump(tag_121)\n    tag_125:\n      mload(0x40)\n      dup1\n      swap2\n      sub\n      swap1\n      revert\n    tag_124:\n        /* \"contracts/ACL.sol\":752:753  1 */\n      0x01\n        /* \"contracts/ACL.sol\":4075:4080  roles */\n      dup1\n        /* \"contracts/ACL.sol\":4075:4087  roles[_role] */\n      0x00\n        /* \"contracts/ACL.sol\":4081:4086  _role */\n      dup4\n        /* \"contracts/ACL.sol\":4075:4087  roles[_role] */\n      not(0xffffffffffffffffffffffffffffffffffffffffffffffffffffffff)\n      and\n      not(0xffffffffffffffffffffffffffffffffffffffffffffffffffffffff)\n      and\n      dup2\n      mstore\n      0x20\n      add\n      swap1\n      dup2\n      mstore\n      0x20\n      add\n      0x00\n      keccak256\n        /* \"contracts/ACL.sol\":4075:4100  roles[_role][FREEZE_FLAG] */\n      0x00\n        /* \"contracts/ACL.sol\":752:753  1 */\n      0x01\n        /* \"contracts/ACL.sol\":4075:4100  roles[_role][FREEZE_FLAG] */\n      0xffffffffffffffffffffffffffffffffffffffff\n      and\n      0xffffffffffffffffffffffffffffffffffffffff\n      and\n      dup2\n      mstore\n      0x20\n      add\n      swap1\n      dup2\n      mstore\n      0x20\n      add\n      0x00\n      keccak256\n      0x00\n        /* \"contracts/ACL.sol\":4075:4114  roles[_role][FREEZE_FLAG] = FREEZE_FLAG */\n      0x0100\n      exp\n      dup2\n      sload\n      dup2\n      0xffffffffffffffffffffffffffffffffffffffff\n      mul\n      not\n      and\n      swap1\n      dup4\n      0xffffffffffffffffffffffffffffffffffffffff\n      and\n      mul\n      or\n      swap1\n      sstore\n      pop\n        /* \"contracts/ACL.sol\":4144:4154  msg.sender */\n      caller\n        /* \"contracts/ACL.sol\":4130:4155  Frozen(_role, msg.sender) */\n      0xffffffffffffffffffffffffffffffffffffffff\n      and\n        /* \"contracts/ACL.sol\":4137:4142  _role */\n      dup2\n        /* \"contracts/ACL.sol\":4130:4155  Frozen(_role, msg.sender) */\n      not(0xffffffffffffffffffffffffffffffffffffffffffffffffffffffff)\n      and\n      0x049c6b8b07a879425742523fa80f8ffb25e39ad518c93a5896a0df19518397e5\n      mload(0x40)\n      mload(0x40)\n      dup1\n      swap2\n      sub\n      swap1\n      log3\n        /* \"contracts/ACL.sol\":3971:4163  function _freeze(bytes4 _role) internal {\r... */\n      pop\n      jump\t// out\n        /* \"contracts/ACL.sol\":3443:3750  function _grantWithOracle(bytes4 _role, address _who, IACLOracle _oracle) internal {\r... */\n    tag_103:\n        /* \"contracts/ACL.sol\":3546:3561  isFrozen(_role) */\n      tag_127\n        /* \"contracts/ACL.sol\":3555:3560  _role */\n      dup4\n        /* \"contracts/ACL.sol\":3546:3554  isFrozen */\n      tag_20\n        /* \"contracts/ACL.sol\":3546:3561  isFrozen(_role) */\n      jump\t// in\n    tag_127:\n        /* \"contracts/ACL.sol\":3545:3561  !isFrozen(_role) */\n      iszero\n        /* \"contracts/ACL.sol\":3537:3577  require(!isFrozen(_role), \"acl: frozen\") */\n      tag_128\n      jumpi\n      mload(0x40)\n      0x08c379a000000000000000000000000000000000000000000000000000000000\n      dup2\n      mstore\n      0x04\n      add\n      tag_129\n      swap1\n      jump(tag_121)\n    tag_129:\n      mload(0x40)\n      dup1\n      swap2\n      sub\n      swap1\n      revert\n    tag_128:\n        /* \"contracts/ACL.sol\":752:753  1 */\n      0x01\n        /* \"contracts/ACL.sol\":3596:3615  _who != FREEZE_FLAG */\n      0xffffffffffffffffffffffffffffffffffffffff\n      and\n        /* \"contracts/ACL.sol\":3596:3600  _who */\n      dup3\n        /* \"contracts/ACL.sol\":3596:3615  _who != FREEZE_FLAG */\n      0xffffffffffffffffffffffffffffffffffffffff\n      and\n      eq\n      iszero\n        /* \"contracts/ACL.sol\":3588:3635  require(_who != FREEZE_FLAG, \"acl: bad freeze\") */\n      tag_130\n      jumpi\n      mload(0x40)\n      0x08c379a000000000000000000000000000000000000000000000000000000000\n      dup2\n      mstore\n      0x04\n      add\n      tag_131\n      swap1\n      jump(tag_132)\n    tag_131:\n      mload(0x40)\n      dup1\n      swap2\n      sub\n      swap1\n      revert\n    tag_130:\n        /* \"contracts/ACL.sol\":3677:3684  _oracle */\n      dup1\n        /* \"contracts/ACL.sol\":3648:3653  roles */\n      0x01\n        /* \"contracts/ACL.sol\":3648:3660  roles[_role] */\n      0x00\n        /* \"contracts/ACL.sol\":3654:3659  _role */\n      dup6\n        /* \"contracts/ACL.sol\":3648:3660  roles[_role] */\n      not(0xffffffffffffffffffffffffffffffffffffffffffffffffffffffff)\n      and\n      not(0xffffffffffffffffffffffffffffffffffffffffffffffffffffffff)\n      and\n      dup2\n      mstore\n      0x20\n      add\n      swap1\n      dup2\n      mstore\n      0x20\n      add\n      0x00\n      keccak256\n        /* \"contracts/ACL.sol\":3648:3666  roles[_role][_who] */\n      0x00\n        /* \"contracts/ACL.sol\":3661:3665  _who */\n      dup5\n        /* \"contracts/ACL.sol\":3648:3666  roles[_role][_who] */\n      0xffffffffffffffffffffffffffffffffffffffff\n      and\n      0xffffffffffffffffffffffffffffffffffffffff\n      and\n      dup2\n      mstore\n      0x20\n      add\n      swap1\n      dup2\n      mstore\n      0x20\n      add\n      0x00\n      keccak256\n      0x00\n        /* \"contracts/ACL.sol\":3648:3685  roles[_role][_who] = address(_oracle) */\n      0x0100\n      exp\n      dup2\n      sload\n      dup2\n      0xffffffffffffffffffffffffffffffffffffffff\n      mul\n      not\n      and\n      swap1\n      dup4\n      0xffffffffffffffffffffffffffffffffffffffff\n      and\n      mul\n      or\n      swap1\n      sstore\n      pop\n        /* \"contracts/ACL.sol\":3728:3732  _who */\n      dup2\n        /* \"contracts/ACL.sol\":3701:3742  Granted(_role, msg.sender, _who, _oracle) */\n      0xffffffffffffffffffffffffffffffffffffffff\n      and\n        /* \"contracts/ACL.sol\":3716:3726  msg.sender */\n      caller\n        /* \"contracts/ACL.sol\":3701:3742  Granted(_role, msg.sender, _who, _oracle) */\n      0xffffffffffffffffffffffffffffffffffffffff\n      and\n        /* \"contracts/ACL.sol\":3709:3714  _role */\n      dup5\n        /* \"contracts/ACL.sol\":3701:3742  Granted(_role, msg.sender, _who, _oracle) */\n      not(0xffffffffffffffffffffffffffffffffffffffffffffffffffffffff)\n      and\n      0xc62063b81f7036fd97a0dc546516e99f11004d2d76ca0fddd3866346c86e7091\n        /* \"contracts/ACL.sol\":3734:3741  _oracle */\n      dup5\n        /* \"contracts/ACL.sol\":3701:3742  Granted(_role, msg.sender, _who, _oracle) */\n      mload(0x40)\n      tag_133\n      swap2\n      swap1\n      jump(tag_134)\n    tag_133:\n      mload(0x40)\n      dup1\n      swap2\n      sub\n      swap1\n      log4\n        /* \"contracts/ACL.sol\":3443:3750  function _grantWithOracle(bytes4 _role, address _who, IACLOracle _oracle) internal {\r... */\n      pop\n      pop\n      pop\n      jump\t// out\n        /* \"contracts/ACL.sol\":4171:4760  function _checkRole(bytes4 _role, address _who, bytes memory _data) internal returns (bool) {\r... */\n    tag_112:\n        /* \"contracts/ACL.sol\":4257:4261  bool */\n      0x00\n        /* \"contracts/ACL.sol\":4274:4303  address accessFlagOrAclOracle */\n      dup1\n        /* \"contracts/ACL.sol\":4306:4311  roles */\n      0x01\n        /* \"contracts/ACL.sol\":4306:4318  roles[_role] */\n      0x00\n        /* \"contracts/ACL.sol\":4312:4317  _role */\n      dup7\n        /* \"contracts/ACL.sol\":4306:4318  roles[_role] */\n      not(0xffffffffffffffffffffffffffffffffffffffffffffffffffffffff)\n      and\n      not(0xffffffffffffffffffffffffffffffffffffffffffffffffffffffff)\n      and\n      dup2\n      mstore\n      0x20\n      add\n      swap1\n      dup2\n      mstore\n      0x20\n      add\n      0x00\n      keccak256\n        /* \"contracts/ACL.sol\":4306:4324  roles[_role][_who] */\n      0x00\n        /* \"contracts/ACL.sol\":4319:4323  _who */\n      dup6\n        /* \"contracts/ACL.sol\":4306:4324  roles[_role][_who] */\n      0xffffffffffffffffffffffffffffffffffffffff\n      and\n      0xffffffffffffffffffffffffffffffffffffffff\n      and\n      dup2\n      mstore\n      0x20\n      add\n      swap1\n      dup2\n      mstore\n      0x20\n      add\n      0x00\n      keccak256\n      0x00\n      swap1\n      sload\n      swap1\n      0x0100\n      exp\n      swap1\n      div\n      0xffffffffffffffffffffffffffffffffffffffff\n      and\n        /* \"contracts/ACL.sol\":4274:4324  address accessFlagOrAclOracle = roles[_role][_who] */\n      swap1\n      pop\n        /* \"contracts/ACL.sol\":695:696  0 */\n      0x00\n        /* \"contracts/ACL.sol\":4339:4374  accessFlagOrAclOracle != UNSET_ROLE */\n      0xffffffffffffffffffffffffffffffffffffffff\n      and\n        /* \"contracts/ACL.sol\":4339:4360  accessFlagOrAclOracle */\n      dup2\n        /* \"contracts/ACL.sol\":4339:4374  accessFlagOrAclOracle != UNSET_ROLE */\n      0xffffffffffffffffffffffffffffffffffffffff\n      and\n      eq\n        /* \"contracts/ACL.sol\":4335:4728  if (accessFlagOrAclOracle != UNSET_ROLE) {\r... */\n      tag_136\n      jumpi\n        /* \"contracts/ACL.sol\":830:831  2 */\n      0x02\n        /* \"contracts/ACL.sol\":4395:4430  accessFlagOrAclOracle == ALLOW_FLAG */\n      0xffffffffffffffffffffffffffffffffffffffff\n      and\n        /* \"contracts/ACL.sol\":4395:4416  accessFlagOrAclOracle */\n      dup2\n        /* \"contracts/ACL.sol\":4395:4430  accessFlagOrAclOracle == ALLOW_FLAG */\n      0xffffffffffffffffffffffffffffffffffffffff\n      and\n      eq\n        /* \"contracts/ACL.sol\":4391:4443  if (accessFlagOrAclOracle == ALLOW_FLAG) return true */\n      iszero\n      tag_137\n      jumpi\n        /* \"contracts/ACL.sol\":4439:4443  true */\n      0x01\n        /* \"contracts/ACL.sol\":4432:4443  return true */\n      swap2\n      pop\n      pop\n      jump(tag_135)\n        /* \"contracts/ACL.sol\":4391:4443  if (accessFlagOrAclOracle == ALLOW_FLAG) return true */\n    tag_137:\n        /* \"contracts/ACL.sol\":4570:4591  accessFlagOrAclOracle */\n      dup1\n        /* \"contracts/ACL.sol\":4559:4604  IACLOracle(accessFlagOrAclOracle).willPerform */\n      0xffffffffffffffffffffffffffffffffffffffff\n      and\n      0x097c8108\n        /* \"contracts/ACL.sol\":4605:4610  _role */\n      dup7\n        /* \"contracts/ACL.sol\":4612:4616  _who */\n      dup7\n        /* \"contracts/ACL.sol\":4618:4623  _data */\n      dup7\n        /* \"contracts/ACL.sol\":4559:4624  IACLOracle(accessFlagOrAclOracle).willPerform(_role, _who, _data) */\n      mload(0x40)\n      dup5\n      0xffffffff\n      and\n      0xe0\n      shl\n      dup2\n      mstore\n      0x04\n      add\n      tag_138\n      swap4\n      swap3\n      swap2\n      swap1\n      jump(tag_139)\n    tag_138:\n      0x20\n      mload(0x40)\n      dup1\n      dup4\n      sub\n      dup2\n      0x00\n      dup8\n      dup1\n      extcodesize\n      iszero\n        /* \"--CODEGEN--\":5:14   */\n      dup1\n        /* \"--CODEGEN--\":2:4   */\n      iszero\n      tag_140\n      jumpi\n        /* \"--CODEGEN--\":27:28   */\n      0x00\n        /* \"--CODEGEN--\":24:25   */\n      dup1\n        /* \"--CODEGEN--\":17:29   */\n      revert\n        /* \"--CODEGEN--\":2:4   */\n    tag_140:\n        /* \"contracts/ACL.sol\":4559:4624  IACLOracle(accessFlagOrAclOracle).willPerform(_role, _who, _data) */\n      pop\n      gas\n      call\n      swap3\n      pop\n      pop\n      pop\n      dup1\n      iszero\n      tag_141\n      jumpi\n      pop\n      mload(0x40)\n      returndatasize\n        /* \"--CODEGEN--\":101:105   */\n      0x1f\n        /* \"--CODEGEN--\":97:106   */\n      not\n        /* \"--CODEGEN--\":90:94   */\n      0x1f\n        /* \"--CODEGEN--\":84:88   */\n      dup3\n        /* \"--CODEGEN--\":80:95   */\n      add\n        /* \"--CODEGEN--\":76:107   */\n      and\n        /* \"--CODEGEN--\":69:74   */\n      dup3\n        /* \"--CODEGEN--\":65:108   */\n      add\n        /* \"--CODEGEN--\":126:132   */\n      dup1\n        /* \"--CODEGEN--\":120:124   */\n      0x40\n        /* \"--CODEGEN--\":113:133   */\n      mstore\n        /* \"--CODEGEN--\":0:138   */\n      pop\n        /* \"contracts/ACL.sol\":4559:4624  IACLOracle(accessFlagOrAclOracle).willPerform(_role, _who, _data) */\n      dup2\n      add\n      swap1\n      tag_142\n      swap2\n      swap1\n      jump(tag_143)\n    tag_142:\n      0x01\n    tag_141:\n        /* \"contracts/ACL.sol\":4555:4717  try IACLOracle(accessFlagOrAclOracle).willPerform(_role, _who, _data) returns (bool allowed) {\r... */\n      tag_144\n      jumpi\n      jump(tag_147)\n    tag_144:\n        /* \"contracts/ACL.sol\":4671:4678  allowed */\n      dup1\n        /* \"contracts/ACL.sol\":4667:4691  if (allowed) return true */\n      iszero\n      tag_148\n      jumpi\n        /* \"contracts/ACL.sol\":4687:4691  true */\n      0x01\n        /* \"contracts/ACL.sol\":4680:4691  return true */\n      swap3\n      pop\n      pop\n      pop\n      jump(tag_135)\n        /* \"contracts/ACL.sol\":4667:4691  if (allowed) return true */\n    tag_148:\n        /* \"contracts/ACL.sol\":4625:4707  returns (bool allowed) {\r... */\n      pop\n        /* \"contracts/ACL.sol\":4555:4717  try IACLOracle(accessFlagOrAclOracle).willPerform(_role, _who, _data) returns (bool allowed) {\r... */\n    tag_147:\n        /* \"contracts/ACL.sol\":4335:4728  if (accessFlagOrAclOracle != UNSET_ROLE) {\r... */\n    tag_136:\n        /* \"contracts/ACL.sol\":4747:4752  false */\n      0x00\n        /* \"contracts/ACL.sol\":4740:4752  return false */\n      swap2\n      pop\n      pop\n        /* \"contracts/ACL.sol\":4171:4760  function _checkRole(bytes4 _role, address _who, bytes memory _data) internal returns (bool) {\r... */\n    tag_135:\n      swap4\n      swap3\n      pop\n      pop\n      pop\n      jump\t// out\n    tag_63:\n      mload(0x40)\n      dup1\n      0x60\n      add\n      0x40\n      mstore\n      dup1\n      0x00\n      0x02\n      dup2\n      gt\n      iszero\n      tag_149\n      jumpi\n      invalid\n    tag_149:\n      dup2\n      mstore\n      0x20\n      add\n      and(not(0xffffffffffffffffffffffffffffffffffffffffffffffffffffffff), 0x00)\n      dup2\n      mstore\n      0x20\n      add\n      and(0xffffffffffffffffffffffffffffffffffffffff, 0x00)\n      dup2\n      mstore\n      pop\n      swap1\n      jump\t// out\n        /* \"--CODEGEN--\":5:135   */\n    tag_151:\n      0x00\n        /* \"--CODEGEN--\":85:91   */\n      dup2\n        /* \"--CODEGEN--\":72:92   */\n      calldataload\n        /* \"--CODEGEN--\":63:92   */\n      swap1\n      pop\n        /* \"--CODEGEN--\":97:130   */\n      tag_153\n        /* \"--CODEGEN--\":124:129   */\n      dup2\n        /* \"--CODEGEN--\":97:130   */\n      jump(tag_154)\n    tag_153:\n        /* \"--CODEGEN--\":57:135   */\n      swap3\n      swap2\n      pop\n      pop\n      jump\n        /* \"--CODEGEN--\":176:554   */\n    tag_155:\n      0x00\n      dup1\n        /* \"--CODEGEN--\":332:335   */\n      dup4\n        /* \"--CODEGEN--\":325:329   */\n      0x1f\n        /* \"--CODEGEN--\":317:323   */\n      dup5\n        /* \"--CODEGEN--\":313:330   */\n      add\n        /* \"--CODEGEN--\":309:336   */\n      slt\n        /* \"--CODEGEN--\":299:301   */\n      tag_157\n      jumpi\n        /* \"--CODEGEN--\":350:351   */\n      0x00\n        /* \"--CODEGEN--\":347:348   */\n      dup1\n        /* \"--CODEGEN--\":340:352   */\n      revert\n        /* \"--CODEGEN--\":299:301   */\n    tag_157:\n        /* \"--CODEGEN--\":383:389   */\n      dup3\n        /* \"--CODEGEN--\":370:390   */\n      calldataload\n        /* \"--CODEGEN--\":360:390   */\n      swap1\n      pop\n        /* \"--CODEGEN--\":410:428   */\n      0xffffffffffffffff\n        /* \"--CODEGEN--\":402:408   */\n      dup2\n        /* \"--CODEGEN--\":399:429   */\n      gt\n        /* \"--CODEGEN--\":396:398   */\n      iszero\n      tag_158\n      jumpi\n        /* \"--CODEGEN--\":442:443   */\n      0x00\n        /* \"--CODEGEN--\":439:440   */\n      dup1\n        /* \"--CODEGEN--\":432:444   */\n      revert\n        /* \"--CODEGEN--\":396:398   */\n    tag_158:\n        /* \"--CODEGEN--\":476:480   */\n      0x20\n        /* \"--CODEGEN--\":468:474   */\n      dup4\n        /* \"--CODEGEN--\":464:481   */\n      add\n        /* \"--CODEGEN--\":452:481   */\n      swap2\n      pop\n        /* \"--CODEGEN--\":527:530   */\n      dup4\n        /* \"--CODEGEN--\":519:523   */\n      0x60\n        /* \"--CODEGEN--\":511:517   */\n      dup3\n        /* \"--CODEGEN--\":507:524   */\n      mul\n        /* \"--CODEGEN--\":497:505   */\n      dup4\n        /* \"--CODEGEN--\":493:525   */\n      add\n        /* \"--CODEGEN--\":490:531   */\n      gt\n        /* \"--CODEGEN--\":487:489   */\n      iszero\n      tag_159\n      jumpi\n        /* \"--CODEGEN--\":544:545   */\n      0x00\n        /* \"--CODEGEN--\":541:542   */\n      dup1\n        /* \"--CODEGEN--\":534:546   */\n      revert\n        /* \"--CODEGEN--\":487:489   */\n    tag_159:\n        /* \"--CODEGEN--\":292:554   */\n      swap3\n      pop\n      swap3\n      swap1\n      pop\n      jump\n        /* \"--CODEGEN--\":562:690   */\n    tag_160:\n      0x00\n        /* \"--CODEGEN--\":643:649   */\n      dup2\n        /* \"--CODEGEN--\":637:650   */\n      mload\n        /* \"--CODEGEN--\":628:650   */\n      swap1\n      pop\n        /* \"--CODEGEN--\":655:685   */\n      tag_162\n        /* \"--CODEGEN--\":679:684   */\n      dup2\n        /* \"--CODEGEN--\":655:685   */\n      jump(tag_163)\n    tag_162:\n        /* \"--CODEGEN--\":622:690   */\n      swap3\n      swap2\n      pop\n      pop\n      jump\n        /* \"--CODEGEN--\":697:825   */\n    tag_164:\n      0x00\n        /* \"--CODEGEN--\":776:782   */\n      dup2\n        /* \"--CODEGEN--\":763:783   */\n      calldataload\n        /* \"--CODEGEN--\":754:783   */\n      swap1\n      pop\n        /* \"--CODEGEN--\":788:820   */\n      tag_166\n        /* \"--CODEGEN--\":814:819   */\n      dup2\n        /* \"--CODEGEN--\":788:820   */\n      jump(tag_167)\n    tag_166:\n        /* \"--CODEGEN--\":748:825   */\n      swap3\n      swap2\n      pop\n      pop\n      jump\n        /* \"--CODEGEN--\":832:998   */\n    tag_168:\n      0x00\n        /* \"--CODEGEN--\":930:936   */\n      dup2\n        /* \"--CODEGEN--\":917:937   */\n      calldataload\n        /* \"--CODEGEN--\":908:937   */\n      swap1\n      pop\n        /* \"--CODEGEN--\":942:993   */\n      tag_170\n        /* \"--CODEGEN--\":987:992   */\n      dup2\n        /* \"--CODEGEN--\":942:993   */\n      jump(tag_171)\n    tag_170:\n        /* \"--CODEGEN--\":902:998   */\n      swap3\n      swap2\n      pop\n      pop\n      jump\n        /* \"--CODEGEN--\":1005:1151   */\n    tag_172:\n      0x00\n        /* \"--CODEGEN--\":1093:1099   */\n      dup2\n        /* \"--CODEGEN--\":1080:1100   */\n      calldataload\n        /* \"--CODEGEN--\":1071:1100   */\n      swap1\n      pop\n        /* \"--CODEGEN--\":1105:1146   */\n      tag_174\n        /* \"--CODEGEN--\":1140:1145   */\n      dup2\n        /* \"--CODEGEN--\":1105:1146   */\n      jump(tag_175)\n    tag_174:\n        /* \"--CODEGEN--\":1065:1151   */\n      swap3\n      swap2\n      pop\n      pop\n      jump\n        /* \"--CODEGEN--\":1159:1601   */\n    tag_176:\n      0x00\n        /* \"--CODEGEN--\":1261:1264   */\n      dup3\n        /* \"--CODEGEN--\":1254:1258   */\n      0x1f\n        /* \"--CODEGEN--\":1246:1252   */\n      dup4\n        /* \"--CODEGEN--\":1242:1259   */\n      add\n        /* \"--CODEGEN--\":1238:1265   */\n      slt\n        /* \"--CODEGEN--\":1228:1230   */\n      tag_178\n      jumpi\n        /* \"--CODEGEN--\":1279:1280   */\n      0x00\n        /* \"--CODEGEN--\":1276:1277   */\n      dup1\n        /* \"--CODEGEN--\":1269:1281   */\n      revert\n        /* \"--CODEGEN--\":1228:1230   */\n    tag_178:\n        /* \"--CODEGEN--\":1316:1322   */\n      dup2\n        /* \"--CODEGEN--\":1303:1323   */\n      calldataload\n        /* \"--CODEGEN--\":1338:1403   */\n      tag_179\n        /* \"--CODEGEN--\":1353:1402   */\n      tag_180\n        /* \"--CODEGEN--\":1395:1401   */\n      dup3\n        /* \"--CODEGEN--\":1353:1402   */\n      jump(tag_181)\n    tag_180:\n        /* \"--CODEGEN--\":1338:1403   */\n      jump(tag_182)\n    tag_179:\n        /* \"--CODEGEN--\":1329:1403   */\n      swap2\n      pop\n        /* \"--CODEGEN--\":1423:1429   */\n      dup1\n        /* \"--CODEGEN--\":1416:1421   */\n      dup3\n        /* \"--CODEGEN--\":1409:1430   */\n      mstore\n        /* \"--CODEGEN--\":1459:1463   */\n      0x20\n        /* \"--CODEGEN--\":1451:1457   */\n      dup4\n        /* \"--CODEGEN--\":1447:1464   */\n      add\n        /* \"--CODEGEN--\":1492:1496   */\n      0x20\n        /* \"--CODEGEN--\":1485:1490   */\n      dup4\n        /* \"--CODEGEN--\":1481:1497   */\n      add\n        /* \"--CODEGEN--\":1527:1530   */\n      dup6\n        /* \"--CODEGEN--\":1518:1524   */\n      dup4\n        /* \"--CODEGEN--\":1513:1516   */\n      dup4\n        /* \"--CODEGEN--\":1509:1525   */\n      add\n        /* \"--CODEGEN--\":1506:1531   */\n      gt\n        /* \"--CODEGEN--\":1503:1505   */\n      iszero\n      tag_183\n      jumpi\n        /* \"--CODEGEN--\":1544:1545   */\n      0x00\n        /* \"--CODEGEN--\":1541:1542   */\n      dup1\n        /* \"--CODEGEN--\":1534:1546   */\n      revert\n        /* \"--CODEGEN--\":1503:1505   */\n    tag_183:\n        /* \"--CODEGEN--\":1554:1595   */\n      tag_184\n        /* \"--CODEGEN--\":1588:1594   */\n      dup4\n        /* \"--CODEGEN--\":1583:1586   */\n      dup3\n        /* \"--CODEGEN--\":1578:1581   */\n      dup5\n        /* \"--CODEGEN--\":1554:1595   */\n      jump(tag_185)\n    tag_184:\n        /* \"--CODEGEN--\":1221:1601   */\n      pop\n      pop\n      pop\n      swap3\n      swap2\n      pop\n      pop\n      jump\n        /* \"--CODEGEN--\":1639:2253   */\n    tag_186:\n      0x00\n        /* \"--CODEGEN--\":1752:1756   */\n      0x60\n        /* \"--CODEGEN--\":1740:1749   */\n      dup3\n        /* \"--CODEGEN--\":1735:1738   */\n      dup5\n        /* \"--CODEGEN--\":1731:1750   */\n      sub\n        /* \"--CODEGEN--\":1727:1757   */\n      slt\n        /* \"--CODEGEN--\":1724:1726   */\n      iszero\n      tag_188\n      jumpi\n        /* \"--CODEGEN--\":1770:1771   */\n      0x00\n        /* \"--CODEGEN--\":1767:1768   */\n      dup1\n        /* \"--CODEGEN--\":1760:1772   */\n      revert\n        /* \"--CODEGEN--\":1724:1726   */\n    tag_188:\n        /* \"--CODEGEN--\":1788:1808   */\n      tag_189\n        /* \"--CODEGEN--\":1803:1807   */\n      0x60\n        /* \"--CODEGEN--\":1788:1808   */\n      jump(tag_182)\n    tag_189:\n        /* \"--CODEGEN--\":1779:1808   */\n      swap1\n      pop\n        /* \"--CODEGEN--\":1856:1857   */\n      0x00\n        /* \"--CODEGEN--\":1888:1945   */\n      tag_190\n        /* \"--CODEGEN--\":1941:1944   */\n      dup5\n        /* \"--CODEGEN--\":1932:1938   */\n      dup3\n        /* \"--CODEGEN--\":1921:1930   */\n      dup6\n        /* \"--CODEGEN--\":1917:1939   */\n      add\n        /* \"--CODEGEN--\":1888:1945   */\n      jump(tag_172)\n    tag_190:\n        /* \"--CODEGEN--\":1881:1885   */\n      0x00\n        /* \"--CODEGEN--\":1874:1879   */\n      dup4\n        /* \"--CODEGEN--\":1870:1886   */\n      add\n        /* \"--CODEGEN--\":1863:1946   */\n      mstore\n        /* \"--CODEGEN--\":1818:1957   */\n      pop\n        /* \"--CODEGEN--\":2007:2009   */\n      0x20\n        /* \"--CODEGEN--\":2040:2088   */\n      tag_191\n        /* \"--CODEGEN--\":2084:2087   */\n      dup5\n        /* \"--CODEGEN--\":2075:2081   */\n      dup3\n        /* \"--CODEGEN--\":2064:2073   */\n      dup6\n        /* \"--CODEGEN--\":2060:2082   */\n      add\n        /* \"--CODEGEN--\":2040:2088   */\n      jump(tag_164)\n    tag_191:\n        /* \"--CODEGEN--\":2033:2037   */\n      0x20\n        /* \"--CODEGEN--\":2026:2031   */\n      dup4\n        /* \"--CODEGEN--\":2022:2038   */\n      add\n        /* \"--CODEGEN--\":2015:2089   */\n      mstore\n        /* \"--CODEGEN--\":1967:2100   */\n      pop\n        /* \"--CODEGEN--\":2149:2151   */\n      0x40\n        /* \"--CODEGEN--\":2182:2231   */\n      tag_192\n        /* \"--CODEGEN--\":2227:2230   */\n      dup5\n        /* \"--CODEGEN--\":2218:2224   */\n      dup3\n        /* \"--CODEGEN--\":2207:2216   */\n      dup6\n        /* \"--CODEGEN--\":2203:2225   */\n      add\n        /* \"--CODEGEN--\":2182:2231   */\n      jump(tag_151)\n    tag_192:\n        /* \"--CODEGEN--\":2175:2179   */\n      0x40\n        /* \"--CODEGEN--\":2168:2173   */\n      dup4\n        /* \"--CODEGEN--\":2164:2180   */\n      add\n        /* \"--CODEGEN--\":2157:2232   */\n      mstore\n        /* \"--CODEGEN--\":2110:2243   */\n      pop\n        /* \"--CODEGEN--\":1718:2253   */\n      swap3\n      swap2\n      pop\n      pop\n      jump\n        /* \"--CODEGEN--\":2260:2709   */\n    tag_15:\n      0x00\n      dup1\n        /* \"--CODEGEN--\":2425:2427   */\n      0x20\n        /* \"--CODEGEN--\":2413:2422   */\n      dup4\n        /* \"--CODEGEN--\":2404:2411   */\n      dup6\n        /* \"--CODEGEN--\":2400:2423   */\n      sub\n        /* \"--CODEGEN--\":2396:2428   */\n      slt\n        /* \"--CODEGEN--\":2393:2395   */\n      iszero\n      tag_194\n      jumpi\n        /* \"--CODEGEN--\":2441:2442   */\n      0x00\n        /* \"--CODEGEN--\":2438:2439   */\n      dup1\n        /* \"--CODEGEN--\":2431:2443   */\n      revert\n        /* \"--CODEGEN--\":2393:2395   */\n    tag_194:\n        /* \"--CODEGEN--\":2504:2505   */\n      0x00\n        /* \"--CODEGEN--\":2493:2502   */\n      dup4\n        /* \"--CODEGEN--\":2489:2506   */\n      add\n        /* \"--CODEGEN--\":2476:2507   */\n      calldataload\n        /* \"--CODEGEN--\":2527:2545   */\n      0xffffffffffffffff\n        /* \"--CODEGEN--\":2519:2525   */\n      dup2\n        /* \"--CODEGEN--\":2516:2546   */\n      gt\n        /* \"--CODEGEN--\":2513:2515   */\n      iszero\n      tag_195\n      jumpi\n        /* \"--CODEGEN--\":2559:2560   */\n      0x00\n        /* \"--CODEGEN--\":2556:2557   */\n      dup1\n        /* \"--CODEGEN--\":2549:2561   */\n      revert\n        /* \"--CODEGEN--\":2513:2515   */\n    tag_195:\n        /* \"--CODEGEN--\":2587:2693   */\n      tag_196\n        /* \"--CODEGEN--\":2685:2692   */\n      dup6\n        /* \"--CODEGEN--\":2676:2682   */\n      dup3\n        /* \"--CODEGEN--\":2665:2674   */\n      dup7\n        /* \"--CODEGEN--\":2661:2683   */\n      add\n        /* \"--CODEGEN--\":2587:2693   */\n      jump(tag_155)\n    tag_196:\n        /* \"--CODEGEN--\":2577:2693   */\n      swap3\n      pop\n      swap3\n      pop\n        /* \"--CODEGEN--\":2455:2699   */\n      pop\n        /* \"--CODEGEN--\":2387:2709   */\n      swap3\n      pop\n      swap3\n      swap1\n      pop\n      jump\n        /* \"--CODEGEN--\":2716:2973   */\n    tag_143:\n      0x00\n        /* \"--CODEGEN--\":2828:2830   */\n      0x20\n        /* \"--CODEGEN--\":2816:2825   */\n      dup3\n        /* \"--CODEGEN--\":2807:2814   */\n      dup5\n        /* \"--CODEGEN--\":2803:2826   */\n      sub\n        /* \"--CODEGEN--\":2799:2831   */\n      slt\n        /* \"--CODEGEN--\":2796:2798   */\n      iszero\n      tag_198\n      jumpi\n        /* \"--CODEGEN--\":2844:2845   */\n      0x00\n        /* \"--CODEGEN--\":2841:2842   */\n      dup1\n        /* \"--CODEGEN--\":2834:2846   */\n      revert\n        /* \"--CODEGEN--\":2796:2798   */\n    tag_198:\n        /* \"--CODEGEN--\":2879:2880   */\n      0x00\n        /* \"--CODEGEN--\":2896:2957   */\n      tag_199\n        /* \"--CODEGEN--\":2949:2956   */\n      dup5\n        /* \"--CODEGEN--\":2940:2946   */\n      dup3\n        /* \"--CODEGEN--\":2929:2938   */\n      dup6\n        /* \"--CODEGEN--\":2925:2947   */\n      add\n        /* \"--CODEGEN--\":2896:2957   */\n      jump(tag_160)\n    tag_199:\n        /* \"--CODEGEN--\":2886:2957   */\n      swap2\n      pop\n        /* \"--CODEGEN--\":2858:2963   */\n      pop\n        /* \"--CODEGEN--\":2790:2973   */\n      swap3\n      swap2\n      pop\n      pop\n      jump\n        /* \"--CODEGEN--\":2980:3219   */\n    tag_19:\n      0x00\n        /* \"--CODEGEN--\":3083:3085   */\n      0x20\n        /* \"--CODEGEN--\":3071:3080   */\n      dup3\n        /* \"--CODEGEN--\":3062:3069   */\n      dup5\n        /* \"--CODEGEN--\":3058:3081   */\n      sub\n        /* \"--CODEGEN--\":3054:3086   */\n      slt\n        /* \"--CODEGEN--\":3051:3053   */\n      iszero\n      tag_201\n      jumpi\n        /* \"--CODEGEN--\":3099:3100   */\n      0x00\n        /* \"--CODEGEN--\":3096:3097   */\n      dup1\n        /* \"--CODEGEN--\":3089:3101   */\n      revert\n        /* \"--CODEGEN--\":3051:3053   */\n    tag_201:\n        /* \"--CODEGEN--\":3134:3135   */\n      0x00\n        /* \"--CODEGEN--\":3151:3203   */\n      tag_202\n        /* \"--CODEGEN--\":3195:3202   */\n      dup5\n        /* \"--CODEGEN--\":3186:3192   */\n      dup3\n        /* \"--CODEGEN--\":3175:3184   */\n      dup6\n        /* \"--CODEGEN--\":3171:3193   */\n      add\n        /* \"--CODEGEN--\":3151:3203   */\n      jump(tag_164)\n    tag_202:\n        /* \"--CODEGEN--\":3141:3203   */\n      swap2\n      pop\n        /* \"--CODEGEN--\":3113:3209   */\n      pop\n        /* \"--CODEGEN--\":3045:3219   */\n      swap3\n      swap2\n      pop\n      pop\n      jump\n        /* \"--CODEGEN--\":3226:3590   */\n    tag_25:\n      0x00\n      dup1\n        /* \"--CODEGEN--\":3346:3348   */\n      0x40\n        /* \"--CODEGEN--\":3334:3343   */\n      dup4\n        /* \"--CODEGEN--\":3325:3332   */\n      dup6\n        /* \"--CODEGEN--\":3321:3344   */\n      sub\n        /* \"--CODEGEN--\":3317:3349   */\n      slt\n        /* \"--CODEGEN--\":3314:3316   */\n      iszero\n      tag_204\n      jumpi\n        /* \"--CODEGEN--\":3362:3363   */\n      0x00\n        /* \"--CODEGEN--\":3359:3360   */\n      dup1\n        /* \"--CODEGEN--\":3352:3364   */\n      revert\n        /* \"--CODEGEN--\":3314:3316   */\n    tag_204:\n        /* \"--CODEGEN--\":3397:3398   */\n      0x00\n        /* \"--CODEGEN--\":3414:3466   */\n      tag_205\n        /* \"--CODEGEN--\":3458:3465   */\n      dup6\n        /* \"--CODEGEN--\":3449:3455   */\n      dup3\n        /* \"--CODEGEN--\":3438:3447   */\n      dup7\n        /* \"--CODEGEN--\":3434:3456   */\n      add\n        /* \"--CODEGEN--\":3414:3466   */\n      jump(tag_164)\n    tag_205:\n        /* \"--CODEGEN--\":3404:3466   */\n      swap3\n      pop\n        /* \"--CODEGEN--\":3376:3472   */\n      pop\n        /* \"--CODEGEN--\":3503:3505   */\n      0x20\n        /* \"--CODEGEN--\":3521:3574   */\n      tag_206\n        /* \"--CODEGEN--\":3566:3573   */\n      dup6\n        /* \"--CODEGEN--\":3557:3563   */\n      dup3\n        /* \"--CODEGEN--\":3546:3555   */\n      dup7\n        /* \"--CODEGEN--\":3542:3564   */\n      add\n        /* \"--CODEGEN--\":3521:3574   */\n      jump(tag_151)\n    tag_206:\n        /* \"--CODEGEN--\":3511:3574   */\n      swap2\n      pop\n        /* \"--CODEGEN--\":3482:3580   */\n      pop\n        /* \"--CODEGEN--\":3308:3590   */\n      swap3\n      pop\n      swap3\n      swap1\n      pop\n      jump\n        /* \"--CODEGEN--\":3597:4122   */\n    tag_41:\n      0x00\n      dup1\n      0x00\n        /* \"--CODEGEN--\":3752:3754   */\n      0x60\n        /* \"--CODEGEN--\":3740:3749   */\n      dup5\n        /* \"--CODEGEN--\":3731:3738   */\n      dup7\n        /* \"--CODEGEN--\":3727:3750   */\n      sub\n        /* \"--CODEGEN--\":3723:3755   */\n      slt\n        /* \"--CODEGEN--\":3720:3722   */\n      iszero\n      tag_208\n      jumpi\n        /* \"--CODEGEN--\":3768:3769   */\n      0x00\n        /* \"--CODEGEN--\":3765:3766   */\n      dup1\n        /* \"--CODEGEN--\":3758:3770   */\n      revert\n        /* \"--CODEGEN--\":3720:3722   */\n    tag_208:\n        /* \"--CODEGEN--\":3803:3804   */\n      0x00\n        /* \"--CODEGEN--\":3820:3872   */\n      tag_209\n        /* \"--CODEGEN--\":3864:3871   */\n      dup7\n        /* \"--CODEGEN--\":3855:3861   */\n      dup3\n        /* \"--CODEGEN--\":3844:3853   */\n      dup8\n        /* \"--CODEGEN--\":3840:3862   */\n      add\n        /* \"--CODEGEN--\":3820:3872   */\n      jump(tag_164)\n    tag_209:\n        /* \"--CODEGEN--\":3810:3872   */\n      swap4\n      pop\n        /* \"--CODEGEN--\":3782:3878   */\n      pop\n        /* \"--CODEGEN--\":3909:3911   */\n      0x20\n        /* \"--CODEGEN--\":3927:3980   */\n      tag_210\n        /* \"--CODEGEN--\":3972:3979   */\n      dup7\n        /* \"--CODEGEN--\":3963:3969   */\n      dup3\n        /* \"--CODEGEN--\":3952:3961   */\n      dup8\n        /* \"--CODEGEN--\":3948:3970   */\n      add\n        /* \"--CODEGEN--\":3927:3980   */\n      jump(tag_151)\n    tag_210:\n        /* \"--CODEGEN--\":3917:3980   */\n      swap3\n      pop\n        /* \"--CODEGEN--\":3888:3986   */\n      pop\n        /* \"--CODEGEN--\":4017:4019   */\n      0x40\n        /* \"--CODEGEN--\":4035:4106   */\n      tag_211\n        /* \"--CODEGEN--\":4098:4105   */\n      dup7\n        /* \"--CODEGEN--\":4089:4095   */\n      dup3\n        /* \"--CODEGEN--\":4078:4087   */\n      dup8\n        /* \"--CODEGEN--\":4074:4096   */\n      add\n        /* \"--CODEGEN--\":4035:4106   */\n      jump(tag_168)\n    tag_211:\n        /* \"--CODEGEN--\":4025:4106   */\n      swap2\n      pop\n        /* \"--CODEGEN--\":3996:4112   */\n      pop\n        /* \"--CODEGEN--\":3714:4122   */\n      swap3\n      pop\n      swap3\n      pop\n      swap3\n      jump\n        /* \"--CODEGEN--\":4129:4476   */\n    tag_48:\n      0x00\n        /* \"--CODEGEN--\":4243:4245   */\n      0x20\n        /* \"--CODEGEN--\":4231:4240   */\n      dup3\n        /* \"--CODEGEN--\":4222:4229   */\n      dup5\n        /* \"--CODEGEN--\":4218:4241   */\n      sub\n        /* \"--CODEGEN--\":4214:4246   */\n      slt\n        /* \"--CODEGEN--\":4211:4213   */\n      iszero\n      tag_213\n      jumpi\n        /* \"--CODEGEN--\":4259:4260   */\n      0x00\n        /* \"--CODEGEN--\":4256:4257   */\n      dup1\n        /* \"--CODEGEN--\":4249:4261   */\n      revert\n        /* \"--CODEGEN--\":4211:4213   */\n    tag_213:\n        /* \"--CODEGEN--\":4322:4323   */\n      0x00\n        /* \"--CODEGEN--\":4311:4320   */\n      dup3\n        /* \"--CODEGEN--\":4307:4324   */\n      add\n        /* \"--CODEGEN--\":4294:4325   */\n      calldataload\n        /* \"--CODEGEN--\":4345:4363   */\n      0xffffffffffffffff\n        /* \"--CODEGEN--\":4337:4343   */\n      dup2\n        /* \"--CODEGEN--\":4334:4364   */\n      gt\n        /* \"--CODEGEN--\":4331:4333   */\n      iszero\n      tag_214\n      jumpi\n        /* \"--CODEGEN--\":4377:4378   */\n      0x00\n        /* \"--CODEGEN--\":4374:4375   */\n      dup1\n        /* \"--CODEGEN--\":4367:4379   */\n      revert\n        /* \"--CODEGEN--\":4331:4333   */\n    tag_214:\n        /* \"--CODEGEN--\":4397:4460   */\n      tag_215\n        /* \"--CODEGEN--\":4452:4459   */\n      dup5\n        /* \"--CODEGEN--\":4443:4449   */\n      dup3\n        /* \"--CODEGEN--\":4432:4441   */\n      dup6\n        /* \"--CODEGEN--\":4428:4450   */\n      add\n        /* \"--CODEGEN--\":4397:4460   */\n      jump(tag_176)\n    tag_215:\n        /* \"--CODEGEN--\":4387:4460   */\n      swap2\n      pop\n        /* \"--CODEGEN--\":4273:4466   */\n      pop\n        /* \"--CODEGEN--\":4205:4476   */\n      swap3\n      swap2\n      pop\n      pop\n      jump\n        /* \"--CODEGEN--\":4483:4772   */\n    tag_66:\n      0x00\n        /* \"--CODEGEN--\":4611:4613   */\n      0x60\n        /* \"--CODEGEN--\":4599:4608   */\n      dup3\n        /* \"--CODEGEN--\":4590:4597   */\n      dup5\n        /* \"--CODEGEN--\":4586:4609   */\n      sub\n        /* \"--CODEGEN--\":4582:4614   */\n      slt\n        /* \"--CODEGEN--\":4579:4581   */\n      iszero\n      tag_217\n      jumpi\n        /* \"--CODEGEN--\":4627:4628   */\n      0x00\n        /* \"--CODEGEN--\":4624:4625   */\n      dup1\n        /* \"--CODEGEN--\":4617:4629   */\n      revert\n        /* \"--CODEGEN--\":4579:4581   */\n    tag_217:\n        /* \"--CODEGEN--\":4662:4663   */\n      0x00\n        /* \"--CODEGEN--\":4679:4756   */\n      tag_218\n        /* \"--CODEGEN--\":4748:4755   */\n      dup5\n        /* \"--CODEGEN--\":4739:4745   */\n      dup3\n        /* \"--CODEGEN--\":4728:4737   */\n      dup6\n        /* \"--CODEGEN--\":4724:4746   */\n      add\n        /* \"--CODEGEN--\":4679:4756   */\n      jump(tag_186)\n    tag_218:\n        /* \"--CODEGEN--\":4669:4756   */\n      swap2\n      pop\n        /* \"--CODEGEN--\":4641:4762   */\n      pop\n        /* \"--CODEGEN--\":4573:4772   */\n      swap3\n      swap2\n      pop\n      pop\n      jump\n        /* \"--CODEGEN--\":4779:4892   */\n    tag_219:\n        /* \"--CODEGEN--\":4862:4886   */\n      tag_221\n        /* \"--CODEGEN--\":4880:4885   */\n      dup2\n        /* \"--CODEGEN--\":4862:4886   */\n      jump(tag_222)\n    tag_221:\n        /* \"--CODEGEN--\":4857:4860   */\n      dup3\n        /* \"--CODEGEN--\":4850:4887   */\n      mstore\n        /* \"--CODEGEN--\":4844:4892   */\n      pop\n      pop\n      jump\n        /* \"--CODEGEN--\":4899:5003   */\n    tag_223:\n        /* \"--CODEGEN--\":4976:4997   */\n      tag_225\n        /* \"--CODEGEN--\":4991:4996   */\n      dup2\n        /* \"--CODEGEN--\":4976:4997   */\n      jump(tag_226)\n    tag_225:\n        /* \"--CODEGEN--\":4971:4974   */\n      dup3\n        /* \"--CODEGEN--\":4964:4998   */\n      mstore\n        /* \"--CODEGEN--\":4958:5003   */\n      pop\n      pop\n      jump\n        /* \"--CODEGEN--\":5010:5120   */\n    tag_227:\n        /* \"--CODEGEN--\":5091:5114   */\n      tag_229\n        /* \"--CODEGEN--\":5108:5113   */\n      dup2\n        /* \"--CODEGEN--\":5091:5114   */\n      jump(tag_230)\n    tag_229:\n        /* \"--CODEGEN--\":5086:5089   */\n      dup3\n        /* \"--CODEGEN--\":5079:5115   */\n      mstore\n        /* \"--CODEGEN--\":5073:5120   */\n      pop\n      pop\n      jump\n        /* \"--CODEGEN--\":5127:5470   */\n    tag_231:\n      0x00\n        /* \"--CODEGEN--\":5237:5275   */\n      tag_233\n        /* \"--CODEGEN--\":5269:5274   */\n      dup3\n        /* \"--CODEGEN--\":5237:5275   */\n      jump(tag_234)\n    tag_233:\n        /* \"--CODEGEN--\":5287:5357   */\n      tag_235\n        /* \"--CODEGEN--\":5350:5356   */\n      dup2\n        /* \"--CODEGEN--\":5345:5348   */\n      dup6\n        /* \"--CODEGEN--\":5287:5357   */\n      jump(tag_236)\n    tag_235:\n        /* \"--CODEGEN--\":5280:5357   */\n      swap4\n      pop\n        /* \"--CODEGEN--\":5362:5414   */\n      tag_237\n        /* \"--CODEGEN--\":5407:5413   */\n      dup2\n        /* \"--CODEGEN--\":5402:5405   */\n      dup6\n        /* \"--CODEGEN--\":5395:5399   */\n      0x20\n        /* \"--CODEGEN--\":5388:5393   */\n      dup7\n        /* \"--CODEGEN--\":5384:5400   */\n      add\n        /* \"--CODEGEN--\":5362:5414   */\n      jump(tag_238)\n    tag_237:\n        /* \"--CODEGEN--\":5435:5464   */\n      tag_239\n        /* \"--CODEGEN--\":5457:5463   */\n      dup2\n        /* \"--CODEGEN--\":5435:5464   */\n      jump(tag_240)\n    tag_239:\n        /* \"--CODEGEN--\":5430:5433   */\n      dup5\n        /* \"--CODEGEN--\":5426:5465   */\n      add\n        /* \"--CODEGEN--\":5419:5465   */\n      swap2\n      pop\n        /* \"--CODEGEN--\":5217:5470   */\n      pop\n      swap3\n      swap2\n      pop\n      pop\n      jump\n        /* \"--CODEGEN--\":5477:5639   */\n    tag_241:\n        /* \"--CODEGEN--\":5578:5633   */\n      tag_243\n        /* \"--CODEGEN--\":5627:5632   */\n      dup2\n        /* \"--CODEGEN--\":5578:5633   */\n      jump(tag_244)\n    tag_243:\n        /* \"--CODEGEN--\":5573:5576   */\n      dup3\n        /* \"--CODEGEN--\":5566:5634   */\n      mstore\n        /* \"--CODEGEN--\":5560:5639   */\n      pop\n      pop\n      jump\n        /* \"--CODEGEN--\":5647:5955   */\n    tag_245:\n      0x00\n        /* \"--CODEGEN--\":5807:5873   */\n      tag_247\n        /* \"--CODEGEN--\":5871:5872   */\n      0x09\n        /* \"--CODEGEN--\":5866:5869   */\n      dup4\n        /* \"--CODEGEN--\":5807:5873   */\n      jump(tag_248)\n    tag_247:\n        /* \"--CODEGEN--\":5800:5873   */\n      swap2\n      pop\n        /* \"--CODEGEN--\":5906:5917   */\n      0x61636c3a20617574680000000000000000000000000000000000000000000000\n        /* \"--CODEGEN--\":5902:5903   */\n      0x00\n        /* \"--CODEGEN--\":5897:5900   */\n      dup4\n        /* \"--CODEGEN--\":5893:5904   */\n      add\n        /* \"--CODEGEN--\":5886:5918   */\n      mstore\n        /* \"--CODEGEN--\":5946:5948   */\n      0x20\n        /* \"--CODEGEN--\":5941:5944   */\n      dup3\n        /* \"--CODEGEN--\":5937:5949   */\n      add\n        /* \"--CODEGEN--\":5930:5949   */\n      swap1\n      pop\n        /* \"--CODEGEN--\":5793:5955   */\n      swap2\n      swap1\n      pop\n      jump\n        /* \"--CODEGEN--\":5964:6275   */\n    tag_249:\n      0x00\n        /* \"--CODEGEN--\":6124:6191   */\n      tag_251\n        /* \"--CODEGEN--\":6188:6190   */\n      0x0b\n        /* \"--CODEGEN--\":6183:6186   */\n      dup4\n        /* \"--CODEGEN--\":6124:6191   */\n      jump(tag_248)\n    tag_251:\n        /* \"--CODEGEN--\":6117:6191   */\n      swap2\n      pop\n        /* \"--CODEGEN--\":6224:6237   */\n      0x61636c3a2066726f7a656e000000000000000000000000000000000000000000\n        /* \"--CODEGEN--\":6220:6221   */\n      0x00\n        /* \"--CODEGEN--\":6215:6218   */\n      dup4\n        /* \"--CODEGEN--\":6211:6222   */\n      add\n        /* \"--CODEGEN--\":6204:6238   */\n      mstore\n        /* \"--CODEGEN--\":6266:6268   */\n      0x20\n        /* \"--CODEGEN--\":6261:6264   */\n      dup3\n        /* \"--CODEGEN--\":6257:6269   */\n      add\n        /* \"--CODEGEN--\":6250:6269   */\n      swap1\n      pop\n        /* \"--CODEGEN--\":6110:6275   */\n      swap2\n      swap1\n      pop\n      jump\n        /* \"--CODEGEN--\":6284:6599   */\n    tag_252:\n      0x00\n        /* \"--CODEGEN--\":6444:6511   */\n      tag_254\n        /* \"--CODEGEN--\":6508:6510   */\n      0x0f\n        /* \"--CODEGEN--\":6503:6506   */\n      dup4\n        /* \"--CODEGEN--\":6444:6511   */\n      jump(tag_248)\n    tag_254:\n        /* \"--CODEGEN--\":6437:6511   */\n      swap2\n      pop\n        /* \"--CODEGEN--\":6544:6561   */\n      0x61636c3a2062616420667265657a650000000000000000000000000000000000\n        /* \"--CODEGEN--\":6540:6541   */\n      0x00\n        /* \"--CODEGEN--\":6535:6538   */\n      dup4\n        /* \"--CODEGEN--\":6531:6542   */\n      add\n        /* \"--CODEGEN--\":6524:6562   */\n      mstore\n        /* \"--CODEGEN--\":6590:6592   */\n      0x20\n        /* \"--CODEGEN--\":6585:6588   */\n      dup3\n        /* \"--CODEGEN--\":6581:6593   */\n      add\n        /* \"--CODEGEN--\":6574:6593   */\n      swap1\n      pop\n        /* \"--CODEGEN--\":6430:6599   */\n      swap2\n      swap1\n      pop\n      jump\n        /* \"--CODEGEN--\":6607:6720   */\n    tag_255:\n        /* \"--CODEGEN--\":6690:6714   */\n      tag_257\n        /* \"--CODEGEN--\":6708:6713   */\n      dup2\n        /* \"--CODEGEN--\":6690:6714   */\n      jump(tag_258)\n    tag_257:\n        /* \"--CODEGEN--\":6685:6688   */\n      dup3\n        /* \"--CODEGEN--\":6678:6715   */\n      mstore\n        /* \"--CODEGEN--\":6672:6720   */\n      pop\n      pop\n      jump\n        /* \"--CODEGEN--\":6727:6949   */\n    tag_35:\n      0x00\n        /* \"--CODEGEN--\":6854:6856   */\n      0x20\n        /* \"--CODEGEN--\":6843:6852   */\n      dup3\n        /* \"--CODEGEN--\":6839:6857   */\n      add\n        /* \"--CODEGEN--\":6831:6857   */\n      swap1\n      pop\n        /* \"--CODEGEN--\":6868:6939   */\n      tag_260\n        /* \"--CODEGEN--\":6936:6937   */\n      0x00\n        /* \"--CODEGEN--\":6925:6934   */\n      dup4\n        /* \"--CODEGEN--\":6921:6938   */\n      add\n        /* \"--CODEGEN--\":6912:6918   */\n      dup5\n        /* \"--CODEGEN--\":6868:6939   */\n      jump(tag_219)\n    tag_260:\n        /* \"--CODEGEN--\":6825:6949   */\n      swap3\n      swap2\n      pop\n      pop\n      jump\n        /* \"--CODEGEN--\":6956:7166   */\n    tag_22:\n      0x00\n        /* \"--CODEGEN--\":7077:7079   */\n      0x20\n        /* \"--CODEGEN--\":7066:7075   */\n      dup3\n        /* \"--CODEGEN--\":7062:7080   */\n      add\n        /* \"--CODEGEN--\":7054:7080   */\n      swap1\n      pop\n        /* \"--CODEGEN--\":7091:7156   */\n      tag_262\n        /* \"--CODEGEN--\":7153:7154   */\n      0x00\n        /* \"--CODEGEN--\":7142:7151   */\n      dup4\n        /* \"--CODEGEN--\":7138:7155   */\n      add\n        /* \"--CODEGEN--\":7129:7135   */\n      dup5\n        /* \"--CODEGEN--\":7091:7156   */\n      jump(tag_223)\n    tag_262:\n        /* \"--CODEGEN--\":7048:7166   */\n      swap3\n      swap2\n      pop\n      pop\n      jump\n        /* \"--CODEGEN--\":7173:7391   */\n    tag_30:\n      0x00\n        /* \"--CODEGEN--\":7298:7300   */\n      0x20\n        /* \"--CODEGEN--\":7287:7296   */\n      dup3\n        /* \"--CODEGEN--\":7283:7301   */\n      add\n        /* \"--CODEGEN--\":7275:7301   */\n      swap1\n      pop\n        /* \"--CODEGEN--\":7312:7381   */\n      tag_264\n        /* \"--CODEGEN--\":7378:7379   */\n      0x00\n        /* \"--CODEGEN--\":7367:7376   */\n      dup4\n        /* \"--CODEGEN--\":7363:7380   */\n      add\n        /* \"--CODEGEN--\":7354:7360   */\n      dup5\n        /* \"--CODEGEN--\":7312:7381   */\n      jump(tag_227)\n    tag_264:\n        /* \"--CODEGEN--\":7269:7391   */\n      swap3\n      swap2\n      pop\n      pop\n      jump\n        /* \"--CODEGEN--\":7398:7922   */\n    tag_139:\n      0x00\n        /* \"--CODEGEN--\":7597:7599   */\n      0x60\n        /* \"--CODEGEN--\":7586:7595   */\n      dup3\n        /* \"--CODEGEN--\":7582:7600   */\n      add\n        /* \"--CODEGEN--\":7574:7600   */\n      swap1\n      pop\n        /* \"--CODEGEN--\":7611:7680   */\n      tag_266\n        /* \"--CODEGEN--\":7677:7678   */\n      0x00\n        /* \"--CODEGEN--\":7666:7675   */\n      dup4\n        /* \"--CODEGEN--\":7662:7679   */\n      add\n        /* \"--CODEGEN--\":7653:7659   */\n      dup7\n        /* \"--CODEGEN--\":7611:7680   */\n      jump(tag_227)\n    tag_266:\n        /* \"--CODEGEN--\":7691:7763   */\n      tag_267\n        /* \"--CODEGEN--\":7759:7761   */\n      0x20\n        /* \"--CODEGEN--\":7748:7757   */\n      dup4\n        /* \"--CODEGEN--\":7744:7762   */\n      add\n        /* \"--CODEGEN--\":7735:7741   */\n      dup6\n        /* \"--CODEGEN--\":7691:7763   */\n      jump(tag_219)\n    tag_267:\n        /* \"--CODEGEN--\":7811:7820   */\n      dup2\n        /* \"--CODEGEN--\":7805:7809   */\n      dup2\n        /* \"--CODEGEN--\":7801:7821   */\n      sub\n        /* \"--CODEGEN--\":7796:7798   */\n      0x40\n        /* \"--CODEGEN--\":7785:7794   */\n      dup4\n        /* \"--CODEGEN--\":7781:7799   */\n      add\n        /* \"--CODEGEN--\":7774:7822   */\n      mstore\n        /* \"--CODEGEN--\":7836:7912   */\n      tag_268\n        /* \"--CODEGEN--\":7907:7911   */\n      dup2\n        /* \"--CODEGEN--\":7898:7904   */\n      dup5\n        /* \"--CODEGEN--\":7836:7912   */\n      jump(tag_231)\n    tag_268:\n        /* \"--CODEGEN--\":7828:7912   */\n      swap1\n      pop\n        /* \"--CODEGEN--\":7568:7922   */\n      swap5\n      swap4\n      pop\n      pop\n      pop\n      pop\n      jump\n        /* \"--CODEGEN--\":7929:8187   */\n    tag_134:\n      0x00\n        /* \"--CODEGEN--\":8074:8076   */\n      0x20\n        /* \"--CODEGEN--\":8063:8072   */\n      dup3\n        /* \"--CODEGEN--\":8059:8077   */\n      add\n        /* \"--CODEGEN--\":8051:8077   */\n      swap1\n      pop\n        /* \"--CODEGEN--\":8088:8177   */\n      tag_270\n        /* \"--CODEGEN--\":8174:8175   */\n      0x00\n        /* \"--CODEGEN--\":8163:8172   */\n      dup4\n        /* \"--CODEGEN--\":8159:8176   */\n      add\n        /* \"--CODEGEN--\":8150:8156   */\n      dup5\n        /* \"--CODEGEN--\":8088:8177   */\n      jump(tag_241)\n    tag_270:\n        /* \"--CODEGEN--\":8045:8187   */\n      swap3\n      swap2\n      pop\n      pop\n      jump\n        /* \"--CODEGEN--\":8194:8610   */\n    tag_57:\n      0x00\n        /* \"--CODEGEN--\":8394:8396   */\n      0x20\n        /* \"--CODEGEN--\":8383:8392   */\n      dup3\n        /* \"--CODEGEN--\":8379:8397   */\n      add\n        /* \"--CODEGEN--\":8371:8397   */\n      swap1\n      pop\n        /* \"--CODEGEN--\":8444:8453   */\n      dup2\n        /* \"--CODEGEN--\":8438:8442   */\n      dup2\n        /* \"--CODEGEN--\":8434:8454   */\n      sub\n        /* \"--CODEGEN--\":8430:8431   */\n      0x00\n        /* \"--CODEGEN--\":8419:8428   */\n      dup4\n        /* \"--CODEGEN--\":8415:8432   */\n      add\n        /* \"--CODEGEN--\":8408:8455   */\n      mstore\n        /* \"--CODEGEN--\":8469:8600   */\n      tag_272\n        /* \"--CODEGEN--\":8595:8599   */\n      dup2\n        /* \"--CODEGEN--\":8469:8600   */\n      jump(tag_245)\n    tag_272:\n        /* \"--CODEGEN--\":8461:8600   */\n      swap1\n      pop\n        /* \"--CODEGEN--\":8365:8610   */\n      swap2\n      swap1\n      pop\n      jump\n        /* \"--CODEGEN--\":8617:9033   */\n    tag_121:\n      0x00\n        /* \"--CODEGEN--\":8817:8819   */\n      0x20\n        /* \"--CODEGEN--\":8806:8815   */\n      dup3\n        /* \"--CODEGEN--\":8802:8820   */\n      add\n        /* \"--CODEGEN--\":8794:8820   */\n      swap1\n      pop\n        /* \"--CODEGEN--\":8867:8876   */\n      dup2\n        /* \"--CODEGEN--\":8861:8865   */\n      dup2\n        /* \"--CODEGEN--\":8857:8877   */\n      sub\n        /* \"--CODEGEN--\":8853:8854   */\n      0x00\n        /* \"--CODEGEN--\":8842:8851   */\n      dup4\n        /* \"--CODEGEN--\":8838:8855   */\n      add\n        /* \"--CODEGEN--\":8831:8878   */\n      mstore\n        /* \"--CODEGEN--\":8892:9023   */\n      tag_274\n        /* \"--CODEGEN--\":9018:9022   */\n      dup2\n        /* \"--CODEGEN--\":8892:9023   */\n      jump(tag_249)\n    tag_274:\n        /* \"--CODEGEN--\":8884:9023   */\n      swap1\n      pop\n        /* \"--CODEGEN--\":8788:9033   */\n      swap2\n      swap1\n      pop\n      jump\n        /* \"--CODEGEN--\":9040:9456   */\n    tag_132:\n      0x00\n        /* \"--CODEGEN--\":9240:9242   */\n      0x20\n        /* \"--CODEGEN--\":9229:9238   */\n      dup3\n        /* \"--CODEGEN--\":9225:9243   */\n      add\n        /* \"--CODEGEN--\":9217:9243   */\n      swap1\n      pop\n        /* \"--CODEGEN--\":9290:9299   */\n      dup2\n        /* \"--CODEGEN--\":9284:9288   */\n      dup2\n        /* \"--CODEGEN--\":9280:9300   */\n      sub\n        /* \"--CODEGEN--\":9276:9277   */\n      0x00\n        /* \"--CODEGEN--\":9265:9274   */\n      dup4\n        /* \"--CODEGEN--\":9261:9278   */\n      add\n        /* \"--CODEGEN--\":9254:9301   */\n      mstore\n        /* \"--CODEGEN--\":9315:9446   */\n      tag_276\n        /* \"--CODEGEN--\":9441:9445   */\n      dup2\n        /* \"--CODEGEN--\":9315:9446   */\n      jump(tag_252)\n    tag_276:\n        /* \"--CODEGEN--\":9307:9446   */\n      swap1\n      pop\n        /* \"--CODEGEN--\":9211:9456   */\n      swap2\n      swap1\n      pop\n      jump\n        /* \"--CODEGEN--\":9463:9685   */\n    tag_51:\n      0x00\n        /* \"--CODEGEN--\":9590:9592   */\n      0x20\n        /* \"--CODEGEN--\":9579:9588   */\n      dup3\n        /* \"--CODEGEN--\":9575:9593   */\n      add\n        /* \"--CODEGEN--\":9567:9593   */\n      swap1\n      pop\n        /* \"--CODEGEN--\":9604:9675   */\n      tag_278\n        /* \"--CODEGEN--\":9672:9673   */\n      0x00\n        /* \"--CODEGEN--\":9661:9670   */\n      dup4\n        /* \"--CODEGEN--\":9657:9674   */\n      add\n        /* \"--CODEGEN--\":9648:9654   */\n      dup5\n        /* \"--CODEGEN--\":9604:9675   */\n      jump(tag_255)\n    tag_278:\n        /* \"--CODEGEN--\":9561:9685   */\n      swap3\n      swap2\n      pop\n      pop\n      jump\n        /* \"--CODEGEN--\":9692:9948   */\n    tag_182:\n      0x00\n        /* \"--CODEGEN--\":9754:9756   */\n      0x40\n        /* \"--CODEGEN--\":9748:9757   */\n      mload\n        /* \"--CODEGEN--\":9738:9757   */\n      swap1\n      pop\n        /* \"--CODEGEN--\":9792:9796   */\n      dup2\n        /* \"--CODEGEN--\":9784:9790   */\n      dup2\n        /* \"--CODEGEN--\":9780:9797   */\n      add\n        /* \"--CODEGEN--\":9891:9897   */\n      dup2\n        /* \"--CODEGEN--\":9879:9889   */\n      dup2\n        /* \"--CODEGEN--\":9876:9898   */\n      lt\n        /* \"--CODEGEN--\":9855:9873   */\n      0xffffffffffffffff\n        /* \"--CODEGEN--\":9843:9853   */\n      dup3\n        /* \"--CODEGEN--\":9840:9874   */\n      gt\n        /* \"--CODEGEN--\":9837:9899   */\n      or\n        /* \"--CODEGEN--\":9834:9836   */\n      iszero\n      tag_280\n      jumpi\n        /* \"--CODEGEN--\":9912:9913   */\n      0x00\n        /* \"--CODEGEN--\":9909:9910   */\n      dup1\n        /* \"--CODEGEN--\":9902:9914   */\n      revert\n        /* \"--CODEGEN--\":9834:9836   */\n    tag_280:\n        /* \"--CODEGEN--\":9932:9942   */\n      dup1\n        /* \"--CODEGEN--\":9928:9930   */\n      0x40\n        /* \"--CODEGEN--\":9921:9943   */\n      mstore\n        /* \"--CODEGEN--\":9732:9948   */\n      pop\n      swap2\n      swap1\n      pop\n      jump\n        /* \"--CODEGEN--\":9955:10277   */\n    tag_181:\n      0x00\n        /* \"--CODEGEN--\":10099:10117   */\n      0xffffffffffffffff\n        /* \"--CODEGEN--\":10091:10097   */\n      dup3\n        /* \"--CODEGEN--\":10088:10118   */\n      gt\n        /* \"--CODEGEN--\":10085:10087   */\n      iszero\n      tag_282\n      jumpi\n        /* \"--CODEGEN--\":10131:10132   */\n      0x00\n        /* \"--CODEGEN--\":10128:10129   */\n      dup1\n        /* \"--CODEGEN--\":10121:10133   */\n      revert\n        /* \"--CODEGEN--\":10085:10087   */\n    tag_282:\n        /* \"--CODEGEN--\":10198:10202   */\n      0x1f\n        /* \"--CODEGEN--\":10194:10203   */\n      not\n        /* \"--CODEGEN--\":10187:10191   */\n      0x1f\n        /* \"--CODEGEN--\":10179:10185   */\n      dup4\n        /* \"--CODEGEN--\":10175:10192   */\n      add\n        /* \"--CODEGEN--\":10171:10204   */\n      and\n        /* \"--CODEGEN--\":10163:10204   */\n      swap1\n      pop\n        /* \"--CODEGEN--\":10262:10266   */\n      0x20\n        /* \"--CODEGEN--\":10256:10260   */\n      dup2\n        /* \"--CODEGEN--\":10252:10267   */\n      add\n        /* \"--CODEGEN--\":10244:10267   */\n      swap1\n      pop\n        /* \"--CODEGEN--\":10022:10277   */\n      swap2\n      swap1\n      pop\n      jump\n        /* \"--CODEGEN--\":10284:10405   */\n    tag_234:\n      0x00\n        /* \"--CODEGEN--\":10377:10382   */\n      dup2\n        /* \"--CODEGEN--\":10371:10383   */\n      mload\n        /* \"--CODEGEN--\":10361:10383   */\n      swap1\n      pop\n        /* \"--CODEGEN--\":10342:10405   */\n      swap2\n      swap1\n      pop\n      jump\n        /* \"--CODEGEN--\":10413:10575   */\n    tag_236:\n      0x00\n        /* \"--CODEGEN--\":10527:10533   */\n      dup3\n        /* \"--CODEGEN--\":10522:10525   */\n      dup3\n        /* \"--CODEGEN--\":10515:10534   */\n      mstore\n        /* \"--CODEGEN--\":10564:10568   */\n      0x20\n        /* \"--CODEGEN--\":10559:10562   */\n      dup3\n        /* \"--CODEGEN--\":10555:10569   */\n      add\n        /* \"--CODEGEN--\":10540:10569   */\n      swap1\n      pop\n        /* \"--CODEGEN--\":10508:10575   */\n      swap3\n      swap2\n      pop\n      pop\n      jump\n        /* \"--CODEGEN--\":10584:10747   */\n    tag_248:\n      0x00\n        /* \"--CODEGEN--\":10699:10705   */\n      dup3\n        /* \"--CODEGEN--\":10694:10697   */\n      dup3\n        /* \"--CODEGEN--\":10687:10706   */\n      mstore\n        /* \"--CODEGEN--\":10736:10740   */\n      0x20\n        /* \"--CODEGEN--\":10731:10734   */\n      dup3\n        /* \"--CODEGEN--\":10727:10741   */\n      add\n        /* \"--CODEGEN--\":10712:10741   */\n      swap1\n      pop\n        /* \"--CODEGEN--\":10680:10747   */\n      swap3\n      swap2\n      pop\n      pop\n      jump\n        /* \"--CODEGEN--\":10755:10846   */\n    tag_222:\n      0x00\n        /* \"--CODEGEN--\":10817:10841   */\n      tag_287\n        /* \"--CODEGEN--\":10835:10840   */\n      dup3\n        /* \"--CODEGEN--\":10817:10841   */\n      jump(tag_288)\n    tag_287:\n        /* \"--CODEGEN--\":10806:10841   */\n      swap1\n      pop\n        /* \"--CODEGEN--\":10800:10846   */\n      swap2\n      swap1\n      pop\n      jump\n        /* \"--CODEGEN--\":10853:10938   */\n    tag_226:\n      0x00\n        /* \"--CODEGEN--\":10926:10931   */\n      dup2\n        /* \"--CODEGEN--\":10919:10932   */\n      iszero\n        /* \"--CODEGEN--\":10912:10933   */\n      iszero\n        /* \"--CODEGEN--\":10901:10933   */\n      swap1\n      pop\n        /* \"--CODEGEN--\":10895:10938   */\n      swap2\n      swap1\n      pop\n      jump\n        /* \"--CODEGEN--\":10945:11089   */\n    tag_230:\n      0x00\n        /* \"--CODEGEN--\":11017:11083   */\n      0xffffffff00000000000000000000000000000000000000000000000000000000\n        /* \"--CODEGEN--\":11010:11015   */\n      dup3\n        /* \"--CODEGEN--\":11006:11084   */\n      and\n        /* \"--CODEGEN--\":10995:11084   */\n      swap1\n      pop\n        /* \"--CODEGEN--\":10989:11089   */\n      swap2\n      swap1\n      pop\n      jump\n        /* \"--CODEGEN--\":11096:11205   */\n    tag_291:\n      0x00\n        /* \"--CODEGEN--\":11176:11200   */\n      tag_293\n        /* \"--CODEGEN--\":11194:11199   */\n      dup3\n        /* \"--CODEGEN--\":11176:11200   */\n      jump(tag_222)\n    tag_293:\n        /* \"--CODEGEN--\":11165:11200   */\n      swap1\n      pop\n        /* \"--CODEGEN--\":11159:11205   */\n      swap2\n      swap1\n      pop\n      jump\n        /* \"--CODEGEN--\":11212:11333   */\n    tag_288:\n      0x00\n        /* \"--CODEGEN--\":11285:11327   */\n      0xffffffffffffffffffffffffffffffffffffffff\n        /* \"--CODEGEN--\":11278:11283   */\n      dup3\n        /* \"--CODEGEN--\":11274:11328   */\n      and\n        /* \"--CODEGEN--\":11263:11328   */\n      swap1\n      pop\n        /* \"--CODEGEN--\":11257:11333   */\n      swap2\n      swap1\n      pop\n      jump\n        /* \"--CODEGEN--\":11340:11412   */\n    tag_258:\n      0x00\n        /* \"--CODEGEN--\":11402:11407   */\n      dup2\n        /* \"--CODEGEN--\":11391:11407   */\n      swap1\n      pop\n        /* \"--CODEGEN--\":11385:11412   */\n      swap2\n      swap1\n      pop\n      jump\n        /* \"--CODEGEN--\":11419:11576   */\n    tag_244:\n      0x00\n        /* \"--CODEGEN--\":11516:11571   */\n      tag_297\n        /* \"--CODEGEN--\":11565:11570   */\n      dup3\n        /* \"--CODEGEN--\":11516:11571   */\n      jump(tag_298)\n    tag_297:\n        /* \"--CODEGEN--\":11503:11571   */\n      swap1\n      pop\n        /* \"--CODEGEN--\":11497:11576   */\n      swap2\n      swap1\n      pop\n      jump\n        /* \"--CODEGEN--\":11583:11709   */\n    tag_298:\n      0x00\n        /* \"--CODEGEN--\":11680:11704   */\n      tag_300\n        /* \"--CODEGEN--\":11698:11703   */\n      dup3\n        /* \"--CODEGEN--\":11680:11704   */\n      jump(tag_288)\n    tag_300:\n        /* \"--CODEGEN--\":11667:11704   */\n      swap1\n      pop\n        /* \"--CODEGEN--\":11661:11709   */\n      swap2\n      swap1\n      pop\n      jump\n        /* \"--CODEGEN--\":11717:11862   */\n    tag_185:\n        /* \"--CODEGEN--\":11798:11804   */\n      dup3\n        /* \"--CODEGEN--\":11793:11796   */\n      dup2\n        /* \"--CODEGEN--\":11788:11791   */\n      dup4\n        /* \"--CODEGEN--\":11775:11805   */\n      calldatacopy\n        /* \"--CODEGEN--\":11854:11855   */\n      0x00\n        /* \"--CODEGEN--\":11845:11851   */\n      dup4\n        /* \"--CODEGEN--\":11840:11843   */\n      dup4\n        /* \"--CODEGEN--\":11836:11852   */\n      add\n        /* \"--CODEGEN--\":11829:11856   */\n      mstore\n        /* \"--CODEGEN--\":11768:11862   */\n      pop\n      pop\n      pop\n      jump\n        /* \"--CODEGEN--\":11871:12139   */\n    tag_238:\n        /* \"--CODEGEN--\":11936:11937   */\n      0x00\n        /* \"--CODEGEN--\":11943:12044   */\n    tag_303:\n        /* \"--CODEGEN--\":11957:11963   */\n      dup4\n        /* \"--CODEGEN--\":11954:11955   */\n      dup2\n        /* \"--CODEGEN--\":11951:11964   */\n      lt\n        /* \"--CODEGEN--\":11943:12044   */\n      iszero\n      tag_305\n      jumpi\n        /* \"--CODEGEN--\":12033:12034   */\n      dup1\n        /* \"--CODEGEN--\":12028:12031   */\n      dup3\n        /* \"--CODEGEN--\":12024:12035   */\n      add\n        /* \"--CODEGEN--\":12018:12036   */\n      mload\n        /* \"--CODEGEN--\":12014:12015   */\n      dup2\n        /* \"--CODEGEN--\":12009:12012   */\n      dup5\n        /* \"--CODEGEN--\":12005:12016   */\n      add\n        /* \"--CODEGEN--\":11998:12037   */\n      mstore\n        /* \"--CODEGEN--\":11979:11981   */\n      0x20\n        /* \"--CODEGEN--\":11976:11977   */\n      dup2\n        /* \"--CODEGEN--\":11972:11982   */\n      add\n        /* \"--CODEGEN--\":11967:11982   */\n      swap1\n      pop\n        /* \"--CODEGEN--\":11943:12044   */\n      jump(tag_303)\n    tag_305:\n        /* \"--CODEGEN--\":12059:12065   */\n      dup4\n        /* \"--CODEGEN--\":12056:12057   */\n      dup2\n        /* \"--CODEGEN--\":12053:12066   */\n      gt\n        /* \"--CODEGEN--\":12050:12052   */\n      iszero\n      tag_306\n      jumpi\n        /* \"--CODEGEN--\":12124:12125   */\n      0x00\n        /* \"--CODEGEN--\":12115:12121   */\n      dup5\n        /* \"--CODEGEN--\":12110:12113   */\n      dup5\n        /* \"--CODEGEN--\":12106:12122   */\n      add\n        /* \"--CODEGEN--\":12099:12126   */\n      mstore\n        /* \"--CODEGEN--\":12050:12052   */\n    tag_306:\n        /* \"--CODEGEN--\":11920:12139   */\n      pop\n      pop\n      pop\n      pop\n      jump\n        /* \"--CODEGEN--\":12147:12244   */\n    tag_240:\n      0x00\n        /* \"--CODEGEN--\":12235:12237   */\n      0x1f\n        /* \"--CODEGEN--\":12231:12238   */\n      not\n        /* \"--CODEGEN--\":12226:12228   */\n      0x1f\n        /* \"--CODEGEN--\":12219:12224   */\n      dup4\n        /* \"--CODEGEN--\":12215:12229   */\n      add\n        /* \"--CODEGEN--\":12211:12239   */\n      and\n        /* \"--CODEGEN--\":12201:12239   */\n      swap1\n      pop\n        /* \"--CODEGEN--\":12195:12244   */\n      swap2\n      swap1\n      pop\n      jump\n        /* \"--CODEGEN--\":12252:12369   */\n    tag_154:\n        /* \"--CODEGEN--\":12321:12345   */\n      tag_309\n        /* \"--CODEGEN--\":12339:12344   */\n      dup2\n        /* \"--CODEGEN--\":12321:12345   */\n      jump(tag_222)\n    tag_309:\n        /* \"--CODEGEN--\":12314:12319   */\n      dup2\n        /* \"--CODEGEN--\":12311:12346   */\n      eq\n        /* \"--CODEGEN--\":12301:12303   */\n      tag_310\n      jumpi\n        /* \"--CODEGEN--\":12360:12361   */\n      0x00\n        /* \"--CODEGEN--\":12357:12358   */\n      dup1\n        /* \"--CODEGEN--\":12350:12362   */\n      revert\n        /* \"--CODEGEN--\":12301:12303   */\n    tag_310:\n        /* \"--CODEGEN--\":12295:12369   */\n      pop\n      jump\n        /* \"--CODEGEN--\":12376:12487   */\n    tag_163:\n        /* \"--CODEGEN--\":12442:12463   */\n      tag_312\n        /* \"--CODEGEN--\":12457:12462   */\n      dup2\n        /* \"--CODEGEN--\":12442:12463   */\n      jump(tag_226)\n    tag_312:\n        /* \"--CODEGEN--\":12435:12440   */\n      dup2\n        /* \"--CODEGEN--\":12432:12464   */\n      eq\n        /* \"--CODEGEN--\":12422:12424   */\n      tag_313\n      jumpi\n        /* \"--CODEGEN--\":12478:12479   */\n      0x00\n        /* \"--CODEGEN--\":12475:12476   */\n      dup1\n        /* \"--CODEGEN--\":12468:12480   */\n      revert\n        /* \"--CODEGEN--\":12422:12424   */\n    tag_313:\n        /* \"--CODEGEN--\":12416:12487   */\n      pop\n      jump\n        /* \"--CODEGEN--\":12494:12609   */\n    tag_167:\n        /* \"--CODEGEN--\":12562:12585   */\n      tag_315\n        /* \"--CODEGEN--\":12579:12584   */\n      dup2\n        /* \"--CODEGEN--\":12562:12585   */\n      jump(tag_230)\n    tag_315:\n        /* \"--CODEGEN--\":12555:12560   */\n      dup2\n        /* \"--CODEGEN--\":12552:12586   */\n      eq\n        /* \"--CODEGEN--\":12542:12544   */\n      tag_316\n      jumpi\n        /* \"--CODEGEN--\":12600:12601   */\n      0x00\n        /* \"--CODEGEN--\":12597:12598   */\n      dup1\n        /* \"--CODEGEN--\":12590:12602   */\n      revert\n        /* \"--CODEGEN--\":12542:12544   */\n    tag_316:\n        /* \"--CODEGEN--\":12536:12609   */\n      pop\n      jump\n        /* \"--CODEGEN--\":12616:12769   */\n    tag_171:\n        /* \"--CODEGEN--\":12703:12745   */\n      tag_318\n        /* \"--CODEGEN--\":12739:12744   */\n      dup2\n        /* \"--CODEGEN--\":12703:12745   */\n      jump(tag_291)\n    tag_318:\n        /* \"--CODEGEN--\":12696:12701   */\n      dup2\n        /* \"--CODEGEN--\":12693:12746   */\n      eq\n        /* \"--CODEGEN--\":12683:12685   */\n      tag_319\n      jumpi\n        /* \"--CODEGEN--\":12760:12761   */\n      0x00\n        /* \"--CODEGEN--\":12757:12758   */\n      dup1\n        /* \"--CODEGEN--\":12750:12762   */\n      revert\n        /* \"--CODEGEN--\":12683:12685   */\n    tag_319:\n        /* \"--CODEGEN--\":12677:12769   */\n      pop\n      jump\n        /* \"--CODEGEN--\":12776:12878   */\n    tag_175:\n        /* \"--CODEGEN--\":12853:12854   */\n      0x03\n        /* \"--CODEGEN--\":12846:12851   */\n      dup2\n        /* \"--CODEGEN--\":12843:12855   */\n      lt\n        /* \"--CODEGEN--\":12833:12835   */\n      tag_321\n      jumpi\n        /* \"--CODEGEN--\":12869:12870   */\n      0x00\n        /* \"--CODEGEN--\":12866:12867   */\n      dup1\n        /* \"--CODEGEN--\":12859:12871   */\n      revert\n        /* \"--CODEGEN--\":12833:12835   */\n    tag_321:\n        /* \"--CODEGEN--\":12827:12878   */\n      pop\n      jump\n\n    auxdata: 0xa26469706673582212200b5d14dd6e7c713b84b5c1b674a484cf7537d77ab318423adae48e48d28e8dc864736f6c63430006080033\n}\n",
				"bytecode": {
					"linkReferences": {},
					"object": "60806040523480156200001157600080fd5b506040516200210238038062002102833981810160405281019062000037919062000634565b80600080604051620000499062000831565b908152602001604051809103902054141562000076576200007081620001c160201b60201c565b620001b9565b600273ffffffffffffffffffffffffffffffffffffffff1660016000631c47671b60e01b63bdf9a72660e01b635884973460e01b63a157a10d60e01b1818187bffffffffffffffffffffffffffffffffffffffffffffffffffffffff19167bffffffffffffffffffffffffffffffffffffffffffffffffffffffff1916815260200190815260200160002060008373ffffffffffffffffffffffffffffffffffffffff1673ffffffffffffffffffffffffffffffffffffffff16815260200190815260200160002060009054906101000a900473ffffffffffffffffffffffffffffffffffffffff1673ffffffffffffffffffffffffffffffffffffffff1614620001b8576040517f08c379a0000000000000000000000000000000000000000000000000000000008152600401620001af90620008a9565b60405180910390fd5b5b5050620009c0565b6040518060400160405280600381526020017f61636c0000000000000000000000000000000000000000000000000000000000815250600080826040516200020a919062000818565b908152602001604051809103902054146200025c576040517f08c379a0000000000000000000000000000000000000000000000000000000008152600401620002539062000887565b60405180910390fd5b436000826040516200026f919062000818565b908152602001604051809103902081905550620002b5631c47671b60e01b63bdf9a72660e01b635884973460e01b63a157a10d60e01b18181883620002fd60201b60201c565b80604051620002c5919062000818565b60405180910390207f7bc2a48a4a566e237a12186f19d985b0f76afc9d5290601edac19876253670c260405160405180910390a25050565b62000311828260026200031560201b60201c565b5050565b62000326836200053560201b60201c565b1562000369576040517f08c379a0000000000000000000000000000000000000000000000000000000008152600401620003609062000865565b60405180910390fd5b600173ffffffffffffffffffffffffffffffffffffffff168273ffffffffffffffffffffffffffffffffffffffff161415620003dc576040517f08c379a0000000000000000000000000000000000000000000000000000000008152600401620003d390620008cb565b60405180910390fd5b8060016000857bffffffffffffffffffffffffffffffffffffffffffffffffffffffff19167bffffffffffffffffffffffffffffffffffffffffffffffffffffffff1916815260200190815260200160002060008473ffffffffffffffffffffffffffffffffffffffff1673ffffffffffffffffffffffffffffffffffffffff16815260200190815260200160002060006101000a81548173ffffffffffffffffffffffffffffffffffffffff021916908373ffffffffffffffffffffffffffffffffffffffff1602179055508173ffffffffffffffffffffffffffffffffffffffff163373ffffffffffffffffffffffffffffffffffffffff16847bffffffffffffffffffffffffffffffffffffffffffffffffffffffff19167fc62063b81f7036fd97a0dc546516e99f11004d2d76ca0fddd3866346c86e70918460405162000528919062000848565b60405180910390a4505050565b6000600173ffffffffffffffffffffffffffffffffffffffff1660016000847bffffffffffffffffffffffffffffffffffffffffffffffffffffffff19167bffffffffffffffffffffffffffffffffffffffffffffffffffffffff191681526020019081526020016000206000600173ffffffffffffffffffffffffffffffffffffffff1673ffffffffffffffffffffffffffffffffffffffff16815260200190815260200160002060009054906101000a900473ffffffffffffffffffffffffffffffffffffffff1673ffffffffffffffffffffffffffffffffffffffff16149050919050565b6000815190506200062e81620009a6565b92915050565b6000602082840312156200064757600080fd5b600062000657848285016200061d565b91505092915050565b6200066b8162000948565b82525050565b60006200067e82620008ed565b6200068a818562000909565b93506200069c81856020860162000970565b80840191505092915050565b6000620006b7600b83620008f8565b91507f61636c3a2066726f7a656e0000000000000000000000000000000000000000006000830152602082019050919050565b6000620006f9602283620008f8565b91507f696e697469616c697a61626c653a20616c726561647920696e697469616c697a60008301527f65640000000000000000000000000000000000000000000000000000000000006020830152604082019050919050565b600062000761601c83620008f8565b91507f61636c3a20696e697469616c20726f6f74206d6973616c69676e6564000000006000830152602082019050919050565b6000620007a360038362000909565b91507f61636c00000000000000000000000000000000000000000000000000000000006000830152600382019050919050565b6000620007e5600f83620008f8565b91507f61636c3a2062616420667265657a6500000000000000000000000000000000006000830152602082019050919050565b600062000826828462000671565b915081905092915050565b60006200083e8262000794565b9150819050919050565b60006020820190506200085f600083018462000660565b92915050565b600060208201905081810360008301526200088081620006a8565b9050919050565b60006020820190508181036000830152620008a281620006ea565b9050919050565b60006020820190508181036000830152620008c48162000752565b9050919050565b60006020820190508181036000830152620008e681620007d6565b9050919050565b600081519050919050565b600082825260208201905092915050565b600081905092915050565b6000620009218262000928565b9050919050565b600073ffffffffffffffffffffffffffffffffffffffff82169050919050565b600062000955826200095c565b9050919050565b6000620009698262000928565b9050919050565b60005b838110156200099057808201518184015260208101905062000973565b83811115620009a0576000848401525b50505050565b620009b18162000914565b8114620009bd57600080fd5b50565b61173280620009d06000396000f3fe608060405234801561001057600080fd5b50600436106100935760003560e01c806396fc8abd1161006657806396fc8abd1461011e578063a157a10d1461014e578063a21572271461016a578063bdf9a72614610186578063cc1d4cab146101a257610093565b80631c47671b14610098578063495a9825146100b457806358849734146100e45780637e8c7f0814610100575b600080fd5b6100b260048036038101906100ad9190611118565b6101d2565b005b6100ce60048036038101906100c99190611186565b61037b565b6040516100db9190611403565b60405180910390f35b6100fe60048036038101906100f991906111af565b610463565b005b610108610524565b604051610115919061141e565b60405180910390f35b610138600480360381019061013391906111af565b61054a565b60405161014591906113e8565b60405180910390f35b610168600480360381019061016391906111af565b61058c565b005b610184600480360381019061017f91906111eb565b61064d565b005b6101a0600480360381019061019b9190611186565b610710565b005b6101bc60048036038101906101b7919061123a565b6107cf565b6040516101c991906114f2565b60405180910390f35b631c47671b60e01b63bdf9a72660e01b635884973460e01b63a157a10d60e01b18181861024581336000368080601f016020809104026020016040519081016040528093929190818152602001838380828437600081840152601f19601f820116905080830192505050505050506107fd565b610284576040517f08c379a000000000000000000000000000000000000000000000000000000000815260040161027b90611492565b60405180910390fd5b60008090505b838390508110156103755761029d610f50565b8484838181106102a957fe5b9050606002018036038101906102bf919061127b565b9050600060028111156102ce57fe5b816000015160028111156102de57fe5b14156102fb576102f681602001518260400151610845565b610367565b6001600281111561030857fe5b8160000151600281111561031857fe5b14156103355761033081602001518260400151610855565b610366565b60028081111561034157fe5b8160000151600281111561035157fe5b14156103655761036481602001516109ea565b5b5b5b50808060010191505061028a565b50505050565b6000600173ffffffffffffffffffffffffffffffffffffffff1660016000847bffffffffffffffffffffffffffffffffffffffffffffffffffffffff19167bffffffffffffffffffffffffffffffffffffffffffffffffffffffff191681526020019081526020016000206000600173ffffffffffffffffffffffffffffffffffffffff1673ffffffffffffffffffffffffffffffffffffffff16815260200190815260200160002060009054906101000a900473ffffffffffffffffffffffffffffffffffffffff1673ffffffffffffffffffffffffffffffffffffffff16149050919050565b631c47671b60e01b63bdf9a72660e01b635884973460e01b63a157a10d60e01b1818186104d681336000368080601f016020809104026020016040519081016040528093929190818152602001838380828437600081840152601f19601f820116905080830192505050505050506107fd565b610515576040517f08c379a000000000000000000000000000000000000000000000000000000000815260040161050c90611492565b60405180910390fd5b61051f8383610855565b505050565b631c47671b60e01b63bdf9a72660e01b635884973460e01b63a157a10d60e01b18181881565b60016020528160005260406000206020528060005260406000206000915091509054906101000a900473ffffffffffffffffffffffffffffffffffffffff1681565b631c47671b60e01b63bdf9a72660e01b635884973460e01b63a157a10d60e01b1818186105ff81336000368080601f016020809104026020016040519081016040528093929190818152602001838380828437600081840152601f19601f820116905080830192505050505050506107fd565b61063e576040517f08c379a000000000000000000000000000000000000000000000000000000000815260040161063590611492565b60405180910390fd5b6106488383610845565b505050565b631c47671b60e01b63bdf9a72660e01b635884973460e01b63a157a10d60e01b1818186106c081336000368080601f016020809104026020016040519081016040528093929190818152602001838380828437600081840152601f19601f820116905080830192505050505050506107fd565b6106ff576040517f08c379a00000000000000000000000000000000000000000000000000000000081526004016106f690611492565b60405180910390fd5b61070a848484610b67565b50505050565b631c47671b60e01b63bdf9a72660e01b635884973460e01b63a157a10d60e01b18181861078381336000368080601f016020809104026020016040519081016040528093929190818152602001838380828437600081840152601f19601f820116905080830192505050505050506107fd565b6107c2576040517f08c379a00000000000000000000000000000000000000000000000000000000081526004016107b990611492565b60405180910390fd5b6107cb826109ea565b5050565b6000818051602081018201805184825260208301602085012081835280955050505050506000915090505481565b600061080a848484610d77565b8061083c575061083b847fffffffffffffffffffffffffffffffffffffffffffffffffffffffffffffffff84610d77565b5b90509392505050565b61085182826002610b67565b5050565b61085e8261037b565b1561089e576040517f08c379a0000000000000000000000000000000000000000000000000000000008152600401610895906114b2565b60405180910390fd5b600060016000847bffffffffffffffffffffffffffffffffffffffffffffffffffffffff19167bffffffffffffffffffffffffffffffffffffffffffffffffffffffff1916815260200190815260200160002060008373ffffffffffffffffffffffffffffffffffffffff1673ffffffffffffffffffffffffffffffffffffffff16815260200190815260200160002060006101000a81548173ffffffffffffffffffffffffffffffffffffffff021916908373ffffffffffffffffffffffffffffffffffffffff1602179055508073ffffffffffffffffffffffffffffffffffffffff163373ffffffffffffffffffffffffffffffffffffffff16837bffffffffffffffffffffffffffffffffffffffffffffffffffffffff19167f682f2c466c1e9f6883eb72cbced01373e1cb18b05ae5c8bc04dc73d73e29f8cd60405160405180910390a45050565b6109f38161037b565b15610a33576040517f08c379a0000000000000000000000000000000000000000000000000000000008152600401610a2a906114b2565b60405180910390fd5b6001806000837bffffffffffffffffffffffffffffffffffffffffffffffffffffffff19167bffffffffffffffffffffffffffffffffffffffffffffffffffffffff191681526020019081526020016000206000600173ffffffffffffffffffffffffffffffffffffffff1673ffffffffffffffffffffffffffffffffffffffff16815260200190815260200160002060006101000a81548173ffffffffffffffffffffffffffffffffffffffff021916908373ffffffffffffffffffffffffffffffffffffffff1602179055503373ffffffffffffffffffffffffffffffffffffffff16817bffffffffffffffffffffffffffffffffffffffffffffffffffffffff19167f049c6b8b07a879425742523fa80f8ffb25e39ad518c93a5896a0df19518397e560405160405180910390a350565b610b708361037b565b15610bb0576040517f08c379a0000000000000000000000000000000000000000000000000000000008152600401610ba7906114b2565b60405180910390fd5b600173ffffffffffffffffffffffffffffffffffffffff168273ffffffffffffffffffffffffffffffffffffffff161415610c20576040517f08c379a0000000000000000000000000000000000000000000000000000000008152600401610c17906114d2565b60405180910390fd5b8060016000857bffffffffffffffffffffffffffffffffffffffffffffffffffffffff19167bffffffffffffffffffffffffffffffffffffffffffffffffffffffff1916815260200190815260200160002060008473ffffffffffffffffffffffffffffffffffffffff1673ffffffffffffffffffffffffffffffffffffffff16815260200190815260200160002060006101000a81548173ffffffffffffffffffffffffffffffffffffffff021916908373ffffffffffffffffffffffffffffffffffffffff1602179055508173ffffffffffffffffffffffffffffffffffffffff163373ffffffffffffffffffffffffffffffffffffffff16847bffffffffffffffffffffffffffffffffffffffffffffffffffffffff19167fc62063b81f7036fd97a0dc546516e99f11004d2d76ca0fddd3866346c86e709184604051610d6a9190611477565b60405180910390a4505050565b60008060016000867bffffffffffffffffffffffffffffffffffffffffffffffffffffffff19167bffffffffffffffffffffffffffffffffffffffffffffffffffffffff1916815260200190815260200160002060008573ffffffffffffffffffffffffffffffffffffffff1673ffffffffffffffffffffffffffffffffffffffff16815260200190815260200160002060009054906101000a900473ffffffffffffffffffffffffffffffffffffffff169050600073ffffffffffffffffffffffffffffffffffffffff168173ffffffffffffffffffffffffffffffffffffffff1614610f4357600273ffffffffffffffffffffffffffffffffffffffff168173ffffffffffffffffffffffffffffffffffffffff161415610e9e576001915050610f49565b8073ffffffffffffffffffffffffffffffffffffffff1663097c81088686866040518463ffffffff1660e01b8152600401610edb93929190611439565b602060405180830381600087803b158015610ef557600080fd5b505af1925050508015610f2657506040513d601f19601f82011682018060405250810190610f23919061115d565b60015b610f2f57610f42565b8015610f4057600192505050610f49565b505b5b60009150505b9392505050565b604051806060016040528060006002811115610f6857fe5b815260200160007bffffffffffffffffffffffffffffffffffffffffffffffffffffffff19168152602001600073ffffffffffffffffffffffffffffffffffffffff1681525090565b600081359050610fc081611690565b92915050565b60008083601f840112610fd857600080fd5b8235905067ffffffffffffffff811115610ff157600080fd5b60208301915083606082028301111561100957600080fd5b9250929050565b60008151905061101f816116a7565b92915050565b600081359050611034816116be565b92915050565b600081359050611049816116d5565b92915050565b60008135905061105e816116ec565b92915050565b600082601f83011261107557600080fd5b81356110886110838261153a565b61150d565b915080825260208301602083018583830111156110a457600080fd5b6110af83828461163d565b50505092915050565b6000606082840312156110ca57600080fd5b6110d4606061150d565b905060006110e48482850161104f565b60008301525060206110f884828501611025565b602083015250604061110c84828501610fb1565b60408301525092915050565b6000806020838503121561112b57600080fd5b600083013567ffffffffffffffff81111561114557600080fd5b61115185828601610fc6565b92509250509250929050565b60006020828403121561116f57600080fd5b600061117d84828501611010565b91505092915050565b60006020828403121561119857600080fd5b60006111a684828501611025565b91505092915050565b600080604083850312156111c257600080fd5b60006111d085828601611025565b92505060206111e185828601610fb1565b9150509250929050565b60008060006060848603121561120057600080fd5b600061120e86828701611025565b935050602061121f86828701610fb1565b92505060406112308682870161103a565b9150509250925092565b60006020828403121561124c57600080fd5b600082013567ffffffffffffffff81111561126657600080fd5b61127284828501611064565b91505092915050565b60006060828403121561128d57600080fd5b600061129b848285016110b8565b91505092915050565b6112ad81611593565b82525050565b6112bc816115a5565b82525050565b6112cb816115b1565b82525050565b60006112dc82611566565b6112e68185611571565b93506112f681856020860161164c565b6112ff8161167f565b840191505092915050565b61131381611619565b82525050565b6000611326600983611582565b91507f61636c3a206175746800000000000000000000000000000000000000000000006000830152602082019050919050565b6000611366600b83611582565b91507f61636c3a2066726f7a656e0000000000000000000000000000000000000000006000830152602082019050919050565b60006113a6600f83611582565b91507f61636c3a2062616420667265657a6500000000000000000000000000000000006000830152602082019050919050565b6113e28161160f565b82525050565b60006020820190506113fd60008301846112a4565b92915050565b600060208201905061141860008301846112b3565b92915050565b600060208201905061143360008301846112c2565b92915050565b600060608201905061144e60008301866112c2565b61145b60208301856112a4565b818103604083015261146d81846112d1565b9050949350505050565b600060208201905061148c600083018461130a565b92915050565b600060208201905081810360008301526114ab81611319565b9050919050565b600060208201905081810360008301526114cb81611359565b9050919050565b600060208201905081810360008301526114eb81611399565b9050919050565b600060208201905061150760008301846113d9565b92915050565b6000604051905081810181811067ffffffffffffffff8211171561153057600080fd5b8060405250919050565b600067ffffffffffffffff82111561155157600080fd5b601f19601f8301169050602081019050919050565b600081519050919050565b600082825260208201905092915050565b600082825260208201905092915050565b600061159e826115ef565b9050919050565b60008115159050919050565b60007fffffffff0000000000000000000000000000000000000000000000000000000082169050919050565b60006115e882611593565b9050919050565b600073ffffffffffffffffffffffffffffffffffffffff82169050919050565b6000819050919050565b60006116248261162b565b9050919050565b6000611636826115ef565b9050919050565b82818337600083830152505050565b60005b8381101561166a57808201518184015260208101905061164f565b83811115611679576000848401525b50505050565b6000601f19601f8301169050919050565b61169981611593565b81146116a457600080fd5b50565b6116b0816115a5565b81146116bb57600080fd5b50565b6116c7816115b1565b81146116d257600080fd5b50565b6116de816115dd565b81146116e957600080fd5b50565b600381106116f957600080fd5b5056fea26469706673582212200b5d14dd6e7c713b84b5c1b674a484cf7537d77ab318423adae48e48d28e8dc864736f6c63430006080033",
					"opcodes": "PUSH1 0x80 PUSH1 0x40 MSTORE CALLVALUE DUP1 ISZERO PUSH3 0x11 JUMPI PUSH1 0x0 DUP1 REVERT JUMPDEST POP PUSH1 0x40 MLOAD PUSH3 0x2102 CODESIZE SUB DUP1 PUSH3 0x2102 DUP4 CODECOPY DUP2 DUP2 ADD PUSH1 0x40 MSTORE DUP2 ADD SWAP1 PUSH3 0x37 SWAP2 SWAP1 PUSH3 0x634 JUMP JUMPDEST DUP1 PUSH1 0x0 DUP1 PUSH1 0x40 MLOAD PUSH3 0x49 SWAP1 PUSH3 0x831 JUMP JUMPDEST SWAP1 DUP2 MSTORE PUSH1 0x20 ADD PUSH1 0x40 MLOAD DUP1 SWAP2 SUB SWAP1 KECCAK256 SLOAD EQ ISZERO PUSH3 0x76 JUMPI PUSH3 0x70 DUP2 PUSH3 0x1C1 PUSH1 0x20 SHL PUSH1 0x20 SHR JUMP JUMPDEST PUSH3 0x1B9 JUMP JUMPDEST PUSH1 0x2 PUSH20 0xFFFFFFFFFFFFFFFFFFFFFFFFFFFFFFFFFFFFFFFF AND PUSH1 0x1 PUSH1 0x0 PUSH4 0x1C47671B PUSH1 0xE0 SHL PUSH4 0xBDF9A726 PUSH1 0xE0 SHL PUSH4 0x58849734 PUSH1 0xE0 SHL PUSH4 0xA157A10D PUSH1 0xE0 SHL XOR XOR XOR PUSH28 0xFFFFFFFFFFFFFFFFFFFFFFFFFFFFFFFFFFFFFFFFFFFFFFFFFFFFFFFF NOT AND PUSH28 0xFFFFFFFFFFFFFFFFFFFFFFFFFFFFFFFFFFFFFFFFFFFFFFFFFFFFFFFF NOT AND DUP2 MSTORE PUSH1 0x20 ADD SWAP1 DUP2 MSTORE PUSH1 0x20 ADD PUSH1 0x0 KECCAK256 PUSH1 0x0 DUP4 PUSH20 0xFFFFFFFFFFFFFFFFFFFFFFFFFFFFFFFFFFFFFFFF AND PUSH20 0xFFFFFFFFFFFFFFFFFFFFFFFFFFFFFFFFFFFFFFFF AND DUP2 MSTORE PUSH1 0x20 ADD SWAP1 DUP2 MSTORE PUSH1 0x20 ADD PUSH1 0x0 KECCAK256 PUSH1 0x0 SWAP1 SLOAD SWAP1 PUSH2 0x100 EXP SWAP1 DIV PUSH20 0xFFFFFFFFFFFFFFFFFFFFFFFFFFFFFFFFFFFFFFFF AND PUSH20 0xFFFFFFFFFFFFFFFFFFFFFFFFFFFFFFFFFFFFFFFF AND EQ PUSH3 0x1B8 JUMPI PUSH1 0x40 MLOAD PUSH32 0x8C379A000000000000000000000000000000000000000000000000000000000 DUP2 MSTORE PUSH1 0x4 ADD PUSH3 0x1AF SWAP1 PUSH3 0x8A9 JUMP JUMPDEST PUSH1 0x40 MLOAD DUP1 SWAP2 SUB SWAP1 REVERT JUMPDEST JUMPDEST POP POP PUSH3 0x9C0 JUMP JUMPDEST PUSH1 0x40 MLOAD DUP1 PUSH1 0x40 ADD PUSH1 0x40 MSTORE DUP1 PUSH1 0x3 DUP2 MSTORE PUSH1 0x20 ADD PUSH32 0x61636C0000000000000000000000000000000000000000000000000000000000 DUP2 MSTORE POP PUSH1 0x0 DUP1 DUP3 PUSH1 0x40 MLOAD PUSH3 0x20A SWAP2 SWAP1 PUSH3 0x818 JUMP JUMPDEST SWAP1 DUP2 MSTORE PUSH1 0x20 ADD PUSH1 0x40 MLOAD DUP1 SWAP2 SUB SWAP1 KECCAK256 SLOAD EQ PUSH3 0x25C JUMPI PUSH1 0x40 MLOAD PUSH32 0x8C379A000000000000000000000000000000000000000000000000000000000 DUP2 MSTORE PUSH1 0x4 ADD PUSH3 0x253 SWAP1 PUSH3 0x887 JUMP JUMPDEST PUSH1 0x40 MLOAD DUP1 SWAP2 SUB SWAP1 REVERT JUMPDEST NUMBER PUSH1 0x0 DUP3 PUSH1 0x40 MLOAD PUSH3 0x26F SWAP2 SWAP1 PUSH3 0x818 JUMP JUMPDEST SWAP1 DUP2 MSTORE PUSH1 0x20 ADD PUSH1 0x40 MLOAD DUP1 SWAP2 SUB SWAP1 KECCAK256 DUP2 SWAP1 SSTORE POP PUSH3 0x2B5 PUSH4 0x1C47671B PUSH1 0xE0 SHL PUSH4 0xBDF9A726 PUSH1 0xE0 SHL PUSH4 0x58849734 PUSH1 0xE0 SHL PUSH4 0xA157A10D PUSH1 0xE0 SHL XOR XOR XOR DUP4 PUSH3 0x2FD PUSH1 0x20 SHL PUSH1 0x20 SHR JUMP JUMPDEST DUP1 PUSH1 0x40 MLOAD PUSH3 0x2C5 SWAP2 SWAP1 PUSH3 0x818 JUMP JUMPDEST PUSH1 0x40 MLOAD DUP1 SWAP2 SUB SWAP1 KECCAK256 PUSH32 0x7BC2A48A4A566E237A12186F19D985B0F76AFC9D5290601EDAC19876253670C2 PUSH1 0x40 MLOAD PUSH1 0x40 MLOAD DUP1 SWAP2 SUB SWAP1 LOG2 POP POP JUMP JUMPDEST PUSH3 0x311 DUP3 DUP3 PUSH1 0x2 PUSH3 0x315 PUSH1 0x20 SHL PUSH1 0x20 SHR JUMP JUMPDEST POP POP JUMP JUMPDEST PUSH3 0x326 DUP4 PUSH3 0x535 PUSH1 0x20 SHL PUSH1 0x20 SHR JUMP JUMPDEST ISZERO PUSH3 0x369 JUMPI PUSH1 0x40 MLOAD PUSH32 0x8C379A000000000000000000000000000000000000000000000000000000000 DUP2 MSTORE PUSH1 0x4 ADD PUSH3 0x360 SWAP1 PUSH3 0x865 JUMP JUMPDEST PUSH1 0x40 MLOAD DUP1 SWAP2 SUB SWAP1 REVERT JUMPDEST PUSH1 0x1 PUSH20 0xFFFFFFFFFFFFFFFFFFFFFFFFFFFFFFFFFFFFFFFF AND DUP3 PUSH20 0xFFFFFFFFFFFFFFFFFFFFFFFFFFFFFFFFFFFFFFFF AND EQ ISZERO PUSH3 0x3DC JUMPI PUSH1 0x40 MLOAD PUSH32 0x8C379A000000000000000000000000000000000000000000000000000000000 DUP2 MSTORE PUSH1 0x4 ADD PUSH3 0x3D3 SWAP1 PUSH3 0x8CB JUMP JUMPDEST PUSH1 0x40 MLOAD DUP1 SWAP2 SUB SWAP1 REVERT JUMPDEST DUP1 PUSH1 0x1 PUSH1 0x0 DUP6 PUSH28 0xFFFFFFFFFFFFFFFFFFFFFFFFFFFFFFFFFFFFFFFFFFFFFFFFFFFFFFFF NOT AND PUSH28 0xFFFFFFFFFFFFFFFFFFFFFFFFFFFFFFFFFFFFFFFFFFFFFFFFFFFFFFFF NOT AND DUP2 MSTORE PUSH1 0x20 ADD SWAP1 DUP2 MSTORE PUSH1 0x20 ADD PUSH1 0x0 KECCAK256 PUSH1 0x0 DUP5 PUSH20 0xFFFFFFFFFFFFFFFFFFFFFFFFFFFFFFFFFFFFFFFF AND PUSH20 0xFFFFFFFFFFFFFFFFFFFFFFFFFFFFFFFFFFFFFFFF AND DUP2 MSTORE PUSH1 0x20 ADD SWAP1 DUP2 MSTORE PUSH1 0x20 ADD PUSH1 0x0 KECCAK256 PUSH1 0x0 PUSH2 0x100 EXP DUP2 SLOAD DUP2 PUSH20 0xFFFFFFFFFFFFFFFFFFFFFFFFFFFFFFFFFFFFFFFF MUL NOT AND SWAP1 DUP4 PUSH20 0xFFFFFFFFFFFFFFFFFFFFFFFFFFFFFFFFFFFFFFFF AND MUL OR SWAP1 SSTORE POP DUP2 PUSH20 0xFFFFFFFFFFFFFFFFFFFFFFFFFFFFFFFFFFFFFFFF AND CALLER PUSH20 0xFFFFFFFFFFFFFFFFFFFFFFFFFFFFFFFFFFFFFFFF AND DUP5 PUSH28 0xFFFFFFFFFFFFFFFFFFFFFFFFFFFFFFFFFFFFFFFFFFFFFFFFFFFFFFFF NOT AND PUSH32 0xC62063B81F7036FD97A0DC546516E99F11004D2D76CA0FDDD3866346C86E7091 DUP5 PUSH1 0x40 MLOAD PUSH3 0x528 SWAP2 SWAP1 PUSH3 0x848 JUMP JUMPDEST PUSH1 0x40 MLOAD DUP1 SWAP2 SUB SWAP1 LOG4 POP POP POP JUMP JUMPDEST PUSH1 0x0 PUSH1 0x1 PUSH20 0xFFFFFFFFFFFFFFFFFFFFFFFFFFFFFFFFFFFFFFFF AND PUSH1 0x1 PUSH1 0x0 DUP5 PUSH28 0xFFFFFFFFFFFFFFFFFFFFFFFFFFFFFFFFFFFFFFFFFFFFFFFFFFFFFFFF NOT AND PUSH28 0xFFFFFFFFFFFFFFFFFFFFFFFFFFFFFFFFFFFFFFFFFFFFFFFFFFFFFFFF NOT AND DUP2 MSTORE PUSH1 0x20 ADD SWAP1 DUP2 MSTORE PUSH1 0x20 ADD PUSH1 0x0 KECCAK256 PUSH1 0x0 PUSH1 0x1 PUSH20 0xFFFFFFFFFFFFFFFFFFFFFFFFFFFFFFFFFFFFFFFF AND PUSH20 0xFFFFFFFFFFFFFFFFFFFFFFFFFFFFFFFFFFFFFFFF AND DUP2 MSTORE PUSH1 0x20 ADD SWAP1 DUP2 MSTORE PUSH1 0x20 ADD PUSH1 0x0 KECCAK256 PUSH1 0x0 SWAP1 SLOAD SWAP1 PUSH2 0x100 EXP SWAP1 DIV PUSH20 0xFFFFFFFFFFFFFFFFFFFFFFFFFFFFFFFFFFFFFFFF AND PUSH20 0xFFFFFFFFFFFFFFFFFFFFFFFFFFFFFFFFFFFFFFFF AND EQ SWAP1 POP SWAP2 SWAP1 POP JUMP JUMPDEST PUSH1 0x0 DUP2 MLOAD SWAP1 POP PUSH3 0x62E DUP2 PUSH3 0x9A6 JUMP JUMPDEST SWAP3 SWAP2 POP POP JUMP JUMPDEST PUSH1 0x0 PUSH1 0x20 DUP3 DUP5 SUB SLT ISZERO PUSH3 0x647 JUMPI PUSH1 0x0 DUP1 REVERT JUMPDEST PUSH1 0x0 PUSH3 0x657 DUP5 DUP3 DUP6 ADD PUSH3 0x61D JUMP JUMPDEST SWAP2 POP POP SWAP3 SWAP2 POP POP JUMP JUMPDEST PUSH3 0x66B DUP2 PUSH3 0x948 JUMP JUMPDEST DUP3 MSTORE POP POP JUMP JUMPDEST PUSH1 0x0 PUSH3 0x67E DUP3 PUSH3 0x8ED JUMP JUMPDEST PUSH3 0x68A DUP2 DUP6 PUSH3 0x909 JUMP JUMPDEST SWAP4 POP PUSH3 0x69C DUP2 DUP6 PUSH1 0x20 DUP7 ADD PUSH3 0x970 JUMP JUMPDEST DUP1 DUP5 ADD SWAP2 POP POP SWAP3 SWAP2 POP POP JUMP JUMPDEST PUSH1 0x0 PUSH3 0x6B7 PUSH1 0xB DUP4 PUSH3 0x8F8 JUMP JUMPDEST SWAP2 POP PUSH32 0x61636C3A2066726F7A656E000000000000000000000000000000000000000000 PUSH1 0x0 DUP4 ADD MSTORE PUSH1 0x20 DUP3 ADD SWAP1 POP SWAP2 SWAP1 POP JUMP JUMPDEST PUSH1 0x0 PUSH3 0x6F9 PUSH1 0x22 DUP4 PUSH3 0x8F8 JUMP JUMPDEST SWAP2 POP PUSH32 0x696E697469616C697A61626C653A20616C726561647920696E697469616C697A PUSH1 0x0 DUP4 ADD MSTORE PUSH32 0x6564000000000000000000000000000000000000000000000000000000000000 PUSH1 0x20 DUP4 ADD MSTORE PUSH1 0x40 DUP3 ADD SWAP1 POP SWAP2 SWAP1 POP JUMP JUMPDEST PUSH1 0x0 PUSH3 0x761 PUSH1 0x1C DUP4 PUSH3 0x8F8 JUMP JUMPDEST SWAP2 POP PUSH32 0x61636C3A20696E697469616C20726F6F74206D6973616C69676E656400000000 PUSH1 0x0 DUP4 ADD MSTORE PUSH1 0x20 DUP3 ADD SWAP1 POP SWAP2 SWAP1 POP JUMP JUMPDEST PUSH1 0x0 PUSH3 0x7A3 PUSH1 0x3 DUP4 PUSH3 0x909 JUMP JUMPDEST SWAP2 POP PUSH32 0x61636C0000000000000000000000000000000000000000000000000000000000 PUSH1 0x0 DUP4 ADD MSTORE PUSH1 0x3 DUP3 ADD SWAP1 POP SWAP2 SWAP1 POP JUMP JUMPDEST PUSH1 0x0 PUSH3 0x7E5 PUSH1 0xF DUP4 PUSH3 0x8F8 JUMP JUMPDEST SWAP2 POP PUSH32 0x61636C3A2062616420667265657A650000000000000000000000000000000000 PUSH1 0x0 DUP4 ADD MSTORE PUSH1 0x20 DUP3 ADD SWAP1 POP SWAP2 SWAP1 POP JUMP JUMPDEST PUSH1 0x0 PUSH3 0x826 DUP3 DUP5 PUSH3 0x671 JUMP JUMPDEST SWAP2 POP DUP2 SWAP1 POP SWAP3 SWAP2 POP POP JUMP JUMPDEST PUSH1 0x0 PUSH3 0x83E DUP3 PUSH3 0x794 JUMP JUMPDEST SWAP2 POP DUP2 SWAP1 POP SWAP2 SWAP1 POP JUMP JUMPDEST PUSH1 0x0 PUSH1 0x20 DUP3 ADD SWAP1 POP PUSH3 0x85F PUSH1 0x0 DUP4 ADD DUP5 PUSH3 0x660 JUMP JUMPDEST SWAP3 SWAP2 POP POP JUMP JUMPDEST PUSH1 0x0 PUSH1 0x20 DUP3 ADD SWAP1 POP DUP2 DUP2 SUB PUSH1 0x0 DUP4 ADD MSTORE PUSH3 0x880 DUP2 PUSH3 0x6A8 JUMP JUMPDEST SWAP1 POP SWAP2 SWAP1 POP JUMP JUMPDEST PUSH1 0x0 PUSH1 0x20 DUP3 ADD SWAP1 POP DUP2 DUP2 SUB PUSH1 0x0 DUP4 ADD MSTORE PUSH3 0x8A2 DUP2 PUSH3 0x6EA JUMP JUMPDEST SWAP1 POP SWAP2 SWAP1 POP JUMP JUMPDEST PUSH1 0x0 PUSH1 0x20 DUP3 ADD SWAP1 POP DUP2 DUP2 SUB PUSH1 0x0 DUP4 ADD MSTORE PUSH3 0x8C4 DUP2 PUSH3 0x752 JUMP JUMPDEST SWAP1 POP SWAP2 SWAP1 POP JUMP JUMPDEST PUSH1 0x0 PUSH1 0x20 DUP3 ADD SWAP1 POP DUP2 DUP2 SUB PUSH1 0x0 DUP4 ADD MSTORE PUSH3 0x8E6 DUP2 PUSH3 0x7D6 JUMP JUMPDEST SWAP1 POP SWAP2 SWAP1 POP JUMP JUMPDEST PUSH1 0x0 DUP2 MLOAD SWAP1 POP SWAP2 SWAP1 POP JUMP JUMPDEST PUSH1 0x0 DUP3 DUP3 MSTORE PUSH1 0x20 DUP3 ADD SWAP1 POP SWAP3 SWAP2 POP POP JUMP JUMPDEST PUSH1 0x0 DUP2 SWAP1 POP SWAP3 SWAP2 POP POP JUMP JUMPDEST PUSH1 0x0 PUSH3 0x921 DUP3 PUSH3 0x928 JUMP JUMPDEST SWAP1 POP SWAP2 SWAP1 POP JUMP JUMPDEST PUSH1 0x0 PUSH20 0xFFFFFFFFFFFFFFFFFFFFFFFFFFFFFFFFFFFFFFFF DUP3 AND SWAP1 POP SWAP2 SWAP1 POP JUMP JUMPDEST PUSH1 0x0 PUSH3 0x955 DUP3 PUSH3 0x95C JUMP JUMPDEST SWAP1 POP SWAP2 SWAP1 POP JUMP JUMPDEST PUSH1 0x0 PUSH3 0x969 DUP3 PUSH3 0x928 JUMP JUMPDEST SWAP1 POP SWAP2 SWAP1 POP JUMP JUMPDEST PUSH1 0x0 JUMPDEST DUP4 DUP2 LT ISZERO PUSH3 0x990 JUMPI DUP1 DUP3 ADD MLOAD DUP2 DUP5 ADD MSTORE PUSH1 0x20 DUP2 ADD SWAP1 POP PUSH3 0x973 JUMP JUMPDEST DUP4 DUP2 GT ISZERO PUSH3 0x9A0 JUMPI PUSH1 0x0 DUP5 DUP5 ADD MSTORE JUMPDEST POP POP POP POP JUMP JUMPDEST PUSH3 0x9B1 DUP2 PUSH3 0x914 JUMP JUMPDEST DUP2 EQ PUSH3 0x9BD JUMPI PUSH1 0x0 DUP1 REVERT JUMPDEST POP JUMP JUMPDEST PUSH2 0x1732 DUP1 PUSH3 0x9D0 PUSH1 0x0 CODECOPY PUSH1 0x0 RETURN INVALID PUSH1 0x80 PUSH1 0x40 MSTORE CALLVALUE DUP1 ISZERO PUSH2 0x10 JUMPI PUSH1 0x0 DUP1 REVERT JUMPDEST POP PUSH1 0x4 CALLDATASIZE LT PUSH2 0x93 JUMPI PUSH1 0x0 CALLDATALOAD PUSH1 0xE0 SHR DUP1 PUSH4 0x96FC8ABD GT PUSH2 0x66 JUMPI DUP1 PUSH4 0x96FC8ABD EQ PUSH2 0x11E JUMPI DUP1 PUSH4 0xA157A10D EQ PUSH2 0x14E JUMPI DUP1 PUSH4 0xA2157227 EQ PUSH2 0x16A JUMPI DUP1 PUSH4 0xBDF9A726 EQ PUSH2 0x186 JUMPI DUP1 PUSH4 0xCC1D4CAB EQ PUSH2 0x1A2 JUMPI PUSH2 0x93 JUMP JUMPDEST DUP1 PUSH4 0x1C47671B EQ PUSH2 0x98 JUMPI DUP1 PUSH4 0x495A9825 EQ PUSH2 0xB4 JUMPI DUP1 PUSH4 0x58849734 EQ PUSH2 0xE4 JUMPI DUP1 PUSH4 0x7E8C7F08 EQ PUSH2 0x100 JUMPI JUMPDEST PUSH1 0x0 DUP1 REVERT JUMPDEST PUSH2 0xB2 PUSH1 0x4 DUP1 CALLDATASIZE SUB DUP2 ADD SWAP1 PUSH2 0xAD SWAP2 SWAP1 PUSH2 0x1118 JUMP JUMPDEST PUSH2 0x1D2 JUMP JUMPDEST STOP JUMPDEST PUSH2 0xCE PUSH1 0x4 DUP1 CALLDATASIZE SUB DUP2 ADD SWAP1 PUSH2 0xC9 SWAP2 SWAP1 PUSH2 0x1186 JUMP JUMPDEST PUSH2 0x37B JUMP JUMPDEST PUSH1 0x40 MLOAD PUSH2 0xDB SWAP2 SWAP1 PUSH2 0x1403 JUMP JUMPDEST PUSH1 0x40 MLOAD DUP1 SWAP2 SUB SWAP1 RETURN JUMPDEST PUSH2 0xFE PUSH1 0x4 DUP1 CALLDATASIZE SUB DUP2 ADD SWAP1 PUSH2 0xF9 SWAP2 SWAP1 PUSH2 0x11AF JUMP JUMPDEST PUSH2 0x463 JUMP JUMPDEST STOP JUMPDEST PUSH2 0x108 PUSH2 0x524 JUMP JUMPDEST PUSH1 0x40 MLOAD PUSH2 0x115 SWAP2 SWAP1 PUSH2 0x141E JUMP JUMPDEST PUSH1 0x40 MLOAD DUP1 SWAP2 SUB SWAP1 RETURN JUMPDEST PUSH2 0x138 PUSH1 0x4 DUP1 CALLDATASIZE SUB DUP2 ADD SWAP1 PUSH2 0x133 SWAP2 SWAP1 PUSH2 0x11AF JUMP JUMPDEST PUSH2 0x54A JUMP JUMPDEST PUSH1 0x40 MLOAD PUSH2 0x145 SWAP2 SWAP1 PUSH2 0x13E8 JUMP JUMPDEST PUSH1 0x40 MLOAD DUP1 SWAP2 SUB SWAP1 RETURN JUMPDEST PUSH2 0x168 PUSH1 0x4 DUP1 CALLDATASIZE SUB DUP2 ADD SWAP1 PUSH2 0x163 SWAP2 SWAP1 PUSH2 0x11AF JUMP JUMPDEST PUSH2 0x58C JUMP JUMPDEST STOP JUMPDEST PUSH2 0x184 PUSH1 0x4 DUP1 CALLDATASIZE SUB DUP2 ADD SWAP1 PUSH2 0x17F SWAP2 SWAP1 PUSH2 0x11EB JUMP JUMPDEST PUSH2 0x64D JUMP JUMPDEST STOP JUMPDEST PUSH2 0x1A0 PUSH1 0x4 DUP1 CALLDATASIZE SUB DUP2 ADD SWAP1 PUSH2 0x19B SWAP2 SWAP1 PUSH2 0x1186 JUMP JUMPDEST PUSH2 0x710 JUMP JUMPDEST STOP JUMPDEST PUSH2 0x1BC PUSH1 0x4 DUP1 CALLDATASIZE SUB DUP2 ADD SWAP1 PUSH2 0x1B7 SWAP2 SWAP1 PUSH2 0x123A JUMP JUMPDEST PUSH2 0x7CF JUMP JUMPDEST PUSH1 0x40 MLOAD PUSH2 0x1C9 SWAP2 SWAP1 PUSH2 0x14F2 JUMP JUMPDEST PUSH1 0x40 MLOAD DUP1 SWAP2 SUB SWAP1 RETURN JUMPDEST PUSH4 0x1C47671B PUSH1 0xE0 SHL PUSH4 0xBDF9A726 PUSH1 0xE0 SHL PUSH4 0x58849734 PUSH1 0xE0 SHL PUSH4 0xA157A10D PUSH1 0xE0 SHL XOR XOR XOR PUSH2 0x245 DUP2 CALLER PUSH1 0x0 CALLDATASIZE DUP1 DUP1 PUSH1 0x1F ADD PUSH1 0x20 DUP1 SWAP2 DIV MUL PUSH1 0x20 ADD PUSH1 0x40 MLOAD SWAP1 DUP2 ADD PUSH1 0x40 MSTORE DUP1 SWAP4 SWAP3 SWAP2 SWAP1 DUP2 DUP2 MSTORE PUSH1 0x20 ADD DUP4 DUP4 DUP1 DUP3 DUP5 CALLDATACOPY PUSH1 0x0 DUP2 DUP5 ADD MSTORE PUSH1 0x1F NOT PUSH1 0x1F DUP3 ADD AND SWAP1 POP DUP1 DUP4 ADD SWAP3 POP POP POP POP POP POP POP PUSH2 0x7FD JUMP JUMPDEST PUSH2 0x284 JUMPI PUSH1 0x40 MLOAD PUSH32 0x8C379A000000000000000000000000000000000000000000000000000000000 DUP2 MSTORE PUSH1 0x4 ADD PUSH2 0x27B SWAP1 PUSH2 0x1492 JUMP JUMPDEST PUSH1 0x40 MLOAD DUP1 SWAP2 SUB SWAP1 REVERT JUMPDEST PUSH1 0x0 DUP1 SWAP1 POP JUMPDEST DUP4 DUP4 SWAP1 POP DUP2 LT ISZERO PUSH2 0x375 JUMPI PUSH2 0x29D PUSH2 0xF50 JUMP JUMPDEST DUP5 DUP5 DUP4 DUP2 DUP2 LT PUSH2 0x2A9 JUMPI INVALID JUMPDEST SWAP1 POP PUSH1 0x60 MUL ADD DUP1 CALLDATASIZE SUB DUP2 ADD SWAP1 PUSH2 0x2BF SWAP2 SWAP1 PUSH2 0x127B JUMP JUMPDEST SWAP1 POP PUSH1 0x0 PUSH1 0x2 DUP2 GT ISZERO PUSH2 0x2CE JUMPI INVALID JUMPDEST DUP2 PUSH1 0x0 ADD MLOAD PUSH1 0x2 DUP2 GT ISZERO PUSH2 0x2DE JUMPI INVALID JUMPDEST EQ ISZERO PUSH2 0x2FB JUMPI PUSH2 0x2F6 DUP2 PUSH1 0x20 ADD MLOAD DUP3 PUSH1 0x40 ADD MLOAD PUSH2 0x845 JUMP JUMPDEST PUSH2 0x367 JUMP JUMPDEST PUSH1 0x1 PUSH1 0x2 DUP2 GT ISZERO PUSH2 0x308 JUMPI INVALID JUMPDEST DUP2 PUSH1 0x0 ADD MLOAD PUSH1 0x2 DUP2 GT ISZERO PUSH2 0x318 JUMPI INVALID JUMPDEST EQ ISZERO PUSH2 0x335 JUMPI PUSH2 0x330 DUP2 PUSH1 0x20 ADD MLOAD DUP3 PUSH1 0x40 ADD MLOAD PUSH2 0x855 JUMP JUMPDEST PUSH2 0x366 JUMP JUMPDEST PUSH1 0x2 DUP1 DUP2 GT ISZERO PUSH2 0x341 JUMPI INVALID JUMPDEST DUP2 PUSH1 0x0 ADD MLOAD PUSH1 0x2 DUP2 GT ISZERO PUSH2 0x351 JUMPI INVALID JUMPDEST EQ ISZERO PUSH2 0x365 JUMPI PUSH2 0x364 DUP2 PUSH1 0x20 ADD MLOAD PUSH2 0x9EA JUMP JUMPDEST JUMPDEST JUMPDEST JUMPDEST POP DUP1 DUP1 PUSH1 0x1 ADD SWAP2 POP POP PUSH2 0x28A JUMP JUMPDEST POP POP POP POP JUMP JUMPDEST PUSH1 0x0 PUSH1 0x1 PUSH20 0xFFFFFFFFFFFFFFFFFFFFFFFFFFFFFFFFFFFFFFFF AND PUSH1 0x1 PUSH1 0x0 DUP5 PUSH28 0xFFFFFFFFFFFFFFFFFFFFFFFFFFFFFFFFFFFFFFFFFFFFFFFFFFFFFFFF NOT AND PUSH28 0xFFFFFFFFFFFFFFFFFFFFFFFFFFFFFFFFFFFFFFFFFFFFFFFFFFFFFFFF NOT AND DUP2 MSTORE PUSH1 0x20 ADD SWAP1 DUP2 MSTORE PUSH1 0x20 ADD PUSH1 0x0 KECCAK256 PUSH1 0x0 PUSH1 0x1 PUSH20 0xFFFFFFFFFFFFFFFFFFFFFFFFFFFFFFFFFFFFFFFF AND PUSH20 0xFFFFFFFFFFFFFFFFFFFFFFFFFFFFFFFFFFFFFFFF AND DUP2 MSTORE PUSH1 0x20 ADD SWAP1 DUP2 MSTORE PUSH1 0x20 ADD PUSH1 0x0 KECCAK256 PUSH1 0x0 SWAP1 SLOAD SWAP1 PUSH2 0x100 EXP SWAP1 DIV PUSH20 0xFFFFFFFFFFFFFFFFFFFFFFFFFFFFFFFFFFFFFFFF AND PUSH20 0xFFFFFFFFFFFFFFFFFFFFFFFFFFFFFFFFFFFFFFFF AND EQ SWAP1 POP SWAP2 SWAP1 POP JUMP JUMPDEST PUSH4 0x1C47671B PUSH1 0xE0 SHL PUSH4 0xBDF9A726 PUSH1 0xE0 SHL PUSH4 0x58849734 PUSH1 0xE0 SHL PUSH4 0xA157A10D PUSH1 0xE0 SHL XOR XOR XOR PUSH2 0x4D6 DUP2 CALLER PUSH1 0x0 CALLDATASIZE DUP1 DUP1 PUSH1 0x1F ADD PUSH1 0x20 DUP1 SWAP2 DIV MUL PUSH1 0x20 ADD PUSH1 0x40 MLOAD SWAP1 DUP2 ADD PUSH1 0x40 MSTORE DUP1 SWAP4 SWAP3 SWAP2 SWAP1 DUP2 DUP2 MSTORE PUSH1 0x20 ADD DUP4 DUP4 DUP1 DUP3 DUP5 CALLDATACOPY PUSH1 0x0 DUP2 DUP5 ADD MSTORE PUSH1 0x1F NOT PUSH1 0x1F DUP3 ADD AND SWAP1 POP DUP1 DUP4 ADD SWAP3 POP POP POP POP POP POP POP PUSH2 0x7FD JUMP JUMPDEST PUSH2 0x515 JUMPI PUSH1 0x40 MLOAD PUSH32 0x8C379A000000000000000000000000000000000000000000000000000000000 DUP2 MSTORE PUSH1 0x4 ADD PUSH2 0x50C SWAP1 PUSH2 0x1492 JUMP JUMPDEST PUSH1 0x40 MLOAD DUP1 SWAP2 SUB SWAP1 REVERT JUMPDEST PUSH2 0x51F DUP4 DUP4 PUSH2 0x855 JUMP JUMPDEST POP POP POP JUMP JUMPDEST PUSH4 0x1C47671B PUSH1 0xE0 SHL PUSH4 0xBDF9A726 PUSH1 0xE0 SHL PUSH4 0x58849734 PUSH1 0xE0 SHL PUSH4 0xA157A10D PUSH1 0xE0 SHL XOR XOR XOR DUP2 JUMP JUMPDEST PUSH1 0x1 PUSH1 0x20 MSTORE DUP2 PUSH1 0x0 MSTORE PUSH1 0x40 PUSH1 0x0 KECCAK256 PUSH1 0x20 MSTORE DUP1 PUSH1 0x0 MSTORE PUSH1 0x40 PUSH1 0x0 KECCAK256 PUSH1 0x0 SWAP2 POP SWAP2 POP SWAP1 SLOAD SWAP1 PUSH2 0x100 EXP SWAP1 DIV PUSH20 0xFFFFFFFFFFFFFFFFFFFFFFFFFFFFFFFFFFFFFFFF AND DUP2 JUMP JUMPDEST PUSH4 0x1C47671B PUSH1 0xE0 SHL PUSH4 0xBDF9A726 PUSH1 0xE0 SHL PUSH4 0x58849734 PUSH1 0xE0 SHL PUSH4 0xA157A10D PUSH1 0xE0 SHL XOR XOR XOR PUSH2 0x5FF DUP2 CALLER PUSH1 0x0 CALLDATASIZE DUP1 DUP1 PUSH1 0x1F ADD PUSH1 0x20 DUP1 SWAP2 DIV MUL PUSH1 0x20 ADD PUSH1 0x40 MLOAD SWAP1 DUP2 ADD PUSH1 0x40 MSTORE DUP1 SWAP4 SWAP3 SWAP2 SWAP1 DUP2 DUP2 MSTORE PUSH1 0x20 ADD DUP4 DUP4 DUP1 DUP3 DUP5 CALLDATACOPY PUSH1 0x0 DUP2 DUP5 ADD MSTORE PUSH1 0x1F NOT PUSH1 0x1F DUP3 ADD AND SWAP1 POP DUP1 DUP4 ADD SWAP3 POP POP POP POP POP POP POP PUSH2 0x7FD JUMP JUMPDEST PUSH2 0x63E JUMPI PUSH1 0x40 MLOAD PUSH32 0x8C379A000000000000000000000000000000000000000000000000000000000 DUP2 MSTORE PUSH1 0x4 ADD PUSH2 0x635 SWAP1 PUSH2 0x1492 JUMP JUMPDEST PUSH1 0x40 MLOAD DUP1 SWAP2 SUB SWAP1 REVERT JUMPDEST PUSH2 0x648 DUP4 DUP4 PUSH2 0x845 JUMP JUMPDEST POP POP POP JUMP JUMPDEST PUSH4 0x1C47671B PUSH1 0xE0 SHL PUSH4 0xBDF9A726 PUSH1 0xE0 SHL PUSH4 0x58849734 PUSH1 0xE0 SHL PUSH4 0xA157A10D PUSH1 0xE0 SHL XOR XOR XOR PUSH2 0x6C0 DUP2 CALLER PUSH1 0x0 CALLDATASIZE DUP1 DUP1 PUSH1 0x1F ADD PUSH1 0x20 DUP1 SWAP2 DIV MUL PUSH1 0x20 ADD PUSH1 0x40 MLOAD SWAP1 DUP2 ADD PUSH1 0x40 MSTORE DUP1 SWAP4 SWAP3 SWAP2 SWAP1 DUP2 DUP2 MSTORE PUSH1 0x20 ADD DUP4 DUP4 DUP1 DUP3 DUP5 CALLDATACOPY PUSH1 0x0 DUP2 DUP5 ADD MSTORE PUSH1 0x1F NOT PUSH1 0x1F DUP3 ADD AND SWAP1 POP DUP1 DUP4 ADD SWAP3 POP POP POP POP POP POP POP PUSH2 0x7FD JUMP JUMPDEST PUSH2 0x6FF JUMPI PUSH1 0x40 MLOAD PUSH32 0x8C379A000000000000000000000000000000000000000000000000000000000 DUP2 MSTORE PUSH1 0x4 ADD PUSH2 0x6F6 SWAP1 PUSH2 0x1492 JUMP JUMPDEST PUSH1 0x40 MLOAD DUP1 SWAP2 SUB SWAP1 REVERT JUMPDEST PUSH2 0x70A DUP5 DUP5 DUP5 PUSH2 0xB67 JUMP JUMPDEST POP POP POP POP JUMP JUMPDEST PUSH4 0x1C47671B PUSH1 0xE0 SHL PUSH4 0xBDF9A726 PUSH1 0xE0 SHL PUSH4 0x58849734 PUSH1 0xE0 SHL PUSH4 0xA157A10D PUSH1 0xE0 SHL XOR XOR XOR PUSH2 0x783 DUP2 CALLER PUSH1 0x0 CALLDATASIZE DUP1 DUP1 PUSH1 0x1F ADD PUSH1 0x20 DUP1 SWAP2 DIV MUL PUSH1 0x20 ADD PUSH1 0x40 MLOAD SWAP1 DUP2 ADD PUSH1 0x40 MSTORE DUP1 SWAP4 SWAP3 SWAP2 SWAP1 DUP2 DUP2 MSTORE PUSH1 0x20 ADD DUP4 DUP4 DUP1 DUP3 DUP5 CALLDATACOPY PUSH1 0x0 DUP2 DUP5 ADD MSTORE PUSH1 0x1F NOT PUSH1 0x1F DUP3 ADD AND SWAP1 POP DUP1 DUP4 ADD SWAP3 POP POP POP POP POP POP POP PUSH2 0x7FD JUMP JUMPDEST PUSH2 0x7C2 JUMPI PUSH1 0x40 MLOAD PUSH32 0x8C379A000000000000000000000000000000000000000000000000000000000 DUP2 MSTORE PUSH1 0x4 ADD PUSH2 0x7B9 SWAP1 PUSH2 0x1492 JUMP JUMPDEST PUSH1 0x40 MLOAD DUP1 SWAP2 SUB SWAP1 REVERT JUMPDEST PUSH2 0x7CB DUP3 PUSH2 0x9EA JUMP JUMPDEST POP POP JUMP JUMPDEST PUSH1 0x0 DUP2 DUP1 MLOAD PUSH1 0x20 DUP2 ADD DUP3 ADD DUP1 MLOAD DUP5 DUP3 MSTORE PUSH1 0x20 DUP4 ADD PUSH1 0x20 DUP6 ADD KECCAK256 DUP2 DUP4 MSTORE DUP1 SWAP6 POP POP POP POP POP POP PUSH1 0x0 SWAP2 POP SWAP1 POP SLOAD DUP2 JUMP JUMPDEST PUSH1 0x0 PUSH2 0x80A DUP5 DUP5 DUP5 PUSH2 0xD77 JUMP JUMPDEST DUP1 PUSH2 0x83C JUMPI POP PUSH2 0x83B DUP5 PUSH32 0xFFFFFFFFFFFFFFFFFFFFFFFFFFFFFFFFFFFFFFFFFFFFFFFFFFFFFFFFFFFFFFFF DUP5 PUSH2 0xD77 JUMP JUMPDEST JUMPDEST SWAP1 POP SWAP4 SWAP3 POP POP POP JUMP JUMPDEST PUSH2 0x851 DUP3 DUP3 PUSH1 0x2 PUSH2 0xB67 JUMP JUMPDEST POP POP JUMP JUMPDEST PUSH2 0x85E DUP3 PUSH2 0x37B JUMP JUMPDEST ISZERO PUSH2 0x89E JUMPI PUSH1 0x40 MLOAD PUSH32 0x8C379A000000000000000000000000000000000000000000000000000000000 DUP2 MSTORE PUSH1 0x4 ADD PUSH2 0x895 SWAP1 PUSH2 0x14B2 JUMP JUMPDEST PUSH1 0x40 MLOAD DUP1 SWAP2 SUB SWAP1 REVERT JUMPDEST PUSH1 0x0 PUSH1 0x1 PUSH1 0x0 DUP5 PUSH28 0xFFFFFFFFFFFFFFFFFFFFFFFFFFFFFFFFFFFFFFFFFFFFFFFFFFFFFFFF NOT AND PUSH28 0xFFFFFFFFFFFFFFFFFFFFFFFFFFFFFFFFFFFFFFFFFFFFFFFFFFFFFFFF NOT AND DUP2 MSTORE PUSH1 0x20 ADD SWAP1 DUP2 MSTORE PUSH1 0x20 ADD PUSH1 0x0 KECCAK256 PUSH1 0x0 DUP4 PUSH20 0xFFFFFFFFFFFFFFFFFFFFFFFFFFFFFFFFFFFFFFFF AND PUSH20 0xFFFFFFFFFFFFFFFFFFFFFFFFFFFFFFFFFFFFFFFF AND DUP2 MSTORE PUSH1 0x20 ADD SWAP1 DUP2 MSTORE PUSH1 0x20 ADD PUSH1 0x0 KECCAK256 PUSH1 0x0 PUSH2 0x100 EXP DUP2 SLOAD DUP2 PUSH20 0xFFFFFFFFFFFFFFFFFFFFFFFFFFFFFFFFFFFFFFFF MUL NOT AND SWAP1 DUP4 PUSH20 0xFFFFFFFFFFFFFFFFFFFFFFFFFFFFFFFFFFFFFFFF AND MUL OR SWAP1 SSTORE POP DUP1 PUSH20 0xFFFFFFFFFFFFFFFFFFFFFFFFFFFFFFFFFFFFFFFF AND CALLER PUSH20 0xFFFFFFFFFFFFFFFFFFFFFFFFFFFFFFFFFFFFFFFF AND DUP4 PUSH28 0xFFFFFFFFFFFFFFFFFFFFFFFFFFFFFFFFFFFFFFFFFFFFFFFFFFFFFFFF NOT AND PUSH32 0x682F2C466C1E9F6883EB72CBCED01373E1CB18B05AE5C8BC04DC73D73E29F8CD PUSH1 0x40 MLOAD PUSH1 0x40 MLOAD DUP1 SWAP2 SUB SWAP1 LOG4 POP POP JUMP JUMPDEST PUSH2 0x9F3 DUP2 PUSH2 0x37B JUMP JUMPDEST ISZERO PUSH2 0xA33 JUMPI PUSH1 0x40 MLOAD PUSH32 0x8C379A000000000000000000000000000000000000000000000000000000000 DUP2 MSTORE PUSH1 0x4 ADD PUSH2 0xA2A SWAP1 PUSH2 0x14B2 JUMP JUMPDEST PUSH1 0x40 MLOAD DUP1 SWAP2 SUB SWAP1 REVERT JUMPDEST PUSH1 0x1 DUP1 PUSH1 0x0 DUP4 PUSH28 0xFFFFFFFFFFFFFFFFFFFFFFFFFFFFFFFFFFFFFFFFFFFFFFFFFFFFFFFF NOT AND PUSH28 0xFFFFFFFFFFFFFFFFFFFFFFFFFFFFFFFFFFFFFFFFFFFFFFFFFFFFFFFF NOT AND DUP2 MSTORE PUSH1 0x20 ADD SWAP1 DUP2 MSTORE PUSH1 0x20 ADD PUSH1 0x0 KECCAK256 PUSH1 0x0 PUSH1 0x1 PUSH20 0xFFFFFFFFFFFFFFFFFFFFFFFFFFFFFFFFFFFFFFFF AND PUSH20 0xFFFFFFFFFFFFFFFFFFFFFFFFFFFFFFFFFFFFFFFF AND DUP2 MSTORE PUSH1 0x20 ADD SWAP1 DUP2 MSTORE PUSH1 0x20 ADD PUSH1 0x0 KECCAK256 PUSH1 0x0 PUSH2 0x100 EXP DUP2 SLOAD DUP2 PUSH20 0xFFFFFFFFFFFFFFFFFFFFFFFFFFFFFFFFFFFFFFFF MUL NOT AND SWAP1 DUP4 PUSH20 0xFFFFFFFFFFFFFFFFFFFFFFFFFFFFFFFFFFFFFFFF AND MUL OR SWAP1 SSTORE POP CALLER PUSH20 0xFFFFFFFFFFFFFFFFFFFFFFFFFFFFFFFFFFFFFFFF AND DUP2 PUSH28 0xFFFFFFFFFFFFFFFFFFFFFFFFFFFFFFFFFFFFFFFFFFFFFFFFFFFFFFFF NOT AND PUSH32 0x49C6B8B07A879425742523FA80F8FFB25E39AD518C93A5896A0DF19518397E5 PUSH1 0x40 MLOAD PUSH1 0x40 MLOAD DUP1 SWAP2 SUB SWAP1 LOG3 POP JUMP JUMPDEST PUSH2 0xB70 DUP4 PUSH2 0x37B JUMP JUMPDEST ISZERO PUSH2 0xBB0 JUMPI PUSH1 0x40 MLOAD PUSH32 0x8C379A000000000000000000000000000000000000000000000000000000000 DUP2 MSTORE PUSH1 0x4 ADD PUSH2 0xBA7 SWAP1 PUSH2 0x14B2 JUMP JUMPDEST PUSH1 0x40 MLOAD DUP1 SWAP2 SUB SWAP1 REVERT JUMPDEST PUSH1 0x1 PUSH20 0xFFFFFFFFFFFFFFFFFFFFFFFFFFFFFFFFFFFFFFFF AND DUP3 PUSH20 0xFFFFFFFFFFFFFFFFFFFFFFFFFFFFFFFFFFFFFFFF AND EQ ISZERO PUSH2 0xC20 JUMPI PUSH1 0x40 MLOAD PUSH32 0x8C379A000000000000000000000000000000000000000000000000000000000 DUP2 MSTORE PUSH1 0x4 ADD PUSH2 0xC17 SWAP1 PUSH2 0x14D2 JUMP JUMPDEST PUSH1 0x40 MLOAD DUP1 SWAP2 SUB SWAP1 REVERT JUMPDEST DUP1 PUSH1 0x1 PUSH1 0x0 DUP6 PUSH28 0xFFFFFFFFFFFFFFFFFFFFFFFFFFFFFFFFFFFFFFFFFFFFFFFFFFFFFFFF NOT AND PUSH28 0xFFFFFFFFFFFFFFFFFFFFFFFFFFFFFFFFFFFFFFFFFFFFFFFFFFFFFFFF NOT AND DUP2 MSTORE PUSH1 0x20 ADD SWAP1 DUP2 MSTORE PUSH1 0x20 ADD PUSH1 0x0 KECCAK256 PUSH1 0x0 DUP5 PUSH20 0xFFFFFFFFFFFFFFFFFFFFFFFFFFFFFFFFFFFFFFFF AND PUSH20 0xFFFFFFFFFFFFFFFFFFFFFFFFFFFFFFFFFFFFFFFF AND DUP2 MSTORE PUSH1 0x20 ADD SWAP1 DUP2 MSTORE PUSH1 0x20 ADD PUSH1 0x0 KECCAK256 PUSH1 0x0 PUSH2 0x100 EXP DUP2 SLOAD DUP2 PUSH20 0xFFFFFFFFFFFFFFFFFFFFFFFFFFFFFFFFFFFFFFFF MUL NOT AND SWAP1 DUP4 PUSH20 0xFFFFFFFFFFFFFFFFFFFFFFFFFFFFFFFFFFFFFFFF AND MUL OR SWAP1 SSTORE POP DUP2 PUSH20 0xFFFFFFFFFFFFFFFFFFFFFFFFFFFFFFFFFFFFFFFF AND CALLER PUSH20 0xFFFFFFFFFFFFFFFFFFFFFFFFFFFFFFFFFFFFFFFF AND DUP5 PUSH28 0xFFFFFFFFFFFFFFFFFFFFFFFFFFFFFFFFFFFFFFFFFFFFFFFFFFFFFFFF NOT AND PUSH32 0xC62063B81F7036FD97A0DC546516E99F11004D2D76CA0FDDD3866346C86E7091 DUP5 PUSH1 0x40 MLOAD PUSH2 0xD6A SWAP2 SWAP1 PUSH2 0x1477 JUMP JUMPDEST PUSH1 0x40 MLOAD DUP1 SWAP2 SUB SWAP1 LOG4 POP POP POP JUMP JUMPDEST PUSH1 0x0 DUP1 PUSH1 0x1 PUSH1 0x0 DUP7 PUSH28 0xFFFFFFFFFFFFFFFFFFFFFFFFFFFFFFFFFFFFFFFFFFFFFFFFFFFFFFFF NOT AND PUSH28 0xFFFFFFFFFFFFFFFFFFFFFFFFFFFFFFFFFFFFFFFFFFFFFFFFFFFFFFFF NOT AND DUP2 MSTORE PUSH1 0x20 ADD SWAP1 DUP2 MSTORE PUSH1 0x20 ADD PUSH1 0x0 KECCAK256 PUSH1 0x0 DUP6 PUSH20 0xFFFFFFFFFFFFFFFFFFFFFFFFFFFFFFFFFFFFFFFF AND PUSH20 0xFFFFFFFFFFFFFFFFFFFFFFFFFFFFFFFFFFFFFFFF AND DUP2 MSTORE PUSH1 0x20 ADD SWAP1 DUP2 MSTORE PUSH1 0x20 ADD PUSH1 0x0 KECCAK256 PUSH1 0x0 SWAP1 SLOAD SWAP1 PUSH2 0x100 EXP SWAP1 DIV PUSH20 0xFFFFFFFFFFFFFFFFFFFFFFFFFFFFFFFFFFFFFFFF AND SWAP1 POP PUSH1 0x0 PUSH20 0xFFFFFFFFFFFFFFFFFFFFFFFFFFFFFFFFFFFFFFFF AND DUP2 PUSH20 0xFFFFFFFFFFFFFFFFFFFFFFFFFFFFFFFFFFFFFFFF AND EQ PUSH2 0xF43 JUMPI PUSH1 0x2 PUSH20 0xFFFFFFFFFFFFFFFFFFFFFFFFFFFFFFFFFFFFFFFF AND DUP2 PUSH20 0xFFFFFFFFFFFFFFFFFFFFFFFFFFFFFFFFFFFFFFFF AND EQ ISZERO PUSH2 0xE9E JUMPI PUSH1 0x1 SWAP2 POP POP PUSH2 0xF49 JUMP JUMPDEST DUP1 PUSH20 0xFFFFFFFFFFFFFFFFFFFFFFFFFFFFFFFFFFFFFFFF AND PUSH4 0x97C8108 DUP7 DUP7 DUP7 PUSH1 0x40 MLOAD DUP5 PUSH4 0xFFFFFFFF AND PUSH1 0xE0 SHL DUP2 MSTORE PUSH1 0x4 ADD PUSH2 0xEDB SWAP4 SWAP3 SWAP2 SWAP1 PUSH2 0x1439 JUMP JUMPDEST PUSH1 0x20 PUSH1 0x40 MLOAD DUP1 DUP4 SUB DUP2 PUSH1 0x0 DUP8 DUP1 EXTCODESIZE ISZERO DUP1 ISZERO PUSH2 0xEF5 JUMPI PUSH1 0x0 DUP1 REVERT JUMPDEST POP GAS CALL SWAP3 POP POP POP DUP1 ISZERO PUSH2 0xF26 JUMPI POP PUSH1 0x40 MLOAD RETURNDATASIZE PUSH1 0x1F NOT PUSH1 0x1F DUP3 ADD AND DUP3 ADD DUP1 PUSH1 0x40 MSTORE POP DUP2 ADD SWAP1 PUSH2 0xF23 SWAP2 SWAP1 PUSH2 0x115D JUMP JUMPDEST PUSH1 0x1 JUMPDEST PUSH2 0xF2F JUMPI PUSH2 0xF42 JUMP JUMPDEST DUP1 ISZERO PUSH2 0xF40 JUMPI PUSH1 0x1 SWAP3 POP POP POP PUSH2 0xF49 JUMP JUMPDEST POP JUMPDEST JUMPDEST PUSH1 0x0 SWAP2 POP POP JUMPDEST SWAP4 SWAP3 POP POP POP JUMP JUMPDEST PUSH1 0x40 MLOAD DUP1 PUSH1 0x60 ADD PUSH1 0x40 MSTORE DUP1 PUSH1 0x0 PUSH1 0x2 DUP2 GT ISZERO PUSH2 0xF68 JUMPI INVALID JUMPDEST DUP2 MSTORE PUSH1 0x20 ADD PUSH1 0x0 PUSH28 0xFFFFFFFFFFFFFFFFFFFFFFFFFFFFFFFFFFFFFFFFFFFFFFFFFFFFFFFF NOT AND DUP2 MSTORE PUSH1 0x20 ADD PUSH1 0x0 PUSH20 0xFFFFFFFFFFFFFFFFFFFFFFFFFFFFFFFFFFFFFFFF AND DUP2 MSTORE POP SWAP1 JUMP JUMPDEST PUSH1 0x0 DUP2 CALLDATALOAD SWAP1 POP PUSH2 0xFC0 DUP2 PUSH2 0x1690 JUMP JUMPDEST SWAP3 SWAP2 POP POP JUMP JUMPDEST PUSH1 0x0 DUP1 DUP4 PUSH1 0x1F DUP5 ADD SLT PUSH2 0xFD8 JUMPI PUSH1 0x0 DUP1 REVERT JUMPDEST DUP3 CALLDATALOAD SWAP1 POP PUSH8 0xFFFFFFFFFFFFFFFF DUP2 GT ISZERO PUSH2 0xFF1 JUMPI PUSH1 0x0 DUP1 REVERT JUMPDEST PUSH1 0x20 DUP4 ADD SWAP2 POP DUP4 PUSH1 0x60 DUP3 MUL DUP4 ADD GT ISZERO PUSH2 0x1009 JUMPI PUSH1 0x0 DUP1 REVERT JUMPDEST SWAP3 POP SWAP3 SWAP1 POP JUMP JUMPDEST PUSH1 0x0 DUP2 MLOAD SWAP1 POP PUSH2 0x101F DUP2 PUSH2 0x16A7 JUMP JUMPDEST SWAP3 SWAP2 POP POP JUMP JUMPDEST PUSH1 0x0 DUP2 CALLDATALOAD SWAP1 POP PUSH2 0x1034 DUP2 PUSH2 0x16BE JUMP JUMPDEST SWAP3 SWAP2 POP POP JUMP JUMPDEST PUSH1 0x0 DUP2 CALLDATALOAD SWAP1 POP PUSH2 0x1049 DUP2 PUSH2 0x16D5 JUMP JUMPDEST SWAP3 SWAP2 POP POP JUMP JUMPDEST PUSH1 0x0 DUP2 CALLDATALOAD SWAP1 POP PUSH2 0x105E DUP2 PUSH2 0x16EC JUMP JUMPDEST SWAP3 SWAP2 POP POP JUMP JUMPDEST PUSH1 0x0 DUP3 PUSH1 0x1F DUP4 ADD SLT PUSH2 0x1075 JUMPI PUSH1 0x0 DUP1 REVERT JUMPDEST DUP2 CALLDATALOAD PUSH2 0x1088 PUSH2 0x1083 DUP3 PUSH2 0x153A JUMP JUMPDEST PUSH2 0x150D JUMP JUMPDEST SWAP2 POP DUP1 DUP3 MSTORE PUSH1 0x20 DUP4 ADD PUSH1 0x20 DUP4 ADD DUP6 DUP4 DUP4 ADD GT ISZERO PUSH2 0x10A4 JUMPI PUSH1 0x0 DUP1 REVERT JUMPDEST PUSH2 0x10AF DUP4 DUP3 DUP5 PUSH2 0x163D JUMP JUMPDEST POP POP POP SWAP3 SWAP2 POP POP JUMP JUMPDEST PUSH1 0x0 PUSH1 0x60 DUP3 DUP5 SUB SLT ISZERO PUSH2 0x10CA JUMPI PUSH1 0x0 DUP1 REVERT JUMPDEST PUSH2 0x10D4 PUSH1 0x60 PUSH2 0x150D JUMP JUMPDEST SWAP1 POP PUSH1 0x0 PUSH2 0x10E4 DUP5 DUP3 DUP6 ADD PUSH2 0x104F JUMP JUMPDEST PUSH1 0x0 DUP4 ADD MSTORE POP PUSH1 0x20 PUSH2 0x10F8 DUP5 DUP3 DUP6 ADD PUSH2 0x1025 JUMP JUMPDEST PUSH1 0x20 DUP4 ADD MSTORE POP PUSH1 0x40 PUSH2 0x110C DUP5 DUP3 DUP6 ADD PUSH2 0xFB1 JUMP JUMPDEST PUSH1 0x40 DUP4 ADD MSTORE POP SWAP3 SWAP2 POP POP JUMP JUMPDEST PUSH1 0x0 DUP1 PUSH1 0x20 DUP4 DUP6 SUB SLT ISZERO PUSH2 0x112B JUMPI PUSH1 0x0 DUP1 REVERT JUMPDEST PUSH1 0x0 DUP4 ADD CALLDATALOAD PUSH8 0xFFFFFFFFFFFFFFFF DUP2 GT ISZERO PUSH2 0x1145 JUMPI PUSH1 0x0 DUP1 REVERT JUMPDEST PUSH2 0x1151 DUP6 DUP3 DUP7 ADD PUSH2 0xFC6 JUMP JUMPDEST SWAP3 POP SWAP3 POP POP SWAP3 POP SWAP3 SWAP1 POP JUMP JUMPDEST PUSH1 0x0 PUSH1 0x20 DUP3 DUP5 SUB SLT ISZERO PUSH2 0x116F JUMPI PUSH1 0x0 DUP1 REVERT JUMPDEST PUSH1 0x0 PUSH2 0x117D DUP5 DUP3 DUP6 ADD PUSH2 0x1010 JUMP JUMPDEST SWAP2 POP POP SWAP3 SWAP2 POP POP JUMP JUMPDEST PUSH1 0x0 PUSH1 0x20 DUP3 DUP5 SUB SLT ISZERO PUSH2 0x1198 JUMPI PUSH1 0x0 DUP1 REVERT JUMPDEST PUSH1 0x0 PUSH2 0x11A6 DUP5 DUP3 DUP6 ADD PUSH2 0x1025 JUMP JUMPDEST SWAP2 POP POP SWAP3 SWAP2 POP POP JUMP JUMPDEST PUSH1 0x0 DUP1 PUSH1 0x40 DUP4 DUP6 SUB SLT ISZERO PUSH2 0x11C2 JUMPI PUSH1 0x0 DUP1 REVERT JUMPDEST PUSH1 0x0 PUSH2 0x11D0 DUP6 DUP3 DUP7 ADD PUSH2 0x1025 JUMP JUMPDEST SWAP3 POP POP PUSH1 0x20 PUSH2 0x11E1 DUP6 DUP3 DUP7 ADD PUSH2 0xFB1 JUMP JUMPDEST SWAP2 POP POP SWAP3 POP SWAP3 SWAP1 POP JUMP JUMPDEST PUSH1 0x0 DUP1 PUSH1 0x0 PUSH1 0x60 DUP5 DUP7 SUB SLT ISZERO PUSH2 0x1200 JUMPI PUSH1 0x0 DUP1 REVERT JUMPDEST PUSH1 0x0 PUSH2 0x120E DUP7 DUP3 DUP8 ADD PUSH2 0x1025 JUMP JUMPDEST SWAP4 POP POP PUSH1 0x20 PUSH2 0x121F DUP7 DUP3 DUP8 ADD PUSH2 0xFB1 JUMP JUMPDEST SWAP3 POP POP PUSH1 0x40 PUSH2 0x1230 DUP7 DUP3 DUP8 ADD PUSH2 0x103A JUMP JUMPDEST SWAP2 POP POP SWAP3 POP SWAP3 POP SWAP3 JUMP JUMPDEST PUSH1 0x0 PUSH1 0x20 DUP3 DUP5 SUB SLT ISZERO PUSH2 0x124C JUMPI PUSH1 0x0 DUP1 REVERT JUMPDEST PUSH1 0x0 DUP3 ADD CALLDATALOAD PUSH8 0xFFFFFFFFFFFFFFFF DUP2 GT ISZERO PUSH2 0x1266 JUMPI PUSH1 0x0 DUP1 REVERT JUMPDEST PUSH2 0x1272 DUP5 DUP3 DUP6 ADD PUSH2 0x1064 JUMP JUMPDEST SWAP2 POP POP SWAP3 SWAP2 POP POP JUMP JUMPDEST PUSH1 0x0 PUSH1 0x60 DUP3 DUP5 SUB SLT ISZERO PUSH2 0x128D JUMPI PUSH1 0x0 DUP1 REVERT JUMPDEST PUSH1 0x0 PUSH2 0x129B DUP5 DUP3 DUP6 ADD PUSH2 0x10B8 JUMP JUMPDEST SWAP2 POP POP SWAP3 SWAP2 POP POP JUMP JUMPDEST PUSH2 0x12AD DUP2 PUSH2 0x1593 JUMP JUMPDEST DUP3 MSTORE POP POP JUMP JUMPDEST PUSH2 0x12BC DUP2 PUSH2 0x15A5 JUMP JUMPDEST DUP3 MSTORE POP POP JUMP JUMPDEST PUSH2 0x12CB DUP2 PUSH2 0x15B1 JUMP JUMPDEST DUP3 MSTORE POP POP JUMP JUMPDEST PUSH1 0x0 PUSH2 0x12DC DUP3 PUSH2 0x1566 JUMP JUMPDEST PUSH2 0x12E6 DUP2 DUP6 PUSH2 0x1571 JUMP JUMPDEST SWAP4 POP PUSH2 0x12F6 DUP2 DUP6 PUSH1 0x20 DUP7 ADD PUSH2 0x164C JUMP JUMPDEST PUSH2 0x12FF DUP2 PUSH2 0x167F JUMP JUMPDEST DUP5 ADD SWAP2 POP POP SWAP3 SWAP2 POP POP JUMP JUMPDEST PUSH2 0x1313 DUP2 PUSH2 0x1619 JUMP JUMPDEST DUP3 MSTORE POP POP JUMP JUMPDEST PUSH1 0x0 PUSH2 0x1326 PUSH1 0x9 DUP4 PUSH2 0x1582 JUMP JUMPDEST SWAP2 POP PUSH32 0x61636C3A20617574680000000000000000000000000000000000000000000000 PUSH1 0x0 DUP4 ADD MSTORE PUSH1 0x20 DUP3 ADD SWAP1 POP SWAP2 SWAP1 POP JUMP JUMPDEST PUSH1 0x0 PUSH2 0x1366 PUSH1 0xB DUP4 PUSH2 0x1582 JUMP JUMPDEST SWAP2 POP PUSH32 0x61636C3A2066726F7A656E000000000000000000000000000000000000000000 PUSH1 0x0 DUP4 ADD MSTORE PUSH1 0x20 DUP3 ADD SWAP1 POP SWAP2 SWAP1 POP JUMP JUMPDEST PUSH1 0x0 PUSH2 0x13A6 PUSH1 0xF DUP4 PUSH2 0x1582 JUMP JUMPDEST SWAP2 POP PUSH32 0x61636C3A2062616420667265657A650000000000000000000000000000000000 PUSH1 0x0 DUP4 ADD MSTORE PUSH1 0x20 DUP3 ADD SWAP1 POP SWAP2 SWAP1 POP JUMP JUMPDEST PUSH2 0x13E2 DUP2 PUSH2 0x160F JUMP JUMPDEST DUP3 MSTORE POP POP JUMP JUMPDEST PUSH1 0x0 PUSH1 0x20 DUP3 ADD SWAP1 POP PUSH2 0x13FD PUSH1 0x0 DUP4 ADD DUP5 PUSH2 0x12A4 JUMP JUMPDEST SWAP3 SWAP2 POP POP JUMP JUMPDEST PUSH1 0x0 PUSH1 0x20 DUP3 ADD SWAP1 POP PUSH2 0x1418 PUSH1 0x0 DUP4 ADD DUP5 PUSH2 0x12B3 JUMP JUMPDEST SWAP3 SWAP2 POP POP JUMP JUMPDEST PUSH1 0x0 PUSH1 0x20 DUP3 ADD SWAP1 POP PUSH2 0x1433 PUSH1 0x0 DUP4 ADD DUP5 PUSH2 0x12C2 JUMP JUMPDEST SWAP3 SWAP2 POP POP JUMP JUMPDEST PUSH1 0x0 PUSH1 0x60 DUP3 ADD SWAP1 POP PUSH2 0x144E PUSH1 0x0 DUP4 ADD DUP7 PUSH2 0x12C2 JUMP JUMPDEST PUSH2 0x145B PUSH1 0x20 DUP4 ADD DUP6 PUSH2 0x12A4 JUMP JUMPDEST DUP2 DUP2 SUB PUSH1 0x40 DUP4 ADD MSTORE PUSH2 0x146D DUP2 DUP5 PUSH2 0x12D1 JUMP JUMPDEST SWAP1 POP SWAP5 SWAP4 POP POP POP POP JUMP JUMPDEST PUSH1 0x0 PUSH1 0x20 DUP3 ADD SWAP1 POP PUSH2 0x148C PUSH1 0x0 DUP4 ADD DUP5 PUSH2 0x130A JUMP JUMPDEST SWAP3 SWAP2 POP POP JUMP JUMPDEST PUSH1 0x0 PUSH1 0x20 DUP3 ADD SWAP1 POP DUP2 DUP2 SUB PUSH1 0x0 DUP4 ADD MSTORE PUSH2 0x14AB DUP2 PUSH2 0x1319 JUMP JUMPDEST SWAP1 POP SWAP2 SWAP1 POP JUMP JUMPDEST PUSH1 0x0 PUSH1 0x20 DUP3 ADD SWAP1 POP DUP2 DUP2 SUB PUSH1 0x0 DUP4 ADD MSTORE PUSH2 0x14CB DUP2 PUSH2 0x1359 JUMP JUMPDEST SWAP1 POP SWAP2 SWAP1 POP JUMP JUMPDEST PUSH1 0x0 PUSH1 0x20 DUP3 ADD SWAP1 POP DUP2 DUP2 SUB PUSH1 0x0 DUP4 ADD MSTORE PUSH2 0x14EB DUP2 PUSH2 0x1399 JUMP JUMPDEST SWAP1 POP SWAP2 SWAP1 POP JUMP JUMPDEST PUSH1 0x0 PUSH1 0x20 DUP3 ADD SWAP1 POP PUSH2 0x1507 PUSH1 0x0 DUP4 ADD DUP5 PUSH2 0x13D9 JUMP JUMPDEST SWAP3 SWAP2 POP POP JUMP JUMPDEST PUSH1 0x0 PUSH1 0x40 MLOAD SWAP1 POP DUP2 DUP2 ADD DUP2 DUP2 LT PUSH8 0xFFFFFFFFFFFFFFFF DUP3 GT OR ISZERO PUSH2 0x1530 JUMPI PUSH1 0x0 DUP1 REVERT JUMPDEST DUP1 PUSH1 0x40 MSTORE POP SWAP2 SWAP1 POP JUMP JUMPDEST PUSH1 0x0 PUSH8 0xFFFFFFFFFFFFFFFF DUP3 GT ISZERO PUSH2 0x1551 JUMPI PUSH1 0x0 DUP1 REVERT JUMPDEST PUSH1 0x1F NOT PUSH1 0x1F DUP4 ADD AND SWAP1 POP PUSH1 0x20 DUP2 ADD SWAP1 POP SWAP2 SWAP1 POP JUMP JUMPDEST PUSH1 0x0 DUP2 MLOAD SWAP1 POP SWAP2 SWAP1 POP JUMP JUMPDEST PUSH1 0x0 DUP3 DUP3 MSTORE PUSH1 0x20 DUP3 ADD SWAP1 POP SWAP3 SWAP2 POP POP JUMP JUMPDEST PUSH1 0x0 DUP3 DUP3 MSTORE PUSH1 0x20 DUP3 ADD SWAP1 POP SWAP3 SWAP2 POP POP JUMP JUMPDEST PUSH1 0x0 PUSH2 0x159E DUP3 PUSH2 0x15EF JUMP JUMPDEST SWAP1 POP SWAP2 SWAP1 POP JUMP JUMPDEST PUSH1 0x0 DUP2 ISZERO ISZERO SWAP1 POP SWAP2 SWAP1 POP JUMP JUMPDEST PUSH1 0x0 PUSH32 0xFFFFFFFF00000000000000000000000000000000000000000000000000000000 DUP3 AND SWAP1 POP SWAP2 SWAP1 POP JUMP JUMPDEST PUSH1 0x0 PUSH2 0x15E8 DUP3 PUSH2 0x1593 JUMP JUMPDEST SWAP1 POP SWAP2 SWAP1 POP JUMP JUMPDEST PUSH1 0x0 PUSH20 0xFFFFFFFFFFFFFFFFFFFFFFFFFFFFFFFFFFFFFFFF DUP3 AND SWAP1 POP SWAP2 SWAP1 POP JUMP JUMPDEST PUSH1 0x0 DUP2 SWAP1 POP SWAP2 SWAP1 POP JUMP JUMPDEST PUSH1 0x0 PUSH2 0x1624 DUP3 PUSH2 0x162B JUMP JUMPDEST SWAP1 POP SWAP2 SWAP1 POP JUMP JUMPDEST PUSH1 0x0 PUSH2 0x1636 DUP3 PUSH2 0x15EF JUMP JUMPDEST SWAP1 POP SWAP2 SWAP1 POP JUMP JUMPDEST DUP3 DUP2 DUP4 CALLDATACOPY PUSH1 0x0 DUP4 DUP4 ADD MSTORE POP POP POP JUMP JUMPDEST PUSH1 0x0 JUMPDEST DUP4 DUP2 LT ISZERO PUSH2 0x166A JUMPI DUP1 DUP3 ADD MLOAD DUP2 DUP5 ADD MSTORE PUSH1 0x20 DUP2 ADD SWAP1 POP PUSH2 0x164F JUMP JUMPDEST DUP4 DUP2 GT ISZERO PUSH2 0x1679 JUMPI PUSH1 0x0 DUP5 DUP5 ADD MSTORE JUMPDEST POP POP POP POP JUMP JUMPDEST PUSH1 0x0 PUSH1 0x1F NOT PUSH1 0x1F DUP4 ADD AND SWAP1 POP SWAP2 SWAP1 POP JUMP JUMPDEST PUSH2 0x1699 DUP2 PUSH2 0x1593 JUMP JUMPDEST DUP2 EQ PUSH2 0x16A4 JUMPI PUSH1 0x0 DUP1 REVERT JUMPDEST POP JUMP JUMPDEST PUSH2 0x16B0 DUP2 PUSH2 0x15A5 JUMP JUMPDEST DUP2 EQ PUSH2 0x16BB JUMPI PUSH1 0x0 DUP1 REVERT JUMPDEST POP JUMP JUMPDEST PUSH2 0x16C7 DUP2 PUSH2 0x15B1 JUMP JUMPDEST DUP2 EQ PUSH2 0x16D2 JUMPI PUSH1 0x0 DUP1 REVERT JUMPDEST POP JUMP JUMPDEST PUSH2 0x16DE DUP2 PUSH2 0x15DD JUMP JUMPDEST DUP2 EQ PUSH2 0x16E9 JUMPI PUSH1 0x0 DUP1 REVERT JUMPDEST POP JUMP JUMPDEST PUSH1 0x3 DUP2 LT PUSH2 0x16F9 JUMPI PUSH1 0x0 DUP1 REVERT JUMPDEST POP JUMP INVALID LOG2 PUSH5 0x6970667358 0x22 SLT KECCAK256 SIGNEXTEND 0x5D EQ 0xDD PUSH15 0x7C713B84B5C1B674A484CF7537D77A 0xB3 XOR TIMESTAMP GASPRICE 0xDA 0xE4 DUP15 0x48 0xD2 DUP15 DUP14 0xC8 PUSH5 0x736F6C6343 STOP MOD ADDMOD STOP CALLER "
				},
				"gasEstimates": {
					"creation": {
						"codeDepositCost": "1187600",
						"executionCost": "infinite",
						"totalCost": "infinite"
					},
					"external": {
						"ROOT_ROLE()": "444",
						"bulk((uint8,bytes4,address)[])": "infinite",
						"freeze(bytes4)": "infinite",
						"grant(bytes4,address)": "infinite",
						"grantWithOracle(bytes4,address,address)": "infinite",
						"initBlocks(string)": "infinite",
						"isFrozen(bytes4)": "1677",
						"revoke(bytes4,address)": "infinite",
						"roles(bytes4,address)": "infinite"
					},
					"internal": {
						"_checkRole(bytes4,address,bytes memory)": "infinite",
						"_freeze(bytes4)": "infinite",
						"_grant(bytes4,address)": "infinite",
						"_grantWithOracle(bytes4,address,contract IACLOracle)": "infinite",
						"_initializeACL(address)": "infinite",
						"_revoke(bytes4,address)": "infinite",
						"willPerform(bytes4,address,bytes memory)": "infinite"
					}
				},
				"methodIdentifiers": {
					"ROOT_ROLE()": "7e8c7f08",
					"bulk((uint8,bytes4,address)[])": "1c47671b",
					"freeze(bytes4)": "bdf9a726",
					"grant(bytes4,address)": "a157a10d",
					"grantWithOracle(bytes4,address,address)": "a2157227",
					"initBlocks(string)": "cc1d4cab",
					"isFrozen(bytes4)": "495a9825",
					"revoke(bytes4,address)": "58849734",
					"roles(bytes4,address)": "96fc8abd"
				}
			},
			"storageLayout": {
				"storage": [
					{
						"astId": 527,
						"contract": "contracts/ACL.sol:ACL",
						"label": "initBlocks",
						"offset": 0,
						"slot": "0",
						"type": "t_mapping(t_string_memory_ptr,t_uint256)"
					},
					{
						"astId": 66,
						"contract": "contracts/ACL.sol:ACL",
						"label": "roles",
						"offset": 0,
						"slot": "1",
						"type": "t_mapping(t_bytes4,t_mapping(t_address,t_address))"
					}
				],
				"types": {
					"t_address": {
						"encoding": "inplace",
						"label": "address",
						"numberOfBytes": "20"
					},
					"t_bytes4": {
						"encoding": "inplace",
						"label": "bytes4",
						"numberOfBytes": "4"
					},
					"t_mapping(t_address,t_address)": {
						"encoding": "mapping",
						"key": "t_address",
						"label": "mapping(address => address)",
						"numberOfBytes": "32",
						"value": "t_address"
					},
					"t_mapping(t_bytes4,t_mapping(t_address,t_address))": {
						"encoding": "mapping",
						"key": "t_bytes4",
						"label": "mapping(bytes4 => mapping(address => address))",
						"numberOfBytes": "32",
						"value": "t_mapping(t_address,t_address)"
					},
					"t_mapping(t_string_memory_ptr,t_uint256)": {
						"encoding": "mapping",
						"key": "t_string_memory_ptr",
						"label": "mapping(string => uint256)",
						"numberOfBytes": "32",
						"value": "t_uint256"
					},
					"t_string_memory_ptr": {
						"encoding": "bytes",
						"label": "string",
						"numberOfBytes": "32"
					},
					"t_uint256": {
						"encoding": "inplace",
						"label": "uint256",
						"numberOfBytes": "32"
					}
				}
			},
			"userdoc": {
				"methods": {}
			}
		}
	}
}