{
	"data": {
		"bytecode": {
			"linkReferences": {},
			"object": "60806040523480156200001157600080fd5b506040516200716238038062007162833981810160405281019062000037919062000f30565b8180600060026040516200004b906200133b565b908152602001604051809103902054141562000078576200007281620001d760201b60201c565b620001bb565b600273ffffffffffffffffffffffffffffffffffffffff1660036000631c47671b60e01b63bdf9a72660e01b635884973460e01b63a157a10d60e01b1818187bffffffffffffffffffffffffffffffffffffffffffffffffffffffff19167bffffffffffffffffffffffffffffffffffffffffffffffffffffffff1916815260200190815260200160002060008373ffffffffffffffffffffffffffffffffffffffff1673ffffffffffffffffffffffffffffffffffffffff16815260200190815260200160002060009054906101000a900473ffffffffffffffffffffffffffffffffffffffff1673ffffffffffffffffffffffffffffffffffffffff1614620001ba576040517f08c379a0000000000000000000000000000000000000000000000000000000008152600401620001b1906200140f565b60405180910390fd5b5b5050620001cf82826200031460201b60201c565b50506200162d565b6040518060400160405280600381526020017f61636c0000000000000000000000000000000000000000000000000000000000815250600060028260405162000221919062001322565b9081526020016040518091039020541462000273576040517f08c379a00000000000000000000000000000000000000000000000000000000081526004016200026a90620013ed565b60405180910390fd5b4360028260405162000286919062001322565b908152602001604051809103902081905550620002cc631c47671b60e01b63bdf9a72660e01b635884973460e01b63a157a10d60e01b18181883620005e560201b60201c565b80604051620002dc919062001322565b60405180910390207f7bc2a48a4a566e237a12186f19d985b0f76afc9d5290601edac19876253670c260405160405180910390a25050565b816000600260405162000327906200133b565b908152602001604051809103902054141562000354576200034e81620001d760201b60201c565b62000497565b600273ffffffffffffffffffffffffffffffffffffffff1660036000631c47671b60e01b63bdf9a72660e01b635884973460e01b63a157a10d60e01b1818187bffffffffffffffffffffffffffffffffffffffffffffffffffffffff19167bffffffffffffffffffffffffffffffffffffffffffffffffffffffff1916815260200190815260200160002060008373ffffffffffffffffffffffffffffffffffffffff1673ffffffffffffffffffffffffffffffffffffffff16815260200190815260200160002060009054906101000a900473ffffffffffffffffffffffffffffffffffffffff1673ffffffffffffffffffffffffffffffffffffffff161462000496576040517f08c379a00000000000000000000000000000000000000000000000000000000081526004016200048d906200140f565b60405180910390fd5b5b6040518060400160405280600581526020017f71756575650000000000000000000000000000000000000000000000000000008152506000600282604051620004e1919062001322565b9081526020016040518091039020541462000533576040517f08c379a00000000000000000000000000000000000000000000000000000000081526004016200052a90620013ed565b60405180910390fd5b4360028260405162000546919062001322565b9081526020016040518091039020819055506200056983620005fd60201b60201c565b506200059b7fc2ff2bf000000000000000000000000000000000000000000000000000000000620009af60201b60201c565b80604051620005ab919062001322565b60405180910390207f7bc2a48a4a566e237a12186f19d985b0f76afc9d5290601edac19876253670c260405160405180910390a250505050565b620005f98282600262000a5460201b60201c565b5050565b600080826040015160200151141580156200064d5750600073ffffffffffffffffffffffffffffffffffffffff1682604001516000015173ffffffffffffffffffffffffffffffffffffffff1614155b156200079a576000606083604001516000015173ffffffffffffffffffffffffffffffffffffffff166370a0823160e01b3060405160240162000691919062001352565b604051602081830303815290604052907bffffffffffffffffffffffffffffffffffffffffffffffffffffffff19166020820180517bffffffffffffffffffffffffffffffffffffffffffffffffffffffff8381831617835250505050604051620006fd919062001309565b6000604051808303816000865af19150503d80600081146200073c576040519150601f19603f3d011682016040523d82523d6000602084013e62000741565b606091505b509150915081801562000755575060008151115b62000797576040517f08c379a00000000000000000000000000000000000000000000000000000000081526004016200078e90620013a9565b60405180910390fd5b50505b600082602001516020015114158015620007e95750600073ffffffffffffffffffffffffffffffffffffffff1682602001516000015173ffffffffffffffffffffffffffffffffffffffff1614155b1562000936576000606083602001516000015173ffffffffffffffffffffffffffffffffffffffff166370a0823160e01b306040516024016200082d919062001352565b604051602081830303815290604052907bffffffffffffffffffffffffffffffffffffffffffffffffffffffff19166020820180517bffffffffffffffffffffffffffffffffffffffffffffffffffffffff838183161783525050505060405162000899919062001309565b6000604051808303816000865af19150503d8060008114620008d8576040519150601f19603f3d011682016040523d82523d6000602084013e620008dd565b606091505b5091509150818015620008f1575060008151115b62000933576040517f08c379a00000000000000000000000000000000000000000000000000000000081526004016200092a90620013a9565b60405180910390fd5b50505b6200094c8262000c7460201b620020b21760201c565b6004819055503373ffffffffffffffffffffffffffffffffffffffff166004547f844435c59f7ccdf12de134e8f9b3b7d664fe9f06e3263680779599ba4097bc3f846040516200099d919062001453565b60405180910390a36004549050919050565b6001600080837bffffffffffffffffffffffffffffffffffffffffffffffffffffffff19167bffffffffffffffffffffffffffffffffffffffffffffffffffffffff1916815260200190815260200160002060006101000a81548160ff0219169083151502179055507fbf5e1f87f5ab65b58074cd29244d7c487a948983cda4b932e0f966b62bd34aca8160405162000a4991906200136f565b60405180910390a150565b62000a658362000ca660201b60201c565b1562000aa8576040517f08c379a000000000000000000000000000000000000000000000000000000000815260040162000a9f90620013cb565b60405180910390fd5b600173ffffffffffffffffffffffffffffffffffffffff168273ffffffffffffffffffffffffffffffffffffffff16141562000b1b576040517f08c379a000000000000000000000000000000000000000000000000000000000815260040162000b129062001431565b60405180910390fd5b8060036000857bffffffffffffffffffffffffffffffffffffffffffffffffffffffff19167bffffffffffffffffffffffffffffffffffffffffffffffffffffffff1916815260200190815260200160002060008473ffffffffffffffffffffffffffffffffffffffff1673ffffffffffffffffffffffffffffffffffffffff16815260200190815260200160002060006101000a81548173ffffffffffffffffffffffffffffffffffffffff021916908373ffffffffffffffffffffffffffffffffffffffff1602179055508173ffffffffffffffffffffffffffffffffffffffff163373ffffffffffffffffffffffffffffffffffffffff16847bffffffffffffffffffffffffffffffffffffffffffffffffffffffff19167fc62063b81f7036fd97a0dc546516e99f11004d2d76ca0fddd3866346c86e70918460405162000c6791906200138c565b60405180910390a4505050565b60008160405160200162000c89919062001453565b604051602081830303815290604052805190602001209050919050565b6000600173ffffffffffffffffffffffffffffffffffffffff1660036000847bffffffffffffffffffffffffffffffffffffffffffffffffffffffff19167bffffffffffffffffffffffffffffffffffffffffffffffffffffffff191681526020019081526020016000206000600173ffffffffffffffffffffffffffffffffffffffff1673ffffffffffffffffffffffffffffffffffffffff16815260200190815260200160002060009054906101000a900473ffffffffffffffffffffffffffffffffffffffff1673ffffffffffffffffffffffffffffffffffffffff16149050919050565b60008151905062000d9f81620015f9565b92915050565b600082601f83011262000db757600080fd5b815162000dce62000dc882620014a5565b62001477565b9150808252602083016020830185838301111562000deb57600080fd5b62000df8838284620015b2565b50505092915050565b60006040828403121562000e1457600080fd5b62000e20604062001477565b9050600062000e328482850162000d8e565b600083015250602062000e488482850162000f19565b60208301525092915050565b6000610100828403121562000e6857600080fd5b62000e7460c062001477565b9050600062000e868482850162000f19565b600083015250602062000e9c8482850162000e01565b602083015250606062000eb28482850162000e01565b60408301525060a062000ec88482850162000d8e565b60608301525060c082015167ffffffffffffffff81111562000ee957600080fd5b62000ef78482850162000da5565b60808301525060e062000f0d8482850162000f19565b60a08301525092915050565b60008151905062000f2a8162001613565b92915050565b6000806040838503121562000f4457600080fd5b600062000f548582860162000d8e565b925050602083015167ffffffffffffffff81111562000f7257600080fd5b62000f808582860162000e54565b9150509250929050565b62000f958162001520565b82525050565b62000fa68162001520565b82525050565b62000fb78162001534565b82525050565b600062000fca82620014d2565b62000fd68185620014e8565b935062000fe8818560208601620015b2565b62000ff381620015e8565b840191505092915050565b60006200100b82620014d2565b620010178185620014f9565b935062001029818560208601620015b2565b80840191505092915050565b62001040816200158a565b82525050565b60006200105382620014dd565b6200105f818562001515565b935062001071818560208601620015b2565b80840191505092915050565b60006200108c60118362001504565b91507f71756575653a2062616420636f6e6669670000000000000000000000000000006000830152602082019050919050565b6000620010ce600b8362001504565b91507f61636c3a2066726f7a656e0000000000000000000000000000000000000000006000830152602082019050919050565b60006200111060228362001504565b91507f696e697469616c697a61626c653a20616c726561647920696e697469616c697a60008301527f65640000000000000000000000000000000000000000000000000000000000006020830152604082019050919050565b600062001178601c8362001504565b91507f61636c3a20696e697469616c20726f6f74206d6973616c69676e6564000000006000830152602082019050919050565b6000620011ba60038362001515565b91507f61636c00000000000000000000000000000000000000000000000000000000006000830152600382019050919050565b6000620011fc600f8362001504565b91507f61636c3a2062616420667265657a6500000000000000000000000000000000006000830152602082019050919050565b60408201600082015162001247600085018262000f8a565b5060208201516200125c6020850182620012f8565b50505050565b6000610100830160008301516200127d6000860182620012f8565b5060208301516200129260208601826200122f565b506040830151620012a760608601826200122f565b506060830151620012bc60a086018262000f8a565b50608083015184820360c0860152620012d6828262000fbd565b91505060a0830151620012ed60e0860182620012f8565b508091505092915050565b620013038162001580565b82525050565b600062001317828462000ffe565b915081905092915050565b600062001330828462001046565b915081905092915050565b60006200134882620011ab565b9150819050919050565b600060208201905062001369600083018462000f9b565b92915050565b600060208201905062001386600083018462000fac565b92915050565b6000602082019050620013a3600083018462001035565b92915050565b60006020820190508181036000830152620013c4816200107d565b9050919050565b60006020820190508181036000830152620013e681620010bf565b9050919050565b60006020820190508181036000830152620014088162001101565b9050919050565b600060208201905081810360008301526200142a8162001169565b9050919050565b600060208201905081810360008301526200144c81620011ed565b9050919050565b600060208201905081810360008301526200146f818462001262565b905092915050565b6000604051905081810181811067ffffffffffffffff821117156200149b57600080fd5b8060405250919050565b600067ffffffffffffffff821115620014bd57600080fd5b601f19601f8301169050602081019050919050565b600081519050919050565b600081519050919050565b600082825260208201905092915050565b600081905092915050565b600082825260208201905092915050565b600081905092915050565b60006200152d8262001560565b9050919050565b60007fffffffff0000000000000000000000000000000000000000000000000000000082169050919050565b600073ffffffffffffffffffffffffffffffffffffffff82169050919050565b6000819050919050565b600062001597826200159e565b9050919050565b6000620015ab8262001560565b9050919050565b60005b83811015620015d2578082015181840152602081019050620015b5565b83811115620015e2576000848401525b50505050565b6000601f19601f8301169050919050565b620016048162001520565b81146200161057600080fd5b50565b6200161e8162001580565b81146200162a57600080fd5b50565b615b25806200163d6000396000f3fe608060405234801561001057600080fd5b50600436106101425760003560e01c806396fc8abd116100b8578063bdf9a7261161007c578063bdf9a726146103ac578063c1862a79146103c8578063c8182af0146103f8578063cc1d4cab14610428578063e1f1176d14610458578063f87983b91461047657610142565b806396fc8abd146102f5578063a157a10d14610325578063a215722714610341578063affed0e01461035d578063b57fc9171461037b57610142565b8063495a98251161010a578063495a98251461020f578063588497341461023f5780637744efda1461025b5780637c10dea61461028b5780637e8c7f08146102bb5780638f8b35b2146102d957610142565b806301f75f351461014757806301ffc9a7146101635780631c47671b1461019357806338ccfbc8146101af5780633e2da6a9146101df575b600080fd5b610161600480360381019061015c9190614161565b6104a7565b005b61017d60048036038101906101789190613fc1565b610748565b60405161018a91906150a8565b60405180910390f35b6101ad60048036038101906101a89190613e9a565b6107bf565b005b6101c960048036038101906101c49190614161565b610968565b6040516101d69190615533565b60405180910390f35b6101f960048036038101906101f49190613f85565b610f82565b6040516102069190615533565b60405180910390f35b61022960048036038101906102249190613fc1565b610fa7565b60405161023691906150a8565b60405180910390f35b61025960048036038101906102549190613fea565b61108f565b005b610275600480360381019061027091906140df565b611150565b60405161028291906150c3565b60405180910390f35b6102a560048036038101906102a09190613f08565b6111fa565b6040516102b291906151e2565b60405180910390f35b6102c3611225565b6040516102d0919061510e565b60405180910390f35b6102f360048036038101906102ee9190613e0a565b61124b565b005b61030f600480360381019061030a9190613fea565b6114f4565b60405161031c9190614fb2565b60405180910390f35b61033f600480360381019061033a9190613fea565b611536565b005b61035b60048036038101906103569190614026565b6115f7565b005b6103656116ba565b6040516103729190615533565b60405180910390f35b610395600480360381019061039091906141cd565b6116c0565b6040516103a39291906150de565b60405180910390f35b6103c660048036038101906103c19190613fc1565b6119fc565b005b6103e260048036038101906103dd9190614120565b611abb565b6040516103ef91906150c3565b60405180910390f35b610412600480360381019061040d9190613f08565b611ef4565b60405161041f9190614fb2565b60405180910390f35b610442600480360381019061043d9190614075565b611f27565b60405161044f9190615533565b60405180910390f35b610460611f55565b60405161046d91906150c3565b60405180910390f35b610490600480360381019061048b9190614120565b611f5b565b60405161049e9291906150de565b60405180910390f35b6301f75f3560e01b6104ff81336000368080601f016020809104026020016040519081016040528093929190818152602001838380828437600081840152601f19601f820116905080830192505050505050506120e2565b61053e576040517f08c379a00000000000000000000000000000000000000000000000000000000081526004016105359061528d565b60405180910390fd5b60006105498461212a565b905060006006600083815260200190815260200160002090506002600681111561056f57fe5b8160000160009054906101000a900460ff16600681111561058c57fe5b14156106b7576105a960026005836121559092919063ffffffff16565b60006007600084815260200190815260200160002060009054906101000a900473ffffffffffffffffffffffffffffffffffffffff1690506007600084815260200190815260200160002060006101000a81549073ffffffffffffffffffffffffffffffffffffffff021916905560086000848152602001908152602001600020600087602001516060015173ffffffffffffffffffffffffffffffffffffffff1673ffffffffffffffffffffffffffffffffffffffff1681526020019081526020016000206000905561069686600001516040015187602001516020015161216e90919063ffffffff16565b6106b18187602001516040015161216e90919063ffffffff16565b506106f2565b6106ce60016005836121559092919063ffffffff16565b6106f185600001516040015186602001516020015161216e90919063ffffffff16565b5b3373ffffffffffffffffffffffffffffffffffffffff16827fe2530b9681f9726904f9ca7fe725c0c53ea1b72370981ac6a5beaa9758c8c356866040516107399190615167565b60405180910390a35050505050565b6000806000837bffffffffffffffffffffffffffffffffffffffffffffffffffffffff19167bffffffffffffffffffffffffffffffffffffffffffffffffffffffff1916815260200190815260200160002060009054906101000a900460ff16806107b857506107b782612265565b5b9050919050565b631c47671b60e01b63bdf9a72660e01b635884973460e01b63a157a10d60e01b18181861083281336000368080601f016020809104026020016040519081016040528093929190818152602001838380828437600081840152601f19601f820116905080830192505050505050506120e2565b610871576040517f08c379a00000000000000000000000000000000000000000000000000000000081526004016108689061528d565b60405180910390fd5b60008090505b838390508110156109625761088a6136a0565b84848381811061089657fe5b9050606002018036038101906108ac91906140b6565b9050600060028111156108bb57fe5b816000015160028111156108cb57fe5b14156108e8576108e3816020015182604001516122b6565b610954565b600160028111156108f557fe5b8160000151600281111561090557fe5b14156109225761091d816020015182604001516122c6565b610953565b60028081111561092e57fe5b8160000151600281111561093e57fe5b141561095257610951816020015161245b565b5b5b5b508080600101915050610877565b50505050565b60006338ccfbc860e01b6109c281336000368080601f016020809104026020016040519081016040528093929190818152602001838380828437600081840152601f19601f820116905080830192505050505050506120e2565b610a01576040517f08c379a00000000000000000000000000000000000000000000000000000000081526004016109f89061528d565b60405180910390fd5b6000610a0c8561212a565b9050336007600083815260200190815260200160002060006101000a81548173ffffffffffffffffffffffffffffffffffffffff021916908373ffffffffffffffffffffffffffffffffffffffff160217905550610a8960016002600660008581526020019081526020016000206121559092919063ffffffff16565b610a91613701565b8560200151604001519050610aaf33826125d990919063ffffffff16565b6000866020015160600151905060008060008373ffffffffffffffffffffffffffffffffffffffff16637b751b9e6040518163ffffffff1660e01b815260040160606040518083038186803b158015610b0757600080fd5b505afa158015610b1b573d6000803e3d6000fd5b505050506040513d601f19601f82011682018060405250810190610b3f9190613dbb565b925092509250610b723330838573ffffffffffffffffffffffffffffffffffffffff166126d2909392919063ffffffff16565b610bb1576040517f08c379a0000000000000000000000000000000000000000000000000000000008152600401610ba89061532d565b60405180910390fd5b610bdc83828473ffffffffffffffffffffffffffffffffffffffff166127679092919063ffffffff16565b610c1b576040517f08c379a0000000000000000000000000000000000000000000000000000000008152600401610c12906153ad565b60405180910390fd5b338a6000015160e0019073ffffffffffffffffffffffffffffffffffffffff16908173ffffffffffffffffffffffffffffffffffffffff16815250508373ffffffffffffffffffffffffffffffffffffffff1663c13517e160028c604051602001610c8691906154ef565b6040516020818303038152906040526040518363ffffffff1660e01b8152600401610cb29291906151fd565b602060405180830381600087803b158015610ccc57600080fd5b505af1158015610ce0573d6000803e3d6000fd5b505050506040513d601f19601f82011682018060405250810190610d049190614221565b9750610d328360008473ffffffffffffffffffffffffffffffffffffffff166127679092919063ffffffff16565b610d71576040517f08c379a0000000000000000000000000000000000000000000000000000000008152600401610d689061530d565b60405180910390fd5b8373ffffffffffffffffffffffffffffffffffffffff16637cb57c64898c60000151604001518d6000015160c001516040518463ffffffff1660e01b8152600401610dbe9392919061558c565b600060405180830381600087803b158015610dd857600080fd5b505af1158015610dec573d6000803e3d6000fd5b505050508373ffffffffffffffffffffffffffffffffffffffff16637cb57c6489338c6040518463ffffffff1660e01b8152600401610e2d9392919061554e565b600060405180830381600087803b158015610e4757600080fd5b505af1158015610e5b573d6000803e3d6000fd5b505050508373ffffffffffffffffffffffffffffffffffffffff16637e9adccf896040518263ffffffff1660e01b8152600401610e989190615533565b600060405180830381600087803b158015610eb257600080fd5b505af1158015610ec6573d6000803e3d6000fd5b50505050600188016008600088815260200190815260200160002060008673ffffffffffffffffffffffffffffffffffffffff1673ffffffffffffffffffffffffffffffffffffffff168152602001908152602001600020819055503373ffffffffffffffffffffffffffffffffffffffff16867f429df837eb45b6713f725a0d3e57db939fd7dd7d58bb3cd967fa37091572db9f8b8b89604051610f6d93929190615189565b60405180910390a35050505050505092915050565b6008602052816000526040600020602052806000526040600020600091509150505481565b6000600173ffffffffffffffffffffffffffffffffffffffff1660036000847bffffffffffffffffffffffffffffffffffffffffffffffffffffffff19167bffffffffffffffffffffffffffffffffffffffffffffffffffffffff191681526020019081526020016000206000600173ffffffffffffffffffffffffffffffffffffffff1673ffffffffffffffffffffffffffffffffffffffff16815260200190815260200160002060009054906101000a900473ffffffffffffffffffffffffffffffffffffffff1673ffffffffffffffffffffffffffffffffffffffff16149050919050565b631c47671b60e01b63bdf9a72660e01b635884973460e01b63a157a10d60e01b18181861110281336000368080601f016020809104026020016040519081016040528093929190818152602001838380828437600081840152601f19601f820116905080830192505050505050506120e2565b611141576040517f08c379a00000000000000000000000000000000000000000000000000000000081526004016111389061528d565b60405180910390fd5b61114b83836122c6565b505050565b6000637744efda60e01b6111aa81336000368080601f016020809104026020016040519081016040528093929190818152602001838380828437600081840152601f19601f820116905080830192505050505050506120e2565b6111e9576040517f08c379a00000000000000000000000000000000000000000000000000000000081526004016111e09061528d565b60405180910390fd5b6111f2836127f9565b915050919050565b60066020528060005260406000206000915090508060000160009054906101000a900460ff16905081565b631c47671b60e01b63bdf9a72660e01b635884973460e01b63a157a10d60e01b18181881565b816000600260405161125c90614f44565b908152602001604051809103902054141561127f5761127a81612b84565b6113bf565b600273ffffffffffffffffffffffffffffffffffffffff1660036000631c47671b60e01b63bdf9a72660e01b635884973460e01b63a157a10d60e01b1818187bffffffffffffffffffffffffffffffffffffffffffffffffffffffff19167bffffffffffffffffffffffffffffffffffffffffffffffffffffffff1916815260200190815260200160002060008373ffffffffffffffffffffffffffffffffffffffff1673ffffffffffffffffffffffffffffffffffffffff16815260200190815260200160002060009054906101000a900473ffffffffffffffffffffffffffffffffffffffff1673ffffffffffffffffffffffffffffffffffffffff16146113be576040517f08c379a00000000000000000000000000000000000000000000000000000000081526004016113b59061546d565b60405180910390fd5b5b6040518060400160405280600581526020017f717565756500000000000000000000000000000000000000000000000000000081525060006002826040516114079190614f2d565b90815260200160405180910390205414611456576040517f08c379a000000000000000000000000000000000000000000000000000000000815260040161144d906153cd565b60405180910390fd5b436002826040516114679190614f2d565b908152602001604051809103902081905550611482836127f9565b506114ac7fc2ff2bf000000000000000000000000000000000000000000000000000000000612cb0565b806040516114ba9190614f2d565b60405180910390207f7bc2a48a4a566e237a12186f19d985b0f76afc9d5290601edac19876253670c260405160405180910390a250505050565b60036020528160005260406000206020528060005260406000206000915091509054906101000a900473ffffffffffffffffffffffffffffffffffffffff1681565b631c47671b60e01b63bdf9a72660e01b635884973460e01b63a157a10d60e01b1818186115a981336000368080601f016020809104026020016040519081016040528093929190818152602001838380828437600081840152601f19601f820116905080830192505050505050506120e2565b6115e8576040517f08c379a00000000000000000000000000000000000000000000000000000000081526004016115df9061528d565b60405180910390fd5b6115f283836122b6565b505050565b631c47671b60e01b63bdf9a72660e01b635884973460e01b63a157a10d60e01b18181861166a81336000368080601f016020809104026020016040519081016040528093929190818152602001838380828437600081840152601f19601f820116905080830192505050505050506120e2565b6116a9576040517f08c379a00000000000000000000000000000000000000000000000000000000081526004016116a09061528d565b60405180910390fd5b6116b4848484612d53565b50505050565b60055481565b6000606060006116cf8561212a565b905060008560200151606001519050600185016008600084815260200190815260200160002060008373ffffffffffffffffffffffffffffffffffffffff1673ffffffffffffffffffffffffffffffffffffffff1681526020019081526020016000205414611773576040517f08c379a000000000000000000000000000000000000000000000000000000000815260040161176a906152ad565b60405180910390fd5b6008600083815260200190815260200160002060008273ffffffffffffffffffffffffffffffffffffffff1673ffffffffffffffffffffffffffffffffffffffff168152602001908152602001600020600090556117ed600260066000858152602001908152602001600020612f6390919063ffffffff16565b6000808273ffffffffffffffffffffffffffffffffffffffff1663db18af6c886040518263ffffffff1660e01b81526004016118299190615533565b6040805180830381600087803b15801561184257600080fd5b505af1158015611856573d6000803e3d6000fd5b505050506040513d601f19601f8201168201806040525081019061187a9190613e5e565b915091503073ffffffffffffffffffffffffffffffffffffffff168273ffffffffffffffffffffffffffffffffffffffff16146118ec576040517f08c379a00000000000000000000000000000000000000000000000000000000081526004016118e39061542d565b60405180910390fd5b600060048214905061192781611903576004611906565b60035b60066000888152602001908152602001600020612fd090919063ffffffff16565b3373ffffffffffffffffffffffffffffffffffffffff16857f027d8a5d945eb361475964ed2c71b8332b27af2d630ab5daf829d67afd2584e68360405161196e91906150a8565b60405180910390a3878473ffffffffffffffffffffffffffffffffffffffff167f56c8631a8915c0d362dbe57a61215fdde954f73f81c8a3a1f55572fb015207b1846040516119bd9190615533565b60405180910390a380156119e2576119d489612ff9565b9650965050505050506119f5565b6119eb896130c6565b9650965050505050505b9250929050565b631c47671b60e01b63bdf9a72660e01b635884973460e01b63a157a10d60e01b181818611a6f81336000368080601f016020809104026020016040519081016040528093929190818152602001838380828437600081840152601f19601f820116905080830192505050505050506120e2565b611aae576040517f08c379a0000000000000000000000000000000000000000000000000000000008152600401611aa59061528d565b60405180910390fd5b611ab78261245b565b5050565b600063c1862a7960e01b611b1581336000368080601f016020809104026020016040519081016040528093929190818152602001838380828437600081840152601f19601f820116905080830192505050505050506120e2565b611b54576040517f08c379a0000000000000000000000000000000000000000000000000000000008152600401611b4b9061528d565b60405180910390fd5b60056000815460010191905081905583600001516000015114611bac576040517f08c379a0000000000000000000000000000000000000000000000000000000008152600401611ba3906152cd565b60405180910390fd5b6000611bbb84602001516120b2565b90506004548114611c01576040517f08c379a0000000000000000000000000000000000000000000000000000000008152600401611bf89061526d565b60405180910390fd5b611c1c428560200151600001516131ab90919063ffffffff16565b8460000151602001511015611c66576040517f08c379a0000000000000000000000000000000000000000000000000000000008152600401611c5d906152ed565b60405180910390fd5b3373ffffffffffffffffffffffffffffffffffffffff1684600001516040015173ffffffffffffffffffffffffffffffffffffffff1614611cdc576040517f08c379a0000000000000000000000000000000000000000000000000000000008152600401611cd39061534d565b60405180910390fd5b6000369050846020015160a00151811115611d2c576040517f08c379a0000000000000000000000000000000000000000000000000000000008152600401611d239061544d565b60405180910390fd5b60008090505b85600001516080015151811015611e3f5760008660000151608001518281518110611d5957fe5b60200260200101516000015190508073ffffffffffffffffffffffffffffffffffffffff166385c99e2b336040518263ffffffff1660e01b8152600401611da09190614fcd565b602060405180830381600087803b158015611dba57600080fd5b505af1158015611dce573d6000803e3d6000fd5b505050506040513d601f19601f82011682018060405250810190611df29190613edf565b611e31576040517f08c379a0000000000000000000000000000000000000000000000000000000008152600401611e289061538d565b60405180910390fd5b508080600101915050611d32565b50611e56611e5086600001516131fb565b83613280565b9350611e8160006001600660008881526020019081526020016000206121559092919063ffffffff16565b611e89613701565b8560200151602001519050611eaf866000015160400151826125d990919063ffffffff16565b847fec86306f95de4940876ce5e76fac6a93a32a6d720735be72b86d00524e3ea5958760000151604051611ee39190615511565b60405180910390a250505050919050565b60076020528060005260406000206000915054906101000a900473ffffffffffffffffffffffffffffffffffffffff1681565b6002818051602081018201805184825260208301602085012081835280955050505050506000915090505481565b60045481565b6000606063f87983b960e01b611fb781336000368080601f016020809104026020016040519081016040528093929190818152602001838380828437600081840152601f19601f820116905080830192505050505050506120e2565b611ff6576040517f08c379a0000000000000000000000000000000000000000000000000000000008152600401611fed9061528d565b60405180910390fd5b836000015160200151421015612041576040517f08c379a0000000000000000000000000000000000000000000000000000000008152600401612038906153ed565b60405180910390fd5b600061204c8561212a565b9050612076600160068060008581526020019081526020016000206121559092919063ffffffff16565b61209985600001516040015186602001516020015161216e90919063ffffffff16565b6120a78560000151826132bc565b935093505050915091565b6000816040516020016120c591906154cd565b604051602081830303815290604052805190602001209050919050565b60006120ef8484846133af565b806121215750612120847fffffffffffffffffffffffffffffffffffffffffffffffffffffffffffffffff846133af565b5b90509392505050565b600061214e61213c83600001516131fb565b61214984602001516120b2565b613280565b9050919050565b61215f8383612f63565b6121698382612fd0565b505050565b600082602001511115612261576000826000015190506121b38284602001518373ffffffffffffffffffffffffffffffffffffffff166135889092919063ffffffff16565b6121f2576040517f08c379a00000000000000000000000000000000000000000000000000000000081526004016121e99061522d565b60405180910390fd5b8173ffffffffffffffffffffffffffffffffffffffff16836000015173ffffffffffffffffffffffffffffffffffffffff167fe6e0ef9cd056ca98561ca60e347ada61e1ede2f1142a078951b7a52e1e508e6085602001516040516122579190615533565b60405180910390a3505b5050565b60006301ffc9a760e01b7bffffffffffffffffffffffffffffffffffffffffffffffffffffffff1916827bffffffffffffffffffffffffffffffffffffffffffffffffffffffff1916149050919050565b6122c282826002612d53565b5050565b6122cf82610fa7565b1561230f576040517f08c379a00000000000000000000000000000000000000000000000000000000081526004016123069061536d565b60405180910390fd5b600060036000847bffffffffffffffffffffffffffffffffffffffffffffffffffffffff19167bffffffffffffffffffffffffffffffffffffffffffffffffffffffff1916815260200190815260200160002060008373ffffffffffffffffffffffffffffffffffffffff1673ffffffffffffffffffffffffffffffffffffffff16815260200190815260200160002060006101000a81548173ffffffffffffffffffffffffffffffffffffffff021916908373ffffffffffffffffffffffffffffffffffffffff1602179055508073ffffffffffffffffffffffffffffffffffffffff163373ffffffffffffffffffffffffffffffffffffffff16837bffffffffffffffffffffffffffffffffffffffffffffffffffffffff19167f682f2c466c1e9f6883eb72cbced01373e1cb18b05ae5c8bc04dc73d73e29f8cd60405160405180910390a45050565b61246481610fa7565b156124a4576040517f08c379a000000000000000000000000000000000000000000000000000000000815260040161249b9061536d565b60405180910390fd5b600160036000837bffffffffffffffffffffffffffffffffffffffffffffffffffffffff19167bffffffffffffffffffffffffffffffffffffffffffffffffffffffff191681526020019081526020016000206000600173ffffffffffffffffffffffffffffffffffffffff1673ffffffffffffffffffffffffffffffffffffffff16815260200190815260200160002060006101000a81548173ffffffffffffffffffffffffffffffffffffffff021916908373ffffffffffffffffffffffffffffffffffffffff1602179055503373ffffffffffffffffffffffffffffffffffffffff16817bffffffffffffffffffffffffffffffffffffffffffffffffffffffff19167f049c6b8b07a879425742523fa80f8ffb25e39ad518c93a5896a0df19518397e560405160405180910390a350565b6000826020015111156126ce57600082600001519050612620823085602001518473ffffffffffffffffffffffffffffffffffffffff166126d2909392919063ffffffff16565b61265f576040517f08c379a00000000000000000000000000000000000000000000000000000000081526004016126569061540d565b60405180910390fd5b8173ffffffffffffffffffffffffffffffffffffffff16836000015173ffffffffffffffffffffffffffffffffffffffff167f989eaa915cbb416ea3d6f9a63b1a3de51770c7674b11fe21ecdf76b4e1d1391085602001516040516126c49190615533565b60405180910390a3505b5050565b600060606323b872dd60e01b8585856040516024016126f393929190614fe8565b604051602081830303815290604052907bffffffffffffffffffffffffffffffffffffffffffffffffffffffff19166020820180517bffffffffffffffffffffffffffffffffffffffffffffffffffffffff8381831617835250505050905061275c868261361a565b915050949350505050565b6000606063095ea7b360e01b848460405160240161278692919061501f565b604051602081830303815290604052907bffffffffffffffffffffffffffffffffffffffffffffffffffffffff19166020820180517bffffffffffffffffffffffffffffffffffffffffffffffffffffffff838183161783525050505090506127ef858261361a565b9150509392505050565b600080826040015160200151141580156128485750600073ffffffffffffffffffffffffffffffffffffffff1682604001516000015173ffffffffffffffffffffffffffffffffffffffff1614155b1561298a576000606083604001516000015173ffffffffffffffffffffffffffffffffffffffff166370a0823160e01b306040516024016128899190614fb2565b604051602081830303815290604052907bffffffffffffffffffffffffffffffffffffffffffffffffffffffff19166020820180517bffffffffffffffffffffffffffffffffffffffffffffffffffffffff83818316178352505050506040516128f39190614f16565b6000604051808303816000865af19150503d8060008114612930576040519150601f19603f3d011682016040523d82523d6000602084013e612935565b606091505b5091509150818015612948575060008151115b612987576040517f08c379a000000000000000000000000000000000000000000000000000000000815260040161297e9061526d565b60405180910390fd5b50505b6000826020015160200151141580156129d85750600073ffffffffffffffffffffffffffffffffffffffff1682602001516000015173ffffffffffffffffffffffffffffffffffffffff1614155b15612b1a576000606083602001516000015173ffffffffffffffffffffffffffffffffffffffff166370a0823160e01b30604051602401612a199190614fb2565b604051602081830303815290604052907bffffffffffffffffffffffffffffffffffffffffffffffffffffffff19166020820180517bffffffffffffffffffffffffffffffffffffffffffffffffffffffff8381831617835250505050604051612a839190614f16565b6000604051808303816000865af19150503d8060008114612ac0576040519150601f19603f3d011682016040523d82523d6000602084013e612ac5565b606091505b5091509150818015612ad8575060008151115b612b17576040517f08c379a0000000000000000000000000000000000000000000000000000000008152600401612b0e9061526d565b60405180910390fd5b50505b612b23826120b2565b6004819055503373ffffffffffffffffffffffffffffffffffffffff166004547f844435c59f7ccdf12de134e8f9b3b7d664fe9f06e3263680779599ba4097bc3f84604051612b7291906154cd565b60405180910390a36004549050919050565b6040518060400160405280600381526020017f61636c00000000000000000000000000000000000000000000000000000000008152506000600282604051612bcc9190614f2d565b90815260200160405180910390205414612c1b576040517f08c379a0000000000000000000000000000000000000000000000000000000008152600401612c12906153cd565b60405180910390fd5b43600282604051612c2c9190614f2d565b908152602001604051809103902081905550612c6a631c47671b60e01b63bdf9a72660e01b635884973460e01b63a157a10d60e01b181818836122b6565b80604051612c789190614f2d565b60405180910390207f7bc2a48a4a566e237a12186f19d985b0f76afc9d5290601edac19876253670c260405160405180910390a25050565b6001600080837bffffffffffffffffffffffffffffffffffffffffffffffffffffffff19167bffffffffffffffffffffffffffffffffffffffffffffffffffffffff1916815260200190815260200160002060006101000a81548160ff0219169083151502179055507fbf5e1f87f5ab65b58074cd29244d7c487a948983cda4b932e0f966b62bd34aca81604051612d48919061510e565b60405180910390a150565b612d5c83610fa7565b15612d9c576040517f08c379a0000000000000000000000000000000000000000000000000000000008152600401612d939061536d565b60405180910390fd5b600173ffffffffffffffffffffffffffffffffffffffff168273ffffffffffffffffffffffffffffffffffffffff161415612e0c576040517f08c379a0000000000000000000000000000000000000000000000000000000008152600401612e039061548d565b60405180910390fd5b8060036000857bffffffffffffffffffffffffffffffffffffffffffffffffffffffff19167bffffffffffffffffffffffffffffffffffffffffffffffffffffffff1916815260200190815260200160002060008473ffffffffffffffffffffffffffffffffffffffff1673ffffffffffffffffffffffffffffffffffffffff16815260200190815260200160002060006101000a81548173ffffffffffffffffffffffffffffffffffffffff021916908373ffffffffffffffffffffffffffffffffffffffff1602179055508173ffffffffffffffffffffffffffffffffffffffff163373ffffffffffffffffffffffffffffffffffffffff16847bffffffffffffffffffffffffffffffffffffffffffffffffffffffff19167fc62063b81f7036fd97a0dc546516e99f11004d2d76ca0fddd3866346c86e709184604051612f5691906151c7565b60405180910390a4505050565b806006811115612f6f57fe5b8260000160009054906101000a900460ff166006811115612f8c57fe5b14612fcc576040517f08c379a0000000000000000000000000000000000000000000000000000000008152600401612fc39061524d565b60405180910390fd5b5050565b808260000160006101000a81548160ff02191690836006811115612ff057fe5b02179055505050565b6000606060006130088461212a565b9050613032600360068060008581526020019081526020016000206121559092919063ffffffff16565b6007600082815260200190815260200160002060006101000a81549073ffffffffffffffffffffffffffffffffffffffff021916905561308b84600001516040015185602001516020015161216e90919063ffffffff16565b6130ae84600001516040015185602001516040015161216e90919063ffffffff16565b6130bc8460000151826132bc565b9250925050915091565b6000606060006130d58461212a565b905061310060046005600660008581526020019081526020016000206121559092919063ffffffff16565b60006007600083815260200190815260200160002060009054906101000a900473ffffffffffffffffffffffffffffffffffffffff1690506007600083815260200190815260200160002060006101000a81549073ffffffffffffffffffffffffffffffffffffffff02191690556131898186602001516020015161216e90919063ffffffff16565b6131a48186602001516040015161216e90919063ffffffff16565b5050915091565b60008282840191508110156131f5576040517f08c379a00000000000000000000000000000000000000000000000000000000081526004016131ec906154ad565b60405180910390fd5b92915050565b6000816000015182602001518360400151846060015185608001516040516020016132269190615048565b604051602081830303815290604052805190602001208660a001518760c001518051906020012060405160200161326397969594939291906155ca565b604051602081830303815290604052805190602001209050919050565b6000804690503081858560405160200161329d9493929190614f59565b6040516020818303038152906040528051906020012091505092915050565b600060603373ffffffffffffffffffffffffffffffffffffffff16837f59c3746e635078efc737fb3f37dd8188203b8df10bbad35878a7d156f4f51c4160405160405180910390a3836060015173ffffffffffffffffffffffffffffffffffffffff1663c2d85afc85608001518660a00151866040518463ffffffff1660e01b815260040161334d9392919061506a565b600060405180830381600087803b15801561336757600080fd5b505af115801561337b573d6000803e3d6000fd5b505050506040513d6000823e3d601f19601f820116820180604052508101906133a49190613f31565b915091509250929050565b60008060036000867bffffffffffffffffffffffffffffffffffffffffffffffffffffffff19167bffffffffffffffffffffffffffffffffffffffffffffffffffffffff1916815260200190815260200160002060008573ffffffffffffffffffffffffffffffffffffffff1673ffffffffffffffffffffffffffffffffffffffff16815260200190815260200160002060009054906101000a900473ffffffffffffffffffffffffffffffffffffffff169050600073ffffffffffffffffffffffffffffffffffffffff168173ffffffffffffffffffffffffffffffffffffffff161461357b57600273ffffffffffffffffffffffffffffffffffffffff168173ffffffffffffffffffffffffffffffffffffffff1614156134d6576001915050613581565b8073ffffffffffffffffffffffffffffffffffffffff1663097c81088686866040518463ffffffff1660e01b815260040161351393929190615129565b602060405180830381600087803b15801561352d57600080fd5b505af192505050801561355e57506040513d601f19601f8201168201806040525081019061355b9190613edf565b60015b6135675761357a565b801561357857600192505050613581565b505b5b60009150505b9392505050565b6000606063a9059cbb60e01b84846040516024016135a792919061501f565b604051602081830303815290604052907bffffffffffffffffffffffffffffffffffffffffffffffffffffffff19166020820180517bffffffffffffffffffffffffffffffffffffffffffffffffffffffff83818316178352505050509050613610858261361a565b9150509392505050565b600061363b8373ffffffffffffffffffffffffffffffffffffffff16613693565b613648576000905061368d565b6040516020818451602086016000885af1600081111561368a573d60008114613678576020811461368157613688565b60019350613688565b8251151593505b505b50505b92915050565b6000813b15159050919050565b6040518060600160405280600060028111156136b857fe5b815260200160007bffffffffffffffffffffffffffffffffffffffffffffffffffffffff19168152602001600073ffffffffffffffffffffffffffffffffffffffff1681525090565b6040518060400160405280600073ffffffffffffffffffffffffffffffffffffffff168152602001600081525090565b60008135905061374081615a10565b92915050565b60008151905061375581615a10565b92915050565b600082601f83011261376c57600080fd5b815161377f61377a82615666565b615639565b9150818183526020840193506020810190508360005b838110156137c557815186016137ab8882613935565b845260208401935060208301925050600181019050613795565b5050505092915050565b600082601f8301126137e057600080fd5b81356137f36137ee8261568e565b615639565b9150818183526020840193506020810190508360005b83811015613839578135860161381f8882613a46565b845260208401935060208301925050600181019050613809565b5050505092915050565b60008083601f84011261385557600080fd5b8235905067ffffffffffffffff81111561386e57600080fd5b60208301915083606082028301111561388657600080fd5b9250929050565b60008151905061389c81615a27565b92915050565b6000813590506138b181615a3e565b92915050565b6000815190506138c681615a3e565b92915050565b6000813590506138db81615a55565b92915050565b600082601f8301126138f257600080fd5b8135613905613900826156b6565b615639565b9150808252602083016020830185838301111561392157600080fd5b61392c83828461596b565b50505092915050565b600082601f83011261394657600080fd5b8151613959613954826156b6565b615639565b9150808252602083016020830185838301111561397557600080fd5b61398083828461597a565b50505092915050565b60008151905061399881615a6c565b92915050565b6000813590506139ad81615a83565b92915050565b6000813590506139c281615a9a565b92915050565b6000813590506139d781615ab1565b92915050565b6000813590506139ec81615ac8565b92915050565b600082601f830112613a0357600080fd5b8135613a16613a11826156e2565b615639565b91508082526020830160208301858383011115613a3257600080fd5b613a3d83828461596b565b50505092915050565b600060608284031215613a5857600080fd5b613a626060615639565b90506000613a7284828501613731565b6000830152506020613a8684828501613d91565b602083015250604082013567ffffffffffffffff811115613aa657600080fd5b613ab2848285016138e1565b60408301525092915050565b600060608284031215613ad057600080fd5b613ada6060615639565b90506000613aea848285016139dd565b6000830152506020613afe848285016138cc565b6020830152506040613b1284828501613731565b60408301525092915050565b600060408284031215613b3057600080fd5b613b3a6040615639565b90506000613b4a84828501613731565b6000830152506020613b5e84828501613d91565b60208301525092915050565b60006101008284031215613b7d57600080fd5b613b8760c0615639565b90506000613b9784828501613d91565b6000830152506020613bab84828501613b1e565b6020830152506060613bbf84828501613b1e565b60408301525060a0613bd384828501613731565b60608301525060c082013567ffffffffffffffff811115613bf357600080fd5b613bff848285016138e1565b60808301525060e0613c1384828501613d91565b60a08301525092915050565b600060408284031215613c3157600080fd5b613c3b6040615639565b9050600082013567ffffffffffffffff811115613c5757600080fd5b613c6384828501613c9b565b600083015250602082013567ffffffffffffffff811115613c8357600080fd5b613c8f84828501613b6a565b60208301525092915050565b60006101008284031215613cae57600080fd5b613cb9610100615639565b90506000613cc984828501613d91565b6000830152506020613cdd84828501613d91565b6020830152506040613cf184828501613731565b6040830152506060613d05848285016139c8565b606083015250608082013567ffffffffffffffff811115613d2557600080fd5b613d31848285016137cf565b60808301525060a0613d45848285016138a2565b60a08301525060c082013567ffffffffffffffff811115613d6557600080fd5b613d71848285016138e1565b60c08301525060e0613d8584828501613731565b60e08301525092915050565b600081359050613da081615ad8565b92915050565b600081519050613db581615ad8565b92915050565b600080600060608486031215613dd057600080fd5b6000613dde86828701613746565b9350506020613def86828701613989565b9250506040613e0086828701613da6565b9150509250925092565b60008060408385031215613e1d57600080fd5b6000613e2b85828601613731565b925050602083013567ffffffffffffffff811115613e4857600080fd5b613e5485828601613b6a565b9150509250929050565b60008060408385031215613e7157600080fd5b6000613e7f85828601613746565b9250506020613e9085828601613da6565b9150509250929050565b60008060208385031215613ead57600080fd5b600083013567ffffffffffffffff811115613ec757600080fd5b613ed385828601613843565b92509250509250929050565b600060208284031215613ef157600080fd5b6000613eff8482850161388d565b91505092915050565b600060208284031215613f1a57600080fd5b6000613f28848285016138a2565b91505092915050565b60008060408385031215613f4457600080fd5b6000613f52858286016138b7565b925050602083015167ffffffffffffffff811115613f6f57600080fd5b613f7b8582860161375b565b9150509250929050565b60008060408385031215613f9857600080fd5b6000613fa6858286016138a2565b9250506020613fb7858286016139b3565b9150509250929050565b600060208284031215613fd357600080fd5b6000613fe1848285016138cc565b91505092915050565b60008060408385031215613ffd57600080fd5b600061400b858286016138cc565b925050602061401c85828601613731565b9150509250929050565b60008060006060848603121561403b57600080fd5b6000614049868287016138cc565b935050602061405a86828701613731565b925050604061406b8682870161399e565b9150509250925092565b60006020828403121561408757600080fd5b600082013567ffffffffffffffff8111156140a157600080fd5b6140ad848285016139f2565b91505092915050565b6000606082840312156140c857600080fd5b60006140d684828501613abe565b91505092915050565b6000602082840312156140f157600080fd5b600082013567ffffffffffffffff81111561410b57600080fd5b61411784828501613b6a565b91505092915050565b60006020828403121561413257600080fd5b600082013567ffffffffffffffff81111561414c57600080fd5b61415884828501613c1f565b91505092915050565b6000806040838503121561417457600080fd5b600083013567ffffffffffffffff81111561418e57600080fd5b61419a85828601613c1f565b925050602083013567ffffffffffffffff8111156141b757600080fd5b6141c3858286016138e1565b9150509250929050565b600080604083850312156141e057600080fd5b600083013567ffffffffffffffff8111156141fa57600080fd5b61420685828601613c1f565b925050602061421785828601613d91565b9150509250929050565b60006020828403121561423357600080fd5b600061424184828501613da6565b91505092915050565b60006142568383614468565b905092915050565b600061426a8383614b6d565b905092915050565b61427b816158c9565b82525050565b61428a816157f0565b82525050565b614299816157f0565b82525050565b6142b06142ab826157f0565b6159ad565b82525050565b60006142c18261572e565b6142cb8185615774565b9350836020820285016142dd8561570e565b8060005b8581101561431957848403895281516142fa858261424a565b94506143058361575a565b925060208a019950506001810190506142e1565b50829750879550505050505092915050565b600061433682615739565b6143408185615785565b9350836020820285016143528561571e565b8060005b8581101561438e578484038952815161436f858261425e565b945061437a83615767565b925060208a01995050600181019050614356565b50829750879550505050505092915050565b60006143ab82615739565b6143b58185615796565b9350836020820285016143c78561571e565b8060005b8581101561440357848403895281516143e4858261425e565b94506143ef83615767565b925060208a019950506001810190506143cb565b50829750879550505050505092915050565b61441e81615802565b82525050565b61442d8161580e565b82525050565b61443c8161580e565b82525050565b61445361444e8261580e565b6159bf565b82525050565b61446281615818565b82525050565b600061447382615744565b61447d81856157a7565b935061448d81856020860161597a565b614496816159e5565b840191505092915050565b60006144ac82615744565b6144b681856157b8565b93506144c681856020860161597a565b6144cf816159e5565b840191505092915050565b60006144e582615744565b6144ef81856157c9565b93506144ff81856020860161597a565b80840191505092915050565b614514816158db565b82525050565b614523816158ff565b82525050565b614532816158ff565b82525050565b61454181615923565b82525050565b61455081615935565b82525050565b60006145618261574f565b61456b81856157e5565b935061457b81856020860161597a565b80840191505092915050565b6000614594601a836157d4565b91507f6465706f7369743a2062616420746f6b656e2072656c656173650000000000006000830152602082019050919050565b60006145d46010836157d4565b91507f71756575653a20626164207374617465000000000000000000000000000000006000830152602082019050919050565b60006146146011836157d4565b91507f71756575653a2062616420636f6e6669670000000000000000000000000000006000830152602082019050919050565b60006146546009836157d4565b91507f61636c3a206175746800000000000000000000000000000000000000000000006000830152602082019050919050565b60006146946015836157d4565b91507f71756575653a20626164206469737075746520696400000000000000000000006000830152602082019050919050565b60006146d46010836157d4565b91507f71756575653a20626164206e6f6e6365000000000000000000000000000000006000830152602082019050919050565b60006147146010836157d4565b91507f71756575653a206261642064656c6179000000000000000000000000000000006000830152602082019050919050565b60006147546010836157d4565b91507f71756575653a20626164207265736574000000000000000000000000000000006000830152602082019050919050565b60006147946013836157d4565b91507f71756575653a20626164206665652070756c6c000000000000000000000000006000830152602082019050919050565b60006147d46014836157d4565b91507f71756575653a20626164207375626d69747465720000000000000000000000006000830152602082019050919050565b6000614814600b836157d4565b91507f61636c3a2066726f7a656e0000000000000000000000000000000000000000006000830152602082019050919050565b60006148546017836157d4565b91507f416374696f6e2063616e742062652065786563757465640000000000000000006000830152602082019050919050565b60006148946012836157d4565b91507f71756575653a2062616420617070726f766500000000000000000000000000006000830152602082019050919050565b60006148d46022836157d4565b91507f696e697469616c697a61626c653a20616c726561647920696e697469616c697a60008301527f65640000000000000000000000000000000000000000000000000000000000006020830152604082019050919050565b600061493a6010836157d4565b91507f71756575653a2077616974206d6f7265000000000000000000000000000000006000830152602082019050919050565b600061497a6017836157d4565b91507f6465706f7369743a2062616420746f6b656e206c6f636b0000000000000000006000830152602082019050919050565b60006149ba6012836157d4565b91507f71756575653a206e6f74207375626a65637400000000000000000000000000006000830152602082019050919050565b60006149fa601c836157d4565b91507f63616c6c6461746173697a653a206c696d6974206578636565646564000000006000830152602082019050919050565b6000614a3a601c836157d4565b91507f61636c3a20696e697469616c20726f6f74206d6973616c69676e6564000000006000830152602082019050919050565b6000614a7a6003836157e5565b91507f61636c00000000000000000000000000000000000000000000000000000000006000830152600382019050919050565b6000614aba600f836157d4565b91507f61636c3a2062616420667265657a6500000000000000000000000000000000006000830152602082019050919050565b6000614afa600e836157d4565b91507f6d6174683a206f766572666c6f770000000000000000000000000000000000006000830152602082019050919050565b6000614b3a6008836157e5565b91507f657263336b2d76310000000000000000000000000000000000000000000000006000830152600882019050919050565b6000606083016000830151614b856000860182614281565b506020830151614b986020860182614ee1565b5060408301518482036040860152614bb08282614468565b9150508091505092915050565b604082016000820151614bd36000850182614281565b506020820151614be66020850182614ee1565b50505050565b604082016000820151614c026000850182614281565b506020820151614c156020850182614ee1565b50505050565b600061010083016000830151614c346000860182614ee1565b506020830151614c476020860182614bbd565b506040830151614c5a6060860182614bbd565b506060830151614c6d60a0860182614281565b50608083015184820360c0860152614c858282614468565b91505060a0830151614c9a60e0860182614ee1565b508091505092915050565b600061010083016000830151614cbe6000860182614ee1565b506020830151614cd16020860182614bbd565b506040830151614ce46060860182614bbd565b506060830151614cf760a0860182614281565b50608083015184820360c0860152614d0f8282614468565b91505060a0830151614d2460e0860182614ee1565b508091505092915050565b60006040830160008301518482036000860152614d4c8282614d73565b91505060208301518482036020860152614d668282614c1b565b9150508091505092915050565b600061010083016000830151614d8c6000860182614ee1565b506020830151614d9f6020860182614ee1565b506040830151614db26040860182614281565b506060830151614dc5606086018261451a565b5060808301518482036080860152614ddd828261432b565b91505060a0830151614df260a0860182614424565b5060c083015184820360c0860152614e0a8282614468565b91505060e0830151614e1f60e0860182614281565b508091505092915050565b600061010083016000830151614e436000860182614ee1565b506020830151614e566020860182614ee1565b506040830151614e696040860182614281565b506060830151614e7c606086018261451a565b5060808301518482036080860152614e94828261432b565b91505060a0830151614ea960a0860182614424565b5060c083015184820360c0860152614ec18282614468565b91505060e0830151614ed660e0860182614281565b508091505092915050565b614eea816158bf565b82525050565b614ef9816158bf565b82525050565b614f10614f0b826158bf565b6159db565b82525050565b6000614f2282846144da565b915081905092915050565b6000614f398284614556565b915081905092915050565b6000614f4f82614a6d565b9150819050919050565b6000614f6482614b2d565b9150614f70828761429f565b601482019150614f808286614eff565b602082019150614f908285614442565b602082019150614fa08284614442565b60208201915081905095945050505050565b6000602082019050614fc76000830184614290565b92915050565b6000602082019050614fe26000830184614272565b92915050565b6000606082019050614ffd6000830186614290565b61500a6020830185614290565b6150176040830184614ef0565b949350505050565b60006040820190506150346000830185614290565b6150416020830184614ef0565b9392505050565b6000602082019050818103600083015261506281846143a0565b905092915050565b6000606082019050818103600083015261508481866143a0565b90506150936020830185614433565b6150a06040830184614433565b949350505050565b60006020820190506150bd6000830184614415565b92915050565b60006020820190506150d86000830184614433565b92915050565b60006040820190506150f36000830185614433565b818103602083015261510581846142b6565b90509392505050565b60006020820190506151236000830184614459565b92915050565b600060608201905061513e6000830186614459565b61514b6020830185614290565b818103604083015261515d81846144a1565b9050949350505050565b6000602082019050818103600083015261518181846144a1565b905092915050565b600060808201905081810360008301526151a381866144a1565b90506151b26020830185614ef0565b6151bf6040830184614bec565b949350505050565b60006020820190506151dc600083018461450b565b92915050565b60006020820190506151f76000830184614538565b92915050565b60006040820190506152126000830185614547565b818103602083015261522481846144a1565b90509392505050565b6000602082019050818103600083015261524681614587565b9050919050565b60006020820190508181036000830152615266816145c7565b9050919050565b6000602082019050818103600083015261528681614607565b9050919050565b600060208201905081810360008301526152a681614647565b9050919050565b600060208201905081810360008301526152c681614687565b9050919050565b600060208201905081810360008301526152e6816146c7565b9050919050565b6000602082019050818103600083015261530681614707565b9050919050565b6000602082019050818103600083015261532681614747565b9050919050565b6000602082019050818103600083015261534681614787565b9050919050565b60006020820190508181036000830152615366816147c7565b9050919050565b6000602082019050818103600083015261538681614807565b9050919050565b600060208201905081810360008301526153a681614847565b9050919050565b600060208201905081810360008301526153c681614887565b9050919050565b600060208201905081810360008301526153e6816148c7565b9050919050565b600060208201905081810360008301526154068161492d565b9050919050565b600060208201905081810360008301526154268161496d565b9050919050565b60006020820190508181036000830152615446816149ad565b9050919050565b60006020820190508181036000830152615466816149ed565b9050919050565b6000602082019050818103600083015261548681614a2d565b9050919050565b600060208201905081810360008301526154a681614aad565b9050919050565b600060208201905081810360008301526154c681614aed565b9050919050565b600060208201905081810360008301526154e78184614ca5565b905092915050565b600060208201905081810360008301526155098184614d2f565b905092915050565b6000602082019050818103600083015261552b8184614e2a565b905092915050565b60006020820190506155486000830184614ef0565b92915050565b60006060820190506155636000830186614ef0565b6155706020830185614272565b818103604083015261558281846144a1565b9050949350505050565b60006060820190506155a16000830186614ef0565b6155ae6020830185614290565b81810360408301526155c081846144a1565b9050949350505050565b600060e0820190506155df600083018a614ef0565b6155ec6020830189614ef0565b6155f96040830188614290565b6156066060830187614529565b6156136080830186614433565b61562060a0830185614433565b61562d60c0830184614433565b98975050505050505050565b6000604051905081810181811067ffffffffffffffff8211171561565c57600080fd5b8060405250919050565b600067ffffffffffffffff82111561567d57600080fd5b602082029050602081019050919050565b600067ffffffffffffffff8211156156a557600080fd5b602082029050602081019050919050565b600067ffffffffffffffff8211156156cd57600080fd5b601f19601f8301169050602081019050919050565b600067ffffffffffffffff8211156156f957600080fd5b601f19601f8301169050602081019050919050565b6000819050602082019050919050565b6000819050602082019050919050565b600081519050919050565b600081519050919050565b600081519050919050565b600081519050919050565b6000602082019050919050565b6000602082019050919050565b600082825260208201905092915050565b600082825260208201905092915050565b600082825260208201905092915050565b600082825260208201905092915050565b600082825260208201905092915050565b600081905092915050565b600082825260208201905092915050565b600081905092915050565b60006157fb8261589f565b9050919050565b60008115159050919050565b6000819050919050565b60007fffffffff0000000000000000000000000000000000000000000000000000000082169050919050565b600061584f826157f0565b9050919050565b6000615861826157f0565b9050919050565b6000615873826157f0565b9050919050565b6000615885826157f0565b9050919050565b600081905061589a82615a03565b919050565b600073ffffffffffffffffffffffffffffffffffffffff82169050919050565b6000819050919050565b60006158d482615947565b9050919050565b60006158e6826158ed565b9050919050565b60006158f88261589f565b9050919050565b600061590a82615911565b9050919050565b600061591c8261589f565b9050919050565b600061592e8261588c565b9050919050565b6000615940826158bf565b9050919050565b600061595282615959565b9050919050565b60006159648261589f565b9050919050565b82818337600083830152505050565b60005b8381101561599857808201518184015260208101905061597d565b838111156159a7576000848401525b50505050565b60006159b8826159c9565b9050919050565b6000819050919050565b60006159d4826159f6565b9050919050565b6000819050919050565b6000601f19601f8301169050919050565b60008160601b9050919050565b60078110615a0d57fe5b50565b615a19816157f0565b8114615a2457600080fd5b50565b615a3081615802565b8114615a3b57600080fd5b50565b615a478161580e565b8114615a5257600080fd5b50565b615a5e81615818565b8114615a6957600080fd5b50565b615a7581615844565b8114615a8057600080fd5b50565b615a8c81615856565b8114615a9757600080fd5b50565b615aa381615868565b8114615aae57600080fd5b50565b615aba8161587a565b8114615ac557600080fd5b50565b60038110615ad557600080fd5b50565b615ae1816158bf565b8114615aec57600080fd5b5056fea2646970667358221220199a7cbadc078e449d5431ec07fd4af52ddec8e6ae31a7a97666401151dcccc264736f6c63430006080033",
			"opcodes": "PUSH1 0x80 PUSH1 0x40 MSTORE CALLVALUE DUP1 ISZERO PUSH3 0x11 JUMPI PUSH1 0x0 DUP1 REVERT JUMPDEST POP PUSH1 0x40 MLOAD PUSH3 0x7162 CODESIZE SUB DUP1 PUSH3 0x7162 DUP4 CODECOPY DUP2 DUP2 ADD PUSH1 0x40 MSTORE DUP2 ADD SWAP1 PUSH3 0x37 SWAP2 SWAP1 PUSH3 0xF30 JUMP JUMPDEST DUP2 DUP1 PUSH1 0x0 PUSH1 0x2 PUSH1 0x40 MLOAD PUSH3 0x4B SWAP1 PUSH3 0x133B JUMP JUMPDEST SWAP1 DUP2 MSTORE PUSH1 0x20 ADD PUSH1 0x40 MLOAD DUP1 SWAP2 SUB SWAP1 KECCAK256 SLOAD EQ ISZERO PUSH3 0x78 JUMPI PUSH3 0x72 DUP2 PUSH3 0x1D7 PUSH1 0x20 SHL PUSH1 0x20 SHR JUMP JUMPDEST PUSH3 0x1BB JUMP JUMPDEST PUSH1 0x2 PUSH20 0xFFFFFFFFFFFFFFFFFFFFFFFFFFFFFFFFFFFFFFFF AND PUSH1 0x3 PUSH1 0x0 PUSH4 0x1C47671B PUSH1 0xE0 SHL PUSH4 0xBDF9A726 PUSH1 0xE0 SHL PUSH4 0x58849734 PUSH1 0xE0 SHL PUSH4 0xA157A10D PUSH1 0xE0 SHL XOR XOR XOR PUSH28 0xFFFFFFFFFFFFFFFFFFFFFFFFFFFFFFFFFFFFFFFFFFFFFFFFFFFFFFFF NOT AND PUSH28 0xFFFFFFFFFFFFFFFFFFFFFFFFFFFFFFFFFFFFFFFFFFFFFFFFFFFFFFFF NOT AND DUP2 MSTORE PUSH1 0x20 ADD SWAP1 DUP2 MSTORE PUSH1 0x20 ADD PUSH1 0x0 KECCAK256 PUSH1 0x0 DUP4 PUSH20 0xFFFFFFFFFFFFFFFFFFFFFFFFFFFFFFFFFFFFFFFF AND PUSH20 0xFFFFFFFFFFFFFFFFFFFFFFFFFFFFFFFFFFFFFFFF AND DUP2 MSTORE PUSH1 0x20 ADD SWAP1 DUP2 MSTORE PUSH1 0x20 ADD PUSH1 0x0 KECCAK256 PUSH1 0x0 SWAP1 SLOAD SWAP1 PUSH2 0x100 EXP SWAP1 DIV PUSH20 0xFFFFFFFFFFFFFFFFFFFFFFFFFFFFFFFFFFFFFFFF AND PUSH20 0xFFFFFFFFFFFFFFFFFFFFFFFFFFFFFFFFFFFFFFFF AND EQ PUSH3 0x1BA JUMPI PUSH1 0x40 MLOAD PUSH32 0x8C379A000000000000000000000000000000000000000000000000000000000 DUP2 MSTORE PUSH1 0x4 ADD PUSH3 0x1B1 SWAP1 PUSH3 0x140F JUMP JUMPDEST PUSH1 0x40 MLOAD DUP1 SWAP2 SUB SWAP1 REVERT JUMPDEST JUMPDEST POP POP PUSH3 0x1CF DUP3 DUP3 PUSH3 0x314 PUSH1 0x20 SHL PUSH1 0x20 SHR JUMP JUMPDEST POP POP PUSH3 0x162D JUMP JUMPDEST PUSH1 0x40 MLOAD DUP1 PUSH1 0x40 ADD PUSH1 0x40 MSTORE DUP1 PUSH1 0x3 DUP2 MSTORE PUSH1 0x20 ADD PUSH32 0x61636C0000000000000000000000000000000000000000000000000000000000 DUP2 MSTORE POP PUSH1 0x0 PUSH1 0x2 DUP3 PUSH1 0x40 MLOAD PUSH3 0x221 SWAP2 SWAP1 PUSH3 0x1322 JUMP JUMPDEST SWAP1 DUP2 MSTORE PUSH1 0x20 ADD PUSH1 0x40 MLOAD DUP1 SWAP2 SUB SWAP1 KECCAK256 SLOAD EQ PUSH3 0x273 JUMPI PUSH1 0x40 MLOAD PUSH32 0x8C379A000000000000000000000000000000000000000000000000000000000 DUP2 MSTORE PUSH1 0x4 ADD PUSH3 0x26A SWAP1 PUSH3 0x13ED JUMP JUMPDEST PUSH1 0x40 MLOAD DUP1 SWAP2 SUB SWAP1 REVERT JUMPDEST NUMBER PUSH1 0x2 DUP3 PUSH1 0x40 MLOAD PUSH3 0x286 SWAP2 SWAP1 PUSH3 0x1322 JUMP JUMPDEST SWAP1 DUP2 MSTORE PUSH1 0x20 ADD PUSH1 0x40 MLOAD DUP1 SWAP2 SUB SWAP1 KECCAK256 DUP2 SWAP1 SSTORE POP PUSH3 0x2CC PUSH4 0x1C47671B PUSH1 0xE0 SHL PUSH4 0xBDF9A726 PUSH1 0xE0 SHL PUSH4 0x58849734 PUSH1 0xE0 SHL PUSH4 0xA157A10D PUSH1 0xE0 SHL XOR XOR XOR DUP4 PUSH3 0x5E5 PUSH1 0x20 SHL PUSH1 0x20 SHR JUMP JUMPDEST DUP1 PUSH1 0x40 MLOAD PUSH3 0x2DC SWAP2 SWAP1 PUSH3 0x1322 JUMP JUMPDEST PUSH1 0x40 MLOAD DUP1 SWAP2 SUB SWAP1 KECCAK256 PUSH32 0x7BC2A48A4A566E237A12186F19D985B0F76AFC9D5290601EDAC19876253670C2 PUSH1 0x40 MLOAD PUSH1 0x40 MLOAD DUP1 SWAP2 SUB SWAP1 LOG2 POP POP JUMP JUMPDEST DUP2 PUSH1 0x0 PUSH1 0x2 PUSH1 0x40 MLOAD PUSH3 0x327 SWAP1 PUSH3 0x133B JUMP JUMPDEST SWAP1 DUP2 MSTORE PUSH1 0x20 ADD PUSH1 0x40 MLOAD DUP1 SWAP2 SUB SWAP1 KECCAK256 SLOAD EQ ISZERO PUSH3 0x354 JUMPI PUSH3 0x34E DUP2 PUSH3 0x1D7 PUSH1 0x20 SHL PUSH1 0x20 SHR JUMP JUMPDEST PUSH3 0x497 JUMP JUMPDEST PUSH1 0x2 PUSH20 0xFFFFFFFFFFFFFFFFFFFFFFFFFFFFFFFFFFFFFFFF AND PUSH1 0x3 PUSH1 0x0 PUSH4 0x1C47671B PUSH1 0xE0 SHL PUSH4 0xBDF9A726 PUSH1 0xE0 SHL PUSH4 0x58849734 PUSH1 0xE0 SHL PUSH4 0xA157A10D PUSH1 0xE0 SHL XOR XOR XOR PUSH28 0xFFFFFFFFFFFFFFFFFFFFFFFFFFFFFFFFFFFFFFFFFFFFFFFFFFFFFFFF NOT AND PUSH28 0xFFFFFFFFFFFFFFFFFFFFFFFFFFFFFFFFFFFFFFFFFFFFFFFFFFFFFFFF NOT AND DUP2 MSTORE PUSH1 0x20 ADD SWAP1 DUP2 MSTORE PUSH1 0x20 ADD PUSH1 0x0 KECCAK256 PUSH1 0x0 DUP4 PUSH20 0xFFFFFFFFFFFFFFFFFFFFFFFFFFFFFFFFFFFFFFFF AND PUSH20 0xFFFFFFFFFFFFFFFFFFFFFFFFFFFFFFFFFFFFFFFF AND DUP2 MSTORE PUSH1 0x20 ADD SWAP1 DUP2 MSTORE PUSH1 0x20 ADD PUSH1 0x0 KECCAK256 PUSH1 0x0 SWAP1 SLOAD SWAP1 PUSH2 0x100 EXP SWAP1 DIV PUSH20 0xFFFFFFFFFFFFFFFFFFFFFFFFFFFFFFFFFFFFFFFF AND PUSH20 0xFFFFFFFFFFFFFFFFFFFFFFFFFFFFFFFFFFFFFFFF AND EQ PUSH3 0x496 JUMPI PUSH1 0x40 MLOAD PUSH32 0x8C379A000000000000000000000000000000000000000000000000000000000 DUP2 MSTORE PUSH1 0x4 ADD PUSH3 0x48D SWAP1 PUSH3 0x140F JUMP JUMPDEST PUSH1 0x40 MLOAD DUP1 SWAP2 SUB SWAP1 REVERT JUMPDEST JUMPDEST PUSH1 0x40 MLOAD DUP1 PUSH1 0x40 ADD PUSH1 0x40 MSTORE DUP1 PUSH1 0x5 DUP2 MSTORE PUSH1 0x20 ADD PUSH32 0x7175657565000000000000000000000000000000000000000000000000000000 DUP2 MSTORE POP PUSH1 0x0 PUSH1 0x2 DUP3 PUSH1 0x40 MLOAD PUSH3 0x4E1 SWAP2 SWAP1 PUSH3 0x1322 JUMP JUMPDEST SWAP1 DUP2 MSTORE PUSH1 0x20 ADD PUSH1 0x40 MLOAD DUP1 SWAP2 SUB SWAP1 KECCAK256 SLOAD EQ PUSH3 0x533 JUMPI PUSH1 0x40 MLOAD PUSH32 0x8C379A000000000000000000000000000000000000000000000000000000000 DUP2 MSTORE PUSH1 0x4 ADD PUSH3 0x52A SWAP1 PUSH3 0x13ED JUMP JUMPDEST PUSH1 0x40 MLOAD DUP1 SWAP2 SUB SWAP1 REVERT JUMPDEST NUMBER PUSH1 0x2 DUP3 PUSH1 0x40 MLOAD PUSH3 0x546 SWAP2 SWAP1 PUSH3 0x1322 JUMP JUMPDEST SWAP1 DUP2 MSTORE PUSH1 0x20 ADD PUSH1 0x40 MLOAD DUP1 SWAP2 SUB SWAP1 KECCAK256 DUP2 SWAP1 SSTORE POP PUSH3 0x569 DUP4 PUSH3 0x5FD PUSH1 0x20 SHL PUSH1 0x20 SHR JUMP JUMPDEST POP PUSH3 0x59B PUSH32 0xC2FF2BF000000000000000000000000000000000000000000000000000000000 PUSH3 0x9AF PUSH1 0x20 SHL PUSH1 0x20 SHR JUMP JUMPDEST DUP1 PUSH1 0x40 MLOAD PUSH3 0x5AB SWAP2 SWAP1 PUSH3 0x1322 JUMP JUMPDEST PUSH1 0x40 MLOAD DUP1 SWAP2 SUB SWAP1 KECCAK256 PUSH32 0x7BC2A48A4A566E237A12186F19D985B0F76AFC9D5290601EDAC19876253670C2 PUSH1 0x40 MLOAD PUSH1 0x40 MLOAD DUP1 SWAP2 SUB SWAP1 LOG2 POP POP POP POP JUMP JUMPDEST PUSH3 0x5F9 DUP3 DUP3 PUSH1 0x2 PUSH3 0xA54 PUSH1 0x20 SHL PUSH1 0x20 SHR JUMP JUMPDEST POP POP JUMP JUMPDEST PUSH1 0x0 DUP1 DUP3 PUSH1 0x40 ADD MLOAD PUSH1 0x20 ADD MLOAD EQ ISZERO DUP1 ISZERO PUSH3 0x64D JUMPI POP PUSH1 0x0 PUSH20 0xFFFFFFFFFFFFFFFFFFFFFFFFFFFFFFFFFFFFFFFF AND DUP3 PUSH1 0x40 ADD MLOAD PUSH1 0x0 ADD MLOAD PUSH20 0xFFFFFFFFFFFFFFFFFFFFFFFFFFFFFFFFFFFFFFFF AND EQ ISZERO JUMPDEST ISZERO PUSH3 0x79A JUMPI PUSH1 0x0 PUSH1 0x60 DUP4 PUSH1 0x40 ADD MLOAD PUSH1 0x0 ADD MLOAD PUSH20 0xFFFFFFFFFFFFFFFFFFFFFFFFFFFFFFFFFFFFFFFF AND PUSH4 0x70A08231 PUSH1 0xE0 SHL ADDRESS PUSH1 0x40 MLOAD PUSH1 0x24 ADD PUSH3 0x691 SWAP2 SWAP1 PUSH3 0x1352 JUMP JUMPDEST PUSH1 0x40 MLOAD PUSH1 0x20 DUP2 DUP4 SUB SUB DUP2 MSTORE SWAP1 PUSH1 0x40 MSTORE SWAP1 PUSH28 0xFFFFFFFFFFFFFFFFFFFFFFFFFFFFFFFFFFFFFFFFFFFFFFFFFFFFFFFF NOT AND PUSH1 0x20 DUP3 ADD DUP1 MLOAD PUSH28 0xFFFFFFFFFFFFFFFFFFFFFFFFFFFFFFFFFFFFFFFFFFFFFFFFFFFFFFFF DUP4 DUP2 DUP4 AND OR DUP4 MSTORE POP POP POP POP PUSH1 0x40 MLOAD PUSH3 0x6FD SWAP2 SWAP1 PUSH3 0x1309 JUMP JUMPDEST PUSH1 0x0 PUSH1 0x40 MLOAD DUP1 DUP4 SUB DUP2 PUSH1 0x0 DUP7 GAS CALL SWAP2 POP POP RETURNDATASIZE DUP1 PUSH1 0x0 DUP2 EQ PUSH3 0x73C JUMPI PUSH1 0x40 MLOAD SWAP2 POP PUSH1 0x1F NOT PUSH1 0x3F RETURNDATASIZE ADD AND DUP3 ADD PUSH1 0x40 MSTORE RETURNDATASIZE DUP3 MSTORE RETURNDATASIZE PUSH1 0x0 PUSH1 0x20 DUP5 ADD RETURNDATACOPY PUSH3 0x741 JUMP JUMPDEST PUSH1 0x60 SWAP2 POP JUMPDEST POP SWAP2 POP SWAP2 POP DUP2 DUP1 ISZERO PUSH3 0x755 JUMPI POP PUSH1 0x0 DUP2 MLOAD GT JUMPDEST PUSH3 0x797 JUMPI PUSH1 0x40 MLOAD PUSH32 0x8C379A000000000000000000000000000000000000000000000000000000000 DUP2 MSTORE PUSH1 0x4 ADD PUSH3 0x78E SWAP1 PUSH3 0x13A9 JUMP JUMPDEST PUSH1 0x40 MLOAD DUP1 SWAP2 SUB SWAP1 REVERT JUMPDEST POP POP JUMPDEST PUSH1 0x0 DUP3 PUSH1 0x20 ADD MLOAD PUSH1 0x20 ADD MLOAD EQ ISZERO DUP1 ISZERO PUSH3 0x7E9 JUMPI POP PUSH1 0x0 PUSH20 0xFFFFFFFFFFFFFFFFFFFFFFFFFFFFFFFFFFFFFFFF AND DUP3 PUSH1 0x20 ADD MLOAD PUSH1 0x0 ADD MLOAD PUSH20 0xFFFFFFFFFFFFFFFFFFFFFFFFFFFFFFFFFFFFFFFF AND EQ ISZERO JUMPDEST ISZERO PUSH3 0x936 JUMPI PUSH1 0x0 PUSH1 0x60 DUP4 PUSH1 0x20 ADD MLOAD PUSH1 0x0 ADD MLOAD PUSH20 0xFFFFFFFFFFFFFFFFFFFFFFFFFFFFFFFFFFFFFFFF AND PUSH4 0x70A08231 PUSH1 0xE0 SHL ADDRESS PUSH1 0x40 MLOAD PUSH1 0x24 ADD PUSH3 0x82D SWAP2 SWAP1 PUSH3 0x1352 JUMP JUMPDEST PUSH1 0x40 MLOAD PUSH1 0x20 DUP2 DUP4 SUB SUB DUP2 MSTORE SWAP1 PUSH1 0x40 MSTORE SWAP1 PUSH28 0xFFFFFFFFFFFFFFFFFFFFFFFFFFFFFFFFFFFFFFFFFFFFFFFFFFFFFFFF NOT AND PUSH1 0x20 DUP3 ADD DUP1 MLOAD PUSH28 0xFFFFFFFFFFFFFFFFFFFFFFFFFFFFFFFFFFFFFFFFFFFFFFFFFFFFFFFF DUP4 DUP2 DUP4 AND OR DUP4 MSTORE POP POP POP POP PUSH1 0x40 MLOAD PUSH3 0x899 SWAP2 SWAP1 PUSH3 0x1309 JUMP JUMPDEST PUSH1 0x0 PUSH1 0x40 MLOAD DUP1 DUP4 SUB DUP2 PUSH1 0x0 DUP7 GAS CALL SWAP2 POP POP RETURNDATASIZE DUP1 PUSH1 0x0 DUP2 EQ PUSH3 0x8D8 JUMPI PUSH1 0x40 MLOAD SWAP2 POP PUSH1 0x1F NOT PUSH1 0x3F RETURNDATASIZE ADD AND DUP3 ADD PUSH1 0x40 MSTORE RETURNDATASIZE DUP3 MSTORE RETURNDATASIZE PUSH1 0x0 PUSH1 0x20 DUP5 ADD RETURNDATACOPY PUSH3 0x8DD JUMP JUMPDEST PUSH1 0x60 SWAP2 POP JUMPDEST POP SWAP2 POP SWAP2 POP DUP2 DUP1 ISZERO PUSH3 0x8F1 JUMPI POP PUSH1 0x0 DUP2 MLOAD GT JUMPDEST PUSH3 0x933 JUMPI PUSH1 0x40 MLOAD PUSH32 0x8C379A000000000000000000000000000000000000000000000000000000000 DUP2 MSTORE PUSH1 0x4 ADD PUSH3 0x92A SWAP1 PUSH3 0x13A9 JUMP JUMPDEST PUSH1 0x40 MLOAD DUP1 SWAP2 SUB SWAP1 REVERT JUMPDEST POP POP JUMPDEST PUSH3 0x94C DUP3 PUSH3 0xC74 PUSH1 0x20 SHL PUSH3 0x20B2 OR PUSH1 0x20 SHR JUMP JUMPDEST PUSH1 0x4 DUP2 SWAP1 SSTORE POP CALLER PUSH20 0xFFFFFFFFFFFFFFFFFFFFFFFFFFFFFFFFFFFFFFFF AND PUSH1 0x4 SLOAD PUSH32 0x844435C59F7CCDF12DE134E8F9B3B7D664FE9F06E3263680779599BA4097BC3F DUP5 PUSH1 0x40 MLOAD PUSH3 0x99D SWAP2 SWAP1 PUSH3 0x1453 JUMP JUMPDEST PUSH1 0x40 MLOAD DUP1 SWAP2 SUB SWAP1 LOG3 PUSH1 0x4 SLOAD SWAP1 POP SWAP2 SWAP1 POP JUMP JUMPDEST PUSH1 0x1 PUSH1 0x0 DUP1 DUP4 PUSH28 0xFFFFFFFFFFFFFFFFFFFFFFFFFFFFFFFFFFFFFFFFFFFFFFFFFFFFFFFF NOT AND PUSH28 0xFFFFFFFFFFFFFFFFFFFFFFFFFFFFFFFFFFFFFFFFFFFFFFFFFFFFFFFF NOT AND DUP2 MSTORE PUSH1 0x20 ADD SWAP1 DUP2 MSTORE PUSH1 0x20 ADD PUSH1 0x0 KECCAK256 PUSH1 0x0 PUSH2 0x100 EXP DUP2 SLOAD DUP2 PUSH1 0xFF MUL NOT AND SWAP1 DUP4 ISZERO ISZERO MUL OR SWAP1 SSTORE POP PUSH32 0xBF5E1F87F5AB65B58074CD29244D7C487A948983CDA4B932E0F966B62BD34ACA DUP2 PUSH1 0x40 MLOAD PUSH3 0xA49 SWAP2 SWAP1 PUSH3 0x136F JUMP JUMPDEST PUSH1 0x40 MLOAD DUP1 SWAP2 SUB SWAP1 LOG1 POP JUMP JUMPDEST PUSH3 0xA65 DUP4 PUSH3 0xCA6 PUSH1 0x20 SHL PUSH1 0x20 SHR JUMP JUMPDEST ISZERO PUSH3 0xAA8 JUMPI PUSH1 0x40 MLOAD PUSH32 0x8C379A000000000000000000000000000000000000000000000000000000000 DUP2 MSTORE PUSH1 0x4 ADD PUSH3 0xA9F SWAP1 PUSH3 0x13CB JUMP JUMPDEST PUSH1 0x40 MLOAD DUP1 SWAP2 SUB SWAP1 REVERT JUMPDEST PUSH1 0x1 PUSH20 0xFFFFFFFFFFFFFFFFFFFFFFFFFFFFFFFFFFFFFFFF AND DUP3 PUSH20 0xFFFFFFFFFFFFFFFFFFFFFFFFFFFFFFFFFFFFFFFF AND EQ ISZERO PUSH3 0xB1B JUMPI PUSH1 0x40 MLOAD PUSH32 0x8C379A000000000000000000000000000000000000000000000000000000000 DUP2 MSTORE PUSH1 0x4 ADD PUSH3 0xB12 SWAP1 PUSH3 0x1431 JUMP JUMPDEST PUSH1 0x40 MLOAD DUP1 SWAP2 SUB SWAP1 REVERT JUMPDEST DUP1 PUSH1 0x3 PUSH1 0x0 DUP6 PUSH28 0xFFFFFFFFFFFFFFFFFFFFFFFFFFFFFFFFFFFFFFFFFFFFFFFFFFFFFFFF NOT AND PUSH28 0xFFFFFFFFFFFFFFFFFFFFFFFFFFFFFFFFFFFFFFFFFFFFFFFFFFFFFFFF NOT AND DUP2 MSTORE PUSH1 0x20 ADD SWAP1 DUP2 MSTORE PUSH1 0x20 ADD PUSH1 0x0 KECCAK256 PUSH1 0x0 DUP5 PUSH20 0xFFFFFFFFFFFFFFFFFFFFFFFFFFFFFFFFFFFFFFFF AND PUSH20 0xFFFFFFFFFFFFFFFFFFFFFFFFFFFFFFFFFFFFFFFF AND DUP2 MSTORE PUSH1 0x20 ADD SWAP1 DUP2 MSTORE PUSH1 0x20 ADD PUSH1 0x0 KECCAK256 PUSH1 0x0 PUSH2 0x100 EXP DUP2 SLOAD DUP2 PUSH20 0xFFFFFFFFFFFFFFFFFFFFFFFFFFFFFFFFFFFFFFFF MUL NOT AND SWAP1 DUP4 PUSH20 0xFFFFFFFFFFFFFFFFFFFFFFFFFFFFFFFFFFFFFFFF AND MUL OR SWAP1 SSTORE POP DUP2 PUSH20 0xFFFFFFFFFFFFFFFFFFFFFFFFFFFFFFFFFFFFFFFF AND CALLER PUSH20 0xFFFFFFFFFFFFFFFFFFFFFFFFFFFFFFFFFFFFFFFF AND DUP5 PUSH28 0xFFFFFFFFFFFFFFFFFFFFFFFFFFFFFFFFFFFFFFFFFFFFFFFFFFFFFFFF NOT AND PUSH32 0xC62063B81F7036FD97A0DC546516E99F11004D2D76CA0FDDD3866346C86E7091 DUP5 PUSH1 0x40 MLOAD PUSH3 0xC67 SWAP2 SWAP1 PUSH3 0x138C JUMP JUMPDEST PUSH1 0x40 MLOAD DUP1 SWAP2 SUB SWAP1 LOG4 POP POP POP JUMP JUMPDEST PUSH1 0x0 DUP2 PUSH1 0x40 MLOAD PUSH1 0x20 ADD PUSH3 0xC89 SWAP2 SWAP1 PUSH3 0x1453 JUMP JUMPDEST PUSH1 0x40 MLOAD PUSH1 0x20 DUP2 DUP4 SUB SUB DUP2 MSTORE SWAP1 PUSH1 0x40 MSTORE DUP1 MLOAD SWAP1 PUSH1 0x20 ADD KECCAK256 SWAP1 POP SWAP2 SWAP1 POP JUMP JUMPDEST PUSH1 0x0 PUSH1 0x1 PUSH20 0xFFFFFFFFFFFFFFFFFFFFFFFFFFFFFFFFFFFFFFFF AND PUSH1 0x3 PUSH1 0x0 DUP5 PUSH28 0xFFFFFFFFFFFFFFFFFFFFFFFFFFFFFFFFFFFFFFFFFFFFFFFFFFFFFFFF NOT AND PUSH28 0xFFFFFFFFFFFFFFFFFFFFFFFFFFFFFFFFFFFFFFFFFFFFFFFFFFFFFFFF NOT AND DUP2 MSTORE PUSH1 0x20 ADD SWAP1 DUP2 MSTORE PUSH1 0x20 ADD PUSH1 0x0 KECCAK256 PUSH1 0x0 PUSH1 0x1 PUSH20 0xFFFFFFFFFFFFFFFFFFFFFFFFFFFFFFFFFFFFFFFF AND PUSH20 0xFFFFFFFFFFFFFFFFFFFFFFFFFFFFFFFFFFFFFFFF AND DUP2 MSTORE PUSH1 0x20 ADD SWAP1 DUP2 MSTORE PUSH1 0x20 ADD PUSH1 0x0 KECCAK256 PUSH1 0x0 SWAP1 SLOAD SWAP1 PUSH2 0x100 EXP SWAP1 DIV PUSH20 0xFFFFFFFFFFFFFFFFFFFFFFFFFFFFFFFFFFFFFFFF AND PUSH20 0xFFFFFFFFFFFFFFFFFFFFFFFFFFFFFFFFFFFFFFFF AND EQ SWAP1 POP SWAP2 SWAP1 POP JUMP JUMPDEST PUSH1 0x0 DUP2 MLOAD SWAP1 POP PUSH3 0xD9F DUP2 PUSH3 0x15F9 JUMP JUMPDEST SWAP3 SWAP2 POP POP JUMP JUMPDEST PUSH1 0x0 DUP3 PUSH1 0x1F DUP4 ADD SLT PUSH3 0xDB7 JUMPI PUSH1 0x0 DUP1 REVERT JUMPDEST DUP2 MLOAD PUSH3 0xDCE PUSH3 0xDC8 DUP3 PUSH3 0x14A5 JUMP JUMPDEST PUSH3 0x1477 JUMP JUMPDEST SWAP2 POP DUP1 DUP3 MSTORE PUSH1 0x20 DUP4 ADD PUSH1 0x20 DUP4 ADD DUP6 DUP4 DUP4 ADD GT ISZERO PUSH3 0xDEB JUMPI PUSH1 0x0 DUP1 REVERT JUMPDEST PUSH3 0xDF8 DUP4 DUP3 DUP5 PUSH3 0x15B2 JUMP JUMPDEST POP POP POP SWAP3 SWAP2 POP POP JUMP JUMPDEST PUSH1 0x0 PUSH1 0x40 DUP3 DUP5 SUB SLT ISZERO PUSH3 0xE14 JUMPI PUSH1 0x0 DUP1 REVERT JUMPDEST PUSH3 0xE20 PUSH1 0x40 PUSH3 0x1477 JUMP JUMPDEST SWAP1 POP PUSH1 0x0 PUSH3 0xE32 DUP5 DUP3 DUP6 ADD PUSH3 0xD8E JUMP JUMPDEST PUSH1 0x0 DUP4 ADD MSTORE POP PUSH1 0x20 PUSH3 0xE48 DUP5 DUP3 DUP6 ADD PUSH3 0xF19 JUMP JUMPDEST PUSH1 0x20 DUP4 ADD MSTORE POP SWAP3 SWAP2 POP POP JUMP JUMPDEST PUSH1 0x0 PUSH2 0x100 DUP3 DUP5 SUB SLT ISZERO PUSH3 0xE68 JUMPI PUSH1 0x0 DUP1 REVERT JUMPDEST PUSH3 0xE74 PUSH1 0xC0 PUSH3 0x1477 JUMP JUMPDEST SWAP1 POP PUSH1 0x0 PUSH3 0xE86 DUP5 DUP3 DUP6 ADD PUSH3 0xF19 JUMP JUMPDEST PUSH1 0x0 DUP4 ADD MSTORE POP PUSH1 0x20 PUSH3 0xE9C DUP5 DUP3 DUP6 ADD PUSH3 0xE01 JUMP JUMPDEST PUSH1 0x20 DUP4 ADD MSTORE POP PUSH1 0x60 PUSH3 0xEB2 DUP5 DUP3 DUP6 ADD PUSH3 0xE01 JUMP JUMPDEST PUSH1 0x40 DUP4 ADD MSTORE POP PUSH1 0xA0 PUSH3 0xEC8 DUP5 DUP3 DUP6 ADD PUSH3 0xD8E JUMP JUMPDEST PUSH1 0x60 DUP4 ADD MSTORE POP PUSH1 0xC0 DUP3 ADD MLOAD PUSH8 0xFFFFFFFFFFFFFFFF DUP2 GT ISZERO PUSH3 0xEE9 JUMPI PUSH1 0x0 DUP1 REVERT JUMPDEST PUSH3 0xEF7 DUP5 DUP3 DUP6 ADD PUSH3 0xDA5 JUMP JUMPDEST PUSH1 0x80 DUP4 ADD MSTORE POP PUSH1 0xE0 PUSH3 0xF0D DUP5 DUP3 DUP6 ADD PUSH3 0xF19 JUMP JUMPDEST PUSH1 0xA0 DUP4 ADD MSTORE POP SWAP3 SWAP2 POP POP JUMP JUMPDEST PUSH1 0x0 DUP2 MLOAD SWAP1 POP PUSH3 0xF2A DUP2 PUSH3 0x1613 JUMP JUMPDEST SWAP3 SWAP2 POP POP JUMP JUMPDEST PUSH1 0x0 DUP1 PUSH1 0x40 DUP4 DUP6 SUB SLT ISZERO PUSH3 0xF44 JUMPI PUSH1 0x0 DUP1 REVERT JUMPDEST PUSH1 0x0 PUSH3 0xF54 DUP6 DUP3 DUP7 ADD PUSH3 0xD8E JUMP JUMPDEST SWAP3 POP POP PUSH1 0x20 DUP4 ADD MLOAD PUSH8 0xFFFFFFFFFFFFFFFF DUP2 GT ISZERO PUSH3 0xF72 JUMPI PUSH1 0x0 DUP1 REVERT JUMPDEST PUSH3 0xF80 DUP6 DUP3 DUP7 ADD PUSH3 0xE54 JUMP JUMPDEST SWAP2 POP POP SWAP3 POP SWAP3 SWAP1 POP JUMP JUMPDEST PUSH3 0xF95 DUP2 PUSH3 0x1520 JUMP JUMPDEST DUP3 MSTORE POP POP JUMP JUMPDEST PUSH3 0xFA6 DUP2 PUSH3 0x1520 JUMP JUMPDEST DUP3 MSTORE POP POP JUMP JUMPDEST PUSH3 0xFB7 DUP2 PUSH3 0x1534 JUMP JUMPDEST DUP3 MSTORE POP POP JUMP JUMPDEST PUSH1 0x0 PUSH3 0xFCA DUP3 PUSH3 0x14D2 JUMP JUMPDEST PUSH3 0xFD6 DUP2 DUP6 PUSH3 0x14E8 JUMP JUMPDEST SWAP4 POP PUSH3 0xFE8 DUP2 DUP6 PUSH1 0x20 DUP7 ADD PUSH3 0x15B2 JUMP JUMPDEST PUSH3 0xFF3 DUP2 PUSH3 0x15E8 JUMP JUMPDEST DUP5 ADD SWAP2 POP POP SWAP3 SWAP2 POP POP JUMP JUMPDEST PUSH1 0x0 PUSH3 0x100B DUP3 PUSH3 0x14D2 JUMP JUMPDEST PUSH3 0x1017 DUP2 DUP6 PUSH3 0x14F9 JUMP JUMPDEST SWAP4 POP PUSH3 0x1029 DUP2 DUP6 PUSH1 0x20 DUP7 ADD PUSH3 0x15B2 JUMP JUMPDEST DUP1 DUP5 ADD SWAP2 POP POP SWAP3 SWAP2 POP POP JUMP JUMPDEST PUSH3 0x1040 DUP2 PUSH3 0x158A JUMP JUMPDEST DUP3 MSTORE POP POP JUMP JUMPDEST PUSH1 0x0 PUSH3 0x1053 DUP3 PUSH3 0x14DD JUMP JUMPDEST PUSH3 0x105F DUP2 DUP6 PUSH3 0x1515 JUMP JUMPDEST SWAP4 POP PUSH3 0x1071 DUP2 DUP6 PUSH1 0x20 DUP7 ADD PUSH3 0x15B2 JUMP JUMPDEST DUP1 DUP5 ADD SWAP2 POP POP SWAP3 SWAP2 POP POP JUMP JUMPDEST PUSH1 0x0 PUSH3 0x108C PUSH1 0x11 DUP4 PUSH3 0x1504 JUMP JUMPDEST SWAP2 POP PUSH32 0x71756575653A2062616420636F6E666967000000000000000000000000000000 PUSH1 0x0 DUP4 ADD MSTORE PUSH1 0x20 DUP3 ADD SWAP1 POP SWAP2 SWAP1 POP JUMP JUMPDEST PUSH1 0x0 PUSH3 0x10CE PUSH1 0xB DUP4 PUSH3 0x1504 JUMP JUMPDEST SWAP2 POP PUSH32 0x61636C3A2066726F7A656E000000000000000000000000000000000000000000 PUSH1 0x0 DUP4 ADD MSTORE PUSH1 0x20 DUP3 ADD SWAP1 POP SWAP2 SWAP1 POP JUMP JUMPDEST PUSH1 0x0 PUSH3 0x1110 PUSH1 0x22 DUP4 PUSH3 0x1504 JUMP JUMPDEST SWAP2 POP PUSH32 0x696E697469616C697A61626C653A20616C726561647920696E697469616C697A PUSH1 0x0 DUP4 ADD MSTORE PUSH32 0x6564000000000000000000000000000000000000000000000000000000000000 PUSH1 0x20 DUP4 ADD MSTORE PUSH1 0x40 DUP3 ADD SWAP1 POP SWAP2 SWAP1 POP JUMP JUMPDEST PUSH1 0x0 PUSH3 0x1178 PUSH1 0x1C DUP4 PUSH3 0x1504 JUMP JUMPDEST SWAP2 POP PUSH32 0x61636C3A20696E697469616C20726F6F74206D6973616C69676E656400000000 PUSH1 0x0 DUP4 ADD MSTORE PUSH1 0x20 DUP3 ADD SWAP1 POP SWAP2 SWAP1 POP JUMP JUMPDEST PUSH1 0x0 PUSH3 0x11BA PUSH1 0x3 DUP4 PUSH3 0x1515 JUMP JUMPDEST SWAP2 POP PUSH32 0x61636C0000000000000000000000000000000000000000000000000000000000 PUSH1 0x0 DUP4 ADD MSTORE PUSH1 0x3 DUP3 ADD SWAP1 POP SWAP2 SWAP1 POP JUMP JUMPDEST PUSH1 0x0 PUSH3 0x11FC PUSH1 0xF DUP4 PUSH3 0x1504 JUMP JUMPDEST SWAP2 POP PUSH32 0x61636C3A2062616420667265657A650000000000000000000000000000000000 PUSH1 0x0 DUP4 ADD MSTORE PUSH1 0x20 DUP3 ADD SWAP1 POP SWAP2 SWAP1 POP JUMP JUMPDEST PUSH1 0x40 DUP3 ADD PUSH1 0x0 DUP3 ADD MLOAD PUSH3 0x1247 PUSH1 0x0 DUP6 ADD DUP3 PUSH3 0xF8A JUMP JUMPDEST POP PUSH1 0x20 DUP3 ADD MLOAD PUSH3 0x125C PUSH1 0x20 DUP6 ADD DUP3 PUSH3 0x12F8 JUMP JUMPDEST POP POP POP POP JUMP JUMPDEST PUSH1 0x0 PUSH2 0x100 DUP4 ADD PUSH1 0x0 DUP4 ADD MLOAD PUSH3 0x127D PUSH1 0x0 DUP7 ADD DUP3 PUSH3 0x12F8 JUMP JUMPDEST POP PUSH1 0x20 DUP4 ADD MLOAD PUSH3 0x1292 PUSH1 0x20 DUP7 ADD DUP3 PUSH3 0x122F JUMP JUMPDEST POP PUSH1 0x40 DUP4 ADD MLOAD PUSH3 0x12A7 PUSH1 0x60 DUP7 ADD DUP3 PUSH3 0x122F JUMP JUMPDEST POP PUSH1 0x60 DUP4 ADD MLOAD PUSH3 0x12BC PUSH1 0xA0 DUP7 ADD DUP3 PUSH3 0xF8A JUMP JUMPDEST POP PUSH1 0x80 DUP4 ADD MLOAD DUP5 DUP3 SUB PUSH1 0xC0 DUP7 ADD MSTORE PUSH3 0x12D6 DUP3 DUP3 PUSH3 0xFBD JUMP JUMPDEST SWAP2 POP POP PUSH1 0xA0 DUP4 ADD MLOAD PUSH3 0x12ED PUSH1 0xE0 DUP7 ADD DUP3 PUSH3 0x12F8 JUMP JUMPDEST POP DUP1 SWAP2 POP POP SWAP3 SWAP2 POP POP JUMP JUMPDEST PUSH3 0x1303 DUP2 PUSH3 0x1580 JUMP JUMPDEST DUP3 MSTORE POP POP JUMP JUMPDEST PUSH1 0x0 PUSH3 0x1317 DUP3 DUP5 PUSH3 0xFFE JUMP JUMPDEST SWAP2 POP DUP2 SWAP1 POP SWAP3 SWAP2 POP POP JUMP JUMPDEST PUSH1 0x0 PUSH3 0x1330 DUP3 DUP5 PUSH3 0x1046 JUMP JUMPDEST SWAP2 POP DUP2 SWAP1 POP SWAP3 SWAP2 POP POP JUMP JUMPDEST PUSH1 0x0 PUSH3 0x1348 DUP3 PUSH3 0x11AB JUMP JUMPDEST SWAP2 POP DUP2 SWAP1 POP SWAP2 SWAP1 POP JUMP JUMPDEST PUSH1 0x0 PUSH1 0x20 DUP3 ADD SWAP1 POP PUSH3 0x1369 PUSH1 0x0 DUP4 ADD DUP5 PUSH3 0xF9B JUMP JUMPDEST SWAP3 SWAP2 POP POP JUMP JUMPDEST PUSH1 0x0 PUSH1 0x20 DUP3 ADD SWAP1 POP PUSH3 0x1386 PUSH1 0x0 DUP4 ADD DUP5 PUSH3 0xFAC JUMP JUMPDEST SWAP3 SWAP2 POP POP JUMP JUMPDEST PUSH1 0x0 PUSH1 0x20 DUP3 ADD SWAP1 POP PUSH3 0x13A3 PUSH1 0x0 DUP4 ADD DUP5 PUSH3 0x1035 JUMP JUMPDEST SWAP3 SWAP2 POP POP JUMP JUMPDEST PUSH1 0x0 PUSH1 0x20 DUP3 ADD SWAP1 POP DUP2 DUP2 SUB PUSH1 0x0 DUP4 ADD MSTORE PUSH3 0x13C4 DUP2 PUSH3 0x107D JUMP JUMPDEST SWAP1 POP SWAP2 SWAP1 POP JUMP JUMPDEST PUSH1 0x0 PUSH1 0x20 DUP3 ADD SWAP1 POP DUP2 DUP2 SUB PUSH1 0x0 DUP4 ADD MSTORE PUSH3 0x13E6 DUP2 PUSH3 0x10BF JUMP JUMPDEST SWAP1 POP SWAP2 SWAP1 POP JUMP JUMPDEST PUSH1 0x0 PUSH1 0x20 DUP3 ADD SWAP1 POP DUP2 DUP2 SUB PUSH1 0x0 DUP4 ADD MSTORE PUSH3 0x1408 DUP2 PUSH3 0x1101 JUMP JUMPDEST SWAP1 POP SWAP2 SWAP1 POP JUMP JUMPDEST PUSH1 0x0 PUSH1 0x20 DUP3 ADD SWAP1 POP DUP2 DUP2 SUB PUSH1 0x0 DUP4 ADD MSTORE PUSH3 0x142A DUP2 PUSH3 0x1169 JUMP JUMPDEST SWAP1 POP SWAP2 SWAP1 POP JUMP JUMPDEST PUSH1 0x0 PUSH1 0x20 DUP3 ADD SWAP1 POP DUP2 DUP2 SUB PUSH1 0x0 DUP4 ADD MSTORE PUSH3 0x144C DUP2 PUSH3 0x11ED JUMP JUMPDEST SWAP1 POP SWAP2 SWAP1 POP JUMP JUMPDEST PUSH1 0x0 PUSH1 0x20 DUP3 ADD SWAP1 POP DUP2 DUP2 SUB PUSH1 0x0 DUP4 ADD MSTORE PUSH3 0x146F DUP2 DUP5 PUSH3 0x1262 JUMP JUMPDEST SWAP1 POP SWAP3 SWAP2 POP POP JUMP JUMPDEST PUSH1 0x0 PUSH1 0x40 MLOAD SWAP1 POP DUP2 DUP2 ADD DUP2 DUP2 LT PUSH8 0xFFFFFFFFFFFFFFFF DUP3 GT OR ISZERO PUSH3 0x149B JUMPI PUSH1 0x0 DUP1 REVERT JUMPDEST DUP1 PUSH1 0x40 MSTORE POP SWAP2 SWAP1 POP JUMP JUMPDEST PUSH1 0x0 PUSH8 0xFFFFFFFFFFFFFFFF DUP3 GT ISZERO PUSH3 0x14BD JUMPI PUSH1 0x0 DUP1 REVERT JUMPDEST PUSH1 0x1F NOT PUSH1 0x1F DUP4 ADD AND SWAP1 POP PUSH1 0x20 DUP2 ADD SWAP1 POP SWAP2 SWAP1 POP JUMP JUMPDEST PUSH1 0x0 DUP2 MLOAD SWAP1 POP SWAP2 SWAP1 POP JUMP JUMPDEST PUSH1 0x0 DUP2 MLOAD SWAP1 POP SWAP2 SWAP1 POP JUMP JUMPDEST PUSH1 0x0 DUP3 DUP3 MSTORE PUSH1 0x20 DUP3 ADD SWAP1 POP SWAP3 SWAP2 POP POP JUMP JUMPDEST PUSH1 0x0 DUP2 SWAP1 POP SWAP3 SWAP2 POP POP JUMP JUMPDEST PUSH1 0x0 DUP3 DUP3 MSTORE PUSH1 0x20 DUP3 ADD SWAP1 POP SWAP3 SWAP2 POP POP JUMP JUMPDEST PUSH1 0x0 DUP2 SWAP1 POP SWAP3 SWAP2 POP POP JUMP JUMPDEST PUSH1 0x0 PUSH3 0x152D DUP3 PUSH3 0x1560 JUMP JUMPDEST SWAP1 POP SWAP2 SWAP1 POP JUMP JUMPDEST PUSH1 0x0 PUSH32 0xFFFFFFFF00000000000000000000000000000000000000000000000000000000 DUP3 AND SWAP1 POP SWAP2 SWAP1 POP JUMP JUMPDEST PUSH1 0x0 PUSH20 0xFFFFFFFFFFFFFFFFFFFFFFFFFFFFFFFFFFFFFFFF DUP3 AND SWAP1 POP SWAP2 SWAP1 POP JUMP JUMPDEST PUSH1 0x0 DUP2 SWAP1 POP SWAP2 SWAP1 POP JUMP JUMPDEST PUSH1 0x0 PUSH3 0x1597 DUP3 PUSH3 0x159E JUMP JUMPDEST SWAP1 POP SWAP2 SWAP1 POP JUMP JUMPDEST PUSH1 0x0 PUSH3 0x15AB DUP3 PUSH3 0x1560 JUMP JUMPDEST SWAP1 POP SWAP2 SWAP1 POP JUMP JUMPDEST PUSH1 0x0 JUMPDEST DUP4 DUP2 LT ISZERO PUSH3 0x15D2 JUMPI DUP1 DUP3 ADD MLOAD DUP2 DUP5 ADD MSTORE PUSH1 0x20 DUP2 ADD SWAP1 POP PUSH3 0x15B5 JUMP JUMPDEST DUP4 DUP2 GT ISZERO PUSH3 0x15E2 JUMPI PUSH1 0x0 DUP5 DUP5 ADD MSTORE JUMPDEST POP POP POP POP JUMP JUMPDEST PUSH1 0x0 PUSH1 0x1F NOT PUSH1 0x1F DUP4 ADD AND SWAP1 POP SWAP2 SWAP1 POP JUMP JUMPDEST PUSH3 0x1604 DUP2 PUSH3 0x1520 JUMP JUMPDEST DUP2 EQ PUSH3 0x1610 JUMPI PUSH1 0x0 DUP1 REVERT JUMPDEST POP JUMP JUMPDEST PUSH3 0x161E DUP2 PUSH3 0x1580 JUMP JUMPDEST DUP2 EQ PUSH3 0x162A JUMPI PUSH1 0x0 DUP1 REVERT JUMPDEST POP JUMP JUMPDEST PUSH2 0x5B25 DUP1 PUSH3 0x163D PUSH1 0x0 CODECOPY PUSH1 0x0 RETURN INVALID PUSH1 0x80 PUSH1 0x40 MSTORE CALLVALUE DUP1 ISZERO PUSH2 0x10 JUMPI PUSH1 0x0 DUP1 REVERT JUMPDEST POP PUSH1 0x4 CALLDATASIZE LT PUSH2 0x142 JUMPI PUSH1 0x0 CALLDATALOAD PUSH1 0xE0 SHR DUP1 PUSH4 0x96FC8ABD GT PUSH2 0xB8 JUMPI DUP1 PUSH4 0xBDF9A726 GT PUSH2 0x7C JUMPI DUP1 PUSH4 0xBDF9A726 EQ PUSH2 0x3AC JUMPI DUP1 PUSH4 0xC1862A79 EQ PUSH2 0x3C8 JUMPI DUP1 PUSH4 0xC8182AF0 EQ PUSH2 0x3F8 JUMPI DUP1 PUSH4 0xCC1D4CAB EQ PUSH2 0x428 JUMPI DUP1 PUSH4 0xE1F1176D EQ PUSH2 0x458 JUMPI DUP1 PUSH4 0xF87983B9 EQ PUSH2 0x476 JUMPI PUSH2 0x142 JUMP JUMPDEST DUP1 PUSH4 0x96FC8ABD EQ PUSH2 0x2F5 JUMPI DUP1 PUSH4 0xA157A10D EQ PUSH2 0x325 JUMPI DUP1 PUSH4 0xA2157227 EQ PUSH2 0x341 JUMPI DUP1 PUSH4 0xAFFED0E0 EQ PUSH2 0x35D JUMPI DUP1 PUSH4 0xB57FC917 EQ PUSH2 0x37B JUMPI PUSH2 0x142 JUMP JUMPDEST DUP1 PUSH4 0x495A9825 GT PUSH2 0x10A JUMPI DUP1 PUSH4 0x495A9825 EQ PUSH2 0x20F JUMPI DUP1 PUSH4 0x58849734 EQ PUSH2 0x23F JUMPI DUP1 PUSH4 0x7744EFDA EQ PUSH2 0x25B JUMPI DUP1 PUSH4 0x7C10DEA6 EQ PUSH2 0x28B JUMPI DUP1 PUSH4 0x7E8C7F08 EQ PUSH2 0x2BB JUMPI DUP1 PUSH4 0x8F8B35B2 EQ PUSH2 0x2D9 JUMPI PUSH2 0x142 JUMP JUMPDEST DUP1 PUSH4 0x1F75F35 EQ PUSH2 0x147 JUMPI DUP1 PUSH4 0x1FFC9A7 EQ PUSH2 0x163 JUMPI DUP1 PUSH4 0x1C47671B EQ PUSH2 0x193 JUMPI DUP1 PUSH4 0x38CCFBC8 EQ PUSH2 0x1AF JUMPI DUP1 PUSH4 0x3E2DA6A9 EQ PUSH2 0x1DF JUMPI JUMPDEST PUSH1 0x0 DUP1 REVERT JUMPDEST PUSH2 0x161 PUSH1 0x4 DUP1 CALLDATASIZE SUB DUP2 ADD SWAP1 PUSH2 0x15C SWAP2 SWAP1 PUSH2 0x4161 JUMP JUMPDEST PUSH2 0x4A7 JUMP JUMPDEST STOP JUMPDEST PUSH2 0x17D PUSH1 0x4 DUP1 CALLDATASIZE SUB DUP2 ADD SWAP1 PUSH2 0x178 SWAP2 SWAP1 PUSH2 0x3FC1 JUMP JUMPDEST PUSH2 0x748 JUMP JUMPDEST PUSH1 0x40 MLOAD PUSH2 0x18A SWAP2 SWAP1 PUSH2 0x50A8 JUMP JUMPDEST PUSH1 0x40 MLOAD DUP1 SWAP2 SUB SWAP1 RETURN JUMPDEST PUSH2 0x1AD PUSH1 0x4 DUP1 CALLDATASIZE SUB DUP2 ADD SWAP1 PUSH2 0x1A8 SWAP2 SWAP1 PUSH2 0x3E9A JUMP JUMPDEST PUSH2 0x7BF JUMP JUMPDEST STOP JUMPDEST PUSH2 0x1C9 PUSH1 0x4 DUP1 CALLDATASIZE SUB DUP2 ADD SWAP1 PUSH2 0x1C4 SWAP2 SWAP1 PUSH2 0x4161 JUMP JUMPDEST PUSH2 0x968 JUMP JUMPDEST PUSH1 0x40 MLOAD PUSH2 0x1D6 SWAP2 SWAP1 PUSH2 0x5533 JUMP JUMPDEST PUSH1 0x40 MLOAD DUP1 SWAP2 SUB SWAP1 RETURN JUMPDEST PUSH2 0x1F9 PUSH1 0x4 DUP1 CALLDATASIZE SUB DUP2 ADD SWAP1 PUSH2 0x1F4 SWAP2 SWAP1 PUSH2 0x3F85 JUMP JUMPDEST PUSH2 0xF82 JUMP JUMPDEST PUSH1 0x40 MLOAD PUSH2 0x206 SWAP2 SWAP1 PUSH2 0x5533 JUMP JUMPDEST PUSH1 0x40 MLOAD DUP1 SWAP2 SUB SWAP1 RETURN JUMPDEST PUSH2 0x229 PUSH1 0x4 DUP1 CALLDATASIZE SUB DUP2 ADD SWAP1 PUSH2 0x224 SWAP2 SWAP1 PUSH2 0x3FC1 JUMP JUMPDEST PUSH2 0xFA7 JUMP JUMPDEST PUSH1 0x40 MLOAD PUSH2 0x236 SWAP2 SWAP1 PUSH2 0x50A8 JUMP JUMPDEST PUSH1 0x40 MLOAD DUP1 SWAP2 SUB SWAP1 RETURN JUMPDEST PUSH2 0x259 PUSH1 0x4 DUP1 CALLDATASIZE SUB DUP2 ADD SWAP1 PUSH2 0x254 SWAP2 SWAP1 PUSH2 0x3FEA JUMP JUMPDEST PUSH2 0x108F JUMP JUMPDEST STOP JUMPDEST PUSH2 0x275 PUSH1 0x4 DUP1 CALLDATASIZE SUB DUP2 ADD SWAP1 PUSH2 0x270 SWAP2 SWAP1 PUSH2 0x40DF JUMP JUMPDEST PUSH2 0x1150 JUMP JUMPDEST PUSH1 0x40 MLOAD PUSH2 0x282 SWAP2 SWAP1 PUSH2 0x50C3 JUMP JUMPDEST PUSH1 0x40 MLOAD DUP1 SWAP2 SUB SWAP1 RETURN JUMPDEST PUSH2 0x2A5 PUSH1 0x4 DUP1 CALLDATASIZE SUB DUP2 ADD SWAP1 PUSH2 0x2A0 SWAP2 SWAP1 PUSH2 0x3F08 JUMP JUMPDEST PUSH2 0x11FA JUMP JUMPDEST PUSH1 0x40 MLOAD PUSH2 0x2B2 SWAP2 SWAP1 PUSH2 0x51E2 JUMP JUMPDEST PUSH1 0x40 MLOAD DUP1 SWAP2 SUB SWAP1 RETURN JUMPDEST PUSH2 0x2C3 PUSH2 0x1225 JUMP JUMPDEST PUSH1 0x40 MLOAD PUSH2 0x2D0 SWAP2 SWAP1 PUSH2 0x510E JUMP JUMPDEST PUSH1 0x40 MLOAD DUP1 SWAP2 SUB SWAP1 RETURN JUMPDEST PUSH2 0x2F3 PUSH1 0x4 DUP1 CALLDATASIZE SUB DUP2 ADD SWAP1 PUSH2 0x2EE SWAP2 SWAP1 PUSH2 0x3E0A JUMP JUMPDEST PUSH2 0x124B JUMP JUMPDEST STOP JUMPDEST PUSH2 0x30F PUSH1 0x4 DUP1 CALLDATASIZE SUB DUP2 ADD SWAP1 PUSH2 0x30A SWAP2 SWAP1 PUSH2 0x3FEA JUMP JUMPDEST PUSH2 0x14F4 JUMP JUMPDEST PUSH1 0x40 MLOAD PUSH2 0x31C SWAP2 SWAP1 PUSH2 0x4FB2 JUMP JUMPDEST PUSH1 0x40 MLOAD DUP1 SWAP2 SUB SWAP1 RETURN JUMPDEST PUSH2 0x33F PUSH1 0x4 DUP1 CALLDATASIZE SUB DUP2 ADD SWAP1 PUSH2 0x33A SWAP2 SWAP1 PUSH2 0x3FEA JUMP JUMPDEST PUSH2 0x1536 JUMP JUMPDEST STOP JUMPDEST PUSH2 0x35B PUSH1 0x4 DUP1 CALLDATASIZE SUB DUP2 ADD SWAP1 PUSH2 0x356 SWAP2 SWAP1 PUSH2 0x4026 JUMP JUMPDEST PUSH2 0x15F7 JUMP JUMPDEST STOP JUMPDEST PUSH2 0x365 PUSH2 0x16BA JUMP JUMPDEST PUSH1 0x40 MLOAD PUSH2 0x372 SWAP2 SWAP1 PUSH2 0x5533 JUMP JUMPDEST PUSH1 0x40 MLOAD DUP1 SWAP2 SUB SWAP1 RETURN JUMPDEST PUSH2 0x395 PUSH1 0x4 DUP1 CALLDATASIZE SUB DUP2 ADD SWAP1 PUSH2 0x390 SWAP2 SWAP1 PUSH2 0x41CD JUMP JUMPDEST PUSH2 0x16C0 JUMP JUMPDEST PUSH1 0x40 MLOAD PUSH2 0x3A3 SWAP3 SWAP2 SWAP1 PUSH2 0x50DE JUMP JUMPDEST PUSH1 0x40 MLOAD DUP1 SWAP2 SUB SWAP1 RETURN JUMPDEST PUSH2 0x3C6 PUSH1 0x4 DUP1 CALLDATASIZE SUB DUP2 ADD SWAP1 PUSH2 0x3C1 SWAP2 SWAP1 PUSH2 0x3FC1 JUMP JUMPDEST PUSH2 0x19FC JUMP JUMPDEST STOP JUMPDEST PUSH2 0x3E2 PUSH1 0x4 DUP1 CALLDATASIZE SUB DUP2 ADD SWAP1 PUSH2 0x3DD SWAP2 SWAP1 PUSH2 0x4120 JUMP JUMPDEST PUSH2 0x1ABB JUMP JUMPDEST PUSH1 0x40 MLOAD PUSH2 0x3EF SWAP2 SWAP1 PUSH2 0x50C3 JUMP JUMPDEST PUSH1 0x40 MLOAD DUP1 SWAP2 SUB SWAP1 RETURN JUMPDEST PUSH2 0x412 PUSH1 0x4 DUP1 CALLDATASIZE SUB DUP2 ADD SWAP1 PUSH2 0x40D SWAP2 SWAP1 PUSH2 0x3F08 JUMP JUMPDEST PUSH2 0x1EF4 JUMP JUMPDEST PUSH1 0x40 MLOAD PUSH2 0x41F SWAP2 SWAP1 PUSH2 0x4FB2 JUMP JUMPDEST PUSH1 0x40 MLOAD DUP1 SWAP2 SUB SWAP1 RETURN JUMPDEST PUSH2 0x442 PUSH1 0x4 DUP1 CALLDATASIZE SUB DUP2 ADD SWAP1 PUSH2 0x43D SWAP2 SWAP1 PUSH2 0x4075 JUMP JUMPDEST PUSH2 0x1F27 JUMP JUMPDEST PUSH1 0x40 MLOAD PUSH2 0x44F SWAP2 SWAP1 PUSH2 0x5533 JUMP JUMPDEST PUSH1 0x40 MLOAD DUP1 SWAP2 SUB SWAP1 RETURN JUMPDEST PUSH2 0x460 PUSH2 0x1F55 JUMP JUMPDEST PUSH1 0x40 MLOAD PUSH2 0x46D SWAP2 SWAP1 PUSH2 0x50C3 JUMP JUMPDEST PUSH1 0x40 MLOAD DUP1 SWAP2 SUB SWAP1 RETURN JUMPDEST PUSH2 0x490 PUSH1 0x4 DUP1 CALLDATASIZE SUB DUP2 ADD SWAP1 PUSH2 0x48B SWAP2 SWAP1 PUSH2 0x4120 JUMP JUMPDEST PUSH2 0x1F5B JUMP JUMPDEST PUSH1 0x40 MLOAD PUSH2 0x49E SWAP3 SWAP2 SWAP1 PUSH2 0x50DE JUMP JUMPDEST PUSH1 0x40 MLOAD DUP1 SWAP2 SUB SWAP1 RETURN JUMPDEST PUSH4 0x1F75F35 PUSH1 0xE0 SHL PUSH2 0x4FF DUP2 CALLER PUSH1 0x0 CALLDATASIZE DUP1 DUP1 PUSH1 0x1F ADD PUSH1 0x20 DUP1 SWAP2 DIV MUL PUSH1 0x20 ADD PUSH1 0x40 MLOAD SWAP1 DUP2 ADD PUSH1 0x40 MSTORE DUP1 SWAP4 SWAP3 SWAP2 SWAP1 DUP2 DUP2 MSTORE PUSH1 0x20 ADD DUP4 DUP4 DUP1 DUP3 DUP5 CALLDATACOPY PUSH1 0x0 DUP2 DUP5 ADD MSTORE PUSH1 0x1F NOT PUSH1 0x1F DUP3 ADD AND SWAP1 POP DUP1 DUP4 ADD SWAP3 POP POP POP POP POP POP POP PUSH2 0x20E2 JUMP JUMPDEST PUSH2 0x53E JUMPI PUSH1 0x40 MLOAD PUSH32 0x8C379A000000000000000000000000000000000000000000000000000000000 DUP2 MSTORE PUSH1 0x4 ADD PUSH2 0x535 SWAP1 PUSH2 0x528D JUMP JUMPDEST PUSH1 0x40 MLOAD DUP1 SWAP2 SUB SWAP1 REVERT JUMPDEST PUSH1 0x0 PUSH2 0x549 DUP5 PUSH2 0x212A JUMP JUMPDEST SWAP1 POP PUSH1 0x0 PUSH1 0x6 PUSH1 0x0 DUP4 DUP2 MSTORE PUSH1 0x20 ADD SWAP1 DUP2 MSTORE PUSH1 0x20 ADD PUSH1 0x0 KECCAK256 SWAP1 POP PUSH1 0x2 PUSH1 0x6 DUP2 GT ISZERO PUSH2 0x56F JUMPI INVALID JUMPDEST DUP2 PUSH1 0x0 ADD PUSH1 0x0 SWAP1 SLOAD SWAP1 PUSH2 0x100 EXP SWAP1 DIV PUSH1 0xFF AND PUSH1 0x6 DUP2 GT ISZERO PUSH2 0x58C JUMPI INVALID JUMPDEST EQ ISZERO PUSH2 0x6B7 JUMPI PUSH2 0x5A9 PUSH1 0x2 PUSH1 0x5 DUP4 PUSH2 0x2155 SWAP1 SWAP3 SWAP2 SWAP1 PUSH4 0xFFFFFFFF AND JUMP JUMPDEST PUSH1 0x0 PUSH1 0x7 PUSH1 0x0 DUP5 DUP2 MSTORE PUSH1 0x20 ADD SWAP1 DUP2 MSTORE PUSH1 0x20 ADD PUSH1 0x0 KECCAK256 PUSH1 0x0 SWAP1 SLOAD SWAP1 PUSH2 0x100 EXP SWAP1 DIV PUSH20 0xFFFFFFFFFFFFFFFFFFFFFFFFFFFFFFFFFFFFFFFF AND SWAP1 POP PUSH1 0x7 PUSH1 0x0 DUP5 DUP2 MSTORE PUSH1 0x20 ADD SWAP1 DUP2 MSTORE PUSH1 0x20 ADD PUSH1 0x0 KECCAK256 PUSH1 0x0 PUSH2 0x100 EXP DUP2 SLOAD SWAP1 PUSH20 0xFFFFFFFFFFFFFFFFFFFFFFFFFFFFFFFFFFFFFFFF MUL NOT AND SWAP1 SSTORE PUSH1 0x8 PUSH1 0x0 DUP5 DUP2 MSTORE PUSH1 0x20 ADD SWAP1 DUP2 MSTORE PUSH1 0x20 ADD PUSH1 0x0 KECCAK256 PUSH1 0x0 DUP8 PUSH1 0x20 ADD MLOAD PUSH1 0x60 ADD MLOAD PUSH20 0xFFFFFFFFFFFFFFFFFFFFFFFFFFFFFFFFFFFFFFFF AND PUSH20 0xFFFFFFFFFFFFFFFFFFFFFFFFFFFFFFFFFFFFFFFF AND DUP2 MSTORE PUSH1 0x20 ADD SWAP1 DUP2 MSTORE PUSH1 0x20 ADD PUSH1 0x0 KECCAK256 PUSH1 0x0 SWAP1 SSTORE PUSH2 0x696 DUP7 PUSH1 0x0 ADD MLOAD PUSH1 0x40 ADD MLOAD DUP8 PUSH1 0x20 ADD MLOAD PUSH1 0x20 ADD MLOAD PUSH2 0x216E SWAP1 SWAP2 SWAP1 PUSH4 0xFFFFFFFF AND JUMP JUMPDEST PUSH2 0x6B1 DUP2 DUP8 PUSH1 0x20 ADD MLOAD PUSH1 0x40 ADD MLOAD PUSH2 0x216E SWAP1 SWAP2 SWAP1 PUSH4 0xFFFFFFFF AND JUMP JUMPDEST POP PUSH2 0x6F2 JUMP JUMPDEST PUSH2 0x6CE PUSH1 0x1 PUSH1 0x5 DUP4 PUSH2 0x2155 SWAP1 SWAP3 SWAP2 SWAP1 PUSH4 0xFFFFFFFF AND JUMP JUMPDEST PUSH2 0x6F1 DUP6 PUSH1 0x0 ADD MLOAD PUSH1 0x40 ADD MLOAD DUP7 PUSH1 0x20 ADD MLOAD PUSH1 0x20 ADD MLOAD PUSH2 0x216E SWAP1 SWAP2 SWAP1 PUSH4 0xFFFFFFFF AND JUMP JUMPDEST JUMPDEST CALLER PUSH20 0xFFFFFFFFFFFFFFFFFFFFFFFFFFFFFFFFFFFFFFFF AND DUP3 PUSH32 0xE2530B9681F9726904F9CA7FE725C0C53EA1B72370981AC6A5BEAA9758C8C356 DUP7 PUSH1 0x40 MLOAD PUSH2 0x739 SWAP2 SWAP1 PUSH2 0x5167 JUMP JUMPDEST PUSH1 0x40 MLOAD DUP1 SWAP2 SUB SWAP1 LOG3 POP POP POP POP POP JUMP JUMPDEST PUSH1 0x0 DUP1 PUSH1 0x0 DUP4 PUSH28 0xFFFFFFFFFFFFFFFFFFFFFFFFFFFFFFFFFFFFFFFFFFFFFFFFFFFFFFFF NOT AND PUSH28 0xFFFFFFFFFFFFFFFFFFFFFFFFFFFFFFFFFFFFFFFFFFFFFFFFFFFFFFFF NOT AND DUP2 MSTORE PUSH1 0x20 ADD SWAP1 DUP2 MSTORE PUSH1 0x20 ADD PUSH1 0x0 KECCAK256 PUSH1 0x0 SWAP1 SLOAD SWAP1 PUSH2 0x100 EXP SWAP1 DIV PUSH1 0xFF AND DUP1 PUSH2 0x7B8 JUMPI POP PUSH2 0x7B7 DUP3 PUSH2 0x2265 JUMP JUMPDEST JUMPDEST SWAP1 POP SWAP2 SWAP1 POP JUMP JUMPDEST PUSH4 0x1C47671B PUSH1 0xE0 SHL PUSH4 0xBDF9A726 PUSH1 0xE0 SHL PUSH4 0x58849734 PUSH1 0xE0 SHL PUSH4 0xA157A10D PUSH1 0xE0 SHL XOR XOR XOR PUSH2 0x832 DUP2 CALLER PUSH1 0x0 CALLDATASIZE DUP1 DUP1 PUSH1 0x1F ADD PUSH1 0x20 DUP1 SWAP2 DIV MUL PUSH1 0x20 ADD PUSH1 0x40 MLOAD SWAP1 DUP2 ADD PUSH1 0x40 MSTORE DUP1 SWAP4 SWAP3 SWAP2 SWAP1 DUP2 DUP2 MSTORE PUSH1 0x20 ADD DUP4 DUP4 DUP1 DUP3 DUP5 CALLDATACOPY PUSH1 0x0 DUP2 DUP5 ADD MSTORE PUSH1 0x1F NOT PUSH1 0x1F DUP3 ADD AND SWAP1 POP DUP1 DUP4 ADD SWAP3 POP POP POP POP POP POP POP PUSH2 0x20E2 JUMP JUMPDEST PUSH2 0x871 JUMPI PUSH1 0x40 MLOAD PUSH32 0x8C379A000000000000000000000000000000000000000000000000000000000 DUP2 MSTORE PUSH1 0x4 ADD PUSH2 0x868 SWAP1 PUSH2 0x528D JUMP JUMPDEST PUSH1 0x40 MLOAD DUP1 SWAP2 SUB SWAP1 REVERT JUMPDEST PUSH1 0x0 DUP1 SWAP1 POP JUMPDEST DUP4 DUP4 SWAP1 POP DUP2 LT ISZERO PUSH2 0x962 JUMPI PUSH2 0x88A PUSH2 0x36A0 JUMP JUMPDEST DUP5 DUP5 DUP4 DUP2 DUP2 LT PUSH2 0x896 JUMPI INVALID JUMPDEST SWAP1 POP PUSH1 0x60 MUL ADD DUP1 CALLDATASIZE SUB DUP2 ADD SWAP1 PUSH2 0x8AC SWAP2 SWAP1 PUSH2 0x40B6 JUMP JUMPDEST SWAP1 POP PUSH1 0x0 PUSH1 0x2 DUP2 GT ISZERO PUSH2 0x8BB JUMPI INVALID JUMPDEST DUP2 PUSH1 0x0 ADD MLOAD PUSH1 0x2 DUP2 GT ISZERO PUSH2 0x8CB JUMPI INVALID JUMPDEST EQ ISZERO PUSH2 0x8E8 JUMPI PUSH2 0x8E3 DUP2 PUSH1 0x20 ADD MLOAD DUP3 PUSH1 0x40 ADD MLOAD PUSH2 0x22B6 JUMP JUMPDEST PUSH2 0x954 JUMP JUMPDEST PUSH1 0x1 PUSH1 0x2 DUP2 GT ISZERO PUSH2 0x8F5 JUMPI INVALID JUMPDEST DUP2 PUSH1 0x0 ADD MLOAD PUSH1 0x2 DUP2 GT ISZERO PUSH2 0x905 JUMPI INVALID JUMPDEST EQ ISZERO PUSH2 0x922 JUMPI PUSH2 0x91D DUP2 PUSH1 0x20 ADD MLOAD DUP3 PUSH1 0x40 ADD MLOAD PUSH2 0x22C6 JUMP JUMPDEST PUSH2 0x953 JUMP JUMPDEST PUSH1 0x2 DUP1 DUP2 GT ISZERO PUSH2 0x92E JUMPI INVALID JUMPDEST DUP2 PUSH1 0x0 ADD MLOAD PUSH1 0x2 DUP2 GT ISZERO PUSH2 0x93E JUMPI INVALID JUMPDEST EQ ISZERO PUSH2 0x952 JUMPI PUSH2 0x951 DUP2 PUSH1 0x20 ADD MLOAD PUSH2 0x245B JUMP JUMPDEST JUMPDEST JUMPDEST JUMPDEST POP DUP1 DUP1 PUSH1 0x1 ADD SWAP2 POP POP PUSH2 0x877 JUMP JUMPDEST POP POP POP POP JUMP JUMPDEST PUSH1 0x0 PUSH4 0x38CCFBC8 PUSH1 0xE0 SHL PUSH2 0x9C2 DUP2 CALLER PUSH1 0x0 CALLDATASIZE DUP1 DUP1 PUSH1 0x1F ADD PUSH1 0x20 DUP1 SWAP2 DIV MUL PUSH1 0x20 ADD PUSH1 0x40 MLOAD SWAP1 DUP2 ADD PUSH1 0x40 MSTORE DUP1 SWAP4 SWAP3 SWAP2 SWAP1 DUP2 DUP2 MSTORE PUSH1 0x20 ADD DUP4 DUP4 DUP1 DUP3 DUP5 CALLDATACOPY PUSH1 0x0 DUP2 DUP5 ADD MSTORE PUSH1 0x1F NOT PUSH1 0x1F DUP3 ADD AND SWAP1 POP DUP1 DUP4 ADD SWAP3 POP POP POP POP POP POP POP PUSH2 0x20E2 JUMP JUMPDEST PUSH2 0xA01 JUMPI PUSH1 0x40 MLOAD PUSH32 0x8C379A000000000000000000000000000000000000000000000000000000000 DUP2 MSTORE PUSH1 0x4 ADD PUSH2 0x9F8 SWAP1 PUSH2 0x528D JUMP JUMPDEST PUSH1 0x40 MLOAD DUP1 SWAP2 SUB SWAP1 REVERT JUMPDEST PUSH1 0x0 PUSH2 0xA0C DUP6 PUSH2 0x212A JUMP JUMPDEST SWAP1 POP CALLER PUSH1 0x7 PUSH1 0x0 DUP4 DUP2 MSTORE PUSH1 0x20 ADD SWAP1 DUP2 MSTORE PUSH1 0x20 ADD PUSH1 0x0 KECCAK256 PUSH1 0x0 PUSH2 0x100 EXP DUP2 SLOAD DUP2 PUSH20 0xFFFFFFFFFFFFFFFFFFFFFFFFFFFFFFFFFFFFFFFF MUL NOT AND SWAP1 DUP4 PUSH20 0xFFFFFFFFFFFFFFFFFFFFFFFFFFFFFFFFFFFFFFFF AND MUL OR SWAP1 SSTORE POP PUSH2 0xA89 PUSH1 0x1 PUSH1 0x2 PUSH1 0x6 PUSH1 0x0 DUP6 DUP2 MSTORE PUSH1 0x20 ADD SWAP1 DUP2 MSTORE PUSH1 0x20 ADD PUSH1 0x0 KECCAK256 PUSH2 0x2155 SWAP1 SWAP3 SWAP2 SWAP1 PUSH4 0xFFFFFFFF AND JUMP JUMPDEST PUSH2 0xA91 PUSH2 0x3701 JUMP JUMPDEST DUP6 PUSH1 0x20 ADD MLOAD PUSH1 0x40 ADD MLOAD SWAP1 POP PUSH2 0xAAF CALLER DUP3 PUSH2 0x25D9 SWAP1 SWAP2 SWAP1 PUSH4 0xFFFFFFFF AND JUMP JUMPDEST PUSH1 0x0 DUP7 PUSH1 0x20 ADD MLOAD PUSH1 0x60 ADD MLOAD SWAP1 POP PUSH1 0x0 DUP1 PUSH1 0x0 DUP4 PUSH20 0xFFFFFFFFFFFFFFFFFFFFFFFFFFFFFFFFFFFFFFFF AND PUSH4 0x7B751B9E PUSH1 0x40 MLOAD DUP2 PUSH4 0xFFFFFFFF AND PUSH1 0xE0 SHL DUP2 MSTORE PUSH1 0x4 ADD PUSH1 0x60 PUSH1 0x40 MLOAD DUP1 DUP4 SUB DUP2 DUP7 DUP1 EXTCODESIZE ISZERO DUP1 ISZERO PUSH2 0xB07 JUMPI PUSH1 0x0 DUP1 REVERT JUMPDEST POP GAS STATICCALL ISZERO DUP1 ISZERO PUSH2 0xB1B JUMPI RETURNDATASIZE PUSH1 0x0 DUP1 RETURNDATACOPY RETURNDATASIZE PUSH1 0x0 REVERT JUMPDEST POP POP POP POP PUSH1 0x40 MLOAD RETURNDATASIZE PUSH1 0x1F NOT PUSH1 0x1F DUP3 ADD AND DUP3 ADD DUP1 PUSH1 0x40 MSTORE POP DUP2 ADD SWAP1 PUSH2 0xB3F SWAP2 SWAP1 PUSH2 0x3DBB JUMP JUMPDEST SWAP3 POP SWAP3 POP SWAP3 POP PUSH2 0xB72 CALLER ADDRESS DUP4 DUP6 PUSH20 0xFFFFFFFFFFFFFFFFFFFFFFFFFFFFFFFFFFFFFFFF AND PUSH2 0x26D2 SWAP1 SWAP4 SWAP3 SWAP2 SWAP1 PUSH4 0xFFFFFFFF AND JUMP JUMPDEST PUSH2 0xBB1 JUMPI PUSH1 0x40 MLOAD PUSH32 0x8C379A000000000000000000000000000000000000000000000000000000000 DUP2 MSTORE PUSH1 0x4 ADD PUSH2 0xBA8 SWAP1 PUSH2 0x532D JUMP JUMPDEST PUSH1 0x40 MLOAD DUP1 SWAP2 SUB SWAP1 REVERT JUMPDEST PUSH2 0xBDC DUP4 DUP3 DUP5 PUSH20 0xFFFFFFFFFFFFFFFFFFFFFFFFFFFFFFFFFFFFFFFF AND PUSH2 0x2767 SWAP1 SWAP3 SWAP2 SWAP1 PUSH4 0xFFFFFFFF AND JUMP JUMPDEST PUSH2 0xC1B JUMPI PUSH1 0x40 MLOAD PUSH32 0x8C379A000000000000000000000000000000000000000000000000000000000 DUP2 MSTORE PUSH1 0x4 ADD PUSH2 0xC12 SWAP1 PUSH2 0x53AD JUMP JUMPDEST PUSH1 0x40 MLOAD DUP1 SWAP2 SUB SWAP1 REVERT JUMPDEST CALLER DUP11 PUSH1 0x0 ADD MLOAD PUSH1 0xE0 ADD SWAP1 PUSH20 0xFFFFFFFFFFFFFFFFFFFFFFFFFFFFFFFFFFFFFFFF AND SWAP1 DUP2 PUSH20 0xFFFFFFFFFFFFFFFFFFFFFFFFFFFFFFFFFFFFFFFF AND DUP2 MSTORE POP POP DUP4 PUSH20 0xFFFFFFFFFFFFFFFFFFFFFFFFFFFFFFFFFFFFFFFF AND PUSH4 0xC13517E1 PUSH1 0x2 DUP13 PUSH1 0x40 MLOAD PUSH1 0x20 ADD PUSH2 0xC86 SWAP2 SWAP1 PUSH2 0x54EF JUMP JUMPDEST PUSH1 0x40 MLOAD PUSH1 0x20 DUP2 DUP4 SUB SUB DUP2 MSTORE SWAP1 PUSH1 0x40 MSTORE PUSH1 0x40 MLOAD DUP4 PUSH4 0xFFFFFFFF AND PUSH1 0xE0 SHL DUP2 MSTORE PUSH1 0x4 ADD PUSH2 0xCB2 SWAP3 SWAP2 SWAP1 PUSH2 0x51FD JUMP JUMPDEST PUSH1 0x20 PUSH1 0x40 MLOAD DUP1 DUP4 SUB DUP2 PUSH1 0x0 DUP8 DUP1 EXTCODESIZE ISZERO DUP1 ISZERO PUSH2 0xCCC JUMPI PUSH1 0x0 DUP1 REVERT JUMPDEST POP GAS CALL ISZERO DUP1 ISZERO PUSH2 0xCE0 JUMPI RETURNDATASIZE PUSH1 0x0 DUP1 RETURNDATACOPY RETURNDATASIZE PUSH1 0x0 REVERT JUMPDEST POP POP POP POP PUSH1 0x40 MLOAD RETURNDATASIZE PUSH1 0x1F NOT PUSH1 0x1F DUP3 ADD AND DUP3 ADD DUP1 PUSH1 0x40 MSTORE POP DUP2 ADD SWAP1 PUSH2 0xD04 SWAP2 SWAP1 PUSH2 0x4221 JUMP JUMPDEST SWAP8 POP PUSH2 0xD32 DUP4 PUSH1 0x0 DUP5 PUSH20 0xFFFFFFFFFFFFFFFFFFFFFFFFFFFFFFFFFFFFFFFF AND PUSH2 0x2767 SWAP1 SWAP3 SWAP2 SWAP1 PUSH4 0xFFFFFFFF AND JUMP JUMPDEST PUSH2 0xD71 JUMPI PUSH1 0x40 MLOAD PUSH32 0x8C379A000000000000000000000000000000000000000000000000000000000 DUP2 MSTORE PUSH1 0x4 ADD PUSH2 0xD68 SWAP1 PUSH2 0x530D JUMP JUMPDEST PUSH1 0x40 MLOAD DUP1 SWAP2 SUB SWAP1 REVERT JUMPDEST DUP4 PUSH20 0xFFFFFFFFFFFFFFFFFFFFFFFFFFFFFFFFFFFFFFFF AND PUSH4 0x7CB57C64 DUP10 DUP13 PUSH1 0x0 ADD MLOAD PUSH1 0x40 ADD MLOAD DUP14 PUSH1 0x0 ADD MLOAD PUSH1 0xC0 ADD MLOAD PUSH1 0x40 MLOAD DUP5 PUSH4 0xFFFFFFFF AND PUSH1 0xE0 SHL DUP2 MSTORE PUSH1 0x4 ADD PUSH2 0xDBE SWAP4 SWAP3 SWAP2 SWAP1 PUSH2 0x558C JUMP JUMPDEST PUSH1 0x0 PUSH1 0x40 MLOAD DUP1 DUP4 SUB DUP2 PUSH1 0x0 DUP8 DUP1 EXTCODESIZE ISZERO DUP1 ISZERO PUSH2 0xDD8 JUMPI PUSH1 0x0 DUP1 REVERT JUMPDEST POP GAS CALL ISZERO DUP1 ISZERO PUSH2 0xDEC JUMPI RETURNDATASIZE PUSH1 0x0 DUP1 RETURNDATACOPY RETURNDATASIZE PUSH1 0x0 REVERT JUMPDEST POP POP POP POP DUP4 PUSH20 0xFFFFFFFFFFFFFFFFFFFFFFFFFFFFFFFFFFFFFFFF AND PUSH4 0x7CB57C64 DUP10 CALLER DUP13 PUSH1 0x40 MLOAD DUP5 PUSH4 0xFFFFFFFF AND PUSH1 0xE0 SHL DUP2 MSTORE PUSH1 0x4 ADD PUSH2 0xE2D SWAP4 SWAP3 SWAP2 SWAP1 PUSH2 0x554E JUMP JUMPDEST PUSH1 0x0 PUSH1 0x40 MLOAD DUP1 DUP4 SUB DUP2 PUSH1 0x0 DUP8 DUP1 EXTCODESIZE ISZERO DUP1 ISZERO PUSH2 0xE47 JUMPI PUSH1 0x0 DUP1 REVERT JUMPDEST POP GAS CALL ISZERO DUP1 ISZERO PUSH2 0xE5B JUMPI RETURNDATASIZE PUSH1 0x0 DUP1 RETURNDATACOPY RETURNDATASIZE PUSH1 0x0 REVERT JUMPDEST POP POP POP POP DUP4 PUSH20 0xFFFFFFFFFFFFFFFFFFFFFFFFFFFFFFFFFFFFFFFF AND PUSH4 0x7E9ADCCF DUP10 PUSH1 0x40 MLOAD DUP3 PUSH4 0xFFFFFFFF AND PUSH1 0xE0 SHL DUP2 MSTORE PUSH1 0x4 ADD PUSH2 0xE98 SWAP2 SWAP1 PUSH2 0x5533 JUMP JUMPDEST PUSH1 0x0 PUSH1 0x40 MLOAD DUP1 DUP4 SUB DUP2 PUSH1 0x0 DUP8 DUP1 EXTCODESIZE ISZERO DUP1 ISZERO PUSH2 0xEB2 JUMPI PUSH1 0x0 DUP1 REVERT JUMPDEST POP GAS CALL ISZERO DUP1 ISZERO PUSH2 0xEC6 JUMPI RETURNDATASIZE PUSH1 0x0 DUP1 RETURNDATACOPY RETURNDATASIZE PUSH1 0x0 REVERT JUMPDEST POP POP POP POP PUSH1 0x1 DUP9 ADD PUSH1 0x8 PUSH1 0x0 DUP9 DUP2 MSTORE PUSH1 0x20 ADD SWAP1 DUP2 MSTORE PUSH1 0x20 ADD PUSH1 0x0 KECCAK256 PUSH1 0x0 DUP7 PUSH20 0xFFFFFFFFFFFFFFFFFFFFFFFFFFFFFFFFFFFFFFFF AND PUSH20 0xFFFFFFFFFFFFFFFFFFFFFFFFFFFFFFFFFFFFFFFF AND DUP2 MSTORE PUSH1 0x20 ADD SWAP1 DUP2 MSTORE PUSH1 0x20 ADD PUSH1 0x0 KECCAK256 DUP2 SWAP1 SSTORE POP CALLER PUSH20 0xFFFFFFFFFFFFFFFFFFFFFFFFFFFFFFFFFFFFFFFF AND DUP7 PUSH32 0x429DF837EB45B6713F725A0D3E57DB939FD7DD7D58BB3CD967FA37091572DB9F DUP12 DUP12 DUP10 PUSH1 0x40 MLOAD PUSH2 0xF6D SWAP4 SWAP3 SWAP2 SWAP1 PUSH2 0x5189 JUMP JUMPDEST PUSH1 0x40 MLOAD DUP1 SWAP2 SUB SWAP1 LOG3 POP POP POP POP POP POP POP SWAP3 SWAP2 POP POP JUMP JUMPDEST PUSH1 0x8 PUSH1 0x20 MSTORE DUP2 PUSH1 0x0 MSTORE PUSH1 0x40 PUSH1 0x0 KECCAK256 PUSH1 0x20 MSTORE DUP1 PUSH1 0x0 MSTORE PUSH1 0x40 PUSH1 0x0 KECCAK256 PUSH1 0x0 SWAP2 POP SWAP2 POP POP SLOAD DUP2 JUMP JUMPDEST PUSH1 0x0 PUSH1 0x1 PUSH20 0xFFFFFFFFFFFFFFFFFFFFFFFFFFFFFFFFFFFFFFFF AND PUSH1 0x3 PUSH1 0x0 DUP5 PUSH28 0xFFFFFFFFFFFFFFFFFFFFFFFFFFFFFFFFFFFFFFFFFFFFFFFFFFFFFFFF NOT AND PUSH28 0xFFFFFFFFFFFFFFFFFFFFFFFFFFFFFFFFFFFFFFFFFFFFFFFFFFFFFFFF NOT AND DUP2 MSTORE PUSH1 0x20 ADD SWAP1 DUP2 MSTORE PUSH1 0x20 ADD PUSH1 0x0 KECCAK256 PUSH1 0x0 PUSH1 0x1 PUSH20 0xFFFFFFFFFFFFFFFFFFFFFFFFFFFFFFFFFFFFFFFF AND PUSH20 0xFFFFFFFFFFFFFFFFFFFFFFFFFFFFFFFFFFFFFFFF AND DUP2 MSTORE PUSH1 0x20 ADD SWAP1 DUP2 MSTORE PUSH1 0x20 ADD PUSH1 0x0 KECCAK256 PUSH1 0x0 SWAP1 SLOAD SWAP1 PUSH2 0x100 EXP SWAP1 DIV PUSH20 0xFFFFFFFFFFFFFFFFFFFFFFFFFFFFFFFFFFFFFFFF AND PUSH20 0xFFFFFFFFFFFFFFFFFFFFFFFFFFFFFFFFFFFFFFFF AND EQ SWAP1 POP SWAP2 SWAP1 POP JUMP JUMPDEST PUSH4 0x1C47671B PUSH1 0xE0 SHL PUSH4 0xBDF9A726 PUSH1 0xE0 SHL PUSH4 0x58849734 PUSH1 0xE0 SHL PUSH4 0xA157A10D PUSH1 0xE0 SHL XOR XOR XOR PUSH2 0x1102 DUP2 CALLER PUSH1 0x0 CALLDATASIZE DUP1 DUP1 PUSH1 0x1F ADD PUSH1 0x20 DUP1 SWAP2 DIV MUL PUSH1 0x20 ADD PUSH1 0x40 MLOAD SWAP1 DUP2 ADD PUSH1 0x40 MSTORE DUP1 SWAP4 SWAP3 SWAP2 SWAP1 DUP2 DUP2 MSTORE PUSH1 0x20 ADD DUP4 DUP4 DUP1 DUP3 DUP5 CALLDATACOPY PUSH1 0x0 DUP2 DUP5 ADD MSTORE PUSH1 0x1F NOT PUSH1 0x1F DUP3 ADD AND SWAP1 POP DUP1 DUP4 ADD SWAP3 POP POP POP POP POP POP POP PUSH2 0x20E2 JUMP JUMPDEST PUSH2 0x1141 JUMPI PUSH1 0x40 MLOAD PUSH32 0x8C379A000000000000000000000000000000000000000000000000000000000 DUP2 MSTORE PUSH1 0x4 ADD PUSH2 0x1138 SWAP1 PUSH2 0x528D JUMP JUMPDEST PUSH1 0x40 MLOAD DUP1 SWAP2 SUB SWAP1 REVERT JUMPDEST PUSH2 0x114B DUP4 DUP4 PUSH2 0x22C6 JUMP JUMPDEST POP POP POP JUMP JUMPDEST PUSH1 0x0 PUSH4 0x7744EFDA PUSH1 0xE0 SHL PUSH2 0x11AA DUP2 CALLER PUSH1 0x0 CALLDATASIZE DUP1 DUP1 PUSH1 0x1F ADD PUSH1 0x20 DUP1 SWAP2 DIV MUL PUSH1 0x20 ADD PUSH1 0x40 MLOAD SWAP1 DUP2 ADD PUSH1 0x40 MSTORE DUP1 SWAP4 SWAP3 SWAP2 SWAP1 DUP2 DUP2 MSTORE PUSH1 0x20 ADD DUP4 DUP4 DUP1 DUP3 DUP5 CALLDATACOPY PUSH1 0x0 DUP2 DUP5 ADD MSTORE PUSH1 0x1F NOT PUSH1 0x1F DUP3 ADD AND SWAP1 POP DUP1 DUP4 ADD SWAP3 POP POP POP POP POP POP POP PUSH2 0x20E2 JUMP JUMPDEST PUSH2 0x11E9 JUMPI PUSH1 0x40 MLOAD PUSH32 0x8C379A000000000000000000000000000000000000000000000000000000000 DUP2 MSTORE PUSH1 0x4 ADD PUSH2 0x11E0 SWAP1 PUSH2 0x528D JUMP JUMPDEST PUSH1 0x40 MLOAD DUP1 SWAP2 SUB SWAP1 REVERT JUMPDEST PUSH2 0x11F2 DUP4 PUSH2 0x27F9 JUMP JUMPDEST SWAP2 POP POP SWAP2 SWAP1 POP JUMP JUMPDEST PUSH1 0x6 PUSH1 0x20 MSTORE DUP1 PUSH1 0x0 MSTORE PUSH1 0x40 PUSH1 0x0 KECCAK256 PUSH1 0x0 SWAP2 POP SWAP1 POP DUP1 PUSH1 0x0 ADD PUSH1 0x0 SWAP1 SLOAD SWAP1 PUSH2 0x100 EXP SWAP1 DIV PUSH1 0xFF AND SWAP1 POP DUP2 JUMP JUMPDEST PUSH4 0x1C47671B PUSH1 0xE0 SHL PUSH4 0xBDF9A726 PUSH1 0xE0 SHL PUSH4 0x58849734 PUSH1 0xE0 SHL PUSH4 0xA157A10D PUSH1 0xE0 SHL XOR XOR XOR DUP2 JUMP JUMPDEST DUP2 PUSH1 0x0 PUSH1 0x2 PUSH1 0x40 MLOAD PUSH2 0x125C SWAP1 PUSH2 0x4F44 JUMP JUMPDEST SWAP1 DUP2 MSTORE PUSH1 0x20 ADD PUSH1 0x40 MLOAD DUP1 SWAP2 SUB SWAP1 KECCAK256 SLOAD EQ ISZERO PUSH2 0x127F JUMPI PUSH2 0x127A DUP2 PUSH2 0x2B84 JUMP JUMPDEST PUSH2 0x13BF JUMP JUMPDEST PUSH1 0x2 PUSH20 0xFFFFFFFFFFFFFFFFFFFFFFFFFFFFFFFFFFFFFFFF AND PUSH1 0x3 PUSH1 0x0 PUSH4 0x1C47671B PUSH1 0xE0 SHL PUSH4 0xBDF9A726 PUSH1 0xE0 SHL PUSH4 0x58849734 PUSH1 0xE0 SHL PUSH4 0xA157A10D PUSH1 0xE0 SHL XOR XOR XOR PUSH28 0xFFFFFFFFFFFFFFFFFFFFFFFFFFFFFFFFFFFFFFFFFFFFFFFFFFFFFFFF NOT AND PUSH28 0xFFFFFFFFFFFFFFFFFFFFFFFFFFFFFFFFFFFFFFFFFFFFFFFFFFFFFFFF NOT AND DUP2 MSTORE PUSH1 0x20 ADD SWAP1 DUP2 MSTORE PUSH1 0x20 ADD PUSH1 0x0 KECCAK256 PUSH1 0x0 DUP4 PUSH20 0xFFFFFFFFFFFFFFFFFFFFFFFFFFFFFFFFFFFFFFFF AND PUSH20 0xFFFFFFFFFFFFFFFFFFFFFFFFFFFFFFFFFFFFFFFF AND DUP2 MSTORE PUSH1 0x20 ADD SWAP1 DUP2 MSTORE PUSH1 0x20 ADD PUSH1 0x0 KECCAK256 PUSH1 0x0 SWAP1 SLOAD SWAP1 PUSH2 0x100 EXP SWAP1 DIV PUSH20 0xFFFFFFFFFFFFFFFFFFFFFFFFFFFFFFFFFFFFFFFF AND PUSH20 0xFFFFFFFFFFFFFFFFFFFFFFFFFFFFFFFFFFFFFFFF AND EQ PUSH2 0x13BE JUMPI PUSH1 0x40 MLOAD PUSH32 0x8C379A000000000000000000000000000000000000000000000000000000000 DUP2 MSTORE PUSH1 0x4 ADD PUSH2 0x13B5 SWAP1 PUSH2 0x546D JUMP JUMPDEST PUSH1 0x40 MLOAD DUP1 SWAP2 SUB SWAP1 REVERT JUMPDEST JUMPDEST PUSH1 0x40 MLOAD DUP1 PUSH1 0x40 ADD PUSH1 0x40 MSTORE DUP1 PUSH1 0x5 DUP2 MSTORE PUSH1 0x20 ADD PUSH32 0x7175657565000000000000000000000000000000000000000000000000000000 DUP2 MSTORE POP PUSH1 0x0 PUSH1 0x2 DUP3 PUSH1 0x40 MLOAD PUSH2 0x1407 SWAP2 SWAP1 PUSH2 0x4F2D JUMP JUMPDEST SWAP1 DUP2 MSTORE PUSH1 0x20 ADD PUSH1 0x40 MLOAD DUP1 SWAP2 SUB SWAP1 KECCAK256 SLOAD EQ PUSH2 0x1456 JUMPI PUSH1 0x40 MLOAD PUSH32 0x8C379A000000000000000000000000000000000000000000000000000000000 DUP2 MSTORE PUSH1 0x4 ADD PUSH2 0x144D SWAP1 PUSH2 0x53CD JUMP JUMPDEST PUSH1 0x40 MLOAD DUP1 SWAP2 SUB SWAP1 REVERT JUMPDEST NUMBER PUSH1 0x2 DUP3 PUSH1 0x40 MLOAD PUSH2 0x1467 SWAP2 SWAP1 PUSH2 0x4F2D JUMP JUMPDEST SWAP1 DUP2 MSTORE PUSH1 0x20 ADD PUSH1 0x40 MLOAD DUP1 SWAP2 SUB SWAP1 KECCAK256 DUP2 SWAP1 SSTORE POP PUSH2 0x1482 DUP4 PUSH2 0x27F9 JUMP JUMPDEST POP PUSH2 0x14AC PUSH32 0xC2FF2BF000000000000000000000000000000000000000000000000000000000 PUSH2 0x2CB0 JUMP JUMPDEST DUP1 PUSH1 0x40 MLOAD PUSH2 0x14BA SWAP2 SWAP1 PUSH2 0x4F2D JUMP JUMPDEST PUSH1 0x40 MLOAD DUP1 SWAP2 SUB SWAP1 KECCAK256 PUSH32 0x7BC2A48A4A566E237A12186F19D985B0F76AFC9D5290601EDAC19876253670C2 PUSH1 0x40 MLOAD PUSH1 0x40 MLOAD DUP1 SWAP2 SUB SWAP1 LOG2 POP POP POP POP JUMP JUMPDEST PUSH1 0x3 PUSH1 0x20 MSTORE DUP2 PUSH1 0x0 MSTORE PUSH1 0x40 PUSH1 0x0 KECCAK256 PUSH1 0x20 MSTORE DUP1 PUSH1 0x0 MSTORE PUSH1 0x40 PUSH1 0x0 KECCAK256 PUSH1 0x0 SWAP2 POP SWAP2 POP SWAP1 SLOAD SWAP1 PUSH2 0x100 EXP SWAP1 DIV PUSH20 0xFFFFFFFFFFFFFFFFFFFFFFFFFFFFFFFFFFFFFFFF AND DUP2 JUMP JUMPDEST PUSH4 0x1C47671B PUSH1 0xE0 SHL PUSH4 0xBDF9A726 PUSH1 0xE0 SHL PUSH4 0x58849734 PUSH1 0xE0 SHL PUSH4 0xA157A10D PUSH1 0xE0 SHL XOR XOR XOR PUSH2 0x15A9 DUP2 CALLER PUSH1 0x0 CALLDATASIZE DUP1 DUP1 PUSH1 0x1F ADD PUSH1 0x20 DUP1 SWAP2 DIV MUL PUSH1 0x20 ADD PUSH1 0x40 MLOAD SWAP1 DUP2 ADD PUSH1 0x40 MSTORE DUP1 SWAP4 SWAP3 SWAP2 SWAP1 DUP2 DUP2 MSTORE PUSH1 0x20 ADD DUP4 DUP4 DUP1 DUP3 DUP5 CALLDATACOPY PUSH1 0x0 DUP2 DUP5 ADD MSTORE PUSH1 0x1F NOT PUSH1 0x1F DUP3 ADD AND SWAP1 POP DUP1 DUP4 ADD SWAP3 POP POP POP POP POP POP POP PUSH2 0x20E2 JUMP JUMPDEST PUSH2 0x15E8 JUMPI PUSH1 0x40 MLOAD PUSH32 0x8C379A000000000000000000000000000000000000000000000000000000000 DUP2 MSTORE PUSH1 0x4 ADD PUSH2 0x15DF SWAP1 PUSH2 0x528D JUMP JUMPDEST PUSH1 0x40 MLOAD DUP1 SWAP2 SUB SWAP1 REVERT JUMPDEST PUSH2 0x15F2 DUP4 DUP4 PUSH2 0x22B6 JUMP JUMPDEST POP POP POP JUMP JUMPDEST PUSH4 0x1C47671B PUSH1 0xE0 SHL PUSH4 0xBDF9A726 PUSH1 0xE0 SHL PUSH4 0x58849734 PUSH1 0xE0 SHL PUSH4 0xA157A10D PUSH1 0xE0 SHL XOR XOR XOR PUSH2 0x166A DUP2 CALLER PUSH1 0x0 CALLDATASIZE DUP1 DUP1 PUSH1 0x1F ADD PUSH1 0x20 DUP1 SWAP2 DIV MUL PUSH1 0x20 ADD PUSH1 0x40 MLOAD SWAP1 DUP2 ADD PUSH1 0x40 MSTORE DUP1 SWAP4 SWAP3 SWAP2 SWAP1 DUP2 DUP2 MSTORE PUSH1 0x20 ADD DUP4 DUP4 DUP1 DUP3 DUP5 CALLDATACOPY PUSH1 0x0 DUP2 DUP5 ADD MSTORE PUSH1 0x1F NOT PUSH1 0x1F DUP3 ADD AND SWAP1 POP DUP1 DUP4 ADD SWAP3 POP POP POP POP POP POP POP PUSH2 0x20E2 JUMP JUMPDEST PUSH2 0x16A9 JUMPI PUSH1 0x40 MLOAD PUSH32 0x8C379A000000000000000000000000000000000000000000000000000000000 DUP2 MSTORE PUSH1 0x4 ADD PUSH2 0x16A0 SWAP1 PUSH2 0x528D JUMP JUMPDEST PUSH1 0x40 MLOAD DUP1 SWAP2 SUB SWAP1 REVERT JUMPDEST PUSH2 0x16B4 DUP5 DUP5 DUP5 PUSH2 0x2D53 JUMP JUMPDEST POP POP POP POP JUMP JUMPDEST PUSH1 0x5 SLOAD DUP2 JUMP JUMPDEST PUSH1 0x0 PUSH1 0x60 PUSH1 0x0 PUSH2 0x16CF DUP6 PUSH2 0x212A JUMP JUMPDEST SWAP1 POP PUSH1 0x0 DUP6 PUSH1 0x20 ADD MLOAD PUSH1 0x60 ADD MLOAD SWAP1 POP PUSH1 0x1 DUP6 ADD PUSH1 0x8 PUSH1 0x0 DUP5 DUP2 MSTORE PUSH1 0x20 ADD SWAP1 DUP2 MSTORE PUSH1 0x20 ADD PUSH1 0x0 KECCAK256 PUSH1 0x0 DUP4 PUSH20 0xFFFFFFFFFFFFFFFFFFFFFFFFFFFFFFFFFFFFFFFF AND PUSH20 0xFFFFFFFFFFFFFFFFFFFFFFFFFFFFFFFFFFFFFFFF AND DUP2 MSTORE PUSH1 0x20 ADD SWAP1 DUP2 MSTORE PUSH1 0x20 ADD PUSH1 0x0 KECCAK256 SLOAD EQ PUSH2 0x1773 JUMPI PUSH1 0x40 MLOAD PUSH32 0x8C379A000000000000000000000000000000000000000000000000000000000 DUP2 MSTORE PUSH1 0x4 ADD PUSH2 0x176A SWAP1 PUSH2 0x52AD JUMP JUMPDEST PUSH1 0x40 MLOAD DUP1 SWAP2 SUB SWAP1 REVERT JUMPDEST PUSH1 0x8 PUSH1 0x0 DUP4 DUP2 MSTORE PUSH1 0x20 ADD SWAP1 DUP2 MSTORE PUSH1 0x20 ADD PUSH1 0x0 KECCAK256 PUSH1 0x0 DUP3 PUSH20 0xFFFFFFFFFFFFFFFFFFFFFFFFFFFFFFFFFFFFFFFF AND PUSH20 0xFFFFFFFFFFFFFFFFFFFFFFFFFFFFFFFFFFFFFFFF AND DUP2 MSTORE PUSH1 0x20 ADD SWAP1 DUP2 MSTORE PUSH1 0x20 ADD PUSH1 0x0 KECCAK256 PUSH1 0x0 SWAP1 SSTORE PUSH2 0x17ED PUSH1 0x2 PUSH1 0x6 PUSH1 0x0 DUP6 DUP2 MSTORE PUSH1 0x20 ADD SWAP1 DUP2 MSTORE PUSH1 0x20 ADD PUSH1 0x0 KECCAK256 PUSH2 0x2F63 SWAP1 SWAP2 SWAP1 PUSH4 0xFFFFFFFF AND JUMP JUMPDEST PUSH1 0x0 DUP1 DUP3 PUSH20 0xFFFFFFFFFFFFFFFFFFFFFFFFFFFFFFFFFFFFFFFF AND PUSH4 0xDB18AF6C DUP9 PUSH1 0x40 MLOAD DUP3 PUSH4 0xFFFFFFFF AND PUSH1 0xE0 SHL DUP2 MSTORE PUSH1 0x4 ADD PUSH2 0x1829 SWAP2 SWAP1 PUSH2 0x5533 JUMP JUMPDEST PUSH1 0x40 DUP1 MLOAD DUP1 DUP4 SUB DUP2 PUSH1 0x0 DUP8 DUP1 EXTCODESIZE ISZERO DUP1 ISZERO PUSH2 0x1842 JUMPI PUSH1 0x0 DUP1 REVERT JUMPDEST POP GAS CALL ISZERO DUP1 ISZERO PUSH2 0x1856 JUMPI RETURNDATASIZE PUSH1 0x0 DUP1 RETURNDATACOPY RETURNDATASIZE PUSH1 0x0 REVERT JUMPDEST POP POP POP POP PUSH1 0x40 MLOAD RETURNDATASIZE PUSH1 0x1F NOT PUSH1 0x1F DUP3 ADD AND DUP3 ADD DUP1 PUSH1 0x40 MSTORE POP DUP2 ADD SWAP1 PUSH2 0x187A SWAP2 SWAP1 PUSH2 0x3E5E JUMP JUMPDEST SWAP2 POP SWAP2 POP ADDRESS PUSH20 0xFFFFFFFFFFFFFFFFFFFFFFFFFFFFFFFFFFFFFFFF AND DUP3 PUSH20 0xFFFFFFFFFFFFFFFFFFFFFFFFFFFFFFFFFFFFFFFF AND EQ PUSH2 0x18EC JUMPI PUSH1 0x40 MLOAD PUSH32 0x8C379A000000000000000000000000000000000000000000000000000000000 DUP2 MSTORE PUSH1 0x4 ADD PUSH2 0x18E3 SWAP1 PUSH2 0x542D JUMP JUMPDEST PUSH1 0x40 MLOAD DUP1 SWAP2 SUB SWAP1 REVERT JUMPDEST PUSH1 0x0 PUSH1 0x4 DUP3 EQ SWAP1 POP PUSH2 0x1927 DUP2 PUSH2 0x1903 JUMPI PUSH1 0x4 PUSH2 0x1906 JUMP JUMPDEST PUSH1 0x3 JUMPDEST PUSH1 0x6 PUSH1 0x0 DUP9 DUP2 MSTORE PUSH1 0x20 ADD SWAP1 DUP2 MSTORE PUSH1 0x20 ADD PUSH1 0x0 KECCAK256 PUSH2 0x2FD0 SWAP1 SWAP2 SWAP1 PUSH4 0xFFFFFFFF AND JUMP JUMPDEST CALLER PUSH20 0xFFFFFFFFFFFFFFFFFFFFFFFFFFFFFFFFFFFFFFFF AND DUP6 PUSH32 0x27D8A5D945EB361475964ED2C71B8332B27AF2D630AB5DAF829D67AFD2584E6 DUP4 PUSH1 0x40 MLOAD PUSH2 0x196E SWAP2 SWAP1 PUSH2 0x50A8 JUMP JUMPDEST PUSH1 0x40 MLOAD DUP1 SWAP2 SUB SWAP1 LOG3 DUP8 DUP5 PUSH20 0xFFFFFFFFFFFFFFFFFFFFFFFFFFFFFFFFFFFFFFFF AND PUSH32 0x56C8631A8915C0D362DBE57A61215FDDE954F73F81C8A3A1F55572FB015207B1 DUP5 PUSH1 0x40 MLOAD PUSH2 0x19BD SWAP2 SWAP1 PUSH2 0x5533 JUMP JUMPDEST PUSH1 0x40 MLOAD DUP1 SWAP2 SUB SWAP1 LOG3 DUP1 ISZERO PUSH2 0x19E2 JUMPI PUSH2 0x19D4 DUP10 PUSH2 0x2FF9 JUMP JUMPDEST SWAP7 POP SWAP7 POP POP POP POP POP POP PUSH2 0x19F5 JUMP JUMPDEST PUSH2 0x19EB DUP10 PUSH2 0x30C6 JUMP JUMPDEST SWAP7 POP SWAP7 POP POP POP POP POP POP JUMPDEST SWAP3 POP SWAP3 SWAP1 POP JUMP JUMPDEST PUSH4 0x1C47671B PUSH1 0xE0 SHL PUSH4 0xBDF9A726 PUSH1 0xE0 SHL PUSH4 0x58849734 PUSH1 0xE0 SHL PUSH4 0xA157A10D PUSH1 0xE0 SHL XOR XOR XOR PUSH2 0x1A6F DUP2 CALLER PUSH1 0x0 CALLDATASIZE DUP1 DUP1 PUSH1 0x1F ADD PUSH1 0x20 DUP1 SWAP2 DIV MUL PUSH1 0x20 ADD PUSH1 0x40 MLOAD SWAP1 DUP2 ADD PUSH1 0x40 MSTORE DUP1 SWAP4 SWAP3 SWAP2 SWAP1 DUP2 DUP2 MSTORE PUSH1 0x20 ADD DUP4 DUP4 DUP1 DUP3 DUP5 CALLDATACOPY PUSH1 0x0 DUP2 DUP5 ADD MSTORE PUSH1 0x1F NOT PUSH1 0x1F DUP3 ADD AND SWAP1 POP DUP1 DUP4 ADD SWAP3 POP POP POP POP POP POP POP PUSH2 0x20E2 JUMP JUMPDEST PUSH2 0x1AAE JUMPI PUSH1 0x40 MLOAD PUSH32 0x8C379A000000000000000000000000000000000000000000000000000000000 DUP2 MSTORE PUSH1 0x4 ADD PUSH2 0x1AA5 SWAP1 PUSH2 0x528D JUMP JUMPDEST PUSH1 0x40 MLOAD DUP1 SWAP2 SUB SWAP1 REVERT JUMPDEST PUSH2 0x1AB7 DUP3 PUSH2 0x245B JUMP JUMPDEST POP POP JUMP JUMPDEST PUSH1 0x0 PUSH4 0xC1862A79 PUSH1 0xE0 SHL PUSH2 0x1B15 DUP2 CALLER PUSH1 0x0 CALLDATASIZE DUP1 DUP1 PUSH1 0x1F ADD PUSH1 0x20 DUP1 SWAP2 DIV MUL PUSH1 0x20 ADD PUSH1 0x40 MLOAD SWAP1 DUP2 ADD PUSH1 0x40 MSTORE DUP1 SWAP4 SWAP3 SWAP2 SWAP1 DUP2 DUP2 MSTORE PUSH1 0x20 ADD DUP4 DUP4 DUP1 DUP3 DUP5 CALLDATACOPY PUSH1 0x0 DUP2 DUP5 ADD MSTORE PUSH1 0x1F NOT PUSH1 0x1F DUP3 ADD AND SWAP1 POP DUP1 DUP4 ADD SWAP3 POP POP POP POP POP POP POP PUSH2 0x20E2 JUMP JUMPDEST PUSH2 0x1B54 JUMPI PUSH1 0x40 MLOAD PUSH32 0x8C379A000000000000000000000000000000000000000000000000000000000 DUP2 MSTORE PUSH1 0x4 ADD PUSH2 0x1B4B SWAP1 PUSH2 0x528D JUMP JUMPDEST PUSH1 0x40 MLOAD DUP1 SWAP2 SUB SWAP1 REVERT JUMPDEST PUSH1 0x5 PUSH1 0x0 DUP2 SLOAD PUSH1 0x1 ADD SWAP2 SWAP1 POP DUP2 SWAP1 SSTORE DUP4 PUSH1 0x0 ADD MLOAD PUSH1 0x0 ADD MLOAD EQ PUSH2 0x1BAC JUMPI PUSH1 0x40 MLOAD PUSH32 0x8C379A000000000000000000000000000000000000000000000000000000000 DUP2 MSTORE PUSH1 0x4 ADD PUSH2 0x1BA3 SWAP1 PUSH2 0x52CD JUMP JUMPDEST PUSH1 0x40 MLOAD DUP1 SWAP2 SUB SWAP1 REVERT JUMPDEST PUSH1 0x0 PUSH2 0x1BBB DUP5 PUSH1 0x20 ADD MLOAD PUSH2 0x20B2 JUMP JUMPDEST SWAP1 POP PUSH1 0x4 SLOAD DUP2 EQ PUSH2 0x1C01 JUMPI PUSH1 0x40 MLOAD PUSH32 0x8C379A000000000000000000000000000000000000000000000000000000000 DUP2 MSTORE PUSH1 0x4 ADD PUSH2 0x1BF8 SWAP1 PUSH2 0x526D JUMP JUMPDEST PUSH1 0x40 MLOAD DUP1 SWAP2 SUB SWAP1 REVERT JUMPDEST PUSH2 0x1C1C TIMESTAMP DUP6 PUSH1 0x20 ADD MLOAD PUSH1 0x0 ADD MLOAD PUSH2 0x31AB SWAP1 SWAP2 SWAP1 PUSH4 0xFFFFFFFF AND JUMP JUMPDEST DUP5 PUSH1 0x0 ADD MLOAD PUSH1 0x20 ADD MLOAD LT ISZERO PUSH2 0x1C66 JUMPI PUSH1 0x40 MLOAD PUSH32 0x8C379A000000000000000000000000000000000000000000000000000000000 DUP2 MSTORE PUSH1 0x4 ADD PUSH2 0x1C5D SWAP1 PUSH2 0x52ED JUMP JUMPDEST PUSH1 0x40 MLOAD DUP1 SWAP2 SUB SWAP1 REVERT JUMPDEST CALLER PUSH20 0xFFFFFFFFFFFFFFFFFFFFFFFFFFFFFFFFFFFFFFFF AND DUP5 PUSH1 0x0 ADD MLOAD PUSH1 0x40 ADD MLOAD PUSH20 0xFFFFFFFFFFFFFFFFFFFFFFFFFFFFFFFFFFFFFFFF AND EQ PUSH2 0x1CDC JUMPI PUSH1 0x40 MLOAD PUSH32 0x8C379A000000000000000000000000000000000000000000000000000000000 DUP2 MSTORE PUSH1 0x4 ADD PUSH2 0x1CD3 SWAP1 PUSH2 0x534D JUMP JUMPDEST PUSH1 0x40 MLOAD DUP1 SWAP2 SUB SWAP1 REVERT JUMPDEST PUSH1 0x0 CALLDATASIZE SWAP1 POP DUP5 PUSH1 0x20 ADD MLOAD PUSH1 0xA0 ADD MLOAD DUP2 GT ISZERO PUSH2 0x1D2C JUMPI PUSH1 0x40 MLOAD PUSH32 0x8C379A000000000000000000000000000000000000000000000000000000000 DUP2 MSTORE PUSH1 0x4 ADD PUSH2 0x1D23 SWAP1 PUSH2 0x544D JUMP JUMPDEST PUSH1 0x40 MLOAD DUP1 SWAP2 SUB SWAP1 REVERT JUMPDEST PUSH1 0x0 DUP1 SWAP1 POP JUMPDEST DUP6 PUSH1 0x0 ADD MLOAD PUSH1 0x80 ADD MLOAD MLOAD DUP2 LT ISZERO PUSH2 0x1E3F JUMPI PUSH1 0x0 DUP7 PUSH1 0x0 ADD MLOAD PUSH1 0x80 ADD MLOAD DUP3 DUP2 MLOAD DUP2 LT PUSH2 0x1D59 JUMPI INVALID JUMPDEST PUSH1 0x20 MUL PUSH1 0x20 ADD ADD MLOAD PUSH1 0x0 ADD MLOAD SWAP1 POP DUP1 PUSH20 0xFFFFFFFFFFFFFFFFFFFFFFFFFFFFFFFFFFFFFFFF AND PUSH4 0x85C99E2B CALLER PUSH1 0x40 MLOAD DUP3 PUSH4 0xFFFFFFFF AND PUSH1 0xE0 SHL DUP2 MSTORE PUSH1 0x4 ADD PUSH2 0x1DA0 SWAP2 SWAP1 PUSH2 0x4FCD JUMP JUMPDEST PUSH1 0x20 PUSH1 0x40 MLOAD DUP1 DUP4 SUB DUP2 PUSH1 0x0 DUP8 DUP1 EXTCODESIZE ISZERO DUP1 ISZERO PUSH2 0x1DBA JUMPI PUSH1 0x0 DUP1 REVERT JUMPDEST POP GAS CALL ISZERO DUP1 ISZERO PUSH2 0x1DCE JUMPI RETURNDATASIZE PUSH1 0x0 DUP1 RETURNDATACOPY RETURNDATASIZE PUSH1 0x0 REVERT JUMPDEST POP POP POP POP PUSH1 0x40 MLOAD RETURNDATASIZE PUSH1 0x1F NOT PUSH1 0x1F DUP3 ADD AND DUP3 ADD DUP1 PUSH1 0x40 MSTORE POP DUP2 ADD SWAP1 PUSH2 0x1DF2 SWAP2 SWAP1 PUSH2 0x3EDF JUMP JUMPDEST PUSH2 0x1E31 JUMPI PUSH1 0x40 MLOAD PUSH32 0x8C379A000000000000000000000000000000000000000000000000000000000 DUP2 MSTORE PUSH1 0x4 ADD PUSH2 0x1E28 SWAP1 PUSH2 0x538D JUMP JUMPDEST PUSH1 0x40 MLOAD DUP1 SWAP2 SUB SWAP1 REVERT JUMPDEST POP DUP1 DUP1 PUSH1 0x1 ADD SWAP2 POP POP PUSH2 0x1D32 JUMP JUMPDEST POP PUSH2 0x1E56 PUSH2 0x1E50 DUP7 PUSH1 0x0 ADD MLOAD PUSH2 0x31FB JUMP JUMPDEST DUP4 PUSH2 0x3280 JUMP JUMPDEST SWAP4 POP PUSH2 0x1E81 PUSH1 0x0 PUSH1 0x1 PUSH1 0x6 PUSH1 0x0 DUP9 DUP2 MSTORE PUSH1 0x20 ADD SWAP1 DUP2 MSTORE PUSH1 0x20 ADD PUSH1 0x0 KECCAK256 PUSH2 0x2155 SWAP1 SWAP3 SWAP2 SWAP1 PUSH4 0xFFFFFFFF AND JUMP JUMPDEST PUSH2 0x1E89 PUSH2 0x3701 JUMP JUMPDEST DUP6 PUSH1 0x20 ADD MLOAD PUSH1 0x20 ADD MLOAD SWAP1 POP PUSH2 0x1EAF DUP7 PUSH1 0x0 ADD MLOAD PUSH1 0x40 ADD MLOAD DUP3 PUSH2 0x25D9 SWAP1 SWAP2 SWAP1 PUSH4 0xFFFFFFFF AND JUMP JUMPDEST DUP5 PUSH32 0xEC86306F95DE4940876CE5E76FAC6A93A32A6D720735BE72B86D00524E3EA595 DUP8 PUSH1 0x0 ADD MLOAD PUSH1 0x40 MLOAD PUSH2 0x1EE3 SWAP2 SWAP1 PUSH2 0x5511 JUMP JUMPDEST PUSH1 0x40 MLOAD DUP1 SWAP2 SUB SWAP1 LOG2 POP POP POP POP SWAP2 SWAP1 POP JUMP JUMPDEST PUSH1 0x7 PUSH1 0x20 MSTORE DUP1 PUSH1 0x0 MSTORE PUSH1 0x40 PUSH1 0x0 KECCAK256 PUSH1 0x0 SWAP2 POP SLOAD SWAP1 PUSH2 0x100 EXP SWAP1 DIV PUSH20 0xFFFFFFFFFFFFFFFFFFFFFFFFFFFFFFFFFFFFFFFF AND DUP2 JUMP JUMPDEST PUSH1 0x2 DUP2 DUP1 MLOAD PUSH1 0x20 DUP2 ADD DUP3 ADD DUP1 MLOAD DUP5 DUP3 MSTORE PUSH1 0x20 DUP4 ADD PUSH1 0x20 DUP6 ADD KECCAK256 DUP2 DUP4 MSTORE DUP1 SWAP6 POP POP POP POP POP POP PUSH1 0x0 SWAP2 POP SWAP1 POP SLOAD DUP2 JUMP JUMPDEST PUSH1 0x4 SLOAD DUP2 JUMP JUMPDEST PUSH1 0x0 PUSH1 0x60 PUSH4 0xF87983B9 PUSH1 0xE0 SHL PUSH2 0x1FB7 DUP2 CALLER PUSH1 0x0 CALLDATASIZE DUP1 DUP1 PUSH1 0x1F ADD PUSH1 0x20 DUP1 SWAP2 DIV MUL PUSH1 0x20 ADD PUSH1 0x40 MLOAD SWAP1 DUP2 ADD PUSH1 0x40 MSTORE DUP1 SWAP4 SWAP3 SWAP2 SWAP1 DUP2 DUP2 MSTORE PUSH1 0x20 ADD DUP4 DUP4 DUP1 DUP3 DUP5 CALLDATACOPY PUSH1 0x0 DUP2 DUP5 ADD MSTORE PUSH1 0x1F NOT PUSH1 0x1F DUP3 ADD AND SWAP1 POP DUP1 DUP4 ADD SWAP3 POP POP POP POP POP POP POP PUSH2 0x20E2 JUMP JUMPDEST PUSH2 0x1FF6 JUMPI PUSH1 0x40 MLOAD PUSH32 0x8C379A000000000000000000000000000000000000000000000000000000000 DUP2 MSTORE PUSH1 0x4 ADD PUSH2 0x1FED SWAP1 PUSH2 0x528D JUMP JUMPDEST PUSH1 0x40 MLOAD DUP1 SWAP2 SUB SWAP1 REVERT JUMPDEST DUP4 PUSH1 0x0 ADD MLOAD PUSH1 0x20 ADD MLOAD TIMESTAMP LT ISZERO PUSH2 0x2041 JUMPI PUSH1 0x40 MLOAD PUSH32 0x8C379A000000000000000000000000000000000000000000000000000000000 DUP2 MSTORE PUSH1 0x4 ADD PUSH2 0x2038 SWAP1 PUSH2 0x53ED JUMP JUMPDEST PUSH1 0x40 MLOAD DUP1 SWAP2 SUB SWAP1 REVERT JUMPDEST PUSH1 0x0 PUSH2 0x204C DUP6 PUSH2 0x212A JUMP JUMPDEST SWAP1 POP PUSH2 0x2076 PUSH1 0x1 PUSH1 0x6 DUP1 PUSH1 0x0 DUP6 DUP2 MSTORE PUSH1 0x20 ADD SWAP1 DUP2 MSTORE PUSH1 0x20 ADD PUSH1 0x0 KECCAK256 PUSH2 0x2155 SWAP1 SWAP3 SWAP2 SWAP1 PUSH4 0xFFFFFFFF AND JUMP JUMPDEST PUSH2 0x2099 DUP6 PUSH1 0x0 ADD MLOAD PUSH1 0x40 ADD MLOAD DUP7 PUSH1 0x20 ADD MLOAD PUSH1 0x20 ADD MLOAD PUSH2 0x216E SWAP1 SWAP2 SWAP1 PUSH4 0xFFFFFFFF AND JUMP JUMPDEST PUSH2 0x20A7 DUP6 PUSH1 0x0 ADD MLOAD DUP3 PUSH2 0x32BC JUMP JUMPDEST SWAP4 POP SWAP4 POP POP POP SWAP2 POP SWAP2 JUMP JUMPDEST PUSH1 0x0 DUP2 PUSH1 0x40 MLOAD PUSH1 0x20 ADD PUSH2 0x20C5 SWAP2 SWAP1 PUSH2 0x54CD JUMP JUMPDEST PUSH1 0x40 MLOAD PUSH1 0x20 DUP2 DUP4 SUB SUB DUP2 MSTORE SWAP1 PUSH1 0x40 MSTORE DUP1 MLOAD SWAP1 PUSH1 0x20 ADD KECCAK256 SWAP1 POP SWAP2 SWAP1 POP JUMP JUMPDEST PUSH1 0x0 PUSH2 0x20EF DUP5 DUP5 DUP5 PUSH2 0x33AF JUMP JUMPDEST DUP1 PUSH2 0x2121 JUMPI POP PUSH2 0x2120 DUP5 PUSH32 0xFFFFFFFFFFFFFFFFFFFFFFFFFFFFFFFFFFFFFFFFFFFFFFFFFFFFFFFFFFFFFFFF DUP5 PUSH2 0x33AF JUMP JUMPDEST JUMPDEST SWAP1 POP SWAP4 SWAP3 POP POP POP JUMP JUMPDEST PUSH1 0x0 PUSH2 0x214E PUSH2 0x213C DUP4 PUSH1 0x0 ADD MLOAD PUSH2 0x31FB JUMP JUMPDEST PUSH2 0x2149 DUP5 PUSH1 0x20 ADD MLOAD PUSH2 0x20B2 JUMP JUMPDEST PUSH2 0x3280 JUMP JUMPDEST SWAP1 POP SWAP2 SWAP1 POP JUMP JUMPDEST PUSH2 0x215F DUP4 DUP4 PUSH2 0x2F63 JUMP JUMPDEST PUSH2 0x2169 DUP4 DUP3 PUSH2 0x2FD0 JUMP JUMPDEST POP POP POP JUMP JUMPDEST PUSH1 0x0 DUP3 PUSH1 0x20 ADD MLOAD GT ISZERO PUSH2 0x2261 JUMPI PUSH1 0x0 DUP3 PUSH1 0x0 ADD MLOAD SWAP1 POP PUSH2 0x21B3 DUP3 DUP5 PUSH1 0x20 ADD MLOAD DUP4 PUSH20 0xFFFFFFFFFFFFFFFFFFFFFFFFFFFFFFFFFFFFFFFF AND PUSH2 0x3588 SWAP1 SWAP3 SWAP2 SWAP1 PUSH4 0xFFFFFFFF AND JUMP JUMPDEST PUSH2 0x21F2 JUMPI PUSH1 0x40 MLOAD PUSH32 0x8C379A000000000000000000000000000000000000000000000000000000000 DUP2 MSTORE PUSH1 0x4 ADD PUSH2 0x21E9 SWAP1 PUSH2 0x522D JUMP JUMPDEST PUSH1 0x40 MLOAD DUP1 SWAP2 SUB SWAP1 REVERT JUMPDEST DUP2 PUSH20 0xFFFFFFFFFFFFFFFFFFFFFFFFFFFFFFFFFFFFFFFF AND DUP4 PUSH1 0x0 ADD MLOAD PUSH20 0xFFFFFFFFFFFFFFFFFFFFFFFFFFFFFFFFFFFFFFFF AND PUSH32 0xE6E0EF9CD056CA98561CA60E347ADA61E1EDE2F1142A078951B7A52E1E508E60 DUP6 PUSH1 0x20 ADD MLOAD PUSH1 0x40 MLOAD PUSH2 0x2257 SWAP2 SWAP1 PUSH2 0x5533 JUMP JUMPDEST PUSH1 0x40 MLOAD DUP1 SWAP2 SUB SWAP1 LOG3 POP JUMPDEST POP POP JUMP JUMPDEST PUSH1 0x0 PUSH4 0x1FFC9A7 PUSH1 0xE0 SHL PUSH28 0xFFFFFFFFFFFFFFFFFFFFFFFFFFFFFFFFFFFFFFFFFFFFFFFFFFFFFFFF NOT AND DUP3 PUSH28 0xFFFFFFFFFFFFFFFFFFFFFFFFFFFFFFFFFFFFFFFFFFFFFFFFFFFFFFFF NOT AND EQ SWAP1 POP SWAP2 SWAP1 POP JUMP JUMPDEST PUSH2 0x22C2 DUP3 DUP3 PUSH1 0x2 PUSH2 0x2D53 JUMP JUMPDEST POP POP JUMP JUMPDEST PUSH2 0x22CF DUP3 PUSH2 0xFA7 JUMP JUMPDEST ISZERO PUSH2 0x230F JUMPI PUSH1 0x40 MLOAD PUSH32 0x8C379A000000000000000000000000000000000000000000000000000000000 DUP2 MSTORE PUSH1 0x4 ADD PUSH2 0x2306 SWAP1 PUSH2 0x536D JUMP JUMPDEST PUSH1 0x40 MLOAD DUP1 SWAP2 SUB SWAP1 REVERT JUMPDEST PUSH1 0x0 PUSH1 0x3 PUSH1 0x0 DUP5 PUSH28 0xFFFFFFFFFFFFFFFFFFFFFFFFFFFFFFFFFFFFFFFFFFFFFFFFFFFFFFFF NOT AND PUSH28 0xFFFFFFFFFFFFFFFFFFFFFFFFFFFFFFFFFFFFFFFFFFFFFFFFFFFFFFFF NOT AND DUP2 MSTORE PUSH1 0x20 ADD SWAP1 DUP2 MSTORE PUSH1 0x20 ADD PUSH1 0x0 KECCAK256 PUSH1 0x0 DUP4 PUSH20 0xFFFFFFFFFFFFFFFFFFFFFFFFFFFFFFFFFFFFFFFF AND PUSH20 0xFFFFFFFFFFFFFFFFFFFFFFFFFFFFFFFFFFFFFFFF AND DUP2 MSTORE PUSH1 0x20 ADD SWAP1 DUP2 MSTORE PUSH1 0x20 ADD PUSH1 0x0 KECCAK256 PUSH1 0x0 PUSH2 0x100 EXP DUP2 SLOAD DUP2 PUSH20 0xFFFFFFFFFFFFFFFFFFFFFFFFFFFFFFFFFFFFFFFF MUL NOT AND SWAP1 DUP4 PUSH20 0xFFFFFFFFFFFFFFFFFFFFFFFFFFFFFFFFFFFFFFFF AND MUL OR SWAP1 SSTORE POP DUP1 PUSH20 0xFFFFFFFFFFFFFFFFFFFFFFFFFFFFFFFFFFFFFFFF AND CALLER PUSH20 0xFFFFFFFFFFFFFFFFFFFFFFFFFFFFFFFFFFFFFFFF AND DUP4 PUSH28 0xFFFFFFFFFFFFFFFFFFFFFFFFFFFFFFFFFFFFFFFFFFFFFFFFFFFFFFFF NOT AND PUSH32 0x682F2C466C1E9F6883EB72CBCED01373E1CB18B05AE5C8BC04DC73D73E29F8CD PUSH1 0x40 MLOAD PUSH1 0x40 MLOAD DUP1 SWAP2 SUB SWAP1 LOG4 POP POP JUMP JUMPDEST PUSH2 0x2464 DUP2 PUSH2 0xFA7 JUMP JUMPDEST ISZERO PUSH2 0x24A4 JUMPI PUSH1 0x40 MLOAD PUSH32 0x8C379A000000000000000000000000000000000000000000000000000000000 DUP2 MSTORE PUSH1 0x4 ADD PUSH2 0x249B SWAP1 PUSH2 0x536D JUMP JUMPDEST PUSH1 0x40 MLOAD DUP1 SWAP2 SUB SWAP1 REVERT JUMPDEST PUSH1 0x1 PUSH1 0x3 PUSH1 0x0 DUP4 PUSH28 0xFFFFFFFFFFFFFFFFFFFFFFFFFFFFFFFFFFFFFFFFFFFFFFFFFFFFFFFF NOT AND PUSH28 0xFFFFFFFFFFFFFFFFFFFFFFFFFFFFFFFFFFFFFFFFFFFFFFFFFFFFFFFF NOT AND DUP2 MSTORE PUSH1 0x20 ADD SWAP1 DUP2 MSTORE PUSH1 0x20 ADD PUSH1 0x0 KECCAK256 PUSH1 0x0 PUSH1 0x1 PUSH20 0xFFFFFFFFFFFFFFFFFFFFFFFFFFFFFFFFFFFFFFFF AND PUSH20 0xFFFFFFFFFFFFFFFFFFFFFFFFFFFFFFFFFFFFFFFF AND DUP2 MSTORE PUSH1 0x20 ADD SWAP1 DUP2 MSTORE PUSH1 0x20 ADD PUSH1 0x0 KECCAK256 PUSH1 0x0 PUSH2 0x100 EXP DUP2 SLOAD DUP2 PUSH20 0xFFFFFFFFFFFFFFFFFFFFFFFFFFFFFFFFFFFFFFFF MUL NOT AND SWAP1 DUP4 PUSH20 0xFFFFFFFFFFFFFFFFFFFFFFFFFFFFFFFFFFFFFFFF AND MUL OR SWAP1 SSTORE POP CALLER PUSH20 0xFFFFFFFFFFFFFFFFFFFFFFFFFFFFFFFFFFFFFFFF AND DUP2 PUSH28 0xFFFFFFFFFFFFFFFFFFFFFFFFFFFFFFFFFFFFFFFFFFFFFFFFFFFFFFFF NOT AND PUSH32 0x49C6B8B07A879425742523FA80F8FFB25E39AD518C93A5896A0DF19518397E5 PUSH1 0x40 MLOAD PUSH1 0x40 MLOAD DUP1 SWAP2 SUB SWAP1 LOG3 POP JUMP JUMPDEST PUSH1 0x0 DUP3 PUSH1 0x20 ADD MLOAD GT ISZERO PUSH2 0x26CE JUMPI PUSH1 0x0 DUP3 PUSH1 0x0 ADD MLOAD SWAP1 POP PUSH2 0x2620 DUP3 ADDRESS DUP6 PUSH1 0x20 ADD MLOAD DUP5 PUSH20 0xFFFFFFFFFFFFFFFFFFFFFFFFFFFFFFFFFFFFFFFF AND PUSH2 0x26D2 SWAP1 SWAP4 SWAP3 SWAP2 SWAP1 PUSH4 0xFFFFFFFF AND JUMP JUMPDEST PUSH2 0x265F JUMPI PUSH1 0x40 MLOAD PUSH32 0x8C379A000000000000000000000000000000000000000000000000000000000 DUP2 MSTORE PUSH1 0x4 ADD PUSH2 0x2656 SWAP1 PUSH2 0x540D JUMP JUMPDEST PUSH1 0x40 MLOAD DUP1 SWAP2 SUB SWAP1 REVERT JUMPDEST DUP2 PUSH20 0xFFFFFFFFFFFFFFFFFFFFFFFFFFFFFFFFFFFFFFFF AND DUP4 PUSH1 0x0 ADD MLOAD PUSH20 0xFFFFFFFFFFFFFFFFFFFFFFFFFFFFFFFFFFFFFFFF AND PUSH32 0x989EAA915CBB416EA3D6F9A63B1A3DE51770C7674B11FE21ECDF76B4E1D13910 DUP6 PUSH1 0x20 ADD MLOAD PUSH1 0x40 MLOAD PUSH2 0x26C4 SWAP2 SWAP1 PUSH2 0x5533 JUMP JUMPDEST PUSH1 0x40 MLOAD DUP1 SWAP2 SUB SWAP1 LOG3 POP JUMPDEST POP POP JUMP JUMPDEST PUSH1 0x0 PUSH1 0x60 PUSH4 0x23B872DD PUSH1 0xE0 SHL DUP6 DUP6 DUP6 PUSH1 0x40 MLOAD PUSH1 0x24 ADD PUSH2 0x26F3 SWAP4 SWAP3 SWAP2 SWAP1 PUSH2 0x4FE8 JUMP JUMPDEST PUSH1 0x40 MLOAD PUSH1 0x20 DUP2 DUP4 SUB SUB DUP2 MSTORE SWAP1 PUSH1 0x40 MSTORE SWAP1 PUSH28 0xFFFFFFFFFFFFFFFFFFFFFFFFFFFFFFFFFFFFFFFFFFFFFFFFFFFFFFFF NOT AND PUSH1 0x20 DUP3 ADD DUP1 MLOAD PUSH28 0xFFFFFFFFFFFFFFFFFFFFFFFFFFFFFFFFFFFFFFFFFFFFFFFFFFFFFFFF DUP4 DUP2 DUP4 AND OR DUP4 MSTORE POP POP POP POP SWAP1 POP PUSH2 0x275C DUP7 DUP3 PUSH2 0x361A JUMP JUMPDEST SWAP2 POP POP SWAP5 SWAP4 POP POP POP POP JUMP JUMPDEST PUSH1 0x0 PUSH1 0x60 PUSH4 0x95EA7B3 PUSH1 0xE0 SHL DUP5 DUP5 PUSH1 0x40 MLOAD PUSH1 0x24 ADD PUSH2 0x2786 SWAP3 SWAP2 SWAP1 PUSH2 0x501F JUMP JUMPDEST PUSH1 0x40 MLOAD PUSH1 0x20 DUP2 DUP4 SUB SUB DUP2 MSTORE SWAP1 PUSH1 0x40 MSTORE SWAP1 PUSH28 0xFFFFFFFFFFFFFFFFFFFFFFFFFFFFFFFFFFFFFFFFFFFFFFFFFFFFFFFF NOT AND PUSH1 0x20 DUP3 ADD DUP1 MLOAD PUSH28 0xFFFFFFFFFFFFFFFFFFFFFFFFFFFFFFFFFFFFFFFFFFFFFFFFFFFFFFFF DUP4 DUP2 DUP4 AND OR DUP4 MSTORE POP POP POP POP SWAP1 POP PUSH2 0x27EF DUP6 DUP3 PUSH2 0x361A JUMP JUMPDEST SWAP2 POP POP SWAP4 SWAP3 POP POP POP JUMP JUMPDEST PUSH1 0x0 DUP1 DUP3 PUSH1 0x40 ADD MLOAD PUSH1 0x20 ADD MLOAD EQ ISZERO DUP1 ISZERO PUSH2 0x2848 JUMPI POP PUSH1 0x0 PUSH20 0xFFFFFFFFFFFFFFFFFFFFFFFFFFFFFFFFFFFFFFFF AND DUP3 PUSH1 0x40 ADD MLOAD PUSH1 0x0 ADD MLOAD PUSH20 0xFFFFFFFFFFFFFFFFFFFFFFFFFFFFFFFFFFFFFFFF AND EQ ISZERO JUMPDEST ISZERO PUSH2 0x298A JUMPI PUSH1 0x0 PUSH1 0x60 DUP4 PUSH1 0x40 ADD MLOAD PUSH1 0x0 ADD MLOAD PUSH20 0xFFFFFFFFFFFFFFFFFFFFFFFFFFFFFFFFFFFFFFFF AND PUSH4 0x70A08231 PUSH1 0xE0 SHL ADDRESS PUSH1 0x40 MLOAD PUSH1 0x24 ADD PUSH2 0x2889 SWAP2 SWAP1 PUSH2 0x4FB2 JUMP JUMPDEST PUSH1 0x40 MLOAD PUSH1 0x20 DUP2 DUP4 SUB SUB DUP2 MSTORE SWAP1 PUSH1 0x40 MSTORE SWAP1 PUSH28 0xFFFFFFFFFFFFFFFFFFFFFFFFFFFFFFFFFFFFFFFFFFFFFFFFFFFFFFFF NOT AND PUSH1 0x20 DUP3 ADD DUP1 MLOAD PUSH28 0xFFFFFFFFFFFFFFFFFFFFFFFFFFFFFFFFFFFFFFFFFFFFFFFFFFFFFFFF DUP4 DUP2 DUP4 AND OR DUP4 MSTORE POP POP POP POP PUSH1 0x40 MLOAD PUSH2 0x28F3 SWAP2 SWAP1 PUSH2 0x4F16 JUMP JUMPDEST PUSH1 0x0 PUSH1 0x40 MLOAD DUP1 DUP4 SUB DUP2 PUSH1 0x0 DUP7 GAS CALL SWAP2 POP POP RETURNDATASIZE DUP1 PUSH1 0x0 DUP2 EQ PUSH2 0x2930 JUMPI PUSH1 0x40 MLOAD SWAP2 POP PUSH1 0x1F NOT PUSH1 0x3F RETURNDATASIZE ADD AND DUP3 ADD PUSH1 0x40 MSTORE RETURNDATASIZE DUP3 MSTORE RETURNDATASIZE PUSH1 0x0 PUSH1 0x20 DUP5 ADD RETURNDATACOPY PUSH2 0x2935 JUMP JUMPDEST PUSH1 0x60 SWAP2 POP JUMPDEST POP SWAP2 POP SWAP2 POP DUP2 DUP1 ISZERO PUSH2 0x2948 JUMPI POP PUSH1 0x0 DUP2 MLOAD GT JUMPDEST PUSH2 0x2987 JUMPI PUSH1 0x40 MLOAD PUSH32 0x8C379A000000000000000000000000000000000000000000000000000000000 DUP2 MSTORE PUSH1 0x4 ADD PUSH2 0x297E SWAP1 PUSH2 0x526D JUMP JUMPDEST PUSH1 0x40 MLOAD DUP1 SWAP2 SUB SWAP1 REVERT JUMPDEST POP POP JUMPDEST PUSH1 0x0 DUP3 PUSH1 0x20 ADD MLOAD PUSH1 0x20 ADD MLOAD EQ ISZERO DUP1 ISZERO PUSH2 0x29D8 JUMPI POP PUSH1 0x0 PUSH20 0xFFFFFFFFFFFFFFFFFFFFFFFFFFFFFFFFFFFFFFFF AND DUP3 PUSH1 0x20 ADD MLOAD PUSH1 0x0 ADD MLOAD PUSH20 0xFFFFFFFFFFFFFFFFFFFFFFFFFFFFFFFFFFFFFFFF AND EQ ISZERO JUMPDEST ISZERO PUSH2 0x2B1A JUMPI PUSH1 0x0 PUSH1 0x60 DUP4 PUSH1 0x20 ADD MLOAD PUSH1 0x0 ADD MLOAD PUSH20 0xFFFFFFFFFFFFFFFFFFFFFFFFFFFFFFFFFFFFFFFF AND PUSH4 0x70A08231 PUSH1 0xE0 SHL ADDRESS PUSH1 0x40 MLOAD PUSH1 0x24 ADD PUSH2 0x2A19 SWAP2 SWAP1 PUSH2 0x4FB2 JUMP JUMPDEST PUSH1 0x40 MLOAD PUSH1 0x20 DUP2 DUP4 SUB SUB DUP2 MSTORE SWAP1 PUSH1 0x40 MSTORE SWAP1 PUSH28 0xFFFFFFFFFFFFFFFFFFFFFFFFFFFFFFFFFFFFFFFFFFFFFFFFFFFFFFFF NOT AND PUSH1 0x20 DUP3 ADD DUP1 MLOAD PUSH28 0xFFFFFFFFFFFFFFFFFFFFFFFFFFFFFFFFFFFFFFFFFFFFFFFFFFFFFFFF DUP4 DUP2 DUP4 AND OR DUP4 MSTORE POP POP POP POP PUSH1 0x40 MLOAD PUSH2 0x2A83 SWAP2 SWAP1 PUSH2 0x4F16 JUMP JUMPDEST PUSH1 0x0 PUSH1 0x40 MLOAD DUP1 DUP4 SUB DUP2 PUSH1 0x0 DUP7 GAS CALL SWAP2 POP POP RETURNDATASIZE DUP1 PUSH1 0x0 DUP2 EQ PUSH2 0x2AC0 JUMPI PUSH1 0x40 MLOAD SWAP2 POP PUSH1 0x1F NOT PUSH1 0x3F RETURNDATASIZE ADD AND DUP3 ADD PUSH1 0x40 MSTORE RETURNDATASIZE DUP3 MSTORE RETURNDATASIZE PUSH1 0x0 PUSH1 0x20 DUP5 ADD RETURNDATACOPY PUSH2 0x2AC5 JUMP JUMPDEST PUSH1 0x60 SWAP2 POP JUMPDEST POP SWAP2 POP SWAP2 POP DUP2 DUP1 ISZERO PUSH2 0x2AD8 JUMPI POP PUSH1 0x0 DUP2 MLOAD GT JUMPDEST PUSH2 0x2B17 JUMPI PUSH1 0x40 MLOAD PUSH32 0x8C379A000000000000000000000000000000000000000000000000000000000 DUP2 MSTORE PUSH1 0x4 ADD PUSH2 0x2B0E SWAP1 PUSH2 0x526D JUMP JUMPDEST PUSH1 0x40 MLOAD DUP1 SWAP2 SUB SWAP1 REVERT JUMPDEST POP POP JUMPDEST PUSH2 0x2B23 DUP3 PUSH2 0x20B2 JUMP JUMPDEST PUSH1 0x4 DUP2 SWAP1 SSTORE POP CALLER PUSH20 0xFFFFFFFFFFFFFFFFFFFFFFFFFFFFFFFFFFFFFFFF AND PUSH1 0x4 SLOAD PUSH32 0x844435C59F7CCDF12DE134E8F9B3B7D664FE9F06E3263680779599BA4097BC3F DUP5 PUSH1 0x40 MLOAD PUSH2 0x2B72 SWAP2 SWAP1 PUSH2 0x54CD JUMP JUMPDEST PUSH1 0x40 MLOAD DUP1 SWAP2 SUB SWAP1 LOG3 PUSH1 0x4 SLOAD SWAP1 POP SWAP2 SWAP1 POP JUMP JUMPDEST PUSH1 0x40 MLOAD DUP1 PUSH1 0x40 ADD PUSH1 0x40 MSTORE DUP1 PUSH1 0x3 DUP2 MSTORE PUSH1 0x20 ADD PUSH32 0x61636C0000000000000000000000000000000000000000000000000000000000 DUP2 MSTORE POP PUSH1 0x0 PUSH1 0x2 DUP3 PUSH1 0x40 MLOAD PUSH2 0x2BCC SWAP2 SWAP1 PUSH2 0x4F2D JUMP JUMPDEST SWAP1 DUP2 MSTORE PUSH1 0x20 ADD PUSH1 0x40 MLOAD DUP1 SWAP2 SUB SWAP1 KECCAK256 SLOAD EQ PUSH2 0x2C1B JUMPI PUSH1 0x40 MLOAD PUSH32 0x8C379A000000000000000000000000000000000000000000000000000000000 DUP2 MSTORE PUSH1 0x4 ADD PUSH2 0x2C12 SWAP1 PUSH2 0x53CD JUMP JUMPDEST PUSH1 0x40 MLOAD DUP1 SWAP2 SUB SWAP1 REVERT JUMPDEST NUMBER PUSH1 0x2 DUP3 PUSH1 0x40 MLOAD PUSH2 0x2C2C SWAP2 SWAP1 PUSH2 0x4F2D JUMP JUMPDEST SWAP1 DUP2 MSTORE PUSH1 0x20 ADD PUSH1 0x40 MLOAD DUP1 SWAP2 SUB SWAP1 KECCAK256 DUP2 SWAP1 SSTORE POP PUSH2 0x2C6A PUSH4 0x1C47671B PUSH1 0xE0 SHL PUSH4 0xBDF9A726 PUSH1 0xE0 SHL PUSH4 0x58849734 PUSH1 0xE0 SHL PUSH4 0xA157A10D PUSH1 0xE0 SHL XOR XOR XOR DUP4 PUSH2 0x22B6 JUMP JUMPDEST DUP1 PUSH1 0x40 MLOAD PUSH2 0x2C78 SWAP2 SWAP1 PUSH2 0x4F2D JUMP JUMPDEST PUSH1 0x40 MLOAD DUP1 SWAP2 SUB SWAP1 KECCAK256 PUSH32 0x7BC2A48A4A566E237A12186F19D985B0F76AFC9D5290601EDAC19876253670C2 PUSH1 0x40 MLOAD PUSH1 0x40 MLOAD DUP1 SWAP2 SUB SWAP1 LOG2 POP POP JUMP JUMPDEST PUSH1 0x1 PUSH1 0x0 DUP1 DUP4 PUSH28 0xFFFFFFFFFFFFFFFFFFFFFFFFFFFFFFFFFFFFFFFFFFFFFFFFFFFFFFFF NOT AND PUSH28 0xFFFFFFFFFFFFFFFFFFFFFFFFFFFFFFFFFFFFFFFFFFFFFFFFFFFFFFFF NOT AND DUP2 MSTORE PUSH1 0x20 ADD SWAP1 DUP2 MSTORE PUSH1 0x20 ADD PUSH1 0x0 KECCAK256 PUSH1 0x0 PUSH2 0x100 EXP DUP2 SLOAD DUP2 PUSH1 0xFF MUL NOT AND SWAP1 DUP4 ISZERO ISZERO MUL OR SWAP1 SSTORE POP PUSH32 0xBF5E1F87F5AB65B58074CD29244D7C487A948983CDA4B932E0F966B62BD34ACA DUP2 PUSH1 0x40 MLOAD PUSH2 0x2D48 SWAP2 SWAP1 PUSH2 0x510E JUMP JUMPDEST PUSH1 0x40 MLOAD DUP1 SWAP2 SUB SWAP1 LOG1 POP JUMP JUMPDEST PUSH2 0x2D5C DUP4 PUSH2 0xFA7 JUMP JUMPDEST ISZERO PUSH2 0x2D9C JUMPI PUSH1 0x40 MLOAD PUSH32 0x8C379A000000000000000000000000000000000000000000000000000000000 DUP2 MSTORE PUSH1 0x4 ADD PUSH2 0x2D93 SWAP1 PUSH2 0x536D JUMP JUMPDEST PUSH1 0x40 MLOAD DUP1 SWAP2 SUB SWAP1 REVERT JUMPDEST PUSH1 0x1 PUSH20 0xFFFFFFFFFFFFFFFFFFFFFFFFFFFFFFFFFFFFFFFF AND DUP3 PUSH20 0xFFFFFFFFFFFFFFFFFFFFFFFFFFFFFFFFFFFFFFFF AND EQ ISZERO PUSH2 0x2E0C JUMPI PUSH1 0x40 MLOAD PUSH32 0x8C379A000000000000000000000000000000000000000000000000000000000 DUP2 MSTORE PUSH1 0x4 ADD PUSH2 0x2E03 SWAP1 PUSH2 0x548D JUMP JUMPDEST PUSH1 0x40 MLOAD DUP1 SWAP2 SUB SWAP1 REVERT JUMPDEST DUP1 PUSH1 0x3 PUSH1 0x0 DUP6 PUSH28 0xFFFFFFFFFFFFFFFFFFFFFFFFFFFFFFFFFFFFFFFFFFFFFFFFFFFFFFFF NOT AND PUSH28 0xFFFFFFFFFFFFFFFFFFFFFFFFFFFFFFFFFFFFFFFFFFFFFFFFFFFFFFFF NOT AND DUP2 MSTORE PUSH1 0x20 ADD SWAP1 DUP2 MSTORE PUSH1 0x20 ADD PUSH1 0x0 KECCAK256 PUSH1 0x0 DUP5 PUSH20 0xFFFFFFFFFFFFFFFFFFFFFFFFFFFFFFFFFFFFFFFF AND PUSH20 0xFFFFFFFFFFFFFFFFFFFFFFFFFFFFFFFFFFFFFFFF AND DUP2 MSTORE PUSH1 0x20 ADD SWAP1 DUP2 MSTORE PUSH1 0x20 ADD PUSH1 0x0 KECCAK256 PUSH1 0x0 PUSH2 0x100 EXP DUP2 SLOAD DUP2 PUSH20 0xFFFFFFFFFFFFFFFFFFFFFFFFFFFFFFFFFFFFFFFF MUL NOT AND SWAP1 DUP4 PUSH20 0xFFFFFFFFFFFFFFFFFFFFFFFFFFFFFFFFFFFFFFFF AND MUL OR SWAP1 SSTORE POP DUP2 PUSH20 0xFFFFFFFFFFFFFFFFFFFFFFFFFFFFFFFFFFFFFFFF AND CALLER PUSH20 0xFFFFFFFFFFFFFFFFFFFFFFFFFFFFFFFFFFFFFFFF AND DUP5 PUSH28 0xFFFFFFFFFFFFFFFFFFFFFFFFFFFFFFFFFFFFFFFFFFFFFFFFFFFFFFFF NOT AND PUSH32 0xC62063B81F7036FD97A0DC546516E99F11004D2D76CA0FDDD3866346C86E7091 DUP5 PUSH1 0x40 MLOAD PUSH2 0x2F56 SWAP2 SWAP1 PUSH2 0x51C7 JUMP JUMPDEST PUSH1 0x40 MLOAD DUP1 SWAP2 SUB SWAP1 LOG4 POP POP POP JUMP JUMPDEST DUP1 PUSH1 0x6 DUP2 GT ISZERO PUSH2 0x2F6F JUMPI INVALID JUMPDEST DUP3 PUSH1 0x0 ADD PUSH1 0x0 SWAP1 SLOAD SWAP1 PUSH2 0x100 EXP SWAP1 DIV PUSH1 0xFF AND PUSH1 0x6 DUP2 GT ISZERO PUSH2 0x2F8C JUMPI INVALID JUMPDEST EQ PUSH2 0x2FCC JUMPI PUSH1 0x40 MLOAD PUSH32 0x8C379A000000000000000000000000000000000000000000000000000000000 DUP2 MSTORE PUSH1 0x4 ADD PUSH2 0x2FC3 SWAP1 PUSH2 0x524D JUMP JUMPDEST PUSH1 0x40 MLOAD DUP1 SWAP2 SUB SWAP1 REVERT JUMPDEST POP POP JUMP JUMPDEST DUP1 DUP3 PUSH1 0x0 ADD PUSH1 0x0 PUSH2 0x100 EXP DUP2 SLOAD DUP2 PUSH1 0xFF MUL NOT AND SWAP1 DUP4 PUSH1 0x6 DUP2 GT ISZERO PUSH2 0x2FF0 JUMPI INVALID JUMPDEST MUL OR SWAP1 SSTORE POP POP POP JUMP JUMPDEST PUSH1 0x0 PUSH1 0x60 PUSH1 0x0 PUSH2 0x3008 DUP5 PUSH2 0x212A JUMP JUMPDEST SWAP1 POP PUSH2 0x3032 PUSH1 0x3 PUSH1 0x6 DUP1 PUSH1 0x0 DUP6 DUP2 MSTORE PUSH1 0x20 ADD SWAP1 DUP2 MSTORE PUSH1 0x20 ADD PUSH1 0x0 KECCAK256 PUSH2 0x2155 SWAP1 SWAP3 SWAP2 SWAP1 PUSH4 0xFFFFFFFF AND JUMP JUMPDEST PUSH1 0x7 PUSH1 0x0 DUP3 DUP2 MSTORE PUSH1 0x20 ADD SWAP1 DUP2 MSTORE PUSH1 0x20 ADD PUSH1 0x0 KECCAK256 PUSH1 0x0 PUSH2 0x100 EXP DUP2 SLOAD SWAP1 PUSH20 0xFFFFFFFFFFFFFFFFFFFFFFFFFFFFFFFFFFFFFFFF MUL NOT AND SWAP1 SSTORE PUSH2 0x308B DUP5 PUSH1 0x0 ADD MLOAD PUSH1 0x40 ADD MLOAD DUP6 PUSH1 0x20 ADD MLOAD PUSH1 0x20 ADD MLOAD PUSH2 0x216E SWAP1 SWAP2 SWAP1 PUSH4 0xFFFFFFFF AND JUMP JUMPDEST PUSH2 0x30AE DUP5 PUSH1 0x0 ADD MLOAD PUSH1 0x40 ADD MLOAD DUP6 PUSH1 0x20 ADD MLOAD PUSH1 0x40 ADD MLOAD PUSH2 0x216E SWAP1 SWAP2 SWAP1 PUSH4 0xFFFFFFFF AND JUMP JUMPDEST PUSH2 0x30BC DUP5 PUSH1 0x0 ADD MLOAD DUP3 PUSH2 0x32BC JUMP JUMPDEST SWAP3 POP SWAP3 POP POP SWAP2 POP SWAP2 JUMP JUMPDEST PUSH1 0x0 PUSH1 0x60 PUSH1 0x0 PUSH2 0x30D5 DUP5 PUSH2 0x212A JUMP JUMPDEST SWAP1 POP PUSH2 0x3100 PUSH1 0x4 PUSH1 0x5 PUSH1 0x6 PUSH1 0x0 DUP6 DUP2 MSTORE PUSH1 0x20 ADD SWAP1 DUP2 MSTORE PUSH1 0x20 ADD PUSH1 0x0 KECCAK256 PUSH2 0x2155 SWAP1 SWAP3 SWAP2 SWAP1 PUSH4 0xFFFFFFFF AND JUMP JUMPDEST PUSH1 0x0 PUSH1 0x7 PUSH1 0x0 DUP4 DUP2 MSTORE PUSH1 0x20 ADD SWAP1 DUP2 MSTORE PUSH1 0x20 ADD PUSH1 0x0 KECCAK256 PUSH1 0x0 SWAP1 SLOAD SWAP1 PUSH2 0x100 EXP SWAP1 DIV PUSH20 0xFFFFFFFFFFFFFFFFFFFFFFFFFFFFFFFFFFFFFFFF AND SWAP1 POP PUSH1 0x7 PUSH1 0x0 DUP4 DUP2 MSTORE PUSH1 0x20 ADD SWAP1 DUP2 MSTORE PUSH1 0x20 ADD PUSH1 0x0 KECCAK256 PUSH1 0x0 PUSH2 0x100 EXP DUP2 SLOAD SWAP1 PUSH20 0xFFFFFFFFFFFFFFFFFFFFFFFFFFFFFFFFFFFFFFFF MUL NOT AND SWAP1 SSTORE PUSH2 0x3189 DUP2 DUP7 PUSH1 0x20 ADD MLOAD PUSH1 0x20 ADD MLOAD PUSH2 0x216E SWAP1 SWAP2 SWAP1 PUSH4 0xFFFFFFFF AND JUMP JUMPDEST PUSH2 0x31A4 DUP2 DUP7 PUSH1 0x20 ADD MLOAD PUSH1 0x40 ADD MLOAD PUSH2 0x216E SWAP1 SWAP2 SWAP1 PUSH4 0xFFFFFFFF AND JUMP JUMPDEST POP POP SWAP2 POP SWAP2 JUMP JUMPDEST PUSH1 0x0 DUP3 DUP3 DUP5 ADD SWAP2 POP DUP2 LT ISZERO PUSH2 0x31F5 JUMPI PUSH1 0x40 MLOAD PUSH32 0x8C379A000000000000000000000000000000000000000000000000000000000 DUP2 MSTORE PUSH1 0x4 ADD PUSH2 0x31EC SWAP1 PUSH2 0x54AD JUMP JUMPDEST PUSH1 0x40 MLOAD DUP1 SWAP2 SUB SWAP1 REVERT JUMPDEST SWAP3 SWAP2 POP POP JUMP JUMPDEST PUSH1 0x0 DUP2 PUSH1 0x0 ADD MLOAD DUP3 PUSH1 0x20 ADD MLOAD DUP4 PUSH1 0x40 ADD MLOAD DUP5 PUSH1 0x60 ADD MLOAD DUP6 PUSH1 0x80 ADD MLOAD PUSH1 0x40 MLOAD PUSH1 0x20 ADD PUSH2 0x3226 SWAP2 SWAP1 PUSH2 0x5048 JUMP JUMPDEST PUSH1 0x40 MLOAD PUSH1 0x20 DUP2 DUP4 SUB SUB DUP2 MSTORE SWAP1 PUSH1 0x40 MSTORE DUP1 MLOAD SWAP1 PUSH1 0x20 ADD KECCAK256 DUP7 PUSH1 0xA0 ADD MLOAD DUP8 PUSH1 0xC0 ADD MLOAD DUP1 MLOAD SWAP1 PUSH1 0x20 ADD KECCAK256 PUSH1 0x40 MLOAD PUSH1 0x20 ADD PUSH2 0x3263 SWAP8 SWAP7 SWAP6 SWAP5 SWAP4 SWAP3 SWAP2 SWAP1 PUSH2 0x55CA JUMP JUMPDEST PUSH1 0x40 MLOAD PUSH1 0x20 DUP2 DUP4 SUB SUB DUP2 MSTORE SWAP1 PUSH1 0x40 MSTORE DUP1 MLOAD SWAP1 PUSH1 0x20 ADD KECCAK256 SWAP1 POP SWAP2 SWAP1 POP JUMP JUMPDEST PUSH1 0x0 DUP1 CHAINID SWAP1 POP ADDRESS DUP2 DUP6 DUP6 PUSH1 0x40 MLOAD PUSH1 0x20 ADD PUSH2 0x329D SWAP5 SWAP4 SWAP3 SWAP2 SWAP1 PUSH2 0x4F59 JUMP JUMPDEST PUSH1 0x40 MLOAD PUSH1 0x20 DUP2 DUP4 SUB SUB DUP2 MSTORE SWAP1 PUSH1 0x40 MSTORE DUP1 MLOAD SWAP1 PUSH1 0x20 ADD KECCAK256 SWAP2 POP POP SWAP3 SWAP2 POP POP JUMP JUMPDEST PUSH1 0x0 PUSH1 0x60 CALLER PUSH20 0xFFFFFFFFFFFFFFFFFFFFFFFFFFFFFFFFFFFFFFFF AND DUP4 PUSH32 0x59C3746E635078EFC737FB3F37DD8188203B8DF10BBAD35878A7D156F4F51C41 PUSH1 0x40 MLOAD PUSH1 0x40 MLOAD DUP1 SWAP2 SUB SWAP1 LOG3 DUP4 PUSH1 0x60 ADD MLOAD PUSH20 0xFFFFFFFFFFFFFFFFFFFFFFFFFFFFFFFFFFFFFFFF AND PUSH4 0xC2D85AFC DUP6 PUSH1 0x80 ADD MLOAD DUP7 PUSH1 0xA0 ADD MLOAD DUP7 PUSH1 0x40 MLOAD DUP5 PUSH4 0xFFFFFFFF AND PUSH1 0xE0 SHL DUP2 MSTORE PUSH1 0x4 ADD PUSH2 0x334D SWAP4 SWAP3 SWAP2 SWAP1 PUSH2 0x506A JUMP JUMPDEST PUSH1 0x0 PUSH1 0x40 MLOAD DUP1 DUP4 SUB DUP2 PUSH1 0x0 DUP8 DUP1 EXTCODESIZE ISZERO DUP1 ISZERO PUSH2 0x3367 JUMPI PUSH1 0x0 DUP1 REVERT JUMPDEST POP GAS CALL ISZERO DUP1 ISZERO PUSH2 0x337B JUMPI RETURNDATASIZE PUSH1 0x0 DUP1 RETURNDATACOPY RETURNDATASIZE PUSH1 0x0 REVERT JUMPDEST POP POP POP POP PUSH1 0x40 MLOAD RETURNDATASIZE PUSH1 0x0 DUP3 RETURNDATACOPY RETURNDATASIZE PUSH1 0x1F NOT PUSH1 0x1F DUP3 ADD AND DUP3 ADD DUP1 PUSH1 0x40 MSTORE POP DUP2 ADD SWAP1 PUSH2 0x33A4 SWAP2 SWAP1 PUSH2 0x3F31 JUMP JUMPDEST SWAP2 POP SWAP2 POP SWAP3 POP SWAP3 SWAP1 POP JUMP JUMPDEST PUSH1 0x0 DUP1 PUSH1 0x3 PUSH1 0x0 DUP7 PUSH28 0xFFFFFFFFFFFFFFFFFFFFFFFFFFFFFFFFFFFFFFFFFFFFFFFFFFFFFFFF NOT AND PUSH28 0xFFFFFFFFFFFFFFFFFFFFFFFFFFFFFFFFFFFFFFFFFFFFFFFFFFFFFFFF NOT AND DUP2 MSTORE PUSH1 0x20 ADD SWAP1 DUP2 MSTORE PUSH1 0x20 ADD PUSH1 0x0 KECCAK256 PUSH1 0x0 DUP6 PUSH20 0xFFFFFFFFFFFFFFFFFFFFFFFFFFFFFFFFFFFFFFFF AND PUSH20 0xFFFFFFFFFFFFFFFFFFFFFFFFFFFFFFFFFFFFFFFF AND DUP2 MSTORE PUSH1 0x20 ADD SWAP1 DUP2 MSTORE PUSH1 0x20 ADD PUSH1 0x0 KECCAK256 PUSH1 0x0 SWAP1 SLOAD SWAP1 PUSH2 0x100 EXP SWAP1 DIV PUSH20 0xFFFFFFFFFFFFFFFFFFFFFFFFFFFFFFFFFFFFFFFF AND SWAP1 POP PUSH1 0x0 PUSH20 0xFFFFFFFFFFFFFFFFFFFFFFFFFFFFFFFFFFFFFFFF AND DUP2 PUSH20 0xFFFFFFFFFFFFFFFFFFFFFFFFFFFFFFFFFFFFFFFF AND EQ PUSH2 0x357B JUMPI PUSH1 0x2 PUSH20 0xFFFFFFFFFFFFFFFFFFFFFFFFFFFFFFFFFFFFFFFF AND DUP2 PUSH20 0xFFFFFFFFFFFFFFFFFFFFFFFFFFFFFFFFFFFFFFFF AND EQ ISZERO PUSH2 0x34D6 JUMPI PUSH1 0x1 SWAP2 POP POP PUSH2 0x3581 JUMP JUMPDEST DUP1 PUSH20 0xFFFFFFFFFFFFFFFFFFFFFFFFFFFFFFFFFFFFFFFF AND PUSH4 0x97C8108 DUP7 DUP7 DUP7 PUSH1 0x40 MLOAD DUP5 PUSH4 0xFFFFFFFF AND PUSH1 0xE0 SHL DUP2 MSTORE PUSH1 0x4 ADD PUSH2 0x3513 SWAP4 SWAP3 SWAP2 SWAP1 PUSH2 0x5129 JUMP JUMPDEST PUSH1 0x20 PUSH1 0x40 MLOAD DUP1 DUP4 SUB DUP2 PUSH1 0x0 DUP8 DUP1 EXTCODESIZE ISZERO DUP1 ISZERO PUSH2 0x352D JUMPI PUSH1 0x0 DUP1 REVERT JUMPDEST POP GAS CALL SWAP3 POP POP POP DUP1 ISZERO PUSH2 0x355E JUMPI POP PUSH1 0x40 MLOAD RETURNDATASIZE PUSH1 0x1F NOT PUSH1 0x1F DUP3 ADD AND DUP3 ADD DUP1 PUSH1 0x40 MSTORE POP DUP2 ADD SWAP1 PUSH2 0x355B SWAP2 SWAP1 PUSH2 0x3EDF JUMP JUMPDEST PUSH1 0x1 JUMPDEST PUSH2 0x3567 JUMPI PUSH2 0x357A JUMP JUMPDEST DUP1 ISZERO PUSH2 0x3578 JUMPI PUSH1 0x1 SWAP3 POP POP POP PUSH2 0x3581 JUMP JUMPDEST POP JUMPDEST JUMPDEST PUSH1 0x0 SWAP2 POP POP JUMPDEST SWAP4 SWAP3 POP POP POP JUMP JUMPDEST PUSH1 0x0 PUSH1 0x60 PUSH4 0xA9059CBB PUSH1 0xE0 SHL DUP5 DUP5 PUSH1 0x40 MLOAD PUSH1 0x24 ADD PUSH2 0x35A7 SWAP3 SWAP2 SWAP1 PUSH2 0x501F JUMP JUMPDEST PUSH1 0x40 MLOAD PUSH1 0x20 DUP2 DUP4 SUB SUB DUP2 MSTORE SWAP1 PUSH1 0x40 MSTORE SWAP1 PUSH28 0xFFFFFFFFFFFFFFFFFFFFFFFFFFFFFFFFFFFFFFFFFFFFFFFFFFFFFFFF NOT AND PUSH1 0x20 DUP3 ADD DUP1 MLOAD PUSH28 0xFFFFFFFFFFFFFFFFFFFFFFFFFFFFFFFFFFFFFFFFFFFFFFFFFFFFFFFF DUP4 DUP2 DUP4 AND OR DUP4 MSTORE POP POP POP POP SWAP1 POP PUSH2 0x3610 DUP6 DUP3 PUSH2 0x361A JUMP JUMPDEST SWAP2 POP POP SWAP4 SWAP3 POP POP POP JUMP JUMPDEST PUSH1 0x0 PUSH2 0x363B DUP4 PUSH20 0xFFFFFFFFFFFFFFFFFFFFFFFFFFFFFFFFFFFFFFFF AND PUSH2 0x3693 JUMP JUMPDEST PUSH2 0x3648 JUMPI PUSH1 0x0 SWAP1 POP PUSH2 0x368D JUMP JUMPDEST PUSH1 0x40 MLOAD PUSH1 0x20 DUP2 DUP5 MLOAD PUSH1 0x20 DUP7 ADD PUSH1 0x0 DUP9 GAS CALL PUSH1 0x0 DUP2 GT ISZERO PUSH2 0x368A JUMPI RETURNDATASIZE PUSH1 0x0 DUP2 EQ PUSH2 0x3678 JUMPI PUSH1 0x20 DUP2 EQ PUSH2 0x3681 JUMPI PUSH2 0x3688 JUMP JUMPDEST PUSH1 0x1 SWAP4 POP PUSH2 0x3688 JUMP JUMPDEST DUP3 MLOAD ISZERO ISZERO SWAP4 POP JUMPDEST POP JUMPDEST POP POP JUMPDEST SWAP3 SWAP2 POP POP JUMP JUMPDEST PUSH1 0x0 DUP2 EXTCODESIZE ISZERO ISZERO SWAP1 POP SWAP2 SWAP1 POP JUMP JUMPDEST PUSH1 0x40 MLOAD DUP1 PUSH1 0x60 ADD PUSH1 0x40 MSTORE DUP1 PUSH1 0x0 PUSH1 0x2 DUP2 GT ISZERO PUSH2 0x36B8 JUMPI INVALID JUMPDEST DUP2 MSTORE PUSH1 0x20 ADD PUSH1 0x0 PUSH28 0xFFFFFFFFFFFFFFFFFFFFFFFFFFFFFFFFFFFFFFFFFFFFFFFFFFFFFFFF NOT AND DUP2 MSTORE PUSH1 0x20 ADD PUSH1 0x0 PUSH20 0xFFFFFFFFFFFFFFFFFFFFFFFFFFFFFFFFFFFFFFFF AND DUP2 MSTORE POP SWAP1 JUMP JUMPDEST PUSH1 0x40 MLOAD DUP1 PUSH1 0x40 ADD PUSH1 0x40 MSTORE DUP1 PUSH1 0x0 PUSH20 0xFFFFFFFFFFFFFFFFFFFFFFFFFFFFFFFFFFFFFFFF AND DUP2 MSTORE PUSH1 0x20 ADD PUSH1 0x0 DUP2 MSTORE POP SWAP1 JUMP JUMPDEST PUSH1 0x0 DUP2 CALLDATALOAD SWAP1 POP PUSH2 0x3740 DUP2 PUSH2 0x5A10 JUMP JUMPDEST SWAP3 SWAP2 POP POP JUMP JUMPDEST PUSH1 0x0 DUP2 MLOAD SWAP1 POP PUSH2 0x3755 DUP2 PUSH2 0x5A10 JUMP JUMPDEST SWAP3 SWAP2 POP POP JUMP JUMPDEST PUSH1 0x0 DUP3 PUSH1 0x1F DUP4 ADD SLT PUSH2 0x376C JUMPI PUSH1 0x0 DUP1 REVERT JUMPDEST DUP2 MLOAD PUSH2 0x377F PUSH2 0x377A DUP3 PUSH2 0x5666 JUMP JUMPDEST PUSH2 0x5639 JUMP JUMPDEST SWAP2 POP DUP2 DUP2 DUP4 MSTORE PUSH1 0x20 DUP5 ADD SWAP4 POP PUSH1 0x20 DUP2 ADD SWAP1 POP DUP4 PUSH1 0x0 JUMPDEST DUP4 DUP2 LT ISZERO PUSH2 0x37C5 JUMPI DUP2 MLOAD DUP7 ADD PUSH2 0x37AB DUP9 DUP3 PUSH2 0x3935 JUMP JUMPDEST DUP5 MSTORE PUSH1 0x20 DUP5 ADD SWAP4 POP PUSH1 0x20 DUP4 ADD SWAP3 POP POP PUSH1 0x1 DUP2 ADD SWAP1 POP PUSH2 0x3795 JUMP JUMPDEST POP POP POP POP SWAP3 SWAP2 POP POP JUMP JUMPDEST PUSH1 0x0 DUP3 PUSH1 0x1F DUP4 ADD SLT PUSH2 0x37E0 JUMPI PUSH1 0x0 DUP1 REVERT JUMPDEST DUP2 CALLDATALOAD PUSH2 0x37F3 PUSH2 0x37EE DUP3 PUSH2 0x568E JUMP JUMPDEST PUSH2 0x5639 JUMP JUMPDEST SWAP2 POP DUP2 DUP2 DUP4 MSTORE PUSH1 0x20 DUP5 ADD SWAP4 POP PUSH1 0x20 DUP2 ADD SWAP1 POP DUP4 PUSH1 0x0 JUMPDEST DUP4 DUP2 LT ISZERO PUSH2 0x3839 JUMPI DUP2 CALLDATALOAD DUP7 ADD PUSH2 0x381F DUP9 DUP3 PUSH2 0x3A46 JUMP JUMPDEST DUP5 MSTORE PUSH1 0x20 DUP5 ADD SWAP4 POP PUSH1 0x20 DUP4 ADD SWAP3 POP POP PUSH1 0x1 DUP2 ADD SWAP1 POP PUSH2 0x3809 JUMP JUMPDEST POP POP POP POP SWAP3 SWAP2 POP POP JUMP JUMPDEST PUSH1 0x0 DUP1 DUP4 PUSH1 0x1F DUP5 ADD SLT PUSH2 0x3855 JUMPI PUSH1 0x0 DUP1 REVERT JUMPDEST DUP3 CALLDATALOAD SWAP1 POP PUSH8 0xFFFFFFFFFFFFFFFF DUP2 GT ISZERO PUSH2 0x386E JUMPI PUSH1 0x0 DUP1 REVERT JUMPDEST PUSH1 0x20 DUP4 ADD SWAP2 POP DUP4 PUSH1 0x60 DUP3 MUL DUP4 ADD GT ISZERO PUSH2 0x3886 JUMPI PUSH1 0x0 DUP1 REVERT JUMPDEST SWAP3 POP SWAP3 SWAP1 POP JUMP JUMPDEST PUSH1 0x0 DUP2 MLOAD SWAP1 POP PUSH2 0x389C DUP2 PUSH2 0x5A27 JUMP JUMPDEST SWAP3 SWAP2 POP POP JUMP JUMPDEST PUSH1 0x0 DUP2 CALLDATALOAD SWAP1 POP PUSH2 0x38B1 DUP2 PUSH2 0x5A3E JUMP JUMPDEST SWAP3 SWAP2 POP POP JUMP JUMPDEST PUSH1 0x0 DUP2 MLOAD SWAP1 POP PUSH2 0x38C6 DUP2 PUSH2 0x5A3E JUMP JUMPDEST SWAP3 SWAP2 POP POP JUMP JUMPDEST PUSH1 0x0 DUP2 CALLDATALOAD SWAP1 POP PUSH2 0x38DB DUP2 PUSH2 0x5A55 JUMP JUMPDEST SWAP3 SWAP2 POP POP JUMP JUMPDEST PUSH1 0x0 DUP3 PUSH1 0x1F DUP4 ADD SLT PUSH2 0x38F2 JUMPI PUSH1 0x0 DUP1 REVERT JUMPDEST DUP2 CALLDATALOAD PUSH2 0x3905 PUSH2 0x3900 DUP3 PUSH2 0x56B6 JUMP JUMPDEST PUSH2 0x5639 JUMP JUMPDEST SWAP2 POP DUP1 DUP3 MSTORE PUSH1 0x20 DUP4 ADD PUSH1 0x20 DUP4 ADD DUP6 DUP4 DUP4 ADD GT ISZERO PUSH2 0x3921 JUMPI PUSH1 0x0 DUP1 REVERT JUMPDEST PUSH2 0x392C DUP4 DUP3 DUP5 PUSH2 0x596B JUMP JUMPDEST POP POP POP SWAP3 SWAP2 POP POP JUMP JUMPDEST PUSH1 0x0 DUP3 PUSH1 0x1F DUP4 ADD SLT PUSH2 0x3946 JUMPI PUSH1 0x0 DUP1 REVERT JUMPDEST DUP2 MLOAD PUSH2 0x3959 PUSH2 0x3954 DUP3 PUSH2 0x56B6 JUMP JUMPDEST PUSH2 0x5639 JUMP JUMPDEST SWAP2 POP DUP1 DUP3 MSTORE PUSH1 0x20 DUP4 ADD PUSH1 0x20 DUP4 ADD DUP6 DUP4 DUP4 ADD GT ISZERO PUSH2 0x3975 JUMPI PUSH1 0x0 DUP1 REVERT JUMPDEST PUSH2 0x3980 DUP4 DUP3 DUP5 PUSH2 0x597A JUMP JUMPDEST POP POP POP SWAP3 SWAP2 POP POP JUMP JUMPDEST PUSH1 0x0 DUP2 MLOAD SWAP1 POP PUSH2 0x3998 DUP2 PUSH2 0x5A6C JUMP JUMPDEST SWAP3 SWAP2 POP POP JUMP JUMPDEST PUSH1 0x0 DUP2 CALLDATALOAD SWAP1 POP PUSH2 0x39AD DUP2 PUSH2 0x5A83 JUMP JUMPDEST SWAP3 SWAP2 POP POP JUMP JUMPDEST PUSH1 0x0 DUP2 CALLDATALOAD SWAP1 POP PUSH2 0x39C2 DUP2 PUSH2 0x5A9A JUMP JUMPDEST SWAP3 SWAP2 POP POP JUMP JUMPDEST PUSH1 0x0 DUP2 CALLDATALOAD SWAP1 POP PUSH2 0x39D7 DUP2 PUSH2 0x5AB1 JUMP JUMPDEST SWAP3 SWAP2 POP POP JUMP JUMPDEST PUSH1 0x0 DUP2 CALLDATALOAD SWAP1 POP PUSH2 0x39EC DUP2 PUSH2 0x5AC8 JUMP JUMPDEST SWAP3 SWAP2 POP POP JUMP JUMPDEST PUSH1 0x0 DUP3 PUSH1 0x1F DUP4 ADD SLT PUSH2 0x3A03 JUMPI PUSH1 0x0 DUP1 REVERT JUMPDEST DUP2 CALLDATALOAD PUSH2 0x3A16 PUSH2 0x3A11 DUP3 PUSH2 0x56E2 JUMP JUMPDEST PUSH2 0x5639 JUMP JUMPDEST SWAP2 POP DUP1 DUP3 MSTORE PUSH1 0x20 DUP4 ADD PUSH1 0x20 DUP4 ADD DUP6 DUP4 DUP4 ADD GT ISZERO PUSH2 0x3A32 JUMPI PUSH1 0x0 DUP1 REVERT JUMPDEST PUSH2 0x3A3D DUP4 DUP3 DUP5 PUSH2 0x596B JUMP JUMPDEST POP POP POP SWAP3 SWAP2 POP POP JUMP JUMPDEST PUSH1 0x0 PUSH1 0x60 DUP3 DUP5 SUB SLT ISZERO PUSH2 0x3A58 JUMPI PUSH1 0x0 DUP1 REVERT JUMPDEST PUSH2 0x3A62 PUSH1 0x60 PUSH2 0x5639 JUMP JUMPDEST SWAP1 POP PUSH1 0x0 PUSH2 0x3A72 DUP5 DUP3 DUP6 ADD PUSH2 0x3731 JUMP JUMPDEST PUSH1 0x0 DUP4 ADD MSTORE POP PUSH1 0x20 PUSH2 0x3A86 DUP5 DUP3 DUP6 ADD PUSH2 0x3D91 JUMP JUMPDEST PUSH1 0x20 DUP4 ADD MSTORE POP PUSH1 0x40 DUP3 ADD CALLDATALOAD PUSH8 0xFFFFFFFFFFFFFFFF DUP2 GT ISZERO PUSH2 0x3AA6 JUMPI PUSH1 0x0 DUP1 REVERT JUMPDEST PUSH2 0x3AB2 DUP5 DUP3 DUP6 ADD PUSH2 0x38E1 JUMP JUMPDEST PUSH1 0x40 DUP4 ADD MSTORE POP SWAP3 SWAP2 POP POP JUMP JUMPDEST PUSH1 0x0 PUSH1 0x60 DUP3 DUP5 SUB SLT ISZERO PUSH2 0x3AD0 JUMPI PUSH1 0x0 DUP1 REVERT JUMPDEST PUSH2 0x3ADA PUSH1 0x60 PUSH2 0x5639 JUMP JUMPDEST SWAP1 POP PUSH1 0x0 PUSH2 0x3AEA DUP5 DUP3 DUP6 ADD PUSH2 0x39DD JUMP JUMPDEST PUSH1 0x0 DUP4 ADD MSTORE POP PUSH1 0x20 PUSH2 0x3AFE DUP5 DUP3 DUP6 ADD PUSH2 0x38CC JUMP JUMPDEST PUSH1 0x20 DUP4 ADD MSTORE POP PUSH1 0x40 PUSH2 0x3B12 DUP5 DUP3 DUP6 ADD PUSH2 0x3731 JUMP JUMPDEST PUSH1 0x40 DUP4 ADD MSTORE POP SWAP3 SWAP2 POP POP JUMP JUMPDEST PUSH1 0x0 PUSH1 0x40 DUP3 DUP5 SUB SLT ISZERO PUSH2 0x3B30 JUMPI PUSH1 0x0 DUP1 REVERT JUMPDEST PUSH2 0x3B3A PUSH1 0x40 PUSH2 0x5639 JUMP JUMPDEST SWAP1 POP PUSH1 0x0 PUSH2 0x3B4A DUP5 DUP3 DUP6 ADD PUSH2 0x3731 JUMP JUMPDEST PUSH1 0x0 DUP4 ADD MSTORE POP PUSH1 0x20 PUSH2 0x3B5E DUP5 DUP3 DUP6 ADD PUSH2 0x3D91 JUMP JUMPDEST PUSH1 0x20 DUP4 ADD MSTORE POP SWAP3 SWAP2 POP POP JUMP JUMPDEST PUSH1 0x0 PUSH2 0x100 DUP3 DUP5 SUB SLT ISZERO PUSH2 0x3B7D JUMPI PUSH1 0x0 DUP1 REVERT JUMPDEST PUSH2 0x3B87 PUSH1 0xC0 PUSH2 0x5639 JUMP JUMPDEST SWAP1 POP PUSH1 0x0 PUSH2 0x3B97 DUP5 DUP3 DUP6 ADD PUSH2 0x3D91 JUMP JUMPDEST PUSH1 0x0 DUP4 ADD MSTORE POP PUSH1 0x20 PUSH2 0x3BAB DUP5 DUP3 DUP6 ADD PUSH2 0x3B1E JUMP JUMPDEST PUSH1 0x20 DUP4 ADD MSTORE POP PUSH1 0x60 PUSH2 0x3BBF DUP5 DUP3 DUP6 ADD PUSH2 0x3B1E JUMP JUMPDEST PUSH1 0x40 DUP4 ADD MSTORE POP PUSH1 0xA0 PUSH2 0x3BD3 DUP5 DUP3 DUP6 ADD PUSH2 0x3731 JUMP JUMPDEST PUSH1 0x60 DUP4 ADD MSTORE POP PUSH1 0xC0 DUP3 ADD CALLDATALOAD PUSH8 0xFFFFFFFFFFFFFFFF DUP2 GT ISZERO PUSH2 0x3BF3 JUMPI PUSH1 0x0 DUP1 REVERT JUMPDEST PUSH2 0x3BFF DUP5 DUP3 DUP6 ADD PUSH2 0x38E1 JUMP JUMPDEST PUSH1 0x80 DUP4 ADD MSTORE POP PUSH1 0xE0 PUSH2 0x3C13 DUP5 DUP3 DUP6 ADD PUSH2 0x3D91 JUMP JUMPDEST PUSH1 0xA0 DUP4 ADD MSTORE POP SWAP3 SWAP2 POP POP JUMP JUMPDEST PUSH1 0x0 PUSH1 0x40 DUP3 DUP5 SUB SLT ISZERO PUSH2 0x3C31 JUMPI PUSH1 0x0 DUP1 REVERT JUMPDEST PUSH2 0x3C3B PUSH1 0x40 PUSH2 0x5639 JUMP JUMPDEST SWAP1 POP PUSH1 0x0 DUP3 ADD CALLDATALOAD PUSH8 0xFFFFFFFFFFFFFFFF DUP2 GT ISZERO PUSH2 0x3C57 JUMPI PUSH1 0x0 DUP1 REVERT JUMPDEST PUSH2 0x3C63 DUP5 DUP3 DUP6 ADD PUSH2 0x3C9B JUMP JUMPDEST PUSH1 0x0 DUP4 ADD MSTORE POP PUSH1 0x20 DUP3 ADD CALLDATALOAD PUSH8 0xFFFFFFFFFFFFFFFF DUP2 GT ISZERO PUSH2 0x3C83 JUMPI PUSH1 0x0 DUP1 REVERT JUMPDEST PUSH2 0x3C8F DUP5 DUP3 DUP6 ADD PUSH2 0x3B6A JUMP JUMPDEST PUSH1 0x20 DUP4 ADD MSTORE POP SWAP3 SWAP2 POP POP JUMP JUMPDEST PUSH1 0x0 PUSH2 0x100 DUP3 DUP5 SUB SLT ISZERO PUSH2 0x3CAE JUMPI PUSH1 0x0 DUP1 REVERT JUMPDEST PUSH2 0x3CB9 PUSH2 0x100 PUSH2 0x5639 JUMP JUMPDEST SWAP1 POP PUSH1 0x0 PUSH2 0x3CC9 DUP5 DUP3 DUP6 ADD PUSH2 0x3D91 JUMP JUMPDEST PUSH1 0x0 DUP4 ADD MSTORE POP PUSH1 0x20 PUSH2 0x3CDD DUP5 DUP3 DUP6 ADD PUSH2 0x3D91 JUMP JUMPDEST PUSH1 0x20 DUP4 ADD MSTORE POP PUSH1 0x40 PUSH2 0x3CF1 DUP5 DUP3 DUP6 ADD PUSH2 0x3731 JUMP JUMPDEST PUSH1 0x40 DUP4 ADD MSTORE POP PUSH1 0x60 PUSH2 0x3D05 DUP5 DUP3 DUP6 ADD PUSH2 0x39C8 JUMP JUMPDEST PUSH1 0x60 DUP4 ADD MSTORE POP PUSH1 0x80 DUP3 ADD CALLDATALOAD PUSH8 0xFFFFFFFFFFFFFFFF DUP2 GT ISZERO PUSH2 0x3D25 JUMPI PUSH1 0x0 DUP1 REVERT JUMPDEST PUSH2 0x3D31 DUP5 DUP3 DUP6 ADD PUSH2 0x37CF JUMP JUMPDEST PUSH1 0x80 DUP4 ADD MSTORE POP PUSH1 0xA0 PUSH2 0x3D45 DUP5 DUP3 DUP6 ADD PUSH2 0x38A2 JUMP JUMPDEST PUSH1 0xA0 DUP4 ADD MSTORE POP PUSH1 0xC0 DUP3 ADD CALLDATALOAD PUSH8 0xFFFFFFFFFFFFFFFF DUP2 GT ISZERO PUSH2 0x3D65 JUMPI PUSH1 0x0 DUP1 REVERT JUMPDEST PUSH2 0x3D71 DUP5 DUP3 DUP6 ADD PUSH2 0x38E1 JUMP JUMPDEST PUSH1 0xC0 DUP4 ADD MSTORE POP PUSH1 0xE0 PUSH2 0x3D85 DUP5 DUP3 DUP6 ADD PUSH2 0x3731 JUMP JUMPDEST PUSH1 0xE0 DUP4 ADD MSTORE POP SWAP3 SWAP2 POP POP JUMP JUMPDEST PUSH1 0x0 DUP2 CALLDATALOAD SWAP1 POP PUSH2 0x3DA0 DUP2 PUSH2 0x5AD8 JUMP JUMPDEST SWAP3 SWAP2 POP POP JUMP JUMPDEST PUSH1 0x0 DUP2 MLOAD SWAP1 POP PUSH2 0x3DB5 DUP2 PUSH2 0x5AD8 JUMP JUMPDEST SWAP3 SWAP2 POP POP JUMP JUMPDEST PUSH1 0x0 DUP1 PUSH1 0x0 PUSH1 0x60 DUP5 DUP7 SUB SLT ISZERO PUSH2 0x3DD0 JUMPI PUSH1 0x0 DUP1 REVERT JUMPDEST PUSH1 0x0 PUSH2 0x3DDE DUP7 DUP3 DUP8 ADD PUSH2 0x3746 JUMP JUMPDEST SWAP4 POP POP PUSH1 0x20 PUSH2 0x3DEF DUP7 DUP3 DUP8 ADD PUSH2 0x3989 JUMP JUMPDEST SWAP3 POP POP PUSH1 0x40 PUSH2 0x3E00 DUP7 DUP3 DUP8 ADD PUSH2 0x3DA6 JUMP JUMPDEST SWAP2 POP POP SWAP3 POP SWAP3 POP SWAP3 JUMP JUMPDEST PUSH1 0x0 DUP1 PUSH1 0x40 DUP4 DUP6 SUB SLT ISZERO PUSH2 0x3E1D JUMPI PUSH1 0x0 DUP1 REVERT JUMPDEST PUSH1 0x0 PUSH2 0x3E2B DUP6 DUP3 DUP7 ADD PUSH2 0x3731 JUMP JUMPDEST SWAP3 POP POP PUSH1 0x20 DUP4 ADD CALLDATALOAD PUSH8 0xFFFFFFFFFFFFFFFF DUP2 GT ISZERO PUSH2 0x3E48 JUMPI PUSH1 0x0 DUP1 REVERT JUMPDEST PUSH2 0x3E54 DUP6 DUP3 DUP7 ADD PUSH2 0x3B6A JUMP JUMPDEST SWAP2 POP POP SWAP3 POP SWAP3 SWAP1 POP JUMP JUMPDEST PUSH1 0x0 DUP1 PUSH1 0x40 DUP4 DUP6 SUB SLT ISZERO PUSH2 0x3E71 JUMPI PUSH1 0x0 DUP1 REVERT JUMPDEST PUSH1 0x0 PUSH2 0x3E7F DUP6 DUP3 DUP7 ADD PUSH2 0x3746 JUMP JUMPDEST SWAP3 POP POP PUSH1 0x20 PUSH2 0x3E90 DUP6 DUP3 DUP7 ADD PUSH2 0x3DA6 JUMP JUMPDEST SWAP2 POP POP SWAP3 POP SWAP3 SWAP1 POP JUMP JUMPDEST PUSH1 0x0 DUP1 PUSH1 0x20 DUP4 DUP6 SUB SLT ISZERO PUSH2 0x3EAD JUMPI PUSH1 0x0 DUP1 REVERT JUMPDEST PUSH1 0x0 DUP4 ADD CALLDATALOAD PUSH8 0xFFFFFFFFFFFFFFFF DUP2 GT ISZERO PUSH2 0x3EC7 JUMPI PUSH1 0x0 DUP1 REVERT JUMPDEST PUSH2 0x3ED3 DUP6 DUP3 DUP7 ADD PUSH2 0x3843 JUMP JUMPDEST SWAP3 POP SWAP3 POP POP SWAP3 POP SWAP3 SWAP1 POP JUMP JUMPDEST PUSH1 0x0 PUSH1 0x20 DUP3 DUP5 SUB SLT ISZERO PUSH2 0x3EF1 JUMPI PUSH1 0x0 DUP1 REVERT JUMPDEST PUSH1 0x0 PUSH2 0x3EFF DUP5 DUP3 DUP6 ADD PUSH2 0x388D JUMP JUMPDEST SWAP2 POP POP SWAP3 SWAP2 POP POP JUMP JUMPDEST PUSH1 0x0 PUSH1 0x20 DUP3 DUP5 SUB SLT ISZERO PUSH2 0x3F1A JUMPI PUSH1 0x0 DUP1 REVERT JUMPDEST PUSH1 0x0 PUSH2 0x3F28 DUP5 DUP3 DUP6 ADD PUSH2 0x38A2 JUMP JUMPDEST SWAP2 POP POP SWAP3 SWAP2 POP POP JUMP JUMPDEST PUSH1 0x0 DUP1 PUSH1 0x40 DUP4 DUP6 SUB SLT ISZERO PUSH2 0x3F44 JUMPI PUSH1 0x0 DUP1 REVERT JUMPDEST PUSH1 0x0 PUSH2 0x3F52 DUP6 DUP3 DUP7 ADD PUSH2 0x38B7 JUMP JUMPDEST SWAP3 POP POP PUSH1 0x20 DUP4 ADD MLOAD PUSH8 0xFFFFFFFFFFFFFFFF DUP2 GT ISZERO PUSH2 0x3F6F JUMPI PUSH1 0x0 DUP1 REVERT JUMPDEST PUSH2 0x3F7B DUP6 DUP3 DUP7 ADD PUSH2 0x375B JUMP JUMPDEST SWAP2 POP POP SWAP3 POP SWAP3 SWAP1 POP JUMP JUMPDEST PUSH1 0x0 DUP1 PUSH1 0x40 DUP4 DUP6 SUB SLT ISZERO PUSH2 0x3F98 JUMPI PUSH1 0x0 DUP1 REVERT JUMPDEST PUSH1 0x0 PUSH2 0x3FA6 DUP6 DUP3 DUP7 ADD PUSH2 0x38A2 JUMP JUMPDEST SWAP3 POP POP PUSH1 0x20 PUSH2 0x3FB7 DUP6 DUP3 DUP7 ADD PUSH2 0x39B3 JUMP JUMPDEST SWAP2 POP POP SWAP3 POP SWAP3 SWAP1 POP JUMP JUMPDEST PUSH1 0x0 PUSH1 0x20 DUP3 DUP5 SUB SLT ISZERO PUSH2 0x3FD3 JUMPI PUSH1 0x0 DUP1 REVERT JUMPDEST PUSH1 0x0 PUSH2 0x3FE1 DUP5 DUP3 DUP6 ADD PUSH2 0x38CC JUMP JUMPDEST SWAP2 POP POP SWAP3 SWAP2 POP POP JUMP JUMPDEST PUSH1 0x0 DUP1 PUSH1 0x40 DUP4 DUP6 SUB SLT ISZERO PUSH2 0x3FFD JUMPI PUSH1 0x0 DUP1 REVERT JUMPDEST PUSH1 0x0 PUSH2 0x400B DUP6 DUP3 DUP7 ADD PUSH2 0x38CC JUMP JUMPDEST SWAP3 POP POP PUSH1 0x20 PUSH2 0x401C DUP6 DUP3 DUP7 ADD PUSH2 0x3731 JUMP JUMPDEST SWAP2 POP POP SWAP3 POP SWAP3 SWAP1 POP JUMP JUMPDEST PUSH1 0x0 DUP1 PUSH1 0x0 PUSH1 0x60 DUP5 DUP7 SUB SLT ISZERO PUSH2 0x403B JUMPI PUSH1 0x0 DUP1 REVERT JUMPDEST PUSH1 0x0 PUSH2 0x4049 DUP7 DUP3 DUP8 ADD PUSH2 0x38CC JUMP JUMPDEST SWAP4 POP POP PUSH1 0x20 PUSH2 0x405A DUP7 DUP3 DUP8 ADD PUSH2 0x3731 JUMP JUMPDEST SWAP3 POP POP PUSH1 0x40 PUSH2 0x406B DUP7 DUP3 DUP8 ADD PUSH2 0x399E JUMP JUMPDEST SWAP2 POP POP SWAP3 POP SWAP3 POP SWAP3 JUMP JUMPDEST PUSH1 0x0 PUSH1 0x20 DUP3 DUP5 SUB SLT ISZERO PUSH2 0x4087 JUMPI PUSH1 0x0 DUP1 REVERT JUMPDEST PUSH1 0x0 DUP3 ADD CALLDATALOAD PUSH8 0xFFFFFFFFFFFFFFFF DUP2 GT ISZERO PUSH2 0x40A1 JUMPI PUSH1 0x0 DUP1 REVERT JUMPDEST PUSH2 0x40AD DUP5 DUP3 DUP6 ADD PUSH2 0x39F2 JUMP JUMPDEST SWAP2 POP POP SWAP3 SWAP2 POP POP JUMP JUMPDEST PUSH1 0x0 PUSH1 0x60 DUP3 DUP5 SUB SLT ISZERO PUSH2 0x40C8 JUMPI PUSH1 0x0 DUP1 REVERT JUMPDEST PUSH1 0x0 PUSH2 0x40D6 DUP5 DUP3 DUP6 ADD PUSH2 0x3ABE JUMP JUMPDEST SWAP2 POP POP SWAP3 SWAP2 POP POP JUMP JUMPDEST PUSH1 0x0 PUSH1 0x20 DUP3 DUP5 SUB SLT ISZERO PUSH2 0x40F1 JUMPI PUSH1 0x0 DUP1 REVERT JUMPDEST PUSH1 0x0 DUP3 ADD CALLDATALOAD PUSH8 0xFFFFFFFFFFFFFFFF DUP2 GT ISZERO PUSH2 0x410B JUMPI PUSH1 0x0 DUP1 REVERT JUMPDEST PUSH2 0x4117 DUP5 DUP3 DUP6 ADD PUSH2 0x3B6A JUMP JUMPDEST SWAP2 POP POP SWAP3 SWAP2 POP POP JUMP JUMPDEST PUSH1 0x0 PUSH1 0x20 DUP3 DUP5 SUB SLT ISZERO PUSH2 0x4132 JUMPI PUSH1 0x0 DUP1 REVERT JUMPDEST PUSH1 0x0 DUP3 ADD CALLDATALOAD PUSH8 0xFFFFFFFFFFFFFFFF DUP2 GT ISZERO PUSH2 0x414C JUMPI PUSH1 0x0 DUP1 REVERT JUMPDEST PUSH2 0x4158 DUP5 DUP3 DUP6 ADD PUSH2 0x3C1F JUMP JUMPDEST SWAP2 POP POP SWAP3 SWAP2 POP POP JUMP JUMPDEST PUSH1 0x0 DUP1 PUSH1 0x40 DUP4 DUP6 SUB SLT ISZERO PUSH2 0x4174 JUMPI PUSH1 0x0 DUP1 REVERT JUMPDEST PUSH1 0x0 DUP4 ADD CALLDATALOAD PUSH8 0xFFFFFFFFFFFFFFFF DUP2 GT ISZERO PUSH2 0x418E JUMPI PUSH1 0x0 DUP1 REVERT JUMPDEST PUSH2 0x419A DUP6 DUP3 DUP7 ADD PUSH2 0x3C1F JUMP JUMPDEST SWAP3 POP POP PUSH1 0x20 DUP4 ADD CALLDATALOAD PUSH8 0xFFFFFFFFFFFFFFFF DUP2 GT ISZERO PUSH2 0x41B7 JUMPI PUSH1 0x0 DUP1 REVERT JUMPDEST PUSH2 0x41C3 DUP6 DUP3 DUP7 ADD PUSH2 0x38E1 JUMP JUMPDEST SWAP2 POP POP SWAP3 POP SWAP3 SWAP1 POP JUMP JUMPDEST PUSH1 0x0 DUP1 PUSH1 0x40 DUP4 DUP6 SUB SLT ISZERO PUSH2 0x41E0 JUMPI PUSH1 0x0 DUP1 REVERT JUMPDEST PUSH1 0x0 DUP4 ADD CALLDATALOAD PUSH8 0xFFFFFFFFFFFFFFFF DUP2 GT ISZERO PUSH2 0x41FA JUMPI PUSH1 0x0 DUP1 REVERT JUMPDEST PUSH2 0x4206 DUP6 DUP3 DUP7 ADD PUSH2 0x3C1F JUMP JUMPDEST SWAP3 POP POP PUSH1 0x20 PUSH2 0x4217 DUP6 DUP3 DUP7 ADD PUSH2 0x3D91 JUMP JUMPDEST SWAP2 POP POP SWAP3 POP SWAP3 SWAP1 POP JUMP JUMPDEST PUSH1 0x0 PUSH1 0x20 DUP3 DUP5 SUB SLT ISZERO PUSH2 0x4233 JUMPI PUSH1 0x0 DUP1 REVERT JUMPDEST PUSH1 0x0 PUSH2 0x4241 DUP5 DUP3 DUP6 ADD PUSH2 0x3DA6 JUMP JUMPDEST SWAP2 POP POP SWAP3 SWAP2 POP POP JUMP JUMPDEST PUSH1 0x0 PUSH2 0x4256 DUP4 DUP4 PUSH2 0x4468 JUMP JUMPDEST SWAP1 POP SWAP3 SWAP2 POP POP JUMP JUMPDEST PUSH1 0x0 PUSH2 0x426A DUP4 DUP4 PUSH2 0x4B6D JUMP JUMPDEST SWAP1 POP SWAP3 SWAP2 POP POP JUMP JUMPDEST PUSH2 0x427B DUP2 PUSH2 0x58C9 JUMP JUMPDEST DUP3 MSTORE POP POP JUMP JUMPDEST PUSH2 0x428A DUP2 PUSH2 0x57F0 JUMP JUMPDEST DUP3 MSTORE POP POP JUMP JUMPDEST PUSH2 0x4299 DUP2 PUSH2 0x57F0 JUMP JUMPDEST DUP3 MSTORE POP POP JUMP JUMPDEST PUSH2 0x42B0 PUSH2 0x42AB DUP3 PUSH2 0x57F0 JUMP JUMPDEST PUSH2 0x59AD JUMP JUMPDEST DUP3 MSTORE POP POP JUMP JUMPDEST PUSH1 0x0 PUSH2 0x42C1 DUP3 PUSH2 0x572E JUMP JUMPDEST PUSH2 0x42CB DUP2 DUP6 PUSH2 0x5774 JUMP JUMPDEST SWAP4 POP DUP4 PUSH1 0x20 DUP3 MUL DUP6 ADD PUSH2 0x42DD DUP6 PUSH2 0x570E JUMP JUMPDEST DUP1 PUSH1 0x0 JUMPDEST DUP6 DUP2 LT ISZERO PUSH2 0x4319 JUMPI DUP5 DUP5 SUB DUP10 MSTORE DUP2 MLOAD PUSH2 0x42FA DUP6 DUP3 PUSH2 0x424A JUMP JUMPDEST SWAP5 POP PUSH2 0x4305 DUP4 PUSH2 0x575A JUMP JUMPDEST SWAP3 POP PUSH1 0x20 DUP11 ADD SWAP10 POP POP PUSH1 0x1 DUP2 ADD SWAP1 POP PUSH2 0x42E1 JUMP JUMPDEST POP DUP3 SWAP8 POP DUP8 SWAP6 POP POP POP POP POP POP SWAP3 SWAP2 POP POP JUMP JUMPDEST PUSH1 0x0 PUSH2 0x4336 DUP3 PUSH2 0x5739 JUMP JUMPDEST PUSH2 0x4340 DUP2 DUP6 PUSH2 0x5785 JUMP JUMPDEST SWAP4 POP DUP4 PUSH1 0x20 DUP3 MUL DUP6 ADD PUSH2 0x4352 DUP6 PUSH2 0x571E JUMP JUMPDEST DUP1 PUSH1 0x0 JUMPDEST DUP6 DUP2 LT ISZERO PUSH2 0x438E JUMPI DUP5 DUP5 SUB DUP10 MSTORE DUP2 MLOAD PUSH2 0x436F DUP6 DUP3 PUSH2 0x425E JUMP JUMPDEST SWAP5 POP PUSH2 0x437A DUP4 PUSH2 0x5767 JUMP JUMPDEST SWAP3 POP PUSH1 0x20 DUP11 ADD SWAP10 POP POP PUSH1 0x1 DUP2 ADD SWAP1 POP PUSH2 0x4356 JUMP JUMPDEST POP DUP3 SWAP8 POP DUP8 SWAP6 POP POP POP POP POP POP SWAP3 SWAP2 POP POP JUMP JUMPDEST PUSH1 0x0 PUSH2 0x43AB DUP3 PUSH2 0x5739 JUMP JUMPDEST PUSH2 0x43B5 DUP2 DUP6 PUSH2 0x5796 JUMP JUMPDEST SWAP4 POP DUP4 PUSH1 0x20 DUP3 MUL DUP6 ADD PUSH2 0x43C7 DUP6 PUSH2 0x571E JUMP JUMPDEST DUP1 PUSH1 0x0 JUMPDEST DUP6 DUP2 LT ISZERO PUSH2 0x4403 JUMPI DUP5 DUP5 SUB DUP10 MSTORE DUP2 MLOAD PUSH2 0x43E4 DUP6 DUP3 PUSH2 0x425E JUMP JUMPDEST SWAP5 POP PUSH2 0x43EF DUP4 PUSH2 0x5767 JUMP JUMPDEST SWAP3 POP PUSH1 0x20 DUP11 ADD SWAP10 POP POP PUSH1 0x1 DUP2 ADD SWAP1 POP PUSH2 0x43CB JUMP JUMPDEST POP DUP3 SWAP8 POP DUP8 SWAP6 POP POP POP POP POP POP SWAP3 SWAP2 POP POP JUMP JUMPDEST PUSH2 0x441E DUP2 PUSH2 0x5802 JUMP JUMPDEST DUP3 MSTORE POP POP JUMP JUMPDEST PUSH2 0x442D DUP2 PUSH2 0x580E JUMP JUMPDEST DUP3 MSTORE POP POP JUMP JUMPDEST PUSH2 0x443C DUP2 PUSH2 0x580E JUMP JUMPDEST DUP3 MSTORE POP POP JUMP JUMPDEST PUSH2 0x4453 PUSH2 0x444E DUP3 PUSH2 0x580E JUMP JUMPDEST PUSH2 0x59BF JUMP JUMPDEST DUP3 MSTORE POP POP JUMP JUMPDEST PUSH2 0x4462 DUP2 PUSH2 0x5818 JUMP JUMPDEST DUP3 MSTORE POP POP JUMP JUMPDEST PUSH1 0x0 PUSH2 0x4473 DUP3 PUSH2 0x5744 JUMP JUMPDEST PUSH2 0x447D DUP2 DUP6 PUSH2 0x57A7 JUMP JUMPDEST SWAP4 POP PUSH2 0x448D DUP2 DUP6 PUSH1 0x20 DUP7 ADD PUSH2 0x597A JUMP JUMPDEST PUSH2 0x4496 DUP2 PUSH2 0x59E5 JUMP JUMPDEST DUP5 ADD SWAP2 POP POP SWAP3 SWAP2 POP POP JUMP JUMPDEST PUSH1 0x0 PUSH2 0x44AC DUP3 PUSH2 0x5744 JUMP JUMPDEST PUSH2 0x44B6 DUP2 DUP6 PUSH2 0x57B8 JUMP JUMPDEST SWAP4 POP PUSH2 0x44C6 DUP2 DUP6 PUSH1 0x20 DUP7 ADD PUSH2 0x597A JUMP JUMPDEST PUSH2 0x44CF DUP2 PUSH2 0x59E5 JUMP JUMPDEST DUP5 ADD SWAP2 POP POP SWAP3 SWAP2 POP POP JUMP JUMPDEST PUSH1 0x0 PUSH2 0x44E5 DUP3 PUSH2 0x5744 JUMP JUMPDEST PUSH2 0x44EF DUP2 DUP6 PUSH2 0x57C9 JUMP JUMPDEST SWAP4 POP PUSH2 0x44FF DUP2 DUP6 PUSH1 0x20 DUP7 ADD PUSH2 0x597A JUMP JUMPDEST DUP1 DUP5 ADD SWAP2 POP POP SWAP3 SWAP2 POP POP JUMP JUMPDEST PUSH2 0x4514 DUP2 PUSH2 0x58DB JUMP JUMPDEST DUP3 MSTORE POP POP JUMP JUMPDEST PUSH2 0x4523 DUP2 PUSH2 0x58FF JUMP JUMPDEST DUP3 MSTORE POP POP JUMP JUMPDEST PUSH2 0x4532 DUP2 PUSH2 0x58FF JUMP JUMPDEST DUP3 MSTORE POP POP JUMP JUMPDEST PUSH2 0x4541 DUP2 PUSH2 0x5923 JUMP JUMPDEST DUP3 MSTORE POP POP JUMP JUMPDEST PUSH2 0x4550 DUP2 PUSH2 0x5935 JUMP JUMPDEST DUP3 MSTORE POP POP JUMP JUMPDEST PUSH1 0x0 PUSH2 0x4561 DUP3 PUSH2 0x574F JUMP JUMPDEST PUSH2 0x456B DUP2 DUP6 PUSH2 0x57E5 JUMP JUMPDEST SWAP4 POP PUSH2 0x457B DUP2 DUP6 PUSH1 0x20 DUP7 ADD PUSH2 0x597A JUMP JUMPDEST DUP1 DUP5 ADD SWAP2 POP POP SWAP3 SWAP2 POP POP JUMP JUMPDEST PUSH1 0x0 PUSH2 0x4594 PUSH1 0x1A DUP4 PUSH2 0x57D4 JUMP JUMPDEST SWAP2 POP PUSH32 0x6465706F7369743A2062616420746F6B656E2072656C65617365000000000000 PUSH1 0x0 DUP4 ADD MSTORE PUSH1 0x20 DUP3 ADD SWAP1 POP SWAP2 SWAP1 POP JUMP JUMPDEST PUSH1 0x0 PUSH2 0x45D4 PUSH1 0x10 DUP4 PUSH2 0x57D4 JUMP JUMPDEST SWAP2 POP PUSH32 0x71756575653A2062616420737461746500000000000000000000000000000000 PUSH1 0x0 DUP4 ADD MSTORE PUSH1 0x20 DUP3 ADD SWAP1 POP SWAP2 SWAP1 POP JUMP JUMPDEST PUSH1 0x0 PUSH2 0x4614 PUSH1 0x11 DUP4 PUSH2 0x57D4 JUMP JUMPDEST SWAP2 POP PUSH32 0x71756575653A2062616420636F6E666967000000000000000000000000000000 PUSH1 0x0 DUP4 ADD MSTORE PUSH1 0x20 DUP3 ADD SWAP1 POP SWAP2 SWAP1 POP JUMP JUMPDEST PUSH1 0x0 PUSH2 0x4654 PUSH1 0x9 DUP4 PUSH2 0x57D4 JUMP JUMPDEST SWAP2 POP PUSH32 0x61636C3A20617574680000000000000000000000000000000000000000000000 PUSH1 0x0 DUP4 ADD MSTORE PUSH1 0x20 DUP3 ADD SWAP1 POP SWAP2 SWAP1 POP JUMP JUMPDEST PUSH1 0x0 PUSH2 0x4694 PUSH1 0x15 DUP4 PUSH2 0x57D4 JUMP JUMPDEST SWAP2 POP PUSH32 0x71756575653A2062616420646973707574652069640000000000000000000000 PUSH1 0x0 DUP4 ADD MSTORE PUSH1 0x20 DUP3 ADD SWAP1 POP SWAP2 SWAP1 POP JUMP JUMPDEST PUSH1 0x0 PUSH2 0x46D4 PUSH1 0x10 DUP4 PUSH2 0x57D4 JUMP JUMPDEST SWAP2 POP PUSH32 0x71756575653A20626164206E6F6E636500000000000000000000000000000000 PUSH1 0x0 DUP4 ADD MSTORE PUSH1 0x20 DUP3 ADD SWAP1 POP SWAP2 SWAP1 POP JUMP JUMPDEST PUSH1 0x0 PUSH2 0x4714 PUSH1 0x10 DUP4 PUSH2 0x57D4 JUMP JUMPDEST SWAP2 POP PUSH32 0x71756575653A206261642064656C617900000000000000000000000000000000 PUSH1 0x0 DUP4 ADD MSTORE PUSH1 0x20 DUP3 ADD SWAP1 POP SWAP2 SWAP1 POP JUMP JUMPDEST PUSH1 0x0 PUSH2 0x4754 PUSH1 0x10 DUP4 PUSH2 0x57D4 JUMP JUMPDEST SWAP2 POP PUSH32 0x71756575653A2062616420726573657400000000000000000000000000000000 PUSH1 0x0 DUP4 ADD MSTORE PUSH1 0x20 DUP3 ADD SWAP1 POP SWAP2 SWAP1 POP JUMP JUMPDEST PUSH1 0x0 PUSH2 0x4794 PUSH1 0x13 DUP4 PUSH2 0x57D4 JUMP JUMPDEST SWAP2 POP PUSH32 0x71756575653A20626164206665652070756C6C00000000000000000000000000 PUSH1 0x0 DUP4 ADD MSTORE PUSH1 0x20 DUP3 ADD SWAP1 POP SWAP2 SWAP1 POP JUMP JUMPDEST PUSH1 0x0 PUSH2 0x47D4 PUSH1 0x14 DUP4 PUSH2 0x57D4 JUMP JUMPDEST SWAP2 POP PUSH32 0x71756575653A20626164207375626D6974746572000000000000000000000000 PUSH1 0x0 DUP4 ADD MSTORE PUSH1 0x20 DUP3 ADD SWAP1 POP SWAP2 SWAP1 POP JUMP JUMPDEST PUSH1 0x0 PUSH2 0x4814 PUSH1 0xB DUP4 PUSH2 0x57D4 JUMP JUMPDEST SWAP2 POP PUSH32 0x61636C3A2066726F7A656E000000000000000000000000000000000000000000 PUSH1 0x0 DUP4 ADD MSTORE PUSH1 0x20 DUP3 ADD SWAP1 POP SWAP2 SWAP1 POP JUMP JUMPDEST PUSH1 0x0 PUSH2 0x4854 PUSH1 0x17 DUP4 PUSH2 0x57D4 JUMP JUMPDEST SWAP2 POP PUSH32 0x416374696F6E2063616E74206265206578656375746564000000000000000000 PUSH1 0x0 DUP4 ADD MSTORE PUSH1 0x20 DUP3 ADD SWAP1 POP SWAP2 SWAP1 POP JUMP JUMPDEST PUSH1 0x0 PUSH2 0x4894 PUSH1 0x12 DUP4 PUSH2 0x57D4 JUMP JUMPDEST SWAP2 POP PUSH32 0x71756575653A2062616420617070726F76650000000000000000000000000000 PUSH1 0x0 DUP4 ADD MSTORE PUSH1 0x20 DUP3 ADD SWAP1 POP SWAP2 SWAP1 POP JUMP JUMPDEST PUSH1 0x0 PUSH2 0x48D4 PUSH1 0x22 DUP4 PUSH2 0x57D4 JUMP JUMPDEST SWAP2 POP PUSH32 0x696E697469616C697A61626C653A20616C726561647920696E697469616C697A PUSH1 0x0 DUP4 ADD MSTORE PUSH32 0x6564000000000000000000000000000000000000000000000000000000000000 PUSH1 0x20 DUP4 ADD MSTORE PUSH1 0x40 DUP3 ADD SWAP1 POP SWAP2 SWAP1 POP JUMP JUMPDEST PUSH1 0x0 PUSH2 0x493A PUSH1 0x10 DUP4 PUSH2 0x57D4 JUMP JUMPDEST SWAP2 POP PUSH32 0x71756575653A2077616974206D6F726500000000000000000000000000000000 PUSH1 0x0 DUP4 ADD MSTORE PUSH1 0x20 DUP3 ADD SWAP1 POP SWAP2 SWAP1 POP JUMP JUMPDEST PUSH1 0x0 PUSH2 0x497A PUSH1 0x17 DUP4 PUSH2 0x57D4 JUMP JUMPDEST SWAP2 POP PUSH32 0x6465706F7369743A2062616420746F6B656E206C6F636B000000000000000000 PUSH1 0x0 DUP4 ADD MSTORE PUSH1 0x20 DUP3 ADD SWAP1 POP SWAP2 SWAP1 POP JUMP JUMPDEST PUSH1 0x0 PUSH2 0x49BA PUSH1 0x12 DUP4 PUSH2 0x57D4 JUMP JUMPDEST SWAP2 POP PUSH32 0x71756575653A206E6F74207375626A6563740000000000000000000000000000 PUSH1 0x0 DUP4 ADD MSTORE PUSH1 0x20 DUP3 ADD SWAP1 POP SWAP2 SWAP1 POP JUMP JUMPDEST PUSH1 0x0 PUSH2 0x49FA PUSH1 0x1C DUP4 PUSH2 0x57D4 JUMP JUMPDEST SWAP2 POP PUSH32 0x63616C6C6461746173697A653A206C696D697420657863656564656400000000 PUSH1 0x0 DUP4 ADD MSTORE PUSH1 0x20 DUP3 ADD SWAP1 POP SWAP2 SWAP1 POP JUMP JUMPDEST PUSH1 0x0 PUSH2 0x4A3A PUSH1 0x1C DUP4 PUSH2 0x57D4 JUMP JUMPDEST SWAP2 POP PUSH32 0x61636C3A20696E697469616C20726F6F74206D6973616C69676E656400000000 PUSH1 0x0 DUP4 ADD MSTORE PUSH1 0x20 DUP3 ADD SWAP1 POP SWAP2 SWAP1 POP JUMP JUMPDEST PUSH1 0x0 PUSH2 0x4A7A PUSH1 0x3 DUP4 PUSH2 0x57E5 JUMP JUMPDEST SWAP2 POP PUSH32 0x61636C0000000000000000000000000000000000000000000000000000000000 PUSH1 0x0 DUP4 ADD MSTORE PUSH1 0x3 DUP3 ADD SWAP1 POP SWAP2 SWAP1 POP JUMP JUMPDEST PUSH1 0x0 PUSH2 0x4ABA PUSH1 0xF DUP4 PUSH2 0x57D4 JUMP JUMPDEST SWAP2 POP PUSH32 0x61636C3A2062616420667265657A650000000000000000000000000000000000 PUSH1 0x0 DUP4 ADD MSTORE PUSH1 0x20 DUP3 ADD SWAP1 POP SWAP2 SWAP1 POP JUMP JUMPDEST PUSH1 0x0 PUSH2 0x4AFA PUSH1 0xE DUP4 PUSH2 0x57D4 JUMP JUMPDEST SWAP2 POP PUSH32 0x6D6174683A206F766572666C6F77000000000000000000000000000000000000 PUSH1 0x0 DUP4 ADD MSTORE PUSH1 0x20 DUP3 ADD SWAP1 POP SWAP2 SWAP1 POP JUMP JUMPDEST PUSH1 0x0 PUSH2 0x4B3A PUSH1 0x8 DUP4 PUSH2 0x57E5 JUMP JUMPDEST SWAP2 POP PUSH32 0x657263336B2D7631000000000000000000000000000000000000000000000000 PUSH1 0x0 DUP4 ADD MSTORE PUSH1 0x8 DUP3 ADD SWAP1 POP SWAP2 SWAP1 POP JUMP JUMPDEST PUSH1 0x0 PUSH1 0x60 DUP4 ADD PUSH1 0x0 DUP4 ADD MLOAD PUSH2 0x4B85 PUSH1 0x0 DUP7 ADD DUP3 PUSH2 0x4281 JUMP JUMPDEST POP PUSH1 0x20 DUP4 ADD MLOAD PUSH2 0x4B98 PUSH1 0x20 DUP7 ADD DUP3 PUSH2 0x4EE1 JUMP JUMPDEST POP PUSH1 0x40 DUP4 ADD MLOAD DUP5 DUP3 SUB PUSH1 0x40 DUP7 ADD MSTORE PUSH2 0x4BB0 DUP3 DUP3 PUSH2 0x4468 JUMP JUMPDEST SWAP2 POP POP DUP1 SWAP2 POP POP SWAP3 SWAP2 POP POP JUMP JUMPDEST PUSH1 0x40 DUP3 ADD PUSH1 0x0 DUP3 ADD MLOAD PUSH2 0x4BD3 PUSH1 0x0 DUP6 ADD DUP3 PUSH2 0x4281 JUMP JUMPDEST POP PUSH1 0x20 DUP3 ADD MLOAD PUSH2 0x4BE6 PUSH1 0x20 DUP6 ADD DUP3 PUSH2 0x4EE1 JUMP JUMPDEST POP POP POP POP JUMP JUMPDEST PUSH1 0x40 DUP3 ADD PUSH1 0x0 DUP3 ADD MLOAD PUSH2 0x4C02 PUSH1 0x0 DUP6 ADD DUP3 PUSH2 0x4281 JUMP JUMPDEST POP PUSH1 0x20 DUP3 ADD MLOAD PUSH2 0x4C15 PUSH1 0x20 DUP6 ADD DUP3 PUSH2 0x4EE1 JUMP JUMPDEST POP POP POP POP JUMP JUMPDEST PUSH1 0x0 PUSH2 0x100 DUP4 ADD PUSH1 0x0 DUP4 ADD MLOAD PUSH2 0x4C34 PUSH1 0x0 DUP7 ADD DUP3 PUSH2 0x4EE1 JUMP JUMPDEST POP PUSH1 0x20 DUP4 ADD MLOAD PUSH2 0x4C47 PUSH1 0x20 DUP7 ADD DUP3 PUSH2 0x4BBD JUMP JUMPDEST POP PUSH1 0x40 DUP4 ADD MLOAD PUSH2 0x4C5A PUSH1 0x60 DUP7 ADD DUP3 PUSH2 0x4BBD JUMP JUMPDEST POP PUSH1 0x60 DUP4 ADD MLOAD PUSH2 0x4C6D PUSH1 0xA0 DUP7 ADD DUP3 PUSH2 0x4281 JUMP JUMPDEST POP PUSH1 0x80 DUP4 ADD MLOAD DUP5 DUP3 SUB PUSH1 0xC0 DUP7 ADD MSTORE PUSH2 0x4C85 DUP3 DUP3 PUSH2 0x4468 JUMP JUMPDEST SWAP2 POP POP PUSH1 0xA0 DUP4 ADD MLOAD PUSH2 0x4C9A PUSH1 0xE0 DUP7 ADD DUP3 PUSH2 0x4EE1 JUMP JUMPDEST POP DUP1 SWAP2 POP POP SWAP3 SWAP2 POP POP JUMP JUMPDEST PUSH1 0x0 PUSH2 0x100 DUP4 ADD PUSH1 0x0 DUP4 ADD MLOAD PUSH2 0x4CBE PUSH1 0x0 DUP7 ADD DUP3 PUSH2 0x4EE1 JUMP JUMPDEST POP PUSH1 0x20 DUP4 ADD MLOAD PUSH2 0x4CD1 PUSH1 0x20 DUP7 ADD DUP3 PUSH2 0x4BBD JUMP JUMPDEST POP PUSH1 0x40 DUP4 ADD MLOAD PUSH2 0x4CE4 PUSH1 0x60 DUP7 ADD DUP3 PUSH2 0x4BBD JUMP JUMPDEST POP PUSH1 0x60 DUP4 ADD MLOAD PUSH2 0x4CF7 PUSH1 0xA0 DUP7 ADD DUP3 PUSH2 0x4281 JUMP JUMPDEST POP PUSH1 0x80 DUP4 ADD MLOAD DUP5 DUP3 SUB PUSH1 0xC0 DUP7 ADD MSTORE PUSH2 0x4D0F DUP3 DUP3 PUSH2 0x4468 JUMP JUMPDEST SWAP2 POP POP PUSH1 0xA0 DUP4 ADD MLOAD PUSH2 0x4D24 PUSH1 0xE0 DUP7 ADD DUP3 PUSH2 0x4EE1 JUMP JUMPDEST POP DUP1 SWAP2 POP POP SWAP3 SWAP2 POP POP JUMP JUMPDEST PUSH1 0x0 PUSH1 0x40 DUP4 ADD PUSH1 0x0 DUP4 ADD MLOAD DUP5 DUP3 SUB PUSH1 0x0 DUP7 ADD MSTORE PUSH2 0x4D4C DUP3 DUP3 PUSH2 0x4D73 JUMP JUMPDEST SWAP2 POP POP PUSH1 0x20 DUP4 ADD MLOAD DUP5 DUP3 SUB PUSH1 0x20 DUP7 ADD MSTORE PUSH2 0x4D66 DUP3 DUP3 PUSH2 0x4C1B JUMP JUMPDEST SWAP2 POP POP DUP1 SWAP2 POP POP SWAP3 SWAP2 POP POP JUMP JUMPDEST PUSH1 0x0 PUSH2 0x100 DUP4 ADD PUSH1 0x0 DUP4 ADD MLOAD PUSH2 0x4D8C PUSH1 0x0 DUP7 ADD DUP3 PUSH2 0x4EE1 JUMP JUMPDEST POP PUSH1 0x20 DUP4 ADD MLOAD PUSH2 0x4D9F PUSH1 0x20 DUP7 ADD DUP3 PUSH2 0x4EE1 JUMP JUMPDEST POP PUSH1 0x40 DUP4 ADD MLOAD PUSH2 0x4DB2 PUSH1 0x40 DUP7 ADD DUP3 PUSH2 0x4281 JUMP JUMPDEST POP PUSH1 0x60 DUP4 ADD MLOAD PUSH2 0x4DC5 PUSH1 0x60 DUP7 ADD DUP3 PUSH2 0x451A JUMP JUMPDEST POP PUSH1 0x80 DUP4 ADD MLOAD DUP5 DUP3 SUB PUSH1 0x80 DUP7 ADD MSTORE PUSH2 0x4DDD DUP3 DUP3 PUSH2 0x432B JUMP JUMPDEST SWAP2 POP POP PUSH1 0xA0 DUP4 ADD MLOAD PUSH2 0x4DF2 PUSH1 0xA0 DUP7 ADD DUP3 PUSH2 0x4424 JUMP JUMPDEST POP PUSH1 0xC0 DUP4 ADD MLOAD DUP5 DUP3 SUB PUSH1 0xC0 DUP7 ADD MSTORE PUSH2 0x4E0A DUP3 DUP3 PUSH2 0x4468 JUMP JUMPDEST SWAP2 POP POP PUSH1 0xE0 DUP4 ADD MLOAD PUSH2 0x4E1F PUSH1 0xE0 DUP7 ADD DUP3 PUSH2 0x4281 JUMP JUMPDEST POP DUP1 SWAP2 POP POP SWAP3 SWAP2 POP POP JUMP JUMPDEST PUSH1 0x0 PUSH2 0x100 DUP4 ADD PUSH1 0x0 DUP4 ADD MLOAD PUSH2 0x4E43 PUSH1 0x0 DUP7 ADD DUP3 PUSH2 0x4EE1 JUMP JUMPDEST POP PUSH1 0x20 DUP4 ADD MLOAD PUSH2 0x4E56 PUSH1 0x20 DUP7 ADD DUP3 PUSH2 0x4EE1 JUMP JUMPDEST POP PUSH1 0x40 DUP4 ADD MLOAD PUSH2 0x4E69 PUSH1 0x40 DUP7 ADD DUP3 PUSH2 0x4281 JUMP JUMPDEST POP PUSH1 0x60 DUP4 ADD MLOAD PUSH2 0x4E7C PUSH1 0x60 DUP7 ADD DUP3 PUSH2 0x451A JUMP JUMPDEST POP PUSH1 0x80 DUP4 ADD MLOAD DUP5 DUP3 SUB PUSH1 0x80 DUP7 ADD MSTORE PUSH2 0x4E94 DUP3 DUP3 PUSH2 0x432B JUMP JUMPDEST SWAP2 POP POP PUSH1 0xA0 DUP4 ADD MLOAD PUSH2 0x4EA9 PUSH1 0xA0 DUP7 ADD DUP3 PUSH2 0x4424 JUMP JUMPDEST POP PUSH1 0xC0 DUP4 ADD MLOAD DUP5 DUP3 SUB PUSH1 0xC0 DUP7 ADD MSTORE PUSH2 0x4EC1 DUP3 DUP3 PUSH2 0x4468 JUMP JUMPDEST SWAP2 POP POP PUSH1 0xE0 DUP4 ADD MLOAD PUSH2 0x4ED6 PUSH1 0xE0 DUP7 ADD DUP3 PUSH2 0x4281 JUMP JUMPDEST POP DUP1 SWAP2 POP POP SWAP3 SWAP2 POP POP JUMP JUMPDEST PUSH2 0x4EEA DUP2 PUSH2 0x58BF JUMP JUMPDEST DUP3 MSTORE POP POP JUMP JUMPDEST PUSH2 0x4EF9 DUP2 PUSH2 0x58BF JUMP JUMPDEST DUP3 MSTORE POP POP JUMP JUMPDEST PUSH2 0x4F10 PUSH2 0x4F0B DUP3 PUSH2 0x58BF JUMP JUMPDEST PUSH2 0x59DB JUMP JUMPDEST DUP3 MSTORE POP POP JUMP JUMPDEST PUSH1 0x0 PUSH2 0x4F22 DUP3 DUP5 PUSH2 0x44DA JUMP JUMPDEST SWAP2 POP DUP2 SWAP1 POP SWAP3 SWAP2 POP POP JUMP JUMPDEST PUSH1 0x0 PUSH2 0x4F39 DUP3 DUP5 PUSH2 0x4556 JUMP JUMPDEST SWAP2 POP DUP2 SWAP1 POP SWAP3 SWAP2 POP POP JUMP JUMPDEST PUSH1 0x0 PUSH2 0x4F4F DUP3 PUSH2 0x4A6D JUMP JUMPDEST SWAP2 POP DUP2 SWAP1 POP SWAP2 SWAP1 POP JUMP JUMPDEST PUSH1 0x0 PUSH2 0x4F64 DUP3 PUSH2 0x4B2D JUMP JUMPDEST SWAP2 POP PUSH2 0x4F70 DUP3 DUP8 PUSH2 0x429F JUMP JUMPDEST PUSH1 0x14 DUP3 ADD SWAP2 POP PUSH2 0x4F80 DUP3 DUP7 PUSH2 0x4EFF JUMP JUMPDEST PUSH1 0x20 DUP3 ADD SWAP2 POP PUSH2 0x4F90 DUP3 DUP6 PUSH2 0x4442 JUMP JUMPDEST PUSH1 0x20 DUP3 ADD SWAP2 POP PUSH2 0x4FA0 DUP3 DUP5 PUSH2 0x4442 JUMP JUMPDEST PUSH1 0x20 DUP3 ADD SWAP2 POP DUP2 SWAP1 POP SWAP6 SWAP5 POP POP POP POP POP JUMP JUMPDEST PUSH1 0x0 PUSH1 0x20 DUP3 ADD SWAP1 POP PUSH2 0x4FC7 PUSH1 0x0 DUP4 ADD DUP5 PUSH2 0x4290 JUMP JUMPDEST SWAP3 SWAP2 POP POP JUMP JUMPDEST PUSH1 0x0 PUSH1 0x20 DUP3 ADD SWAP1 POP PUSH2 0x4FE2 PUSH1 0x0 DUP4 ADD DUP5 PUSH2 0x4272 JUMP JUMPDEST SWAP3 SWAP2 POP POP JUMP JUMPDEST PUSH1 0x0 PUSH1 0x60 DUP3 ADD SWAP1 POP PUSH2 0x4FFD PUSH1 0x0 DUP4 ADD DUP7 PUSH2 0x4290 JUMP JUMPDEST PUSH2 0x500A PUSH1 0x20 DUP4 ADD DUP6 PUSH2 0x4290 JUMP JUMPDEST PUSH2 0x5017 PUSH1 0x40 DUP4 ADD DUP5 PUSH2 0x4EF0 JUMP JUMPDEST SWAP5 SWAP4 POP POP POP POP JUMP JUMPDEST PUSH1 0x0 PUSH1 0x40 DUP3 ADD SWAP1 POP PUSH2 0x5034 PUSH1 0x0 DUP4 ADD DUP6 PUSH2 0x4290 JUMP JUMPDEST PUSH2 0x5041 PUSH1 0x20 DUP4 ADD DUP5 PUSH2 0x4EF0 JUMP JUMPDEST SWAP4 SWAP3 POP POP POP JUMP JUMPDEST PUSH1 0x0 PUSH1 0x20 DUP3 ADD SWAP1 POP DUP2 DUP2 SUB PUSH1 0x0 DUP4 ADD MSTORE PUSH2 0x5062 DUP2 DUP5 PUSH2 0x43A0 JUMP JUMPDEST SWAP1 POP SWAP3 SWAP2 POP POP JUMP JUMPDEST PUSH1 0x0 PUSH1 0x60 DUP3 ADD SWAP1 POP DUP2 DUP2 SUB PUSH1 0x0 DUP4 ADD MSTORE PUSH2 0x5084 DUP2 DUP7 PUSH2 0x43A0 JUMP JUMPDEST SWAP1 POP PUSH2 0x5093 PUSH1 0x20 DUP4 ADD DUP6 PUSH2 0x4433 JUMP JUMPDEST PUSH2 0x50A0 PUSH1 0x40 DUP4 ADD DUP5 PUSH2 0x4433 JUMP JUMPDEST SWAP5 SWAP4 POP POP POP POP JUMP JUMPDEST PUSH1 0x0 PUSH1 0x20 DUP3 ADD SWAP1 POP PUSH2 0x50BD PUSH1 0x0 DUP4 ADD DUP5 PUSH2 0x4415 JUMP JUMPDEST SWAP3 SWAP2 POP POP JUMP JUMPDEST PUSH1 0x0 PUSH1 0x20 DUP3 ADD SWAP1 POP PUSH2 0x50D8 PUSH1 0x0 DUP4 ADD DUP5 PUSH2 0x4433 JUMP JUMPDEST SWAP3 SWAP2 POP POP JUMP JUMPDEST PUSH1 0x0 PUSH1 0x40 DUP3 ADD SWAP1 POP PUSH2 0x50F3 PUSH1 0x0 DUP4 ADD DUP6 PUSH2 0x4433 JUMP JUMPDEST DUP2 DUP2 SUB PUSH1 0x20 DUP4 ADD MSTORE PUSH2 0x5105 DUP2 DUP5 PUSH2 0x42B6 JUMP JUMPDEST SWAP1 POP SWAP4 SWAP3 POP POP POP JUMP JUMPDEST PUSH1 0x0 PUSH1 0x20 DUP3 ADD SWAP1 POP PUSH2 0x5123 PUSH1 0x0 DUP4 ADD DUP5 PUSH2 0x4459 JUMP JUMPDEST SWAP3 SWAP2 POP POP JUMP JUMPDEST PUSH1 0x0 PUSH1 0x60 DUP3 ADD SWAP1 POP PUSH2 0x513E PUSH1 0x0 DUP4 ADD DUP7 PUSH2 0x4459 JUMP JUMPDEST PUSH2 0x514B PUSH1 0x20 DUP4 ADD DUP6 PUSH2 0x4290 JUMP JUMPDEST DUP2 DUP2 SUB PUSH1 0x40 DUP4 ADD MSTORE PUSH2 0x515D DUP2 DUP5 PUSH2 0x44A1 JUMP JUMPDEST SWAP1 POP SWAP5 SWAP4 POP POP POP POP JUMP JUMPDEST PUSH1 0x0 PUSH1 0x20 DUP3 ADD SWAP1 POP DUP2 DUP2 SUB PUSH1 0x0 DUP4 ADD MSTORE PUSH2 0x5181 DUP2 DUP5 PUSH2 0x44A1 JUMP JUMPDEST SWAP1 POP SWAP3 SWAP2 POP POP JUMP JUMPDEST PUSH1 0x0 PUSH1 0x80 DUP3 ADD SWAP1 POP DUP2 DUP2 SUB PUSH1 0x0 DUP4 ADD MSTORE PUSH2 0x51A3 DUP2 DUP7 PUSH2 0x44A1 JUMP JUMPDEST SWAP1 POP PUSH2 0x51B2 PUSH1 0x20 DUP4 ADD DUP6 PUSH2 0x4EF0 JUMP JUMPDEST PUSH2 0x51BF PUSH1 0x40 DUP4 ADD DUP5 PUSH2 0x4BEC JUMP JUMPDEST SWAP5 SWAP4 POP POP POP POP JUMP JUMPDEST PUSH1 0x0 PUSH1 0x20 DUP3 ADD SWAP1 POP PUSH2 0x51DC PUSH1 0x0 DUP4 ADD DUP5 PUSH2 0x450B JUMP JUMPDEST SWAP3 SWAP2 POP POP JUMP JUMPDEST PUSH1 0x0 PUSH1 0x20 DUP3 ADD SWAP1 POP PUSH2 0x51F7 PUSH1 0x0 DUP4 ADD DUP5 PUSH2 0x4538 JUMP JUMPDEST SWAP3 SWAP2 POP POP JUMP JUMPDEST PUSH1 0x0 PUSH1 0x40 DUP3 ADD SWAP1 POP PUSH2 0x5212 PUSH1 0x0 DUP4 ADD DUP6 PUSH2 0x4547 JUMP JUMPDEST DUP2 DUP2 SUB PUSH1 0x20 DUP4 ADD MSTORE PUSH2 0x5224 DUP2 DUP5 PUSH2 0x44A1 JUMP JUMPDEST SWAP1 POP SWAP4 SWAP3 POP POP POP JUMP JUMPDEST PUSH1 0x0 PUSH1 0x20 DUP3 ADD SWAP1 POP DUP2 DUP2 SUB PUSH1 0x0 DUP4 ADD MSTORE PUSH2 0x5246 DUP2 PUSH2 0x4587 JUMP JUMPDEST SWAP1 POP SWAP2 SWAP1 POP JUMP JUMPDEST PUSH1 0x0 PUSH1 0x20 DUP3 ADD SWAP1 POP DUP2 DUP2 SUB PUSH1 0x0 DUP4 ADD MSTORE PUSH2 0x5266 DUP2 PUSH2 0x45C7 JUMP JUMPDEST SWAP1 POP SWAP2 SWAP1 POP JUMP JUMPDEST PUSH1 0x0 PUSH1 0x20 DUP3 ADD SWAP1 POP DUP2 DUP2 SUB PUSH1 0x0 DUP4 ADD MSTORE PUSH2 0x5286 DUP2 PUSH2 0x4607 JUMP JUMPDEST SWAP1 POP SWAP2 SWAP1 POP JUMP JUMPDEST PUSH1 0x0 PUSH1 0x20 DUP3 ADD SWAP1 POP DUP2 DUP2 SUB PUSH1 0x0 DUP4 ADD MSTORE PUSH2 0x52A6 DUP2 PUSH2 0x4647 JUMP JUMPDEST SWAP1 POP SWAP2 SWAP1 POP JUMP JUMPDEST PUSH1 0x0 PUSH1 0x20 DUP3 ADD SWAP1 POP DUP2 DUP2 SUB PUSH1 0x0 DUP4 ADD MSTORE PUSH2 0x52C6 DUP2 PUSH2 0x4687 JUMP JUMPDEST SWAP1 POP SWAP2 SWAP1 POP JUMP JUMPDEST PUSH1 0x0 PUSH1 0x20 DUP3 ADD SWAP1 POP DUP2 DUP2 SUB PUSH1 0x0 DUP4 ADD MSTORE PUSH2 0x52E6 DUP2 PUSH2 0x46C7 JUMP JUMPDEST SWAP1 POP SWAP2 SWAP1 POP JUMP JUMPDEST PUSH1 0x0 PUSH1 0x20 DUP3 ADD SWAP1 POP DUP2 DUP2 SUB PUSH1 0x0 DUP4 ADD MSTORE PUSH2 0x5306 DUP2 PUSH2 0x4707 JUMP JUMPDEST SWAP1 POP SWAP2 SWAP1 POP JUMP JUMPDEST PUSH1 0x0 PUSH1 0x20 DUP3 ADD SWAP1 POP DUP2 DUP2 SUB PUSH1 0x0 DUP4 ADD MSTORE PUSH2 0x5326 DUP2 PUSH2 0x4747 JUMP JUMPDEST SWAP1 POP SWAP2 SWAP1 POP JUMP JUMPDEST PUSH1 0x0 PUSH1 0x20 DUP3 ADD SWAP1 POP DUP2 DUP2 SUB PUSH1 0x0 DUP4 ADD MSTORE PUSH2 0x5346 DUP2 PUSH2 0x4787 JUMP JUMPDEST SWAP1 POP SWAP2 SWAP1 POP JUMP JUMPDEST PUSH1 0x0 PUSH1 0x20 DUP3 ADD SWAP1 POP DUP2 DUP2 SUB PUSH1 0x0 DUP4 ADD MSTORE PUSH2 0x5366 DUP2 PUSH2 0x47C7 JUMP JUMPDEST SWAP1 POP SWAP2 SWAP1 POP JUMP JUMPDEST PUSH1 0x0 PUSH1 0x20 DUP3 ADD SWAP1 POP DUP2 DUP2 SUB PUSH1 0x0 DUP4 ADD MSTORE PUSH2 0x5386 DUP2 PUSH2 0x4807 JUMP JUMPDEST SWAP1 POP SWAP2 SWAP1 POP JUMP JUMPDEST PUSH1 0x0 PUSH1 0x20 DUP3 ADD SWAP1 POP DUP2 DUP2 SUB PUSH1 0x0 DUP4 ADD MSTORE PUSH2 0x53A6 DUP2 PUSH2 0x4847 JUMP JUMPDEST SWAP1 POP SWAP2 SWAP1 POP JUMP JUMPDEST PUSH1 0x0 PUSH1 0x20 DUP3 ADD SWAP1 POP DUP2 DUP2 SUB PUSH1 0x0 DUP4 ADD MSTORE PUSH2 0x53C6 DUP2 PUSH2 0x4887 JUMP JUMPDEST SWAP1 POP SWAP2 SWAP1 POP JUMP JUMPDEST PUSH1 0x0 PUSH1 0x20 DUP3 ADD SWAP1 POP DUP2 DUP2 SUB PUSH1 0x0 DUP4 ADD MSTORE PUSH2 0x53E6 DUP2 PUSH2 0x48C7 JUMP JUMPDEST SWAP1 POP SWAP2 SWAP1 POP JUMP JUMPDEST PUSH1 0x0 PUSH1 0x20 DUP3 ADD SWAP1 POP DUP2 DUP2 SUB PUSH1 0x0 DUP4 ADD MSTORE PUSH2 0x5406 DUP2 PUSH2 0x492D JUMP JUMPDEST SWAP1 POP SWAP2 SWAP1 POP JUMP JUMPDEST PUSH1 0x0 PUSH1 0x20 DUP3 ADD SWAP1 POP DUP2 DUP2 SUB PUSH1 0x0 DUP4 ADD MSTORE PUSH2 0x5426 DUP2 PUSH2 0x496D JUMP JUMPDEST SWAP1 POP SWAP2 SWAP1 POP JUMP JUMPDEST PUSH1 0x0 PUSH1 0x20 DUP3 ADD SWAP1 POP DUP2 DUP2 SUB PUSH1 0x0 DUP4 ADD MSTORE PUSH2 0x5446 DUP2 PUSH2 0x49AD JUMP JUMPDEST SWAP1 POP SWAP2 SWAP1 POP JUMP JUMPDEST PUSH1 0x0 PUSH1 0x20 DUP3 ADD SWAP1 POP DUP2 DUP2 SUB PUSH1 0x0 DUP4 ADD MSTORE PUSH2 0x5466 DUP2 PUSH2 0x49ED JUMP JUMPDEST SWAP1 POP SWAP2 SWAP1 POP JUMP JUMPDEST PUSH1 0x0 PUSH1 0x20 DUP3 ADD SWAP1 POP DUP2 DUP2 SUB PUSH1 0x0 DUP4 ADD MSTORE PUSH2 0x5486 DUP2 PUSH2 0x4A2D JUMP JUMPDEST SWAP1 POP SWAP2 SWAP1 POP JUMP JUMPDEST PUSH1 0x0 PUSH1 0x20 DUP3 ADD SWAP1 POP DUP2 DUP2 SUB PUSH1 0x0 DUP4 ADD MSTORE PUSH2 0x54A6 DUP2 PUSH2 0x4AAD JUMP JUMPDEST SWAP1 POP SWAP2 SWAP1 POP JUMP JUMPDEST PUSH1 0x0 PUSH1 0x20 DUP3 ADD SWAP1 POP DUP2 DUP2 SUB PUSH1 0x0 DUP4 ADD MSTORE PUSH2 0x54C6 DUP2 PUSH2 0x4AED JUMP JUMPDEST SWAP1 POP SWAP2 SWAP1 POP JUMP JUMPDEST PUSH1 0x0 PUSH1 0x20 DUP3 ADD SWAP1 POP DUP2 DUP2 SUB PUSH1 0x0 DUP4 ADD MSTORE PUSH2 0x54E7 DUP2 DUP5 PUSH2 0x4CA5 JUMP JUMPDEST SWAP1 POP SWAP3 SWAP2 POP POP JUMP JUMPDEST PUSH1 0x0 PUSH1 0x20 DUP3 ADD SWAP1 POP DUP2 DUP2 SUB PUSH1 0x0 DUP4 ADD MSTORE PUSH2 0x5509 DUP2 DUP5 PUSH2 0x4D2F JUMP JUMPDEST SWAP1 POP SWAP3 SWAP2 POP POP JUMP JUMPDEST PUSH1 0x0 PUSH1 0x20 DUP3 ADD SWAP1 POP DUP2 DUP2 SUB PUSH1 0x0 DUP4 ADD MSTORE PUSH2 0x552B DUP2 DUP5 PUSH2 0x4E2A JUMP JUMPDEST SWAP1 POP SWAP3 SWAP2 POP POP JUMP JUMPDEST PUSH1 0x0 PUSH1 0x20 DUP3 ADD SWAP1 POP PUSH2 0x5548 PUSH1 0x0 DUP4 ADD DUP5 PUSH2 0x4EF0 JUMP JUMPDEST SWAP3 SWAP2 POP POP JUMP JUMPDEST PUSH1 0x0 PUSH1 0x60 DUP3 ADD SWAP1 POP PUSH2 0x5563 PUSH1 0x0 DUP4 ADD DUP7 PUSH2 0x4EF0 JUMP JUMPDEST PUSH2 0x5570 PUSH1 0x20 DUP4 ADD DUP6 PUSH2 0x4272 JUMP JUMPDEST DUP2 DUP2 SUB PUSH1 0x40 DUP4 ADD MSTORE PUSH2 0x5582 DUP2 DUP5 PUSH2 0x44A1 JUMP JUMPDEST SWAP1 POP SWAP5 SWAP4 POP POP POP POP JUMP JUMPDEST PUSH1 0x0 PUSH1 0x60 DUP3 ADD SWAP1 POP PUSH2 0x55A1 PUSH1 0x0 DUP4 ADD DUP7 PUSH2 0x4EF0 JUMP JUMPDEST PUSH2 0x55AE PUSH1 0x20 DUP4 ADD DUP6 PUSH2 0x4290 JUMP JUMPDEST DUP2 DUP2 SUB PUSH1 0x40 DUP4 ADD MSTORE PUSH2 0x55C0 DUP2 DUP5 PUSH2 0x44A1 JUMP JUMPDEST SWAP1 POP SWAP5 SWAP4 POP POP POP POP JUMP JUMPDEST PUSH1 0x0 PUSH1 0xE0 DUP3 ADD SWAP1 POP PUSH2 0x55DF PUSH1 0x0 DUP4 ADD DUP11 PUSH2 0x4EF0 JUMP JUMPDEST PUSH2 0x55EC PUSH1 0x20 DUP4 ADD DUP10 PUSH2 0x4EF0 JUMP JUMPDEST PUSH2 0x55F9 PUSH1 0x40 DUP4 ADD DUP9 PUSH2 0x4290 JUMP JUMPDEST PUSH2 0x5606 PUSH1 0x60 DUP4 ADD DUP8 PUSH2 0x4529 JUMP JUMPDEST PUSH2 0x5613 PUSH1 0x80 DUP4 ADD DUP7 PUSH2 0x4433 JUMP JUMPDEST PUSH2 0x5620 PUSH1 0xA0 DUP4 ADD DUP6 PUSH2 0x4433 JUMP JUMPDEST PUSH2 0x562D PUSH1 0xC0 DUP4 ADD DUP5 PUSH2 0x4433 JUMP JUMPDEST SWAP9 SWAP8 POP POP POP POP POP POP POP POP JUMP JUMPDEST PUSH1 0x0 PUSH1 0x40 MLOAD SWAP1 POP DUP2 DUP2 ADD DUP2 DUP2 LT PUSH8 0xFFFFFFFFFFFFFFFF DUP3 GT OR ISZERO PUSH2 0x565C JUMPI PUSH1 0x0 DUP1 REVERT JUMPDEST DUP1 PUSH1 0x40 MSTORE POP SWAP2 SWAP1 POP JUMP JUMPDEST PUSH1 0x0 PUSH8 0xFFFFFFFFFFFFFFFF DUP3 GT ISZERO PUSH2 0x567D JUMPI PUSH1 0x0 DUP1 REVERT JUMPDEST PUSH1 0x20 DUP3 MUL SWAP1 POP PUSH1 0x20 DUP2 ADD SWAP1 POP SWAP2 SWAP1 POP JUMP JUMPDEST PUSH1 0x0 PUSH8 0xFFFFFFFFFFFFFFFF DUP3 GT ISZERO PUSH2 0x56A5 JUMPI PUSH1 0x0 DUP1 REVERT JUMPDEST PUSH1 0x20 DUP3 MUL SWAP1 POP PUSH1 0x20 DUP2 ADD SWAP1 POP SWAP2 SWAP1 POP JUMP JUMPDEST PUSH1 0x0 PUSH8 0xFFFFFFFFFFFFFFFF DUP3 GT ISZERO PUSH2 0x56CD JUMPI PUSH1 0x0 DUP1 REVERT JUMPDEST PUSH1 0x1F NOT PUSH1 0x1F DUP4 ADD AND SWAP1 POP PUSH1 0x20 DUP2 ADD SWAP1 POP SWAP2 SWAP1 POP JUMP JUMPDEST PUSH1 0x0 PUSH8 0xFFFFFFFFFFFFFFFF DUP3 GT ISZERO PUSH2 0x56F9 JUMPI PUSH1 0x0 DUP1 REVERT JUMPDEST PUSH1 0x1F NOT PUSH1 0x1F DUP4 ADD AND SWAP1 POP PUSH1 0x20 DUP2 ADD SWAP1 POP SWAP2 SWAP1 POP JUMP JUMPDEST PUSH1 0x0 DUP2 SWAP1 POP PUSH1 0x20 DUP3 ADD SWAP1 POP SWAP2 SWAP1 POP JUMP JUMPDEST PUSH1 0x0 DUP2 SWAP1 POP PUSH1 0x20 DUP3 ADD SWAP1 POP SWAP2 SWAP1 POP JUMP JUMPDEST PUSH1 0x0 DUP2 MLOAD SWAP1 POP SWAP2 SWAP1 POP JUMP JUMPDEST PUSH1 0x0 DUP2 MLOAD SWAP1 POP SWAP2 SWAP1 POP JUMP JUMPDEST PUSH1 0x0 DUP2 MLOAD SWAP1 POP SWAP2 SWAP1 POP JUMP JUMPDEST PUSH1 0x0 DUP2 MLOAD SWAP1 POP SWAP2 SWAP1 POP JUMP JUMPDEST PUSH1 0x0 PUSH1 0x20 DUP3 ADD SWAP1 POP SWAP2 SWAP1 POP JUMP JUMPDEST PUSH1 0x0 PUSH1 0x20 DUP3 ADD SWAP1 POP SWAP2 SWAP1 POP JUMP JUMPDEST PUSH1 0x0 DUP3 DUP3 MSTORE PUSH1 0x20 DUP3 ADD SWAP1 POP SWAP3 SWAP2 POP POP JUMP JUMPDEST PUSH1 0x0 DUP3 DUP3 MSTORE PUSH1 0x20 DUP3 ADD SWAP1 POP SWAP3 SWAP2 POP POP JUMP JUMPDEST PUSH1 0x0 DUP3 DUP3 MSTORE PUSH1 0x20 DUP3 ADD SWAP1 POP SWAP3 SWAP2 POP POP JUMP JUMPDEST PUSH1 0x0 DUP3 DUP3 MSTORE PUSH1 0x20 DUP3 ADD SWAP1 POP SWAP3 SWAP2 POP POP JUMP JUMPDEST PUSH1 0x0 DUP3 DUP3 MSTORE PUSH1 0x20 DUP3 ADD SWAP1 POP SWAP3 SWAP2 POP POP JUMP JUMPDEST PUSH1 0x0 DUP2 SWAP1 POP SWAP3 SWAP2 POP POP JUMP JUMPDEST PUSH1 0x0 DUP3 DUP3 MSTORE PUSH1 0x20 DUP3 ADD SWAP1 POP SWAP3 SWAP2 POP POP JUMP JUMPDEST PUSH1 0x0 DUP2 SWAP1 POP SWAP3 SWAP2 POP POP JUMP JUMPDEST PUSH1 0x0 PUSH2 0x57FB DUP3 PUSH2 0x589F JUMP JUMPDEST SWAP1 POP SWAP2 SWAP1 POP JUMP JUMPDEST PUSH1 0x0 DUP2 ISZERO ISZERO SWAP1 POP SWAP2 SWAP1 POP JUMP JUMPDEST PUSH1 0x0 DUP2 SWAP1 POP SWAP2 SWAP1 POP JUMP JUMPDEST PUSH1 0x0 PUSH32 0xFFFFFFFF00000000000000000000000000000000000000000000000000000000 DUP3 AND SWAP1 POP SWAP2 SWAP1 POP JUMP JUMPDEST PUSH1 0x0 PUSH2 0x584F DUP3 PUSH2 0x57F0 JUMP JUMPDEST SWAP1 POP SWAP2 SWAP1 POP JUMP JUMPDEST PUSH1 0x0 PUSH2 0x5861 DUP3 PUSH2 0x57F0 JUMP JUMPDEST SWAP1 POP SWAP2 SWAP1 POP JUMP JUMPDEST PUSH1 0x0 PUSH2 0x5873 DUP3 PUSH2 0x57F0 JUMP JUMPDEST SWAP1 POP SWAP2 SWAP1 POP JUMP JUMPDEST PUSH1 0x0 PUSH2 0x5885 DUP3 PUSH2 0x57F0 JUMP JUMPDEST SWAP1 POP SWAP2 SWAP1 POP JUMP JUMPDEST PUSH1 0x0 DUP2 SWAP1 POP PUSH2 0x589A DUP3 PUSH2 0x5A03 JUMP JUMPDEST SWAP2 SWAP1 POP JUMP JUMPDEST PUSH1 0x0 PUSH20 0xFFFFFFFFFFFFFFFFFFFFFFFFFFFFFFFFFFFFFFFF DUP3 AND SWAP1 POP SWAP2 SWAP1 POP JUMP JUMPDEST PUSH1 0x0 DUP2 SWAP1 POP SWAP2 SWAP1 POP JUMP JUMPDEST PUSH1 0x0 PUSH2 0x58D4 DUP3 PUSH2 0x5947 JUMP JUMPDEST SWAP1 POP SWAP2 SWAP1 POP JUMP JUMPDEST PUSH1 0x0 PUSH2 0x58E6 DUP3 PUSH2 0x58ED JUMP JUMPDEST SWAP1 POP SWAP2 SWAP1 POP JUMP JUMPDEST PUSH1 0x0 PUSH2 0x58F8 DUP3 PUSH2 0x589F JUMP JUMPDEST SWAP1 POP SWAP2 SWAP1 POP JUMP JUMPDEST PUSH1 0x0 PUSH2 0x590A DUP3 PUSH2 0x5911 JUMP JUMPDEST SWAP1 POP SWAP2 SWAP1 POP JUMP JUMPDEST PUSH1 0x0 PUSH2 0x591C DUP3 PUSH2 0x589F JUMP JUMPDEST SWAP1 POP SWAP2 SWAP1 POP JUMP JUMPDEST PUSH1 0x0 PUSH2 0x592E DUP3 PUSH2 0x588C JUMP JUMPDEST SWAP1 POP SWAP2 SWAP1 POP JUMP JUMPDEST PUSH1 0x0 PUSH2 0x5940 DUP3 PUSH2 0x58BF JUMP JUMPDEST SWAP1 POP SWAP2 SWAP1 POP JUMP JUMPDEST PUSH1 0x0 PUSH2 0x5952 DUP3 PUSH2 0x5959 JUMP JUMPDEST SWAP1 POP SWAP2 SWAP1 POP JUMP JUMPDEST PUSH1 0x0 PUSH2 0x5964 DUP3 PUSH2 0x589F JUMP JUMPDEST SWAP1 POP SWAP2 SWAP1 POP JUMP JUMPDEST DUP3 DUP2 DUP4 CALLDATACOPY PUSH1 0x0 DUP4 DUP4 ADD MSTORE POP POP POP JUMP JUMPDEST PUSH1 0x0 JUMPDEST DUP4 DUP2 LT ISZERO PUSH2 0x5998 JUMPI DUP1 DUP3 ADD MLOAD DUP2 DUP5 ADD MSTORE PUSH1 0x20 DUP2 ADD SWAP1 POP PUSH2 0x597D JUMP JUMPDEST DUP4 DUP2 GT ISZERO PUSH2 0x59A7 JUMPI PUSH1 0x0 DUP5 DUP5 ADD MSTORE JUMPDEST POP POP POP POP JUMP JUMPDEST PUSH1 0x0 PUSH2 0x59B8 DUP3 PUSH2 0x59C9 JUMP JUMPDEST SWAP1 POP SWAP2 SWAP1 POP JUMP JUMPDEST PUSH1 0x0 DUP2 SWAP1 POP SWAP2 SWAP1 POP JUMP JUMPDEST PUSH1 0x0 PUSH2 0x59D4 DUP3 PUSH2 0x59F6 JUMP JUMPDEST SWAP1 POP SWAP2 SWAP1 POP JUMP JUMPDEST PUSH1 0x0 DUP2 SWAP1 POP SWAP2 SWAP1 POP JUMP JUMPDEST PUSH1 0x0 PUSH1 0x1F NOT PUSH1 0x1F DUP4 ADD AND SWAP1 POP SWAP2 SWAP1 POP JUMP JUMPDEST PUSH1 0x0 DUP2 PUSH1 0x60 SHL SWAP1 POP SWAP2 SWAP1 POP JUMP JUMPDEST PUSH1 0x7 DUP2 LT PUSH2 0x5A0D JUMPI INVALID JUMPDEST POP JUMP JUMPDEST PUSH2 0x5A19 DUP2 PUSH2 0x57F0 JUMP JUMPDEST DUP2 EQ PUSH2 0x5A24 JUMPI PUSH1 0x0 DUP1 REVERT JUMPDEST POP JUMP JUMPDEST PUSH2 0x5A30 DUP2 PUSH2 0x5802 JUMP JUMPDEST DUP2 EQ PUSH2 0x5A3B JUMPI PUSH1 0x0 DUP1 REVERT JUMPDEST POP JUMP JUMPDEST PUSH2 0x5A47 DUP2 PUSH2 0x580E JUMP JUMPDEST DUP2 EQ PUSH2 0x5A52 JUMPI PUSH1 0x0 DUP1 REVERT JUMPDEST POP JUMP JUMPDEST PUSH2 0x5A5E DUP2 PUSH2 0x5818 JUMP JUMPDEST DUP2 EQ PUSH2 0x5A69 JUMPI PUSH1 0x0 DUP1 REVERT JUMPDEST POP JUMP JUMPDEST PUSH2 0x5A75 DUP2 PUSH2 0x5844 JUMP JUMPDEST DUP2 EQ PUSH2 0x5A80 JUMPI PUSH1 0x0 DUP1 REVERT JUMPDEST POP JUMP JUMPDEST PUSH2 0x5A8C DUP2 PUSH2 0x5856 JUMP JUMPDEST DUP2 EQ PUSH2 0x5A97 JUMPI PUSH1 0x0 DUP1 REVERT JUMPDEST POP JUMP JUMPDEST PUSH2 0x5AA3 DUP2 PUSH2 0x5868 JUMP JUMPDEST DUP2 EQ PUSH2 0x5AAE JUMPI PUSH1 0x0 DUP1 REVERT JUMPDEST POP JUMP JUMPDEST PUSH2 0x5ABA DUP2 PUSH2 0x587A JUMP JUMPDEST DUP2 EQ PUSH2 0x5AC5 JUMPI PUSH1 0x0 DUP1 REVERT JUMPDEST POP JUMP JUMPDEST PUSH1 0x3 DUP2 LT PUSH2 0x5AD5 JUMPI PUSH1 0x0 DUP1 REVERT JUMPDEST POP JUMP JUMPDEST PUSH2 0x5AE1 DUP2 PUSH2 0x58BF JUMP JUMPDEST DUP2 EQ PUSH2 0x5AEC JUMPI PUSH1 0x0 DUP1 REVERT JUMPDEST POP JUMP INVALID LOG2 PUSH5 0x6970667358 0x22 SLT KECCAK256 NOT SWAP11 PUSH29 0xBADC078E449D5431EC07FD4AF52DDEC8E6AE31A7A97666401151DCCCC2 PUSH5 0x736F6C6343 STOP MOD ADDMOD STOP CALLER "
		},
		"gasEstimates": {
			"creation": {
				"codeDepositCost": "4666600",
				"executionCost": "infinite",
				"totalCost": "infinite"
			},
			"external": {
				"ROOT_ROLE()": "488",
				"bulk((uint8,bytes4,address)[])": "infinite",
				"challenge(((uint256,uint256,address,address,(address,uint256,bytes)[],bytes32,bytes,address),(uint256,(address,uint256),(address,uint256),address,bytes,uint256)),bytes)": "infinite",
				"challengerCache(bytes32)": "1605",
				"configHash()": "1239",
				"configure((uint256,(address,uint256),(address,uint256),address,bytes,uint256))": "infinite",
				"disputeItemCache(bytes32,address)": "1905",
				"execute(((uint256,uint256,address,address,(address,uint256,bytes)[],bytes32,bytes,address),(uint256,(address,uint256),(address,uint256),address,bytes,uint256)))": "infinite",
				"freeze(bytes4)": "infinite",
				"grant(bytes4,address)": "infinite",
				"grantWithOracle(bytes4,address,address)": "infinite",
				"initBlocks(string)": "infinite",
				"initialize(address,(uint256,(address,uint256),(address,uint256),address,bytes,uint256))": "infinite",
				"isFrozen(bytes4)": "1677",
				"nonce()": "1218",
				"queue(bytes32)": "1699",
				"resolve(((uint256,uint256,address,address,(address,uint256,bytes)[],bytes32,bytes,address),(uint256,(address,uint256),(address,uint256),address,bytes,uint256)),uint256)": "infinite",
				"revoke(bytes4,address)": "infinite",
				"roles(bytes4,address)": "infinite",
				"schedule(((uint256,uint256,address,address,(address,uint256,bytes)[],bytes32,bytes,address),(uint256,(address,uint256),(address,uint256),address,bytes,uint256)))": "infinite",
				"supportsInterface(bytes4)": "1687",
				"veto(((uint256,uint256,address,address,(address,uint256,bytes)[],bytes32,bytes,address),(uint256,(address,uint256),(address,uint256),address,bytes,uint256)),bytes)": "infinite"
			},
			"internal": {
				"_execute(struct ERC3000Data.Payload memory,bytes32)": "infinite",
				"_executeApproved(struct ERC3000Data.Container memory)": "infinite",
				"_setConfig(struct ERC3000Data.Config memory)": "infinite",
				"_settleRejection(struct ERC3000Data.Container memory)": "infinite"
			}
		},
		"methodIdentifiers": {
			"ROOT_ROLE()": "7e8c7f08",
			"bulk((uint8,bytes4,address)[])": "1c47671b",
			"challenge(((uint256,uint256,address,address,(address,uint256,bytes)[],bytes32,bytes,address),(uint256,(address,uint256),(address,uint256),address,bytes,uint256)),bytes)": "38ccfbc8",
			"challengerCache(bytes32)": "c8182af0",
			"configHash()": "e1f1176d",
			"configure((uint256,(address,uint256),(address,uint256),address,bytes,uint256))": "7744efda",
			"disputeItemCache(bytes32,address)": "3e2da6a9",
			"execute(((uint256,uint256,address,address,(address,uint256,bytes)[],bytes32,bytes,address),(uint256,(address,uint256),(address,uint256),address,bytes,uint256)))": "f87983b9",
			"freeze(bytes4)": "bdf9a726",
			"grant(bytes4,address)": "a157a10d",
			"grantWithOracle(bytes4,address,address)": "a2157227",
			"initBlocks(string)": "cc1d4cab",
			"initialize(address,(uint256,(address,uint256),(address,uint256),address,bytes,uint256))": "8f8b35b2",
			"isFrozen(bytes4)": "495a9825",
			"nonce()": "affed0e0",
			"queue(bytes32)": "7c10dea6",
			"resolve(((uint256,uint256,address,address,(address,uint256,bytes)[],bytes32,bytes,address),(uint256,(address,uint256),(address,uint256),address,bytes,uint256)),uint256)": "b57fc917",
			"revoke(bytes4,address)": "58849734",
			"roles(bytes4,address)": "96fc8abd",
			"schedule(((uint256,uint256,address,address,(address,uint256,bytes)[],bytes32,bytes,address),(uint256,(address,uint256),(address,uint256),address,bytes,uint256)))": "c1862a79",
			"supportsInterface(bytes4)": "01ffc9a7",
			"veto(((uint256,uint256,address,address,(address,uint256,bytes)[],bytes32,bytes,address),(uint256,(address,uint256),(address,uint256),address,bytes,uint256)),bytes)": "01f75f35"
		}
	},
	"abi": [
		{
			"inputs": [
				{
					"internalType": "address",
					"name": "_aclRoot",
					"type": "address"
				},
				{
					"components": [
						{
							"internalType": "uint256",
							"name": "executionDelay",
							"type": "uint256"
						},
						{
							"components": [
								{
									"internalType": "address",
									"name": "token",
									"type": "address"
								},
								{
									"internalType": "uint256",
									"name": "amount",
									"type": "uint256"
								}
							],
							"internalType": "struct ERC3000Data.Collateral",
							"name": "scheduleDeposit",
							"type": "tuple"
						},
						{
							"components": [
								{
									"internalType": "address",
									"name": "token",
									"type": "address"
								},
								{
									"internalType": "uint256",
									"name": "amount",
									"type": "uint256"
								}
							],
							"internalType": "struct ERC3000Data.Collateral",
							"name": "challengeDeposit",
							"type": "tuple"
						},
						{
							"internalType": "address",
							"name": "resolver",
							"type": "address"
						},
						{
							"internalType": "bytes",
							"name": "rules",
							"type": "bytes"
						},
						{
							"internalType": "uint256",
							"name": "maxCalldataSize",
							"type": "uint256"
						}
					],
					"internalType": "struct ERC3000Data.Config",
					"name": "_initialConfig",
					"type": "tuple"
				}
			],
			"stateMutability": "nonpayable",
			"type": "constructor"
		},
		{
			"anonymous": false,
			"inputs": [
				{
					"indexed": true,
					"internalType": "bytes32",
					"name": "containerHash",
					"type": "bytes32"
				},
				{
					"indexed": true,
					"internalType": "address",
					"name": "actor",
					"type": "address"
				},
				{
					"indexed": false,
					"internalType": "bytes",
					"name": "reason",
					"type": "bytes"
				},
				{
					"indexed": false,
					"internalType": "uint256",
					"name": "resolverId",
					"type": "uint256"
				},
				{
					"components": [
						{
							"internalType": "address",
							"name": "token",
							"type": "address"
						},
						{
							"internalType": "uint256",
							"name": "amount",
							"type": "uint256"
						}
					],
					"indexed": false,
					"internalType": "struct ERC3000Data.Collateral",
					"name": "collateral",
					"type": "tuple"
				}
			],
			"name": "Challenged",
			"type": "event"
		},
		{
			"anonymous": false,
			"inputs": [
				{
					"indexed": true,
					"internalType": "bytes32",
					"name": "configHash",
					"type": "bytes32"
				},
				{
					"indexed": true,
					"internalType": "address",
					"name": "actor",
					"type": "address"
				},
				{
					"components": [
						{
							"internalType": "uint256",
							"name": "executionDelay",
							"type": "uint256"
						},
						{
							"components": [
								{
									"internalType": "address",
									"name": "token",
									"type": "address"
								},
								{
									"internalType": "uint256",
									"name": "amount",
									"type": "uint256"
								}
							],
							"internalType": "struct ERC3000Data.Collateral",
							"name": "scheduleDeposit",
							"type": "tuple"
						},
						{
							"components": [
								{
									"internalType": "address",
									"name": "token",
									"type": "address"
								},
								{
									"internalType": "uint256",
									"name": "amount",
									"type": "uint256"
								}
							],
							"internalType": "struct ERC3000Data.Collateral",
							"name": "challengeDeposit",
							"type": "tuple"
						},
						{
							"internalType": "address",
							"name": "resolver",
							"type": "address"
						},
						{
							"internalType": "bytes",
							"name": "rules",
							"type": "bytes"
						},
						{
							"internalType": "uint256",
							"name": "maxCalldataSize",
							"type": "uint256"
						}
					],
					"indexed": false,
					"internalType": "struct ERC3000Data.Config",
					"name": "config",
					"type": "tuple"
				}
			],
			"name": "Configured",
			"type": "event"
		},
		{
			"anonymous": false,
			"inputs": [
				{
					"indexed": true,
					"internalType": "bytes32",
					"name": "containerHash",
					"type": "bytes32"
				},
				{
					"indexed": true,
					"internalType": "address",
					"name": "actor",
					"type": "address"
				}
			],
			"name": "Executed",
			"type": "event"
		},
		{
			"anonymous": false,
			"inputs": [
				{
					"indexed": true,
					"internalType": "bytes4",
					"name": "role",
					"type": "bytes4"
				},
				{
					"indexed": true,
					"internalType": "address",
					"name": "actor",
					"type": "address"
				}
			],
			"name": "Frozen",
			"type": "event"
		},
		{
			"anonymous": false,
			"inputs": [
				{
					"indexed": true,
					"internalType": "bytes4",
					"name": "role",
					"type": "bytes4"
				},
				{
					"indexed": true,
					"internalType": "address",
					"name": "actor",
					"type": "address"
				},
				{
					"indexed": true,
					"internalType": "address",
					"name": "who",
					"type": "address"
				},
				{
					"indexed": false,
					"internalType": "contract IACLOracle",
					"name": "oracle",
					"type": "address"
				}
			],
			"name": "Granted",
			"type": "event"
		},
		{
			"anonymous": false,
			"inputs": [
				{
					"indexed": true,
					"internalType": "string",
					"name": "key",
					"type": "string"
				}
			],
			"name": "Initialized",
			"type": "event"
		},
		{
			"anonymous": false,
			"inputs": [
				{
					"indexed": true,
					"internalType": "bytes4",
					"name": "sig",
					"type": "bytes4"
				},
				{
					"indexed": false,
					"internalType": "bytes",
					"name": "data",
					"type": "bytes"
				}
			],
			"name": "ReceivedCallback",
			"type": "event"
		},
		{
			"anonymous": false,
			"inputs": [
				{
					"indexed": false,
					"internalType": "bytes4",
					"name": "sig",
					"type": "bytes4"
				},
				{
					"indexed": false,
					"internalType": "bytes4",
					"name": "magicNumber",
					"type": "bytes4"
				}
			],
			"name": "RegisteredCallback",
			"type": "event"
		},
		{
			"anonymous": false,
			"inputs": [
				{
					"indexed": false,
					"internalType": "bytes4",
					"name": "interfaceId",
					"type": "bytes4"
				}
			],
			"name": "RegisteredStandard",
			"type": "event"
		},
		{
			"anonymous": false,
			"inputs": [
				{
					"indexed": true,
					"internalType": "bytes32",
					"name": "containerHash",
					"type": "bytes32"
				},
				{
					"indexed": true,
					"internalType": "address",
					"name": "actor",
					"type": "address"
				},
				{
					"indexed": false,
					"internalType": "bool",
					"name": "approved",
					"type": "bool"
				}
			],
			"name": "Resolved",
			"type": "event"
		},
		{
			"anonymous": false,
			"inputs": [
				{
					"indexed": true,
					"internalType": "bytes4",
					"name": "role",
					"type": "bytes4"
				},
				{
					"indexed": true,
					"internalType": "address",
					"name": "actor",
					"type": "address"
				},
				{
					"indexed": true,
					"internalType": "address",
					"name": "who",
					"type": "address"
				}
			],
			"name": "Revoked",
			"type": "event"
		},
		{
			"anonymous": false,
			"inputs": [
				{
					"indexed": true,
					"internalType": "contract IArbitrator",
					"name": "arbitrator",
					"type": "address"
				},
				{
					"indexed": true,
					"internalType": "uint256",
					"name": "disputeId",
					"type": "uint256"
				},
				{
					"indexed": false,
					"internalType": "uint256",
					"name": "ruling",
					"type": "uint256"
				}
			],
			"name": "Ruled",
			"type": "event"
		},
		{
			"anonymous": false,
			"inputs": [
				{
					"indexed": true,
					"internalType": "bytes32",
					"name": "containerHash",
					"type": "bytes32"
				},
				{
					"components": [
						{
							"internalType": "uint256",
							"name": "nonce",
							"type": "uint256"
						},
						{
							"internalType": "uint256",
							"name": "executionTime",
							"type": "uint256"
						},
						{
							"internalType": "address",
							"name": "submitter",
							"type": "address"
						},
						{
							"internalType": "contract IERC3000Executor",
							"name": "executor",
							"type": "address"
						},
						{
							"components": [
								{
									"internalType": "address",
									"name": "to",
									"type": "address"
								},
								{
									"internalType": "uint256",
									"name": "value",
									"type": "uint256"
								},
								{
									"internalType": "bytes",
									"name": "data",
									"type": "bytes"
								}
							],
							"internalType": "struct ERC3000Data.Action[]",
							"name": "actions",
							"type": "tuple[]"
						},
						{
							"internalType": "bytes32",
							"name": "allowFailuresMap",
							"type": "bytes32"
						},
						{
							"internalType": "bytes",
							"name": "proof",
							"type": "bytes"
						},
						{
							"internalType": "address",
							"name": "challenger",
							"type": "address"
						}
					],
					"indexed": false,
					"internalType": "struct ERC3000Data.Payload",
					"name": "payload",
					"type": "tuple"
				}
			],
			"name": "Scheduled",
			"type": "event"
		},
		{
			"anonymous": false,
			"inputs": [
				{
					"indexed": true,
					"internalType": "bytes32",
					"name": "containerHash",
					"type": "bytes32"
				},
				{
					"indexed": true,
					"internalType": "address",
					"name": "actor",
					"type": "address"
				},
				{
					"indexed": false,
					"internalType": "bytes",
					"name": "reason",
					"type": "bytes"
				}
			],
			"name": "Vetoed",
			"type": "event"
		},
		{
			"inputs": [],
			"name": "ROOT_ROLE",
			"outputs": [
				{
					"internalType": "bytes4",
					"name": "",
					"type": "bytes4"
				}
			],
			"stateMutability": "view",
			"type": "function"
		},
		{
			"inputs": [
				{
					"components": [
						{
							"internalType": "enum ACLData.BulkOp",
							"name": "op",
							"type": "uint8"
						},
						{
							"internalType": "bytes4",
							"name": "role",
							"type": "bytes4"
						},
						{
							"internalType": "address",
							"name": "who",
							"type": "address"
						}
					],
					"internalType": "struct ACLData.BulkItem[]",
					"name": "items",
					"type": "tuple[]"
				}
			],
			"name": "bulk",
			"outputs": [],
			"stateMutability": "nonpayable",
			"type": "function"
		},
		{
			"inputs": [
				{
					"components": [
						{
							"components": [
								{
									"internalType": "uint256",
									"name": "nonce",
									"type": "uint256"
								},
								{
									"internalType": "uint256",
									"name": "executionTime",
									"type": "uint256"
								},
								{
									"internalType": "address",
									"name": "submitter",
									"type": "address"
								},
								{
									"internalType": "contract IERC3000Executor",
									"name": "executor",
									"type": "address"
								},
								{
									"components": [
										{
											"internalType": "address",
											"name": "to",
											"type": "address"
										},
										{
											"internalType": "uint256",
											"name": "value",
											"type": "uint256"
										},
										{
											"internalType": "bytes",
											"name": "data",
											"type": "bytes"
										}
									],
									"internalType": "struct ERC3000Data.Action[]",
									"name": "actions",
									"type": "tuple[]"
								},
								{
									"internalType": "bytes32",
									"name": "allowFailuresMap",
									"type": "bytes32"
								},
								{
									"internalType": "bytes",
									"name": "proof",
									"type": "bytes"
								},
								{
									"internalType": "address",
									"name": "challenger",
									"type": "address"
								}
							],
							"internalType": "struct ERC3000Data.Payload",
							"name": "payload",
							"type": "tuple"
						},
						{
							"components": [
								{
									"internalType": "uint256",
									"name": "executionDelay",
									"type": "uint256"
								},
								{
									"components": [
										{
											"internalType": "address",
											"name": "token",
											"type": "address"
										},
										{
											"internalType": "uint256",
											"name": "amount",
											"type": "uint256"
										}
									],
									"internalType": "struct ERC3000Data.Collateral",
									"name": "scheduleDeposit",
									"type": "tuple"
								},
								{
									"components": [
										{
											"internalType": "address",
											"name": "token",
											"type": "address"
										},
										{
											"internalType": "uint256",
											"name": "amount",
											"type": "uint256"
										}
									],
									"internalType": "struct ERC3000Data.Collateral",
									"name": "challengeDeposit",
									"type": "tuple"
								},
								{
									"internalType": "address",
									"name": "resolver",
									"type": "address"
								},
								{
									"internalType": "bytes",
									"name": "rules",
									"type": "bytes"
								},
								{
									"internalType": "uint256",
									"name": "maxCalldataSize",
									"type": "uint256"
								}
							],
							"internalType": "struct ERC3000Data.Config",
							"name": "config",
							"type": "tuple"
						}
					],
					"internalType": "struct ERC3000Data.Container",
					"name": "_container",
					"type": "tuple"
				},
				{
					"internalType": "bytes",
					"name": "_reason",
					"type": "bytes"
				}
			],
			"name": "challenge",
			"outputs": [
				{
					"internalType": "uint256",
					"name": "disputeId",
					"type": "uint256"
				}
			],
			"stateMutability": "nonpayable",
			"type": "function"
		},
		{
			"inputs": [
				{
					"internalType": "bytes32",
					"name": "",
					"type": "bytes32"
				}
			],
			"name": "challengerCache",
			"outputs": [
				{
					"internalType": "address",
					"name": "",
					"type": "address"
				}
			],
			"stateMutability": "view",
			"type": "function"
		},
		{
			"inputs": [],
			"name": "configHash",
			"outputs": [
				{
					"internalType": "bytes32",
					"name": "",
					"type": "bytes32"
				}
			],
			"stateMutability": "view",
			"type": "function"
		},
		{
			"inputs": [
				{
					"components": [
						{
							"internalType": "uint256",
							"name": "executionDelay",
							"type": "uint256"
						},
						{
							"components": [
								{
									"internalType": "address",
									"name": "token",
									"type": "address"
								},
								{
									"internalType": "uint256",
									"name": "amount",
									"type": "uint256"
								}
							],
							"internalType": "struct ERC3000Data.Collateral",
							"name": "scheduleDeposit",
							"type": "tuple"
						},
						{
							"components": [
								{
									"internalType": "address",
									"name": "token",
									"type": "address"
								},
								{
									"internalType": "uint256",
									"name": "amount",
									"type": "uint256"
								}
							],
							"internalType": "struct ERC3000Data.Collateral",
							"name": "challengeDeposit",
							"type": "tuple"
						},
						{
							"internalType": "address",
							"name": "resolver",
							"type": "address"
						},
						{
							"internalType": "bytes",
							"name": "rules",
							"type": "bytes"
						},
						{
							"internalType": "uint256",
							"name": "maxCalldataSize",
							"type": "uint256"
						}
					],
					"internalType": "struct ERC3000Data.Config",
					"name": "_config",
					"type": "tuple"
				}
			],
			"name": "configure",
			"outputs": [
				{
					"internalType": "bytes32",
					"name": "",
					"type": "bytes32"
				}
			],
			"stateMutability": "nonpayable",
			"type": "function"
		},
		{
			"inputs": [
				{
					"internalType": "bytes32",
					"name": "",
					"type": "bytes32"
				},
				{
					"internalType": "contract IArbitrator",
					"name": "",
					"type": "address"
				}
			],
			"name": "disputeItemCache",
			"outputs": [
				{
					"internalType": "uint256",
					"name": "",
					"type": "uint256"
				}
			],
			"stateMutability": "view",
			"type": "function"
		},
		{
			"inputs": [
				{
					"components": [
						{
							"components": [
								{
									"internalType": "uint256",
									"name": "nonce",
									"type": "uint256"
								},
								{
									"internalType": "uint256",
									"name": "executionTime",
									"type": "uint256"
								},
								{
									"internalType": "address",
									"name": "submitter",
									"type": "address"
								},
								{
									"internalType": "contract IERC3000Executor",
									"name": "executor",
									"type": "address"
								},
								{
									"components": [
										{
											"internalType": "address",
											"name": "to",
											"type": "address"
										},
										{
											"internalType": "uint256",
											"name": "value",
											"type": "uint256"
										},
										{
											"internalType": "bytes",
											"name": "data",
											"type": "bytes"
										}
									],
									"internalType": "struct ERC3000Data.Action[]",
									"name": "actions",
									"type": "tuple[]"
								},
								{
									"internalType": "bytes32",
									"name": "allowFailuresMap",
									"type": "bytes32"
								},
								{
									"internalType": "bytes",
									"name": "proof",
									"type": "bytes"
								},
								{
									"internalType": "address",
									"name": "challenger",
									"type": "address"
								}
							],
							"internalType": "struct ERC3000Data.Payload",
							"name": "payload",
							"type": "tuple"
						},
						{
							"components": [
								{
									"internalType": "uint256",
									"name": "executionDelay",
									"type": "uint256"
								},
								{
									"components": [
										{
											"internalType": "address",
											"name": "token",
											"type": "address"
										},
										{
											"internalType": "uint256",
											"name": "amount",
											"type": "uint256"
										}
									],
									"internalType": "struct ERC3000Data.Collateral",
									"name": "scheduleDeposit",
									"type": "tuple"
								},
								{
									"components": [
										{
											"internalType": "address",
											"name": "token",
											"type": "address"
										},
										{
											"internalType": "uint256",
											"name": "amount",
											"type": "uint256"
										}
									],
									"internalType": "struct ERC3000Data.Collateral",
									"name": "challengeDeposit",
									"type": "tuple"
								},
								{
									"internalType": "address",
									"name": "resolver",
									"type": "address"
								},
								{
									"internalType": "bytes",
									"name": "rules",
									"type": "bytes"
								},
								{
									"internalType": "uint256",
									"name": "maxCalldataSize",
									"type": "uint256"
								}
							],
							"internalType": "struct ERC3000Data.Config",
							"name": "config",
							"type": "tuple"
						}
					],
					"internalType": "struct ERC3000Data.Container",
					"name": "_container",
					"type": "tuple"
				}
			],
			"name": "execute",
			"outputs": [
				{
					"internalType": "bytes32",
					"name": "failureMap",
					"type": "bytes32"
				},
				{
					"internalType": "bytes[]",
					"name": "",
					"type": "bytes[]"
				}
			],
			"stateMutability": "nonpayable",
			"type": "function"
		},
		{
			"inputs": [
				{
					"internalType": "bytes4",
					"name": "_role",
					"type": "bytes4"
				}
			],
			"name": "freeze",
			"outputs": [],
			"stateMutability": "nonpayable",
			"type": "function"
		},
		{
			"inputs": [
				{
					"internalType": "bytes4",
					"name": "_role",
					"type": "bytes4"
				},
				{
					"internalType": "address",
					"name": "_who",
					"type": "address"
				}
			],
			"name": "grant",
			"outputs": [],
			"stateMutability": "nonpayable",
			"type": "function"
		},
		{
			"inputs": [
				{
					"internalType": "bytes4",
					"name": "_role",
					"type": "bytes4"
				},
				{
					"internalType": "address",
					"name": "_who",
					"type": "address"
				},
				{
					"internalType": "contract IACLOracle",
					"name": "_oracle",
					"type": "address"
				}
			],
			"name": "grantWithOracle",
			"outputs": [],
			"stateMutability": "nonpayable",
			"type": "function"
		},
		{
			"inputs": [
				{
					"internalType": "string",
					"name": "",
					"type": "string"
				}
			],
			"name": "initBlocks",
			"outputs": [
				{
					"internalType": "uint256",
					"name": "",
					"type": "uint256"
				}
			],
			"stateMutability": "view",
			"type": "function"
		},
		{
			"inputs": [
				{
					"internalType": "address",
					"name": "_aclRoot",
					"type": "address"
				},
				{
					"components": [
						{
							"internalType": "uint256",
							"name": "executionDelay",
							"type": "uint256"
						},
						{
							"components": [
								{
									"internalType": "address",
									"name": "token",
									"type": "address"
								},
								{
									"internalType": "uint256",
									"name": "amount",
									"type": "uint256"
								}
							],
							"internalType": "struct ERC3000Data.Collateral",
							"name": "scheduleDeposit",
							"type": "tuple"
						},
						{
							"components": [
								{
									"internalType": "address",
									"name": "token",
									"type": "address"
								},
								{
									"internalType": "uint256",
									"name": "amount",
									"type": "uint256"
								}
							],
							"internalType": "struct ERC3000Data.Collateral",
							"name": "challengeDeposit",
							"type": "tuple"
						},
						{
							"internalType": "address",
							"name": "resolver",
							"type": "address"
						},
						{
							"internalType": "bytes",
							"name": "rules",
							"type": "bytes"
						},
						{
							"internalType": "uint256",
							"name": "maxCalldataSize",
							"type": "uint256"
						}
					],
					"internalType": "struct ERC3000Data.Config",
					"name": "_initialConfig",
					"type": "tuple"
				}
			],
			"name": "initialize",
			"outputs": [],
			"stateMutability": "nonpayable",
			"type": "function"
		},
		{
			"inputs": [
				{
					"internalType": "bytes4",
					"name": "_role",
					"type": "bytes4"
				}
			],
			"name": "isFrozen",
			"outputs": [
				{
					"internalType": "bool",
					"name": "",
					"type": "bool"
				}
			],
			"stateMutability": "view",
			"type": "function"
		},
		{
			"inputs": [],
			"name": "nonce",
			"outputs": [
				{
					"internalType": "uint256",
					"name": "",
					"type": "uint256"
				}
			],
			"stateMutability": "view",
			"type": "function"
		},
		{
			"inputs": [
				{
					"internalType": "bytes32",
					"name": "",
					"type": "bytes32"
				}
			],
			"name": "queue",
			"outputs": [
				{
					"internalType": "enum GovernQueueStateLib.State",
					"name": "state",
					"type": "uint8"
				}
			],
			"stateMutability": "view",
			"type": "function"
		},
		{
			"inputs": [
				{
					"components": [
						{
							"components": [
								{
									"internalType": "uint256",
									"name": "nonce",
									"type": "uint256"
								},
								{
									"internalType": "uint256",
									"name": "executionTime",
									"type": "uint256"
								},
								{
									"internalType": "address",
									"name": "submitter",
									"type": "address"
								},
								{
									"internalType": "contract IERC3000Executor",
									"name": "executor",
									"type": "address"
								},
								{
									"components": [
										{
											"internalType": "address",
											"name": "to",
											"type": "address"
										},
										{
											"internalType": "uint256",
											"name": "value",
											"type": "uint256"
										},
										{
											"internalType": "bytes",
											"name": "data",
											"type": "bytes"
										}
									],
									"internalType": "struct ERC3000Data.Action[]",
									"name": "actions",
									"type": "tuple[]"
								},
								{
									"internalType": "bytes32",
									"name": "allowFailuresMap",
									"type": "bytes32"
								},
								{
									"internalType": "bytes",
									"name": "proof",
									"type": "bytes"
								},
								{
									"internalType": "address",
									"name": "challenger",
									"type": "address"
								}
							],
							"internalType": "struct ERC3000Data.Payload",
							"name": "payload",
							"type": "tuple"
						},
						{
							"components": [
								{
									"internalType": "uint256",
									"name": "executionDelay",
									"type": "uint256"
								},
								{
									"components": [
										{
											"internalType": "address",
											"name": "token",
											"type": "address"
										},
										{
											"internalType": "uint256",
											"name": "amount",
											"type": "uint256"
										}
									],
									"internalType": "struct ERC3000Data.Collateral",
									"name": "scheduleDeposit",
									"type": "tuple"
								},
								{
									"components": [
										{
											"internalType": "address",
											"name": "token",
											"type": "address"
										},
										{
											"internalType": "uint256",
											"name": "amount",
											"type": "uint256"
										}
									],
									"internalType": "struct ERC3000Data.Collateral",
									"name": "challengeDeposit",
									"type": "tuple"
								},
								{
									"internalType": "address",
									"name": "resolver",
									"type": "address"
								},
								{
									"internalType": "bytes",
									"name": "rules",
									"type": "bytes"
								},
								{
									"internalType": "uint256",
									"name": "maxCalldataSize",
									"type": "uint256"
								}
							],
							"internalType": "struct ERC3000Data.Config",
							"name": "config",
							"type": "tuple"
						}
					],
					"internalType": "struct ERC3000Data.Container",
					"name": "_container",
					"type": "tuple"
				},
				{
					"internalType": "uint256",
					"name": "_disputeId",
					"type": "uint256"
				}
			],
			"name": "resolve",
			"outputs": [
				{
					"internalType": "bytes32",
					"name": "failureMap",
					"type": "bytes32"
				},
				{
					"internalType": "bytes[]",
					"name": "",
					"type": "bytes[]"
				}
			],
			"stateMutability": "nonpayable",
			"type": "function"
		},
		{
			"inputs": [
				{
					"internalType": "bytes4",
					"name": "_role",
					"type": "bytes4"
				},
				{
					"internalType": "address",
					"name": "_who",
					"type": "address"
				}
			],
			"name": "revoke",
			"outputs": [],
			"stateMutability": "nonpayable",
			"type": "function"
		},
		{
			"inputs": [
				{
					"internalType": "bytes4",
					"name": "",
					"type": "bytes4"
				},
				{
					"internalType": "address",
					"name": "",
					"type": "address"
				}
			],
			"name": "roles",
			"outputs": [
				{
					"internalType": "address",
					"name": "",
					"type": "address"
				}
			],
			"stateMutability": "view",
			"type": "function"
		},
		{
			"inputs": [
				{
					"components": [
						{
							"components": [
								{
									"internalType": "uint256",
									"name": "nonce",
									"type": "uint256"
								},
								{
									"internalType": "uint256",
									"name": "executionTime",
									"type": "uint256"
								},
								{
									"internalType": "address",
									"name": "submitter",
									"type": "address"
								},
								{
									"internalType": "contract IERC3000Executor",
									"name": "executor",
									"type": "address"
								},
								{
									"components": [
										{
											"internalType": "address",
											"name": "to",
											"type": "address"
										},
										{
											"internalType": "uint256",
											"name": "value",
											"type": "uint256"
										},
										{
											"internalType": "bytes",
											"name": "data",
											"type": "bytes"
										}
									],
									"internalType": "struct ERC3000Data.Action[]",
									"name": "actions",
									"type": "tuple[]"
								},
								{
									"internalType": "bytes32",
									"name": "allowFailuresMap",
									"type": "bytes32"
								},
								{
									"internalType": "bytes",
									"name": "proof",
									"type": "bytes"
								},
								{
									"internalType": "address",
									"name": "challenger",
									"type": "address"
								}
							],
							"internalType": "struct ERC3000Data.Payload",
							"name": "payload",
							"type": "tuple"
						},
						{
							"components": [
								{
									"internalType": "uint256",
									"name": "executionDelay",
									"type": "uint256"
								},
								{
									"components": [
										{
											"internalType": "address",
											"name": "token",
											"type": "address"
										},
										{
											"internalType": "uint256",
											"name": "amount",
											"type": "uint256"
										}
									],
									"internalType": "struct ERC3000Data.Collateral",
									"name": "scheduleDeposit",
									"type": "tuple"
								},
								{
									"components": [
										{
											"internalType": "address",
											"name": "token",
											"type": "address"
										},
										{
											"internalType": "uint256",
											"name": "amount",
											"type": "uint256"
										}
									],
									"internalType": "struct ERC3000Data.Collateral",
									"name": "challengeDeposit",
									"type": "tuple"
								},
								{
									"internalType": "address",
									"name": "resolver",
									"type": "address"
								},
								{
									"internalType": "bytes",
									"name": "rules",
									"type": "bytes"
								},
								{
									"internalType": "uint256",
									"name": "maxCalldataSize",
									"type": "uint256"
								}
							],
							"internalType": "struct ERC3000Data.Config",
							"name": "config",
							"type": "tuple"
						}
					],
					"internalType": "struct ERC3000Data.Container",
					"name": "_container",
					"type": "tuple"
				}
			],
			"name": "schedule",
			"outputs": [
				{
					"internalType": "bytes32",
					"name": "containerHash",
					"type": "bytes32"
				}
			],
			"stateMutability": "nonpayable",
			"type": "function"
		},
		{
			"inputs": [
				{
					"internalType": "bytes4",
					"name": "_interfaceId",
					"type": "bytes4"
				}
			],
			"name": "supportsInterface",
			"outputs": [
				{
					"internalType": "bool",
					"name": "",
					"type": "bool"
				}
			],
			"stateMutability": "view",
			"type": "function"
		},
		{
			"inputs": [
				{
					"components": [
						{
							"components": [
								{
									"internalType": "uint256",
									"name": "nonce",
									"type": "uint256"
								},
								{
									"internalType": "uint256",
									"name": "executionTime",
									"type": "uint256"
								},
								{
									"internalType": "address",
									"name": "submitter",
									"type": "address"
								},
								{
									"internalType": "contract IERC3000Executor",
									"name": "executor",
									"type": "address"
								},
								{
									"components": [
										{
											"internalType": "address",
											"name": "to",
											"type": "address"
										},
										{
											"internalType": "uint256",
											"name": "value",
											"type": "uint256"
										},
										{
											"internalType": "bytes",
											"name": "data",
											"type": "bytes"
										}
									],
									"internalType": "struct ERC3000Data.Action[]",
									"name": "actions",
									"type": "tuple[]"
								},
								{
									"internalType": "bytes32",
									"name": "allowFailuresMap",
									"type": "bytes32"
								},
								{
									"internalType": "bytes",
									"name": "proof",
									"type": "bytes"
								},
								{
									"internalType": "address",
									"name": "challenger",
									"type": "address"
								}
							],
							"internalType": "struct ERC3000Data.Payload",
							"name": "payload",
							"type": "tuple"
						},
						{
							"components": [
								{
									"internalType": "uint256",
									"name": "executionDelay",
									"type": "uint256"
								},
								{
									"components": [
										{
											"internalType": "address",
											"name": "token",
											"type": "address"
										},
										{
											"internalType": "uint256",
											"name": "amount",
											"type": "uint256"
										}
									],
									"internalType": "struct ERC3000Data.Collateral",
									"name": "scheduleDeposit",
									"type": "tuple"
								},
								{
									"components": [
										{
											"internalType": "address",
											"name": "token",
											"type": "address"
										},
										{
											"internalType": "uint256",
											"name": "amount",
											"type": "uint256"
										}
									],
									"internalType": "struct ERC3000Data.Collateral",
									"name": "challengeDeposit",
									"type": "tuple"
								},
								{
									"internalType": "address",
									"name": "resolver",
									"type": "address"
								},
								{
									"internalType": "bytes",
									"name": "rules",
									"type": "bytes"
								},
								{
									"internalType": "uint256",
									"name": "maxCalldataSize",
									"type": "uint256"
								}
							],
							"internalType": "struct ERC3000Data.Config",
							"name": "config",
							"type": "tuple"
						}
					],
					"internalType": "struct ERC3000Data.Container",
					"name": "_container",
					"type": "tuple"
				},
				{
					"internalType": "bytes",
					"name": "_reason",
					"type": "bytes"
				}
			],
			"name": "veto",
			"outputs": [],
			"stateMutability": "nonpayable",
			"type": "function"
		}
	]
}